{
  "abi": [
    {
      "inputs": [
        {
          "internalType": "address",
          "name": "_defaultAdmin",
          "type": "address"
        },
        {
          "internalType": "string",
          "name": "_name",
          "type": "string"
        },
        {
          "internalType": "string",
          "name": "_symbol",
          "type": "string"
        },
        {
          "internalType": "address",
          "name": "_royaltyRecipient",
          "type": "address"
        },
        {
          "internalType": "uint128",
          "name": "_royaltyBps",
          "type": "uint128"
        }
      ],
      "stateMutability": "nonpayable",
      "type": "constructor"
    },
    {
      "inputs": [],
      "name": "ApprovalCallerNotOwnerNorApproved",
      "type": "error"
    },
    {
      "inputs": [],
      "name": "ApprovalQueryForNonexistentToken",
      "type": "error"
    },
    {
      "inputs": [],
      "name": "ApprovalToCurrentOwner",
      "type": "error"
    },
    {
      "inputs": [],
      "name": "ApproveToCaller",
      "type": "error"
    },
    {
      "inputs": [],
      "name": "BalanceQueryForZeroAddress",
      "type": "error"
    },
    {
      "inputs": [
        {
          "internalType": "uint256",
          "name": "index",
          "type": "uint256"
        }
      ],
      "name": "BatchMintInvalidBatchId",
      "type": "error"
    },
    {
      "inputs": [
        {
          "internalType": "uint256",
          "name": "tokenId",
          "type": "uint256"
        }
      ],
      "name": "BatchMintInvalidTokenId",
      "type": "error"
    },
    {
      "inputs": [
        {
          "internalType": "uint256",
          "name": "batchId",
          "type": "uint256"
        }
      ],
      "name": "BatchMintMetadataFrozen",
      "type": "error"
    },
    {
      "inputs": [],
      "name": "ContractMetadataUnauthorized",
      "type": "error"
    },
    {
      "inputs": [],
      "name": "InvalidQueryRange",
      "type": "error"
    },
    {
      "inputs": [],
      "name": "MintToZeroAddress",
      "type": "error"
    },
    {
      "inputs": [],
      "name": "MintZeroQuantity",
      "type": "error"
    },
    {
      "inputs": [],
      "name": "OwnableUnauthorized",
      "type": "error"
    },
    {
      "inputs": [],
      "name": "OwnerQueryForNonexistentToken",
      "type": "error"
    },
    {
      "inputs": [
        {
          "internalType": "uint256",
          "name": "max",
          "type": "uint256"
        },
        {
          "internalType": "uint256",
          "name": "actual",
          "type": "uint256"
        }
      ],
      "name": "RoyaltyExceededMaxFeeBps",
      "type": "error"
    },
    {
      "inputs": [
        {
          "internalType": "address",
          "name": "recipient",
          "type": "address"
        }
      ],
      "name": "RoyaltyInvalidRecipient",
      "type": "error"
    },
    {
      "inputs": [],
      "name": "RoyaltyUnauthorized",
      "type": "error"
    },
    {
      "inputs": [],
      "name": "TransferCallerNotOwnerNorApproved",
      "type": "error"
    },
    {
      "inputs": [],
      "name": "TransferFromIncorrectOwner",
      "type": "error"
    },
    {
      "inputs": [],
      "name": "TransferToNonERC721ReceiverImplementer",
      "type": "error"
    },
    {
      "inputs": [],
      "name": "TransferToZeroAddress",
      "type": "error"
    },
    {
      "inputs": [],
      "name": "URIQueryForNonexistentToken",
      "type": "error"
    },
    {
      "anonymous": false,
      "inputs": [
        {
          "indexed": true,
          "internalType": "address",
          "name": "owner",
          "type": "address"
        },
        {
          "indexed": true,
          "internalType": "address",
          "name": "approved",
          "type": "address"
        },
        {
          "indexed": true,
          "internalType": "uint256",
          "name": "tokenId",
          "type": "uint256"
        }
      ],
      "name": "Approval",
      "type": "event"
    },
    {
      "anonymous": false,
      "inputs": [
        {
          "indexed": true,
          "internalType": "address",
          "name": "owner",
          "type": "address"
        },
        {
          "indexed": true,
          "internalType": "address",
          "name": "operator",
          "type": "address"
        },
        {
          "indexed": false,
          "internalType": "bool",
          "name": "approved",
          "type": "bool"
        }
      ],
      "name": "ApprovalForAll",
      "type": "event"
    },
    {
      "anonymous": false,
      "inputs": [
        {
          "indexed": false,
          "internalType": "uint256",
          "name": "_fromTokenId",
          "type": "uint256"
        },
        {
          "indexed": false,
          "internalType": "uint256",
          "name": "_toTokenId",
          "type": "uint256"
        }
      ],
      "name": "BatchMetadataUpdate",
      "type": "event"
    },
    {
      "anonymous": false,
      "inputs": [
        {
          "indexed": false,
          "internalType": "string",
          "name": "prevURI",
          "type": "string"
        },
        {
          "indexed": false,
          "internalType": "string",
          "name": "newURI",
          "type": "string"
        }
      ],
      "name": "ContractURIUpdated",
      "type": "event"
    },
    {
      "anonymous": false,
      "inputs": [
        {
          "indexed": true,
          "internalType": "address",
          "name": "newRoyaltyRecipient",
          "type": "address"
        },
        {
          "indexed": false,
          "internalType": "uint256",
          "name": "newRoyaltyBps",
          "type": "uint256"
        }
      ],
      "name": "DefaultRoyalty",
      "type": "event"
    },
    {
      "anonymous": false,
      "inputs": [],
      "name": "MetadataFrozen",
      "type": "event"
    },
    {
      "anonymous": false,
      "inputs": [
        {
          "indexed": true,
          "internalType": "address",
          "name": "prevOwner",
          "type": "address"
        },
        {
          "indexed": true,
          "internalType": "address",
          "name": "newOwner",
          "type": "address"
        }
      ],
      "name": "OwnerUpdated",
      "type": "event"
    },
    {
      "anonymous": false,
      "inputs": [
        {
          "indexed": true,
          "internalType": "uint256",
          "name": "tokenId",
          "type": "uint256"
        },
        {
          "indexed": true,
          "internalType": "address",
          "name": "royaltyRecipient",
          "type": "address"
        },
        {
          "indexed": false,
          "internalType": "uint256",
          "name": "royaltyBps",
          "type": "uint256"
        }
      ],
      "name": "RoyaltyForToken",
      "type": "event"
    },
    {
      "anonymous": false,
      "inputs": [
        {
          "indexed": true,
          "internalType": "address",
          "name": "from",
          "type": "address"
        },
        {
          "indexed": true,
          "internalType": "address",
          "name": "to",
          "type": "address"
        },
        {
          "indexed": true,
          "internalType": "uint256",
          "name": "tokenId",
          "type": "uint256"
        }
      ],
      "name": "Transfer",
      "type": "event"
    },
    {
      "inputs": [],
      "name": "MAX_SUPPLY",
      "outputs": [
        {
          "internalType": "uint256",
          "name": "",
          "type": "uint256"
        }
      ],
      "stateMutability": "view",
      "type": "function"
    },
    {
      "inputs": [
        {
          "internalType": "address",
          "name": "to",
          "type": "address"
        },
        {
          "internalType": "uint256",
          "name": "tokenId",
          "type": "uint256"
        }
      ],
      "name": "approve",
      "outputs": [],
      "stateMutability": "nonpayable",
      "type": "function"
    },
    {
      "inputs": [
        {
          "internalType": "address",
          "name": "owner",
          "type": "address"
        }
      ],
      "name": "balanceOf",
      "outputs": [
        {
          "internalType": "uint256",
          "name": "",
          "type": "uint256"
        }
      ],
      "stateMutability": "view",
      "type": "function"
    },
    {
      "inputs": [
        {
          "internalType": "uint256",
          "name": "",
          "type": "uint256"
        }
      ],
      "name": "batchFrozen",
      "outputs": [
        {
          "internalType": "bool",
          "name": "",
          "type": "bool"
        }
      ],
      "stateMutability": "view",
      "type": "function"
    },
    {
      "inputs": [
        {
          "internalType": "address",
          "name": "_to",
          "type": "address"
        },
        {
          "internalType": "uint256",
          "name": "_quantity",
          "type": "uint256"
        },
        {
          "internalType": "string",
          "name": "_baseURI",
          "type": "string"
        },
        {
          "internalType": "bytes",
          "name": "_data",
          "type": "bytes"
        }
      ],
      "name": "batchMintTo",
      "outputs": [],
      "stateMutability": "nonpayable",
      "type": "function"
    },
    {
      "inputs": [
        {
          "internalType": "address",
          "name": "to",
          "type": "address"
        },
        {
          "internalType": "string[]",
          "name": "_tokenURIs",
          "type": "string[]"
        },
        {
          "internalType": "uint256[]",
          "name": "_mojoScores",
          "type": "uint256[]"
        },
        {
          "internalType": "string[]",
          "name": "_narratives",
          "type": "string[]"
        }
      ],
      "name": "batchMintTo",
      "outputs": [],
      "stateMutability": "payable",
      "type": "function"
    },
    {
      "inputs": [
        {
          "internalType": "uint256",
          "name": "_tokenId",
          "type": "uint256"
        }
      ],
      "name": "burn",
      "outputs": [],
      "stateMutability": "nonpayable",
      "type": "function"
    },
    {
      "inputs": [],
      "name": "contractURI",
      "outputs": [
        {
          "internalType": "string",
          "name": "",
          "type": "string"
        }
      ],
      "stateMutability": "view",
      "type": "function"
    },
    {
      "inputs": [
        {
          "internalType": "uint256",
          "name": "tokenId",
          "type": "uint256"
        }
      ],
      "name": "explicitOwnershipOf",
      "outputs": [
        {
          "components": [
            {
              "internalType": "address",
              "name": "addr",
              "type": "address"
            },
            {
              "internalType": "uint64",
              "name": "startTimestamp",
              "type": "uint64"
            },
            {
              "internalType": "bool",
              "name": "burned",
              "type": "bool"
            }
          ],
          "internalType": "struct IERC721A.TokenOwnership",
          "name": "",
          "type": "tuple"
        }
      ],
      "stateMutability": "view",
      "type": "function"
    },
    {
      "inputs": [
        {
          "internalType": "uint256[]",
          "name": "tokenIds",
          "type": "uint256[]"
        }
      ],
      "name": "explicitOwnershipsOf",
      "outputs": [
        {
          "components": [
            {
              "internalType": "address",
              "name": "addr",
              "type": "address"
            },
            {
              "internalType": "uint64",
              "name": "startTimestamp",
              "type": "uint64"
            },
            {
              "internalType": "bool",
              "name": "burned",
              "type": "bool"
            }
          ],
          "internalType": "struct IERC721A.TokenOwnership[]",
          "name": "",
          "type": "tuple[]"
        }
      ],
      "stateMutability": "view",
      "type": "function"
    },
    {
      "inputs": [
        {
          "internalType": "uint256",
          "name": "tokenId",
          "type": "uint256"
        }
      ],
      "name": "getApproved",
      "outputs": [
        {
          "internalType": "address",
          "name": "",
          "type": "address"
        }
      ],
      "stateMutability": "view",
      "type": "function"
    },
    {
      "inputs": [],
      "name": "getBaseURICount",
      "outputs": [
        {
          "internalType": "uint256",
          "name": "",
          "type": "uint256"
        }
      ],
      "stateMutability": "view",
      "type": "function"
    },
    {
      "inputs": [
        {
          "internalType": "uint256",
          "name": "_index",
          "type": "uint256"
        }
      ],
      "name": "getBatchIdAtIndex",
      "outputs": [
        {
          "internalType": "uint256",
          "name": "",
          "type": "uint256"
        }
      ],
      "stateMutability": "view",
      "type": "function"
    },
    {
      "inputs": [],
      "name": "getDefaultRoyaltyInfo",
      "outputs": [
        {
          "internalType": "address",
          "name": "",
          "type": "address"
        },
        {
          "internalType": "uint16",
          "name": "",
          "type": "uint16"
        }
      ],
      "stateMutability": "view",
      "type": "function"
    },
    {
      "inputs": [
        {
          "internalType": "uint256",
          "name": "_tokenId",
          "type": "uint256"
        }
      ],
      "name": "getRoyaltyInfoForToken",
      "outputs": [
        {
          "internalType": "address",
          "name": "",
          "type": "address"
        },
        {
          "internalType": "uint16",
          "name": "",
          "type": "uint16"
        }
      ],
      "stateMutability": "view",
      "type": "function"
    },
    {
      "inputs": [
        {
          "internalType": "address",
          "name": "owner",
          "type": "address"
        },
        {
          "internalType": "address",
          "name": "operator",
          "type": "address"
        }
      ],
      "name": "isApprovedForAll",
      "outputs": [
        {
          "internalType": "bool",
          "name": "",
          "type": "bool"
        }
      ],
      "stateMutability": "view",
      "type": "function"
    },
    {
      "inputs": [
        {
          "internalType": "address",
          "name": "_operator",
          "type": "address"
        },
        {
          "internalType": "uint256",
          "name": "_tokenId",
          "type": "uint256"
        }
      ],
      "name": "isApprovedOrOwner",
      "outputs": [
        {
          "internalType": "bool",
          "name": "isApprovedOrOwnerOf",
          "type": "bool"
        }
      ],
      "stateMutability": "view",
      "type": "function"
    },
    {
      "inputs": [],
      "name": "mintFee",
      "outputs": [
        {
          "internalType": "uint256",
          "name": "",
          "type": "uint256"
        }
      ],
      "stateMutability": "view",
      "type": "function"
    },
    {
      "inputs": [
        {
          "internalType": "address",
          "name": "_to",
          "type": "address"
        },
        {
          "internalType": "string",
          "name": "_tokenURI",
          "type": "string"
        }
      ],
      "name": "mintTo",
      "outputs": [],
      "stateMutability": "nonpayable",
      "type": "function"
    },
    {
      "inputs": [
        {
          "internalType": "address",
          "name": "to",
          "type": "address"
        },
        {
          "internalType": "string",
          "name": "_tokenURI",
          "type": "string"
        },
        {
          "internalType": "uint256",
          "name": "_mojoScore",
          "type": "uint256"
        },
        {
          "internalType": "string",
          "name": "_narrative",
          "type": "string"
        }
      ],
      "name": "mintTo",
      "outputs": [],
      "stateMutability": "payable",
      "type": "function"
    },
    {
      "inputs": [
        {
          "internalType": "uint256",
          "name": "",
          "type": "uint256"
        }
      ],
      "name": "mojoScore",
      "outputs": [
        {
          "internalType": "uint256",
          "name": "",
          "type": "uint256"
        }
      ],
      "stateMutability": "view",
      "type": "function"
    },
    {
      "inputs": [
        {
          "internalType": "bytes[]",
          "name": "data",
          "type": "bytes[]"
        }
      ],
      "name": "multicall",
      "outputs": [
        {
          "internalType": "bytes[]",
          "name": "results",
          "type": "bytes[]"
        }
      ],
      "stateMutability": "nonpayable",
      "type": "function"
    },
    {
      "inputs": [],
      "name": "name",
      "outputs": [
        {
          "internalType": "string",
          "name": "",
          "type": "string"
        }
      ],
      "stateMutability": "view",
      "type": "function"
    },
    {
      "inputs": [
        {
          "internalType": "uint256",
          "name": "",
          "type": "uint256"
        }
      ],
      "name": "narrative",
      "outputs": [
        {
          "internalType": "string",
          "name": "",
          "type": "string"
        }
      ],
      "stateMutability": "view",
      "type": "function"
    },
    {
      "inputs": [],
      "name": "nextTokenIdToMint",
      "outputs": [
        {
          "internalType": "uint256",
          "name": "",
          "type": "uint256"
        }
      ],
      "stateMutability": "view",
      "type": "function"
    },
    {
      "inputs": [],
      "name": "owner",
      "outputs": [
        {
          "internalType": "address",
          "name": "",
          "type": "address"
        }
      ],
      "stateMutability": "view",
      "type": "function"
    },
    {
      "inputs": [
        {
          "internalType": "uint256",
          "name": "tokenId",
          "type": "uint256"
        }
      ],
      "name": "ownerOf",
      "outputs": [
        {
          "internalType": "address",
          "name": "",
          "type": "address"
        }
      ],
      "stateMutability": "view",
      "type": "function"
    },
    {
      "inputs": [
        {
          "internalType": "uint256",
          "name": "tokenId",
          "type": "uint256"
        },
        {
          "internalType": "uint256",
          "name": "salePrice",
          "type": "uint256"
        }
      ],
      "name": "royaltyInfo",
      "outputs": [
        {
          "internalType": "address",
          "name": "receiver",
          "type": "address"
        },
        {
          "internalType": "uint256",
          "name": "royaltyAmount",
          "type": "uint256"
        }
      ],
      "stateMutability": "view",
      "type": "function"
    },
    {
      "inputs": [
        {
          "internalType": "address",
          "name": "from",
          "type": "address"
        },
        {
          "internalType": "address",
          "name": "to",
          "type": "address"
        },
        {
          "internalType": "uint256",
          "name": "tokenId",
          "type": "uint256"
        }
      ],
      "name": "safeTransferFrom",
      "outputs": [],
      "stateMutability": "nonpayable",
      "type": "function"
    },
    {
      "inputs": [
        {
          "internalType": "address",
          "name": "from",
          "type": "address"
        },
        {
          "internalType": "address",
          "name": "to",
          "type": "address"
        },
        {
          "internalType": "uint256",
          "name": "tokenId",
          "type": "uint256"
        },
        {
          "internalType": "bytes",
          "name": "_data",
          "type": "bytes"
        }
      ],
      "name": "safeTransferFrom",
      "outputs": [],
      "stateMutability": "nonpayable",
      "type": "function"
    },
    {
      "inputs": [
        {
          "internalType": "address",
          "name": "operator",
          "type": "address"
        },
        {
          "internalType": "bool",
          "name": "approved",
          "type": "bool"
        }
      ],
      "name": "setApprovalForAll",
      "outputs": [],
      "stateMutability": "nonpayable",
      "type": "function"
    },
    {
      "inputs": [
        {
          "internalType": "string",
          "name": "_uri",
          "type": "string"
        }
      ],
      "name": "setContractURI",
      "outputs": [],
      "stateMutability": "nonpayable",
      "type": "function"
    },
    {
      "inputs": [
        {
          "internalType": "address",
          "name": "_royaltyRecipient",
          "type": "address"
        },
        {
          "internalType": "uint256",
          "name": "_royaltyBps",
          "type": "uint256"
        }
      ],
      "name": "setDefaultRoyaltyInfo",
      "outputs": [],
      "stateMutability": "nonpayable",
      "type": "function"
    },
    {
      "inputs": [
        {
          "internalType": "uint256",
          "name": "_fee",
          "type": "uint256"
        }
      ],
      "name": "setMintFee",
      "outputs": [],
      "stateMutability": "nonpayable",
      "type": "function"
    },
    {
      "inputs": [
        {
          "internalType": "address",
          "name": "_newOwner",
          "type": "address"
        }
      ],
      "name": "setOwner",
      "outputs": [],
      "stateMutability": "nonpayable",
      "type": "function"
    },
    {
      "inputs": [
        {
          "internalType": "uint256",
          "name": "_tokenId",
          "type": "uint256"
        },
        {
          "internalType": "address",
          "name": "_recipient",
          "type": "address"
        },
        {
          "internalType": "uint256",
          "name": "_bps",
          "type": "uint256"
        }
      ],
      "name": "setRoyaltyInfoForToken",
      "outputs": [],
      "stateMutability": "nonpayable",
      "type": "function"
    },
    {
      "inputs": [
        {
          "internalType": "bytes4",
          "name": "interfaceId",
          "type": "bytes4"
        }
      ],
      "name": "supportsInterface",
      "outputs": [
        {
          "internalType": "bool",
          "name": "",
          "type": "bool"
        }
      ],
      "stateMutability": "view",
      "type": "function"
    },
    {
      "inputs": [],
      "name": "symbol",
      "outputs": [
        {
          "internalType": "string",
          "name": "",
          "type": "string"
        }
      ],
      "stateMutability": "view",
      "type": "function"
    },
    {
      "inputs": [
        {
          "internalType": "uint256",
          "name": "_tokenId",
          "type": "uint256"
        }
      ],
      "name": "tokenURI",
      "outputs": [
        {
          "internalType": "string",
          "name": "",
          "type": "string"
        }
      ],
      "stateMutability": "view",
      "type": "function"
    },
    {
      "inputs": [
        {
          "internalType": "address",
          "name": "owner",
          "type": "address"
        }
      ],
      "name": "tokensOfOwner",
      "outputs": [
        {
          "internalType": "uint256[]",
          "name": "",
          "type": "uint256[]"
        }
      ],
      "stateMutability": "view",
      "type": "function"
    },
    {
      "inputs": [
        {
          "internalType": "address",
          "name": "owner",
          "type": "address"
        },
        {
          "internalType": "uint256",
          "name": "start",
          "type": "uint256"
        },
        {
          "internalType": "uint256",
          "name": "stop",
          "type": "uint256"
        }
      ],
      "name": "tokensOfOwnerIn",
      "outputs": [
        {
          "internalType": "uint256[]",
          "name": "",
          "type": "uint256[]"
        }
      ],
      "stateMutability": "view",
      "type": "function"
    },
    {
      "inputs": [],
      "name": "totalSupply",
      "outputs": [
        {
          "internalType": "uint256",
          "name": "",
          "type": "uint256"
        }
      ],
      "stateMutability": "view",
      "type": "function"
    },
    {
      "inputs": [
        {
          "internalType": "address",
          "name": "from",
          "type": "address"
        },
        {
          "internalType": "address",
          "name": "to",
          "type": "address"
        },
        {
          "internalType": "uint256",
          "name": "tokenId",
          "type": "uint256"
        }
      ],
      "name": "transferFrom",
      "outputs": [],
      "stateMutability": "nonpayable",
      "type": "function"
    },
    {
      "inputs": [],
      "name": "withdraw",
      "outputs": [],
      "stateMutability": "nonpayable",
      "type": "function"
    }
  ],
  "devdoc": {
    "errors": {
      "BatchMintInvalidBatchId(uint256)": [
        {
          "details": "Invalid index for batch"
        }
      ],
      "BatchMintInvalidTokenId(uint256)": [
        {
          "details": "Invalid token"
        }
      ],
      "BatchMintMetadataFrozen(uint256)": [
        {
          "details": "Metadata frozen"
        }
      ],
      "ContractMetadataUnauthorized()": [
        {
          "details": "The sender is not authorized to perform the action"
        }
      ],
      "OwnableUnauthorized()": [
        {
          "details": "The sender is not authorized to perform the action"
        }
      ],
      "RoyaltyExceededMaxFeeBps(uint256,uint256)": [
        {
          "details": "The fee bps exceeded the max value"
        }
      ],
      "RoyaltyInvalidRecipient(address)": [
        {
          "details": "The recipient is invalid"
        }
      ],
      "RoyaltyUnauthorized()": [
        {
          "details": "The sender is not authorized to perform the action"
        }
      ]
    },
    "events": {
      "Approval(address,address,uint256)": {
        "details": "Emitted when `owner` enables `approved` to manage the `tokenId` token."
      },
      "ApprovalForAll(address,address,bool)": {
        "details": "Emitted when `owner` enables or disables (`approved`) `operator` to manage all of its assets."
      },
      "ContractURIUpdated(string,string)": {
        "details": "Emitted when the contract URI is updated."
      },
      "DefaultRoyalty(address,uint256)": {
        "details": "Emitted when royalty info is updated."
      },
      "MetadataFrozen()": {
        "details": "This event emits when the metadata of all tokens are frozen. While not currently supported by marketplaces, this event allows future indexing if desired."
      },
      "OwnerUpdated(address,address)": {
        "details": "Emitted when a new Owner is set."
      },
      "RoyaltyForToken(uint256,address,uint256)": {
        "details": "Emitted when royalty recipient for tokenId is set"
      },
      "Transfer(address,address,uint256)": {
        "details": "Emitted when `tokenId` token is transferred from `from` to `to`."
      }
    },
    "kind": "dev",
    "methods": {
      "approve(address,uint256)": {
        "details": "See {IERC721-approve}."
      },
      "balanceOf(address)": {
        "details": "See {IERC721-balanceOf}."
      },
      "batchMintTo(address,uint256,string,bytes)": {
        "details": "The logic in the `_canMint` function determines whether the caller is authorized to mint NFTs.",
        "params": {
          "_baseURI": "The baseURI for the `n` number of NFTs minted. The metadata for each NFT is `baseURI/tokenId`",
          "_data": "Additional data to pass along during the minting of the NFT.",
          "_quantity": "The number of NFTs to mint.",
          "_to": "The recipient of the NFT to mint."
        }
      },
      "burn(uint256)": {
        "details": "ERC721A's `_burn(uint256,bool)` internally checks for token approvals.",
        "params": {
          "_tokenId": "The tokenId of the NFT to burn."
        }
      },
      "explicitOwnershipOf(uint256)": {
        "details": "Returns the `TokenOwnership` struct at `tokenId` without reverting. If the `tokenId` is out of bounds:   - `addr` = `address(0)`   - `startTimestamp` = `0`   - `burned` = `false` If the `tokenId` is burned:   - `addr` = `<Address of owner before token was burned>`   - `startTimestamp` = `<Timestamp when token was burned>`   - `burned = `true` Otherwise:   - `addr` = `<Address of owner>`   - `startTimestamp` = `<Timestamp of start of ownership>`   - `burned = `false`"
      },
      "explicitOwnershipsOf(uint256[])": {
        "details": "Returns an array of `TokenOwnership` structs at `tokenIds` in order. See {ERC721AQueryable-explicitOwnershipOf}"
      },
      "getApproved(uint256)": {
        "details": "See {IERC721-getApproved}."
      },
      "getBaseURICount()": {
        "details": "Each batch of tokens has an in ID and an associated `baseURI`.                  See {batchIds}."
      },
      "getBatchIdAtIndex(uint256)": {
        "details": "See {getBaseURICount}.",
        "params": {
          "_index": "Index of the desired batch in batchIds array."
        }
      },
      "getRoyaltyInfoForToken(uint256)": {
        "details": "Returns royalty recipient and bps for `_tokenId`.",
        "params": {
          "_tokenId": "The tokenID of the NFT for which to query royalty info."
        }
      },
      "isApprovedForAll(address,address)": {
        "details": "See {IERC721-isApprovedForAll}."
      },
      "isApprovedOrOwner(address,uint256)": {
        "params": {
          "_operator": "The address to check.",
          "_tokenId": "The tokenId of the NFT to check."
        },
        "returns": {
          "isApprovedOrOwnerOf": "Whether the given address is approved to transfer the given NFT."
        }
      },
      "mintTo(address,string)": {
        "details": "The logic in the `_canMint` function determines whether the caller is authorized to mint NFTs.",
        "params": {
          "_to": "The recipient of the NFT to mint.",
          "_tokenURI": "The full metadata URI for the NFT minted."
        }
      },
      "multicall(bytes[])": {
        "details": "Receives and executes a batch of function calls on this contract.",
        "params": {
          "data": "The bytes data that makes up the batch of function calls to execute."
        },
        "returns": {
          "results": "The bytes data that makes up the result of the batch of function calls executed."
        }
      },
      "name()": {
        "details": "See {IERC721Metadata-name}."
      },
      "ownerOf(uint256)": {
        "details": "See {IERC721-ownerOf}."
      },
      "royaltyInfo(uint256,uint256)": {
        "details": "Returns royalty amount and recipient for `tokenId` and `salePrice`.",
        "params": {
          "salePrice": "Sale price of the token.",
          "tokenId": "The tokenID of the NFT for which to query royalty info."
        },
        "returns": {
          "receiver": "       Address of royalty recipient account.",
          "royaltyAmount": "  Royalty amount calculated at current royaltyBps value."
        }
      },
      "safeTransferFrom(address,address,uint256)": {
        "details": "See {IERC721-safeTransferFrom}."
      },
      "safeTransferFrom(address,address,uint256,bytes)": {
        "details": "See {IERC721-safeTransferFrom}."
      },
      "setApprovalForAll(address,bool)": {
        "details": "See {IERC721-setApprovalForAll}."
      },
      "setContractURI(string)": {
        "details": "Caller should be authorized to setup contractURI, e.g. contract admin.                  See {_canSetContractURI}.                  Emits {ContractURIUpdated Event}.",
        "params": {
          "_uri": "keccak256 hash of the role. e.g. keccak256(\"TRANSFER_ROLE\")"
        }
      },
      "setDefaultRoyaltyInfo(address,uint256)": {
        "details": "Caller should be authorized to set royalty info.                  See {_canSetRoyaltyInfo}.                  Emits {DefaultRoyalty Event}; See {_setupDefaultRoyaltyInfo}.",
        "params": {
          "_royaltyBps": "Updated royalty bps.",
          "_royaltyRecipient": "Address to be set as default royalty recipient."
        }
      },
      "setOwner(address)": {
        "params": {
          "_newOwner": "The address to set as the new owner of the contract."
        }
      },
      "setRoyaltyInfoForToken(uint256,address,uint256)": {
        "details": "Sets royalty info for `_tokenId`. Caller should be authorized to set royalty info.                  See {_canSetRoyaltyInfo}.                  Emits {RoyaltyForToken Event}; See {_setupRoyaltyInfoForToken}.",
        "params": {
          "_bps": "Updated royalty bps for the token Id.",
          "_recipient": "Address to be set as royalty recipient for given token Id."
        }
      },
      "supportsInterface(bytes4)": {
        "details": "See ERC165: https://eips.ethereum.org/EIPS/eip-165"
      },
      "symbol()": {
        "details": "See {IERC721Metadata-symbol}."
      },
      "tokenURI(uint256)": {
        "details": "See `BatchMintMetadata` for handling of metadata in this contract.",
        "params": {
          "_tokenId": "The tokenId of an NFT."
        }
      },
      "tokensOfOwner(address)": {
        "details": "Returns an array of token IDs owned by `owner`. This function scans the ownership mapping and is O(totalSupply) in complexity. It is meant to be called off-chain. See {ERC721AQueryable-tokensOfOwnerIn} for splitting the scan into multiple smaller scans if the collection is large enough to cause an out-of-gas error (10K pfp collections should be fine)."
      },
      "tokensOfOwnerIn(address,uint256,uint256)": {
        "details": "Returns an array of token IDs owned by `owner`, in the range [`start`, `stop`) (i.e. `start <= tokenId < stop`). This function allows for tokens to be queried if the collection grows too big for a single call of {ERC721AQueryable-tokensOfOwner}. Requirements: - `start` < `stop`"
      },
      "totalSupply()": {
        "details": "Burned tokens are calculated here, use _totalMinted() if you want to count just minted tokens."
      },
      "transferFrom(address,address,uint256)": {
        "details": "See {IERC721-transferFrom}."
      }
    },
    "version": 1
  },
  "evm": {
    "assembly": "    /* \"DontKilltheJamNFTMojoClaimRedeax.sol\":112:2338  contract DKTJ is ERC721Base {... */\n  mstore(0x40, 0x80)\n    /* \"DontKilltheJamNFTMojoClaimRedeax.sol\":323:572  constructor(... */\n  callvalue\n  dup1\n  iszero\n  tag_1\n  jumpi\n  0x00\n  dup1\n  revert\ntag_1:\n  pop\n  mload(0x40)\n  sub(codesize, bytecodeSize)\n  dup1\n  bytecodeSize\n  dup4\n  codecopy\n  dup2\n  add\n  0x40\n  dup2\n  swap1\n  mstore\n  tag_2\n  swap2\n  tag_3\n  jump\t// in\ntag_2:\n    /* \"DontKilltheJamNFTMojoClaimRedeax.sol\":507:520  _defaultAdmin */\n  dup5\n    /* \"DontKilltheJamNFTMojoClaimRedeax.sol\":522:527  _name */\n  dup5\n    /* \"DontKilltheJamNFTMojoClaimRedeax.sol\":529:536  _symbol */\n  dup5\n    /* \"DontKilltheJamNFTMojoClaimRedeax.sol\":538:555  _royaltyRecipient */\n  dup5\n    /* \"DontKilltheJamNFTMojoClaimRedeax.sol\":557:568  _royaltyBps */\n  dup5\n    /* \"DontKilltheJamNFTMojoClaimRedeax.sol\":522:527  _name */\n  dup4\n    /* \"DontKilltheJamNFTMojoClaimRedeax.sol\":529:536  _symbol */\n  dup4\n    /* \"@thirdweb-dev/contracts/eip/ERC721AVirtualApprove.sol\":1883:1888   */\n  0x02\n    /* \"@thirdweb-dev/contracts/eip/ERC721AVirtualApprove.sol\":1883:1896   */\n  tag_8\n    /* \"DontKilltheJamNFTMojoClaimRedeax.sol\":522:527  _name */\n  dup4\n    /* \"@thirdweb-dev/contracts/eip/ERC721AVirtualApprove.sol\":1883:1888   */\n  dup3\n    /* \"@thirdweb-dev/contracts/eip/ERC721AVirtualApprove.sol\":1883:1896   */\n  tag_9\n  jump\t// in\ntag_8:\n  pop\n    /* \"@thirdweb-dev/contracts/eip/ERC721AVirtualApprove.sol\":1906:1913   */\n  0x03\n    /* \"@thirdweb-dev/contracts/eip/ERC721AVirtualApprove.sol\":1906:1923   */\n  tag_10\n    /* \"@thirdweb-dev/contracts/eip/ERC721AVirtualApprove.sol\":1916:1923   */\n  dup3\n    /* \"@thirdweb-dev/contracts/eip/ERC721AVirtualApprove.sol\":1906:1913   */\n  dup3\n    /* \"@thirdweb-dev/contracts/eip/ERC721AVirtualApprove.sol\":1906:1923   */\n  tag_9\n  jump\t// in\ntag_10:\n  pop\n  pop\n    /* \"@thirdweb-dev/contracts/eip/ERC721AVirtualApprove.sol\":2119:2126   */\n  0x00\n    /* \"@thirdweb-dev/contracts/eip/ERC721AVirtualApprove.sol\":1933:1964   */\n  dup1\n  sstore\n  pop\n    /* \"@thirdweb-dev/contracts/base/ERC721Base.sol\":2264:2290   */\n  tag_14\n    /* \"@thirdweb-dev/contracts/base/ERC721Base.sol\":2276:2289   */\n  dup6\n    /* \"@thirdweb-dev/contracts/base/ERC721Base.sol\":2264:2275   */\n  tag_15\n    /* \"@thirdweb-dev/contracts/base/ERC721Base.sol\":2264:2290   */\n  jump\t// in\ntag_14:\n    /* \"@thirdweb-dev/contracts/base/ERC721Base.sol\":2300:2356   */\n  tag_16\n    /* \"@thirdweb-dev/contracts/base/ERC721Base.sol\":2325:2342   */\n  dup3\n  sub(shl(0x80, 0x01), 0x01)\n    /* \"@thirdweb-dev/contracts/base/ERC721Base.sol\":2300:2356   */\n  dup4\n  and\n    /* \"@thirdweb-dev/contracts/base/ERC721Base.sol\":2300:2324   */\n  tag_17\n    /* \"@thirdweb-dev/contracts/base/ERC721Base.sol\":2300:2356   */\n  jump\t// in\ntag_16:\n    /* \"@thirdweb-dev/contracts/base/ERC721Base.sol\":2057:2363   */\n  pop\n  pop\n  pop\n  pop\n  pop\n    /* \"DontKilltheJamNFTMojoClaimRedeax.sol\":323:572  constructor(... */\n  pop\n  pop\n  pop\n  pop\n  pop\n    /* \"DontKilltheJamNFTMojoClaimRedeax.sol\":112:2338  contract DKTJ is ERC721Base {... */\n  jump(tag_35)\n    /* \"@thirdweb-dev/contracts/extension/Ownable.sol\":1527:1699   */\ntag_15:\n    /* \"@thirdweb-dev/contracts/extension/Ownable.sol\":1607:1613   */\n  0x09\n  dup1\n  sload\n  sub(shl(0xa0, 0x01), 0x01)\n    /* \"@thirdweb-dev/contracts/extension/Ownable.sol\":1623:1641   */\n  dup4\n  dup2\n  and\n  not(sub(shl(0xa0, 0x01), 0x01))\n  dup4\n  and\n  dup2\n  or\n  swap1\n  swap4\n  sstore\n    /* \"@thirdweb-dev/contracts/extension/Ownable.sol\":1657:1692   */\n  mload(0x40)\n    /* \"@thirdweb-dev/contracts/extension/Ownable.sol\":1607:1613   */\n  swap2\n  and\n  swap2\n    /* \"@thirdweb-dev/contracts/extension/Ownable.sol\":1623:1641   */\n  swap1\n    /* \"@thirdweb-dev/contracts/extension/Ownable.sol\":1607:1613   */\n  dup3\n  swap1\n    /* \"@thirdweb-dev/contracts/extension/Ownable.sol\":1657:1692   */\n  0x8292fce18fa69edf4db7b94ea2e58241df0ae57f97e0a6c9b29067028bf92d76\n  swap1\n    /* \"@thirdweb-dev/contracts/extension/Ownable.sol\":1586:1604   */\n  0x00\n  swap1\n    /* \"@thirdweb-dev/contracts/extension/Ownable.sol\":1657:1692   */\n  log3\n    /* \"@thirdweb-dev/contracts/extension/Ownable.sol\":1576:1699   */\n  pop\n    /* \"@thirdweb-dev/contracts/extension/Ownable.sol\":1527:1699   */\n  pop\n  jump\t// out\n    /* \"@thirdweb-dev/contracts/extension/Royalty.sol\":3717:4078   */\ntag_17:\n    /* \"@thirdweb-dev/contracts/extension/Royalty.sol\":3836:3842   */\n  0x2710\n    /* \"@thirdweb-dev/contracts/extension/Royalty.sol\":3822:3833   */\n  dup2\n    /* \"@thirdweb-dev/contracts/extension/Royalty.sol\":3822:3842   */\n  gt\n    /* \"@thirdweb-dev/contracts/extension/Royalty.sol\":3818:3921   */\n  iszero\n  tag_23\n  jumpi\n    /* \"@thirdweb-dev/contracts/extension/Royalty.sol\":3865:3910   */\n  mload(0x40)\n  shl(0xe3, 0x0a4930ad)\n  dup2\n  mstore\n    /* \"@thirdweb-dev/contracts/extension/Royalty.sol\":3890:3896   */\n  0x2710\n    /* \"@thirdweb-dev/contracts/extension/Royalty.sol\":3865:3910   */\n  0x04\n  dup3\n  add\n    /* \"#utility.yul\":4696:4721   */\n  mstore\n    /* \"#utility.yul\":4737:4755   */\n  0x24\n  dup2\n  add\n    /* \"#utility.yul\":4730:4764   */\n  dup3\n  swap1\n  mstore\n    /* \"#utility.yul\":4669:4687   */\n  0x44\n  add\n    /* \"@thirdweb-dev/contracts/extension/Royalty.sol\":3865:3910   */\n  mload(0x40)\n  dup1\n  swap2\n  sub\n  swap1\n  revert\n    /* \"@thirdweb-dev/contracts/extension/Royalty.sol\":3818:3921   */\ntag_23:\n    /* \"@thirdweb-dev/contracts/extension/Royalty.sol\":3931:3947   */\n  0x0a\n    /* \"@thirdweb-dev/contracts/extension/Royalty.sol\":3931:3967   */\n  dup1\n  sload\n  sub(shl(0xa0, 0x01), 0x01)\n  dup5\n  and\n  not(sub(shl(0xb0, 0x01), 0x01))\n    /* \"@thirdweb-dev/contracts/extension/Royalty.sol\":3977:4009   */\n  swap1\n  swap2\n  and\n  dup2\n  or\n  shl(0xa0, 0x01)\n  0xffff\n  dup6\n  and\n  mul\n  or\n  swap1\n  swap2\n  sstore\n    /* \"@thirdweb-dev/contracts/extension/Royalty.sol\":4025:4071   */\n  mload(0x40)\n    /* \"#utility.yul\":4921:4946   */\n  dup3\n  dup2\n  mstore\n    /* \"@thirdweb-dev/contracts/extension/Royalty.sol\":4025:4071   */\n  0x90d7ec04bcb8978719414f82e52e4cb651db41d0e6f8cea6118c2191e6183adb\n  swap1\n    /* \"#utility.yul\":4909:4911   */\n  0x20\n    /* \"#utility.yul\":4894:4912   */\n  add\n    /* \"@thirdweb-dev/contracts/extension/Royalty.sol\":4025:4071   */\n  mload(0x40)\n  dup1\n  swap2\n  sub\n  swap1\n  log2\n    /* \"@thirdweb-dev/contracts/extension/Royalty.sol\":3717:4078   */\n  pop\n  pop\n  jump\t// out\n    /* \"#utility.yul\":14:191   */\ntag_28:\n    /* \"#utility.yul\":93:106   */\n  dup1\n  mload\n  sub(shl(0xa0, 0x01), 0x01)\n    /* \"#utility.yul\":135:166   */\n  dup2\n  and\n    /* \"#utility.yul\":125:167   */\n  dup2\n  eq\n    /* \"#utility.yul\":115:185   */\n  tag_37\n  jumpi\n    /* \"#utility.yul\":181:182   */\n  0x00\n    /* \"#utility.yul\":178:179   */\n  dup1\n    /* \"#utility.yul\":171:183   */\n  revert\n    /* \"#utility.yul\":115:185   */\ntag_37:\n    /* \"#utility.yul\":14:191   */\n  swap2\n  swap1\n  pop\n  jump\t// out\n    /* \"#utility.yul\":196:323   */\ntag_29:\n    /* \"#utility.yul\":257:267   */\n  0x4e487b71\n    /* \"#utility.yul\":252:255   */\n  0xe0\n    /* \"#utility.yul\":248:268   */\n  shl\n    /* \"#utility.yul\":245:246   */\n  0x00\n    /* \"#utility.yul\":238:269   */\n  mstore\n    /* \"#utility.yul\":288:292   */\n  0x41\n    /* \"#utility.yul\":285:286   */\n  0x04\n    /* \"#utility.yul\":278:293   */\n  mstore\n    /* \"#utility.yul\":312:316   */\n  0x24\n    /* \"#utility.yul\":309:310   */\n  0x00\n    /* \"#utility.yul\":302:317   */\n  revert\n    /* \"#utility.yul\":328:1044   */\ntag_30:\n    /* \"#utility.yul\":382:387   */\n  0x00\n    /* \"#utility.yul\":435:438   */\n  dup3\n    /* \"#utility.yul\":428:432   */\n  0x1f\n    /* \"#utility.yul\":420:426   */\n  dup4\n    /* \"#utility.yul\":416:433   */\n  add\n    /* \"#utility.yul\":412:439   */\n  slt\n    /* \"#utility.yul\":402:457   */\n  tag_40\n  jumpi\n    /* \"#utility.yul\":453:454   */\n  0x00\n    /* \"#utility.yul\":450:451   */\n  dup1\n    /* \"#utility.yul\":443:455   */\n  revert\n    /* \"#utility.yul\":402:457   */\ntag_40:\n    /* \"#utility.yul\":476:489   */\n  dup2\n  mload\n  sub(shl(0x40, 0x01), 0x01)\n    /* \"#utility.yul\":538:548   */\n  dup1\n  dup3\n  gt\n    /* \"#utility.yul\":535:571   */\n  iszero\n  tag_42\n  jumpi\n    /* \"#utility.yul\":551:569   */\n  tag_42\n  tag_29\n  jump\t// in\ntag_42:\n    /* \"#utility.yul\":626:628   */\n  0x40\n    /* \"#utility.yul\":620:629   */\n  mload\n    /* \"#utility.yul\":594:596   */\n  0x1f\n    /* \"#utility.yul\":680:693   */\n  dup4\n  add\n  not(0x1f)\n    /* \"#utility.yul\":676:698   */\n  swap1\n  dup2\n  and\n    /* \"#utility.yul\":700:702   */\n  0x3f\n    /* \"#utility.yul\":672:703   */\n  add\n    /* \"#utility.yul\":668:708   */\n  and\n    /* \"#utility.yul\":656:709   */\n  dup2\n  add\n  swap1\n    /* \"#utility.yul\":724:742   */\n  dup3\n  dup3\n  gt\n    /* \"#utility.yul\":744:766   */\n  dup2\n  dup4\n  lt\n    /* \"#utility.yul\":721:767   */\n  or\n    /* \"#utility.yul\":718:790   */\n  iszero\n  tag_44\n  jumpi\n    /* \"#utility.yul\":770:788   */\n  tag_44\n  tag_29\n  jump\t// in\ntag_44:\n    /* \"#utility.yul\":810:820   */\n  dup2\n    /* \"#utility.yul\":806:808   */\n  0x40\n    /* \"#utility.yul\":799:821   */\n  mstore\n    /* \"#utility.yul\":845:847   */\n  dup4\n    /* \"#utility.yul\":837:843   */\n  dup2\n    /* \"#utility.yul\":830:848   */\n  mstore\n    /* \"#utility.yul\":891:894   */\n  dup7\n    /* \"#utility.yul\":884:888   */\n  0x20\n    /* \"#utility.yul\":879:881   */\n  dup6\n    /* \"#utility.yul\":871:877   */\n  dup9\n    /* \"#utility.yul\":867:882   */\n  add\n    /* \"#utility.yul\":863:889   */\n  add\n    /* \"#utility.yul\":860:895   */\n  gt\n    /* \"#utility.yul\":857:912   */\n  iszero\n  tag_45\n  jumpi\n    /* \"#utility.yul\":908:909   */\n  0x00\n    /* \"#utility.yul\":905:906   */\n  dup1\n    /* \"#utility.yul\":898:910   */\n  revert\n    /* \"#utility.yul\":857:912   */\ntag_45:\n    /* \"#utility.yul\":965:967   */\n  dup4\n    /* \"#utility.yul\":958:962   */\n  0x20\n    /* \"#utility.yul\":950:956   */\n  dup8\n    /* \"#utility.yul\":946:963   */\n  add\n    /* \"#utility.yul\":939:943   */\n  0x20\n    /* \"#utility.yul\":931:937   */\n  dup4\n    /* \"#utility.yul\":927:944   */\n  add\n    /* \"#utility.yul\":921:968   */\n  mcopy\n    /* \"#utility.yul\":1012:1013   */\n  0x00\n    /* \"#utility.yul\":1005:1009   */\n  0x20\n    /* \"#utility.yul\":1000:1002   */\n  dup6\n    /* \"#utility.yul\":992:998   */\n  dup4\n    /* \"#utility.yul\":988:1003   */\n  add\n    /* \"#utility.yul\":984:1010   */\n  add\n    /* \"#utility.yul\":977:1014   */\n  mstore\n    /* \"#utility.yul\":1032:1038   */\n  dup1\n    /* \"#utility.yul\":1023:1038   */\n  swap5\n  pop\n  pop\n  pop\n  pop\n  pop\n    /* \"#utility.yul\":328:1044   */\n  swap3\n  swap2\n  pop\n  pop\n  jump\t// out\n    /* \"#utility.yul\":1049:1950   */\ntag_3:\n    /* \"#utility.yul\":1175:1181   */\n  0x00\n    /* \"#utility.yul\":1183:1189   */\n  dup1\n    /* \"#utility.yul\":1191:1197   */\n  0x00\n    /* \"#utility.yul\":1199:1205   */\n  dup1\n    /* \"#utility.yul\":1207:1213   */\n  0x00\n    /* \"#utility.yul\":1260:1263   */\n  0xa0\n    /* \"#utility.yul\":1248:1257   */\n  dup7\n    /* \"#utility.yul\":1239:1246   */\n  dup9\n    /* \"#utility.yul\":1235:1258   */\n  sub\n    /* \"#utility.yul\":1231:1264   */\n  slt\n    /* \"#utility.yul\":1228:1281   */\n  iszero\n  tag_47\n  jumpi\n    /* \"#utility.yul\":1277:1278   */\n  0x00\n    /* \"#utility.yul\":1274:1275   */\n  dup1\n    /* \"#utility.yul\":1267:1279   */\n  revert\n    /* \"#utility.yul\":1228:1281   */\ntag_47:\n    /* \"#utility.yul\":1300:1340   */\n  tag_48\n    /* \"#utility.yul\":1330:1339   */\n  dup7\n    /* \"#utility.yul\":1300:1340   */\n  tag_28\n  jump\t// in\ntag_48:\n    /* \"#utility.yul\":1384:1386   */\n  0x20\n    /* \"#utility.yul\":1369:1387   */\n  dup8\n  add\n    /* \"#utility.yul\":1363:1388   */\n  mload\n    /* \"#utility.yul\":1290:1340   */\n  swap1\n  swap6\n  pop\n  sub(shl(0x40, 0x01), 0x01)\n    /* \"#utility.yul\":1437:1451   */\n  dup1\n  dup3\n  gt\n    /* \"#utility.yul\":1434:1468   */\n  iszero\n  tag_49\n  jumpi\n    /* \"#utility.yul\":1464:1465   */\n  0x00\n    /* \"#utility.yul\":1461:1462   */\n  dup1\n    /* \"#utility.yul\":1454:1466   */\n  revert\n    /* \"#utility.yul\":1434:1468   */\ntag_49:\n    /* \"#utility.yul\":1487:1548   */\n  tag_50\n    /* \"#utility.yul\":1540:1547   */\n  dup10\n    /* \"#utility.yul\":1531:1537   */\n  dup4\n    /* \"#utility.yul\":1520:1529   */\n  dup11\n    /* \"#utility.yul\":1516:1538   */\n  add\n    /* \"#utility.yul\":1487:1548   */\n  tag_30\n  jump\t// in\ntag_50:\n    /* \"#utility.yul\":1477:1548   */\n  swap6\n  pop\n    /* \"#utility.yul\":1594:1596   */\n  0x40\n    /* \"#utility.yul\":1583:1592   */\n  dup9\n    /* \"#utility.yul\":1579:1597   */\n  add\n    /* \"#utility.yul\":1573:1598   */\n  mload\n    /* \"#utility.yul\":1557:1598   */\n  swap2\n  pop\n    /* \"#utility.yul\":1623:1625   */\n  dup1\n    /* \"#utility.yul\":1613:1621   */\n  dup3\n    /* \"#utility.yul\":1610:1626   */\n  gt\n    /* \"#utility.yul\":1607:1643   */\n  iszero\n  tag_51\n  jumpi\n    /* \"#utility.yul\":1639:1640   */\n  0x00\n    /* \"#utility.yul\":1636:1637   */\n  dup1\n    /* \"#utility.yul\":1629:1641   */\n  revert\n    /* \"#utility.yul\":1607:1643   */\ntag_51:\n  pop\n    /* \"#utility.yul\":1662:1725   */\n  tag_52\n    /* \"#utility.yul\":1717:1724   */\n  dup9\n    /* \"#utility.yul\":1706:1714   */\n  dup3\n    /* \"#utility.yul\":1695:1704   */\n  dup10\n    /* \"#utility.yul\":1691:1715   */\n  add\n    /* \"#utility.yul\":1662:1725   */\n  tag_30\n  jump\t// in\ntag_52:\n    /* \"#utility.yul\":1652:1725   */\n  swap4\n  pop\n  pop\n    /* \"#utility.yul\":1744:1793   */\n  tag_53\n    /* \"#utility.yul\":1789:1791   */\n  0x60\n    /* \"#utility.yul\":1778:1787   */\n  dup8\n    /* \"#utility.yul\":1774:1792   */\n  add\n    /* \"#utility.yul\":1744:1793   */\n  tag_28\n  jump\t// in\ntag_53:\n    /* \"#utility.yul\":1836:1839   */\n  0x80\n    /* \"#utility.yul\":1821:1840   */\n  dup8\n  add\n    /* \"#utility.yul\":1815:1841   */\n  mload\n    /* \"#utility.yul\":1734:1793   */\n  swap1\n  swap3\n  pop\n  sub(shl(0x80, 0x01), 0x01)\n    /* \"#utility.yul\":1870:1901   */\n  dup2\n  and\n    /* \"#utility.yul\":1860:1902   */\n  dup2\n  eq\n    /* \"#utility.yul\":1850:1920   */\n  tag_54\n  jumpi\n    /* \"#utility.yul\":1916:1917   */\n  0x00\n    /* \"#utility.yul\":1913:1914   */\n  dup1\n    /* \"#utility.yul\":1906:1918   */\n  revert\n    /* \"#utility.yul\":1850:1920   */\ntag_54:\n    /* \"#utility.yul\":1939:1944   */\n  dup1\n    /* \"#utility.yul\":1929:1944   */\n  swap2\n  pop\n  pop\n    /* \"#utility.yul\":1049:1950   */\n  swap3\n  swap6\n  pop\n  swap3\n  swap6\n  swap1\n  swap4\n  pop\n  jump\t// out\n    /* \"#utility.yul\":1955:2335   */\ntag_31:\n    /* \"#utility.yul\":2034:2035   */\n  0x01\n    /* \"#utility.yul\":2030:2042   */\n  dup2\n  dup2\n  shr\n  swap1\n    /* \"#utility.yul\":2077:2089   */\n  dup3\n  and\n  dup1\n    /* \"#utility.yul\":2098:2159   */\n  tag_56\n  jumpi\n    /* \"#utility.yul\":2152:2156   */\n  0x7f\n    /* \"#utility.yul\":2144:2150   */\n  dup3\n    /* \"#utility.yul\":2140:2157   */\n  and\n    /* \"#utility.yul\":2130:2157   */\n  swap2\n  pop\n    /* \"#utility.yul\":2098:2159   */\ntag_56:\n    /* \"#utility.yul\":2205:2207   */\n  0x20\n    /* \"#utility.yul\":2197:2203   */\n  dup3\n    /* \"#utility.yul\":2194:2208   */\n  lt\n    /* \"#utility.yul\":2174:2192   */\n  dup2\n    /* \"#utility.yul\":2171:2209   */\n  sub\n    /* \"#utility.yul\":2168:2329   */\n  tag_57\n  jumpi\n    /* \"#utility.yul\":2251:2261   */\n  0x4e487b71\n    /* \"#utility.yul\":2246:2249   */\n  0xe0\n    /* \"#utility.yul\":2242:2262   */\n  shl\n    /* \"#utility.yul\":2239:2240   */\n  0x00\n    /* \"#utility.yul\":2232:2263   */\n  mstore\n    /* \"#utility.yul\":2286:2290   */\n  0x22\n    /* \"#utility.yul\":2283:2284   */\n  0x04\n    /* \"#utility.yul\":2276:2291   */\n  mstore\n    /* \"#utility.yul\":2314:2318   */\n  0x24\n    /* \"#utility.yul\":2311:2312   */\n  0x00\n    /* \"#utility.yul\":2304:2319   */\n  revert\n    /* \"#utility.yul\":2168:2329   */\ntag_57:\n  pop\n    /* \"#utility.yul\":1955:2335   */\n  swap2\n  swap1\n  pop\n  jump\t// out\n    /* \"#utility.yul\":2466:2984   */\ntag_33:\n    /* \"#utility.yul\":2568:2570   */\n  0x1f\n    /* \"#utility.yul\":2563:2566   */\n  dup3\n    /* \"#utility.yul\":2560:2571   */\n  gt\n    /* \"#utility.yul\":2557:2978   */\n  iszero\n  tag_60\n  jumpi\n    /* \"#utility.yul\":2604:2609   */\n  dup1\n    /* \"#utility.yul\":2601:2602   */\n  0x00\n    /* \"#utility.yul\":2594:2610   */\n  mstore\n    /* \"#utility.yul\":2648:2652   */\n  0x20\n    /* \"#utility.yul\":2645:2646   */\n  0x00\n    /* \"#utility.yul\":2635:2653   */\n  keccak256\n    /* \"#utility.yul\":2718:2720   */\n  0x1f\n    /* \"#utility.yul\":2706:2716   */\n  dup5\n    /* \"#utility.yul\":2702:2721   */\n  add\n    /* \"#utility.yul\":2699:2700   */\n  0x05\n    /* \"#utility.yul\":2695:2722   */\n  shr\n    /* \"#utility.yul\":2689:2693   */\n  dup2\n    /* \"#utility.yul\":2685:2723   */\n  add\n    /* \"#utility.yul\":2754:2758   */\n  0x20\n    /* \"#utility.yul\":2742:2752   */\n  dup6\n    /* \"#utility.yul\":2739:2759   */\n  lt\n    /* \"#utility.yul\":2736:2783   */\n  iszero\n  tag_61\n  jumpi\n  pop\n    /* \"#utility.yul\":2777:2781   */\n  dup1\n    /* \"#utility.yul\":2736:2783   */\ntag_61:\n    /* \"#utility.yul\":2832:2834   */\n  0x1f\n    /* \"#utility.yul\":2827:2830   */\n  dup5\n    /* \"#utility.yul\":2823:2835   */\n  add\n    /* \"#utility.yul\":2820:2821   */\n  0x05\n    /* \"#utility.yul\":2816:2836   */\n  shr\n    /* \"#utility.yul\":2810:2814   */\n  dup3\n    /* \"#utility.yul\":2806:2837   */\n  add\n    /* \"#utility.yul\":2796:2837   */\n  swap2\n  pop\n    /* \"#utility.yul\":2887:2968   */\ntag_62:\n    /* \"#utility.yul\":2905:2907   */\n  dup2\n    /* \"#utility.yul\":2898:2903   */\n  dup2\n    /* \"#utility.yul\":2895:2908   */\n  lt\n    /* \"#utility.yul\":2887:2968   */\n  iszero\n  tag_64\n  jumpi\n    /* \"#utility.yul\":2964:2965   */\n  0x00\n    /* \"#utility.yul\":2950:2966   */\n  dup2\n  sstore\n    /* \"#utility.yul\":2931:2932   */\n  0x01\n    /* \"#utility.yul\":2920:2933   */\n  add\n    /* \"#utility.yul\":2887:2968   */\n  jump(tag_62)\ntag_64:\n    /* \"#utility.yul\":2891:2894   */\n  pop\n  pop\n    /* \"#utility.yul\":2557:2978   */\ntag_60:\n    /* \"#utility.yul\":2466:2984   */\n  pop\n  pop\n  pop\n  jump\t// out\n    /* \"#utility.yul\":3160:4505   */\ntag_9:\n    /* \"#utility.yul\":3280:3290   */\n  dup2\n  mload\n  sub(shl(0x40, 0x01), 0x01)\n    /* \"#utility.yul\":3302:3332   */\n  dup2\n  gt\n    /* \"#utility.yul\":3299:3355   */\n  iszero\n  tag_68\n  jumpi\n    /* \"#utility.yul\":3335:3353   */\n  tag_68\n  tag_29\n  jump\t// in\ntag_68:\n    /* \"#utility.yul\":3364:3461   */\n  tag_69\n    /* \"#utility.yul\":3454:3460   */\n  dup2\n    /* \"#utility.yul\":3414:3452   */\n  tag_70\n    /* \"#utility.yul\":3446:3450   */\n  dup5\n    /* \"#utility.yul\":3440:3451   */\n  sload\n    /* \"#utility.yul\":3414:3452   */\n  tag_31\n  jump\t// in\ntag_70:\n    /* \"#utility.yul\":3408:3412   */\n  dup5\n    /* \"#utility.yul\":3364:3461   */\n  tag_33\n  jump\t// in\ntag_69:\n    /* \"#utility.yul\":3516:3520   */\n  0x20\n  dup1\n    /* \"#utility.yul\":3573:3575   */\n  0x1f\n    /* \"#utility.yul\":3562:3576   */\n  dup4\n  gt\n    /* \"#utility.yul\":3590:3591   */\n  0x01\n    /* \"#utility.yul\":3585:4248   */\n  dup2\n  eq\n  tag_72\n  jumpi\n    /* \"#utility.yul\":4292:4293   */\n  0x00\n    /* \"#utility.yul\":4309:4315   */\n  dup5\n    /* \"#utility.yul\":4306:4395   */\n  iszero\n  tag_73\n  jumpi\n  pop\n    /* \"#utility.yul\":4361:4380   */\n  dup6\n  dup4\n  add\n    /* \"#utility.yul\":4355:4381   */\n  mload\n    /* \"#utility.yul\":4306:4395   */\ntag_73:\n  not(0x00)\n    /* \"#utility.yul\":3117:3118   */\n  0x03\n    /* \"#utility.yul\":3113:3124   */\n  dup7\n  swap1\n  shl\n    /* \"#utility.yul\":3109:3133   */\n  shr\n    /* \"#utility.yul\":3105:3134   */\n  not\n    /* \"#utility.yul\":3095:3135   */\n  and\n    /* \"#utility.yul\":3141:3142   */\n  0x01\n    /* \"#utility.yul\":3137:3148   */\n  dup6\n  swap1\n  shl\n    /* \"#utility.yul\":3092:3149   */\n  or\n    /* \"#utility.yul\":4408:4489   */\n  dup6\n  sstore\n    /* \"#utility.yul\":3555:4499   */\n  jump(tag_71)\n    /* \"#utility.yul\":3585:4248   */\ntag_72:\n    /* \"#utility.yul\":2413:2414   */\n  0x00\n    /* \"#utility.yul\":2406:2420   */\n  dup6\n  dup2\n  mstore\n    /* \"#utility.yul\":2450:2454   */\n  0x20\n    /* \"#utility.yul\":2437:2455   */\n  dup2\n  keccak256\n  not(0x1f)\n    /* \"#utility.yul\":3621:3641   */\n  dup7\n  and\n  swap2\n    /* \"#utility.yul\":3739:3975   */\ntag_76:\n    /* \"#utility.yul\":3753:3760   */\n  dup3\n    /* \"#utility.yul\":3750:3751   */\n  dup2\n    /* \"#utility.yul\":3747:3761   */\n  lt\n    /* \"#utility.yul\":3739:3975   */\n  iszero\n  tag_78\n  jumpi\n    /* \"#utility.yul\":3842:3861   */\n  dup9\n  dup7\n  add\n    /* \"#utility.yul\":3836:3862   */\n  mload\n    /* \"#utility.yul\":3821:3863   */\n  dup3\n  sstore\n    /* \"#utility.yul\":3934:3961   */\n  swap5\n  dup5\n  add\n  swap5\n    /* \"#utility.yul\":3902:3903   */\n  0x01\n    /* \"#utility.yul\":3890:3904   */\n  swap1\n  swap2\n  add\n  swap1\n    /* \"#utility.yul\":3769:3788   */\n  dup5\n  add\n    /* \"#utility.yul\":3739:3975   */\n  jump(tag_76)\ntag_78:\n    /* \"#utility.yul\":3743:3746   */\n  pop\n    /* \"#utility.yul\":4003:4009   */\n  dup6\n    /* \"#utility.yul\":3994:4001   */\n  dup3\n    /* \"#utility.yul\":3991:4010   */\n  lt\n    /* \"#utility.yul\":3988:4189   */\n  iszero\n  tag_79\n  jumpi\n    /* \"#utility.yul\":4064:4083   */\n  dup8\n  dup6\n  add\n    /* \"#utility.yul\":4058:4084   */\n  mload\n  not(0x00)\n    /* \"#utility.yul\":4147:4148   */\n  0x03\n    /* \"#utility.yul\":4143:4157   */\n  dup9\n  swap1\n  shl\n    /* \"#utility.yul\":4159:4162   */\n  0xf8\n    /* \"#utility.yul\":4139:4163   */\n  and\n    /* \"#utility.yul\":4135:4172   */\n  shr\n    /* \"#utility.yul\":4131:4173   */\n  not\n    /* \"#utility.yul\":4116:4174   */\n  and\n    /* \"#utility.yul\":4101:4175   */\n  dup2\n  sstore\n    /* \"#utility.yul\":3988:4189   */\ntag_79:\n  pop\n  pop\n    /* \"#utility.yul\":4235:4236   */\n  0x01\n    /* \"#utility.yul\":4226:4232   */\n  dup5\n    /* \"#utility.yul\":4223:4224   */\n  0x01\n    /* \"#utility.yul\":4219:4233   */\n  shl\n    /* \"#utility.yul\":4215:4237   */\n  add\n    /* \"#utility.yul\":4209:4213   */\n  dup6\n    /* \"#utility.yul\":4202:4238   */\n  sstore\n    /* \"#utility.yul\":3555:4499   */\ntag_71:\n  pop\n  pop\n  pop\n  pop\n    /* \"#utility.yul\":3160:4505   */\n  pop\n  pop\n  jump\t// out\n    /* \"#utility.yul\":4775:4952   */\ntag_35:\n    /* \"DontKilltheJamNFTMojoClaimRedeax.sol\":112:2338  contract DKTJ is ERC721Base {... */\n  dataSize(sub_0)\n  dup1\n  dataOffset(sub_0)\n  0x00\n  codecopy\n  0x00\n  return\nstop\n\nsub_0: assembly {\n        /* \"DontKilltheJamNFTMojoClaimRedeax.sol\":112:2338  contract DKTJ is ERC721Base {... */\n      mstore(0x40, 0x80)\n      jumpi(tag_1, lt(calldatasize, 0x04))\n      shr(0xe0, calldataload(0x00))\n      dup1\n      0x6352211e\n      gt\n      tag_46\n      jumpi\n      dup1\n      0x9bcf7a15\n      gt\n      tag_47\n      jumpi\n      dup1\n      0xbb62a58d\n      gt\n      tag_48\n      jumpi\n      dup1\n      0xe8a3d485\n      gt\n      tag_49\n      jumpi\n      dup1\n      0xe8a3d485\n      eq\n      tag_43\n      jumpi\n      dup1\n      0xe985e9c5\n      eq\n      tag_44\n      jumpi\n      dup1\n      0xeddd0d9c\n      eq\n      tag_45\n      jumpi\n      0x00\n      dup1\n      revert\n    tag_49:\n      dup1\n      0xbb62a58d\n      eq\n      tag_40\n      jumpi\n      dup1\n      0xc23dc68f\n      eq\n      tag_41\n      jumpi\n      dup1\n      0xc87b56dd\n      eq\n      tag_42\n      jumpi\n      0x00\n      dup1\n      revert\n    tag_48:\n      dup1\n      0xac9650d8\n      gt\n      tag_50\n      jumpi\n      dup1\n      0xac9650d8\n      eq\n      tag_37\n      jumpi\n      dup1\n      0xb24f2d39\n      eq\n      tag_38\n      jumpi\n      dup1\n      0xb88d4fde\n      eq\n      tag_39\n      jumpi\n      0x00\n      dup1\n      revert\n    tag_50:\n      dup1\n      0x9bcf7a15\n      eq\n      tag_35\n      jumpi\n      dup1\n      0xa22cb465\n      eq\n      tag_36\n      jumpi\n      0x00\n      dup1\n      revert\n    tag_47:\n      dup1\n      0x8462151c\n      gt\n      tag_51\n      jumpi\n      dup1\n      0x938e3d7b\n      gt\n      tag_52\n      jumpi\n      dup1\n      0x938e3d7b\n      eq\n      tag_32\n      jumpi\n      dup1\n      0x95d89b41\n      eq\n      tag_33\n      jumpi\n      dup1\n      0x99a2557a\n      eq\n      tag_34\n      jumpi\n      0x00\n      dup1\n      revert\n    tag_52:\n      dup1\n      0x8462151c\n      eq\n      tag_29\n      jumpi\n      dup1\n      0x8da5cb5b\n      eq\n      tag_30\n      jumpi\n      dup1\n      0x90113fd0\n      eq\n      tag_31\n      jumpi\n      0x00\n      dup1\n      revert\n    tag_51:\n      dup1\n      0x70a08231\n      gt\n      tag_53\n      jumpi\n      dup1\n      0x70a08231\n      eq\n      tag_26\n      jumpi\n      dup1\n      0x754a81d9\n      eq\n      tag_27\n      jumpi\n      dup1\n      0x83040532\n      eq\n      tag_28\n      jumpi\n      0x00\n      dup1\n      revert\n    tag_53:\n      dup1\n      0x6352211e\n      eq\n      tag_24\n      jumpi\n      dup1\n      0x63b45e2d\n      eq\n      tag_25\n      jumpi\n      0x00\n      dup1\n      revert\n    tag_46:\n      dup1\n      0x2419f51b\n      gt\n      tag_54\n      jumpi\n      dup1\n      0x42842e0e\n      gt\n      tag_55\n      jumpi\n      dup1\n      0x4cc157df\n      gt\n      tag_56\n      jumpi\n      dup1\n      0x4cc157df\n      eq\n      tag_21\n      jumpi\n      dup1\n      0x5bbb2177\n      eq\n      tag_22\n      jumpi\n      dup1\n      0x600dd5ea\n      eq\n      tag_23\n      jumpi\n      0x00\n      dup1\n      revert\n    tag_56:\n      dup1\n      0x42842e0e\n      eq\n      tag_18\n      jumpi\n      dup1\n      0x42966c68\n      eq\n      tag_19\n      jumpi\n      dup1\n      0x430c2081\n      eq\n      tag_20\n      jumpi\n      0x00\n      dup1\n      revert\n    tag_55:\n      dup1\n      0x32cb6b0c\n      gt\n      tag_57\n      jumpi\n      dup1\n      0x32cb6b0c\n      eq\n      tag_15\n      jumpi\n      dup1\n      0x3b1475a7\n      eq\n      tag_16\n      jumpi\n      dup1\n      0x3ccfd60b\n      eq\n      tag_17\n      jumpi\n      0x00\n      dup1\n      revert\n    tag_57:\n      dup1\n      0x2419f51b\n      eq\n      tag_13\n      jumpi\n      dup1\n      0x2a55205a\n      eq\n      tag_14\n      jumpi\n      0x00\n      dup1\n      revert\n    tag_54:\n      dup1\n      0x095ea7b3\n      gt\n      tag_58\n      jumpi\n      dup1\n      0x16551300\n      gt\n      tag_59\n      jumpi\n      dup1\n      0x16551300\n      eq\n      tag_10\n      jumpi\n      dup1\n      0x18160ddd\n      eq\n      tag_11\n      jumpi\n      dup1\n      0x23b872dd\n      eq\n      tag_12\n      jumpi\n      0x00\n      dup1\n      revert\n    tag_59:\n      dup1\n      0x095ea7b3\n      eq\n      tag_7\n      jumpi\n      dup1\n      0x13966db5\n      eq\n      tag_8\n      jumpi\n      dup1\n      0x13af4035\n      eq\n      tag_9\n      jumpi\n      0x00\n      dup1\n      revert\n    tag_58:\n      dup1\n      0x01ffc9a7\n      gt\n      tag_60\n      jumpi\n      dup1\n      0x01ffc9a7\n      eq\n      tag_4\n      jumpi\n      dup1\n      0x06fdde03\n      eq\n      tag_5\n      jumpi\n      dup1\n      0x081812fc\n      eq\n      tag_6\n      jumpi\n      0x00\n      dup1\n      revert\n    tag_60:\n      dup1\n      0x75a317\n      eq\n      tag_2\n      jumpi\n      dup1\n      0x01b0a13e\n      eq\n      tag_3\n      jumpi\n    tag_1:\n      0x00\n      dup1\n      revert\n        /* \"@thirdweb-dev/contracts/base/ERC721Base.sol\":4454:4671   */\n    tag_2:\n      callvalue\n      dup1\n      iszero\n      tag_61\n      jumpi\n      0x00\n      dup1\n      revert\n    tag_61:\n      pop\n      tag_62\n      tag_63\n      calldatasize\n      0x04\n      tag_64\n      jump\t// in\n    tag_63:\n      tag_65\n      jump\t// in\n    tag_62:\n      stop\n        /* \"DontKilltheJamNFTMojoClaimRedeax.sol\":273:316  mapping(uint256 => string) public narrative */\n    tag_3:\n      callvalue\n      dup1\n      iszero\n      tag_66\n      jumpi\n      0x00\n      dup1\n      revert\n    tag_66:\n      pop\n      tag_67\n      tag_68\n      calldatasize\n      0x04\n      tag_69\n      jump\t// in\n    tag_68:\n      tag_70\n      jump\t// in\n    tag_67:\n      mload(0x40)\n      tag_71\n      swap2\n      swap1\n      tag_72\n      jump\t// in\n    tag_71:\n      mload(0x40)\n      dup1\n      swap2\n      sub\n      swap1\n      return\n        /* \"@thirdweb-dev/contracts/base/ERC721Base.sol\":2655:3099   */\n    tag_4:\n      callvalue\n      dup1\n      iszero\n      tag_73\n      jumpi\n      0x00\n      dup1\n      revert\n    tag_73:\n      pop\n      tag_74\n      tag_75\n      calldatasize\n      0x04\n      tag_76\n      jump\t// in\n    tag_75:\n      tag_77\n      jump\t// in\n    tag_74:\n      mload(0x40)\n        /* \"#utility.yul\":2841:2855   */\n      swap1\n      iszero\n        /* \"#utility.yul\":2834:2856   */\n      iszero\n        /* \"#utility.yul\":2816:2857   */\n      dup2\n      mstore\n        /* \"#utility.yul\":2804:2806   */\n      0x20\n        /* \"#utility.yul\":2789:2807   */\n      add\n        /* \"@thirdweb-dev/contracts/base/ERC721Base.sol\":2655:3099   */\n      tag_71\n        /* \"#utility.yul\":2676:2863   */\n      jump\n        /* \"@thirdweb-dev/contracts/eip/ERC721AVirtualApprove.sol\":6129:6227   */\n    tag_5:\n      callvalue\n      dup1\n      iszero\n      tag_80\n      jumpi\n      0x00\n      dup1\n      revert\n    tag_80:\n      pop\n      tag_67\n      tag_82\n      jump\t// in\n        /* \"@thirdweb-dev/contracts/eip/ERC721AVirtualApprove.sol\":7615:7815   */\n    tag_6:\n      callvalue\n      dup1\n      iszero\n      tag_84\n      jumpi\n      0x00\n      dup1\n      revert\n    tag_84:\n      pop\n      tag_85\n      tag_86\n      calldatasize\n      0x04\n      tag_69\n      jump\t// in\n    tag_86:\n      tag_87\n      jump\t// in\n    tag_85:\n      mload(0x40)\n      sub(shl(0xa0, 0x01), 0x01)\n        /* \"#utility.yul\":3032:3087   */\n      swap1\n      swap2\n      and\n        /* \"#utility.yul\":3014:3088   */\n      dup2\n      mstore\n        /* \"#utility.yul\":3002:3004   */\n      0x20\n        /* \"#utility.yul\":2987:3005   */\n      add\n        /* \"@thirdweb-dev/contracts/eip/ERC721AVirtualApprove.sol\":7615:7815   */\n      tag_71\n        /* \"#utility.yul\":2868:3094   */\n      jump\n        /* \"@thirdweb-dev/contracts/eip/ERC721AVirtualApprove.sol\":7162:7554   */\n    tag_7:\n      callvalue\n      dup1\n      iszero\n      tag_90\n      jumpi\n      0x00\n      dup1\n      revert\n    tag_90:\n      pop\n      tag_62\n      tag_92\n      calldatasize\n      0x04\n      tag_93\n      jump\t// in\n    tag_92:\n      tag_94\n      jump\t// in\n        /* \"DontKilltheJamNFTMojoClaimRedeax.sol\":194:216  uint256 public mintFee */\n    tag_8:\n      callvalue\n      dup1\n      iszero\n      tag_95\n      jumpi\n      0x00\n      dup1\n      revert\n    tag_95:\n      pop\n      tag_96\n      sload(0x10)\n      dup2\n      jump\n    tag_96:\n      mload(0x40)\n        /* \"#utility.yul\":3504:3529   */\n      swap1\n      dup2\n      mstore\n        /* \"#utility.yul\":3492:3494   */\n      0x20\n        /* \"#utility.yul\":3477:3495   */\n      add\n        /* \"DontKilltheJamNFTMojoClaimRedeax.sol\":194:216  uint256 public mintFee */\n      tag_71\n        /* \"#utility.yul\":3358:3535   */\n      jump\n        /* \"@thirdweb-dev/contracts/extension/Ownable.sol\":1235:1412   */\n    tag_9:\n      callvalue\n      dup1\n      iszero\n      tag_100\n      jumpi\n      0x00\n      dup1\n      revert\n    tag_100:\n      pop\n      tag_62\n      tag_102\n      calldatasize\n      0x04\n      tag_103\n      jump\t// in\n    tag_102:\n      tag_104\n      jump\t// in\n        /* \"DontKilltheJamNFTMojoClaimRedeax.sol\":223:267  mapping(uint256 => uint256) public mojoScore */\n    tag_10:\n      callvalue\n      dup1\n      iszero\n      tag_105\n      jumpi\n      0x00\n      dup1\n      revert\n    tag_105:\n      pop\n      tag_96\n      tag_107\n      calldatasize\n      0x04\n      tag_69\n      jump\t// in\n    tag_107:\n      mstore(0x20, 0x11)\n      0x00\n      swap1\n      dup2\n      mstore\n      0x40\n      swap1\n      keccak256\n      sload\n      dup2\n      jump\n        /* \"@thirdweb-dev/contracts/eip/ERC721AVirtualApprove.sol\":2282:2588   */\n    tag_11:\n      callvalue\n      dup1\n      iszero\n      tag_110\n      jumpi\n      0x00\n      dup1\n      revert\n    tag_110:\n      pop\n        /* \"@thirdweb-dev/contracts/eip/ERC721AVirtualApprove.sol\":2541:2553   */\n      sload(0x01)\n        /* \"@thirdweb-dev/contracts/eip/ERC721AVirtualApprove.sol\":2335:2342   */\n      0x00\n        /* \"@thirdweb-dev/contracts/eip/ERC721AVirtualApprove.sol\":2525:2538   */\n      sload\n        /* \"@thirdweb-dev/contracts/eip/ERC721AVirtualApprove.sol\":2525:2553   */\n      sub\n        /* \"@thirdweb-dev/contracts/eip/ERC721AVirtualApprove.sol\":2282:2588   */\n      jump(tag_96)\n        /* \"@thirdweb-dev/contracts/eip/ERC721AVirtualApprove.sol\":8454:8588   */\n    tag_12:\n      callvalue\n      dup1\n      iszero\n      tag_114\n      jumpi\n      0x00\n      dup1\n      revert\n    tag_114:\n      pop\n      tag_62\n      tag_116\n      calldatasize\n      0x04\n      tag_117\n      jump\t// in\n    tag_116:\n      tag_118\n      jump\t// in\n        /* \"@thirdweb-dev/contracts/extension/BatchMintMetadata.sol\":2279:2497   */\n    tag_13:\n      callvalue\n      dup1\n      iszero\n      tag_119\n      jumpi\n      0x00\n      dup1\n      revert\n    tag_119:\n      pop\n      tag_96\n      tag_121\n      calldatasize\n      0x04\n      tag_69\n      jump\t// in\n    tag_121:\n      tag_122\n      jump\t// in\n        /* \"@thirdweb-dev/contracts/extension/Royalty.sol\":1726:2051   */\n    tag_14:\n      callvalue\n      dup1\n      iszero\n      tag_124\n      jumpi\n      0x00\n      dup1\n      revert\n    tag_124:\n      pop\n      tag_125\n      tag_126\n      calldatasize\n      0x04\n      tag_127\n      jump\t// in\n    tag_126:\n      tag_128\n      jump\t// in\n    tag_125:\n      0x40\n      dup1\n      mload\n      sub(shl(0xa0, 0x01), 0x01)\n        /* \"#utility.yul\":4509:4564   */\n      swap1\n      swap4\n      and\n        /* \"#utility.yul\":4491:4565   */\n      dup4\n      mstore\n        /* \"#utility.yul\":4596:4598   */\n      0x20\n        /* \"#utility.yul\":4581:4599   */\n      dup4\n      add\n        /* \"#utility.yul\":4574:4608   */\n      swap2\n      swap1\n      swap2\n      mstore\n        /* \"#utility.yul\":4464:4482   */\n      add\n        /* \"@thirdweb-dev/contracts/extension/Royalty.sol\":1726:2051   */\n      tag_71\n        /* \"#utility.yul\":4317:4614   */\n      jump\n        /* \"DontKilltheJamNFTMojoClaimRedeax.sol\":146:188  uint256 public constant MAX_SUPPLY = 10000 */\n    tag_15:\n      callvalue\n      dup1\n      iszero\n      tag_131\n      jumpi\n      0x00\n      dup1\n      revert\n    tag_131:\n      pop\n      tag_96\n        /* \"DontKilltheJamNFTMojoClaimRedeax.sol\":183:188  10000 */\n      0x2710\n        /* \"DontKilltheJamNFTMojoClaimRedeax.sol\":146:188  uint256 public constant MAX_SUPPLY = 10000 */\n      dup2\n      jump\n        /* \"@thirdweb-dev/contracts/base/ERC721Base.sol\":6135:6239   */\n    tag_16:\n      callvalue\n      dup1\n      iszero\n      tag_135\n      jumpi\n      0x00\n      dup1\n      revert\n    tag_135:\n      pop\n        /* \"@thirdweb-dev/contracts/base/ERC721Base.sol\":6193:6200   */\n      0x00\n        /* \"@thirdweb-dev/contracts/base/ERC721Base.sol\":6219:6232   */\n      sload\n        /* \"@thirdweb-dev/contracts/base/ERC721Base.sol\":6135:6239   */\n      jump(tag_96)\n        /* \"DontKilltheJamNFTMojoClaimRedeax.sol\":2013:2206  function withdraw() external onlyOwner {... */\n    tag_17:\n      callvalue\n      dup1\n      iszero\n      tag_139\n      jumpi\n      0x00\n      dup1\n      revert\n    tag_139:\n      pop\n      tag_62\n      tag_141\n      jump\t// in\n        /* \"@thirdweb-dev/contracts/eip/ERC721AVirtualApprove.sol\":8654:8803   */\n    tag_18:\n      callvalue\n      dup1\n      iszero\n      tag_142\n      jumpi\n      0x00\n      dup1\n      revert\n    tag_142:\n      pop\n      tag_62\n      tag_144\n      calldatasize\n      0x04\n      tag_117\n      jump\t// in\n    tag_144:\n      tag_145\n      jump\t// in\n        /* \"@thirdweb-dev/contracts/base/ERC721Base.sol\":5793:5880   */\n    tag_19:\n      callvalue\n      dup1\n      iszero\n      tag_146\n      jumpi\n      0x00\n      dup1\n      revert\n    tag_146:\n      pop\n      tag_62\n      tag_148\n      calldatasize\n      0x04\n      tag_69\n      jump\t// in\n    tag_148:\n      tag_149\n      jump\t// in\n        /* \"@thirdweb-dev/contracts/base/ERC721Base.sol\":6571:6914   */\n    tag_20:\n      callvalue\n      dup1\n      iszero\n      tag_150\n      jumpi\n      0x00\n      dup1\n      revert\n    tag_150:\n      pop\n      tag_74\n      tag_152\n      calldatasize\n      0x04\n      tag_93\n      jump\t// in\n    tag_152:\n      tag_153\n      jump\t// in\n        /* \"@thirdweb-dev/contracts/extension/Royalty.sol\":2291:2672   */\n    tag_21:\n      callvalue\n      dup1\n      iszero\n      tag_155\n      jumpi\n      0x00\n      dup1\n      revert\n    tag_155:\n      pop\n      tag_156\n      tag_157\n      calldatasize\n      0x04\n      tag_69\n      jump\t// in\n    tag_157:\n      tag_158\n      jump\t// in\n    tag_156:\n      0x40\n      dup1\n      mload\n      sub(shl(0xa0, 0x01), 0x01)\n        /* \"#utility.yul\":4809:4864   */\n      swap1\n      swap4\n      and\n        /* \"#utility.yul\":4791:4865   */\n      dup4\n      mstore\n        /* \"#utility.yul\":4913:4919   */\n      0xffff\n        /* \"#utility.yul\":4901:4920   */\n      swap1\n      swap2\n      and\n        /* \"#utility.yul\":4896:4898   */\n      0x20\n        /* \"#utility.yul\":4881:4899   */\n      dup4\n      add\n        /* \"#utility.yul\":4874:4921   */\n      mstore\n        /* \"#utility.yul\":4764:4782   */\n      add\n        /* \"@thirdweb-dev/contracts/extension/Royalty.sol\":2291:2672   */\n      tag_71\n        /* \"#utility.yul\":4619:4927   */\n      jump\n        /* \"@thirdweb-dev/contracts/eip/queryable/ERC721AQueryable.sol\":1514:1973   */\n    tag_22:\n      callvalue\n      dup1\n      iszero\n      tag_161\n      jumpi\n      0x00\n      dup1\n      revert\n    tag_161:\n      pop\n      tag_162\n      tag_163\n      calldatasize\n      0x04\n      tag_164\n      jump\t// in\n    tag_163:\n      tag_165\n      jump\t// in\n    tag_162:\n      mload(0x40)\n      tag_71\n      swap2\n      swap1\n      tag_167\n      jump\t// in\n        /* \"@thirdweb-dev/contracts/extension/Royalty.sol\":3370:3630   */\n    tag_23:\n      callvalue\n      dup1\n      iszero\n      tag_168\n      jumpi\n      0x00\n      dup1\n      revert\n    tag_168:\n      pop\n      tag_62\n      tag_170\n      calldatasize\n      0x04\n      tag_93\n      jump\t// in\n    tag_170:\n      tag_171\n      jump\t// in\n        /* \"@thirdweb-dev/contracts/eip/ERC721AVirtualApprove.sol\":5944:6067   */\n    tag_24:\n      callvalue\n      dup1\n      iszero\n      tag_172\n      jumpi\n      0x00\n      dup1\n      revert\n    tag_172:\n      pop\n      tag_85\n      tag_174\n      calldatasize\n      0x04\n      tag_69\n      jump\t// in\n    tag_174:\n      tag_175\n      jump\t// in\n        /* \"@thirdweb-dev/contracts/extension/BatchMintMetadata.sol\":1961:2057   */\n    tag_25:\n      callvalue\n      dup1\n      iszero\n      tag_177\n      jumpi\n      0x00\n      dup1\n      revert\n    tag_177:\n      pop\n        /* \"@thirdweb-dev/contracts/extension/BatchMintMetadata.sol\":2035:2043   */\n      0x0c\n        /* \"@thirdweb-dev/contracts/extension/BatchMintMetadata.sol\":2035:2050   */\n      sload\n        /* \"@thirdweb-dev/contracts/extension/BatchMintMetadata.sol\":1961:2057   */\n      jump(tag_96)\n        /* \"@thirdweb-dev/contracts/eip/ERC721AVirtualApprove.sol\":3370:3573   */\n    tag_26:\n      callvalue\n      dup1\n      iszero\n      tag_181\n      jumpi\n      0x00\n      dup1\n      revert\n    tag_181:\n      pop\n      tag_96\n      tag_183\n      calldatasize\n      0x04\n      tag_103\n      jump\t// in\n    tag_183:\n      tag_184\n      jump\t// in\n        /* \"@thirdweb-dev/contracts/base/ERC721Base.sol\":5232:5519   */\n    tag_27:\n      callvalue\n      dup1\n      iszero\n      tag_186\n      jumpi\n      0x00\n      dup1\n      revert\n    tag_186:\n      pop\n      tag_62\n      tag_188\n      calldatasize\n      0x04\n      tag_189\n      jump\t// in\n    tag_188:\n      tag_190\n      jump\t// in\n        /* \"@thirdweb-dev/contracts/extension/BatchMintMetadata.sol\":1204:1247   */\n    tag_28:\n      callvalue\n      dup1\n      iszero\n      tag_191\n      jumpi\n      0x00\n      dup1\n      revert\n    tag_191:\n      pop\n      tag_74\n      tag_193\n      calldatasize\n      0x04\n      tag_69\n      jump\t// in\n    tag_193:\n      mstore(0x20, 0x0e)\n      0x00\n      swap1\n      dup2\n      mstore\n      0x40\n      swap1\n      keccak256\n      sload\n      0xff\n      and\n      dup2\n      jump\n        /* \"@thirdweb-dev/contracts/eip/queryable/ERC721AQueryable.sol\":5285:6155   */\n    tag_29:\n      callvalue\n      dup1\n      iszero\n      tag_196\n      jumpi\n      0x00\n      dup1\n      revert\n    tag_196:\n      pop\n      tag_197\n      tag_198\n      calldatasize\n      0x04\n      tag_103\n      jump\t// in\n    tag_198:\n      tag_199\n      jump\t// in\n    tag_197:\n      mload(0x40)\n      tag_71\n      swap2\n      swap1\n      tag_201\n      jump\t// in\n        /* \"@thirdweb-dev/contracts/extension/Ownable.sol\":973:1059   */\n    tag_30:\n      callvalue\n      dup1\n      iszero\n      tag_202\n      jumpi\n      0x00\n      dup1\n      revert\n    tag_202:\n      pop\n        /* \"@thirdweb-dev/contracts/extension/Ownable.sol\":1046:1052   */\n      and(sub(shl(0xa0, 0x01), 0x01), sload(0x09))\n        /* \"@thirdweb-dev/contracts/extension/Ownable.sol\":973:1059   */\n      jump(tag_85)\n        /* \"DontKilltheJamNFTMojoClaimRedeax.sol\":1097:2007  function batchMintTo(... */\n    tag_31:\n      tag_62\n      tag_207\n      calldatasize\n      0x04\n      tag_208\n      jump\t// in\n    tag_207:\n      tag_209\n      jump\t// in\n        /* \"@thirdweb-dev/contracts/extension/ContractMetadata.sol\":1110:1311   */\n    tag_32:\n      callvalue\n      dup1\n      iszero\n      tag_210\n      jumpi\n      0x00\n      dup1\n      revert\n    tag_210:\n      pop\n      tag_62\n      tag_212\n      calldatasize\n      0x04\n      tag_213\n      jump\t// in\n    tag_212:\n      tag_214\n      jump\t// in\n        /* \"@thirdweb-dev/contracts/eip/ERC721AVirtualApprove.sol\":6291:6393   */\n    tag_33:\n      callvalue\n      dup1\n      iszero\n      tag_215\n      jumpi\n      0x00\n      dup1\n      revert\n    tag_215:\n      pop\n      tag_67\n      tag_217\n      jump\t// in\n        /* \"@thirdweb-dev/contracts/eip/queryable/ERC721AQueryable.sol\":2374:4822   */\n    tag_34:\n      callvalue\n      dup1\n      iszero\n      tag_219\n      jumpi\n      0x00\n      dup1\n      revert\n    tag_219:\n      pop\n      tag_197\n      tag_221\n      calldatasize\n      0x04\n      tag_222\n      jump\t// in\n    tag_221:\n      tag_223\n      jump\t// in\n        /* \"@thirdweb-dev/contracts/extension/Royalty.sol\":4595:4857   */\n    tag_35:\n      callvalue\n      dup1\n      iszero\n      tag_225\n      jumpi\n      0x00\n      dup1\n      revert\n    tag_225:\n      pop\n      tag_62\n      tag_227\n      calldatasize\n      0x04\n      tag_228\n      jump\t// in\n    tag_227:\n      tag_229\n      jump\t// in\n        /* \"@thirdweb-dev/contracts/eip/ERC721AVirtualApprove.sol\":7882:8164   */\n    tag_36:\n      callvalue\n      dup1\n      iszero\n      tag_230\n      jumpi\n      0x00\n      dup1\n      revert\n    tag_230:\n      pop\n      tag_62\n      tag_232\n      calldatasize\n      0x04\n      tag_233\n      jump\t// in\n    tag_232:\n      tag_234\n      jump\t// in\n        /* \"@thirdweb-dev/contracts/extension/Multicall.sol\":696:1263   */\n    tag_37:\n      callvalue\n      dup1\n      iszero\n      tag_235\n      jumpi\n      0x00\n      dup1\n      revert\n    tag_235:\n      pop\n      tag_236\n      tag_237\n      calldatasize\n      0x04\n      tag_238\n      jump\t// in\n    tag_237:\n      tag_239\n      jump\t// in\n    tag_236:\n      mload(0x40)\n      tag_71\n      swap2\n      swap1\n      tag_241\n      jump\t// in\n        /* \"@thirdweb-dev/contracts/extension/Royalty.sol\":2782:2926   */\n    tag_38:\n      callvalue\n      dup1\n      iszero\n      tag_242\n      jumpi\n      0x00\n      dup1\n      revert\n    tag_242:\n      pop\n        /* \"@thirdweb-dev/contracts/extension/Royalty.sol\":2882:2898   */\n      sload(0x0a)\n      sub(shl(0xa0, 0x01), 0x01)\n      dup2\n      and\n      swap1\n      shl(0xa0, 0x01)\n        /* \"@thirdweb-dev/contracts/extension/Royalty.sol\":2907:2917   */\n      swap1\n      div\n      0xffff\n      and\n        /* \"@thirdweb-dev/contracts/extension/Royalty.sol\":2782:2926   */\n      jump(tag_156)\n        /* \"@thirdweb-dev/contracts/eip/ERC721AVirtualApprove.sol\":8869:9212   */\n    tag_39:\n      callvalue\n      dup1\n      iszero\n      tag_246\n      jumpi\n      0x00\n      dup1\n      revert\n    tag_246:\n      pop\n      tag_62\n      tag_248\n      calldatasize\n      0x04\n      tag_249\n      jump\t// in\n    tag_248:\n      tag_250\n      jump\t// in\n        /* \"DontKilltheJamNFTMojoClaimRedeax.sol\":578:1091  function mintTo(... */\n    tag_40:\n      tag_62\n      tag_252\n      calldatasize\n      0x04\n      tag_253\n      jump\t// in\n    tag_252:\n      tag_254\n      jump\t// in\n        /* \"@thirdweb-dev/contracts/eip/queryable/ERC721AQueryable.sol\":953:1361   */\n    tag_41:\n      callvalue\n      dup1\n      iszero\n      tag_255\n      jumpi\n      0x00\n      dup1\n      revert\n    tag_255:\n      pop\n      tag_256\n      tag_257\n      calldatasize\n      0x04\n      tag_69\n      jump\t// in\n    tag_257:\n      tag_258\n      jump\t// in\n    tag_256:\n      mload(0x40)\n      tag_71\n      swap2\n      swap1\n      tag_260\n      jump\t// in\n        /* \"@thirdweb-dev/contracts/base/ERC721Base.sol\":3513:3918   */\n    tag_42:\n      callvalue\n      dup1\n      iszero\n      tag_261\n      jumpi\n      0x00\n      dup1\n      revert\n    tag_261:\n      pop\n      tag_67\n      tag_263\n      calldatasize\n      0x04\n      tag_69\n      jump\t// in\n    tag_263:\n      tag_264\n      jump\t// in\n        /* \"@thirdweb-dev/contracts/extension/ContractMetadata.sol\":672:706   */\n    tag_43:\n      callvalue\n      dup1\n      iszero\n      tag_266\n      jumpi\n      0x00\n      dup1\n      revert\n    tag_266:\n      pop\n      tag_67\n      tag_268\n      jump\t// in\n        /* \"@thirdweb-dev/contracts/eip/ERC721AVirtualApprove.sol\":8230:8392   */\n    tag_44:\n      callvalue\n      dup1\n      iszero\n      tag_270\n      jumpi\n      0x00\n      dup1\n      revert\n    tag_270:\n      pop\n      tag_74\n      tag_272\n      calldatasize\n      0x04\n      tag_273\n      jump\t// in\n    tag_272:\n      sub(shl(0xa0, 0x01), 0x01)\n        /* \"@thirdweb-dev/contracts/eip/ERC721AVirtualApprove.sol\":8350:8375   */\n      swap2\n      dup3\n      and\n        /* \"@thirdweb-dev/contracts/eip/ERC721AVirtualApprove.sol\":8327:8331   */\n      0x00\n        /* \"@thirdweb-dev/contracts/eip/ERC721AVirtualApprove.sol\":8350:8375   */\n      swap1\n      dup2\n      mstore\n        /* \"@thirdweb-dev/contracts/eip/ERC721AVirtualApprove.sol\":8350:8368   */\n      0x07\n        /* \"@thirdweb-dev/contracts/eip/ERC721AVirtualApprove.sol\":8350:8375   */\n      0x20\n      swap1\n      dup2\n      mstore\n      0x40\n      dup1\n      dup4\n      keccak256\n        /* \"@thirdweb-dev/contracts/eip/ERC721AVirtualApprove.sol\":8350:8385   */\n      swap4\n      swap1\n      swap5\n      and\n      dup3\n      mstore\n      swap2\n      swap1\n      swap2\n      mstore\n      keccak256\n      sload\n      0xff\n      and\n      swap1\n        /* \"@thirdweb-dev/contracts/eip/ERC721AVirtualApprove.sol\":8230:8392   */\n      jump\n        /* \"DontKilltheJamNFTMojoClaimRedeax.sol\":2252:2336  function setMintFee(uint256 _fee) external onlyOwner {... */\n    tag_45:\n      callvalue\n      dup1\n      iszero\n      tag_276\n      jumpi\n      0x00\n      dup1\n      revert\n    tag_276:\n      pop\n      tag_62\n      tag_278\n      calldatasize\n      0x04\n      tag_69\n      jump\t// in\n    tag_278:\n      tag_279\n      jump\t// in\n        /* \"@thirdweb-dev/contracts/base/ERC721Base.sol\":4454:4671   */\n    tag_65:\n        /* \"@thirdweb-dev/contracts/base/ERC721Base.sol\":4541:4551   */\n      tag_281\n        /* \"@thirdweb-dev/contracts/base/ERC721Base.sol\":4541:4549   */\n      tag_282\n        /* \"@thirdweb-dev/contracts/base/ERC721Base.sol\":4541:4551   */\n      jump\t// in\n    tag_281:\n        /* \"@thirdweb-dev/contracts/base/ERC721Base.sol\":4533:4579   */\n      tag_283\n      jumpi\n      mload(0x40)\n      shl(0xe5, 0x461bcd)\n      dup2\n      mstore\n        /* \"#utility.yul\":15004:15006   */\n      0x20\n        /* \"@thirdweb-dev/contracts/base/ERC721Base.sol\":4533:4579   */\n      0x04\n      dup3\n      add\n        /* \"#utility.yul\":14986:15007   */\n      mstore\n        /* \"#utility.yul\":15043:15045   */\n      0x17\n        /* \"#utility.yul\":15023:15041   */\n      0x24\n      dup3\n      add\n        /* \"#utility.yul\":15016:15046   */\n      mstore\n        /* \"#utility.yul\":15082:15107   */\n      0x4e6f7420617574686f72697a656420746f206d696e742e000000000000000000\n        /* \"#utility.yul\":15062:15080   */\n      0x44\n      dup3\n      add\n        /* \"#utility.yul\":15055:15108   */\n      mstore\n        /* \"#utility.yul\":15125:15143   */\n      0x64\n      add\n        /* \"@thirdweb-dev/contracts/base/ERC721Base.sol\":4533:4579   */\n    tag_284:\n      mload(0x40)\n      dup1\n      swap2\n      sub\n      swap1\n      revert\n    tag_283:\n        /* \"@thirdweb-dev/contracts/base/ERC721Base.sol\":4589:4633   */\n      tag_286\n        /* \"@thirdweb-dev/contracts/base/ERC721Base.sol\":4602:4621   */\n      tag_287\n        /* \"@thirdweb-dev/contracts/base/ERC721Base.sol\":6193:6200   */\n      0x00\n        /* \"@thirdweb-dev/contracts/base/ERC721Base.sol\":6219:6232   */\n      sload\n      swap1\n        /* \"@thirdweb-dev/contracts/base/ERC721Base.sol\":6135:6239   */\n      jump\n        /* \"@thirdweb-dev/contracts/base/ERC721Base.sol\":4602:4621   */\n    tag_287:\n        /* \"@thirdweb-dev/contracts/base/ERC721Base.sol\":4623:4632   */\n      dup3\n        /* \"@thirdweb-dev/contracts/base/ERC721Base.sol\":4589:4601   */\n      tag_288\n        /* \"@thirdweb-dev/contracts/base/ERC721Base.sol\":4589:4633   */\n      jump\t// in\n    tag_286:\n        /* \"@thirdweb-dev/contracts/base/ERC721Base.sol\":4643:4664   */\n      tag_289\n        /* \"@thirdweb-dev/contracts/base/ERC721Base.sol\":4653:4656   */\n      dup3\n        /* \"@thirdweb-dev/contracts/base/ERC721Base.sol\":4658:4659   */\n      0x01\n        /* \"@thirdweb-dev/contracts/base/ERC721Base.sol\":4643:4664   */\n      mload(0x40)\n      dup1\n      0x20\n      add\n      0x40\n      mstore\n      dup1\n      0x00\n      dup2\n      mstore\n      pop\n        /* \"@thirdweb-dev/contracts/base/ERC721Base.sol\":4643:4652   */\n      tag_290\n        /* \"@thirdweb-dev/contracts/base/ERC721Base.sol\":4643:4664   */\n      jump\t// in\n    tag_289:\n        /* \"@thirdweb-dev/contracts/base/ERC721Base.sol\":4454:4671   */\n      pop\n      pop\n      jump\t// out\n        /* \"DontKilltheJamNFTMojoClaimRedeax.sol\":273:316  mapping(uint256 => string) public narrative */\n    tag_70:\n      mstore(0x20, 0x12)\n      0x00\n      swap1\n      dup2\n      mstore\n      0x40\n      swap1\n      keccak256\n      dup1\n      sload\n      tag_291\n      swap1\n      tag_292\n      jump\t// in\n    tag_291:\n      dup1\n      0x1f\n      add\n      0x20\n      dup1\n      swap2\n      div\n      mul\n      0x20\n      add\n      mload(0x40)\n      swap1\n      dup2\n      add\n      0x40\n      mstore\n      dup1\n      swap3\n      swap2\n      swap1\n      dup2\n      dup2\n      mstore\n      0x20\n      add\n      dup3\n      dup1\n      sload\n      tag_293\n      swap1\n      tag_292\n      jump\t// in\n    tag_293:\n      dup1\n      iszero\n      tag_294\n      jumpi\n      dup1\n      0x1f\n      lt\n      tag_295\n      jumpi\n      0x0100\n      dup1\n      dup4\n      sload\n      div\n      mul\n      dup4\n      mstore\n      swap2\n      0x20\n      add\n      swap2\n      jump(tag_294)\n    tag_295:\n      dup3\n      add\n      swap2\n      swap1\n      0x00\n      mstore\n      keccak256(0x00, 0x20)\n      swap1\n    tag_296:\n      dup2\n      sload\n      dup2\n      mstore\n      swap1\n      0x01\n      add\n      swap1\n      0x20\n      add\n      dup1\n      dup4\n      gt\n      tag_296\n      jumpi\n      dup3\n      swap1\n      sub\n      0x1f\n      and\n      dup3\n      add\n      swap2\n    tag_294:\n      pop\n      pop\n      pop\n      pop\n      pop\n      dup2\n      jump\t// out\n        /* \"@thirdweb-dev/contracts/base/ERC721Base.sol\":2655:3099   */\n    tag_77:\n        /* \"@thirdweb-dev/contracts/base/ERC721Base.sol\":2758:2762   */\n      0x00\n      shl(0xe0, 0x01ffc9a7)\n      not(sub(shl(0xe0, 0x01), 0x01))\n        /* \"@thirdweb-dev/contracts/base/ERC721Base.sol\":2793:2818   */\n      dup4\n      and\n      eq\n      dup1\n        /* \"@thirdweb-dev/contracts/base/ERC721Base.sol\":2793:2893   */\n      tag_298\n      jumpi\n      pop\n      shl(0xe0, 0x80ac58cd)\n      not(sub(shl(0xe0, 0x01), 0x01))\n        /* \"@thirdweb-dev/contracts/base/ERC721Base.sol\":2868:2893   */\n      dup4\n      and\n      eq\n        /* \"@thirdweb-dev/contracts/base/ERC721Base.sol\":2793:2893   */\n    tag_298:\n        /* \"@thirdweb-dev/contracts/base/ERC721Base.sol\":2793:2968   */\n      dup1\n      tag_299\n      jumpi\n      pop\n      shl(0xe0, 0x5b5e139f)\n      not(sub(shl(0xe0, 0x01), 0x01))\n        /* \"@thirdweb-dev/contracts/base/ERC721Base.sol\":2943:2968   */\n      dup4\n      and\n      eq\n        /* \"@thirdweb-dev/contracts/base/ERC721Base.sol\":2793:2968   */\n    tag_299:\n        /* \"@thirdweb-dev/contracts/base/ERC721Base.sol\":2793:3067   */\n      dup1\n      tag_300\n      jumpi\n      pop\n      not(sub(shl(0xe0, 0x01), 0x01))\n        /* \"@thirdweb-dev/contracts/base/ERC721Base.sol\":3026:3067   */\n      dup3\n      and\n      shl(0xe1, 0x152a902d)\n      eq\n        /* \"@thirdweb-dev/contracts/base/ERC721Base.sol\":2793:3067   */\n    tag_300:\n        /* \"@thirdweb-dev/contracts/base/ERC721Base.sol\":2774:3067   */\n      swap3\n        /* \"@thirdweb-dev/contracts/base/ERC721Base.sol\":2655:3099   */\n      swap2\n      pop\n      pop\n      jump\t// out\n        /* \"@thirdweb-dev/contracts/eip/ERC721AVirtualApprove.sol\":6129:6227   */\n    tag_82:\n        /* \"@thirdweb-dev/contracts/eip/ERC721AVirtualApprove.sol\":6183:6196   */\n      0x60\n        /* \"@thirdweb-dev/contracts/eip/ERC721AVirtualApprove.sol\":6215:6220   */\n      0x02\n        /* \"@thirdweb-dev/contracts/eip/ERC721AVirtualApprove.sol\":6208:6220   */\n      dup1\n      sload\n      tag_302\n      swap1\n      tag_292\n      jump\t// in\n    tag_302:\n      dup1\n      0x1f\n      add\n      0x20\n      dup1\n      swap2\n      div\n      mul\n      0x20\n      add\n      mload(0x40)\n      swap1\n      dup2\n      add\n      0x40\n      mstore\n      dup1\n      swap3\n      swap2\n      swap1\n      dup2\n      dup2\n      mstore\n      0x20\n      add\n      dup3\n      dup1\n      sload\n      tag_303\n      swap1\n      tag_292\n      jump\t// in\n    tag_303:\n      dup1\n      iszero\n      tag_304\n      jumpi\n      dup1\n      0x1f\n      lt\n      tag_305\n      jumpi\n      0x0100\n      dup1\n      dup4\n      sload\n      div\n      mul\n      dup4\n      mstore\n      swap2\n      0x20\n      add\n      swap2\n      jump(tag_304)\n    tag_305:\n      dup3\n      add\n      swap2\n      swap1\n      0x00\n      mstore\n      keccak256(0x00, 0x20)\n      swap1\n    tag_306:\n      dup2\n      sload\n      dup2\n      mstore\n      swap1\n      0x01\n      add\n      swap1\n      0x20\n      add\n      dup1\n      dup4\n      gt\n      tag_306\n      jumpi\n      dup3\n      swap1\n      sub\n      0x1f\n      and\n      dup3\n      add\n      swap2\n    tag_304:\n      pop\n      pop\n      pop\n      pop\n      pop\n      swap1\n      pop\n        /* \"@thirdweb-dev/contracts/eip/ERC721AVirtualApprove.sol\":6129:6227   */\n      swap1\n      jump\t// out\n        /* \"@thirdweb-dev/contracts/eip/ERC721AVirtualApprove.sol\":7615:7815   */\n    tag_87:\n        /* \"@thirdweb-dev/contracts/eip/ERC721AVirtualApprove.sol\":7683:7690   */\n      0x00\n        /* \"@thirdweb-dev/contracts/eip/ERC721AVirtualApprove.sol\":7707:7723   */\n      tag_308\n        /* \"@thirdweb-dev/contracts/eip/ERC721AVirtualApprove.sol\":7715:7722   */\n      dup3\n        /* \"@thirdweb-dev/contracts/eip/ERC721AVirtualApprove.sol\":7707:7714   */\n      tag_309\n        /* \"@thirdweb-dev/contracts/eip/ERC721AVirtualApprove.sol\":7707:7723   */\n      jump\t// in\n    tag_308:\n        /* \"@thirdweb-dev/contracts/eip/ERC721AVirtualApprove.sol\":7702:7766   */\n      tag_310\n      jumpi\n        /* \"@thirdweb-dev/contracts/eip/ERC721AVirtualApprove.sol\":7732:7766   */\n      mload(0x40)\n      shl(0xe2, 0x33d1c039)\n      dup2\n      mstore\n      0x04\n      add\n      mload(0x40)\n      dup1\n      swap2\n      sub\n      swap1\n      revert\n        /* \"@thirdweb-dev/contracts/eip/ERC721AVirtualApprove.sol\":7702:7766   */\n    tag_310:\n      pop\n        /* \"@thirdweb-dev/contracts/eip/ERC721AVirtualApprove.sol\":7784:7808   */\n      0x00\n      swap1\n      dup2\n      mstore\n        /* \"@thirdweb-dev/contracts/eip/ERC721AVirtualApprove.sol\":7784:7799   */\n      0x06\n        /* \"@thirdweb-dev/contracts/eip/ERC721AVirtualApprove.sol\":7784:7808   */\n      0x20\n      mstore\n      0x40\n      swap1\n      keccak256\n      sload\n      sub(shl(0xa0, 0x01), 0x01)\n      and\n      swap1\n        /* \"@thirdweb-dev/contracts/eip/ERC721AVirtualApprove.sol\":7615:7815   */\n      jump\t// out\n        /* \"@thirdweb-dev/contracts/eip/ERC721AVirtualApprove.sol\":7162:7554   */\n    tag_94:\n        /* \"@thirdweb-dev/contracts/eip/ERC721AVirtualApprove.sol\":7242:7255   */\n      0x00\n        /* \"@thirdweb-dev/contracts/eip/ERC721AVirtualApprove.sol\":7258:7282   */\n      tag_312\n        /* \"@thirdweb-dev/contracts/eip/ERC721AVirtualApprove.sol\":7274:7281   */\n      dup3\n        /* \"@thirdweb-dev/contracts/eip/ERC721AVirtualApprove.sol\":7258:7273   */\n      tag_175\n        /* \"@thirdweb-dev/contracts/eip/ERC721AVirtualApprove.sol\":7258:7282   */\n      jump\t// in\n    tag_312:\n        /* \"@thirdweb-dev/contracts/eip/ERC721AVirtualApprove.sol\":7242:7282   */\n      swap1\n      pop\n        /* \"@thirdweb-dev/contracts/eip/ERC721AVirtualApprove.sol\":7302:7307   */\n      dup1\n      sub(shl(0xa0, 0x01), 0x01)\n        /* \"@thirdweb-dev/contracts/eip/ERC721AVirtualApprove.sol\":7296:7307   */\n      and\n        /* \"@thirdweb-dev/contracts/eip/ERC721AVirtualApprove.sol\":7296:7298   */\n      dup4\n      sub(shl(0xa0, 0x01), 0x01)\n        /* \"@thirdweb-dev/contracts/eip/ERC721AVirtualApprove.sol\":7296:7307   */\n      and\n      sub\n        /* \"@thirdweb-dev/contracts/eip/ERC721AVirtualApprove.sol\":7292:7340   */\n      tag_313\n      jumpi\n        /* \"@thirdweb-dev/contracts/eip/ERC721AVirtualApprove.sol\":7316:7340   */\n      mload(0x40)\n      shl(0xe2, 0x250fdee3)\n      dup2\n      mstore\n      0x04\n      add\n      mload(0x40)\n      dup1\n      swap2\n      sub\n      swap1\n      revert\n        /* \"@thirdweb-dev/contracts/eip/ERC721AVirtualApprove.sol\":7292:7340   */\n    tag_313:\n        /* \"@thirdweb-dev/contracts/base/ERC721Base.sol\":8521:8531   */\n      caller\n      sub(shl(0xa0, 0x01), 0x01)\n        /* \"@thirdweb-dev/contracts/eip/ERC721AVirtualApprove.sol\":7355:7376   */\n      dup3\n      and\n      eq\n        /* \"@thirdweb-dev/contracts/eip/ERC721AVirtualApprove.sol\":7351:7509   */\n      tag_319\n      jumpi\n        /* \"@thirdweb-dev/contracts/eip/ERC721AVirtualApprove.sol\":7395:7432   */\n      tag_317\n        /* \"@thirdweb-dev/contracts/eip/ERC721AVirtualApprove.sol\":7412:7417   */\n      dup2\n        /* \"@thirdweb-dev/contracts/base/ERC721Base.sol\":8521:8531   */\n      caller\n        /* \"@thirdweb-dev/contracts/eip/ERC721AVirtualApprove.sol\":8230:8392   */\n      tag_272\n      jump\t// in\n        /* \"@thirdweb-dev/contracts/eip/ERC721AVirtualApprove.sol\":7395:7432   */\n    tag_317:\n        /* \"@thirdweb-dev/contracts/eip/ERC721AVirtualApprove.sol\":7390:7509   */\n      tag_319\n      jumpi\n        /* \"@thirdweb-dev/contracts/eip/ERC721AVirtualApprove.sol\":7459:7494   */\n      mload(0x40)\n      shl(0xe1, 0x67d9dca1)\n      dup2\n      mstore\n      0x04\n      add\n      mload(0x40)\n      dup1\n      swap2\n      sub\n      swap1\n      revert\n        /* \"@thirdweb-dev/contracts/eip/ERC721AVirtualApprove.sol\":7390:7509   */\n    tag_319:\n        /* \"@thirdweb-dev/contracts/eip/ERC721AVirtualApprove.sol\":7519:7547   */\n      tag_320\n        /* \"@thirdweb-dev/contracts/eip/ERC721AVirtualApprove.sol\":7528:7530   */\n      dup4\n        /* \"@thirdweb-dev/contracts/eip/ERC721AVirtualApprove.sol\":7532:7539   */\n      dup4\n        /* \"@thirdweb-dev/contracts/eip/ERC721AVirtualApprove.sol\":7541:7546   */\n      dup4\n        /* \"@thirdweb-dev/contracts/eip/ERC721AVirtualApprove.sol\":7519:7527   */\n      tag_321\n        /* \"@thirdweb-dev/contracts/eip/ERC721AVirtualApprove.sol\":7519:7547   */\n      jump\t// in\n    tag_320:\n        /* \"@thirdweb-dev/contracts/eip/ERC721AVirtualApprove.sol\":7232:7554   */\n      pop\n        /* \"@thirdweb-dev/contracts/eip/ERC721AVirtualApprove.sol\":7162:7554   */\n      pop\n      pop\n      jump\t// out\n        /* \"@thirdweb-dev/contracts/extension/Ownable.sol\":1235:1412   */\n    tag_104:\n        /* \"@thirdweb-dev/contracts/extension/Ownable.sol\":1305:1319   */\n      tag_323\n        /* \"@thirdweb-dev/contracts/extension/Ownable.sol\":1305:1317   */\n      tag_282\n        /* \"@thirdweb-dev/contracts/extension/Ownable.sol\":1305:1319   */\n      jump\t// in\n    tag_323:\n        /* \"@thirdweb-dev/contracts/extension/Ownable.sol\":1300:1374   */\n      tag_325\n      jumpi\n        /* \"@thirdweb-dev/contracts/extension/Ownable.sol\":1342:1363   */\n      mload(0x40)\n      shl(0xe1, 0x16ccb9cb)\n      dup2\n      mstore\n      0x04\n      add\n      mload(0x40)\n      dup1\n      swap2\n      sub\n      swap1\n      revert\n        /* \"@thirdweb-dev/contracts/extension/Ownable.sol\":1300:1374   */\n    tag_325:\n        /* \"@thirdweb-dev/contracts/extension/Ownable.sol\":1383:1405   */\n      tag_326\n        /* \"@thirdweb-dev/contracts/extension/Ownable.sol\":1395:1404   */\n      dup2\n        /* \"@thirdweb-dev/contracts/extension/Ownable.sol\":1383:1394   */\n      tag_327\n        /* \"@thirdweb-dev/contracts/extension/Ownable.sol\":1383:1405   */\n      jump\t// in\n    tag_326:\n        /* \"@thirdweb-dev/contracts/extension/Ownable.sol\":1235:1412   */\n      pop\n      jump\t// out\n        /* \"@thirdweb-dev/contracts/eip/ERC721AVirtualApprove.sol\":8454:8588   */\n    tag_118:\n        /* \"@thirdweb-dev/contracts/eip/ERC721AVirtualApprove.sol\":8553:8581   */\n      tag_320\n        /* \"@thirdweb-dev/contracts/eip/ERC721AVirtualApprove.sol\":8563:8567   */\n      dup4\n        /* \"@thirdweb-dev/contracts/eip/ERC721AVirtualApprove.sol\":8569:8571   */\n      dup4\n        /* \"@thirdweb-dev/contracts/eip/ERC721AVirtualApprove.sol\":8573:8580   */\n      dup4\n        /* \"@thirdweb-dev/contracts/eip/ERC721AVirtualApprove.sol\":8553:8562   */\n      tag_333\n        /* \"@thirdweb-dev/contracts/eip/ERC721AVirtualApprove.sol\":8553:8581   */\n      jump\t// in\n        /* \"@thirdweb-dev/contracts/extension/BatchMintMetadata.sol\":2279:2497   */\n    tag_122:\n        /* \"@thirdweb-dev/contracts/extension/BatchMintMetadata.sol\":2343:2350   */\n      0x00\n        /* \"@thirdweb-dev/contracts/extension/BatchMintMetadata.sol\":2376:2393   */\n      tag_335\n        /* \"@thirdweb-dev/contracts/extension/BatchMintMetadata.sol\":2035:2043   */\n      0x0c\n        /* \"@thirdweb-dev/contracts/extension/BatchMintMetadata.sol\":2035:2050   */\n      sload\n      swap1\n        /* \"@thirdweb-dev/contracts/extension/BatchMintMetadata.sol\":1961:2057   */\n      jump\n        /* \"@thirdweb-dev/contracts/extension/BatchMintMetadata.sol\":2376:2393   */\n    tag_335:\n        /* \"@thirdweb-dev/contracts/extension/BatchMintMetadata.sol\":2366:2372   */\n      dup3\n        /* \"@thirdweb-dev/contracts/extension/BatchMintMetadata.sol\":2366:2393   */\n      lt\n        /* \"@thirdweb-dev/contracts/extension/BatchMintMetadata.sol\":2362:2458   */\n      tag_336\n      jumpi\n        /* \"@thirdweb-dev/contracts/extension/BatchMintMetadata.sol\":2416:2447   */\n      mload(0x40)\n      shl(0xe1, 0x07931277)\n      dup2\n      mstore\n      0x04\n      dup2\n      add\n        /* \"#utility.yul\":3504:3529   */\n      dup4\n      swap1\n      mstore\n        /* \"#utility.yul\":3477:3495   */\n      0x24\n      add\n        /* \"@thirdweb-dev/contracts/extension/BatchMintMetadata.sol\":2416:2447   */\n      tag_284\n        /* \"#utility.yul\":3358:3535   */\n      jump\n        /* \"@thirdweb-dev/contracts/extension/BatchMintMetadata.sol\":2362:2458   */\n    tag_336:\n        /* \"@thirdweb-dev/contracts/extension/BatchMintMetadata.sol\":2474:2482   */\n      0x0c\n        /* \"@thirdweb-dev/contracts/extension/BatchMintMetadata.sol\":2483:2489   */\n      dup3\n        /* \"@thirdweb-dev/contracts/extension/BatchMintMetadata.sol\":2474:2490   */\n      dup2\n      sload\n      dup2\n      lt\n      tag_339\n      jumpi\n      tag_339\n      tag_340\n      jump\t// in\n    tag_339:\n      swap1\n      0x00\n      mstore\n      keccak256(0x00, 0x20)\n      add\n      sload\n        /* \"@thirdweb-dev/contracts/extension/BatchMintMetadata.sol\":2467:2490   */\n      swap1\n      pop\n        /* \"@thirdweb-dev/contracts/extension/BatchMintMetadata.sol\":2279:2497   */\n      swap2\n      swap1\n      pop\n      jump\t// out\n        /* \"@thirdweb-dev/contracts/extension/Royalty.sol\":1726:2051   */\n    tag_128:\n        /* \"@thirdweb-dev/contracts/extension/Royalty.sol\":1845:1861   */\n      0x00\n        /* \"@thirdweb-dev/contracts/extension/Royalty.sol\":1863:1884   */\n      dup1\n        /* \"@thirdweb-dev/contracts/extension/Royalty.sol\":1897:1914   */\n      0x00\n        /* \"@thirdweb-dev/contracts/extension/Royalty.sol\":1916:1927   */\n      dup1\n        /* \"@thirdweb-dev/contracts/extension/Royalty.sol\":1931:1962   */\n      tag_343\n        /* \"@thirdweb-dev/contracts/extension/Royalty.sol\":1954:1961   */\n      dup7\n        /* \"@thirdweb-dev/contracts/extension/Royalty.sol\":1931:1953   */\n      tag_158\n        /* \"@thirdweb-dev/contracts/extension/Royalty.sol\":1931:1962   */\n      jump\t// in\n    tag_343:\n        /* \"@thirdweb-dev/contracts/extension/Royalty.sol\":1896:1962   */\n      swap1\n      swap5\n      pop\n      dup5\n      swap3\n      pop\n      0xffff\n      and\n      swap1\n      pop\n        /* \"@thirdweb-dev/contracts/extension/Royalty.sol\":2038:2044   */\n      0x2710\n        /* \"@thirdweb-dev/contracts/extension/Royalty.sol\":2019:2034   */\n      tag_344\n        /* \"@thirdweb-dev/contracts/extension/Royalty.sol\":1896:1962   */\n      dup3\n        /* \"@thirdweb-dev/contracts/extension/Royalty.sol\":2019:2028   */\n      dup8\n        /* \"@thirdweb-dev/contracts/extension/Royalty.sol\":2019:2034   */\n      tag_345\n      jump\t// in\n    tag_344:\n        /* \"@thirdweb-dev/contracts/extension/Royalty.sol\":2018:2044   */\n      tag_346\n      swap2\n      swap1\n      tag_347\n      jump\t// in\n    tag_346:\n        /* \"@thirdweb-dev/contracts/extension/Royalty.sol\":2002:2044   */\n      swap3\n      pop\n        /* \"@thirdweb-dev/contracts/extension/Royalty.sol\":1886:2051   */\n      pop\n      pop\n        /* \"@thirdweb-dev/contracts/extension/Royalty.sol\":1726:2051   */\n      swap3\n      pop\n      swap3\n      swap1\n      pop\n      jump\t// out\n        /* \"DontKilltheJamNFTMojoClaimRedeax.sol\":2013:2206  function withdraw() external onlyOwner {... */\n    tag_141:\n        /* \"@thirdweb-dev/contracts/extension/Ownable.sol\":822:828   */\n      and(sub(shl(0xa0, 0x01), 0x01), sload(0x09))\n        /* \"@thirdweb-dev/contracts/extension/Ownable.sol\":808:818   */\n      caller\n        /* \"@thirdweb-dev/contracts/extension/Ownable.sol\":808:828   */\n      eq\n        /* \"@thirdweb-dev/contracts/extension/Ownable.sol\":804:883   */\n      tag_350\n      jumpi\n        /* \"@thirdweb-dev/contracts/extension/Ownable.sol\":851:872   */\n      mload(0x40)\n      shl(0xe1, 0x16ccb9cb)\n      dup2\n      mstore\n      0x04\n      add\n      mload(0x40)\n      dup1\n      swap2\n      sub\n      swap1\n      revert\n        /* \"@thirdweb-dev/contracts/extension/Ownable.sol\":804:883   */\n    tag_350:\n        /* \"DontKilltheJamNFTMojoClaimRedeax.sol\":2080:2101  address(this).balance */\n      selfbalance\n        /* \"DontKilltheJamNFTMojoClaimRedeax.sol\":2119:2130  balance > 0 */\n      dup1\n        /* \"DontKilltheJamNFTMojoClaimRedeax.sol\":2111:2155  require(balance > 0, \"No funds to withdraw\") */\n      tag_352\n      jumpi\n      mload(0x40)\n      shl(0xe5, 0x461bcd)\n      dup2\n      mstore\n        /* \"#utility.yul\":16435:16437   */\n      0x20\n        /* \"DontKilltheJamNFTMojoClaimRedeax.sol\":2111:2155  require(balance > 0, \"No funds to withdraw\") */\n      0x04\n      dup3\n      add\n        /* \"#utility.yul\":16417:16438   */\n      mstore\n        /* \"#utility.yul\":16474:16476   */\n      0x14\n        /* \"#utility.yul\":16454:16472   */\n      0x24\n      dup3\n      add\n        /* \"#utility.yul\":16447:16477   */\n      mstore\n        /* \"#utility.yul\":16513:16535   */\n      0x4e6f2066756e647320746f207769746864726177000000000000000000000000\n        /* \"#utility.yul\":16493:16511   */\n      0x44\n      dup3\n      add\n        /* \"#utility.yul\":16486:16536   */\n      mstore\n        /* \"#utility.yul\":16553:16571   */\n      0x64\n      add\n        /* \"DontKilltheJamNFTMojoClaimRedeax.sol\":2111:2155  require(balance > 0, \"No funds to withdraw\") */\n      tag_284\n        /* \"#utility.yul\":16233:16577   */\n      jump\n        /* \"DontKilltheJamNFTMojoClaimRedeax.sol\":2111:2155  require(balance > 0, \"No funds to withdraw\") */\n    tag_352:\n        /* \"@thirdweb-dev/contracts/extension/Ownable.sol\":1046:1052   */\n      sload(0x09)\n        /* \"DontKilltheJamNFTMojoClaimRedeax.sol\":2165:2199  payable(owner()).transfer(balance) */\n      mload(0x40)\n      sub(shl(0xa0, 0x01), 0x01)\n        /* \"@thirdweb-dev/contracts/extension/Ownable.sol\":1046:1052   */\n      swap1\n      swap2\n      and\n      swap1\n        /* \"DontKilltheJamNFTMojoClaimRedeax.sol\":2165:2199  payable(owner()).transfer(balance) */\n      dup3\n      iszero\n      0x08fc\n      mul\n      swap1\n        /* \"DontKilltheJamNFTMojoClaimRedeax.sol\":2191:2198  balance */\n      dup4\n      swap1\n        /* \"DontKilltheJamNFTMojoClaimRedeax.sol\":2165:2199  payable(owner()).transfer(balance) */\n      0x00\n      dup2\n      dup2\n      dup2\n        /* \"DontKilltheJamNFTMojoClaimRedeax.sol\":2191:2198  balance */\n      dup6\n        /* \"@thirdweb-dev/contracts/extension/Ownable.sol\":1046:1052   */\n      dup9\n        /* \"DontKilltheJamNFTMojoClaimRedeax.sol\":2165:2199  payable(owner()).transfer(balance) */\n      dup9\n      call\n      swap4\n      pop\n      pop\n      pop\n      pop\n      iszero\n      dup1\n      iszero\n      tag_289\n      jumpi\n      returndatasize\n      0x00\n      dup1\n      returndatacopy\n      revert(0x00, returndatasize)\n        /* \"@thirdweb-dev/contracts/eip/ERC721AVirtualApprove.sol\":8654:8803   */\n    tag_145:\n        /* \"@thirdweb-dev/contracts/eip/ERC721AVirtualApprove.sol\":8757:8796   */\n      tag_320\n        /* \"@thirdweb-dev/contracts/eip/ERC721AVirtualApprove.sol\":8774:8778   */\n      dup4\n        /* \"@thirdweb-dev/contracts/eip/ERC721AVirtualApprove.sol\":8780:8782   */\n      dup4\n        /* \"@thirdweb-dev/contracts/eip/ERC721AVirtualApprove.sol\":8784:8791   */\n      dup4\n        /* \"@thirdweb-dev/contracts/eip/ERC721AVirtualApprove.sol\":8757:8796   */\n      mload(0x40)\n      dup1\n      0x20\n      add\n      0x40\n      mstore\n      dup1\n      0x00\n      dup2\n      mstore\n      pop\n        /* \"@thirdweb-dev/contracts/eip/ERC721AVirtualApprove.sol\":8757:8773   */\n      tag_250\n        /* \"@thirdweb-dev/contracts/eip/ERC721AVirtualApprove.sol\":8757:8796   */\n      jump\t// in\n        /* \"@thirdweb-dev/contracts/base/ERC721Base.sol\":5793:5880   */\n    tag_149:\n        /* \"@thirdweb-dev/contracts/base/ERC721Base.sol\":5852:5873   */\n      tag_326\n        /* \"@thirdweb-dev/contracts/base/ERC721Base.sol\":5858:5866   */\n      dup2\n        /* \"@thirdweb-dev/contracts/base/ERC721Base.sol\":5868:5872   */\n      0x01\n        /* \"@thirdweb-dev/contracts/base/ERC721Base.sol\":5852:5857   */\n      tag_362\n        /* \"@thirdweb-dev/contracts/base/ERC721Base.sol\":5852:5873   */\n      jump\t// in\n        /* \"@thirdweb-dev/contracts/base/ERC721Base.sol\":6571:6914   */\n    tag_153:\n        /* \"@thirdweb-dev/contracts/base/ERC721Base.sol\":6686:6710   */\n      0x00\n        /* \"@thirdweb-dev/contracts/base/ERC721Base.sol\":6722:6735   */\n      dup1\n        /* \"@thirdweb-dev/contracts/base/ERC721Base.sol\":6738:6755   */\n      tag_364\n        /* \"@thirdweb-dev/contracts/base/ERC721Base.sol\":6746:6754   */\n      dup4\n        /* \"@thirdweb-dev/contracts/base/ERC721Base.sol\":6738:6745   */\n      tag_175\n        /* \"@thirdweb-dev/contracts/base/ERC721Base.sol\":6738:6755   */\n      jump\t// in\n    tag_364:\n        /* \"@thirdweb-dev/contracts/base/ERC721Base.sol\":6722:6755   */\n      swap1\n      pop\n        /* \"@thirdweb-dev/contracts/base/ERC721Base.sol\":6801:6806   */\n      dup1\n      sub(shl(0xa0, 0x01), 0x01)\n        /* \"@thirdweb-dev/contracts/base/ERC721Base.sol\":6788:6806   */\n      and\n        /* \"@thirdweb-dev/contracts/base/ERC721Base.sol\":6788:6797   */\n      dup5\n      sub(shl(0xa0, 0x01), 0x01)\n        /* \"@thirdweb-dev/contracts/base/ERC721Base.sol\":6788:6806   */\n      and\n      eq\n        /* \"@thirdweb-dev/contracts/base/ERC721Base.sol\":6788:6856   */\n      dup1\n      tag_366\n      jumpi\n      pop\n      sub(shl(0xa0, 0x01), 0x01)\n        /* \"@thirdweb-dev/contracts/eip/ERC721AVirtualApprove.sol\":8350:8375   */\n      dup1\n      dup3\n      and\n        /* \"@thirdweb-dev/contracts/eip/ERC721AVirtualApprove.sol\":8327:8331   */\n      0x00\n        /* \"@thirdweb-dev/contracts/eip/ERC721AVirtualApprove.sol\":8350:8375   */\n      swap1\n      dup2\n      mstore\n        /* \"@thirdweb-dev/contracts/eip/ERC721AVirtualApprove.sol\":8350:8368   */\n      0x07\n        /* \"@thirdweb-dev/contracts/eip/ERC721AVirtualApprove.sol\":8350:8375   */\n      0x20\n      swap1\n      dup2\n      mstore\n      0x40\n      dup1\n      dup4\n      keccak256\n        /* \"@thirdweb-dev/contracts/eip/ERC721AVirtualApprove.sol\":8350:8385   */\n      swap4\n      dup9\n      and\n      dup4\n      mstore\n      swap3\n      swap1\n      mstore\n      keccak256\n      sload\n      0xff\n      and\n        /* \"@thirdweb-dev/contracts/base/ERC721Base.sol\":6822:6856   */\n    tag_366:\n        /* \"@thirdweb-dev/contracts/base/ERC721Base.sol\":6788:6906   */\n      dup1\n      tag_367\n      jumpi\n      pop\n        /* \"@thirdweb-dev/contracts/base/ERC721Base.sol\":6897:6906   */\n      dup4\n      sub(shl(0xa0, 0x01), 0x01)\n        /* \"@thirdweb-dev/contracts/base/ERC721Base.sol\":6872:6906   */\n      and\n        /* \"@thirdweb-dev/contracts/base/ERC721Base.sol\":6872:6893   */\n      tag_368\n        /* \"@thirdweb-dev/contracts/base/ERC721Base.sol\":6884:6892   */\n      dup5\n        /* \"@thirdweb-dev/contracts/base/ERC721Base.sol\":6872:6883   */\n      tag_87\n        /* \"@thirdweb-dev/contracts/base/ERC721Base.sol\":6872:6893   */\n      jump\t// in\n    tag_368:\n      sub(shl(0xa0, 0x01), 0x01)\n        /* \"@thirdweb-dev/contracts/base/ERC721Base.sol\":6872:6906   */\n      and\n      eq\n        /* \"@thirdweb-dev/contracts/base/ERC721Base.sol\":6788:6906   */\n    tag_367:\n        /* \"@thirdweb-dev/contracts/base/ERC721Base.sol\":6765:6907   */\n      swap5\n        /* \"@thirdweb-dev/contracts/base/ERC721Base.sol\":6571:6914   */\n      swap4\n      pop\n      pop\n      pop\n      pop\n      jump\t// out\n        /* \"@thirdweb-dev/contracts/extension/Royalty.sol\":2291:2672   */\n    tag_158:\n        /* \"@thirdweb-dev/contracts/extension/Royalty.sol\":2371:2378   */\n      0x00\n        /* \"@thirdweb-dev/contracts/extension/Royalty.sol\":2435:2464   */\n      dup2\n      dup2\n      mstore\n        /* \"@thirdweb-dev/contracts/extension/Royalty.sol\":2435:2454   */\n      0x0b\n        /* \"@thirdweb-dev/contracts/extension/Royalty.sol\":2435:2464   */\n      0x20\n      swap1\n      dup2\n      mstore\n      0x40\n      dup1\n      dup4\n      keccak256\n        /* \"@thirdweb-dev/contracts/extension/Royalty.sol\":2398:2464   */\n      dup2\n      mload\n      dup1\n      dup4\n      add\n      swap1\n      swap3\n      mstore\n      dup1\n      sload\n      sub(shl(0xa0, 0x01), 0x01)\n      and\n      dup1\n      dup4\n      mstore\n      0x01\n      swap1\n      swap2\n      add\n      sload\n      swap3\n      dup3\n      add\n      swap3\n      swap1\n      swap3\n      mstore\n        /* \"@thirdweb-dev/contracts/extension/Royalty.sol\":2371:2378   */\n      dup3\n      swap2\n        /* \"@thirdweb-dev/contracts/extension/Royalty.sol\":2494:2533   */\n      iszero\n        /* \"@thirdweb-dev/contracts/extension/Royalty.sol\":2494:2665   */\n      tag_370\n      jumpi\n        /* \"@thirdweb-dev/contracts/extension/Royalty.sol\":2610:2635   */\n      dup1\n      mload\n        /* \"@thirdweb-dev/contracts/extension/Royalty.sol\":2644:2663   */\n      0x20\n      dup3\n      add\n      mload\n        /* \"@thirdweb-dev/contracts/extension/Royalty.sol\":2494:2665   */\n      jump(tag_371)\n    tag_370:\n        /* \"@thirdweb-dev/contracts/extension/Royalty.sol\":2553:2569   */\n      sload(0x0a)\n      sub(shl(0xa0, 0x01), 0x01)\n      dup2\n      and\n      swap1\n      shl(0xa0, 0x01)\n        /* \"@thirdweb-dev/contracts/extension/Royalty.sol\":2578:2588   */\n      swap1\n      div\n      0xffff\n      and\n        /* \"@thirdweb-dev/contracts/extension/Royalty.sol\":2494:2665   */\n    tag_371:\n        /* \"@thirdweb-dev/contracts/extension/Royalty.sol\":2475:2665   */\n      swap3\n      pop\n      swap3\n      pop\n      pop\n        /* \"@thirdweb-dev/contracts/extension/Royalty.sol\":2291:2672   */\n      swap2\n      pop\n      swap2\n      jump\t// out\n        /* \"@thirdweb-dev/contracts/eip/queryable/ERC721AQueryable.sol\":1514:1973   */\n    tag_165:\n        /* \"@thirdweb-dev/contracts/eip/queryable/ERC721AQueryable.sol\":1687:1702   */\n      dup1\n      mload\n        /* \"@thirdweb-dev/contracts/eip/queryable/ERC721AQueryable.sol\":1603:1626   */\n      0x60\n      swap1\n        /* \"@thirdweb-dev/contracts/eip/queryable/ERC721AQueryable.sol\":1662:1684   */\n      0x00\n        /* \"@thirdweb-dev/contracts/eip/queryable/ERC721AQueryable.sol\":1687:1702   */\n      dup2\n        /* \"@thirdweb-dev/contracts/eip/queryable/ERC721AQueryable.sol\":1753:1789   */\n      0xffffffffffffffff\n      dup2\n      gt\n      iszero\n      tag_374\n      jumpi\n      tag_374\n      tag_375\n      jump\t// in\n    tag_374:\n      mload(0x40)\n      swap1\n      dup1\n      dup3\n      mstore\n      dup1\n      0x20\n      mul\n      0x20\n      add\n      dup3\n      add\n      0x40\n      mstore\n      dup1\n      iszero\n      tag_376\n      jumpi\n      dup2\n      0x20\n      add\n    tag_377:\n      0x40\n      dup1\n      mload\n      0x60\n      dup2\n      add\n      dup3\n      mstore\n      0x00\n      dup1\n      dup3\n      mstore\n      0x20\n      dup1\n      dup4\n      add\n      dup3\n      swap1\n      mstore\n      swap3\n      dup3\n      add\n      mstore\n      dup3\n      mstore\n      not(0x00)\n      swap1\n      swap3\n      add\n      swap2\n      add\n      dup2\n      tag_377\n      jumpi\n      swap1\n      pop\n    tag_376:\n      pop\n        /* \"@thirdweb-dev/contracts/eip/queryable/ERC721AQueryable.sol\":1716:1789   */\n      swap1\n      pop\n        /* \"@thirdweb-dev/contracts/eip/queryable/ERC721AQueryable.sol\":1808:1817   */\n      0x00\n        /* \"@thirdweb-dev/contracts/eip/queryable/ERC721AQueryable.sol\":1803:1926   */\n    tag_380:\n        /* \"@thirdweb-dev/contracts/eip/queryable/ERC721AQueryable.sol\":1824:1838   */\n      dup3\n        /* \"@thirdweb-dev/contracts/eip/queryable/ERC721AQueryable.sol\":1819:1820   */\n      dup2\n        /* \"@thirdweb-dev/contracts/eip/queryable/ERC721AQueryable.sol\":1819:1838   */\n      eq\n        /* \"@thirdweb-dev/contracts/eip/queryable/ERC721AQueryable.sol\":1803:1926   */\n      tag_381\n      jumpi\n        /* \"@thirdweb-dev/contracts/eip/queryable/ERC721AQueryable.sol\":1879:1911   */\n      tag_383\n        /* \"@thirdweb-dev/contracts/eip/queryable/ERC721AQueryable.sol\":1899:1907   */\n      dup6\n        /* \"@thirdweb-dev/contracts/eip/queryable/ERC721AQueryable.sol\":1908:1909   */\n      dup3\n        /* \"@thirdweb-dev/contracts/eip/queryable/ERC721AQueryable.sol\":1899:1910   */\n      dup2\n      mload\n      dup2\n      lt\n      tag_385\n      jumpi\n      tag_385\n      tag_340\n      jump\t// in\n    tag_385:\n      0x20\n      mul\n      0x20\n      add\n      add\n      mload\n        /* \"@thirdweb-dev/contracts/eip/queryable/ERC721AQueryable.sol\":1879:1898   */\n      tag_258\n        /* \"@thirdweb-dev/contracts/eip/queryable/ERC721AQueryable.sol\":1879:1911   */\n      jump\t// in\n    tag_383:\n        /* \"@thirdweb-dev/contracts/eip/queryable/ERC721AQueryable.sol\":1863:1873   */\n      dup3\n        /* \"@thirdweb-dev/contracts/eip/queryable/ERC721AQueryable.sol\":1874:1875   */\n      dup3\n        /* \"@thirdweb-dev/contracts/eip/queryable/ERC721AQueryable.sol\":1863:1876   */\n      dup2\n      mload\n      dup2\n      lt\n      tag_387\n      jumpi\n      tag_387\n      tag_340\n      jump\t// in\n    tag_387:\n      0x20\n      swap1\n      dup2\n      mul\n      swap2\n      swap1\n      swap2\n      add\n      add\n        /* \"@thirdweb-dev/contracts/eip/queryable/ERC721AQueryable.sol\":1863:1911   */\n      mstore\n        /* \"@thirdweb-dev/contracts/eip/queryable/ERC721AQueryable.sol\":1840:1843   */\n      0x01\n      add\n        /* \"@thirdweb-dev/contracts/eip/queryable/ERC721AQueryable.sol\":1803:1926   */\n      jump(tag_380)\n    tag_381:\n      pop\n        /* \"@thirdweb-dev/contracts/eip/queryable/ERC721AQueryable.sol\":1946:1956   */\n      swap4\n        /* \"@thirdweb-dev/contracts/eip/queryable/ERC721AQueryable.sol\":1514:1973   */\n      swap3\n      pop\n      pop\n      pop\n      jump\t// out\n        /* \"@thirdweb-dev/contracts/extension/Royalty.sol\":3370:3630   */\n    tag_171:\n        /* \"@thirdweb-dev/contracts/extension/Royalty.sol\":3482:3502   */\n      tag_389\n        /* \"@thirdweb-dev/contracts/extension/Royalty.sol\":3482:3500   */\n      tag_282\n        /* \"@thirdweb-dev/contracts/extension/Royalty.sol\":3482:3502   */\n      jump\t// in\n    tag_389:\n        /* \"@thirdweb-dev/contracts/extension/Royalty.sol\":3477:3557   */\n      tag_391\n      jumpi\n        /* \"@thirdweb-dev/contracts/extension/Royalty.sol\":3525:3546   */\n      mload(0x40)\n      shl(0xe1, 0x6fae3581)\n      dup2\n      mstore\n      0x04\n      add\n      mload(0x40)\n      dup1\n      swap2\n      sub\n      swap1\n      revert\n        /* \"@thirdweb-dev/contracts/extension/Royalty.sol\":3477:3557   */\n    tag_391:\n        /* \"@thirdweb-dev/contracts/extension/Royalty.sol\":3567:3623   */\n      tag_289\n        /* \"@thirdweb-dev/contracts/extension/Royalty.sol\":3592:3609   */\n      dup3\n        /* \"@thirdweb-dev/contracts/extension/Royalty.sol\":3611:3622   */\n      dup3\n        /* \"@thirdweb-dev/contracts/extension/Royalty.sol\":3567:3591   */\n      tag_393\n        /* \"@thirdweb-dev/contracts/extension/Royalty.sol\":3567:3623   */\n      jump\t// in\n        /* \"@thirdweb-dev/contracts/eip/ERC721AVirtualApprove.sol\":5944:6067   */\n    tag_175:\n        /* \"@thirdweb-dev/contracts/eip/ERC721AVirtualApprove.sol\":6008:6015   */\n      0x00\n        /* \"@thirdweb-dev/contracts/eip/ERC721AVirtualApprove.sol\":6034:6055   */\n      tag_395\n        /* \"@thirdweb-dev/contracts/eip/ERC721AVirtualApprove.sol\":6047:6054   */\n      dup3\n        /* \"@thirdweb-dev/contracts/eip/ERC721AVirtualApprove.sol\":6034:6046   */\n      tag_396\n        /* \"@thirdweb-dev/contracts/eip/ERC721AVirtualApprove.sol\":6034:6055   */\n      jump\t// in\n    tag_395:\n        /* \"@thirdweb-dev/contracts/eip/ERC721AVirtualApprove.sol\":6034:6060   */\n      mload\n      swap3\n        /* \"@thirdweb-dev/contracts/eip/ERC721AVirtualApprove.sol\":5944:6067   */\n      swap2\n      pop\n      pop\n      jump\t// out\n        /* \"@thirdweb-dev/contracts/eip/ERC721AVirtualApprove.sol\":3370:3573   */\n    tag_184:\n        /* \"@thirdweb-dev/contracts/eip/ERC721AVirtualApprove.sol\":3434:3441   */\n      0x00\n      sub(shl(0xa0, 0x01), 0x01)\n        /* \"@thirdweb-dev/contracts/eip/ERC721AVirtualApprove.sol\":3457:3476   */\n      dup3\n      and\n        /* \"@thirdweb-dev/contracts/eip/ERC721AVirtualApprove.sol\":3453:3513   */\n      tag_399\n      jumpi\n        /* \"@thirdweb-dev/contracts/eip/ERC721AVirtualApprove.sol\":3485:3513   */\n      mload(0x40)\n      shl(0xe2, 0x23d3ad81)\n      dup2\n      mstore\n      0x04\n      add\n      mload(0x40)\n      dup1\n      swap2\n      sub\n      swap1\n      revert\n        /* \"@thirdweb-dev/contracts/eip/ERC721AVirtualApprove.sol\":3453:3513   */\n    tag_399:\n      pop\n      sub(shl(0xa0, 0x01), 0x01)\n        /* \"@thirdweb-dev/contracts/eip/ERC721AVirtualApprove.sol\":3538:3557   */\n      and\n      0x00\n      swap1\n      dup2\n      mstore\n        /* \"@thirdweb-dev/contracts/eip/ERC721AVirtualApprove.sol\":3538:3550   */\n      0x05\n        /* \"@thirdweb-dev/contracts/eip/ERC721AVirtualApprove.sol\":3538:3557   */\n      0x20\n      mstore\n      0x40\n      swap1\n      keccak256\n        /* \"@thirdweb-dev/contracts/eip/ERC721AVirtualApprove.sol\":3538:3565   */\n      sload\n      0xffffffffffffffff\n      and\n      swap1\n        /* \"@thirdweb-dev/contracts/eip/ERC721AVirtualApprove.sol\":3370:3573   */\n      jump\t// out\n        /* \"@thirdweb-dev/contracts/base/ERC721Base.sol\":5232:5519   */\n    tag_190:\n        /* \"@thirdweb-dev/contracts/base/ERC721Base.sol\":5362:5372   */\n      tag_401\n        /* \"@thirdweb-dev/contracts/base/ERC721Base.sol\":5362:5370   */\n      tag_282\n        /* \"@thirdweb-dev/contracts/base/ERC721Base.sol\":5362:5372   */\n      jump\t// in\n    tag_401:\n        /* \"@thirdweb-dev/contracts/base/ERC721Base.sol\":5354:5400   */\n      tag_402\n      jumpi\n      mload(0x40)\n      shl(0xe5, 0x461bcd)\n      dup2\n      mstore\n        /* \"#utility.yul\":15004:15006   */\n      0x20\n        /* \"@thirdweb-dev/contracts/base/ERC721Base.sol\":5354:5400   */\n      0x04\n      dup3\n      add\n        /* \"#utility.yul\":14986:15007   */\n      mstore\n        /* \"#utility.yul\":15043:15045   */\n      0x17\n        /* \"#utility.yul\":15023:15041   */\n      0x24\n      dup3\n      add\n        /* \"#utility.yul\":15016:15046   */\n      mstore\n        /* \"#utility.yul\":15082:15107   */\n      0x4e6f7420617574686f72697a656420746f206d696e742e000000000000000000\n        /* \"#utility.yul\":15062:15080   */\n      0x44\n      dup3\n      add\n        /* \"#utility.yul\":15055:15108   */\n      mstore\n        /* \"#utility.yul\":15125:15143   */\n      0x64\n      add\n        /* \"@thirdweb-dev/contracts/base/ERC721Base.sol\":5354:5400   */\n      tag_284\n        /* \"#utility.yul\":14802:15149   */\n      jump\n        /* \"@thirdweb-dev/contracts/base/ERC721Base.sol\":5354:5400   */\n    tag_402:\n        /* \"@thirdweb-dev/contracts/base/ERC721Base.sol\":5410:5470   */\n      tag_404\n        /* \"@thirdweb-dev/contracts/base/ERC721Base.sol\":5429:5448   */\n      tag_405\n        /* \"@thirdweb-dev/contracts/base/ERC721Base.sol\":6193:6200   */\n      0x00\n        /* \"@thirdweb-dev/contracts/base/ERC721Base.sol\":6219:6232   */\n      sload\n      swap1\n        /* \"@thirdweb-dev/contracts/base/ERC721Base.sol\":6135:6239   */\n      jump\n        /* \"@thirdweb-dev/contracts/base/ERC721Base.sol\":5429:5448   */\n    tag_405:\n        /* \"@thirdweb-dev/contracts/base/ERC721Base.sol\":5450:5459   */\n      dup5\n        /* \"@thirdweb-dev/contracts/base/ERC721Base.sol\":5461:5469   */\n      dup5\n        /* \"@thirdweb-dev/contracts/base/ERC721Base.sol\":5410:5428   */\n      tag_406\n        /* \"@thirdweb-dev/contracts/base/ERC721Base.sol\":5410:5470   */\n      jump\t// in\n    tag_404:\n      pop\n      pop\n        /* \"@thirdweb-dev/contracts/base/ERC721Base.sol\":5480:5512   */\n      tag_407\n        /* \"@thirdweb-dev/contracts/base/ERC721Base.sol\":5490:5493   */\n      dup5\n        /* \"@thirdweb-dev/contracts/base/ERC721Base.sol\":5495:5504   */\n      dup5\n        /* \"@thirdweb-dev/contracts/base/ERC721Base.sol\":5506:5511   */\n      dup4\n        /* \"@thirdweb-dev/contracts/base/ERC721Base.sol\":5480:5489   */\n      tag_290\n        /* \"@thirdweb-dev/contracts/base/ERC721Base.sol\":5480:5512   */\n      jump\t// in\n    tag_407:\n        /* \"@thirdweb-dev/contracts/base/ERC721Base.sol\":5232:5519   */\n      pop\n      pop\n      pop\n      pop\n      jump\t// out\n        /* \"@thirdweb-dev/contracts/eip/queryable/ERC721AQueryable.sol\":5285:6155   */\n    tag_199:\n        /* \"@thirdweb-dev/contracts/eip/queryable/ERC721AQueryable.sol\":5355:5371   */\n      0x60\n        /* \"@thirdweb-dev/contracts/eip/queryable/ERC721AQueryable.sol\":5407:5426   */\n      0x00\n        /* \"@thirdweb-dev/contracts/eip/queryable/ERC721AQueryable.sol\":5440:5465   */\n      dup1\n        /* \"@thirdweb-dev/contracts/eip/queryable/ERC721AQueryable.sol\":5479:5501   */\n      0x00\n        /* \"@thirdweb-dev/contracts/eip/queryable/ERC721AQueryable.sol\":5504:5520   */\n      tag_409\n        /* \"@thirdweb-dev/contracts/eip/queryable/ERC721AQueryable.sol\":5514:5519   */\n      dup6\n        /* \"@thirdweb-dev/contracts/eip/queryable/ERC721AQueryable.sol\":5504:5513   */\n      tag_184\n        /* \"@thirdweb-dev/contracts/eip/queryable/ERC721AQueryable.sol\":5504:5520   */\n      jump\t// in\n    tag_409:\n        /* \"@thirdweb-dev/contracts/eip/queryable/ERC721AQueryable.sol\":5479:5520   */\n      swap1\n      pop\n        /* \"@thirdweb-dev/contracts/eip/queryable/ERC721AQueryable.sol\":5534:5559   */\n      0x00\n        /* \"@thirdweb-dev/contracts/eip/queryable/ERC721AQueryable.sol\":5576:5590   */\n      dup2\n        /* \"@thirdweb-dev/contracts/eip/queryable/ERC721AQueryable.sol\":5562:5591   */\n      0xffffffffffffffff\n      dup2\n      gt\n      iszero\n      tag_411\n      jumpi\n      tag_411\n      tag_375\n      jump\t// in\n    tag_411:\n      mload(0x40)\n      swap1\n      dup1\n      dup3\n      mstore\n      dup1\n      0x20\n      mul\n      0x20\n      add\n      dup3\n      add\n      0x40\n      mstore\n      dup1\n      iszero\n      tag_412\n      jumpi\n      dup2\n      0x20\n      add\n      0x20\n      dup3\n      mul\n      dup1\n      calldatasize\n      dup4\n      calldatacopy\n      add\n      swap1\n      pop\n    tag_412:\n      pop\n      0x40\n      dup1\n      mload\n      0x60\n      dup2\n      add\n      dup3\n      mstore\n      0x00\n      dup1\n      dup3\n      mstore\n      0x20\n      dup3\n      add\n      dup2\n      swap1\n      mstore\n      swap2\n      dup2\n      add\n      dup3\n      swap1\n      mstore\n        /* \"@thirdweb-dev/contracts/eip/queryable/ERC721AQueryable.sol\":5534:5591   */\n      swap2\n      swap3\n      pop\n        /* \"@thirdweb-dev/contracts/eip/queryable/ERC721AQueryable.sol\":5650:6110   */\n    tag_414:\n        /* \"@thirdweb-dev/contracts/eip/queryable/ERC721AQueryable.sol\":5699:5713   */\n      dup4\n        /* \"@thirdweb-dev/contracts/eip/queryable/ERC721AQueryable.sol\":5684:5695   */\n      dup7\n        /* \"@thirdweb-dev/contracts/eip/queryable/ERC721AQueryable.sol\":5684:5713   */\n      eq\n        /* \"@thirdweb-dev/contracts/eip/queryable/ERC721AQueryable.sol\":5650:6110   */\n      tag_415\n      jumpi\n        /* \"@thirdweb-dev/contracts/eip/queryable/ERC721AQueryable.sol\":5750:5764   */\n      0x00\n      dup2\n      dup2\n      mstore\n        /* \"@thirdweb-dev/contracts/eip/queryable/ERC721AQueryable.sol\":5750:5761   */\n      0x04\n        /* \"@thirdweb-dev/contracts/eip/queryable/ERC721AQueryable.sol\":5750:5764   */\n      0x20\n      swap1\n      dup2\n      mstore\n      0x40\n      swap2\n      dup3\n      swap1\n      keccak256\n        /* \"@thirdweb-dev/contracts/eip/queryable/ERC721AQueryable.sol\":5738:5764   */\n      dup3\n      mload\n      0x60\n      dup2\n      add\n      dup5\n      mstore\n      swap1\n      sload\n      sub(shl(0xa0, 0x01), 0x01)\n      dup2\n      and\n      dup3\n      mstore\n      shl(0xa0, 0x01)\n      dup2\n      div\n      0xffffffffffffffff\n      and\n      swap3\n      dup3\n      add\n      swap3\n      swap1\n      swap3\n      mstore\n      shl(0xe0, 0x01)\n      swap1\n      swap2\n      div\n      0xff\n      and\n      iszero\n      iszero\n      swap2\n      dup2\n      add\n      dup3\n      swap1\n      mstore\n      swap3\n      pop\n        /* \"@thirdweb-dev/contracts/eip/queryable/ERC721AQueryable.sol\":5826:5834   */\n      tag_420\n        /* \"@thirdweb-dev/contracts/eip/queryable/ERC721AQueryable.sol\":5782:5853   */\n      jumpi\n        /* \"@thirdweb-dev/contracts/eip/queryable/ERC721AQueryable.sol\":5874:5888   */\n      dup2\n      mload\n      sub(shl(0xa0, 0x01), 0x01)\n        /* \"@thirdweb-dev/contracts/eip/queryable/ERC721AQueryable.sol\":5874:5902   */\n      and\n      iszero\n        /* \"@thirdweb-dev/contracts/eip/queryable/ERC721AQueryable.sol\":5870:5979   */\n      tag_419\n      jumpi\n        /* \"@thirdweb-dev/contracts/eip/queryable/ERC721AQueryable.sol\":5946:5960   */\n      dup2\n      mload\n      swap5\n      pop\n        /* \"@thirdweb-dev/contracts/eip/queryable/ERC721AQueryable.sol\":5870:5979   */\n    tag_419:\n        /* \"@thirdweb-dev/contracts/eip/queryable/ERC721AQueryable.sol\":6021:6026   */\n      dup8\n      sub(shl(0xa0, 0x01), 0x01)\n        /* \"@thirdweb-dev/contracts/eip/queryable/ERC721AQueryable.sol\":6000:6026   */\n      and\n        /* \"@thirdweb-dev/contracts/eip/queryable/ERC721AQueryable.sol\":6000:6017   */\n      dup6\n      sub(shl(0xa0, 0x01), 0x01)\n        /* \"@thirdweb-dev/contracts/eip/queryable/ERC721AQueryable.sol\":6000:6026   */\n      and\n      sub\n        /* \"@thirdweb-dev/contracts/eip/queryable/ERC721AQueryable.sol\":5996:6096   */\n      tag_420\n      jumpi\n        /* \"@thirdweb-dev/contracts/eip/queryable/ERC721AQueryable.sol\":6076:6077   */\n      dup1\n        /* \"@thirdweb-dev/contracts/eip/queryable/ERC721AQueryable.sol\":6050:6058   */\n      dup4\n        /* \"@thirdweb-dev/contracts/eip/queryable/ERC721AQueryable.sol\":6059:6072   */\n      dup8\n      dup1\n      0x01\n      add\n      swap9\n      pop\n        /* \"@thirdweb-dev/contracts/eip/queryable/ERC721AQueryable.sol\":6050:6073   */\n      dup2\n      mload\n      dup2\n      lt\n      tag_422\n      jumpi\n      tag_422\n      tag_340\n      jump\t// in\n    tag_422:\n      0x20\n      mul\n      0x20\n      add\n      add\n        /* \"@thirdweb-dev/contracts/eip/queryable/ERC721AQueryable.sol\":6050:6077   */\n      dup2\n      dup2\n      mstore\n      pop\n      pop\n        /* \"@thirdweb-dev/contracts/eip/queryable/ERC721AQueryable.sol\":5996:6096   */\n    tag_420:\n        /* \"@thirdweb-dev/contracts/eip/queryable/ERC721AQueryable.sol\":5715:5718   */\n      0x01\n      add\n        /* \"@thirdweb-dev/contracts/eip/queryable/ERC721AQueryable.sol\":5650:6110   */\n      jump(tag_414)\n    tag_415:\n      pop\n        /* \"@thirdweb-dev/contracts/eip/queryable/ERC721AQueryable.sol\":6130:6138   */\n      swap1\n      swap7\n        /* \"@thirdweb-dev/contracts/eip/queryable/ERC721AQueryable.sol\":5285:6155   */\n      swap6\n      pop\n      pop\n      pop\n      pop\n      pop\n      pop\n      jump\t// out\n        /* \"DontKilltheJamNFTMojoClaimRedeax.sol\":1097:2007  function batchMintTo(... */\n    tag_209:\n        /* \"DontKilltheJamNFTMojoClaimRedeax.sol\":1324:1335  _mojoScores */\n      dup2\n        /* \"DontKilltheJamNFTMojoClaimRedeax.sol\":1324:1342  _mojoScores.length */\n      mload\n        /* \"DontKilltheJamNFTMojoClaimRedeax.sol\":1303:1313  _tokenURIs */\n      dup4\n        /* \"DontKilltheJamNFTMojoClaimRedeax.sol\":1303:1320  _tokenURIs.length */\n      mload\n        /* \"DontKilltheJamNFTMojoClaimRedeax.sol\":1303:1342  _tokenURIs.length == _mojoScores.length */\n      eq\n        /* \"DontKilltheJamNFTMojoClaimRedeax.sol\":1303:1398  _tokenURIs.length == _mojoScores.length && ... */\n      dup1\n      iszero\n      tag_425\n      jumpi\n      pop\n        /* \"DontKilltheJamNFTMojoClaimRedeax.sol\":1380:1391  _narratives */\n      dup1\n        /* \"DontKilltheJamNFTMojoClaimRedeax.sol\":1380:1398  _narratives.length */\n      mload\n        /* \"DontKilltheJamNFTMojoClaimRedeax.sol\":1359:1369  _tokenURIs */\n      dup4\n        /* \"DontKilltheJamNFTMojoClaimRedeax.sol\":1359:1376  _tokenURIs.length */\n      mload\n        /* \"DontKilltheJamNFTMojoClaimRedeax.sol\":1359:1398  _tokenURIs.length == _narratives.length */\n      eq\n        /* \"DontKilltheJamNFTMojoClaimRedeax.sol\":1303:1398  _tokenURIs.length == _mojoScores.length && ... */\n    tag_425:\n        /* \"DontKilltheJamNFTMojoClaimRedeax.sol\":1282:1448  require(... */\n      tag_426\n      jumpi\n      mload(0x40)\n      shl(0xe5, 0x461bcd)\n      dup2\n      mstore\n        /* \"#utility.yul\":16784:16786   */\n      0x20\n        /* \"DontKilltheJamNFTMojoClaimRedeax.sol\":1282:1448  require(... */\n      0x04\n      dup3\n      add\n        /* \"#utility.yul\":16766:16787   */\n      mstore\n        /* \"#utility.yul\":16823:16825   */\n      0x18\n        /* \"#utility.yul\":16803:16821   */\n      0x24\n      dup3\n      add\n        /* \"#utility.yul\":16796:16826   */\n      mstore\n        /* \"#utility.yul\":16862:16888   */\n      0x4172726179206c656e67746873206d757374206d617463680000000000000000\n        /* \"#utility.yul\":16842:16860   */\n      0x44\n      dup3\n      add\n        /* \"#utility.yul\":16835:16889   */\n      mstore\n        /* \"#utility.yul\":16906:16924   */\n      0x64\n      add\n        /* \"DontKilltheJamNFTMojoClaimRedeax.sol\":1282:1448  require(... */\n      tag_284\n        /* \"#utility.yul\":16582:16930   */\n      jump\n        /* \"DontKilltheJamNFTMojoClaimRedeax.sol\":1282:1448  require(... */\n    tag_426:\n        /* \"DontKilltheJamNFTMojoClaimRedeax.sol\":183:188  10000 */\n      0x2710\n        /* \"DontKilltheJamNFTMojoClaimRedeax.sol\":1495:1505  _tokenURIs */\n      dup4\n        /* \"DontKilltheJamNFTMojoClaimRedeax.sol\":1495:1512  _tokenURIs.length */\n      mload\n        /* \"DontKilltheJamNFTMojoClaimRedeax.sol\":1479:1492  totalSupply() */\n      tag_429\n        /* \"@thirdweb-dev/contracts/eip/ERC721AVirtualApprove.sol\":2541:2553   */\n      sload(0x01)\n        /* \"@thirdweb-dev/contracts/eip/ERC721AVirtualApprove.sol\":2335:2342   */\n      0x00\n        /* \"@thirdweb-dev/contracts/eip/ERC721AVirtualApprove.sol\":2525:2538   */\n      sload\n        /* \"@thirdweb-dev/contracts/eip/ERC721AVirtualApprove.sol\":2525:2553   */\n      sub\n      swap1\n        /* \"@thirdweb-dev/contracts/eip/ERC721AVirtualApprove.sol\":2282:2588   */\n      jump\n        /* \"DontKilltheJamNFTMojoClaimRedeax.sol\":1479:1492  totalSupply() */\n    tag_429:\n        /* \"DontKilltheJamNFTMojoClaimRedeax.sol\":1479:1512  totalSupply() + _tokenURIs.length */\n      tag_430\n      swap2\n      swap1\n      tag_431\n      jump\t// in\n    tag_430:\n        /* \"DontKilltheJamNFTMojoClaimRedeax.sol\":1479:1526  totalSupply() + _tokenURIs.length <= MAX_SUPPLY */\n      gt\n      iszero\n        /* \"DontKilltheJamNFTMojoClaimRedeax.sol\":1458:1582  require(... */\n      tag_432\n      jumpi\n      mload(0x40)\n      shl(0xe5, 0x461bcd)\n      dup2\n      mstore\n        /* \"#utility.yul\":17267:17269   */\n      0x20\n        /* \"DontKilltheJamNFTMojoClaimRedeax.sol\":1458:1582  require(... */\n      0x04\n      dup3\n      add\n        /* \"#utility.yul\":17249:17270   */\n      mstore\n        /* \"#utility.yul\":17306:17308   */\n      0x1d\n        /* \"#utility.yul\":17286:17304   */\n      0x24\n      dup3\n      add\n        /* \"#utility.yul\":17279:17309   */\n      mstore\n        /* \"#utility.yul\":17345:17376   */\n      0x426174636820776f756c6420657863656564206d617820737570706c79000000\n        /* \"#utility.yul\":17325:17343   */\n      0x44\n      dup3\n      add\n        /* \"#utility.yul\":17318:17377   */\n      mstore\n        /* \"#utility.yul\":17394:17412   */\n      0x64\n      add\n        /* \"DontKilltheJamNFTMojoClaimRedeax.sol\":1458:1582  require(... */\n      tag_284\n        /* \"#utility.yul\":17065:17418   */\n      jump\n        /* \"DontKilltheJamNFTMojoClaimRedeax.sol\":1458:1582  require(... */\n    tag_432:\n        /* \"DontKilltheJamNFTMojoClaimRedeax.sol\":1632:1642  _tokenURIs */\n      dup3\n        /* \"DontKilltheJamNFTMojoClaimRedeax.sol\":1632:1649  _tokenURIs.length */\n      mload\n        /* \"DontKilltheJamNFTMojoClaimRedeax.sol\":1622:1629  mintFee */\n      sload(0x10)\n        /* \"DontKilltheJamNFTMojoClaimRedeax.sol\":1622:1649  mintFee * _tokenURIs.length */\n      tag_435\n      swap2\n      swap1\n      tag_345\n      jump\t// in\n    tag_435:\n        /* \"DontKilltheJamNFTMojoClaimRedeax.sol\":1609:1618  msg.value */\n      callvalue\n        /* \"DontKilltheJamNFTMojoClaimRedeax.sol\":1609:1649  msg.value >= mintFee * _tokenURIs.length */\n      lt\n      iszero\n        /* \"DontKilltheJamNFTMojoClaimRedeax.sol\":1601:1675  require(msg.value >= mintFee * _tokenURIs.length, \"Insufficient mint fee\") */\n      tag_436\n      jumpi\n      mload(0x40)\n      shl(0xe5, 0x461bcd)\n      dup2\n      mstore\n        /* \"#utility.yul\":17625:17627   */\n      0x20\n        /* \"DontKilltheJamNFTMojoClaimRedeax.sol\":1601:1675  require(msg.value >= mintFee * _tokenURIs.length, \"Insufficient mint fee\") */\n      0x04\n      dup3\n      add\n        /* \"#utility.yul\":17607:17628   */\n      mstore\n        /* \"#utility.yul\":17664:17666   */\n      0x15\n        /* \"#utility.yul\":17644:17662   */\n      0x24\n      dup3\n      add\n        /* \"#utility.yul\":17637:17667   */\n      mstore\n        /* \"#utility.yul\":17703:17726   */\n      0x496e73756666696369656e74206d696e74206665650000000000000000000000\n        /* \"#utility.yul\":17683:17701   */\n      0x44\n      dup3\n      add\n        /* \"#utility.yul\":17676:17727   */\n      mstore\n        /* \"#utility.yul\":17744:17762   */\n      0x64\n      add\n        /* \"DontKilltheJamNFTMojoClaimRedeax.sol\":1601:1675  require(msg.value >= mintFee * _tokenURIs.length, \"Insufficient mint fee\") */\n      tag_284\n        /* \"#utility.yul\":17423:17768   */\n      jump\n        /* \"DontKilltheJamNFTMojoClaimRedeax.sol\":1601:1675  require(msg.value >= mintFee * _tokenURIs.length, \"Insufficient mint fee\") */\n    tag_436:\n        /* \"DontKilltheJamNFTMojoClaimRedeax.sol\":1699:1708  uint256 i */\n      0x00\n        /* \"DontKilltheJamNFTMojoClaimRedeax.sol\":1694:2001  for (uint256 i = 0; i < _tokenURIs.length; i++) {... */\n    tag_439:\n        /* \"DontKilltheJamNFTMojoClaimRedeax.sol\":1718:1728  _tokenURIs */\n      dup4\n        /* \"DontKilltheJamNFTMojoClaimRedeax.sol\":1718:1735  _tokenURIs.length */\n      mload\n        /* \"DontKilltheJamNFTMojoClaimRedeax.sol\":1714:1715  i */\n      dup2\n        /* \"DontKilltheJamNFTMojoClaimRedeax.sol\":1714:1735  i < _tokenURIs.length */\n      lt\n        /* \"DontKilltheJamNFTMojoClaimRedeax.sol\":1694:2001  for (uint256 i = 0; i < _tokenURIs.length; i++) {... */\n      iszero\n      tag_440\n      jumpi\n        /* \"DontKilltheJamNFTMojoClaimRedeax.sol\":1756:1771  uint256 tokenId */\n      0x00\n        /* \"@thirdweb-dev/contracts/base/ERC721Base.sol\":6219:6232   */\n      sload\n        /* \"DontKilltheJamNFTMojoClaimRedeax.sol\":1807:1829  _safeMint(to, tokenId) */\n      tag_443\n        /* \"DontKilltheJamNFTMojoClaimRedeax.sol\":1817:1819  to */\n      dup7\n        /* \"@thirdweb-dev/contracts/base/ERC721Base.sol\":6219:6232   */\n      dup3\n        /* \"DontKilltheJamNFTMojoClaimRedeax.sol\":1807:1816  _safeMint */\n      tag_444\n        /* \"DontKilltheJamNFTMojoClaimRedeax.sol\":1807:1829  _safeMint(to, tokenId) */\n      jump\t// in\n    tag_443:\n        /* \"DontKilltheJamNFTMojoClaimRedeax.sol\":1843:1879  _setTokenURI(tokenId, _tokenURIs[i]) */\n      tag_445\n        /* \"DontKilltheJamNFTMojoClaimRedeax.sol\":1856:1863  tokenId */\n      dup2\n        /* \"DontKilltheJamNFTMojoClaimRedeax.sol\":1865:1875  _tokenURIs */\n      dup7\n        /* \"DontKilltheJamNFTMojoClaimRedeax.sol\":1876:1877  i */\n      dup5\n        /* \"DontKilltheJamNFTMojoClaimRedeax.sol\":1865:1878  _tokenURIs[i] */\n      dup2\n      mload\n      dup2\n      lt\n      tag_447\n      jumpi\n      tag_447\n      tag_340\n      jump\t// in\n    tag_447:\n      0x20\n      mul\n      0x20\n      add\n      add\n      mload\n        /* \"DontKilltheJamNFTMojoClaimRedeax.sol\":1843:1855  _setTokenURI */\n      tag_288\n        /* \"DontKilltheJamNFTMojoClaimRedeax.sol\":1843:1879  _setTokenURI(tokenId, _tokenURIs[i]) */\n      jump\t// in\n    tag_445:\n        /* \"DontKilltheJamNFTMojoClaimRedeax.sol\":1927:1938  _mojoScores */\n      dup4\n        /* \"DontKilltheJamNFTMojoClaimRedeax.sol\":1939:1940  i */\n      dup3\n        /* \"DontKilltheJamNFTMojoClaimRedeax.sol\":1927:1941  _mojoScores[i] */\n      dup2\n      mload\n      dup2\n      lt\n      tag_449\n      jumpi\n      tag_449\n      tag_340\n      jump\t// in\n    tag_449:\n      0x20\n      mul\n      0x20\n      add\n      add\n      mload\n        /* \"DontKilltheJamNFTMojoClaimRedeax.sol\":1906:1915  mojoScore */\n      0x11\n        /* \"DontKilltheJamNFTMojoClaimRedeax.sol\":1906:1924  mojoScore[tokenId] */\n      0x00\n        /* \"DontKilltheJamNFTMojoClaimRedeax.sol\":1916:1923  tokenId */\n      dup4\n        /* \"DontKilltheJamNFTMojoClaimRedeax.sol\":1906:1924  mojoScore[tokenId] */\n      dup2\n      mstore\n      0x20\n      add\n      swap1\n      dup2\n      mstore\n      0x20\n      add\n      0x00\n      keccak256\n        /* \"DontKilltheJamNFTMojoClaimRedeax.sol\":1906:1941  mojoScore[tokenId] = _mojoScores[i] */\n      dup2\n      swap1\n      sstore\n      pop\n        /* \"DontKilltheJamNFTMojoClaimRedeax.sol\":1976:1987  _narratives */\n      dup3\n        /* \"DontKilltheJamNFTMojoClaimRedeax.sol\":1988:1989  i */\n      dup3\n        /* \"DontKilltheJamNFTMojoClaimRedeax.sol\":1976:1990  _narratives[i] */\n      dup2\n      mload\n      dup2\n      lt\n      tag_451\n      jumpi\n      tag_451\n      tag_340\n      jump\t// in\n    tag_451:\n      0x20\n      mul\n      0x20\n      add\n      add\n      mload\n        /* \"DontKilltheJamNFTMojoClaimRedeax.sol\":1955:1964  narrative */\n      0x12\n        /* \"DontKilltheJamNFTMojoClaimRedeax.sol\":1955:1973  narrative[tokenId] */\n      0x00\n        /* \"DontKilltheJamNFTMojoClaimRedeax.sol\":1965:1972  tokenId */\n      dup4\n        /* \"DontKilltheJamNFTMojoClaimRedeax.sol\":1955:1973  narrative[tokenId] */\n      dup2\n      mstore\n      0x20\n      add\n      swap1\n      dup2\n      mstore\n      0x20\n      add\n      0x00\n      keccak256\n        /* \"DontKilltheJamNFTMojoClaimRedeax.sol\":1955:1990  narrative[tokenId] = _narratives[i] */\n      swap1\n      dup2\n      tag_452\n      swap2\n      swap1\n      tag_453\n      jump\t// in\n    tag_452:\n      pop\n      pop\n        /* \"DontKilltheJamNFTMojoClaimRedeax.sol\":1737:1740  i++ */\n      0x01\n      add\n        /* \"DontKilltheJamNFTMojoClaimRedeax.sol\":1694:2001  for (uint256 i = 0; i < _tokenURIs.length; i++) {... */\n      jump(tag_439)\n    tag_440:\n      pop\n        /* \"DontKilltheJamNFTMojoClaimRedeax.sol\":1097:2007  function batchMintTo(... */\n      pop\n      pop\n      pop\n      pop\n      jump\t// out\n        /* \"@thirdweb-dev/contracts/extension/ContractMetadata.sol\":1110:1311   */\n    tag_214:\n        /* \"@thirdweb-dev/contracts/extension/ContractMetadata.sol\":1187:1207   */\n      tag_455\n        /* \"@thirdweb-dev/contracts/extension/ContractMetadata.sol\":1187:1205   */\n      tag_282\n        /* \"@thirdweb-dev/contracts/extension/ContractMetadata.sol\":1187:1207   */\n      jump\t// in\n    tag_455:\n        /* \"@thirdweb-dev/contracts/extension/ContractMetadata.sol\":1182:1271   */\n      tag_457\n      jumpi\n        /* \"@thirdweb-dev/contracts/extension/ContractMetadata.sol\":1230:1260   */\n      mload(0x40)\n      shl(0xe0, 0x9f7f0925)\n      dup2\n      mstore\n      0x04\n      add\n      mload(0x40)\n      dup1\n      swap2\n      sub\n      swap1\n      revert\n        /* \"@thirdweb-dev/contracts/extension/ContractMetadata.sol\":1182:1271   */\n    tag_457:\n        /* \"@thirdweb-dev/contracts/extension/ContractMetadata.sol\":1281:1304   */\n      tag_326\n        /* \"@thirdweb-dev/contracts/extension/ContractMetadata.sol\":1299:1303   */\n      dup2\n        /* \"@thirdweb-dev/contracts/extension/ContractMetadata.sol\":1281:1298   */\n      tag_459\n        /* \"@thirdweb-dev/contracts/extension/ContractMetadata.sol\":1281:1304   */\n      jump\t// in\n        /* \"@thirdweb-dev/contracts/eip/ERC721AVirtualApprove.sol\":6291:6393   */\n    tag_217:\n        /* \"@thirdweb-dev/contracts/eip/ERC721AVirtualApprove.sol\":6347:6360   */\n      0x60\n        /* \"@thirdweb-dev/contracts/eip/ERC721AVirtualApprove.sol\":6379:6386   */\n      0x03\n        /* \"@thirdweb-dev/contracts/eip/ERC721AVirtualApprove.sol\":6372:6386   */\n      dup1\n      sload\n      tag_302\n      swap1\n      tag_292\n      jump\t// in\n        /* \"@thirdweb-dev/contracts/eip/queryable/ERC721AQueryable.sol\":2374:4822   */\n    tag_223:\n        /* \"@thirdweb-dev/contracts/eip/queryable/ERC721AQueryable.sol\":2505:2521   */\n      0x60\n        /* \"@thirdweb-dev/contracts/eip/queryable/ERC721AQueryable.sol\":2570:2574   */\n      dup2\n        /* \"@thirdweb-dev/contracts/eip/queryable/ERC721AQueryable.sol\":2561:2566   */\n      dup4\n        /* \"@thirdweb-dev/contracts/eip/queryable/ERC721AQueryable.sol\":2561:2574   */\n      lt\n        /* \"@thirdweb-dev/contracts/eip/queryable/ERC721AQueryable.sol\":2557:2602   */\n      tag_467\n      jumpi\n        /* \"@thirdweb-dev/contracts/eip/queryable/ERC721AQueryable.sol\":2583:2602   */\n      mload(0x40)\n      shl(0xe1, 0x1960ccad)\n      dup2\n      mstore\n      0x04\n      add\n      mload(0x40)\n      dup1\n      swap2\n      sub\n      swap1\n      revert\n        /* \"@thirdweb-dev/contracts/eip/queryable/ERC721AQueryable.sol\":2557:2602   */\n    tag_467:\n        /* \"@thirdweb-dev/contracts/eip/queryable/ERC721AQueryable.sol\":2616:2635   */\n      0x00\n        /* \"@thirdweb-dev/contracts/eip/queryable/ERC721AQueryable.sol\":2669:2682   */\n      dup1\n      sload\n        /* \"@thirdweb-dev/contracts/eip/queryable/ERC721AQueryable.sol\":2917:2926   */\n      dup1\n        /* \"@thirdweb-dev/contracts/eip/queryable/ERC721AQueryable.sol\":2910:2914   */\n      dup5\n        /* \"@thirdweb-dev/contracts/eip/queryable/ERC721AQueryable.sol\":2910:2926   */\n      gt\n        /* \"@thirdweb-dev/contracts/eip/queryable/ERC721AQueryable.sol\":2906:2977   */\n      iszero\n      tag_471\n      jumpi\n        /* \"@thirdweb-dev/contracts/eip/queryable/ERC721AQueryable.sol\":2953:2962   */\n      dup1\n        /* \"@thirdweb-dev/contracts/eip/queryable/ERC721AQueryable.sol\":2946:2962   */\n      swap4\n      pop\n        /* \"@thirdweb-dev/contracts/eip/queryable/ERC721AQueryable.sol\":2906:2977   */\n    tag_471:\n        /* \"@thirdweb-dev/contracts/eip/queryable/ERC721AQueryable.sol\":2990:3015   */\n      0x00\n        /* \"@thirdweb-dev/contracts/eip/queryable/ERC721AQueryable.sol\":3018:3034   */\n      tag_472\n        /* \"@thirdweb-dev/contracts/eip/queryable/ERC721AQueryable.sol\":3028:3033   */\n      dup8\n        /* \"@thirdweb-dev/contracts/eip/queryable/ERC721AQueryable.sol\":3018:3027   */\n      tag_184\n        /* \"@thirdweb-dev/contracts/eip/queryable/ERC721AQueryable.sol\":3018:3034   */\n      jump\t// in\n    tag_472:\n        /* \"@thirdweb-dev/contracts/eip/queryable/ERC721AQueryable.sol\":2990:3034   */\n      swap1\n      pop\n        /* \"@thirdweb-dev/contracts/eip/queryable/ERC721AQueryable.sol\":3209:3213   */\n      dup5\n        /* \"@thirdweb-dev/contracts/eip/queryable/ERC721AQueryable.sol\":3201:3206   */\n      dup7\n        /* \"@thirdweb-dev/contracts/eip/queryable/ERC721AQueryable.sol\":3201:3213   */\n      lt\n        /* \"@thirdweb-dev/contracts/eip/queryable/ERC721AQueryable.sol\":3197:3468   */\n      iszero\n      tag_473\n      jumpi\n        /* \"@thirdweb-dev/contracts/eip/queryable/ERC721AQueryable.sol\":3255:3267   */\n      dup6\n      dup6\n      sub\n        /* \"@thirdweb-dev/contracts/eip/queryable/ERC721AQueryable.sol\":3289:3320   */\n      dup2\n      dup2\n      lt\n        /* \"@thirdweb-dev/contracts/eip/queryable/ERC721AQueryable.sol\":3285:3394   */\n      iszero\n      tag_474\n      jumpi\n        /* \"@thirdweb-dev/contracts/eip/queryable/ERC721AQueryable.sol\":3364:3375   */\n      dup1\n        /* \"@thirdweb-dev/contracts/eip/queryable/ERC721AQueryable.sol\":3344:3375   */\n      swap2\n      pop\n        /* \"@thirdweb-dev/contracts/eip/queryable/ERC721AQueryable.sol\":3285:3394   */\n    tag_474:\n        /* \"@thirdweb-dev/contracts/eip/queryable/ERC721AQueryable.sol\":3215:3408   */\n      pop\n        /* \"@thirdweb-dev/contracts/eip/queryable/ERC721AQueryable.sol\":3197:3468   */\n      jump(tag_475)\n    tag_473:\n      pop\n        /* \"@thirdweb-dev/contracts/eip/queryable/ERC721AQueryable.sol\":3452:3453   */\n      0x00\n        /* \"@thirdweb-dev/contracts/eip/queryable/ERC721AQueryable.sol\":3197:3468   */\n    tag_475:\n        /* \"@thirdweb-dev/contracts/eip/queryable/ERC721AQueryable.sol\":3481:3506   */\n      0x00\n        /* \"@thirdweb-dev/contracts/eip/queryable/ERC721AQueryable.sol\":3523:3540   */\n      dup2\n        /* \"@thirdweb-dev/contracts/eip/queryable/ERC721AQueryable.sol\":3509:3541   */\n      0xffffffffffffffff\n      dup2\n      gt\n      iszero\n      tag_477\n      jumpi\n      tag_477\n      tag_375\n      jump\t// in\n    tag_477:\n      mload(0x40)\n      swap1\n      dup1\n      dup3\n      mstore\n      dup1\n      0x20\n      mul\n      0x20\n      add\n      dup3\n      add\n      0x40\n      mstore\n      dup1\n      iszero\n      tag_478\n      jumpi\n      dup2\n      0x20\n      add\n      0x20\n      dup3\n      mul\n      dup1\n      calldatasize\n      dup4\n      calldatacopy\n      add\n      swap1\n      pop\n    tag_478:\n      pop\n        /* \"@thirdweb-dev/contracts/eip/queryable/ERC721AQueryable.sol\":3481:3541   */\n      swap1\n      pop\n        /* \"@thirdweb-dev/contracts/eip/queryable/ERC721AQueryable.sol\":3559:3576   */\n      dup2\n        /* \"@thirdweb-dev/contracts/eip/queryable/ERC721AQueryable.sol\":3580:3581   */\n      0x00\n        /* \"@thirdweb-dev/contracts/eip/queryable/ERC721AQueryable.sol\":3559:3581   */\n      sub\n        /* \"@thirdweb-dev/contracts/eip/queryable/ERC721AQueryable.sol\":3555:3631   */\n      tag_479\n      jumpi\n        /* \"@thirdweb-dev/contracts/eip/queryable/ERC721AQueryable.sol\":3608:3616   */\n      swap4\n      pop\n        /* \"@thirdweb-dev/contracts/eip/queryable/ERC721AQueryable.sol\":3601:3616   */\n      tag_466\n      swap3\n      pop\n      pop\n      pop\n      jump\n        /* \"@thirdweb-dev/contracts/eip/queryable/ERC721AQueryable.sol\":3555:3631   */\n    tag_479:\n        /* \"@thirdweb-dev/contracts/eip/queryable/ERC721AQueryable.sol\":3772:3803   */\n      0x00\n        /* \"@thirdweb-dev/contracts/eip/queryable/ERC721AQueryable.sol\":3806:3832   */\n      tag_480\n        /* \"@thirdweb-dev/contracts/eip/queryable/ERC721AQueryable.sol\":3826:3831   */\n      dup9\n        /* \"@thirdweb-dev/contracts/eip/queryable/ERC721AQueryable.sol\":3806:3825   */\n      tag_258\n        /* \"@thirdweb-dev/contracts/eip/queryable/ERC721AQueryable.sol\":3806:3832   */\n      jump\t// in\n    tag_480:\n        /* \"@thirdweb-dev/contracts/eip/queryable/ERC721AQueryable.sol\":3772:3832   */\n      swap1\n      pop\n        /* \"@thirdweb-dev/contracts/eip/queryable/ERC721AQueryable.sol\":3846:3871   */\n      0x00\n        /* \"@thirdweb-dev/contracts/eip/queryable/ERC721AQueryable.sol\":4088:4097   */\n      dup2\n        /* \"@thirdweb-dev/contracts/eip/queryable/ERC721AQueryable.sol\":4088:4104   */\n      0x40\n      add\n      mload\n        /* \"@thirdweb-dev/contracts/eip/queryable/ERC721AQueryable.sol\":4083:4173   */\n      tag_481\n      jumpi\n      pop\n        /* \"@thirdweb-dev/contracts/eip/queryable/ERC721AQueryable.sol\":4144:4158   */\n      dup1\n      mload\n        /* \"@thirdweb-dev/contracts/eip/queryable/ERC721AQueryable.sol\":4083:4173   */\n    tag_481:\n        /* \"@thirdweb-dev/contracts/eip/queryable/ERC721AQueryable.sol\":4203:4208   */\n      dup9\n        /* \"@thirdweb-dev/contracts/eip/queryable/ERC721AQueryable.sol\":4186:4652   */\n    tag_482:\n        /* \"@thirdweb-dev/contracts/eip/queryable/ERC721AQueryable.sol\":4215:4219   */\n      dup9\n        /* \"@thirdweb-dev/contracts/eip/queryable/ERC721AQueryable.sol\":4210:4211   */\n      dup2\n        /* \"@thirdweb-dev/contracts/eip/queryable/ERC721AQueryable.sol\":4210:4219   */\n      eq\n      iszero\n        /* \"@thirdweb-dev/contracts/eip/queryable/ERC721AQueryable.sol\":4210:4255   */\n      dup1\n      iszero\n      tag_485\n      jumpi\n      pop\n        /* \"@thirdweb-dev/contracts/eip/queryable/ERC721AQueryable.sol\":4238:4255   */\n      dup5\n        /* \"@thirdweb-dev/contracts/eip/queryable/ERC721AQueryable.sol\":4223:4234   */\n      dup8\n        /* \"@thirdweb-dev/contracts/eip/queryable/ERC721AQueryable.sol\":4223:4255   */\n      eq\n      iszero\n        /* \"@thirdweb-dev/contracts/eip/queryable/ERC721AQueryable.sol\":4210:4255   */\n    tag_485:\n        /* \"@thirdweb-dev/contracts/eip/queryable/ERC721AQueryable.sol\":4186:4652   */\n      iszero\n      tag_483\n      jumpi\n        /* \"@thirdweb-dev/contracts/eip/queryable/ERC721AQueryable.sol\":4292:4306   */\n      0x00\n      dup2\n      dup2\n      mstore\n        /* \"@thirdweb-dev/contracts/eip/queryable/ERC721AQueryable.sol\":4292:4303   */\n      0x04\n        /* \"@thirdweb-dev/contracts/eip/queryable/ERC721AQueryable.sol\":4292:4306   */\n      0x20\n      swap1\n      dup2\n      mstore\n      0x40\n      swap2\n      dup3\n      swap1\n      keccak256\n        /* \"@thirdweb-dev/contracts/eip/queryable/ERC721AQueryable.sol\":4280:4306   */\n      dup3\n      mload\n      0x60\n      dup2\n      add\n      dup5\n      mstore\n      swap1\n      sload\n      sub(shl(0xa0, 0x01), 0x01)\n      dup2\n      and\n      dup3\n      mstore\n      shl(0xa0, 0x01)\n      dup2\n      div\n      0xffffffffffffffff\n      and\n      swap3\n      dup3\n      add\n      swap3\n      swap1\n      swap3\n      mstore\n      shl(0xe0, 0x01)\n      swap1\n      swap2\n      div\n      0xff\n      and\n      iszero\n      iszero\n      swap2\n      dup2\n      add\n      dup3\n      swap1\n      mstore\n      swap4\n      pop\n        /* \"@thirdweb-dev/contracts/eip/queryable/ERC721AQueryable.sol\":4368:4376   */\n      tag_488\n        /* \"@thirdweb-dev/contracts/eip/queryable/ERC721AQueryable.sol\":4324:4395   */\n      jumpi\n        /* \"@thirdweb-dev/contracts/eip/queryable/ERC721AQueryable.sol\":4416:4430   */\n      dup3\n      mload\n      sub(shl(0xa0, 0x01), 0x01)\n        /* \"@thirdweb-dev/contracts/eip/queryable/ERC721AQueryable.sol\":4416:4444   */\n      and\n      iszero\n        /* \"@thirdweb-dev/contracts/eip/queryable/ERC721AQueryable.sol\":4412:4521   */\n      tag_487\n      jumpi\n        /* \"@thirdweb-dev/contracts/eip/queryable/ERC721AQueryable.sol\":4488:4502   */\n      dup3\n      mload\n      swap2\n      pop\n        /* \"@thirdweb-dev/contracts/eip/queryable/ERC721AQueryable.sol\":4412:4521   */\n    tag_487:\n        /* \"@thirdweb-dev/contracts/eip/queryable/ERC721AQueryable.sol\":4563:4568   */\n      dup11\n      sub(shl(0xa0, 0x01), 0x01)\n        /* \"@thirdweb-dev/contracts/eip/queryable/ERC721AQueryable.sol\":4542:4568   */\n      and\n        /* \"@thirdweb-dev/contracts/eip/queryable/ERC721AQueryable.sol\":4542:4559   */\n      dup3\n      sub(shl(0xa0, 0x01), 0x01)\n        /* \"@thirdweb-dev/contracts/eip/queryable/ERC721AQueryable.sol\":4542:4568   */\n      and\n      sub\n        /* \"@thirdweb-dev/contracts/eip/queryable/ERC721AQueryable.sol\":4538:4638   */\n      tag_488\n      jumpi\n        /* \"@thirdweb-dev/contracts/eip/queryable/ERC721AQueryable.sol\":4618:4619   */\n      dup1\n        /* \"@thirdweb-dev/contracts/eip/queryable/ERC721AQueryable.sol\":4592:4600   */\n      dup5\n        /* \"@thirdweb-dev/contracts/eip/queryable/ERC721AQueryable.sol\":4601:4614   */\n      dup9\n      dup1\n      0x01\n      add\n      swap10\n      pop\n        /* \"@thirdweb-dev/contracts/eip/queryable/ERC721AQueryable.sol\":4592:4615   */\n      dup2\n      mload\n      dup2\n      lt\n      tag_490\n      jumpi\n      tag_490\n      tag_340\n      jump\t// in\n    tag_490:\n      0x20\n      mul\n      0x20\n      add\n      add\n        /* \"@thirdweb-dev/contracts/eip/queryable/ERC721AQueryable.sol\":4592:4619   */\n      dup2\n      dup2\n      mstore\n      pop\n      pop\n        /* \"@thirdweb-dev/contracts/eip/queryable/ERC721AQueryable.sol\":4538:4638   */\n    tag_488:\n        /* \"@thirdweb-dev/contracts/eip/queryable/ERC721AQueryable.sol\":4257:4260   */\n      0x01\n      add\n        /* \"@thirdweb-dev/contracts/eip/queryable/ERC721AQueryable.sol\":4186:4652   */\n      jump(tag_482)\n    tag_483:\n      pop\n      pop\n      pop\n        /* \"@thirdweb-dev/contracts/eip/queryable/ERC721AQueryable.sol\":4734:4763   */\n      swap3\n      dup4\n      mstore\n      pop\n        /* \"@thirdweb-dev/contracts/eip/queryable/ERC721AQueryable.sol\":4741:4749   */\n      swap1\n      swap2\n      pop\n      pop\n        /* \"@thirdweb-dev/contracts/eip/queryable/ERC721AQueryable.sol\":2374:4822   */\n    tag_466:\n      swap4\n      swap3\n      pop\n      pop\n      pop\n      jump\t// out\n        /* \"@thirdweb-dev/contracts/extension/Royalty.sol\":4595:4857   */\n    tag_229:\n        /* \"@thirdweb-dev/contracts/extension/Royalty.sol\":4712:4732   */\n      tag_492\n        /* \"@thirdweb-dev/contracts/extension/Royalty.sol\":4712:4730   */\n      tag_282\n        /* \"@thirdweb-dev/contracts/extension/Royalty.sol\":4712:4732   */\n      jump\t// in\n    tag_492:\n        /* \"@thirdweb-dev/contracts/extension/Royalty.sol\":4707:4787   */\n      tag_493\n      jumpi\n        /* \"@thirdweb-dev/contracts/extension/Royalty.sol\":4755:4776   */\n      mload(0x40)\n      shl(0xe1, 0x6fae3581)\n      dup2\n      mstore\n      0x04\n      add\n      mload(0x40)\n      dup1\n      swap2\n      sub\n      swap1\n      revert\n        /* \"@thirdweb-dev/contracts/extension/Royalty.sol\":4707:4787   */\n    tag_493:\n        /* \"@thirdweb-dev/contracts/extension/Royalty.sol\":4797:4850   */\n      tag_320\n        /* \"@thirdweb-dev/contracts/extension/Royalty.sol\":4823:4831   */\n      dup4\n        /* \"@thirdweb-dev/contracts/extension/Royalty.sol\":4833:4843   */\n      dup4\n        /* \"@thirdweb-dev/contracts/extension/Royalty.sol\":4845:4849   */\n      dup4\n        /* \"@thirdweb-dev/contracts/extension/Royalty.sol\":4797:4822   */\n      tag_495\n        /* \"@thirdweb-dev/contracts/extension/Royalty.sol\":4797:4850   */\n      jump\t// in\n        /* \"@thirdweb-dev/contracts/eip/ERC721AVirtualApprove.sol\":7882:8164   */\n    tag_234:\n        /* \"@thirdweb-dev/contracts/base/ERC721Base.sol\":8521:8531   */\n      caller\n      sub(shl(0xa0, 0x01), 0x01)\n        /* \"@thirdweb-dev/contracts/eip/ERC721AVirtualApprove.sol\":7980:8004   */\n      dup4\n      and\n      sub\n        /* \"@thirdweb-dev/contracts/eip/ERC721AVirtualApprove.sol\":7976:8030   */\n      tag_498\n      jumpi\n        /* \"@thirdweb-dev/contracts/eip/ERC721AVirtualApprove.sol\":8013:8030   */\n      mload(0x40)\n      shl(0xe0, 0xb06307db)\n      dup2\n      mstore\n      0x04\n      add\n      mload(0x40)\n      dup1\n      swap2\n      sub\n      swap1\n      revert\n        /* \"@thirdweb-dev/contracts/eip/ERC721AVirtualApprove.sol\":7976:8030   */\n    tag_498:\n        /* \"@thirdweb-dev/contracts/base/ERC721Base.sol\":8521:8531   */\n      caller\n        /* \"@thirdweb-dev/contracts/eip/ERC721AVirtualApprove.sol\":8041:8073   */\n      0x00\n      dup2\n      dup2\n      mstore\n        /* \"@thirdweb-dev/contracts/eip/ERC721AVirtualApprove.sol\":8041:8059   */\n      0x07\n        /* \"@thirdweb-dev/contracts/eip/ERC721AVirtualApprove.sol\":8041:8073   */\n      0x20\n      swap1\n      dup2\n      mstore\n      0x40\n      dup1\n      dup4\n      keccak256\n      sub(shl(0xa0, 0x01), 0x01)\n        /* \"@thirdweb-dev/contracts/eip/ERC721AVirtualApprove.sol\":8041:8083   */\n      dup8\n      and\n      dup1\n      dup6\n      mstore\n      swap1\n      dup4\n      mstore\n      swap3\n      dup2\n      swap1\n      keccak256\n        /* \"@thirdweb-dev/contracts/eip/ERC721AVirtualApprove.sol\":8041:8094   */\n      dup1\n      sload\n      not(0xff)\n      and\n      dup7\n      iszero\n      iszero\n      swap1\n      dup2\n      or\n      swap1\n      swap2\n      sstore\n        /* \"@thirdweb-dev/contracts/eip/ERC721AVirtualApprove.sol\":8109:8157   */\n      swap1\n      mload\n        /* \"#utility.yul\":2816:2857   */\n      swap1\n      dup2\n      mstore\n        /* \"@thirdweb-dev/contracts/eip/ERC721AVirtualApprove.sol\":8041:8083   */\n      swap2\n      swap3\n        /* \"@thirdweb-dev/contracts/base/ERC721Base.sol\":8521:8531   */\n      swap2\n        /* \"@thirdweb-dev/contracts/eip/ERC721AVirtualApprove.sol\":8109:8157   */\n      0x17307eab39ab6107e8899845ad3d59bd9653f200f220920489ca2b5937696c31\n      swap2\n        /* \"#utility.yul\":2789:2807   */\n      add\n        /* \"@thirdweb-dev/contracts/eip/ERC721AVirtualApprove.sol\":8109:8157   */\n      mload(0x40)\n      dup1\n      swap2\n      sub\n      swap1\n      log3\n        /* \"@thirdweb-dev/contracts/eip/ERC721AVirtualApprove.sol\":7882:8164   */\n      pop\n      pop\n      jump\t// out\n        /* \"@thirdweb-dev/contracts/extension/Multicall.sol\":696:1263   */\n    tag_239:\n        /* \"@thirdweb-dev/contracts/extension/Multicall.sol\":756:778   */\n      0x60\n        /* \"@thirdweb-dev/contracts/extension/Multicall.sol\":812:816   */\n      dup2\n        /* \"@thirdweb-dev/contracts/extension/Multicall.sol\":800:824   */\n      0xffffffffffffffff\n      dup2\n      gt\n      iszero\n      tag_504\n      jumpi\n      tag_504\n      tag_375\n      jump\t// in\n    tag_504:\n      mload(0x40)\n      swap1\n      dup1\n      dup3\n      mstore\n      dup1\n      0x20\n      mul\n      0x20\n      add\n      dup3\n      add\n      0x40\n      mstore\n      dup1\n      iszero\n      tag_505\n      jumpi\n      dup2\n      0x20\n      add\n    tag_506:\n      0x60\n      dup2\n      mstore\n      0x20\n      add\n      swap1\n      0x01\n      swap1\n      sub\n      swap1\n      dup2\n      tag_506\n      jumpi\n      swap1\n      pop\n    tag_505:\n      pop\n        /* \"@thirdweb-dev/contracts/extension/Multicall.sol\":790:824   */\n      swap1\n      pop\n        /* \"@thirdweb-dev/contracts/base/ERC721Base.sol\":8521:8531   */\n      caller\n        /* \"@thirdweb-dev/contracts/extension/Multicall.sol\":834:848   */\n      0x00\n      dup1\n        /* \"@thirdweb-dev/contracts/extension/Multicall.sol\":922:1233   */\n    tag_508:\n        /* \"@thirdweb-dev/contracts/extension/Multicall.sol\":942:957   */\n      dup5\n      dup2\n      lt\n        /* \"@thirdweb-dev/contracts/extension/Multicall.sol\":922:1233   */\n      iszero\n      tag_509\n      jumpi\n        /* \"@thirdweb-dev/contracts/extension/Multicall.sol\":982:993   */\n      dup2\n        /* \"@thirdweb-dev/contracts/extension/Multicall.sol\":978:1223   */\n      iszero\n      tag_511\n      jumpi\n        /* \"@thirdweb-dev/contracts/extension/Multicall.sol\":1026:1104   */\n      tag_512\n        /* \"@thirdweb-dev/contracts/extension/Multicall.sol\":1063:1067   */\n      address\n        /* \"@thirdweb-dev/contracts/extension/Multicall.sol\":1087:1091   */\n      dup8\n      dup8\n        /* \"@thirdweb-dev/contracts/extension/Multicall.sol\":1092:1093   */\n      dup5\n        /* \"@thirdweb-dev/contracts/extension/Multicall.sol\":1087:1094   */\n      dup2\n      dup2\n      lt\n      tag_514\n      jumpi\n      tag_514\n      tag_340\n      jump\t// in\n    tag_514:\n      swap1\n      pop\n      0x20\n      mul\n      dup2\n      add\n      swap1\n      tag_515\n      swap2\n      swap1\n      tag_516\n      jump\t// in\n    tag_515:\n        /* \"@thirdweb-dev/contracts/extension/Multicall.sol\":1096:1102   */\n      dup7\n        /* \"@thirdweb-dev/contracts/extension/Multicall.sol\":1070:1103   */\n      add(0x20, mload(0x40))\n      tag_517\n      swap4\n      swap3\n      swap2\n      swap1\n      tag_518\n      jump\t// in\n    tag_517:\n      mload(0x40)\n      0x20\n      dup2\n      dup4\n      sub\n      sub\n      dup2\n      mstore\n      swap1\n      0x40\n      mstore\n        /* \"@thirdweb-dev/contracts/extension/Multicall.sol\":1026:1054   */\n      tag_519\n        /* \"@thirdweb-dev/contracts/extension/Multicall.sol\":1026:1104   */\n      jump\t// in\n    tag_512:\n        /* \"@thirdweb-dev/contracts/extension/Multicall.sol\":1013:1020   */\n      dup5\n        /* \"@thirdweb-dev/contracts/extension/Multicall.sol\":1021:1022   */\n      dup3\n        /* \"@thirdweb-dev/contracts/extension/Multicall.sol\":1013:1023   */\n      dup2\n      mload\n      dup2\n      lt\n      tag_521\n      jumpi\n      tag_521\n      tag_340\n      jump\t// in\n    tag_521:\n      0x20\n      mul\n      0x20\n      add\n      add\n        /* \"@thirdweb-dev/contracts/extension/Multicall.sol\":1013:1104   */\n      dup2\n      swap1\n      mstore\n      pop\n        /* \"@thirdweb-dev/contracts/extension/Multicall.sol\":978:1223   */\n      jump(tag_522)\n    tag_511:\n        /* \"@thirdweb-dev/contracts/extension/Multicall.sol\":1156:1208   */\n      tag_523\n        /* \"@thirdweb-dev/contracts/extension/Multicall.sol\":1193:1197   */\n      address\n        /* \"@thirdweb-dev/contracts/extension/Multicall.sol\":1200:1204   */\n      dup8\n      dup8\n        /* \"@thirdweb-dev/contracts/extension/Multicall.sol\":1205:1206   */\n      dup5\n        /* \"@thirdweb-dev/contracts/extension/Multicall.sol\":1200:1207   */\n      dup2\n      dup2\n      lt\n      tag_525\n      jumpi\n      tag_525\n      tag_340\n      jump\t// in\n    tag_525:\n      swap1\n      pop\n      0x20\n      mul\n      dup2\n      add\n      swap1\n      tag_526\n      swap2\n      swap1\n      tag_516\n      jump\t// in\n    tag_526:\n        /* \"@thirdweb-dev/contracts/extension/Multicall.sol\":1156:1208   */\n      dup1\n      dup1\n      0x1f\n      add\n      0x20\n      dup1\n      swap2\n      div\n      mul\n      0x20\n      add\n      mload(0x40)\n      swap1\n      dup2\n      add\n      0x40\n      mstore\n      dup1\n      swap4\n      swap3\n      swap2\n      swap1\n      dup2\n      dup2\n      mstore\n      0x20\n      add\n      dup4\n      dup4\n      dup1\n      dup3\n      dup5\n      calldatacopy\n      0x00\n      swap3\n      add\n      swap2\n      swap1\n      swap2\n      mstore\n      pop\n        /* \"@thirdweb-dev/contracts/extension/Multicall.sol\":1156:1184   */\n      tag_519\n      swap3\n      pop\n      pop\n      pop\n        /* \"@thirdweb-dev/contracts/extension/Multicall.sol\":1156:1208   */\n      jump\t// in\n    tag_523:\n        /* \"@thirdweb-dev/contracts/extension/Multicall.sol\":1143:1150   */\n      dup5\n        /* \"@thirdweb-dev/contracts/extension/Multicall.sol\":1151:1152   */\n      dup3\n        /* \"@thirdweb-dev/contracts/extension/Multicall.sol\":1143:1153   */\n      dup2\n      mload\n      dup2\n      lt\n      tag_528\n      jumpi\n      tag_528\n      tag_340\n      jump\t// in\n    tag_528:\n      0x20\n      mul\n      0x20\n      add\n      add\n        /* \"@thirdweb-dev/contracts/extension/Multicall.sol\":1143:1208   */\n      dup2\n      swap1\n      mstore\n      pop\n        /* \"@thirdweb-dev/contracts/extension/Multicall.sol\":978:1223   */\n    tag_522:\n        /* \"@thirdweb-dev/contracts/extension/Multicall.sol\":959:962   */\n      0x01\n      add\n        /* \"@thirdweb-dev/contracts/extension/Multicall.sol\":922:1233   */\n      jump(tag_508)\n    tag_509:\n      pop\n        /* \"@thirdweb-dev/contracts/extension/Multicall.sol\":1242:1256   */\n      pop\n      pop\n        /* \"@thirdweb-dev/contracts/extension/Multicall.sol\":696:1263   */\n      swap3\n      swap2\n      pop\n      pop\n      jump\t// out\n        /* \"@thirdweb-dev/contracts/eip/ERC721AVirtualApprove.sol\":8869:9212   */\n    tag_250:\n        /* \"@thirdweb-dev/contracts/eip/ERC721AVirtualApprove.sol\":8992:9020   */\n      tag_531\n        /* \"@thirdweb-dev/contracts/eip/ERC721AVirtualApprove.sol\":9002:9006   */\n      dup5\n        /* \"@thirdweb-dev/contracts/eip/ERC721AVirtualApprove.sol\":9008:9010   */\n      dup5\n        /* \"@thirdweb-dev/contracts/eip/ERC721AVirtualApprove.sol\":9012:9019   */\n      dup5\n        /* \"@thirdweb-dev/contracts/eip/ERC721AVirtualApprove.sol\":8992:9001   */\n      tag_333\n        /* \"@thirdweb-dev/contracts/eip/ERC721AVirtualApprove.sol\":8992:9020   */\n      jump\t// in\n    tag_531:\n      sub(shl(0xa0, 0x01), 0x01)\n        /* \"@thirdweb-dev/contracts/eip/ERC721AVirtualApprove.sol\":9034:9047   */\n      dup4\n      and\n        /* \"@thirdweb-dev/contracts/lib/Address.sol\":1695:1714   */\n      extcodesize\n        /* \"@thirdweb-dev/contracts/lib/Address.sol\":1695:1718   */\n      iszero\n        /* \"@thirdweb-dev/contracts/eip/ERC721AVirtualApprove.sol\":9030:9206   */\n      tag_407\n      jumpi\n        /* \"@thirdweb-dev/contracts/eip/ERC721AVirtualApprove.sol\":9068:9124   */\n      tag_535\n        /* \"@thirdweb-dev/contracts/eip/ERC721AVirtualApprove.sol\":9099:9103   */\n      dup5\n        /* \"@thirdweb-dev/contracts/eip/ERC721AVirtualApprove.sol\":9105:9107   */\n      dup5\n        /* \"@thirdweb-dev/contracts/eip/ERC721AVirtualApprove.sol\":9109:9116   */\n      dup5\n        /* \"@thirdweb-dev/contracts/eip/ERC721AVirtualApprove.sol\":9118:9123   */\n      dup5\n        /* \"@thirdweb-dev/contracts/eip/ERC721AVirtualApprove.sol\":9068:9098   */\n      tag_536\n        /* \"@thirdweb-dev/contracts/eip/ERC721AVirtualApprove.sol\":9068:9124   */\n      jump\t// in\n    tag_535:\n        /* \"@thirdweb-dev/contracts/eip/ERC721AVirtualApprove.sol\":9063:9206   */\n      tag_407\n      jumpi\n        /* \"@thirdweb-dev/contracts/eip/ERC721AVirtualApprove.sol\":9151:9191   */\n      mload(0x40)\n      shl(0xe1, 0x68d2bf6b)\n      dup2\n      mstore\n      0x04\n      add\n      mload(0x40)\n      dup1\n      swap2\n      sub\n      swap1\n      revert\n        /* \"DontKilltheJamNFTMojoClaimRedeax.sol\":578:1091  function mintTo(... */\n    tag_254:\n        /* \"DontKilltheJamNFTMojoClaimRedeax.sol\":763:770  mintFee */\n      sload(0x10)\n        /* \"DontKilltheJamNFTMojoClaimRedeax.sol\":750:759  msg.value */\n      callvalue\n        /* \"DontKilltheJamNFTMojoClaimRedeax.sol\":750:770  msg.value >= mintFee */\n      lt\n      iszero\n        /* \"DontKilltheJamNFTMojoClaimRedeax.sol\":742:796  require(msg.value >= mintFee, \"Insufficient mint fee\") */\n      tag_539\n      jumpi\n      mload(0x40)\n      shl(0xe5, 0x461bcd)\n      dup2\n      mstore\n        /* \"#utility.yul\":17625:17627   */\n      0x20\n        /* \"DontKilltheJamNFTMojoClaimRedeax.sol\":742:796  require(msg.value >= mintFee, \"Insufficient mint fee\") */\n      0x04\n      dup3\n      add\n        /* \"#utility.yul\":17607:17628   */\n      mstore\n        /* \"#utility.yul\":17664:17666   */\n      0x15\n        /* \"#utility.yul\":17644:17662   */\n      0x24\n      dup3\n      add\n        /* \"#utility.yul\":17637:17667   */\n      mstore\n        /* \"#utility.yul\":17703:17726   */\n      0x496e73756666696369656e74206d696e74206665650000000000000000000000\n        /* \"#utility.yul\":17683:17701   */\n      0x44\n      dup3\n      add\n        /* \"#utility.yul\":17676:17727   */\n      mstore\n        /* \"#utility.yul\":17744:17762   */\n      0x64\n      add\n        /* \"DontKilltheJamNFTMojoClaimRedeax.sol\":742:796  require(msg.value >= mintFee, \"Insufficient mint fee\") */\n      tag_284\n        /* \"#utility.yul\":17423:17768   */\n      jump\n        /* \"DontKilltheJamNFTMojoClaimRedeax.sol\":742:796  require(msg.value >= mintFee, \"Insufficient mint fee\") */\n    tag_539:\n        /* \"DontKilltheJamNFTMojoClaimRedeax.sol\":183:188  10000 */\n      0x2710\n        /* \"DontKilltheJamNFTMojoClaimRedeax.sol\":814:827  totalSupply() */\n      tag_541\n        /* \"@thirdweb-dev/contracts/eip/ERC721AVirtualApprove.sol\":2541:2553   */\n      sload(0x01)\n        /* \"@thirdweb-dev/contracts/eip/ERC721AVirtualApprove.sol\":2335:2342   */\n      0x00\n        /* \"@thirdweb-dev/contracts/eip/ERC721AVirtualApprove.sol\":2525:2538   */\n      sload\n        /* \"@thirdweb-dev/contracts/eip/ERC721AVirtualApprove.sol\":2525:2553   */\n      sub\n      swap1\n        /* \"@thirdweb-dev/contracts/eip/ERC721AVirtualApprove.sol\":2282:2588   */\n      jump\n        /* \"DontKilltheJamNFTMojoClaimRedeax.sol\":814:827  totalSupply() */\n    tag_541:\n        /* \"DontKilltheJamNFTMojoClaimRedeax.sol\":814:840  totalSupply() < MAX_SUPPLY */\n      lt\n        /* \"DontKilltheJamNFTMojoClaimRedeax.sol\":806:863  require(totalSupply() < MAX_SUPPLY, \"Max supply reached\") */\n      tag_542\n      jumpi\n      mload(0x40)\n      shl(0xe5, 0x461bcd)\n      dup2\n      mstore\n        /* \"#utility.yul\":21036:21038   */\n      0x20\n        /* \"DontKilltheJamNFTMojoClaimRedeax.sol\":806:863  require(totalSupply() < MAX_SUPPLY, \"Max supply reached\") */\n      0x04\n      dup3\n      add\n        /* \"#utility.yul\":21018:21039   */\n      mstore\n        /* \"#utility.yul\":21075:21077   */\n      0x12\n        /* \"#utility.yul\":21055:21073   */\n      0x24\n      dup3\n      add\n        /* \"#utility.yul\":21048:21078   */\n      mstore\n        /* \"#utility.yul\":21114:21134   */\n      0x4d617820737570706c7920726561636865640000000000000000000000000000\n        /* \"#utility.yul\":21094:21112   */\n      0x44\n      dup3\n      add\n        /* \"#utility.yul\":21087:21135   */\n      mstore\n        /* \"#utility.yul\":21152:21170   */\n      0x64\n      add\n        /* \"DontKilltheJamNFTMojoClaimRedeax.sol\":806:863  require(totalSupply() < MAX_SUPPLY, \"Max supply reached\") */\n      tag_284\n        /* \"#utility.yul\":20834:21176   */\n      jump\n        /* \"DontKilltheJamNFTMojoClaimRedeax.sol\":806:863  require(totalSupply() < MAX_SUPPLY, \"Max supply reached\") */\n    tag_542:\n        /* \"DontKilltheJamNFTMojoClaimRedeax.sol\":882:897  uint256 tokenId */\n      0x00\n        /* \"@thirdweb-dev/contracts/base/ERC721Base.sol\":6219:6232   */\n      sload\n        /* \"DontKilltheJamNFTMojoClaimRedeax.sol\":929:951  _safeMint(to, tokenId) */\n      tag_546\n        /* \"DontKilltheJamNFTMojoClaimRedeax.sol\":939:941  to */\n      dup6\n        /* \"@thirdweb-dev/contracts/base/ERC721Base.sol\":6219:6232   */\n      dup3\n        /* \"DontKilltheJamNFTMojoClaimRedeax.sol\":929:938  _safeMint */\n      tag_444\n        /* \"DontKilltheJamNFTMojoClaimRedeax.sol\":929:951  _safeMint(to, tokenId) */\n      jump\t// in\n    tag_546:\n        /* \"DontKilltheJamNFTMojoClaimRedeax.sol\":961:993  _setTokenURI(tokenId, _tokenURI) */\n      tag_547\n        /* \"DontKilltheJamNFTMojoClaimRedeax.sol\":974:981  tokenId */\n      dup2\n        /* \"DontKilltheJamNFTMojoClaimRedeax.sol\":983:992  _tokenURI */\n      dup6\n        /* \"DontKilltheJamNFTMojoClaimRedeax.sol\":961:973  _setTokenURI */\n      tag_288\n        /* \"DontKilltheJamNFTMojoClaimRedeax.sol\":961:993  _setTokenURI(tokenId, _tokenURI) */\n      jump\t// in\n    tag_547:\n        /* \"DontKilltheJamNFTMojoClaimRedeax.sol\":1012:1030  mojoScore[tokenId] */\n      0x00\n      dup2\n      dup2\n      mstore\n        /* \"DontKilltheJamNFTMojoClaimRedeax.sol\":1012:1021  mojoScore */\n      0x11\n        /* \"DontKilltheJamNFTMojoClaimRedeax.sol\":1012:1030  mojoScore[tokenId] */\n      0x20\n      swap1\n      dup2\n      mstore\n      0x40\n      dup1\n      dup4\n      keccak256\n        /* \"DontKilltheJamNFTMojoClaimRedeax.sol\":1012:1043  mojoScore[tokenId] = _mojoScore */\n      dup7\n      swap1\n      sstore\n        /* \"DontKilltheJamNFTMojoClaimRedeax.sol\":1053:1062  narrative */\n      0x12\n        /* \"DontKilltheJamNFTMojoClaimRedeax.sol\":1053:1071  narrative[tokenId] */\n      swap1\n      swap2\n      mstore\n      swap1\n      keccak256\n        /* \"DontKilltheJamNFTMojoClaimRedeax.sol\":1053:1084  narrative[tokenId] = _narrative */\n      tag_548\n        /* \"DontKilltheJamNFTMojoClaimRedeax.sol\":1074:1084  _narrative */\n      dup4\n        /* \"DontKilltheJamNFTMojoClaimRedeax.sol\":1053:1071  narrative[tokenId] */\n      dup3\n        /* \"DontKilltheJamNFTMojoClaimRedeax.sol\":1053:1084  narrative[tokenId] = _narrative */\n      tag_453\n      jump\t// in\n    tag_548:\n      pop\n        /* \"DontKilltheJamNFTMojoClaimRedeax.sol\":732:1091  {... */\n      pop\n        /* \"DontKilltheJamNFTMojoClaimRedeax.sol\":578:1091  function mintTo(... */\n      pop\n      pop\n      pop\n      pop\n      jump\t// out\n        /* \"@thirdweb-dev/contracts/eip/queryable/ERC721AQueryable.sol\":953:1361   */\n    tag_258:\n      0x40\n      dup1\n      mload\n      0x60\n      dup1\n      dup3\n      add\n      dup4\n      mstore\n      0x00\n      dup1\n      dup4\n      mstore\n      0x20\n      dup1\n      dup5\n      add\n      dup3\n      swap1\n      mstore\n      dup4\n      dup6\n      add\n      dup3\n      swap1\n      mstore\n      dup5\n      mload\n      swap3\n      dup4\n      add\n      dup6\n      mstore\n      dup2\n      dup4\n      mstore\n      dup3\n      add\n      dup2\n      swap1\n      mstore\n      swap3\n      dup2\n      add\n      dup4\n      swap1\n      mstore\n      swap1\n      swap2\n        /* \"@thirdweb-dev/contracts/eip/queryable/ERC721AQueryable.sol\":1107:1160   */\n      pop\n        /* \"@thirdweb-dev/contracts/eip/queryable/ERC721AQueryable.sol\":1147:1160   */\n      sload(0x00)\n        /* \"@thirdweb-dev/contracts/eip/queryable/ERC721AQueryable.sol\":1136:1143   */\n      dup4\n        /* \"@thirdweb-dev/contracts/eip/queryable/ERC721AQueryable.sol\":1136:1160   */\n      lt\n        /* \"@thirdweb-dev/contracts/eip/queryable/ERC721AQueryable.sol\":1103:1203   */\n      tag_554\n      jumpi\n        /* \"@thirdweb-dev/contracts/eip/queryable/ERC721AQueryable.sol\":1183:1192   */\n      swap3\n        /* \"@thirdweb-dev/contracts/eip/queryable/ERC721AQueryable.sol\":953:1361   */\n      swap2\n      pop\n      pop\n      jump\t// out\n        /* \"@thirdweb-dev/contracts/eip/queryable/ERC721AQueryable.sol\":1103:1203   */\n    tag_554:\n      pop\n        /* \"@thirdweb-dev/contracts/eip/queryable/ERC721AQueryable.sol\":1224:1244   */\n      0x00\n      dup3\n      dup2\n      mstore\n        /* \"@thirdweb-dev/contracts/eip/queryable/ERC721AQueryable.sol\":1224:1235   */\n      0x04\n        /* \"@thirdweb-dev/contracts/eip/queryable/ERC721AQueryable.sol\":1224:1244   */\n      0x20\n      swap1\n      dup2\n      mstore\n      0x40\n      swap2\n      dup3\n      swap1\n      keccak256\n        /* \"@thirdweb-dev/contracts/eip/queryable/ERC721AQueryable.sol\":1212:1244   */\n      dup3\n      mload\n      0x60\n      dup2\n      add\n      dup5\n      mstore\n      swap1\n      sload\n      sub(shl(0xa0, 0x01), 0x01)\n      dup2\n      and\n      dup3\n      mstore\n      shl(0xa0, 0x01)\n      dup2\n      div\n      0xffffffffffffffff\n      and\n      swap3\n      dup3\n      add\n      swap3\n      swap1\n      swap3\n      mstore\n      shl(0xe0, 0x01)\n      swap1\n      swap2\n      div\n      0xff\n      and\n      iszero\n      dup1\n      iszero\n      swap3\n      dup3\n      add\n      swap3\n      swap1\n      swap3\n      mstore\n      swap1\n        /* \"@thirdweb-dev/contracts/eip/queryable/ERC721AQueryable.sol\":1254:1317   */\n      tag_555\n      jumpi\n        /* \"@thirdweb-dev/contracts/eip/queryable/ERC721AQueryable.sol\":1297:1306   */\n      swap3\n        /* \"@thirdweb-dev/contracts/eip/queryable/ERC721AQueryable.sol\":953:1361   */\n      swap2\n      pop\n      pop\n      jump\t// out\n        /* \"@thirdweb-dev/contracts/eip/queryable/ERC721AQueryable.sol\":1254:1317   */\n    tag_555:\n        /* \"@thirdweb-dev/contracts/eip/queryable/ERC721AQueryable.sol\":1333:1354   */\n      tag_466\n        /* \"@thirdweb-dev/contracts/eip/queryable/ERC721AQueryable.sol\":1346:1353   */\n      dup4\n        /* \"@thirdweb-dev/contracts/eip/queryable/ERC721AQueryable.sol\":1333:1345   */\n      tag_396\n        /* \"@thirdweb-dev/contracts/eip/queryable/ERC721AQueryable.sol\":1333:1354   */\n      jump\t// in\n        /* \"@thirdweb-dev/contracts/base/ERC721Base.sol\":3513:3918   */\n    tag_264:\n        /* \"@thirdweb-dev/contracts/base/ERC721Base.sol\":3638:3667   */\n      0x00\n        /* \"@thirdweb-dev/contracts/base/ERC721Base.sol\":3670:3687   */\n      dup2\n      dup2\n      mstore\n        /* \"@thirdweb-dev/contracts/base/ERC721Base.sol\":3670:3677   */\n      0x0f\n        /* \"@thirdweb-dev/contracts/base/ERC721Base.sol\":3670:3687   */\n      0x20\n      mstore\n      0x40\n      dup2\n      keccak256\n        /* \"@thirdweb-dev/contracts/base/ERC721Base.sol\":3638:3687   */\n      dup1\n      sload\n        /* \"@thirdweb-dev/contracts/base/ERC721Base.sol\":3613:3626   */\n      0x60\n      swap3\n        /* \"@thirdweb-dev/contracts/base/ERC721Base.sol\":3638:3667   */\n      swap2\n        /* \"@thirdweb-dev/contracts/base/ERC721Base.sol\":3670:3687   */\n      swap1\n        /* \"@thirdweb-dev/contracts/base/ERC721Base.sol\":3638:3687   */\n      tag_558\n      swap1\n      tag_292\n      jump\t// in\n    tag_558:\n      dup1\n      0x1f\n      add\n      0x20\n      dup1\n      swap2\n      div\n      mul\n      0x20\n      add\n      mload(0x40)\n      swap1\n      dup2\n      add\n      0x40\n      mstore\n      dup1\n      swap3\n      swap2\n      swap1\n      dup2\n      dup2\n      mstore\n      0x20\n      add\n      dup3\n      dup1\n      sload\n      tag_559\n      swap1\n      tag_292\n      jump\t// in\n    tag_559:\n      dup1\n      iszero\n      tag_560\n      jumpi\n      dup1\n      0x1f\n      lt\n      tag_561\n      jumpi\n      0x0100\n      dup1\n      dup4\n      sload\n      div\n      mul\n      dup4\n      mstore\n      swap2\n      0x20\n      add\n      swap2\n      jump(tag_560)\n    tag_561:\n      dup3\n      add\n      swap2\n      swap1\n      0x00\n      mstore\n      keccak256(0x00, 0x20)\n      swap1\n    tag_562:\n      dup2\n      sload\n      dup2\n      mstore\n      swap1\n      0x01\n      add\n      swap1\n      0x20\n      add\n      dup1\n      dup4\n      gt\n      tag_562\n      jumpi\n      dup3\n      swap1\n      sub\n      0x1f\n      and\n      dup3\n      add\n      swap2\n    tag_560:\n      pop\n      pop\n      pop\n      pop\n      pop\n      swap1\n      pop\n        /* \"@thirdweb-dev/contracts/base/ERC721Base.sol\":3733:3734   */\n      0x00\n        /* \"@thirdweb-dev/contracts/base/ERC721Base.sol\":3707:3722   */\n      dup2\n        /* \"@thirdweb-dev/contracts/base/ERC721Base.sol\":3701:3730   */\n      mload\n        /* \"@thirdweb-dev/contracts/base/ERC721Base.sol\":3701:3734   */\n      gt\n        /* \"@thirdweb-dev/contracts/base/ERC721Base.sol\":3697:3783   */\n      iszero\n      tag_563\n      jumpi\n        /* \"@thirdweb-dev/contracts/base/ERC721Base.sol\":3757:3772   */\n      swap3\n        /* \"@thirdweb-dev/contracts/base/ERC721Base.sol\":3513:3918   */\n      swap2\n      pop\n      pop\n      jump\t// out\n        /* \"@thirdweb-dev/contracts/base/ERC721Base.sol\":3697:3783   */\n    tag_563:\n        /* \"@thirdweb-dev/contracts/base/ERC721Base.sol\":3793:3815   */\n      0x00\n        /* \"@thirdweb-dev/contracts/base/ERC721Base.sol\":3818:3839   */\n      tag_564\n        /* \"@thirdweb-dev/contracts/base/ERC721Base.sol\":3830:3838   */\n      dup5\n        /* \"@thirdweb-dev/contracts/base/ERC721Base.sol\":3818:3829   */\n      tag_565\n        /* \"@thirdweb-dev/contracts/base/ERC721Base.sol\":3818:3839   */\n      jump\t// in\n    tag_564:\n        /* \"@thirdweb-dev/contracts/base/ERC721Base.sol\":3793:3839   */\n      swap1\n      pop\n        /* \"@thirdweb-dev/contracts/base/ERC721Base.sol\":3880:3888   */\n      dup1\n        /* \"@thirdweb-dev/contracts/base/ERC721Base.sol\":3890:3909   */\n      tag_566\n        /* \"@thirdweb-dev/contracts/base/ERC721Base.sol\":3890:3898   */\n      dup6\n        /* \"@thirdweb-dev/contracts/base/ERC721Base.sol\":3890:3907   */\n      tag_567\n        /* \"@thirdweb-dev/contracts/base/ERC721Base.sol\":3890:3909   */\n      jump\t// in\n    tag_566:\n        /* \"@thirdweb-dev/contracts/base/ERC721Base.sol\":3863:3910   */\n      add(0x20, mload(0x40))\n      tag_568\n      swap3\n      swap2\n      swap1\n      tag_569\n      jump\t// in\n    tag_568:\n      mload(0x40)\n      0x20\n      dup2\n      dup4\n      sub\n      sub\n      dup2\n      mstore\n      swap1\n      0x40\n      mstore\n        /* \"@thirdweb-dev/contracts/base/ERC721Base.sol\":3849:3911   */\n      swap3\n      pop\n      pop\n      pop\n        /* \"@thirdweb-dev/contracts/base/ERC721Base.sol\":3513:3918   */\n      swap2\n      swap1\n      pop\n      jump\t// out\n        /* \"@thirdweb-dev/contracts/extension/ContractMetadata.sol\":672:706   */\n    tag_268:\n      0x08\n      dup1\n      sload\n      tag_291\n      swap1\n      tag_292\n      jump\t// in\n        /* \"DontKilltheJamNFTMojoClaimRedeax.sol\":2252:2336  function setMintFee(uint256 _fee) external onlyOwner {... */\n    tag_279:\n        /* \"@thirdweb-dev/contracts/extension/Ownable.sol\":822:828   */\n      and(sub(shl(0xa0, 0x01), 0x01), sload(0x09))\n        /* \"@thirdweb-dev/contracts/extension/Ownable.sol\":808:818   */\n      caller\n        /* \"@thirdweb-dev/contracts/extension/Ownable.sol\":808:828   */\n      eq\n        /* \"@thirdweb-dev/contracts/extension/Ownable.sol\":804:883   */\n      tag_577\n      jumpi\n        /* \"@thirdweb-dev/contracts/extension/Ownable.sol\":851:872   */\n      mload(0x40)\n      shl(0xe1, 0x16ccb9cb)\n      dup2\n      mstore\n      0x04\n      add\n      mload(0x40)\n      dup1\n      swap2\n      sub\n      swap1\n      revert\n        /* \"@thirdweb-dev/contracts/extension/Ownable.sol\":804:883   */\n    tag_577:\n        /* \"DontKilltheJamNFTMojoClaimRedeax.sol\":2315:2322  mintFee */\n      0x10\n        /* \"DontKilltheJamNFTMojoClaimRedeax.sol\":2315:2329  mintFee = _fee */\n      sstore\n        /* \"DontKilltheJamNFTMojoClaimRedeax.sol\":2252:2336  function setMintFee(uint256 _fee) external onlyOwner {... */\n      jump\t// out\n        /* \"@thirdweb-dev/contracts/base/ERC721Base.sol\":7835:7937   */\n    tag_282:\n        /* \"@thirdweb-dev/contracts/base/ERC721Base.sol\":7886:7890   */\n      0x00\n        /* \"@thirdweb-dev/contracts/base/ERC721Base.sol\":7923:7930   */\n      tag_580\n        /* \"@thirdweb-dev/contracts/extension/Ownable.sol\":1046:1052   */\n      and(sub(shl(0xa0, 0x01), 0x01), sload(0x09))\n      swap1\n        /* \"@thirdweb-dev/contracts/extension/Ownable.sol\":973:1059   */\n      jump\n        /* \"@thirdweb-dev/contracts/base/ERC721Base.sol\":7923:7930   */\n    tag_580:\n      sub(shl(0xa0, 0x01), 0x01)\n        /* \"@thirdweb-dev/contracts/base/ERC721Base.sol\":7909:7930   */\n      and\n        /* \"@thirdweb-dev/contracts/base/ERC721Base.sol\":7909:7919   */\n      caller\n      sub(shl(0xa0, 0x01), 0x01)\n        /* \"@thirdweb-dev/contracts/base/ERC721Base.sol\":7909:7930   */\n      and\n      eq\n        /* \"@thirdweb-dev/contracts/base/ERC721Base.sol\":7902:7930   */\n      swap1\n      pop\n        /* \"@thirdweb-dev/contracts/base/ERC721Base.sol\":7835:7937   */\n      swap1\n      jump\t// out\n        /* \"@thirdweb-dev/contracts/base/ERC721Base.sol\":7327:7529   */\n    tag_288:\n        /* \"@thirdweb-dev/contracts/base/ERC721Base.sol\":7433:7450   */\n      0x00\n      dup3\n      dup2\n      mstore\n        /* \"@thirdweb-dev/contracts/base/ERC721Base.sol\":7433:7440   */\n      0x0f\n        /* \"@thirdweb-dev/contracts/base/ERC721Base.sol\":7433:7450   */\n      0x20\n      mstore\n      0x40\n      swap1\n      keccak256\n        /* \"@thirdweb-dev/contracts/base/ERC721Base.sol\":7427:7458   */\n      dup1\n      sload\n      tag_582\n      swap1\n      tag_292\n      jump\t// in\n    tag_582:\n        /* \"@thirdweb-dev/contracts/base/ERC721Base.sol\":7427:7463   */\n      iszero\n      swap1\n      pop\n        /* \"@thirdweb-dev/contracts/base/ERC721Base.sol\":7419:7483   */\n      tag_583\n      jumpi\n      mload(0x40)\n      shl(0xe5, 0x461bcd)\n      dup2\n      mstore\n        /* \"#utility.yul\":21872:21874   */\n      0x20\n        /* \"@thirdweb-dev/contracts/base/ERC721Base.sol\":7419:7483   */\n      0x04\n      dup3\n      add\n        /* \"#utility.yul\":21854:21875   */\n      mstore\n        /* \"#utility.yul\":21911:21913   */\n      0x0f\n        /* \"#utility.yul\":21891:21909   */\n      0x24\n      dup3\n      add\n        /* \"#utility.yul\":21884:21914   */\n      mstore\n        /* \"#utility.yul\":21950:21967   */\n      0x55524920616c7265616479207365740000000000000000000000000000000000\n        /* \"#utility.yul\":21930:21948   */\n      0x44\n      dup3\n      add\n        /* \"#utility.yul\":21923:21968   */\n      mstore\n        /* \"#utility.yul\":21985:22003   */\n      0x64\n      add\n        /* \"@thirdweb-dev/contracts/base/ERC721Base.sol\":7419:7483   */\n      tag_284\n        /* \"#utility.yul\":21670:22009   */\n      jump\n        /* \"@thirdweb-dev/contracts/base/ERC721Base.sol\":7419:7483   */\n    tag_583:\n        /* \"@thirdweb-dev/contracts/base/ERC721Base.sol\":7493:7510   */\n      0x00\n      dup3\n      dup2\n      mstore\n        /* \"@thirdweb-dev/contracts/base/ERC721Base.sol\":7493:7500   */\n      0x0f\n        /* \"@thirdweb-dev/contracts/base/ERC721Base.sol\":7493:7510   */\n      0x20\n      mstore\n      0x40\n      swap1\n      keccak256\n        /* \"@thirdweb-dev/contracts/base/ERC721Base.sol\":7493:7522   */\n      tag_320\n        /* \"@thirdweb-dev/contracts/base/ERC721Base.sol\":7513:7522   */\n      dup3\n        /* \"@thirdweb-dev/contracts/base/ERC721Base.sol\":7493:7510   */\n      dup3\n        /* \"@thirdweb-dev/contracts/base/ERC721Base.sol\":7493:7522   */\n      tag_453\n      jump\t// in\n        /* \"@thirdweb-dev/contracts/eip/ERC721AVirtualApprove.sol\":10171:11849   */\n    tag_290:\n        /* \"@thirdweb-dev/contracts/eip/ERC721AVirtualApprove.sol\":10259:10279   */\n      0x00\n        /* \"@thirdweb-dev/contracts/eip/ERC721AVirtualApprove.sol\":10282:10295   */\n      sload\n      sub(shl(0xa0, 0x01), 0x01)\n        /* \"@thirdweb-dev/contracts/eip/ERC721AVirtualApprove.sol\":10309:10325   */\n      dup5\n      and\n        /* \"@thirdweb-dev/contracts/eip/ERC721AVirtualApprove.sol\":10305:10353   */\n      tag_588\n      jumpi\n        /* \"@thirdweb-dev/contracts/eip/ERC721AVirtualApprove.sol\":10334:10353   */\n      mload(0x40)\n      shl(0xe8, 0x2e0763)\n      dup2\n      mstore\n      0x04\n      add\n      mload(0x40)\n      dup1\n      swap2\n      sub\n      swap1\n      revert\n        /* \"@thirdweb-dev/contracts/eip/ERC721AVirtualApprove.sol\":10305:10353   */\n    tag_588:\n        /* \"@thirdweb-dev/contracts/eip/ERC721AVirtualApprove.sol\":10367:10375   */\n      dup3\n        /* \"@thirdweb-dev/contracts/eip/ERC721AVirtualApprove.sol\":10379:10380   */\n      0x00\n        /* \"@thirdweb-dev/contracts/eip/ERC721AVirtualApprove.sol\":10367:10380   */\n      sub\n        /* \"@thirdweb-dev/contracts/eip/ERC721AVirtualApprove.sol\":10363:10407   */\n      tag_589\n      jumpi\n        /* \"@thirdweb-dev/contracts/eip/ERC721AVirtualApprove.sol\":10389:10407   */\n      mload(0x40)\n      shl(0xe0, 0xb562e8dd)\n      dup2\n      mstore\n      0x04\n      add\n      mload(0x40)\n      dup1\n      swap2\n      sub\n      swap1\n      revert\n        /* \"@thirdweb-dev/contracts/eip/ERC721AVirtualApprove.sol\":10363:10407   */\n    tag_589:\n      sub(shl(0xa0, 0x01), 0x01)\n        /* \"@thirdweb-dev/contracts/eip/ERC721AVirtualApprove.sol\":10750:10766   */\n      dup5\n      and\n      0x00\n      dup2\n      dup2\n      mstore\n        /* \"@thirdweb-dev/contracts/eip/ERC721AVirtualApprove.sol\":10750:10762   */\n      0x05\n        /* \"@thirdweb-dev/contracts/eip/ERC721AVirtualApprove.sol\":10750:10766   */\n      0x20\n      swap1\n      dup2\n      mstore\n      0x40\n      dup1\n      dup4\n      keccak256\n        /* \"@thirdweb-dev/contracts/eip/ERC721AVirtualApprove.sol\":10750:10794   */\n      dup1\n      sload\n      not(0xffffffffffffffffffffffffffffffff)\n        /* \"@thirdweb-dev/contracts/eip/ERC721AVirtualApprove.sol\":10808:10857   */\n      dup2\n      and\n        /* \"@thirdweb-dev/contracts/eip/ERC721AVirtualApprove.sol\":10750:10794   */\n      0xffffffffffffffff\n      dup1\n      dup4\n      and\n      dup12\n      add\n      dup2\n      and\n        /* \"@thirdweb-dev/contracts/eip/ERC721AVirtualApprove.sol\":10808:10857   */\n      swap2\n      dup3\n      or\n      0x010000000000000000\n      not(0xffffffffffffffff)\n        /* \"@thirdweb-dev/contracts/eip/ERC721AVirtualApprove.sol\":10750:10794   */\n      swap1\n      swap5\n      and\n      swap1\n      swap3\n      or\n        /* \"@thirdweb-dev/contracts/eip/ERC721AVirtualApprove.sol\":10808:10857   */\n      dup4\n      swap1\n      div\n      dup2\n      and\n      dup12\n      add\n      dup2\n      and\n      swap1\n      swap3\n      mul\n      or\n      swap1\n      swap2\n      sstore\n        /* \"@thirdweb-dev/contracts/eip/ERC721AVirtualApprove.sol\":10872:10897   */\n      dup6\n      dup5\n      mstore\n        /* \"@thirdweb-dev/contracts/eip/ERC721AVirtualApprove.sol\":10872:10883   */\n      0x04\n        /* \"@thirdweb-dev/contracts/eip/ERC721AVirtualApprove.sol\":10872:10897   */\n      swap1\n      swap3\n      mstore\n      swap1\n      swap2\n      keccak256\n        /* \"@thirdweb-dev/contracts/eip/ERC721AVirtualApprove.sol\":10872:10907   */\n      dup1\n      sload\n      not(sub(shl(0xe0, 0x01), 0x01))\n        /* \"@thirdweb-dev/contracts/eip/ERC721AVirtualApprove.sol\":10921:10987   */\n      and\n      dup4\n      or\n      shl(0xa0, 0x01)\n        /* \"@thirdweb-dev/contracts/eip/ERC721AVirtualApprove.sol\":10971:10986   */\n      timestamp\n        /* \"@thirdweb-dev/contracts/eip/ERC721AVirtualApprove.sol\":10921:10987   */\n      swap1\n      swap4\n      and\n      swap3\n      swap1\n      swap3\n      mul\n      swap2\n      swap1\n      swap2\n      or\n      swap1\n      sstore\n        /* \"@thirdweb-dev/contracts/eip/ERC721AVirtualApprove.sol\":10872:10897   */\n      dup2\n      swap1\n        /* \"@thirdweb-dev/contracts/eip/ERC721AVirtualApprove.sol\":11065:11088   */\n      dup2\n      dup6\n      add\n      swap1\n        /* \"@thirdweb-dev/contracts/lib/Address.sol\":1695:1714   */\n      extcodesize\n        /* \"@thirdweb-dev/contracts/lib/Address.sol\":1695:1718   */\n      iszero\n        /* \"@thirdweb-dev/contracts/eip/ERC721AVirtualApprove.sol\":11103:11721   */\n      tag_593\n      jumpi\n        /* \"@thirdweb-dev/contracts/eip/ERC721AVirtualApprove.sol\":11142:11450   */\n    tag_594:\n        /* \"@thirdweb-dev/contracts/eip/ERC721AVirtualApprove.sol\":11172:11210   */\n      mload(0x40)\n        /* \"@thirdweb-dev/contracts/eip/ERC721AVirtualApprove.sol\":11197:11209   */\n      dup3\n      swap1\n      sub(shl(0xa0, 0x01), 0x01)\n        /* \"@thirdweb-dev/contracts/eip/ERC721AVirtualApprove.sol\":11172:11210   */\n      dup9\n      and\n      swap1\n        /* \"@thirdweb-dev/contracts/eip/ERC721AVirtualApprove.sol\":11189:11190   */\n      0x00\n      swap1\n        /* \"@thirdweb-dev/contracts/eip/ERC721AVirtualApprove.sol\":11172:11210   */\n      0xddf252ad1be2c89b69c2b068fc378daa952ba7f163c4a11628f55a4df523b3ef\n      swap1\n        /* \"@thirdweb-dev/contracts/eip/ERC721AVirtualApprove.sol\":11189:11190   */\n      dup3\n      swap1\n        /* \"@thirdweb-dev/contracts/eip/ERC721AVirtualApprove.sol\":11172:11210   */\n      log4\n        /* \"@thirdweb-dev/contracts/eip/ERC721AVirtualApprove.sol\":11237:11306   */\n      tag_597\n        /* \"@thirdweb-dev/contracts/eip/ERC721AVirtualApprove.sol\":11276:11277   */\n      0x00\n        /* \"@thirdweb-dev/contracts/eip/ERC721AVirtualApprove.sol\":11280:11282   */\n      dup8\n        /* \"@thirdweb-dev/contracts/eip/ERC721AVirtualApprove.sol\":11284:11298   */\n      dup5\n      dup1\n      0x01\n      add\n      swap6\n      pop\n        /* \"@thirdweb-dev/contracts/eip/ERC721AVirtualApprove.sol\":11300:11305   */\n      dup8\n        /* \"@thirdweb-dev/contracts/eip/ERC721AVirtualApprove.sol\":11237:11267   */\n      tag_536\n        /* \"@thirdweb-dev/contracts/eip/ERC721AVirtualApprove.sol\":11237:11306   */\n      jump\t// in\n    tag_597:\n        /* \"@thirdweb-dev/contracts/eip/ERC721AVirtualApprove.sol\":11232:11404   */\n      tag_598\n      jumpi\n        /* \"@thirdweb-dev/contracts/eip/ERC721AVirtualApprove.sol\":11341:11381   */\n      mload(0x40)\n      shl(0xe1, 0x68d2bf6b)\n      dup2\n      mstore\n      0x04\n      add\n      mload(0x40)\n      dup1\n      swap2\n      sub\n      swap1\n      revert\n        /* \"@thirdweb-dev/contracts/eip/ERC721AVirtualApprove.sol\":11232:11404   */\n    tag_598:\n        /* \"@thirdweb-dev/contracts/eip/ERC721AVirtualApprove.sol\":11445:11448   */\n      dup1\n        /* \"@thirdweb-dev/contracts/eip/ERC721AVirtualApprove.sol\":11430:11442   */\n      dup3\n        /* \"@thirdweb-dev/contracts/eip/ERC721AVirtualApprove.sol\":11430:11448   */\n      lt\n        /* \"@thirdweb-dev/contracts/eip/ERC721AVirtualApprove.sol\":11142:11450   */\n      tag_594\n      jumpi\n        /* \"@thirdweb-dev/contracts/eip/ERC721AVirtualApprove.sol\":11529:11541   */\n      dup3\n        /* \"@thirdweb-dev/contracts/eip/ERC721AVirtualApprove.sol\":11512:11525   */\n      sload(0x00)\n        /* \"@thirdweb-dev/contracts/eip/ERC721AVirtualApprove.sol\":11512:11541   */\n      eq\n        /* \"@thirdweb-dev/contracts/eip/ERC721AVirtualApprove.sol\":11508:11551   */\n      tag_599\n      jumpi\n        /* \"@thirdweb-dev/contracts/eip/ERC721AVirtualApprove.sol\":11543:11551   */\n      0x00\n      dup1\n      revert\n        /* \"@thirdweb-dev/contracts/eip/ERC721AVirtualApprove.sol\":11508:11551   */\n    tag_599:\n        /* \"@thirdweb-dev/contracts/eip/ERC721AVirtualApprove.sol\":11103:11721   */\n      jump(tag_600)\n    tag_593:\n        /* \"@thirdweb-dev/contracts/eip/ERC721AVirtualApprove.sol\":11590:11707   */\n    tag_601:\n        /* \"@thirdweb-dev/contracts/eip/ERC721AVirtualApprove.sol\":11620:11660   */\n      mload(0x40)\n        /* \"@thirdweb-dev/contracts/eip/ERC721AVirtualApprove.sol\":11645:11659   */\n      0x01\n      dup4\n      add\n      swap3\n      swap1\n      sub(shl(0xa0, 0x01), 0x01)\n        /* \"@thirdweb-dev/contracts/eip/ERC721AVirtualApprove.sol\":11620:11660   */\n      dup9\n      and\n      swap1\n        /* \"@thirdweb-dev/contracts/eip/ERC721AVirtualApprove.sol\":11637:11638   */\n      0x00\n      swap1\n        /* \"@thirdweb-dev/contracts/eip/ERC721AVirtualApprove.sol\":11620:11660   */\n      0xddf252ad1be2c89b69c2b068fc378daa952ba7f163c4a11628f55a4df523b3ef\n      swap1\n        /* \"@thirdweb-dev/contracts/eip/ERC721AVirtualApprove.sol\":11637:11638   */\n      dup3\n      swap1\n        /* \"@thirdweb-dev/contracts/eip/ERC721AVirtualApprove.sol\":11620:11660   */\n      log4\n        /* \"@thirdweb-dev/contracts/eip/ERC721AVirtualApprove.sol\":11702:11705   */\n      dup1\n        /* \"@thirdweb-dev/contracts/eip/ERC721AVirtualApprove.sol\":11687:11699   */\n      dup3\n        /* \"@thirdweb-dev/contracts/eip/ERC721AVirtualApprove.sol\":11687:11705   */\n      lt\n        /* \"@thirdweb-dev/contracts/eip/ERC721AVirtualApprove.sol\":11590:11707   */\n      tag_601\n      jumpi\n        /* \"@thirdweb-dev/contracts/eip/ERC721AVirtualApprove.sol\":11103:11721   */\n    tag_600:\n      pop\n        /* \"@thirdweb-dev/contracts/eip/ERC721AVirtualApprove.sol\":11734:11747   */\n      0x00\n        /* \"@thirdweb-dev/contracts/eip/ERC721AVirtualApprove.sol\":11734:11762   */\n      swap1\n      dup2\n      sstore\n        /* \"@thirdweb-dev/contracts/eip/ERC721AVirtualApprove.sol\":11782:11842   */\n      tag_407\n      swap1\n        /* \"@thirdweb-dev/contracts/eip/ERC721AVirtualApprove.sol\":11815:11817   */\n      dup6\n        /* \"@thirdweb-dev/contracts/eip/ERC721AVirtualApprove.sol\":11819:11831   */\n      dup4\n        /* \"@thirdweb-dev/contracts/eip/ERC721AVirtualApprove.sol\":11833:11841   */\n      dup7\n        /* \"@thirdweb-dev/contracts/eip/ERC721AVirtualApprove.sol\":11782:11842   */\n      dup5\n      jump\t// in\n        /* \"@thirdweb-dev/contracts/eip/ERC721AVirtualApprove.sol\":9458:9630   */\n    tag_309:\n        /* \"@thirdweb-dev/contracts/eip/ERC721AVirtualApprove.sol\":9515:9519   */\n      0x00\n        /* \"@thirdweb-dev/contracts/eip/ERC721AVirtualApprove.sol\":9578:9591   */\n      dup1\n      sload\n        /* \"@thirdweb-dev/contracts/eip/ERC721AVirtualApprove.sol\":9568:9575   */\n      dup3\n        /* \"@thirdweb-dev/contracts/eip/ERC721AVirtualApprove.sol\":9568:9591   */\n      lt\n        /* \"@thirdweb-dev/contracts/eip/ERC721AVirtualApprove.sol\":9538:9623   */\n      dup1\n      iszero\n      tag_300\n      jumpi\n      pop\n      pop\n        /* \"@thirdweb-dev/contracts/eip/ERC721AVirtualApprove.sol\":9596:9616   */\n      0x00\n      swap1\n      dup2\n      mstore\n        /* \"@thirdweb-dev/contracts/eip/ERC721AVirtualApprove.sol\":9596:9607   */\n      0x04\n        /* \"@thirdweb-dev/contracts/eip/ERC721AVirtualApprove.sol\":9596:9616   */\n      0x20\n      mstore\n      0x40\n      swap1\n      keccak256\n        /* \"@thirdweb-dev/contracts/eip/ERC721AVirtualApprove.sol\":9596:9623   */\n      sload\n      shl(0xe0, 0x01)\n      swap1\n      div\n      0xff\n      and\n        /* \"@thirdweb-dev/contracts/eip/ERC721AVirtualApprove.sol\":9595:9623   */\n      iszero\n      swap1\n        /* \"@thirdweb-dev/contracts/eip/ERC721AVirtualApprove.sol\":9458:9630   */\n      jump\t// out\n        /* \"@thirdweb-dev/contracts/eip/ERC721AVirtualApprove.sol\":18379:18538   */\n    tag_321:\n        /* \"@thirdweb-dev/contracts/eip/ERC721AVirtualApprove.sol\":18459:18483   */\n      0x00\n      dup3\n      dup2\n      mstore\n        /* \"@thirdweb-dev/contracts/eip/ERC721AVirtualApprove.sol\":18459:18474   */\n      0x06\n        /* \"@thirdweb-dev/contracts/eip/ERC721AVirtualApprove.sol\":18459:18483   */\n      0x20\n      mstore\n      0x40\n      dup1\n      dup3\n      keccak256\n        /* \"@thirdweb-dev/contracts/eip/ERC721AVirtualApprove.sol\":18459:18488   */\n      dup1\n      sload\n      not(0xffffffffffffffffffffffffffffffffffffffff)\n      and\n      sub(shl(0xa0, 0x01), 0x01)\n      dup8\n      dup2\n      and\n      swap2\n      dup3\n      or\n      swap1\n      swap3\n      sstore\n        /* \"@thirdweb-dev/contracts/eip/ERC721AVirtualApprove.sol\":18503:18531   */\n      swap2\n      mload\n        /* \"@thirdweb-dev/contracts/eip/ERC721AVirtualApprove.sol\":18459:18483   */\n      dup6\n      swap4\n        /* \"@thirdweb-dev/contracts/eip/ERC721AVirtualApprove.sol\":18503:18531   */\n      swap2\n      dup6\n      and\n      swap2\n      0x8c5be1e5ebec7d5bd14f71427d1e84f3dd0314c0f7b2291e5b200ac8c7c3b925\n      swap2\n      log4\n        /* \"@thirdweb-dev/contracts/eip/ERC721AVirtualApprove.sol\":18379:18538   */\n      pop\n      pop\n      pop\n      jump\t// out\n        /* \"@thirdweb-dev/contracts/extension/Ownable.sol\":1527:1699   */\n    tag_327:\n        /* \"@thirdweb-dev/contracts/extension/Ownable.sol\":1607:1613   */\n      0x09\n      dup1\n      sload\n      sub(shl(0xa0, 0x01), 0x01)\n        /* \"@thirdweb-dev/contracts/extension/Ownable.sol\":1623:1641   */\n      dup4\n      dup2\n      and\n      not(0xffffffffffffffffffffffffffffffffffffffff)\n      dup4\n      and\n      dup2\n      or\n      swap1\n      swap4\n      sstore\n        /* \"@thirdweb-dev/contracts/extension/Ownable.sol\":1657:1692   */\n      mload(0x40)\n        /* \"@thirdweb-dev/contracts/extension/Ownable.sol\":1607:1613   */\n      swap2\n      and\n      swap2\n        /* \"@thirdweb-dev/contracts/extension/Ownable.sol\":1623:1641   */\n      swap1\n        /* \"@thirdweb-dev/contracts/extension/Ownable.sol\":1607:1613   */\n      dup3\n      swap1\n        /* \"@thirdweb-dev/contracts/extension/Ownable.sol\":1657:1692   */\n      0x8292fce18fa69edf4db7b94ea2e58241df0ae57f97e0a6c9b29067028bf92d76\n      swap1\n        /* \"@thirdweb-dev/contracts/extension/Ownable.sol\":1586:1604   */\n      0x00\n      swap1\n        /* \"@thirdweb-dev/contracts/extension/Ownable.sol\":1657:1692   */\n      log3\n        /* \"@thirdweb-dev/contracts/extension/Ownable.sol\":1576:1699   */\n      pop\n        /* \"@thirdweb-dev/contracts/extension/Ownable.sol\":1527:1699   */\n      pop\n      jump\t// out\n        /* \"@thirdweb-dev/contracts/eip/ERC721AVirtualApprove.sol\":13484:15536   */\n    tag_333:\n        /* \"@thirdweb-dev/contracts/eip/ERC721AVirtualApprove.sol\":13564:13599   */\n      0x00\n        /* \"@thirdweb-dev/contracts/eip/ERC721AVirtualApprove.sol\":13602:13623   */\n      tag_617\n        /* \"@thirdweb-dev/contracts/eip/ERC721AVirtualApprove.sol\":13615:13622   */\n      dup3\n        /* \"@thirdweb-dev/contracts/eip/ERC721AVirtualApprove.sol\":13602:13614   */\n      tag_396\n        /* \"@thirdweb-dev/contracts/eip/ERC721AVirtualApprove.sol\":13602:13623   */\n      jump\t// in\n    tag_617:\n        /* \"@thirdweb-dev/contracts/eip/ERC721AVirtualApprove.sol\":13564:13623   */\n      swap1\n      pop\n        /* \"@thirdweb-dev/contracts/eip/ERC721AVirtualApprove.sol\":13660:13664   */\n      dup4\n      sub(shl(0xa0, 0x01), 0x01)\n        /* \"@thirdweb-dev/contracts/eip/ERC721AVirtualApprove.sol\":13638:13664   */\n      and\n        /* \"@thirdweb-dev/contracts/eip/ERC721AVirtualApprove.sol\":13638:13651   */\n      dup2\n        /* \"@thirdweb-dev/contracts/eip/ERC721AVirtualApprove.sol\":13638:13656   */\n      0x00\n      add\n      mload\n      sub(shl(0xa0, 0x01), 0x01)\n        /* \"@thirdweb-dev/contracts/eip/ERC721AVirtualApprove.sol\":13638:13664   */\n      and\n      eq\n        /* \"@thirdweb-dev/contracts/eip/ERC721AVirtualApprove.sol\":13634:13701   */\n      tag_618\n      jumpi\n        /* \"@thirdweb-dev/contracts/eip/ERC721AVirtualApprove.sol\":13673:13701   */\n      mload(0x40)\n      shl(0xe8, 0xa11481)\n      dup2\n      mstore\n      0x04\n      add\n      mload(0x40)\n      dup1\n      swap2\n      sub\n      swap1\n      revert\n        /* \"@thirdweb-dev/contracts/eip/ERC721AVirtualApprove.sol\":13634:13701   */\n    tag_618:\n        /* \"@thirdweb-dev/contracts/eip/ERC721AVirtualApprove.sol\":13712:13734   */\n      0x00\n        /* \"@thirdweb-dev/contracts/base/ERC721Base.sol\":8521:8531   */\n      caller\n      sub(shl(0xa0, 0x01), 0x01)\n        /* \"@thirdweb-dev/contracts/eip/ERC721AVirtualApprove.sol\":13738:13758   */\n      dup7\n      and\n      eq\n      dup1\n        /* \"@thirdweb-dev/contracts/eip/ERC721AVirtualApprove.sol\":13738:13810   */\n      tag_621\n      jumpi\n      pop\n        /* \"@thirdweb-dev/contracts/eip/ERC721AVirtualApprove.sol\":13774:13810   */\n      tag_621\n        /* \"@thirdweb-dev/contracts/eip/ERC721AVirtualApprove.sol\":13791:13795   */\n      dup6\n        /* \"@thirdweb-dev/contracts/base/ERC721Base.sol\":8521:8531   */\n      caller\n        /* \"@thirdweb-dev/contracts/eip/ERC721AVirtualApprove.sol\":8230:8392   */\n      tag_272\n      jump\t// in\n        /* \"@thirdweb-dev/contracts/eip/ERC721AVirtualApprove.sol\":13774:13810   */\n    tag_621:\n        /* \"@thirdweb-dev/contracts/eip/ERC721AVirtualApprove.sol\":13738:13862   */\n      dup1\n      tag_623\n      jumpi\n      pop\n        /* \"@thirdweb-dev/contracts/base/ERC721Base.sol\":8521:8531   */\n      caller\n        /* \"@thirdweb-dev/contracts/eip/ERC721AVirtualApprove.sol\":13826:13846   */\n      tag_625\n        /* \"@thirdweb-dev/contracts/eip/ERC721AVirtualApprove.sol\":13838:13845   */\n      dup5\n        /* \"@thirdweb-dev/contracts/eip/ERC721AVirtualApprove.sol\":13826:13837   */\n      tag_87\n        /* \"@thirdweb-dev/contracts/eip/ERC721AVirtualApprove.sol\":13826:13846   */\n      jump\t// in\n    tag_625:\n      sub(shl(0xa0, 0x01), 0x01)\n        /* \"@thirdweb-dev/contracts/eip/ERC721AVirtualApprove.sol\":13826:13862   */\n      and\n      eq\n        /* \"@thirdweb-dev/contracts/eip/ERC721AVirtualApprove.sol\":13738:13862   */\n    tag_623:\n        /* \"@thirdweb-dev/contracts/eip/ERC721AVirtualApprove.sol\":13712:13863   */\n      swap1\n      pop\n        /* \"@thirdweb-dev/contracts/eip/ERC721AVirtualApprove.sol\":13879:13896   */\n      dup1\n        /* \"@thirdweb-dev/contracts/eip/ERC721AVirtualApprove.sol\":13874:13940   */\n      tag_626\n      jumpi\n        /* \"@thirdweb-dev/contracts/eip/ERC721AVirtualApprove.sol\":13905:13940   */\n      mload(0x40)\n      shl(0xe1, 0x2ce44b5f)\n      dup2\n      mstore\n      0x04\n      add\n      mload(0x40)\n      dup1\n      swap2\n      sub\n      swap1\n      revert\n        /* \"@thirdweb-dev/contracts/eip/ERC721AVirtualApprove.sol\":13874:13940   */\n    tag_626:\n      sub(shl(0xa0, 0x01), 0x01)\n        /* \"@thirdweb-dev/contracts/eip/ERC721AVirtualApprove.sol\":13954:13970   */\n      dup5\n      and\n        /* \"@thirdweb-dev/contracts/eip/ERC721AVirtualApprove.sol\":13950:14002   */\n      tag_627\n      jumpi\n        /* \"@thirdweb-dev/contracts/eip/ERC721AVirtualApprove.sol\":13979:14002   */\n      mload(0x40)\n      shl(0xe2, 0x3a954ecd)\n      dup2\n      mstore\n      0x04\n      add\n      mload(0x40)\n      dup1\n      swap2\n      sub\n      swap1\n      revert\n        /* \"@thirdweb-dev/contracts/eip/ERC721AVirtualApprove.sol\":13950:14002   */\n    tag_627:\n        /* \"@thirdweb-dev/contracts/eip/ERC721AVirtualApprove.sol\":14118:14153   */\n      tag_629\n        /* \"@thirdweb-dev/contracts/eip/ERC721AVirtualApprove.sol\":14135:14136   */\n      0x00\n        /* \"@thirdweb-dev/contracts/eip/ERC721AVirtualApprove.sol\":14139:14146   */\n      dup5\n        /* \"@thirdweb-dev/contracts/eip/ERC721AVirtualApprove.sol\":14148:14152   */\n      dup8\n        /* \"@thirdweb-dev/contracts/eip/ERC721AVirtualApprove.sol\":14118:14126   */\n      tag_321\n        /* \"@thirdweb-dev/contracts/eip/ERC721AVirtualApprove.sol\":14118:14153   */\n      jump\t// in\n    tag_629:\n      sub(shl(0xa0, 0x01), 0x01)\n        /* \"@thirdweb-dev/contracts/eip/ERC721AVirtualApprove.sol\":14443:14461   */\n      dup6\n      dup2\n      and\n      0x00\n      swap1\n      dup2\n      mstore\n        /* \"@thirdweb-dev/contracts/eip/ERC721AVirtualApprove.sol\":14443:14455   */\n      0x05\n        /* \"@thirdweb-dev/contracts/eip/ERC721AVirtualApprove.sol\":14443:14461   */\n      0x20\n      swap1\n      dup2\n      mstore\n      0x40\n      dup1\n      dup4\n      keccak256\n        /* \"@thirdweb-dev/contracts/eip/ERC721AVirtualApprove.sol\":14443:14474   */\n      dup1\n      sload\n      not(0xffffffffffffffff)\n      dup1\n      dup3\n      and\n      0xffffffffffffffff\n      swap3\n      dup4\n      and\n      not(0x00)\n      add\n      dup4\n      and\n      or\n      swap1\n      swap3\n      sstore\n        /* \"@thirdweb-dev/contracts/eip/ERC721AVirtualApprove.sol\":14488:14504   */\n      dup10\n      dup7\n      and\n      dup1\n      dup7\n      mstore\n      dup4\n      dup7\n      keccak256\n        /* \"@thirdweb-dev/contracts/eip/ERC721AVirtualApprove.sol\":14488:14517   */\n      dup1\n      sload\n      swap4\n      dup5\n      and\n      swap4\n      dup4\n      and\n      0x01\n      swap1\n      dup2\n      add\n      dup5\n      and\n      swap5\n      swap1\n      swap5\n      or\n      swap1\n      sstore\n        /* \"@thirdweb-dev/contracts/eip/ERC721AVirtualApprove.sol\":14566:14586   */\n      dup10\n      dup7\n      mstore\n        /* \"@thirdweb-dev/contracts/eip/ERC721AVirtualApprove.sol\":14566:14577   */\n      0x04\n        /* \"@thirdweb-dev/contracts/eip/ERC721AVirtualApprove.sol\":14566:14586   */\n      swap1\n      swap5\n      mstore\n      dup3\n      dup6\n      keccak256\n        /* \"@thirdweb-dev/contracts/eip/ERC721AVirtualApprove.sol\":14600:14618   */\n      dup1\n      sload\n      not(sub(shl(0xe0, 0x01), 0x01))\n        /* \"@thirdweb-dev/contracts/eip/ERC721AVirtualApprove.sol\":14632:14681   */\n      and\n      swap1\n      swap5\n      or\n      shl(0xa0, 0x01)\n        /* \"@thirdweb-dev/contracts/eip/ERC721AVirtualApprove.sol\":14665:14680   */\n      timestamp\n        /* \"@thirdweb-dev/contracts/eip/ERC721AVirtualApprove.sol\":14632:14681   */\n      swap1\n      swap3\n      and\n      swap2\n      swap1\n      swap2\n      mul\n      or\n      dup4\n      sstore\n        /* \"@thirdweb-dev/contracts/eip/ERC721AVirtualApprove.sol\":14951:14962   */\n      dup8\n      add\n        /* \"@thirdweb-dev/contracts/eip/ERC721AVirtualApprove.sol\":15010:15034   */\n      dup1\n      dup5\n      mstore\n      swap3\n      keccak256\n        /* \"@thirdweb-dev/contracts/eip/ERC721AVirtualApprove.sol\":15052:15065   */\n      dup1\n      sload\n        /* \"@thirdweb-dev/contracts/eip/ERC721AVirtualApprove.sol\":14566:14586   */\n      swap2\n      swap4\n        /* \"@thirdweb-dev/contracts/eip/ERC721AVirtualApprove.sol\":15010:15034   */\n      swap1\n      swap2\n        /* \"@thirdweb-dev/contracts/eip/ERC721AVirtualApprove.sol\":15052:15065   */\n      and\n        /* \"@thirdweb-dev/contracts/eip/ERC721AVirtualApprove.sol\":15048:15425   */\n      tag_631\n      jumpi\n        /* \"@thirdweb-dev/contracts/eip/ERC721AVirtualApprove.sol\":15259:15272   */\n      sload(0x00)\n        /* \"@thirdweb-dev/contracts/eip/ERC721AVirtualApprove.sol\":15244:15255   */\n      dup3\n        /* \"@thirdweb-dev/contracts/eip/ERC721AVirtualApprove.sol\":15244:15272   */\n      eq\n        /* \"@thirdweb-dev/contracts/eip/ERC721AVirtualApprove.sol\":15240:15411   */\n      tag_631\n      jumpi\n        /* \"@thirdweb-dev/contracts/eip/ERC721AVirtualApprove.sol\":15296:15316   */\n      dup1\n      sload\n        /* \"@thirdweb-dev/contracts/eip/ERC721AVirtualApprove.sol\":15364:15392   */\n      0x20\n      dup7\n      add\n      mload\n        /* \"@thirdweb-dev/contracts/eip/ERC721AVirtualApprove.sol\":15338:15392   */\n      0xffffffffffffffff\n      and\n      shl(0xa0, 0x01)\n      mul\n      not(sub(shl(0xe0, 0x01), 0x01))\n      swap1\n      swap2\n      and\n      sub(shl(0xa0, 0x01), 0x01)\n        /* \"@thirdweb-dev/contracts/eip/ERC721AVirtualApprove.sol\":15296:15316   */\n      dup11\n      and\n        /* \"@thirdweb-dev/contracts/eip/ERC721AVirtualApprove.sol\":15338:15392   */\n      or\n      or\n      dup2\n      sstore\n        /* \"@thirdweb-dev/contracts/eip/ERC721AVirtualApprove.sol\":15240:15411   */\n    tag_631:\n        /* \"@thirdweb-dev/contracts/eip/ERC721AVirtualApprove.sol\":14419:15435   */\n      pop\n      pop\n      pop\n        /* \"@thirdweb-dev/contracts/eip/ERC721AVirtualApprove.sol\":15469:15476   */\n      dup3\n        /* \"@thirdweb-dev/contracts/eip/ERC721AVirtualApprove.sol\":15465:15467   */\n      dup5\n      sub(shl(0xa0, 0x01), 0x01)\n        /* \"@thirdweb-dev/contracts/eip/ERC721AVirtualApprove.sol\":15450:15477   */\n      and\n        /* \"@thirdweb-dev/contracts/eip/ERC721AVirtualApprove.sol\":15459:15463   */\n      dup7\n      sub(shl(0xa0, 0x01), 0x01)\n        /* \"@thirdweb-dev/contracts/eip/ERC721AVirtualApprove.sol\":15450:15477   */\n      and\n      0xddf252ad1be2c89b69c2b068fc378daa952ba7f163c4a11628f55a4df523b3ef\n      mload(0x40)\n      mload(0x40)\n      dup1\n      swap2\n      sub\n      swap1\n      log4\n        /* \"@thirdweb-dev/contracts/eip/ERC721AVirtualApprove.sol\":15487:15529   */\n      tag_440\n        /* \"@thirdweb-dev/contracts/base/ERC721Base.sol\":5232:5519   */\n      jump\n        /* \"@thirdweb-dev/contracts/eip/ERC721AVirtualApprove.sol\":15913:18268   */\n    tag_362:\n        /* \"@thirdweb-dev/contracts/eip/ERC721AVirtualApprove.sol\":15992:16027   */\n      0x00\n        /* \"@thirdweb-dev/contracts/eip/ERC721AVirtualApprove.sol\":16030:16051   */\n      tag_634\n        /* \"@thirdweb-dev/contracts/eip/ERC721AVirtualApprove.sol\":16043:16050   */\n      dup4\n        /* \"@thirdweb-dev/contracts/eip/ERC721AVirtualApprove.sol\":16030:16042   */\n      tag_396\n        /* \"@thirdweb-dev/contracts/eip/ERC721AVirtualApprove.sol\":16030:16051   */\n      jump\t// in\n    tag_634:\n        /* \"@thirdweb-dev/contracts/eip/ERC721AVirtualApprove.sol\":16077:16095   */\n      dup1\n      mload\n        /* \"@thirdweb-dev/contracts/eip/ERC721AVirtualApprove.sol\":15992:16051   */\n      swap1\n      swap2\n      pop\n        /* \"@thirdweb-dev/contracts/eip/ERC721AVirtualApprove.sol\":16106:16390   */\n      dup3\n      iszero\n      tag_635\n      jumpi\n        /* \"@thirdweb-dev/contracts/eip/ERC721AVirtualApprove.sol\":16139:16161   */\n      0x00\n        /* \"@thirdweb-dev/contracts/base/ERC721Base.sol\":8521:8531   */\n      caller\n      sub(shl(0xa0, 0x01), 0x01)\n        /* \"@thirdweb-dev/contracts/eip/ERC721AVirtualApprove.sol\":16165:16185   */\n      dup4\n      and\n      eq\n      dup1\n        /* \"@thirdweb-dev/contracts/eip/ERC721AVirtualApprove.sol\":16165:16241   */\n      tag_638\n      jumpi\n      pop\n        /* \"@thirdweb-dev/contracts/eip/ERC721AVirtualApprove.sol\":16205:16241   */\n      tag_638\n        /* \"@thirdweb-dev/contracts/eip/ERC721AVirtualApprove.sol\":16222:16226   */\n      dup3\n        /* \"@thirdweb-dev/contracts/base/ERC721Base.sol\":8521:8531   */\n      caller\n        /* \"@thirdweb-dev/contracts/eip/ERC721AVirtualApprove.sol\":8230:8392   */\n      tag_272\n      jump\t// in\n        /* \"@thirdweb-dev/contracts/eip/ERC721AVirtualApprove.sol\":16205:16241   */\n    tag_638:\n        /* \"@thirdweb-dev/contracts/eip/ERC721AVirtualApprove.sol\":16165:16297   */\n      dup1\n      tag_640\n      jumpi\n      pop\n        /* \"@thirdweb-dev/contracts/base/ERC721Base.sol\":8521:8531   */\n      caller\n        /* \"@thirdweb-dev/contracts/eip/ERC721AVirtualApprove.sol\":16261:16281   */\n      tag_642\n        /* \"@thirdweb-dev/contracts/eip/ERC721AVirtualApprove.sol\":16273:16280   */\n      dup7\n        /* \"@thirdweb-dev/contracts/eip/ERC721AVirtualApprove.sol\":16261:16272   */\n      tag_87\n        /* \"@thirdweb-dev/contracts/eip/ERC721AVirtualApprove.sol\":16261:16281   */\n      jump\t// in\n    tag_642:\n      sub(shl(0xa0, 0x01), 0x01)\n        /* \"@thirdweb-dev/contracts/eip/ERC721AVirtualApprove.sol\":16261:16297   */\n      and\n      eq\n        /* \"@thirdweb-dev/contracts/eip/ERC721AVirtualApprove.sol\":16165:16297   */\n    tag_640:\n        /* \"@thirdweb-dev/contracts/eip/ERC721AVirtualApprove.sol\":16139:16298   */\n      swap1\n      pop\n        /* \"@thirdweb-dev/contracts/eip/ERC721AVirtualApprove.sol\":16318:16335   */\n      dup1\n        /* \"@thirdweb-dev/contracts/eip/ERC721AVirtualApprove.sol\":16313:16379   */\n      tag_643\n      jumpi\n        /* \"@thirdweb-dev/contracts/eip/ERC721AVirtualApprove.sol\":16344:16379   */\n      mload(0x40)\n      shl(0xe1, 0x2ce44b5f)\n      dup2\n      mstore\n      0x04\n      add\n      mload(0x40)\n      dup1\n      swap2\n      sub\n      swap1\n      revert\n        /* \"@thirdweb-dev/contracts/eip/ERC721AVirtualApprove.sol\":16313:16379   */\n    tag_643:\n        /* \"@thirdweb-dev/contracts/eip/ERC721AVirtualApprove.sol\":16125:16390   */\n      pop\n        /* \"@thirdweb-dev/contracts/eip/ERC721AVirtualApprove.sol\":16106:16390   */\n    tag_635:\n        /* \"@thirdweb-dev/contracts/eip/ERC721AVirtualApprove.sol\":16513:16548   */\n      tag_645\n        /* \"@thirdweb-dev/contracts/eip/ERC721AVirtualApprove.sol\":16530:16531   */\n      0x00\n        /* \"@thirdweb-dev/contracts/eip/ERC721AVirtualApprove.sol\":16534:16541   */\n      dup6\n        /* \"@thirdweb-dev/contracts/eip/ERC721AVirtualApprove.sol\":16543:16547   */\n      dup4\n        /* \"@thirdweb-dev/contracts/eip/ERC721AVirtualApprove.sol\":16513:16521   */\n      tag_321\n        /* \"@thirdweb-dev/contracts/eip/ERC721AVirtualApprove.sol\":16513:16548   */\n      jump\t// in\n    tag_645:\n      sub(shl(0xa0, 0x01), 0x01)\n        /* \"@thirdweb-dev/contracts/eip/ERC721AVirtualApprove.sol\":16872:16890   */\n      dup1\n      dup3\n      and\n        /* \"@thirdweb-dev/contracts/eip/ERC721AVirtualApprove.sol\":16838:16869   */\n      0x00\n        /* \"@thirdweb-dev/contracts/eip/ERC721AVirtualApprove.sol\":16872:16890   */\n      dup2\n      dup2\n      mstore\n        /* \"@thirdweb-dev/contracts/eip/ERC721AVirtualApprove.sol\":16872:16884   */\n      0x05\n        /* \"@thirdweb-dev/contracts/eip/ERC721AVirtualApprove.sol\":16872:16890   */\n      0x20\n      swap1\n      dup2\n      mstore\n      0x40\n      dup1\n      dup4\n      keccak256\n        /* \"@thirdweb-dev/contracts/eip/ERC721AVirtualApprove.sol\":16904:16928   */\n      dup1\n      sload\n        /* \"@thirdweb-dev/contracts/eip/ERC721AVirtualApprove.sol\":16942:16971   */\n      0x0100000000000000000000000000000000\n      not(0x00)\n        /* \"@thirdweb-dev/contracts/eip/ERC721AVirtualApprove.sol\":16904:16928   */\n      0xffffffffffffffff\n      dup1\n      dup5\n      and\n      swap2\n      swap1\n      swap2\n      add\n      dup2\n      and\n      not(0xffffffffffffffff)\n      dup5\n      and\n      dup2\n      or\n        /* \"@thirdweb-dev/contracts/eip/ERC721AVirtualApprove.sol\":16942:16971   */\n      dup4\n      swap1\n      div\n      dup3\n      and\n        /* \"@thirdweb-dev/contracts/eip/ERC721AVirtualApprove.sol\":16927:16928   */\n      0x01\n        /* \"@thirdweb-dev/contracts/eip/ERC721AVirtualApprove.sol\":16942:16971   */\n      swap1\n      dup2\n      add\n      dup4\n      and\n      swap1\n      swap4\n      mul\n      0xffffffffffffffff0000000000000000ffffffffffffffff0000000000000000\n      swap1\n      swap5\n      and\n      or\n      swap3\n      swap1\n      swap3\n      or\n      dup4\n      sstore\n        /* \"@thirdweb-dev/contracts/eip/ERC721AVirtualApprove.sol\":17101:17121   */\n      dup12\n      dup7\n      mstore\n        /* \"@thirdweb-dev/contracts/eip/ERC721AVirtualApprove.sol\":17101:17112   */\n      0x04\n        /* \"@thirdweb-dev/contracts/eip/ERC721AVirtualApprove.sol\":17101:17121   */\n      swap1\n      swap5\n      mstore\n      dup3\n      dup6\n      keccak256\n        /* \"@thirdweb-dev/contracts/eip/ERC721AVirtualApprove.sol\":17135:17155   */\n      dup1\n      sload\n        /* \"@thirdweb-dev/contracts/eip/ERC721AVirtualApprove.sol\":17232:17254   */\n      0xffffff00ffffffffffffffffffffffffffffffffffffffffffffffffffffffff\n        /* \"@thirdweb-dev/contracts/eip/ERC721AVirtualApprove.sol\":17202:17217   */\n      timestamp\n        /* \"@thirdweb-dev/contracts/eip/ERC721AVirtualApprove.sol\":17169:17218   */\n      swap1\n      swap4\n      and\n      shl(0xa0, 0x01)\n      mul\n      not(sub(shl(0xe0, 0x01), 0x01))\n      swap1\n      swap2\n      and\n      swap1\n      swap8\n      or\n      swap7\n      swap1\n      swap7\n      or\n        /* \"@thirdweb-dev/contracts/eip/ERC721AVirtualApprove.sol\":17232:17254   */\n      and\n      shl(0xe0, 0x01)\n      or\n      dup6\n      sstore\n        /* \"@thirdweb-dev/contracts/eip/ERC721AVirtualApprove.sol\":17520:17531   */\n      swap2\n      dup10\n      add\n        /* \"@thirdweb-dev/contracts/eip/ERC721AVirtualApprove.sol\":17579:17603   */\n      dup1\n      dup5\n      mstore\n      swap3\n      keccak256\n        /* \"@thirdweb-dev/contracts/eip/ERC721AVirtualApprove.sol\":17621:17634   */\n      dup1\n      sload\n        /* \"@thirdweb-dev/contracts/eip/ERC721AVirtualApprove.sol\":16872:16890   */\n      swap2\n      swap5\n        /* \"@thirdweb-dev/contracts/eip/ERC721AVirtualApprove.sol\":17579:17603   */\n      swap1\n      swap2\n        /* \"@thirdweb-dev/contracts/eip/ERC721AVirtualApprove.sol\":17621:17634   */\n      and\n        /* \"@thirdweb-dev/contracts/eip/ERC721AVirtualApprove.sol\":17617:17994   */\n      tag_647\n      jumpi\n        /* \"@thirdweb-dev/contracts/eip/ERC721AVirtualApprove.sol\":17828:17841   */\n      sload(0x00)\n        /* \"@thirdweb-dev/contracts/eip/ERC721AVirtualApprove.sol\":17813:17824   */\n      dup3\n        /* \"@thirdweb-dev/contracts/eip/ERC721AVirtualApprove.sol\":17813:17841   */\n      eq\n        /* \"@thirdweb-dev/contracts/eip/ERC721AVirtualApprove.sol\":17809:17980   */\n      tag_647\n      jumpi\n        /* \"@thirdweb-dev/contracts/eip/ERC721AVirtualApprove.sol\":17865:17885   */\n      dup1\n      sload\n        /* \"@thirdweb-dev/contracts/eip/ERC721AVirtualApprove.sol\":17933:17961   */\n      0x20\n      dup8\n      add\n      mload\n        /* \"@thirdweb-dev/contracts/eip/ERC721AVirtualApprove.sol\":17907:17961   */\n      0xffffffffffffffff\n      and\n      shl(0xa0, 0x01)\n      mul\n      not(sub(shl(0xe0, 0x01), 0x01))\n      swap1\n      swap2\n      and\n      sub(shl(0xa0, 0x01), 0x01)\n        /* \"@thirdweb-dev/contracts/eip/ERC721AVirtualApprove.sol\":17865:17885   */\n      dup8\n      and\n        /* \"@thirdweb-dev/contracts/eip/ERC721AVirtualApprove.sol\":17907:17961   */\n      or\n      or\n      dup2\n      sstore\n        /* \"@thirdweb-dev/contracts/eip/ERC721AVirtualApprove.sol\":17809:17980   */\n    tag_647:\n      pop\n      pop\n        /* \"@thirdweb-dev/contracts/eip/ERC721AVirtualApprove.sol\":18019:18054   */\n      mload(0x40)\n        /* \"@thirdweb-dev/contracts/eip/ERC721AVirtualApprove.sol\":18046:18053   */\n      dup7\n      swap3\n      pop\n        /* \"@thirdweb-dev/contracts/eip/ERC721AVirtualApprove.sol\":18042:18043   */\n      0x00\n      swap2\n      pop\n      sub(shl(0xa0, 0x01), 0x01)\n        /* \"@thirdweb-dev/contracts/eip/ERC721AVirtualApprove.sol\":18019:18054   */\n      dup5\n      and\n      swap1\n      0xddf252ad1be2c89b69c2b068fc378daa952ba7f163c4a11628f55a4df523b3ef\n      swap1\n        /* \"@thirdweb-dev/contracts/eip/ERC721AVirtualApprove.sol\":18042:18043   */\n      dup4\n      swap1\n        /* \"@thirdweb-dev/contracts/eip/ERC721AVirtualApprove.sol\":18019:18054   */\n      log4\n      pop\n      pop\n        /* \"@thirdweb-dev/contracts/eip/ERC721AVirtualApprove.sol\":18237:18249   */\n      0x01\n        /* \"@thirdweb-dev/contracts/eip/ERC721AVirtualApprove.sol\":18237:18251   */\n      dup1\n      sload\n      dup2\n      add\n      swap1\n      sstore\n      pop\n      pop\n        /* \"@thirdweb-dev/contracts/eip/ERC721AVirtualApprove.sol\":15913:18268   */\n      jump\t// out\n        /* \"@thirdweb-dev/contracts/extension/Royalty.sol\":3717:4078   */\n    tag_393:\n        /* \"@thirdweb-dev/contracts/extension/Royalty.sol\":3836:3842   */\n      0x2710\n        /* \"@thirdweb-dev/contracts/extension/Royalty.sol\":3822:3833   */\n      dup2\n        /* \"@thirdweb-dev/contracts/extension/Royalty.sol\":3822:3842   */\n      gt\n        /* \"@thirdweb-dev/contracts/extension/Royalty.sol\":3818:3921   */\n      iszero\n      tag_652\n      jumpi\n        /* \"@thirdweb-dev/contracts/extension/Royalty.sol\":3865:3910   */\n      mload(0x40)\n      shl(0xe3, 0x0a4930ad)\n      dup2\n      mstore\n        /* \"@thirdweb-dev/contracts/extension/Royalty.sol\":3890:3896   */\n      0x2710\n        /* \"@thirdweb-dev/contracts/extension/Royalty.sol\":3865:3910   */\n      0x04\n      dup3\n      add\n        /* \"#utility.yul\":22200:22225   */\n      mstore\n        /* \"#utility.yul\":22241:22259   */\n      0x24\n      dup2\n      add\n        /* \"#utility.yul\":22234:22268   */\n      dup3\n      swap1\n      mstore\n        /* \"#utility.yul\":22173:22191   */\n      0x44\n      add\n        /* \"@thirdweb-dev/contracts/extension/Royalty.sol\":3865:3910   */\n      tag_284\n        /* \"#utility.yul\":22014:22274   */\n      jump\n        /* \"@thirdweb-dev/contracts/extension/Royalty.sol\":3818:3921   */\n    tag_652:\n        /* \"@thirdweb-dev/contracts/extension/Royalty.sol\":3931:3947   */\n      0x0a\n        /* \"@thirdweb-dev/contracts/extension/Royalty.sol\":3931:3967   */\n      dup1\n      sload\n      sub(shl(0xa0, 0x01), 0x01)\n      dup5\n      and\n        /* \"@thirdweb-dev/contracts/extension/Royalty.sol\":3977:4009   */\n      0xffffffffffffffffffff00000000000000000000000000000000000000000000\n      swap1\n      swap2\n      and\n      dup2\n      or\n      shl(0xa0, 0x01)\n      0xffff\n      dup6\n      and\n      mul\n      or\n      swap1\n      swap2\n      sstore\n        /* \"@thirdweb-dev/contracts/extension/Royalty.sol\":4025:4071   */\n      mload(0x40)\n        /* \"#utility.yul\":3504:3529   */\n      dup3\n      dup2\n      mstore\n        /* \"@thirdweb-dev/contracts/extension/Royalty.sol\":4025:4071   */\n      0x90d7ec04bcb8978719414f82e52e4cb651db41d0e6f8cea6118c2191e6183adb\n      swap1\n        /* \"#utility.yul\":3492:3494   */\n      0x20\n        /* \"#utility.yul\":3477:3495   */\n      add\n        /* \"@thirdweb-dev/contracts/extension/Royalty.sol\":4025:4071   */\n      mload(0x40)\n      dup1\n      swap2\n      sub\n      swap1\n      log2\n        /* \"@thirdweb-dev/contracts/extension/Royalty.sol\":3717:4078   */\n      pop\n      pop\n      jump\t// out\n        /* \"@thirdweb-dev/contracts/eip/ERC721AVirtualApprove.sol\":4713:5887   */\n    tag_396:\n      0x40\n      dup1\n      mload\n      0x60\n      dup2\n      add\n      dup3\n      mstore\n      0x00\n      dup1\n      dup3\n      mstore\n      0x20\n      dup3\n      add\n      dup2\n      swap1\n      mstore\n      swap2\n      dup2\n      add\n      swap2\n      swap1\n      swap2\n      mstore\n        /* \"@thirdweb-dev/contracts/eip/ERC721AVirtualApprove.sol\":4823:4830   */\n      dup2\n        /* \"@thirdweb-dev/contracts/eip/ERC721AVirtualApprove.sol\":4921:4934   */\n      sload(0x00)\n        /* \"@thirdweb-dev/contracts/eip/ERC721AVirtualApprove.sol\":4914:4918   */\n      dup2\n        /* \"@thirdweb-dev/contracts/eip/ERC721AVirtualApprove.sol\":4914:4934   */\n      lt\n        /* \"@thirdweb-dev/contracts/eip/ERC721AVirtualApprove.sol\":4910:5823   */\n      iszero\n      tag_660\n      jumpi\n        /* \"@thirdweb-dev/contracts/eip/ERC721AVirtualApprove.sol\":4958:4989   */\n      0x00\n        /* \"@thirdweb-dev/contracts/eip/ERC721AVirtualApprove.sol\":4992:5009   */\n      dup2\n      dup2\n      mstore\n        /* \"@thirdweb-dev/contracts/eip/ERC721AVirtualApprove.sol\":4992:5003   */\n      0x04\n        /* \"@thirdweb-dev/contracts/eip/ERC721AVirtualApprove.sol\":4992:5009   */\n      0x20\n      swap1\n      dup2\n      mstore\n      0x40\n      swap2\n      dup3\n      swap1\n      keccak256\n        /* \"@thirdweb-dev/contracts/eip/ERC721AVirtualApprove.sol\":4958:5009   */\n      dup3\n      mload\n      0x60\n      dup2\n      add\n      dup5\n      mstore\n      swap1\n      sload\n      sub(shl(0xa0, 0x01), 0x01)\n      dup2\n      and\n      dup3\n      mstore\n      shl(0xa0, 0x01)\n      dup2\n      div\n      0xffffffffffffffff\n      and\n      swap3\n      dup3\n      add\n      swap3\n      swap1\n      swap3\n      mstore\n      shl(0xe0, 0x01)\n      swap1\n      swap2\n      div\n      0xff\n      and\n      iszero\n      iszero\n      swap2\n      dup2\n      add\n      dup3\n      swap1\n      mstore\n      swap1\n        /* \"@thirdweb-dev/contracts/eip/ERC721AVirtualApprove.sol\":5031:5805   */\n      tag_664\n      jumpi\n        /* \"@thirdweb-dev/contracts/eip/ERC721AVirtualApprove.sol\":5084:5098   */\n      dup1\n      mload\n      sub(shl(0xa0, 0x01), 0x01)\n        /* \"@thirdweb-dev/contracts/eip/ERC721AVirtualApprove.sol\":5084:5112   */\n      and\n      iszero\n        /* \"@thirdweb-dev/contracts/eip/ERC721AVirtualApprove.sol\":5080:5187   */\n      tag_662\n      jumpi\n        /* \"@thirdweb-dev/contracts/eip/ERC721AVirtualApprove.sol\":5151:5160   */\n      swap4\n        /* \"@thirdweb-dev/contracts/eip/ERC721AVirtualApprove.sol\":4713:5887   */\n      swap3\n      pop\n      pop\n      pop\n      jump\t// out\n        /* \"@thirdweb-dev/contracts/eip/ERC721AVirtualApprove.sol\":5080:5187   */\n    tag_662:\n      pop\n      not(0x00)\n        /* \"@thirdweb-dev/contracts/eip/ERC721AVirtualApprove.sol\":5547:5553   */\n      add\n        /* \"@thirdweb-dev/contracts/eip/ERC721AVirtualApprove.sol\":5595:5612   */\n      0x00\n      dup2\n      dup2\n      mstore\n        /* \"@thirdweb-dev/contracts/eip/ERC721AVirtualApprove.sol\":5595:5606   */\n      0x04\n        /* \"@thirdweb-dev/contracts/eip/ERC721AVirtualApprove.sol\":5595:5612   */\n      0x20\n      swap1\n      dup2\n      mstore\n      0x40\n      swap2\n      dup3\n      swap1\n      keccak256\n        /* \"@thirdweb-dev/contracts/eip/ERC721AVirtualApprove.sol\":5583:5612   */\n      dup3\n      mload\n      0x60\n      dup2\n      add\n      dup5\n      mstore\n      swap1\n      sload\n      sub(shl(0xa0, 0x01), 0x01)\n      dup2\n      and\n      dup1\n      dup4\n      mstore\n      shl(0xa0, 0x01)\n      dup3\n      div\n      0xffffffffffffffff\n      and\n      swap4\n      dup4\n      add\n      swap4\n      swap1\n      swap4\n      mstore\n      shl(0xe0, 0x01)\n      swap1\n      div\n      0xff\n      and\n      iszero\n      iszero\n      swap3\n      dup2\n      add\n      swap3\n      swap1\n      swap3\n      mstore\n        /* \"@thirdweb-dev/contracts/eip/ERC721AVirtualApprove.sol\":5646:5674   */\n      iszero\n        /* \"@thirdweb-dev/contracts/eip/ERC721AVirtualApprove.sol\":5642:5757   */\n      tag_665\n      jumpi\n        /* \"@thirdweb-dev/contracts/eip/ERC721AVirtualApprove.sol\":5717:5726   */\n      swap4\n        /* \"@thirdweb-dev/contracts/eip/ERC721AVirtualApprove.sol\":4713:5887   */\n      swap3\n      pop\n      pop\n      pop\n      jump\t// out\n        /* \"@thirdweb-dev/contracts/eip/ERC721AVirtualApprove.sol\":5642:5757   */\n    tag_665:\n        /* \"@thirdweb-dev/contracts/eip/ERC721AVirtualApprove.sol\":5504:5783   */\n      jump(tag_662)\n    tag_664:\n        /* \"@thirdweb-dev/contracts/eip/ERC721AVirtualApprove.sol\":4936:5823   */\n      pop\n        /* \"@thirdweb-dev/contracts/eip/ERC721AVirtualApprove.sol\":4910:5823   */\n    tag_660:\n        /* \"@thirdweb-dev/contracts/eip/ERC721AVirtualApprove.sol\":5849:5880   */\n      mload(0x40)\n      shl(0xe1, 0x6f96cda1)\n      dup2\n      mstore\n      0x04\n      add\n      mload(0x40)\n      dup1\n      swap2\n      sub\n      swap1\n      revert\n        /* \"@thirdweb-dev/contracts/extension/BatchMintMetadata.sol\":4992:5354   */\n    tag_406:\n        /* \"@thirdweb-dev/contracts/extension/BatchMintMetadata.sol\":5142:5167   */\n      0x00\n      dup1\n        /* \"@thirdweb-dev/contracts/extension/BatchMintMetadata.sol\":5206:5230   */\n      tag_667\n        /* \"@thirdweb-dev/contracts/extension/BatchMintMetadata.sol\":5217:5230   */\n      dup5\n        /* \"@thirdweb-dev/contracts/extension/BatchMintMetadata.sol\":5206:5214   */\n      dup7\n        /* \"@thirdweb-dev/contracts/extension/BatchMintMetadata.sol\":5206:5230   */\n      tag_431\n      jump\t// in\n    tag_667:\n        /* \"@thirdweb-dev/contracts/extension/BatchMintMetadata.sol\":5278:5286   */\n      0x0c\n        /* \"@thirdweb-dev/contracts/extension/BatchMintMetadata.sol\":5278:5300   */\n      dup1\n      sload\n      0x01\n      dup2\n      add\n      swap1\n      swap2\n      sstore\n      0xdf6966c971051c3d54ec59162606531493a51404a002842f56009d7e5cf4a8c7\n      add\n      dup2\n      swap1\n      sstore\n      0x00\n        /* \"@thirdweb-dev/contracts/extension/BatchMintMetadata.sol\":5311:5327   */\n      dup2\n      dup2\n      mstore\n        /* \"@thirdweb-dev/contracts/extension/BatchMintMetadata.sol\":5311:5318   */\n      0x0d\n        /* \"@thirdweb-dev/contracts/extension/BatchMintMetadata.sol\":5278:5300   */\n      0x20\n        /* \"@thirdweb-dev/contracts/extension/BatchMintMetadata.sol\":5311:5327   */\n      mstore\n      0x40\n      swap1\n      keccak256\n        /* \"@thirdweb-dev/contracts/extension/BatchMintMetadata.sol\":5196:5230   */\n      swap1\n      swap3\n      pop\n      dup3\n      swap2\n      pop\n        /* \"@thirdweb-dev/contracts/extension/BatchMintMetadata.sol\":5311:5347   */\n      tag_669\n        /* \"@thirdweb-dev/contracts/extension/BatchMintMetadata.sol\":5330:5347   */\n      dup5\n        /* \"@thirdweb-dev/contracts/extension/BatchMintMetadata.sol\":5311:5327   */\n      dup3\n        /* \"@thirdweb-dev/contracts/extension/BatchMintMetadata.sol\":5311:5347   */\n      tag_453\n      jump\t// in\n    tag_669:\n      pop\n        /* \"@thirdweb-dev/contracts/extension/BatchMintMetadata.sol\":4992:5354   */\n      swap4\n      pop\n      swap4\n      swap2\n      pop\n      pop\n      jump\t// out\n        /* \"@thirdweb-dev/contracts/eip/ERC721AVirtualApprove.sol\":9709:9811   */\n    tag_444:\n        /* \"@thirdweb-dev/contracts/eip/ERC721AVirtualApprove.sol\":9777:9804   */\n      tag_289\n        /* \"@thirdweb-dev/contracts/eip/ERC721AVirtualApprove.sol\":9787:9789   */\n      dup3\n        /* \"@thirdweb-dev/contracts/eip/ERC721AVirtualApprove.sol\":9791:9799   */\n      dup3\n        /* \"@thirdweb-dev/contracts/eip/ERC721AVirtualApprove.sol\":9777:9804   */\n      mload(0x40)\n      dup1\n      0x20\n      add\n      0x40\n      mstore\n      dup1\n      0x00\n      dup2\n      mstore\n      pop\n        /* \"@thirdweb-dev/contracts/eip/ERC721AVirtualApprove.sol\":9777:9786   */\n      tag_290\n        /* \"@thirdweb-dev/contracts/eip/ERC721AVirtualApprove.sol\":9777:9804   */\n      jump\t// in\n        /* \"@thirdweb-dev/contracts/extension/ContractMetadata.sol\":1393:1578   */\n    tag_459:\n        /* \"@thirdweb-dev/contracts/extension/ContractMetadata.sol\":1459:1480   */\n      0x00\n        /* \"@thirdweb-dev/contracts/extension/ContractMetadata.sol\":1483:1494   */\n      0x08\n        /* \"@thirdweb-dev/contracts/extension/ContractMetadata.sol\":1459:1494   */\n      dup1\n      sload\n      tag_675\n      swap1\n      tag_292\n      jump\t// in\n    tag_675:\n      dup1\n      0x1f\n      add\n      0x20\n      dup1\n      swap2\n      div\n      mul\n      0x20\n      add\n      mload(0x40)\n      swap1\n      dup2\n      add\n      0x40\n      mstore\n      dup1\n      swap3\n      swap2\n      swap1\n      dup2\n      dup2\n      mstore\n      0x20\n      add\n      dup3\n      dup1\n      sload\n      tag_676\n      swap1\n      tag_292\n      jump\t// in\n    tag_676:\n      dup1\n      iszero\n      tag_677\n      jumpi\n      dup1\n      0x1f\n      lt\n      tag_678\n      jumpi\n      0x0100\n      dup1\n      dup4\n      sload\n      div\n      mul\n      dup4\n      mstore\n      swap2\n      0x20\n      add\n      swap2\n      jump(tag_677)\n    tag_678:\n      dup3\n      add\n      swap2\n      swap1\n      0x00\n      mstore\n      keccak256(0x00, 0x20)\n      swap1\n    tag_679:\n      dup2\n      sload\n      dup2\n      mstore\n      swap1\n      0x01\n      add\n      swap1\n      0x20\n      add\n      dup1\n      dup4\n      gt\n      tag_679\n      jumpi\n      dup3\n      swap1\n      sub\n      0x1f\n      and\n      dup3\n      add\n      swap2\n    tag_677:\n      pop\n      pop\n      pop\n      pop\n      pop\n      swap1\n      pop\n        /* \"@thirdweb-dev/contracts/extension/ContractMetadata.sol\":1518:1522   */\n      dup2\n        /* \"@thirdweb-dev/contracts/extension/ContractMetadata.sol\":1504:1515   */\n      0x08\n        /* \"@thirdweb-dev/contracts/extension/ContractMetadata.sol\":1504:1522   */\n      swap1\n      dup2\n      tag_680\n      swap2\n      swap1\n      tag_453\n      jump\t// in\n    tag_680:\n      pop\n        /* \"@thirdweb-dev/contracts/extension/ContractMetadata.sol\":1538:1571   */\n      0xc9c7c3fe08b88b4df9d4d47ef47d2c43d55c025a0ba88ca442580ed9e7348a16\n        /* \"@thirdweb-dev/contracts/extension/ContractMetadata.sol\":1557:1564   */\n      dup2\n        /* \"@thirdweb-dev/contracts/extension/ContractMetadata.sol\":1566:1570   */\n      dup4\n        /* \"@thirdweb-dev/contracts/extension/ContractMetadata.sol\":1538:1571   */\n      mload(0x40)\n      tag_681\n      swap3\n      swap2\n      swap1\n      tag_682\n      jump\t// in\n    tag_681:\n      mload(0x40)\n      dup1\n      swap2\n      sub\n      swap1\n      log1\n        /* \"@thirdweb-dev/contracts/extension/ContractMetadata.sol\":1449:1578   */\n      pop\n        /* \"@thirdweb-dev/contracts/extension/ContractMetadata.sol\":1393:1578   */\n      pop\n      jump\t// out\n        /* \"@thirdweb-dev/contracts/extension/Royalty.sol\":4959:5311   */\n    tag_495:\n        /* \"@thirdweb-dev/contracts/extension/Royalty.sol\":5076:5082   */\n      0x2710\n        /* \"@thirdweb-dev/contracts/extension/Royalty.sol\":5069:5073   */\n      dup2\n        /* \"@thirdweb-dev/contracts/extension/Royalty.sol\":5069:5082   */\n      gt\n        /* \"@thirdweb-dev/contracts/extension/Royalty.sol\":5065:5154   */\n      iszero\n      tag_684\n      jumpi\n        /* \"@thirdweb-dev/contracts/extension/Royalty.sol\":5105:5143   */\n      mload(0x40)\n      shl(0xe3, 0x0a4930ad)\n      dup2\n      mstore\n        /* \"@thirdweb-dev/contracts/extension/Royalty.sol\":5130:5136   */\n      0x2710\n        /* \"@thirdweb-dev/contracts/extension/Royalty.sol\":5105:5143   */\n      0x04\n      dup3\n      add\n        /* \"#utility.yul\":22200:22225   */\n      mstore\n        /* \"#utility.yul\":22241:22259   */\n      0x24\n      dup2\n      add\n        /* \"#utility.yul\":22234:22268   */\n      dup3\n      swap1\n      mstore\n        /* \"#utility.yul\":22173:22191   */\n      0x44\n      add\n        /* \"@thirdweb-dev/contracts/extension/Royalty.sol\":5105:5143   */\n      tag_284\n        /* \"#utility.yul\":22014:22274   */\n      jump\n        /* \"@thirdweb-dev/contracts/extension/Royalty.sol\":5065:5154   */\n    tag_684:\n        /* \"@thirdweb-dev/contracts/extension/Royalty.sol\":5196:5245   */\n      0x40\n      dup1\n      mload\n      dup1\n      dup3\n      add\n      dup3\n      mstore\n      sub(shl(0xa0, 0x01), 0x01)\n      dup5\n      dup2\n      and\n      dup1\n      dup4\n      mstore\n      0x20\n      dup1\n      dup5\n      add\n      dup7\n      dup2\n      mstore\n      0x00\n        /* \"@thirdweb-dev/contracts/extension/Royalty.sol\":5164:5193   */\n      dup10\n      dup2\n      mstore\n        /* \"@thirdweb-dev/contracts/extension/Royalty.sol\":5164:5183   */\n      0x0b\n        /* \"@thirdweb-dev/contracts/extension/Royalty.sol\":5164:5193   */\n      dup4\n      mstore\n      dup7\n      swap1\n      keccak256\n        /* \"@thirdweb-dev/contracts/extension/Royalty.sol\":5164:5245   */\n      swap5\n      mload\n      dup6\n      sload\n      not(0xffffffffffffffffffffffffffffffffffffffff)\n      and\n      swap5\n      and\n      swap4\n      swap1\n      swap4\n      or\n      dup5\n      sstore\n      swap2\n      mload\n      0x01\n      swap1\n      swap4\n      add\n      swap3\n      swap1\n      swap3\n      sstore\n        /* \"@thirdweb-dev/contracts/extension/Royalty.sol\":5261:5304   */\n      swap2\n      mload\n        /* \"#utility.yul\":3504:3529   */\n      dup4\n      dup2\n      mstore\n        /* \"@thirdweb-dev/contracts/extension/Royalty.sol\":5196:5245   */\n      swap1\n      swap2\n        /* \"@thirdweb-dev/contracts/extension/Royalty.sol\":5164:5193   */\n      dup6\n      swap2\n        /* \"@thirdweb-dev/contracts/extension/Royalty.sol\":5261:5304   */\n      0x7365cf4122f072a3365c20d54eff9b38d73c096c28e1892ec8f5b0e403a0f12d\n      swap2\n        /* \"#utility.yul\":3477:3495   */\n      add\n        /* \"@thirdweb-dev/contracts/extension/Royalty.sol\":5261:5304   */\n      mload(0x40)\n      dup1\n      swap2\n      sub\n      swap1\n      log3\n        /* \"@thirdweb-dev/contracts/extension/Royalty.sol\":4959:5311   */\n      pop\n      pop\n      pop\n      jump\t// out\n        /* \"@thirdweb-dev/contracts/lib/Address.sol\":6671:6869   */\n    tag_519:\n        /* \"@thirdweb-dev/contracts/lib/Address.sol\":6754:6766   */\n      0x60\n        /* \"@thirdweb-dev/contracts/lib/Address.sol\":6785:6862   */\n      tag_466\n        /* \"@thirdweb-dev/contracts/lib/Address.sol\":6806:6812   */\n      dup4\n        /* \"@thirdweb-dev/contracts/lib/Address.sol\":6814:6818   */\n      dup4\n        /* \"@thirdweb-dev/contracts/lib/Address.sol\":6785:6862   */\n      mload(0x40)\n      dup1\n      0x60\n      add\n      0x40\n      mstore\n      dup1\n      0x27\n      dup2\n      mstore\n      0x20\n      add\n      data_9fdcd12e4b726339b32a442b0a448365d5d85c96b2d2cff917b4f66c63110398\n      0x27\n      swap2\n      codecopy\n        /* \"@thirdweb-dev/contracts/lib/Address.sol\":6785:6805   */\n      tag_689\n        /* \"@thirdweb-dev/contracts/lib/Address.sol\":6785:6862   */\n      jump\t// in\n        /* \"@thirdweb-dev/contracts/eip/ERC721AVirtualApprove.sol\":19019:19669   */\n    tag_536:\n        /* \"@thirdweb-dev/contracts/eip/ERC721AVirtualApprove.sol\":19197:19269   */\n      mload(0x40)\n      shl(0xe1, 0x0a85bd01)\n      dup2\n      mstore\n        /* \"@thirdweb-dev/contracts/eip/ERC721AVirtualApprove.sol\":19177:19181   */\n      0x00\n      swap1\n      sub(shl(0xa0, 0x01), 0x01)\n        /* \"@thirdweb-dev/contracts/eip/ERC721AVirtualApprove.sol\":19197:19233   */\n      dup6\n      and\n      swap1\n      0x150b7a02\n      swap1\n        /* \"@thirdweb-dev/contracts/eip/ERC721AVirtualApprove.sol\":19197:19269   */\n      tag_693\n      swap1\n        /* \"@thirdweb-dev/contracts/base/ERC721Base.sol\":8521:8531   */\n      caller\n      swap1\n        /* \"@thirdweb-dev/contracts/eip/ERC721AVirtualApprove.sol\":19248:19252   */\n      dup10\n      swap1\n        /* \"@thirdweb-dev/contracts/eip/ERC721AVirtualApprove.sol\":19254:19261   */\n      dup9\n      swap1\n        /* \"@thirdweb-dev/contracts/eip/ERC721AVirtualApprove.sol\":19263:19268   */\n      dup9\n      swap1\n        /* \"@thirdweb-dev/contracts/eip/ERC721AVirtualApprove.sol\":19197:19269   */\n      0x04\n      add\n      tag_694\n      jump\t// in\n    tag_693:\n      0x20\n      mload(0x40)\n      dup1\n      dup4\n      sub\n      dup2\n      0x00\n      dup8\n      gas\n      call\n      swap3\n      pop\n      pop\n      pop\n      dup1\n      iszero\n      tag_695\n      jumpi\n      pop\n      0x40\n      dup1\n      mload\n      0x1f\n      returndatasize\n      swap1\n      dup2\n      add\n      not(0x1f)\n      and\n      dup3\n      add\n      swap1\n      swap3\n      mstore\n      tag_696\n      swap2\n      dup2\n      add\n      swap1\n      tag_697\n      jump\t// in\n    tag_696:\n      0x01\n    tag_695:\n        /* \"@thirdweb-dev/contracts/eip/ERC721AVirtualApprove.sol\":19193:19663   */\n      tag_698\n      jumpi\n      returndatasize\n      dup1\n      dup1\n      iszero\n      tag_703\n      jumpi\n      mload(0x40)\n      swap2\n      pop\n      and(add(returndatasize, 0x3f), not(0x1f))\n      dup3\n      add\n      0x40\n      mstore\n      returndatasize\n      dup3\n      mstore\n      returndatasize\n      0x00\n      0x20\n      dup5\n      add\n      returndatacopy\n      jump(tag_702)\n    tag_703:\n      0x60\n      swap2\n      pop\n    tag_702:\n      pop\n        /* \"@thirdweb-dev/contracts/eip/ERC721AVirtualApprove.sol\":19428:19434   */\n      dup1\n        /* \"@thirdweb-dev/contracts/eip/ERC721AVirtualApprove.sol\":19428:19441   */\n      mload\n        /* \"@thirdweb-dev/contracts/eip/ERC721AVirtualApprove.sol\":19445:19446   */\n      0x00\n        /* \"@thirdweb-dev/contracts/eip/ERC721AVirtualApprove.sol\":19428:19446   */\n      sub\n        /* \"@thirdweb-dev/contracts/eip/ERC721AVirtualApprove.sol\":19424:19653   */\n      tag_704\n      jumpi\n        /* \"@thirdweb-dev/contracts/eip/ERC721AVirtualApprove.sol\":19473:19513   */\n      mload(0x40)\n      shl(0xe1, 0x68d2bf6b)\n      dup2\n      mstore\n      0x04\n      add\n      mload(0x40)\n      dup1\n      swap2\n      sub\n      swap1\n      revert\n        /* \"@thirdweb-dev/contracts/eip/ERC721AVirtualApprove.sol\":19424:19653   */\n    tag_704:\n        /* \"@thirdweb-dev/contracts/eip/ERC721AVirtualApprove.sol\":19613:19619   */\n      dup1\n        /* \"@thirdweb-dev/contracts/eip/ERC721AVirtualApprove.sol\":19607:19620   */\n      mload\n        /* \"@thirdweb-dev/contracts/eip/ERC721AVirtualApprove.sol\":19598:19604   */\n      dup2\n        /* \"@thirdweb-dev/contracts/eip/ERC721AVirtualApprove.sol\":19594:19596   */\n      0x20\n        /* \"@thirdweb-dev/contracts/eip/ERC721AVirtualApprove.sol\":19590:19605   */\n      add\n        /* \"@thirdweb-dev/contracts/eip/ERC721AVirtualApprove.sol\":19583:19621   */\n      revert\n        /* \"@thirdweb-dev/contracts/eip/ERC721AVirtualApprove.sol\":19193:19663   */\n    tag_698:\n      not(sub(shl(0xe0, 0x01), 0x01))\n        /* \"@thirdweb-dev/contracts/eip/ERC721AVirtualApprove.sol\":19315:19370   */\n      and\n      shl(0xe1, 0x0a85bd01)\n      eq\n      swap1\n      pop\n        /* \"@thirdweb-dev/contracts/eip/ERC721AVirtualApprove.sol\":19019:19669   */\n      swap5\n      swap4\n      pop\n      pop\n      pop\n      pop\n      jump\t// out\n        /* \"@thirdweb-dev/contracts/extension/BatchMintMetadata.sol\":3185:3591   */\n    tag_565:\n        /* \"@thirdweb-dev/contracts/extension/BatchMintMetadata.sol\":3247:3260   */\n      0x60\n        /* \"@thirdweb-dev/contracts/extension/BatchMintMetadata.sol\":3272:3297   */\n      0x00\n        /* \"@thirdweb-dev/contracts/extension/BatchMintMetadata.sol\":3300:3317   */\n      tag_708\n        /* \"@thirdweb-dev/contracts/extension/BatchMintMetadata.sol\":2035:2043   */\n      0x0c\n        /* \"@thirdweb-dev/contracts/extension/BatchMintMetadata.sol\":2035:2050   */\n      sload\n      swap1\n        /* \"@thirdweb-dev/contracts/extension/BatchMintMetadata.sol\":1961:2057   */\n      jump\n        /* \"@thirdweb-dev/contracts/extension/BatchMintMetadata.sol\":3300:3317   */\n    tag_708:\n        /* \"@thirdweb-dev/contracts/extension/BatchMintMetadata.sol\":3272:3317   */\n      swap1\n      pop\n        /* \"@thirdweb-dev/contracts/extension/BatchMintMetadata.sol\":3327:3351   */\n      0x00\n        /* \"@thirdweb-dev/contracts/extension/BatchMintMetadata.sol\":3354:3362   */\n      0x0c\n        /* \"@thirdweb-dev/contracts/extension/BatchMintMetadata.sol\":3327:3362   */\n      dup1\n      sload\n      dup1\n      0x20\n      mul\n      0x20\n      add\n      mload(0x40)\n      swap1\n      dup2\n      add\n      0x40\n      mstore\n      dup1\n      swap3\n      swap2\n      swap1\n      dup2\n      dup2\n      mstore\n      0x20\n      add\n      dup3\n      dup1\n      sload\n      dup1\n      iszero\n      tag_709\n      jumpi\n      0x20\n      mul\n      dup3\n      add\n      swap2\n      swap1\n      0x00\n      mstore\n      keccak256(0x00, 0x20)\n      swap1\n    tag_710:\n      dup2\n      sload\n      dup2\n      mstore\n      0x20\n      add\n      swap1\n      0x01\n      add\n      swap1\n      dup1\n      dup4\n      gt\n      tag_710\n      jumpi\n    tag_709:\n      pop\n      pop\n      pop\n      pop\n      pop\n      swap1\n      pop\n        /* \"@thirdweb-dev/contracts/extension/BatchMintMetadata.sol\":3378:3387   */\n      0x00\n        /* \"@thirdweb-dev/contracts/extension/BatchMintMetadata.sol\":3373:3534   */\n    tag_711:\n        /* \"@thirdweb-dev/contracts/extension/BatchMintMetadata.sol\":3397:3414   */\n      dup3\n        /* \"@thirdweb-dev/contracts/extension/BatchMintMetadata.sol\":3393:3394   */\n      dup2\n        /* \"@thirdweb-dev/contracts/extension/BatchMintMetadata.sol\":3393:3414   */\n      lt\n        /* \"@thirdweb-dev/contracts/extension/BatchMintMetadata.sol\":3373:3534   */\n      iszero\n      tag_712\n      jumpi\n        /* \"@thirdweb-dev/contracts/extension/BatchMintMetadata.sol\":3453:3460   */\n      dup2\n        /* \"@thirdweb-dev/contracts/extension/BatchMintMetadata.sol\":3461:3462   */\n      dup2\n        /* \"@thirdweb-dev/contracts/extension/BatchMintMetadata.sol\":3453:3463   */\n      dup2\n      mload\n      dup2\n      lt\n      tag_715\n      jumpi\n      tag_715\n      tag_340\n      jump\t// in\n    tag_715:\n      0x20\n      mul\n      0x20\n      add\n      add\n      mload\n        /* \"@thirdweb-dev/contracts/extension/BatchMintMetadata.sol\":3442:3450   */\n      dup6\n        /* \"@thirdweb-dev/contracts/extension/BatchMintMetadata.sol\":3442:3463   */\n      lt\n        /* \"@thirdweb-dev/contracts/extension/BatchMintMetadata.sol\":3438:3524   */\n      iszero\n      tag_716\n      jumpi\n        /* \"@thirdweb-dev/contracts/extension/BatchMintMetadata.sol\":3490:3497   */\n      0x0d\n        /* \"@thirdweb-dev/contracts/extension/BatchMintMetadata.sol\":3490:3509   */\n      0x00\n        /* \"@thirdweb-dev/contracts/extension/BatchMintMetadata.sol\":3498:3505   */\n      dup4\n        /* \"@thirdweb-dev/contracts/extension/BatchMintMetadata.sol\":3506:3507   */\n      dup4\n        /* \"@thirdweb-dev/contracts/extension/BatchMintMetadata.sol\":3498:3508   */\n      dup2\n      mload\n      dup2\n      lt\n      tag_718\n      jumpi\n      tag_718\n      tag_340\n      jump\t// in\n    tag_718:\n      0x20\n      mul\n      0x20\n      add\n      add\n      mload\n        /* \"@thirdweb-dev/contracts/extension/BatchMintMetadata.sol\":3490:3509   */\n      dup2\n      mstore\n      0x20\n      add\n      swap1\n      dup2\n      mstore\n      0x20\n      add\n      0x00\n      keccak256\n        /* \"@thirdweb-dev/contracts/extension/BatchMintMetadata.sol\":3483:3509   */\n      dup1\n      sload\n      tag_719\n      swap1\n      tag_292\n      jump\t// in\n    tag_719:\n      dup1\n      0x1f\n      add\n      0x20\n      dup1\n      swap2\n      div\n      mul\n      0x20\n      add\n      mload(0x40)\n      swap1\n      dup2\n      add\n      0x40\n      mstore\n      dup1\n      swap3\n      swap2\n      swap1\n      dup2\n      dup2\n      mstore\n      0x20\n      add\n      dup3\n      dup1\n      sload\n      tag_720\n      swap1\n      tag_292\n      jump\t// in\n    tag_720:\n      dup1\n      iszero\n      tag_721\n      jumpi\n      dup1\n      0x1f\n      lt\n      tag_722\n      jumpi\n      0x0100\n      dup1\n      dup4\n      sload\n      div\n      mul\n      dup4\n      mstore\n      swap2\n      0x20\n      add\n      swap2\n      jump(tag_721)\n    tag_722:\n      dup3\n      add\n      swap2\n      swap1\n      0x00\n      mstore\n      keccak256(0x00, 0x20)\n      swap1\n    tag_723:\n      dup2\n      sload\n      dup2\n      mstore\n      swap1\n      0x01\n      add\n      swap1\n      0x20\n      add\n      dup1\n      dup4\n      gt\n      tag_723\n      jumpi\n      dup3\n      swap1\n      sub\n      0x1f\n      and\n      dup3\n      add\n      swap2\n    tag_721:\n      pop\n      pop\n      pop\n      pop\n      pop\n      swap4\n      pop\n      pop\n      pop\n      pop\n        /* \"@thirdweb-dev/contracts/extension/BatchMintMetadata.sol\":3185:3591   */\n      swap2\n      swap1\n      pop\n      jump\t// out\n        /* \"@thirdweb-dev/contracts/extension/BatchMintMetadata.sol\":3438:3524   */\n    tag_716:\n        /* \"@thirdweb-dev/contracts/extension/BatchMintMetadata.sol\":3416:3422   */\n      tag_724\n        /* \"@thirdweb-dev/contracts/extension/BatchMintMetadata.sol\":3421:3422   */\n      0x01\n        /* \"@thirdweb-dev/contracts/extension/BatchMintMetadata.sol\":3416:3422   */\n      dup3\n      tag_431\n      jump\t// in\n    tag_724:\n      swap1\n      pop\n        /* \"@thirdweb-dev/contracts/extension/BatchMintMetadata.sol\":3373:3534   */\n      jump(tag_711)\n    tag_712:\n      pop\n        /* \"@thirdweb-dev/contracts/extension/BatchMintMetadata.sol\":3551:3584   */\n      mload(0x40)\n      shl(0xe2, 0x09797f69)\n      dup2\n      mstore\n      0x04\n      dup2\n      add\n        /* \"#utility.yul\":3504:3529   */\n      dup6\n      swap1\n      mstore\n        /* \"#utility.yul\":3477:3495   */\n      0x24\n      add\n        /* \"@thirdweb-dev/contracts/extension/BatchMintMetadata.sol\":3551:3584   */\n      tag_284\n        /* \"#utility.yul\":3358:3535   */\n      jump\n        /* \"@thirdweb-dev/contracts/lib/Strings.sol\":303:1006   */\n    tag_567:\n        /* \"@thirdweb-dev/contracts/lib/Strings.sol\":359:372   */\n      0x60\n        /* \"@thirdweb-dev/contracts/lib/Strings.sol\":576:581   */\n      dup2\n        /* \"@thirdweb-dev/contracts/lib/Strings.sol\":585:586   */\n      0x00\n        /* \"@thirdweb-dev/contracts/lib/Strings.sol\":576:586   */\n      sub\n        /* \"@thirdweb-dev/contracts/lib/Strings.sol\":572:623   */\n      tag_727\n      jumpi\n      pop\n      pop\n        /* \"@thirdweb-dev/contracts/lib/Strings.sol\":602:612   */\n      0x40\n      dup1\n      mload\n      dup1\n      dup3\n      add\n      swap1\n      swap2\n      mstore\n      0x01\n      dup2\n      mstore\n      shl(0xfc, 0x03)\n      0x20\n      dup3\n      add\n      mstore\n      swap1\n        /* \"@thirdweb-dev/contracts/lib/Strings.sol\":303:1006   */\n      jump\t// out\n        /* \"@thirdweb-dev/contracts/lib/Strings.sol\":572:623   */\n    tag_727:\n        /* \"@thirdweb-dev/contracts/lib/Strings.sol\":647:652   */\n      dup2\n        /* \"@thirdweb-dev/contracts/lib/Strings.sol\":632:644   */\n      0x00\n        /* \"@thirdweb-dev/contracts/lib/Strings.sol\":686:761   */\n    tag_728:\n        /* \"@thirdweb-dev/contracts/lib/Strings.sol\":693:702   */\n      dup2\n      iszero\n        /* \"@thirdweb-dev/contracts/lib/Strings.sol\":686:761   */\n      tag_729\n      jumpi\n        /* \"@thirdweb-dev/contracts/lib/Strings.sol\":718:726   */\n      dup1\n      tag_730\n      dup2\n      tag_731\n      jump\t// in\n    tag_730:\n      swap2\n      pop\n        /* \"@thirdweb-dev/contracts/lib/Strings.sol\":740:750   */\n      tag_732\n      swap1\n      pop\n        /* \"@thirdweb-dev/contracts/lib/Strings.sol\":748:750   */\n      0x0a\n        /* \"@thirdweb-dev/contracts/lib/Strings.sol\":740:750   */\n      dup4\n      tag_347\n      jump\t// in\n    tag_732:\n      swap2\n      pop\n        /* \"@thirdweb-dev/contracts/lib/Strings.sol\":686:761   */\n      jump(tag_728)\n    tag_729:\n        /* \"@thirdweb-dev/contracts/lib/Strings.sol\":770:789   */\n      0x00\n        /* \"@thirdweb-dev/contracts/lib/Strings.sol\":802:808   */\n      dup2\n        /* \"@thirdweb-dev/contracts/lib/Strings.sol\":792:809   */\n      0xffffffffffffffff\n      dup2\n      gt\n      iszero\n      tag_734\n      jumpi\n      tag_734\n      tag_375\n      jump\t// in\n    tag_734:\n      mload(0x40)\n      swap1\n      dup1\n      dup3\n      mstore\n      dup1\n      0x1f\n      add\n      not(0x1f)\n      and\n      0x20\n      add\n      dup3\n      add\n      0x40\n      mstore\n      dup1\n      iszero\n      tag_735\n      jumpi\n      0x20\n      dup3\n      add\n      dup2\n      dup1\n      calldatasize\n      dup4\n      calldatacopy\n      add\n      swap1\n      pop\n    tag_735:\n      pop\n        /* \"@thirdweb-dev/contracts/lib/Strings.sol\":770:809   */\n      swap1\n      pop\n        /* \"@thirdweb-dev/contracts/lib/Strings.sol\":819:969   */\n    tag_736:\n        /* \"@thirdweb-dev/contracts/lib/Strings.sol\":826:836   */\n      dup5\n      iszero\n        /* \"@thirdweb-dev/contracts/lib/Strings.sol\":819:969   */\n      tag_367\n      jumpi\n        /* \"@thirdweb-dev/contracts/lib/Strings.sol\":852:863   */\n      tag_738\n        /* \"@thirdweb-dev/contracts/lib/Strings.sol\":862:863   */\n      0x01\n        /* \"@thirdweb-dev/contracts/lib/Strings.sol\":852:863   */\n      dup4\n      tag_739\n      jump\t// in\n    tag_738:\n      swap2\n      pop\n        /* \"@thirdweb-dev/contracts/lib/Strings.sol\":920:930   */\n      tag_740\n        /* \"@thirdweb-dev/contracts/lib/Strings.sol\":928:930   */\n      0x0a\n        /* \"@thirdweb-dev/contracts/lib/Strings.sol\":920:925   */\n      dup7\n        /* \"@thirdweb-dev/contracts/lib/Strings.sol\":920:930   */\n      tag_741\n      jump\t// in\n    tag_740:\n        /* \"@thirdweb-dev/contracts/lib/Strings.sol\":907:931   */\n      tag_742\n      swap1\n        /* \"@thirdweb-dev/contracts/lib/Strings.sol\":907:909   */\n      0x30\n        /* \"@thirdweb-dev/contracts/lib/Strings.sol\":907:931   */\n      tag_431\n      jump\t// in\n    tag_742:\n        /* \"@thirdweb-dev/contracts/lib/Strings.sol\":894:933   */\n      0xf8\n      shl\n        /* \"@thirdweb-dev/contracts/lib/Strings.sol\":877:883   */\n      dup2\n        /* \"@thirdweb-dev/contracts/lib/Strings.sol\":884:890   */\n      dup4\n        /* \"@thirdweb-dev/contracts/lib/Strings.sol\":877:891   */\n      dup2\n      mload\n      dup2\n      lt\n      tag_744\n      jumpi\n      tag_744\n      tag_340\n      jump\t// in\n    tag_744:\n      0x20\n      add\n      add\n        /* \"@thirdweb-dev/contracts/lib/Strings.sol\":877:933   */\n      swap1\n      not(0xffffffffffffffffffffffffffffffffffffffffffffffffffffffffffffff)\n      and\n      swap1\n      dup2\n      0x00\n      byte\n      swap1\n      mstore8\n      pop\n        /* \"@thirdweb-dev/contracts/lib/Strings.sol\":947:958   */\n      tag_745\n        /* \"@thirdweb-dev/contracts/lib/Strings.sol\":956:958   */\n      0x0a\n        /* \"@thirdweb-dev/contracts/lib/Strings.sol\":947:958   */\n      dup7\n      tag_347\n      jump\t// in\n    tag_745:\n      swap5\n      pop\n        /* \"@thirdweb-dev/contracts/lib/Strings.sol\":819:969   */\n      jump(tag_736)\n        /* \"@thirdweb-dev/contracts/lib/Address.sol\":7055:7380   */\n    tag_689:\n        /* \"@thirdweb-dev/contracts/lib/Address.sol\":7196:7208   */\n      0x60\n        /* \"@thirdweb-dev/contracts/lib/Address.sol\":7221:7233   */\n      0x00\n        /* \"@thirdweb-dev/contracts/lib/Address.sol\":7235:7258   */\n      dup1\n        /* \"@thirdweb-dev/contracts/lib/Address.sol\":7262:7268   */\n      dup6\n      sub(shl(0xa0, 0x01), 0x01)\n        /* \"@thirdweb-dev/contracts/lib/Address.sol\":7262:7281   */\n      and\n        /* \"@thirdweb-dev/contracts/lib/Address.sol\":7282:7286   */\n      dup6\n        /* \"@thirdweb-dev/contracts/lib/Address.sol\":7262:7287   */\n      mload(0x40)\n      tag_749\n      swap2\n      swap1\n      tag_750\n      jump\t// in\n    tag_749:\n      0x00\n      mload(0x40)\n      dup1\n      dup4\n      sub\n      dup2\n      dup6\n      gas\n      delegatecall\n      swap2\n      pop\n      pop\n      returndatasize\n      dup1\n      0x00\n      dup2\n      eq\n      tag_753\n      jumpi\n      mload(0x40)\n      swap2\n      pop\n      and(add(returndatasize, 0x3f), not(0x1f))\n      dup3\n      add\n      0x40\n      mstore\n      returndatasize\n      dup3\n      mstore\n      returndatasize\n      0x00\n      0x20\n      dup5\n      add\n      returndatacopy\n      jump(tag_752)\n    tag_753:\n      0x60\n      swap2\n      pop\n    tag_752:\n      pop\n        /* \"@thirdweb-dev/contracts/lib/Address.sol\":7220:7287   */\n      swap2\n      pop\n      swap2\n      pop\n        /* \"@thirdweb-dev/contracts/lib/Address.sol\":7304:7373   */\n      tag_754\n        /* \"@thirdweb-dev/contracts/lib/Address.sol\":7331:7337   */\n      dup7\n        /* \"@thirdweb-dev/contracts/lib/Address.sol\":7339:7346   */\n      dup4\n        /* \"@thirdweb-dev/contracts/lib/Address.sol\":7348:7358   */\n      dup4\n        /* \"@thirdweb-dev/contracts/lib/Address.sol\":7360:7372   */\n      dup8\n        /* \"@thirdweb-dev/contracts/lib/Address.sol\":7304:7330   */\n      tag_755\n        /* \"@thirdweb-dev/contracts/lib/Address.sol\":7304:7373   */\n      jump\t// in\n    tag_754:\n        /* \"@thirdweb-dev/contracts/lib/Address.sol\":7297:7373   */\n      swap7\n        /* \"@thirdweb-dev/contracts/lib/Address.sol\":7055:7380   */\n      swap6\n      pop\n      pop\n      pop\n      pop\n      pop\n      pop\n      jump\t// out\n        /* \"@thirdweb-dev/contracts/lib/Address.sol\":7668:8296   */\n    tag_755:\n        /* \"@thirdweb-dev/contracts/lib/Address.sol\":7848:7860   */\n      0x60\n        /* \"@thirdweb-dev/contracts/lib/Address.sol\":7876:7883   */\n      dup4\n        /* \"@thirdweb-dev/contracts/lib/Address.sol\":7872:8290   */\n      iszero\n      tag_757\n      jumpi\n        /* \"@thirdweb-dev/contracts/lib/Address.sol\":7903:7913   */\n      dup3\n        /* \"@thirdweb-dev/contracts/lib/Address.sol\":7903:7920   */\n      mload\n        /* \"@thirdweb-dev/contracts/lib/Address.sol\":7924:7925   */\n      0x00\n        /* \"@thirdweb-dev/contracts/lib/Address.sol\":7903:7925   */\n      sub\n        /* \"@thirdweb-dev/contracts/lib/Address.sol\":7899:8185   */\n      tag_760\n      jumpi\n      sub(shl(0xa0, 0x01), 0x01)\n        /* \"@thirdweb-dev/contracts/lib/Address.sol\":1695:1714   */\n      dup6\n      and\n      extcodesize\n        /* \"@thirdweb-dev/contracts/lib/Address.sol\":8110:8170   */\n      tag_760\n      jumpi\n      mload(0x40)\n      shl(0xe5, 0x461bcd)\n      dup2\n      mstore\n        /* \"#utility.yul\":24258:24260   */\n      0x20\n        /* \"@thirdweb-dev/contracts/lib/Address.sol\":8110:8170   */\n      0x04\n      dup3\n      add\n        /* \"#utility.yul\":24240:24261   */\n      mstore\n        /* \"#utility.yul\":24297:24299   */\n      0x1d\n        /* \"#utility.yul\":24277:24295   */\n      0x24\n      dup3\n      add\n        /* \"#utility.yul\":24270:24300   */\n      mstore\n        /* \"#utility.yul\":24336:24367   */\n      0x416464726573733a2063616c6c20746f206e6f6e2d636f6e7472616374000000\n        /* \"#utility.yul\":24316:24334   */\n      0x44\n      dup3\n      add\n        /* \"#utility.yul\":24309:24368   */\n      mstore\n        /* \"#utility.yul\":24385:24403   */\n      0x64\n      add\n        /* \"@thirdweb-dev/contracts/lib/Address.sol\":8110:8170   */\n      tag_284\n        /* \"#utility.yul\":24056:24409   */\n      jump\n        /* \"@thirdweb-dev/contracts/lib/Address.sol\":8110:8170   */\n    tag_760:\n      pop\n        /* \"@thirdweb-dev/contracts/lib/Address.sol\":8205:8215   */\n      dup2\n        /* \"@thirdweb-dev/contracts/lib/Address.sol\":8198:8215   */\n      jump(tag_367)\n        /* \"@thirdweb-dev/contracts/lib/Address.sol\":7872:8290   */\n    tag_757:\n        /* \"@thirdweb-dev/contracts/lib/Address.sol\":8246:8279   */\n      tag_367\n        /* \"@thirdweb-dev/contracts/lib/Address.sol\":8254:8264   */\n      dup4\n        /* \"@thirdweb-dev/contracts/lib/Address.sol\":8266:8278   */\n      dup4\n        /* \"@thirdweb-dev/contracts/lib/Address.sol\":8977:8994   */\n      dup2\n      mload\n        /* \"@thirdweb-dev/contracts/lib/Address.sol\":8977:8998   */\n      iszero\n        /* \"@thirdweb-dev/contracts/lib/Address.sol\":8973:9352   */\n      tag_767\n      jumpi\n        /* \"@thirdweb-dev/contracts/lib/Address.sol\":9205:9215   */\n      dup2\n        /* \"@thirdweb-dev/contracts/lib/Address.sol\":9199:9216   */\n      mload\n        /* \"@thirdweb-dev/contracts/lib/Address.sol\":9261:9276   */\n      dup1\n        /* \"@thirdweb-dev/contracts/lib/Address.sol\":9248:9258   */\n      dup4\n        /* \"@thirdweb-dev/contracts/lib/Address.sol\":9244:9246   */\n      0x20\n        /* \"@thirdweb-dev/contracts/lib/Address.sol\":9240:9259   */\n      add\n        /* \"@thirdweb-dev/contracts/lib/Address.sol\":9233:9277   */\n      revert\n        /* \"@thirdweb-dev/contracts/lib/Address.sol\":8973:9352   */\n    tag_767:\n        /* \"@thirdweb-dev/contracts/lib/Address.sol\":9328:9340   */\n      dup1\n        /* \"@thirdweb-dev/contracts/lib/Address.sol\":9321:9341   */\n      mload(0x40)\n      shl(0xe5, 0x461bcd)\n      dup2\n      mstore\n      0x04\n      add\n      tag_284\n      swap2\n      swap1\n      tag_72\n      jump\t// in\n        /* \"#utility.yul\":14:210   */\n    tag_770:\n        /* \"#utility.yul\":82:102   */\n      dup1\n      calldataload\n      sub(shl(0xa0, 0x01), 0x01)\n        /* \"#utility.yul\":131:185   */\n      dup2\n      and\n        /* \"#utility.yul\":121:186   */\n      dup2\n      eq\n        /* \"#utility.yul\":111:204   */\n      tag_787\n      jumpi\n        /* \"#utility.yul\":200:201   */\n      0x00\n        /* \"#utility.yul\":197:198   */\n      dup1\n        /* \"#utility.yul\":190:202   */\n      revert\n        /* \"#utility.yul\":111:204   */\n    tag_787:\n        /* \"#utility.yul\":14:210   */\n      swap2\n      swap1\n      pop\n      jump\t// out\n        /* \"#utility.yul\":215:342   */\n    tag_375:\n        /* \"#utility.yul\":276:286   */\n      0x4e487b71\n        /* \"#utility.yul\":271:274   */\n      0xe0\n        /* \"#utility.yul\":267:287   */\n      shl\n        /* \"#utility.yul\":264:265   */\n      0x00\n        /* \"#utility.yul\":257:288   */\n      mstore\n        /* \"#utility.yul\":307:311   */\n      0x41\n        /* \"#utility.yul\":304:305   */\n      0x04\n        /* \"#utility.yul\":297:312   */\n      mstore\n        /* \"#utility.yul\":331:335   */\n      0x24\n        /* \"#utility.yul\":328:329   */\n      0x00\n        /* \"#utility.yul\":321:336   */\n      revert\n        /* \"#utility.yul\":347:622   */\n    tag_771:\n        /* \"#utility.yul\":418:420   */\n      0x40\n        /* \"#utility.yul\":412:421   */\n      mload\n        /* \"#utility.yul\":483:485   */\n      0x1f\n        /* \"#utility.yul\":464:477   */\n      dup3\n      add\n      not(0x1f)\n        /* \"#utility.yul\":460:487   */\n      and\n        /* \"#utility.yul\":448:488   */\n      dup2\n      add\n        /* \"#utility.yul\":518:536   */\n      0xffffffffffffffff\n        /* \"#utility.yul\":503:537   */\n      dup2\n      gt\n        /* \"#utility.yul\":539:561   */\n      dup3\n      dup3\n      lt\n        /* \"#utility.yul\":500:562   */\n      or\n        /* \"#utility.yul\":497:585   */\n      iszero\n      tag_791\n      jumpi\n        /* \"#utility.yul\":565:583   */\n      tag_791\n      tag_375\n      jump\t// in\n    tag_791:\n        /* \"#utility.yul\":601:603   */\n      0x40\n        /* \"#utility.yul\":594:616   */\n      mstore\n        /* \"#utility.yul\":347:622   */\n      swap2\n      swap1\n      pop\n      jump\t// out\n        /* \"#utility.yul\":627:1158   */\n    tag_772:\n        /* \"#utility.yul\":670:675   */\n      0x00\n        /* \"#utility.yul\":723:726   */\n      dup3\n        /* \"#utility.yul\":716:720   */\n      0x1f\n        /* \"#utility.yul\":708:714   */\n      dup4\n        /* \"#utility.yul\":704:721   */\n      add\n        /* \"#utility.yul\":700:727   */\n      slt\n        /* \"#utility.yul\":690:745   */\n      tag_793\n      jumpi\n        /* \"#utility.yul\":741:742   */\n      0x00\n        /* \"#utility.yul\":738:739   */\n      dup1\n        /* \"#utility.yul\":731:743   */\n      revert\n        /* \"#utility.yul\":690:745   */\n    tag_793:\n        /* \"#utility.yul\":777:783   */\n      dup2\n        /* \"#utility.yul\":764:784   */\n      calldataload\n        /* \"#utility.yul\":803:821   */\n      0xffffffffffffffff\n        /* \"#utility.yul\":799:801   */\n      dup2\n        /* \"#utility.yul\":796:822   */\n      gt\n        /* \"#utility.yul\":793:845   */\n      iszero\n      tag_795\n      jumpi\n        /* \"#utility.yul\":825:843   */\n      tag_795\n      tag_375\n      jump\t// in\n    tag_795:\n        /* \"#utility.yul\":869:924   */\n      tag_796\n        /* \"#utility.yul\":912:914   */\n      0x1f\n        /* \"#utility.yul\":893:906   */\n      dup3\n      add\n      not(0x1f)\n        /* \"#utility.yul\":889:916   */\n      and\n        /* \"#utility.yul\":918:922   */\n      0x20\n        /* \"#utility.yul\":885:923   */\n      add\n        /* \"#utility.yul\":869:924   */\n      tag_771\n      jump\t// in\n    tag_796:\n        /* \"#utility.yul\":949:951   */\n      dup2\n        /* \"#utility.yul\":940:947   */\n      dup2\n        /* \"#utility.yul\":933:952   */\n      mstore\n        /* \"#utility.yul\":995:998   */\n      dup5\n        /* \"#utility.yul\":988:992   */\n      0x20\n        /* \"#utility.yul\":983:985   */\n      dup4\n        /* \"#utility.yul\":975:981   */\n      dup7\n        /* \"#utility.yul\":971:986   */\n      add\n        /* \"#utility.yul\":967:993   */\n      add\n        /* \"#utility.yul\":964:999   */\n      gt\n        /* \"#utility.yul\":961:1016   */\n      iszero\n      tag_797\n      jumpi\n        /* \"#utility.yul\":1012:1013   */\n      0x00\n        /* \"#utility.yul\":1009:1010   */\n      dup1\n        /* \"#utility.yul\":1002:1014   */\n      revert\n        /* \"#utility.yul\":961:1016   */\n    tag_797:\n        /* \"#utility.yul\":1077:1079   */\n      dup2\n        /* \"#utility.yul\":1070:1074   */\n      0x20\n        /* \"#utility.yul\":1062:1068   */\n      dup6\n        /* \"#utility.yul\":1058:1075   */\n      add\n        /* \"#utility.yul\":1051:1055   */\n      0x20\n        /* \"#utility.yul\":1042:1049   */\n      dup4\n        /* \"#utility.yul\":1038:1056   */\n      add\n        /* \"#utility.yul\":1025:1080   */\n      calldatacopy\n        /* \"#utility.yul\":1125:1126   */\n      0x00\n        /* \"#utility.yul\":1100:1116   */\n      swap2\n      dup2\n      add\n        /* \"#utility.yul\":1118:1122   */\n      0x20\n        /* \"#utility.yul\":1096:1123   */\n      add\n        /* \"#utility.yul\":1089:1127   */\n      swap2\n      swap1\n      swap2\n      mstore\n        /* \"#utility.yul\":1104:1111   */\n      swap4\n        /* \"#utility.yul\":627:1158   */\n      swap3\n      pop\n      pop\n      pop\n      jump\t// out\n        /* \"#utility.yul\":1163:1559   */\n    tag_64:\n        /* \"#utility.yul\":1241:1247   */\n      0x00\n        /* \"#utility.yul\":1249:1255   */\n      dup1\n        /* \"#utility.yul\":1302:1304   */\n      0x40\n        /* \"#utility.yul\":1290:1299   */\n      dup4\n        /* \"#utility.yul\":1281:1288   */\n      dup6\n        /* \"#utility.yul\":1277:1300   */\n      sub\n        /* \"#utility.yul\":1273:1305   */\n      slt\n        /* \"#utility.yul\":1270:1322   */\n      iszero\n      tag_799\n      jumpi\n        /* \"#utility.yul\":1318:1319   */\n      0x00\n        /* \"#utility.yul\":1315:1316   */\n      dup1\n        /* \"#utility.yul\":1308:1320   */\n      revert\n        /* \"#utility.yul\":1270:1322   */\n    tag_799:\n        /* \"#utility.yul\":1341:1370   */\n      tag_800\n        /* \"#utility.yul\":1360:1369   */\n      dup4\n        /* \"#utility.yul\":1341:1370   */\n      tag_770\n      jump\t// in\n    tag_800:\n        /* \"#utility.yul\":1331:1370   */\n      swap2\n      pop\n        /* \"#utility.yul\":1421:1423   */\n      0x20\n        /* \"#utility.yul\":1410:1419   */\n      dup4\n        /* \"#utility.yul\":1406:1424   */\n      add\n        /* \"#utility.yul\":1393:1425   */\n      calldataload\n        /* \"#utility.yul\":1448:1466   */\n      0xffffffffffffffff\n        /* \"#utility.yul\":1440:1446   */\n      dup2\n        /* \"#utility.yul\":1437:1467   */\n      gt\n        /* \"#utility.yul\":1434:1484   */\n      iszero\n      tag_801\n      jumpi\n        /* \"#utility.yul\":1480:1481   */\n      0x00\n        /* \"#utility.yul\":1477:1478   */\n      dup1\n        /* \"#utility.yul\":1470:1482   */\n      revert\n        /* \"#utility.yul\":1434:1484   */\n    tag_801:\n        /* \"#utility.yul\":1503:1553   */\n      tag_802\n        /* \"#utility.yul\":1545:1552   */\n      dup6\n        /* \"#utility.yul\":1536:1542   */\n      dup3\n        /* \"#utility.yul\":1525:1534   */\n      dup7\n        /* \"#utility.yul\":1521:1543   */\n      add\n        /* \"#utility.yul\":1503:1553   */\n      tag_772\n      jump\t// in\n    tag_802:\n        /* \"#utility.yul\":1493:1553   */\n      swap2\n      pop\n      pop\n        /* \"#utility.yul\":1163:1559   */\n      swap3\n      pop\n      swap3\n      swap1\n      pop\n      jump\t// out\n        /* \"#utility.yul\":1564:1744   */\n    tag_69:\n        /* \"#utility.yul\":1623:1629   */\n      0x00\n        /* \"#utility.yul\":1676:1678   */\n      0x20\n        /* \"#utility.yul\":1664:1673   */\n      dup3\n        /* \"#utility.yul\":1655:1662   */\n      dup5\n        /* \"#utility.yul\":1651:1674   */\n      sub\n        /* \"#utility.yul\":1647:1679   */\n      slt\n        /* \"#utility.yul\":1644:1696   */\n      iszero\n      tag_804\n      jumpi\n        /* \"#utility.yul\":1692:1693   */\n      0x00\n        /* \"#utility.yul\":1689:1690   */\n      dup1\n        /* \"#utility.yul\":1682:1694   */\n      revert\n        /* \"#utility.yul\":1644:1696   */\n    tag_804:\n      pop\n        /* \"#utility.yul\":1715:1738   */\n      calldataload\n      swap2\n        /* \"#utility.yul\":1564:1744   */\n      swap1\n      pop\n      jump\t// out\n        /* \"#utility.yul\":1749:2049   */\n    tag_773:\n        /* \"#utility.yul\":1802:1805   */\n      0x00\n        /* \"#utility.yul\":1840:1845   */\n      dup2\n        /* \"#utility.yul\":1834:1846   */\n      mload\n        /* \"#utility.yul\":1867:1873   */\n      dup1\n        /* \"#utility.yul\":1862:1865   */\n      dup5\n        /* \"#utility.yul\":1855:1874   */\n      mstore\n        /* \"#utility.yul\":1923:1929   */\n      dup1\n        /* \"#utility.yul\":1916:1920   */\n      0x20\n        /* \"#utility.yul\":1909:1914   */\n      dup5\n        /* \"#utility.yul\":1905:1921   */\n      add\n        /* \"#utility.yul\":1898:1902   */\n      0x20\n        /* \"#utility.yul\":1893:1896   */\n      dup7\n        /* \"#utility.yul\":1889:1903   */\n      add\n        /* \"#utility.yul\":1883:1930   */\n      mcopy\n        /* \"#utility.yul\":1975:1976   */\n      0x00\n        /* \"#utility.yul\":1968:1972   */\n      0x20\n        /* \"#utility.yul\":1959:1965   */\n      dup3\n        /* \"#utility.yul\":1954:1957   */\n      dup7\n        /* \"#utility.yul\":1950:1966   */\n      add\n        /* \"#utility.yul\":1946:1973   */\n      add\n        /* \"#utility.yul\":1939:1977   */\n      mstore\n        /* \"#utility.yul\":2038:2042   */\n      0x20\n        /* \"#utility.yul\":2031:2033   */\n      0x1f\n        /* \"#utility.yul\":2027:2034   */\n      not\n        /* \"#utility.yul\":2022:2024   */\n      0x1f\n        /* \"#utility.yul\":2014:2020   */\n      dup4\n        /* \"#utility.yul\":2010:2025   */\n      add\n        /* \"#utility.yul\":2006:2035   */\n      and\n        /* \"#utility.yul\":2001:2004   */\n      dup6\n        /* \"#utility.yul\":1997:2036   */\n      add\n        /* \"#utility.yul\":1993:2043   */\n      add\n        /* \"#utility.yul\":1986:2043   */\n      swap2\n      pop\n      pop\n        /* \"#utility.yul\":1749:2049   */\n      swap3\n      swap2\n      pop\n      pop\n      jump\t// out\n        /* \"#utility.yul\":2054:2285   */\n    tag_72:\n        /* \"#utility.yul\":2203:2205   */\n      0x20\n        /* \"#utility.yul\":2192:2201   */\n      dup2\n        /* \"#utility.yul\":2185:2206   */\n      mstore\n        /* \"#utility.yul\":2166:2170   */\n      0x00\n        /* \"#utility.yul\":2223:2279   */\n      tag_466\n        /* \"#utility.yul\":2275:2277   */\n      0x20\n        /* \"#utility.yul\":2264:2273   */\n      dup4\n        /* \"#utility.yul\":2260:2278   */\n      add\n        /* \"#utility.yul\":2252:2258   */\n      dup5\n        /* \"#utility.yul\":2223:2279   */\n      tag_773\n      jump\t// in\n        /* \"#utility.yul\":2290:2421   */\n    tag_774:\n      not(sub(shl(0xe0, 0x01), 0x01))\n        /* \"#utility.yul\":2364:2396   */\n      dup2\n      and\n        /* \"#utility.yul\":2354:2397   */\n      dup2\n      eq\n        /* \"#utility.yul\":2344:2415   */\n      tag_326\n      jumpi\n        /* \"#utility.yul\":2411:2412   */\n      0x00\n        /* \"#utility.yul\":2408:2409   */\n      dup1\n        /* \"#utility.yul\":2401:2413   */\n      revert\n        /* \"#utility.yul\":2426:2671   */\n    tag_76:\n        /* \"#utility.yul\":2484:2490   */\n      0x00\n        /* \"#utility.yul\":2537:2539   */\n      0x20\n        /* \"#utility.yul\":2525:2534   */\n      dup3\n        /* \"#utility.yul\":2516:2523   */\n      dup5\n        /* \"#utility.yul\":2512:2535   */\n      sub\n        /* \"#utility.yul\":2508:2540   */\n      slt\n        /* \"#utility.yul\":2505:2557   */\n      iszero\n      tag_811\n      jumpi\n        /* \"#utility.yul\":2553:2554   */\n      0x00\n        /* \"#utility.yul\":2550:2551   */\n      dup1\n        /* \"#utility.yul\":2543:2555   */\n      revert\n        /* \"#utility.yul\":2505:2557   */\n    tag_811:\n        /* \"#utility.yul\":2592:2601   */\n      dup2\n        /* \"#utility.yul\":2579:2602   */\n      calldataload\n        /* \"#utility.yul\":2611:2641   */\n      tag_466\n        /* \"#utility.yul\":2635:2640   */\n      dup2\n        /* \"#utility.yul\":2611:2641   */\n      tag_774\n      jump\t// in\n        /* \"#utility.yul\":3099:3353   */\n    tag_93:\n        /* \"#utility.yul\":3167:3173   */\n      0x00\n        /* \"#utility.yul\":3175:3181   */\n      dup1\n        /* \"#utility.yul\":3228:3230   */\n      0x40\n        /* \"#utility.yul\":3216:3225   */\n      dup4\n        /* \"#utility.yul\":3207:3214   */\n      dup6\n        /* \"#utility.yul\":3203:3226   */\n      sub\n        /* \"#utility.yul\":3199:3231   */\n      slt\n        /* \"#utility.yul\":3196:3248   */\n      iszero\n      tag_816\n      jumpi\n        /* \"#utility.yul\":3244:3245   */\n      0x00\n        /* \"#utility.yul\":3241:3242   */\n      dup1\n        /* \"#utility.yul\":3234:3246   */\n      revert\n        /* \"#utility.yul\":3196:3248   */\n    tag_816:\n        /* \"#utility.yul\":3267:3296   */\n      tag_817\n        /* \"#utility.yul\":3286:3295   */\n      dup4\n        /* \"#utility.yul\":3267:3296   */\n      tag_770\n      jump\t// in\n    tag_817:\n        /* \"#utility.yul\":3257:3296   */\n      swap5\n        /* \"#utility.yul\":3343:3345   */\n      0x20\n        /* \"#utility.yul\":3328:3346   */\n      swap4\n      swap1\n      swap4\n      add\n        /* \"#utility.yul\":3315:3347   */\n      calldataload\n      swap4\n      pop\n      pop\n      pop\n        /* \"#utility.yul\":3099:3353   */\n      jump\t// out\n        /* \"#utility.yul\":3540:3726   */\n    tag_103:\n        /* \"#utility.yul\":3599:3605   */\n      0x00\n        /* \"#utility.yul\":3652:3654   */\n      0x20\n        /* \"#utility.yul\":3640:3649   */\n      dup3\n        /* \"#utility.yul\":3631:3638   */\n      dup5\n        /* \"#utility.yul\":3627:3650   */\n      sub\n        /* \"#utility.yul\":3623:3655   */\n      slt\n        /* \"#utility.yul\":3620:3672   */\n      iszero\n      tag_820\n      jumpi\n        /* \"#utility.yul\":3668:3669   */\n      0x00\n        /* \"#utility.yul\":3665:3666   */\n      dup1\n        /* \"#utility.yul\":3658:3670   */\n      revert\n        /* \"#utility.yul\":3620:3672   */\n    tag_820:\n        /* \"#utility.yul\":3691:3720   */\n      tag_466\n        /* \"#utility.yul\":3710:3719   */\n      dup3\n        /* \"#utility.yul\":3691:3720   */\n      tag_770\n      jump\t// in\n        /* \"#utility.yul\":3731:4059   */\n    tag_117:\n        /* \"#utility.yul\":3808:3814   */\n      0x00\n        /* \"#utility.yul\":3816:3822   */\n      dup1\n        /* \"#utility.yul\":3824:3830   */\n      0x00\n        /* \"#utility.yul\":3877:3879   */\n      0x60\n        /* \"#utility.yul\":3865:3874   */\n      dup5\n        /* \"#utility.yul\":3856:3863   */\n      dup7\n        /* \"#utility.yul\":3852:3875   */\n      sub\n        /* \"#utility.yul\":3848:3880   */\n      slt\n        /* \"#utility.yul\":3845:3897   */\n      iszero\n      tag_823\n      jumpi\n        /* \"#utility.yul\":3893:3894   */\n      0x00\n        /* \"#utility.yul\":3890:3891   */\n      dup1\n        /* \"#utility.yul\":3883:3895   */\n      revert\n        /* \"#utility.yul\":3845:3897   */\n    tag_823:\n        /* \"#utility.yul\":3916:3945   */\n      tag_824\n        /* \"#utility.yul\":3935:3944   */\n      dup5\n        /* \"#utility.yul\":3916:3945   */\n      tag_770\n      jump\t// in\n    tag_824:\n        /* \"#utility.yul\":3906:3945   */\n      swap3\n      pop\n        /* \"#utility.yul\":3964:4002   */\n      tag_825\n        /* \"#utility.yul\":3998:4000   */\n      0x20\n        /* \"#utility.yul\":3987:3996   */\n      dup6\n        /* \"#utility.yul\":3983:4001   */\n      add\n        /* \"#utility.yul\":3964:4002   */\n      tag_770\n      jump\t// in\n    tag_825:\n        /* \"#utility.yul\":3954:4002   */\n      swap2\n      pop\n        /* \"#utility.yul\":4049:4051   */\n      0x40\n        /* \"#utility.yul\":4038:4047   */\n      dup5\n        /* \"#utility.yul\":4034:4052   */\n      add\n        /* \"#utility.yul\":4021:4053   */\n      calldataload\n        /* \"#utility.yul\":4011:4053   */\n      swap1\n      pop\n        /* \"#utility.yul\":3731:4059   */\n      swap3\n      pop\n      swap3\n      pop\n      swap3\n      jump\t// out\n        /* \"#utility.yul\":4064:4312   */\n    tag_127:\n        /* \"#utility.yul\":4132:4138   */\n      0x00\n        /* \"#utility.yul\":4140:4146   */\n      dup1\n        /* \"#utility.yul\":4193:4195   */\n      0x40\n        /* \"#utility.yul\":4181:4190   */\n      dup4\n        /* \"#utility.yul\":4172:4179   */\n      dup6\n        /* \"#utility.yul\":4168:4191   */\n      sub\n        /* \"#utility.yul\":4164:4196   */\n      slt\n        /* \"#utility.yul\":4161:4213   */\n      iszero\n      tag_827\n      jumpi\n        /* \"#utility.yul\":4209:4210   */\n      0x00\n        /* \"#utility.yul\":4206:4207   */\n      dup1\n        /* \"#utility.yul\":4199:4211   */\n      revert\n        /* \"#utility.yul\":4161:4213   */\n    tag_827:\n      pop\n      pop\n        /* \"#utility.yul\":4232:4255   */\n      dup1\n      calldataload\n      swap3\n        /* \"#utility.yul\":4302:4304   */\n      0x20\n        /* \"#utility.yul\":4287:4305   */\n      swap1\n      swap2\n      add\n        /* \"#utility.yul\":4274:4306   */\n      calldataload\n      swap2\n      pop\n        /* \"#utility.yul\":4064:4312   */\n      jump\t// out\n        /* \"#utility.yul\":4932:5115   */\n    tag_775:\n        /* \"#utility.yul\":4992:4996   */\n      0x00\n        /* \"#utility.yul\":5025:5043   */\n      0xffffffffffffffff\n        /* \"#utility.yul\":5017:5023   */\n      dup3\n        /* \"#utility.yul\":5014:5044   */\n      gt\n        /* \"#utility.yul\":5011:5067   */\n      iszero\n      tag_832\n      jumpi\n        /* \"#utility.yul\":5047:5065   */\n      tag_832\n      tag_375\n      jump\t// in\n    tag_832:\n      pop\n        /* \"#utility.yul\":5092:5093   */\n      0x05\n        /* \"#utility.yul\":5088:5102   */\n      shl\n        /* \"#utility.yul\":5104:5108   */\n      0x20\n        /* \"#utility.yul\":5084:5109   */\n      add\n      swap1\n        /* \"#utility.yul\":4932:5115   */\n      jump\t// out\n        /* \"#utility.yul\":5120:5788   */\n    tag_776:\n        /* \"#utility.yul\":5174:5179   */\n      0x00\n        /* \"#utility.yul\":5227:5230   */\n      dup3\n        /* \"#utility.yul\":5220:5224   */\n      0x1f\n        /* \"#utility.yul\":5212:5218   */\n      dup4\n        /* \"#utility.yul\":5208:5225   */\n      add\n        /* \"#utility.yul\":5204:5231   */\n      slt\n        /* \"#utility.yul\":5194:5249   */\n      tag_834\n      jumpi\n        /* \"#utility.yul\":5245:5246   */\n      0x00\n        /* \"#utility.yul\":5242:5243   */\n      dup1\n        /* \"#utility.yul\":5235:5247   */\n      revert\n        /* \"#utility.yul\":5194:5249   */\n    tag_834:\n        /* \"#utility.yul\":5281:5287   */\n      dup2\n        /* \"#utility.yul\":5268:5288   */\n      calldataload\n        /* \"#utility.yul\":5307:5311   */\n      0x20\n        /* \"#utility.yul\":5331:5391   */\n      tag_835\n        /* \"#utility.yul\":5347:5390   */\n      tag_836\n        /* \"#utility.yul\":5387:5389   */\n      dup4\n        /* \"#utility.yul\":5347:5390   */\n      tag_775\n      jump\t// in\n    tag_836:\n        /* \"#utility.yul\":5331:5391   */\n      tag_771\n      jump\t// in\n    tag_835:\n        /* \"#utility.yul\":5413:5416   */\n      dup1\n        /* \"#utility.yul\":5437:5439   */\n      dup4\n        /* \"#utility.yul\":5432:5435   */\n      dup3\n        /* \"#utility.yul\":5425:5440   */\n      mstore\n        /* \"#utility.yul\":5465:5469   */\n      0x20\n        /* \"#utility.yul\":5460:5463   */\n      dup3\n        /* \"#utility.yul\":5456:5470   */\n      add\n        /* \"#utility.yul\":5449:5470   */\n      swap2\n      pop\n        /* \"#utility.yul\":5522:5526   */\n      0x20\n        /* \"#utility.yul\":5516:5518   */\n      dup5\n        /* \"#utility.yul\":5513:5514   */\n      0x05\n        /* \"#utility.yul\":5509:5519   */\n      shl\n        /* \"#utility.yul\":5501:5507   */\n      dup8\n        /* \"#utility.yul\":5497:5520   */\n      add\n        /* \"#utility.yul\":5493:5527   */\n      add\n        /* \"#utility.yul\":5479:5527   */\n      swap4\n      pop\n        /* \"#utility.yul\":5550:5553   */\n      dup7\n        /* \"#utility.yul\":5542:5548   */\n      dup5\n        /* \"#utility.yul\":5539:5554   */\n      gt\n        /* \"#utility.yul\":5536:5571   */\n      iszero\n      tag_837\n      jumpi\n        /* \"#utility.yul\":5567:5568   */\n      0x00\n        /* \"#utility.yul\":5564:5565   */\n      dup1\n        /* \"#utility.yul\":5557:5569   */\n      revert\n        /* \"#utility.yul\":5536:5571   */\n    tag_837:\n        /* \"#utility.yul\":5603:5607   */\n      0x20\n        /* \"#utility.yul\":5595:5601   */\n      dup7\n        /* \"#utility.yul\":5591:5608   */\n      add\n        /* \"#utility.yul\":5617:5759   */\n    tag_838:\n        /* \"#utility.yul\":5633:5639   */\n      dup5\n        /* \"#utility.yul\":5628:5631   */\n      dup2\n        /* \"#utility.yul\":5625:5640   */\n      lt\n        /* \"#utility.yul\":5617:5759   */\n      iszero\n      tag_840\n      jumpi\n        /* \"#utility.yul\":5699:5716   */\n      dup1\n      calldataload\n        /* \"#utility.yul\":5687:5717   */\n      dup4\n      mstore\n        /* \"#utility.yul\":5737:5749   */\n      swap2\n      dup4\n      add\n      swap2\n        /* \"#utility.yul\":5650:5662   */\n      dup4\n      add\n        /* \"#utility.yul\":5617:5759   */\n      jump(tag_838)\n    tag_840:\n      pop\n        /* \"#utility.yul\":5777:5782   */\n      swap7\n        /* \"#utility.yul\":5120:5788   */\n      swap6\n      pop\n      pop\n      pop\n      pop\n      pop\n      pop\n      jump\t// out\n        /* \"#utility.yul\":5793:6141   */\n    tag_164:\n        /* \"#utility.yul\":5877:5883   */\n      0x00\n        /* \"#utility.yul\":5930:5932   */\n      0x20\n        /* \"#utility.yul\":5918:5927   */\n      dup3\n        /* \"#utility.yul\":5909:5916   */\n      dup5\n        /* \"#utility.yul\":5905:5928   */\n      sub\n        /* \"#utility.yul\":5901:5933   */\n      slt\n        /* \"#utility.yul\":5898:5950   */\n      iszero\n      tag_842\n      jumpi\n        /* \"#utility.yul\":5946:5947   */\n      0x00\n        /* \"#utility.yul\":5943:5944   */\n      dup1\n        /* \"#utility.yul\":5936:5948   */\n      revert\n        /* \"#utility.yul\":5898:5950   */\n    tag_842:\n        /* \"#utility.yul\":5986:5995   */\n      dup2\n        /* \"#utility.yul\":5973:5996   */\n      calldataload\n        /* \"#utility.yul\":6019:6037   */\n      0xffffffffffffffff\n        /* \"#utility.yul\":6011:6017   */\n      dup2\n        /* \"#utility.yul\":6008:6038   */\n      gt\n        /* \"#utility.yul\":6005:6055   */\n      iszero\n      tag_843\n      jumpi\n        /* \"#utility.yul\":6051:6052   */\n      0x00\n        /* \"#utility.yul\":6048:6049   */\n      dup1\n        /* \"#utility.yul\":6041:6053   */\n      revert\n        /* \"#utility.yul\":6005:6055   */\n    tag_843:\n        /* \"#utility.yul\":6074:6135   */\n      tag_367\n        /* \"#utility.yul\":6127:6134   */\n      dup5\n        /* \"#utility.yul\":6118:6124   */\n      dup3\n        /* \"#utility.yul\":6107:6116   */\n      dup6\n        /* \"#utility.yul\":6103:6125   */\n      add\n        /* \"#utility.yul\":6074:6135   */\n      tag_776\n      jump\t// in\n        /* \"#utility.yul\":6452:7176   */\n    tag_167:\n        /* \"#utility.yul\":6687:6689   */\n      0x20\n        /* \"#utility.yul\":6739:6760   */\n      dup1\n      dup3\n      mstore\n        /* \"#utility.yul\":6809:6822   */\n      dup3\n      mload\n        /* \"#utility.yul\":6712:6730   */\n      dup3\n      dup3\n      add\n        /* \"#utility.yul\":6831:6853   */\n      dup2\n      swap1\n      mstore\n        /* \"#utility.yul\":6658:6662   */\n      0x00\n      swap2\n        /* \"#utility.yul\":6687:6689   */\n      swap1\n        /* \"#utility.yul\":6910:6925   */\n      dup5\n      dup3\n      add\n      swap1\n        /* \"#utility.yul\":6884:6886   */\n      0x40\n        /* \"#utility.yul\":6869:6887   */\n      dup6\n      add\n      swap1\n        /* \"#utility.yul\":6658:6662   */\n      dup5\n        /* \"#utility.yul\":6953:7150   */\n    tag_847:\n        /* \"#utility.yul\":6967:6973   */\n      dup2\n        /* \"#utility.yul\":6964:6965   */\n      dup2\n        /* \"#utility.yul\":6961:6974   */\n      lt\n        /* \"#utility.yul\":6953:7150   */\n      iszero\n      tag_415\n      jumpi\n        /* \"#utility.yul\":7016:7068   */\n      tag_850\n        /* \"#utility.yul\":7064:7067   */\n      dup4\n        /* \"#utility.yul\":7055:7061   */\n      dup6\n        /* \"#utility.yul\":7049:7062   */\n      mload\n        /* \"#utility.yul\":6230:6242   */\n      dup1\n      mload\n      sub(shl(0xa0, 0x01), 0x01)\n        /* \"#utility.yul\":6226:6287   */\n      and\n        /* \"#utility.yul\":6214:6288   */\n      dup3\n      mstore\n        /* \"#utility.yul\":6341:6345   */\n      0x20\n        /* \"#utility.yul\":6330:6346   */\n      dup1\n      dup3\n      add\n        /* \"#utility.yul\":6324:6347   */\n      mload\n        /* \"#utility.yul\":6349:6367   */\n      0xffffffffffffffff\n        /* \"#utility.yul\":6320:6368   */\n      and\n        /* \"#utility.yul\":6304:6318   */\n      swap1\n      dup4\n      add\n        /* \"#utility.yul\":6297:6369   */\n      mstore\n        /* \"#utility.yul\":6432:6436   */\n      0x40\n        /* \"#utility.yul\":6421:6437   */\n      swap1\n      dup2\n      add\n        /* \"#utility.yul\":6415:6438   */\n      mload\n        /* \"#utility.yul\":6408:6439   */\n      iszero\n        /* \"#utility.yul\":6401:6440   */\n      iszero\n        /* \"#utility.yul\":6385:6399   */\n      swap2\n      add\n        /* \"#utility.yul\":6378:6441   */\n      mstore\n        /* \"#utility.yul\":6146:6447   */\n      jump\n        /* \"#utility.yul\":7016:7068   */\n    tag_850:\n        /* \"#utility.yul\":7125:7140   */\n      swap3\n      dup5\n      add\n      swap3\n        /* \"#utility.yul\":7097:7101   */\n      0x60\n        /* \"#utility.yul\":7088:7102   */\n      swap3\n      swap1\n      swap3\n      add\n      swap2\n        /* \"#utility.yul\":6989:6990   */\n      0x01\n        /* \"#utility.yul\":6982:6991   */\n      add\n        /* \"#utility.yul\":6953:7150   */\n      jump(tag_847)\n        /* \"#utility.yul\":7181:7866   */\n    tag_189:\n        /* \"#utility.yul\":7286:7292   */\n      0x00\n        /* \"#utility.yul\":7294:7300   */\n      dup1\n        /* \"#utility.yul\":7302:7308   */\n      0x00\n        /* \"#utility.yul\":7310:7316   */\n      dup1\n        /* \"#utility.yul\":7363:7366   */\n      0x80\n        /* \"#utility.yul\":7351:7360   */\n      dup6\n        /* \"#utility.yul\":7342:7349   */\n      dup8\n        /* \"#utility.yul\":7338:7361   */\n      sub\n        /* \"#utility.yul\":7334:7367   */\n      slt\n        /* \"#utility.yul\":7331:7384   */\n      iszero\n      tag_852\n      jumpi\n        /* \"#utility.yul\":7380:7381   */\n      0x00\n        /* \"#utility.yul\":7377:7378   */\n      dup1\n        /* \"#utility.yul\":7370:7382   */\n      revert\n        /* \"#utility.yul\":7331:7384   */\n    tag_852:\n        /* \"#utility.yul\":7403:7432   */\n      tag_853\n        /* \"#utility.yul\":7422:7431   */\n      dup6\n        /* \"#utility.yul\":7403:7432   */\n      tag_770\n      jump\t// in\n    tag_853:\n        /* \"#utility.yul\":7393:7432   */\n      swap4\n      pop\n        /* \"#utility.yul\":7479:7481   */\n      0x20\n        /* \"#utility.yul\":7468:7477   */\n      dup6\n        /* \"#utility.yul\":7464:7482   */\n      add\n        /* \"#utility.yul\":7451:7483   */\n      calldataload\n        /* \"#utility.yul\":7441:7483   */\n      swap3\n      pop\n        /* \"#utility.yul\":7534:7536   */\n      0x40\n        /* \"#utility.yul\":7523:7532   */\n      dup6\n        /* \"#utility.yul\":7519:7537   */\n      add\n        /* \"#utility.yul\":7506:7538   */\n      calldataload\n        /* \"#utility.yul\":7557:7575   */\n      0xffffffffffffffff\n        /* \"#utility.yul\":7598:7600   */\n      dup1\n        /* \"#utility.yul\":7590:7596   */\n      dup3\n        /* \"#utility.yul\":7587:7601   */\n      gt\n        /* \"#utility.yul\":7584:7618   */\n      iszero\n      tag_854\n      jumpi\n        /* \"#utility.yul\":7614:7615   */\n      0x00\n        /* \"#utility.yul\":7611:7612   */\n      dup1\n        /* \"#utility.yul\":7604:7616   */\n      revert\n        /* \"#utility.yul\":7584:7618   */\n    tag_854:\n        /* \"#utility.yul\":7637:7687   */\n      tag_855\n        /* \"#utility.yul\":7679:7686   */\n      dup9\n        /* \"#utility.yul\":7670:7676   */\n      dup4\n        /* \"#utility.yul\":7659:7668   */\n      dup10\n        /* \"#utility.yul\":7655:7677   */\n      add\n        /* \"#utility.yul\":7637:7687   */\n      tag_772\n      jump\t// in\n    tag_855:\n        /* \"#utility.yul\":7627:7687   */\n      swap4\n      pop\n        /* \"#utility.yul\":7740:7742   */\n      0x60\n        /* \"#utility.yul\":7729:7738   */\n      dup8\n        /* \"#utility.yul\":7725:7743   */\n      add\n        /* \"#utility.yul\":7712:7744   */\n      calldataload\n        /* \"#utility.yul\":7696:7744   */\n      swap2\n      pop\n        /* \"#utility.yul\":7769:7771   */\n      dup1\n        /* \"#utility.yul\":7759:7767   */\n      dup3\n        /* \"#utility.yul\":7756:7772   */\n      gt\n        /* \"#utility.yul\":7753:7789   */\n      iszero\n      tag_856\n      jumpi\n        /* \"#utility.yul\":7785:7786   */\n      0x00\n        /* \"#utility.yul\":7782:7783   */\n      dup1\n        /* \"#utility.yul\":7775:7787   */\n      revert\n        /* \"#utility.yul\":7753:7789   */\n    tag_856:\n      pop\n        /* \"#utility.yul\":7808:7860   */\n      tag_857\n        /* \"#utility.yul\":7852:7859   */\n      dup8\n        /* \"#utility.yul\":7841:7849   */\n      dup3\n        /* \"#utility.yul\":7830:7839   */\n      dup9\n        /* \"#utility.yul\":7826:7850   */\n      add\n        /* \"#utility.yul\":7808:7860   */\n      tag_772\n      jump\t// in\n    tag_857:\n        /* \"#utility.yul\":7798:7860   */\n      swap2\n      pop\n      pop\n        /* \"#utility.yul\":7181:7866   */\n      swap3\n      swap6\n      swap2\n      swap5\n      pop\n      swap3\n      pop\n      jump\t// out\n        /* \"#utility.yul\":7871:8503   */\n    tag_201:\n        /* \"#utility.yul\":8042:8044   */\n      0x20\n        /* \"#utility.yul\":8094:8115   */\n      dup1\n      dup3\n      mstore\n        /* \"#utility.yul\":8164:8177   */\n      dup3\n      mload\n        /* \"#utility.yul\":8067:8085   */\n      dup3\n      dup3\n      add\n        /* \"#utility.yul\":8186:8208   */\n      dup2\n      swap1\n      mstore\n        /* \"#utility.yul\":8013:8017   */\n      0x00\n      swap2\n        /* \"#utility.yul\":8042:8044   */\n      swap1\n        /* \"#utility.yul\":8265:8280   */\n      dup5\n      dup3\n      add\n      swap1\n        /* \"#utility.yul\":8239:8241   */\n      0x40\n        /* \"#utility.yul\":8224:8242   */\n      dup6\n      add\n      swap1\n        /* \"#utility.yul\":8013:8017   */\n      dup5\n        /* \"#utility.yul\":8308:8477   */\n    tag_859:\n        /* \"#utility.yul\":8322:8328   */\n      dup2\n        /* \"#utility.yul\":8319:8320   */\n      dup2\n        /* \"#utility.yul\":8316:8329   */\n      lt\n        /* \"#utility.yul\":8308:8477   */\n      iszero\n      tag_415\n      jumpi\n        /* \"#utility.yul\":8383:8396   */\n      dup4\n      mload\n        /* \"#utility.yul\":8371:8397   */\n      dup4\n      mstore\n        /* \"#utility.yul\":8452:8467   */\n      swap3\n      dup5\n      add\n      swap3\n        /* \"#utility.yul\":8417:8429   */\n      swap2\n      dup5\n      add\n      swap2\n        /* \"#utility.yul\":8344:8345   */\n      0x01\n        /* \"#utility.yul\":8337:8346   */\n      add\n        /* \"#utility.yul\":8308:8477   */\n      jump(tag_859)\n        /* \"#utility.yul\":8508:9326   */\n    tag_778:\n        /* \"#utility.yul\":8561:8566   */\n      0x00\n        /* \"#utility.yul\":8614:8617   */\n      dup3\n        /* \"#utility.yul\":8607:8611   */\n      0x1f\n        /* \"#utility.yul\":8599:8605   */\n      dup4\n        /* \"#utility.yul\":8595:8612   */\n      add\n        /* \"#utility.yul\":8591:8618   */\n      slt\n        /* \"#utility.yul\":8581:8636   */\n      tag_863\n      jumpi\n        /* \"#utility.yul\":8632:8633   */\n      0x00\n        /* \"#utility.yul\":8629:8630   */\n      dup1\n        /* \"#utility.yul\":8622:8634   */\n      revert\n        /* \"#utility.yul\":8581:8636   */\n    tag_863:\n        /* \"#utility.yul\":8668:8674   */\n      dup2\n        /* \"#utility.yul\":8655:8675   */\n      calldataload\n        /* \"#utility.yul\":8694:8698   */\n      0x20\n        /* \"#utility.yul\":8718:8778   */\n      tag_864\n        /* \"#utility.yul\":8734:8777   */\n      tag_836\n        /* \"#utility.yul\":8774:8776   */\n      dup4\n        /* \"#utility.yul\":8734:8777   */\n      tag_775\n      jump\t// in\n        /* \"#utility.yul\":8718:8778   */\n    tag_864:\n        /* \"#utility.yul\":8812:8827   */\n      dup3\n      dup2\n      mstore\n        /* \"#utility.yul\":8898:8899   */\n      0x05\n        /* \"#utility.yul\":8894:8904   */\n      swap3\n      swap1\n      swap3\n      shl\n        /* \"#utility.yul\":8882:8905   */\n      dup5\n      add\n        /* \"#utility.yul\":8878:8910   */\n      dup2\n      add\n      swap2\n        /* \"#utility.yul\":8843:8855   */\n      dup2\n      dup2\n      add\n      swap1\n        /* \"#utility.yul\":8922:8937   */\n      dup7\n      dup5\n      gt\n        /* \"#utility.yul\":8919:8954   */\n      iszero\n      tag_866\n      jumpi\n        /* \"#utility.yul\":8950:8951   */\n      0x00\n        /* \"#utility.yul\":8947:8948   */\n      dup1\n        /* \"#utility.yul\":8940:8952   */\n      revert\n        /* \"#utility.yul\":8919:8954   */\n    tag_866:\n        /* \"#utility.yul\":8986:8988   */\n      dup3\n        /* \"#utility.yul\":8978:8984   */\n      dup7\n        /* \"#utility.yul\":8974:8989   */\n      add\n        /* \"#utility.yul\":8998:9297   */\n    tag_867:\n        /* \"#utility.yul\":9014:9020   */\n      dup5\n        /* \"#utility.yul\":9009:9012   */\n      dup2\n        /* \"#utility.yul\":9006:9021   */\n      lt\n        /* \"#utility.yul\":8998:9297   */\n      iszero\n      tag_840\n      jumpi\n        /* \"#utility.yul\":9100:9103   */\n      dup1\n        /* \"#utility.yul\":9087:9104   */\n      calldataload\n        /* \"#utility.yul\":9136:9154   */\n      0xffffffffffffffff\n        /* \"#utility.yul\":9123:9134   */\n      dup2\n        /* \"#utility.yul\":9120:9155   */\n      gt\n        /* \"#utility.yul\":9117:9172   */\n      iszero\n      tag_870\n      jumpi\n        /* \"#utility.yul\":9168:9169   */\n      0x00\n        /* \"#utility.yul\":9165:9166   */\n      dup1\n        /* \"#utility.yul\":9158:9170   */\n      revert\n        /* \"#utility.yul\":9117:9172   */\n    tag_870:\n        /* \"#utility.yul\":9197:9254   */\n      tag_871\n        /* \"#utility.yul\":9250:9253   */\n      dup10\n        /* \"#utility.yul\":9245:9247   */\n      dup7\n        /* \"#utility.yul\":9231:9242   */\n      dup4\n        /* \"#utility.yul\":9223:9229   */\n      dup12\n        /* \"#utility.yul\":9219:9243   */\n      add\n        /* \"#utility.yul\":9215:9248   */\n      add\n        /* \"#utility.yul\":9197:9254   */\n      tag_772\n      jump\t// in\n    tag_871:\n        /* \"#utility.yul\":9185:9255   */\n      dup5\n      mstore\n      pop\n        /* \"#utility.yul\":9275:9287   */\n      swap2\n      dup4\n      add\n      swap2\n        /* \"#utility.yul\":9031:9043   */\n      dup4\n      add\n        /* \"#utility.yul\":8998:9297   */\n      jump(tag_867)\n        /* \"#utility.yul\":9331:10245   */\n    tag_208:\n        /* \"#utility.yul\":9512:9518   */\n      0x00\n        /* \"#utility.yul\":9520:9526   */\n      dup1\n        /* \"#utility.yul\":9528:9534   */\n      0x00\n        /* \"#utility.yul\":9536:9542   */\n      dup1\n        /* \"#utility.yul\":9589:9592   */\n      0x80\n        /* \"#utility.yul\":9577:9586   */\n      dup6\n        /* \"#utility.yul\":9568:9575   */\n      dup8\n        /* \"#utility.yul\":9564:9587   */\n      sub\n        /* \"#utility.yul\":9560:9593   */\n      slt\n        /* \"#utility.yul\":9557:9610   */\n      iszero\n      tag_873\n      jumpi\n        /* \"#utility.yul\":9606:9607   */\n      0x00\n        /* \"#utility.yul\":9603:9604   */\n      dup1\n        /* \"#utility.yul\":9596:9608   */\n      revert\n        /* \"#utility.yul\":9557:9610   */\n    tag_873:\n        /* \"#utility.yul\":9629:9658   */\n      tag_874\n        /* \"#utility.yul\":9648:9657   */\n      dup6\n        /* \"#utility.yul\":9629:9658   */\n      tag_770\n      jump\t// in\n    tag_874:\n        /* \"#utility.yul\":9619:9658   */\n      swap4\n      pop\n        /* \"#utility.yul\":9709:9711   */\n      0x20\n        /* \"#utility.yul\":9698:9707   */\n      dup6\n        /* \"#utility.yul\":9694:9712   */\n      add\n        /* \"#utility.yul\":9681:9713   */\n      calldataload\n        /* \"#utility.yul\":9732:9750   */\n      0xffffffffffffffff\n        /* \"#utility.yul\":9773:9775   */\n      dup1\n        /* \"#utility.yul\":9765:9771   */\n      dup3\n        /* \"#utility.yul\":9762:9776   */\n      gt\n        /* \"#utility.yul\":9759:9793   */\n      iszero\n      tag_875\n      jumpi\n        /* \"#utility.yul\":9789:9790   */\n      0x00\n        /* \"#utility.yul\":9786:9787   */\n      dup1\n        /* \"#utility.yul\":9779:9791   */\n      revert\n        /* \"#utility.yul\":9759:9793   */\n    tag_875:\n        /* \"#utility.yul\":9812:9872   */\n      tag_876\n        /* \"#utility.yul\":9864:9871   */\n      dup9\n        /* \"#utility.yul\":9855:9861   */\n      dup4\n        /* \"#utility.yul\":9844:9853   */\n      dup10\n        /* \"#utility.yul\":9840:9862   */\n      add\n        /* \"#utility.yul\":9812:9872   */\n      tag_778\n      jump\t// in\n    tag_876:\n        /* \"#utility.yul\":9802:9872   */\n      swap5\n      pop\n        /* \"#utility.yul\":9925:9927   */\n      0x40\n        /* \"#utility.yul\":9914:9923   */\n      dup8\n        /* \"#utility.yul\":9910:9928   */\n      add\n        /* \"#utility.yul\":9897:9929   */\n      calldataload\n        /* \"#utility.yul\":9881:9929   */\n      swap2\n      pop\n        /* \"#utility.yul\":9954:9956   */\n      dup1\n        /* \"#utility.yul\":9944:9952   */\n      dup3\n        /* \"#utility.yul\":9941:9957   */\n      gt\n        /* \"#utility.yul\":9938:9974   */\n      iszero\n      tag_877\n      jumpi\n        /* \"#utility.yul\":9970:9971   */\n      0x00\n        /* \"#utility.yul\":9967:9968   */\n      dup1\n        /* \"#utility.yul\":9960:9972   */\n      revert\n        /* \"#utility.yul\":9938:9974   */\n    tag_877:\n        /* \"#utility.yul\":9993:10056   */\n      tag_878\n        /* \"#utility.yul\":10048:10055   */\n      dup9\n        /* \"#utility.yul\":10037:10045   */\n      dup4\n        /* \"#utility.yul\":10026:10035   */\n      dup10\n        /* \"#utility.yul\":10022:10046   */\n      add\n        /* \"#utility.yul\":9993:10056   */\n      tag_776\n      jump\t// in\n    tag_878:\n        /* \"#utility.yul\":9983:10056   */\n      swap4\n      pop\n        /* \"#utility.yul\":10109:10111   */\n      0x60\n        /* \"#utility.yul\":10098:10107   */\n      dup8\n        /* \"#utility.yul\":10094:10112   */\n      add\n        /* \"#utility.yul\":10081:10113   */\n      calldataload\n        /* \"#utility.yul\":10065:10113   */\n      swap2\n      pop\n        /* \"#utility.yul\":10138:10140   */\n      dup1\n        /* \"#utility.yul\":10128:10136   */\n      dup3\n        /* \"#utility.yul\":10125:10141   */\n      gt\n        /* \"#utility.yul\":10122:10158   */\n      iszero\n      tag_879\n      jumpi\n        /* \"#utility.yul\":10154:10155   */\n      0x00\n        /* \"#utility.yul\":10151:10152   */\n      dup1\n        /* \"#utility.yul\":10144:10156   */\n      revert\n        /* \"#utility.yul\":10122:10158   */\n    tag_879:\n      pop\n        /* \"#utility.yul\":10177:10239   */\n      tag_857\n        /* \"#utility.yul\":10231:10238   */\n      dup8\n        /* \"#utility.yul\":10220:10228   */\n      dup3\n        /* \"#utility.yul\":10209:10218   */\n      dup9\n        /* \"#utility.yul\":10205:10229   */\n      add\n        /* \"#utility.yul\":10177:10239   */\n      tag_778\n      jump\t// in\n        /* \"#utility.yul\":10250:10572   */\n    tag_213:\n        /* \"#utility.yul\":10319:10325   */\n      0x00\n        /* \"#utility.yul\":10372:10374   */\n      0x20\n        /* \"#utility.yul\":10360:10369   */\n      dup3\n        /* \"#utility.yul\":10351:10358   */\n      dup5\n        /* \"#utility.yul\":10347:10370   */\n      sub\n        /* \"#utility.yul\":10343:10375   */\n      slt\n        /* \"#utility.yul\":10340:10392   */\n      iszero\n      tag_882\n      jumpi\n        /* \"#utility.yul\":10388:10389   */\n      0x00\n        /* \"#utility.yul\":10385:10386   */\n      dup1\n        /* \"#utility.yul\":10378:10390   */\n      revert\n        /* \"#utility.yul\":10340:10392   */\n    tag_882:\n        /* \"#utility.yul\":10428:10437   */\n      dup2\n        /* \"#utility.yul\":10415:10438   */\n      calldataload\n        /* \"#utility.yul\":10461:10479   */\n      0xffffffffffffffff\n        /* \"#utility.yul\":10453:10459   */\n      dup2\n        /* \"#utility.yul\":10450:10480   */\n      gt\n        /* \"#utility.yul\":10447:10497   */\n      iszero\n      tag_883\n      jumpi\n        /* \"#utility.yul\":10493:10494   */\n      0x00\n        /* \"#utility.yul\":10490:10491   */\n      dup1\n        /* \"#utility.yul\":10483:10495   */\n      revert\n        /* \"#utility.yul\":10447:10497   */\n    tag_883:\n        /* \"#utility.yul\":10516:10566   */\n      tag_367\n        /* \"#utility.yul\":10558:10565   */\n      dup5\n        /* \"#utility.yul\":10549:10555   */\n      dup3\n        /* \"#utility.yul\":10538:10547   */\n      dup6\n        /* \"#utility.yul\":10534:10556   */\n      add\n        /* \"#utility.yul\":10516:10566   */\n      tag_772\n      jump\t// in\n        /* \"#utility.yul\":10577:10899   */\n    tag_222:\n        /* \"#utility.yul\":10654:10660   */\n      0x00\n        /* \"#utility.yul\":10662:10668   */\n      dup1\n        /* \"#utility.yul\":10670:10676   */\n      0x00\n        /* \"#utility.yul\":10723:10725   */\n      0x60\n        /* \"#utility.yul\":10711:10720   */\n      dup5\n        /* \"#utility.yul\":10702:10709   */\n      dup7\n        /* \"#utility.yul\":10698:10721   */\n      sub\n        /* \"#utility.yul\":10694:10726   */\n      slt\n        /* \"#utility.yul\":10691:10743   */\n      iszero\n      tag_886\n      jumpi\n        /* \"#utility.yul\":10739:10740   */\n      0x00\n        /* \"#utility.yul\":10736:10737   */\n      dup1\n        /* \"#utility.yul\":10729:10741   */\n      revert\n        /* \"#utility.yul\":10691:10743   */\n    tag_886:\n        /* \"#utility.yul\":10762:10791   */\n      tag_887\n        /* \"#utility.yul\":10781:10790   */\n      dup5\n        /* \"#utility.yul\":10762:10791   */\n      tag_770\n      jump\t// in\n    tag_887:\n        /* \"#utility.yul\":10752:10791   */\n      swap6\n        /* \"#utility.yul\":10838:10840   */\n      0x20\n        /* \"#utility.yul\":10823:10841   */\n      dup6\n      add\n        /* \"#utility.yul\":10810:10842   */\n      calldataload\n      swap6\n      pop\n        /* \"#utility.yul\":10889:10891   */\n      0x40\n        /* \"#utility.yul\":10874:10892   */\n      swap1\n      swap5\n      add\n        /* \"#utility.yul\":10861:10893   */\n      calldataload\n      swap4\n        /* \"#utility.yul\":10577:10899   */\n      swap3\n      pop\n      pop\n      pop\n      jump\t// out\n        /* \"#utility.yul\":10904:11226   */\n    tag_228:\n        /* \"#utility.yul\":10981:10987   */\n      0x00\n        /* \"#utility.yul\":10989:10995   */\n      dup1\n        /* \"#utility.yul\":10997:11003   */\n      0x00\n        /* \"#utility.yul\":11050:11052   */\n      0x60\n        /* \"#utility.yul\":11038:11047   */\n      dup5\n        /* \"#utility.yul\":11029:11036   */\n      dup7\n        /* \"#utility.yul\":11025:11048   */\n      sub\n        /* \"#utility.yul\":11021:11053   */\n      slt\n        /* \"#utility.yul\":11018:11070   */\n      iszero\n      tag_889\n      jumpi\n        /* \"#utility.yul\":11066:11067   */\n      0x00\n        /* \"#utility.yul\":11063:11064   */\n      dup1\n        /* \"#utility.yul\":11056:11068   */\n      revert\n        /* \"#utility.yul\":11018:11070   */\n    tag_889:\n        /* \"#utility.yul\":11102:11111   */\n      dup4\n        /* \"#utility.yul\":11089:11112   */\n      calldataload\n        /* \"#utility.yul\":11079:11112   */\n      swap3\n      pop\n        /* \"#utility.yul\":11131:11169   */\n      tag_825\n        /* \"#utility.yul\":11165:11167   */\n      0x20\n        /* \"#utility.yul\":11154:11163   */\n      dup6\n        /* \"#utility.yul\":11150:11168   */\n      add\n        /* \"#utility.yul\":11131:11169   */\n      tag_770\n      jump\t// in\n        /* \"#utility.yul\":11231:11578   */\n    tag_233:\n        /* \"#utility.yul\":11296:11302   */\n      0x00\n        /* \"#utility.yul\":11304:11310   */\n      dup1\n        /* \"#utility.yul\":11357:11359   */\n      0x40\n        /* \"#utility.yul\":11345:11354   */\n      dup4\n        /* \"#utility.yul\":11336:11343   */\n      dup6\n        /* \"#utility.yul\":11332:11355   */\n      sub\n        /* \"#utility.yul\":11328:11360   */\n      slt\n        /* \"#utility.yul\":11325:11377   */\n      iszero\n      tag_892\n      jumpi\n        /* \"#utility.yul\":11373:11374   */\n      0x00\n        /* \"#utility.yul\":11370:11371   */\n      dup1\n        /* \"#utility.yul\":11363:11375   */\n      revert\n        /* \"#utility.yul\":11325:11377   */\n    tag_892:\n        /* \"#utility.yul\":11396:11425   */\n      tag_893\n        /* \"#utility.yul\":11415:11424   */\n      dup4\n        /* \"#utility.yul\":11396:11425   */\n      tag_770\n      jump\t// in\n    tag_893:\n        /* \"#utility.yul\":11386:11425   */\n      swap2\n      pop\n        /* \"#utility.yul\":11475:11477   */\n      0x20\n        /* \"#utility.yul\":11464:11473   */\n      dup4\n        /* \"#utility.yul\":11460:11478   */\n      add\n        /* \"#utility.yul\":11447:11479   */\n      calldataload\n        /* \"#utility.yul\":11522:11527   */\n      dup1\n        /* \"#utility.yul\":11515:11528   */\n      iszero\n        /* \"#utility.yul\":11508:11529   */\n      iszero\n        /* \"#utility.yul\":11501:11506   */\n      dup2\n        /* \"#utility.yul\":11498:11530   */\n      eq\n        /* \"#utility.yul\":11488:11548   */\n      tag_894\n      jumpi\n        /* \"#utility.yul\":11544:11545   */\n      0x00\n        /* \"#utility.yul\":11541:11542   */\n      dup1\n        /* \"#utility.yul\":11534:11546   */\n      revert\n        /* \"#utility.yul\":11488:11548   */\n    tag_894:\n        /* \"#utility.yul\":11567:11572   */\n      dup1\n        /* \"#utility.yul\":11557:11572   */\n      swap2\n      pop\n      pop\n        /* \"#utility.yul\":11231:11578   */\n      swap3\n      pop\n      swap3\n      swap1\n      pop\n      jump\t// out\n        /* \"#utility.yul\":11583:12209   */\n    tag_238:\n        /* \"#utility.yul\":11680:11686   */\n      0x00\n        /* \"#utility.yul\":11688:11694   */\n      dup1\n        /* \"#utility.yul\":11741:11743   */\n      0x20\n        /* \"#utility.yul\":11729:11738   */\n      dup4\n        /* \"#utility.yul\":11720:11727   */\n      dup6\n        /* \"#utility.yul\":11716:11739   */\n      sub\n        /* \"#utility.yul\":11712:11744   */\n      slt\n        /* \"#utility.yul\":11709:11761   */\n      iszero\n      tag_896\n      jumpi\n        /* \"#utility.yul\":11757:11758   */\n      0x00\n        /* \"#utility.yul\":11754:11755   */\n      dup1\n        /* \"#utility.yul\":11747:11759   */\n      revert\n        /* \"#utility.yul\":11709:11761   */\n    tag_896:\n        /* \"#utility.yul\":11797:11806   */\n      dup3\n        /* \"#utility.yul\":11784:11807   */\n      calldataload\n        /* \"#utility.yul\":11826:11844   */\n      0xffffffffffffffff\n        /* \"#utility.yul\":11867:11869   */\n      dup1\n        /* \"#utility.yul\":11859:11865   */\n      dup3\n        /* \"#utility.yul\":11856:11870   */\n      gt\n        /* \"#utility.yul\":11853:11887   */\n      iszero\n      tag_897\n      jumpi\n        /* \"#utility.yul\":11883:11884   */\n      0x00\n        /* \"#utility.yul\":11880:11881   */\n      dup1\n        /* \"#utility.yul\":11873:11885   */\n      revert\n        /* \"#utility.yul\":11853:11887   */\n    tag_897:\n        /* \"#utility.yul\":11921:11927   */\n      dup2\n        /* \"#utility.yul\":11910:11919   */\n      dup6\n        /* \"#utility.yul\":11906:11928   */\n      add\n        /* \"#utility.yul\":11896:11928   */\n      swap2\n      pop\n        /* \"#utility.yul\":11966:11973   */\n      dup6\n        /* \"#utility.yul\":11959:11963   */\n      0x1f\n        /* \"#utility.yul\":11955:11957   */\n      dup4\n        /* \"#utility.yul\":11951:11964   */\n      add\n        /* \"#utility.yul\":11947:11974   */\n      slt\n        /* \"#utility.yul\":11937:11992   */\n      tag_898\n      jumpi\n        /* \"#utility.yul\":11988:11989   */\n      0x00\n        /* \"#utility.yul\":11985:11986   */\n      dup1\n        /* \"#utility.yul\":11978:11990   */\n      revert\n        /* \"#utility.yul\":11937:11992   */\n    tag_898:\n        /* \"#utility.yul\":12028:12030   */\n      dup2\n        /* \"#utility.yul\":12015:12031   */\n      calldataload\n        /* \"#utility.yul\":12054:12056   */\n      dup2\n        /* \"#utility.yul\":12046:12052   */\n      dup2\n        /* \"#utility.yul\":12043:12057   */\n      gt\n        /* \"#utility.yul\":12040:12074   */\n      iszero\n      tag_899\n      jumpi\n        /* \"#utility.yul\":12070:12071   */\n      0x00\n        /* \"#utility.yul\":12067:12068   */\n      dup1\n        /* \"#utility.yul\":12060:12072   */\n      revert\n        /* \"#utility.yul\":12040:12074   */\n    tag_899:\n        /* \"#utility.yul\":12123:12130   */\n      dup7\n        /* \"#utility.yul\":12118:12120   */\n      0x20\n        /* \"#utility.yul\":12108:12114   */\n      dup3\n        /* \"#utility.yul\":12105:12106   */\n      0x05\n        /* \"#utility.yul\":12101:12115   */\n      shl\n        /* \"#utility.yul\":12097:12099   */\n      dup6\n        /* \"#utility.yul\":12093:12116   */\n      add\n        /* \"#utility.yul\":12089:12121   */\n      add\n        /* \"#utility.yul\":12086:12131   */\n      gt\n        /* \"#utility.yul\":12083:12148   */\n      iszero\n      tag_900\n      jumpi\n        /* \"#utility.yul\":12144:12145   */\n      0x00\n        /* \"#utility.yul\":12141:12142   */\n      dup1\n        /* \"#utility.yul\":12134:12146   */\n      revert\n        /* \"#utility.yul\":12083:12148   */\n    tag_900:\n        /* \"#utility.yul\":12175:12177   */\n      0x20\n        /* \"#utility.yul\":12167:12178   */\n      swap3\n      swap1\n      swap3\n      add\n      swap7\n        /* \"#utility.yul\":12197:12203   */\n      swap2\n      swap6\n      pop\n        /* \"#utility.yul\":11583:12209   */\n      swap1\n      swap4\n      pop\n      pop\n      pop\n      pop\n      jump\t// out\n        /* \"#utility.yul\":12214:13026   */\n    tag_241:\n        /* \"#utility.yul\":12374:12378   */\n      0x00\n        /* \"#utility.yul\":12403:12405   */\n      0x20\n        /* \"#utility.yul\":12443:12445   */\n      dup1\n        /* \"#utility.yul\":12432:12441   */\n      dup4\n        /* \"#utility.yul\":12428:12446   */\n      add\n        /* \"#utility.yul\":12473:12475   */\n      0x20\n        /* \"#utility.yul\":12462:12471   */\n      dup5\n        /* \"#utility.yul\":12455:12476   */\n      mstore\n        /* \"#utility.yul\":12496:12502   */\n      dup1\n        /* \"#utility.yul\":12531:12537   */\n      dup6\n        /* \"#utility.yul\":12525:12538   */\n      mload\n        /* \"#utility.yul\":12562:12568   */\n      dup1\n        /* \"#utility.yul\":12554:12560   */\n      dup4\n        /* \"#utility.yul\":12547:12569   */\n      mstore\n        /* \"#utility.yul\":12600:12602   */\n      0x40\n        /* \"#utility.yul\":12589:12598   */\n      dup7\n        /* \"#utility.yul\":12585:12603   */\n      add\n        /* \"#utility.yul\":12578:12603   */\n      swap2\n      pop\n        /* \"#utility.yul\":12662:12664   */\n      0x40\n        /* \"#utility.yul\":12652:12658   */\n      dup2\n        /* \"#utility.yul\":12649:12650   */\n      0x05\n        /* \"#utility.yul\":12645:12659   */\n      shl\n        /* \"#utility.yul\":12634:12643   */\n      dup8\n        /* \"#utility.yul\":12630:12660   */\n      add\n        /* \"#utility.yul\":12626:12665   */\n      add\n        /* \"#utility.yul\":12612:12665   */\n      swap3\n      pop\n        /* \"#utility.yul\":12700:12702   */\n      0x20\n        /* \"#utility.yul\":12692:12698   */\n      dup8\n        /* \"#utility.yul\":12688:12703   */\n      add\n        /* \"#utility.yul\":12721:12722   */\n      0x00\n        /* \"#utility.yul\":12731:12997   */\n    tag_902:\n        /* \"#utility.yul\":12745:12751   */\n      dup3\n        /* \"#utility.yul\":12742:12743   */\n      dup2\n        /* \"#utility.yul\":12739:12752   */\n      lt\n        /* \"#utility.yul\":12731:12997   */\n      iszero\n      tag_904\n      jumpi\n        /* \"#utility.yul\":12838:12840   */\n      0x3f\n        /* \"#utility.yul\":12834:12841   */\n      not\n        /* \"#utility.yul\":12822:12831   */\n      dup9\n        /* \"#utility.yul\":12814:12820   */\n      dup7\n        /* \"#utility.yul\":12810:12832   */\n      sub\n        /* \"#utility.yul\":12806:12842   */\n      add\n        /* \"#utility.yul\":12801:12804   */\n      dup5\n        /* \"#utility.yul\":12794:12843   */\n      mstore\n        /* \"#utility.yul\":12866:12917   */\n      tag_905\n        /* \"#utility.yul\":12910:12916   */\n      dup6\n        /* \"#utility.yul\":12901:12907   */\n      dup4\n        /* \"#utility.yul\":12895:12908   */\n      mload\n        /* \"#utility.yul\":12866:12917   */\n      tag_773\n      jump\t// in\n    tag_905:\n        /* \"#utility.yul\":12856:12917   */\n      swap5\n      pop\n        /* \"#utility.yul\":12975:12987   */\n      swap3\n      dup6\n      add\n      swap3\n        /* \"#utility.yul\":12940:12955   */\n      swap1\n      dup6\n      add\n      swap1\n        /* \"#utility.yul\":12767:12768   */\n      0x01\n        /* \"#utility.yul\":12760:12769   */\n      add\n        /* \"#utility.yul\":12731:12997   */\n      jump(tag_902)\n    tag_904:\n      pop\n        /* \"#utility.yul\":13014:13020   */\n      swap3\n      swap8\n        /* \"#utility.yul\":12214:13026   */\n      swap7\n      pop\n      pop\n      pop\n      pop\n      pop\n      pop\n      pop\n      jump\t// out\n        /* \"#utility.yul\":13031:13569   */\n    tag_249:\n        /* \"#utility.yul\":13126:13132   */\n      0x00\n        /* \"#utility.yul\":13134:13140   */\n      dup1\n        /* \"#utility.yul\":13142:13148   */\n      0x00\n        /* \"#utility.yul\":13150:13156   */\n      dup1\n        /* \"#utility.yul\":13203:13206   */\n      0x80\n        /* \"#utility.yul\":13191:13200   */\n      dup6\n        /* \"#utility.yul\":13182:13189   */\n      dup8\n        /* \"#utility.yul\":13178:13201   */\n      sub\n        /* \"#utility.yul\":13174:13207   */\n      slt\n        /* \"#utility.yul\":13171:13224   */\n      iszero\n      tag_907\n      jumpi\n        /* \"#utility.yul\":13220:13221   */\n      0x00\n        /* \"#utility.yul\":13217:13218   */\n      dup1\n        /* \"#utility.yul\":13210:13222   */\n      revert\n        /* \"#utility.yul\":13171:13224   */\n    tag_907:\n        /* \"#utility.yul\":13243:13272   */\n      tag_908\n        /* \"#utility.yul\":13262:13271   */\n      dup6\n        /* \"#utility.yul\":13243:13272   */\n      tag_770\n      jump\t// in\n    tag_908:\n        /* \"#utility.yul\":13233:13272   */\n      swap4\n      pop\n        /* \"#utility.yul\":13291:13329   */\n      tag_909\n        /* \"#utility.yul\":13325:13327   */\n      0x20\n        /* \"#utility.yul\":13314:13323   */\n      dup7\n        /* \"#utility.yul\":13310:13328   */\n      add\n        /* \"#utility.yul\":13291:13329   */\n      tag_770\n      jump\t// in\n    tag_909:\n        /* \"#utility.yul\":13281:13329   */\n      swap3\n      pop\n        /* \"#utility.yul\":13376:13378   */\n      0x40\n        /* \"#utility.yul\":13365:13374   */\n      dup6\n        /* \"#utility.yul\":13361:13379   */\n      add\n        /* \"#utility.yul\":13348:13380   */\n      calldataload\n        /* \"#utility.yul\":13338:13380   */\n      swap2\n      pop\n        /* \"#utility.yul\":13431:13433   */\n      0x60\n        /* \"#utility.yul\":13420:13429   */\n      dup6\n        /* \"#utility.yul\":13416:13434   */\n      add\n        /* \"#utility.yul\":13403:13435   */\n      calldataload\n        /* \"#utility.yul\":13458:13476   */\n      0xffffffffffffffff\n        /* \"#utility.yul\":13450:13456   */\n      dup2\n        /* \"#utility.yul\":13447:13477   */\n      gt\n        /* \"#utility.yul\":13444:13494   */\n      iszero\n      tag_910\n      jumpi\n        /* \"#utility.yul\":13490:13491   */\n      0x00\n        /* \"#utility.yul\":13487:13488   */\n      dup1\n        /* \"#utility.yul\":13480:13492   */\n      revert\n        /* \"#utility.yul\":13444:13494   */\n    tag_910:\n        /* \"#utility.yul\":13513:13563   */\n      tag_857\n        /* \"#utility.yul\":13555:13562   */\n      dup8\n        /* \"#utility.yul\":13546:13552   */\n      dup3\n        /* \"#utility.yul\":13535:13544   */\n      dup9\n        /* \"#utility.yul\":13531:13553   */\n      add\n        /* \"#utility.yul\":13513:13563   */\n      tag_772\n      jump\t// in\n        /* \"#utility.yul\":13574:14260   */\n    tag_253:\n        /* \"#utility.yul\":13680:13686   */\n      0x00\n        /* \"#utility.yul\":13688:13694   */\n      dup1\n        /* \"#utility.yul\":13696:13702   */\n      0x00\n        /* \"#utility.yul\":13704:13710   */\n      dup1\n        /* \"#utility.yul\":13757:13760   */\n      0x80\n        /* \"#utility.yul\":13745:13754   */\n      dup6\n        /* \"#utility.yul\":13736:13743   */\n      dup8\n        /* \"#utility.yul\":13732:13755   */\n      sub\n        /* \"#utility.yul\":13728:13761   */\n      slt\n        /* \"#utility.yul\":13725:13778   */\n      iszero\n      tag_913\n      jumpi\n        /* \"#utility.yul\":13774:13775   */\n      0x00\n        /* \"#utility.yul\":13771:13772   */\n      dup1\n        /* \"#utility.yul\":13764:13776   */\n      revert\n        /* \"#utility.yul\":13725:13778   */\n    tag_913:\n        /* \"#utility.yul\":13797:13826   */\n      tag_914\n        /* \"#utility.yul\":13816:13825   */\n      dup6\n        /* \"#utility.yul\":13797:13826   */\n      tag_770\n      jump\t// in\n    tag_914:\n        /* \"#utility.yul\":13787:13826   */\n      swap4\n      pop\n        /* \"#utility.yul\":13877:13879   */\n      0x20\n        /* \"#utility.yul\":13866:13875   */\n      dup6\n        /* \"#utility.yul\":13862:13880   */\n      add\n        /* \"#utility.yul\":13849:13881   */\n      calldataload\n        /* \"#utility.yul\":13900:13918   */\n      0xffffffffffffffff\n        /* \"#utility.yul\":13941:13943   */\n      dup1\n        /* \"#utility.yul\":13933:13939   */\n      dup3\n        /* \"#utility.yul\":13930:13944   */\n      gt\n        /* \"#utility.yul\":13927:13961   */\n      iszero\n      tag_915\n      jumpi\n        /* \"#utility.yul\":13957:13958   */\n      0x00\n        /* \"#utility.yul\":13954:13955   */\n      dup1\n        /* \"#utility.yul\":13947:13959   */\n      revert\n        /* \"#utility.yul\":13927:13961   */\n    tag_915:\n        /* \"#utility.yul\":13980:14030   */\n      tag_916\n        /* \"#utility.yul\":14022:14029   */\n      dup9\n        /* \"#utility.yul\":14013:14019   */\n      dup4\n        /* \"#utility.yul\":14002:14011   */\n      dup10\n        /* \"#utility.yul\":13998:14020   */\n      add\n        /* \"#utility.yul\":13980:14030   */\n      tag_772\n      jump\t// in\n    tag_916:\n        /* \"#utility.yul\":13970:14030   */\n      swap5\n      pop\n        /* \"#utility.yul\":14077:14079   */\n      0x40\n        /* \"#utility.yul\":14066:14075   */\n      dup8\n        /* \"#utility.yul\":14062:14080   */\n      add\n        /* \"#utility.yul\":14049:14081   */\n      calldataload\n        /* \"#utility.yul\":14039:14081   */\n      swap4\n      pop\n        /* \"#utility.yul\":14134:14136   */\n      0x60\n        /* \"#utility.yul\":14123:14132   */\n      dup8\n        /* \"#utility.yul\":14119:14137   */\n      add\n        /* \"#utility.yul\":14106:14138   */\n      calldataload\n        /* \"#utility.yul\":14090:14138   */\n      swap2\n      pop\n        /* \"#utility.yul\":14163:14165   */\n      dup1\n        /* \"#utility.yul\":14153:14161   */\n      dup3\n        /* \"#utility.yul\":14150:14166   */\n      gt\n        /* \"#utility.yul\":14147:14183   */\n      iszero\n      tag_856\n      jumpi\n        /* \"#utility.yul\":14179:14180   */\n      0x00\n        /* \"#utility.yul\":14176:14177   */\n      dup1\n        /* \"#utility.yul\":14169:14181   */\n      revert\n        /* \"#utility.yul\":14265:14532   */\n    tag_260:\n        /* \"#utility.yul\":6230:6242   */\n      dup2\n      mload\n      sub(shl(0xa0, 0x01), 0x01)\n        /* \"#utility.yul\":6226:6287   */\n      and\n        /* \"#utility.yul\":6214:6288   */\n      dup2\n      mstore\n        /* \"#utility.yul\":6341:6345   */\n      0x20\n        /* \"#utility.yul\":6330:6346   */\n      dup1\n      dup4\n      add\n        /* \"#utility.yul\":6324:6347   */\n      mload\n        /* \"#utility.yul\":6349:6367   */\n      0xffffffffffffffff\n        /* \"#utility.yul\":6320:6368   */\n      and\n        /* \"#utility.yul\":6304:6318   */\n      swap1\n      dup3\n      add\n        /* \"#utility.yul\":6297:6369   */\n      mstore\n        /* \"#utility.yul\":6432:6436   */\n      0x40\n        /* \"#utility.yul\":6421:6437   */\n      dup1\n      dup4\n      add\n        /* \"#utility.yul\":6415:6438   */\n      mload\n        /* \"#utility.yul\":6408:6439   */\n      iszero\n        /* \"#utility.yul\":6401:6440   */\n      iszero\n        /* \"#utility.yul\":6385:6399   */\n      swap1\n      dup3\n      add\n        /* \"#utility.yul\":6378:6441   */\n      mstore\n        /* \"#utility.yul\":14463:14465   */\n      0x60\n        /* \"#utility.yul\":14448:14466   */\n      dup2\n      add\n        /* \"#utility.yul\":14475:14526   */\n      tag_300\n        /* \"#utility.yul\":6146:6447   */\n      jump\n        /* \"#utility.yul\":14537:14797   */\n    tag_273:\n        /* \"#utility.yul\":14605:14611   */\n      0x00\n        /* \"#utility.yul\":14613:14619   */\n      dup1\n        /* \"#utility.yul\":14666:14668   */\n      0x40\n        /* \"#utility.yul\":14654:14663   */\n      dup4\n        /* \"#utility.yul\":14645:14652   */\n      dup6\n        /* \"#utility.yul\":14641:14664   */\n      sub\n        /* \"#utility.yul\":14637:14669   */\n      slt\n        /* \"#utility.yul\":14634:14686   */\n      iszero\n      tag_922\n      jumpi\n        /* \"#utility.yul\":14682:14683   */\n      0x00\n        /* \"#utility.yul\":14679:14680   */\n      dup1\n        /* \"#utility.yul\":14672:14684   */\n      revert\n        /* \"#utility.yul\":14634:14686   */\n    tag_922:\n        /* \"#utility.yul\":14705:14734   */\n      tag_923\n        /* \"#utility.yul\":14724:14733   */\n      dup4\n        /* \"#utility.yul\":14705:14734   */\n      tag_770\n      jump\t// in\n    tag_923:\n        /* \"#utility.yul\":14695:14734   */\n      swap2\n      pop\n        /* \"#utility.yul\":14753:14791   */\n      tag_924\n        /* \"#utility.yul\":14787:14789   */\n      0x20\n        /* \"#utility.yul\":14776:14785   */\n      dup5\n        /* \"#utility.yul\":14772:14790   */\n      add\n        /* \"#utility.yul\":14753:14791   */\n      tag_770\n      jump\t// in\n    tag_924:\n        /* \"#utility.yul\":14743:14791   */\n      swap1\n      pop\n        /* \"#utility.yul\":14537:14797   */\n      swap3\n      pop\n      swap3\n      swap1\n      pop\n      jump\t// out\n        /* \"#utility.yul\":15154:15534   */\n    tag_292:\n        /* \"#utility.yul\":15233:15234   */\n      0x01\n        /* \"#utility.yul\":15229:15241   */\n      dup2\n      dup2\n      shr\n      swap1\n        /* \"#utility.yul\":15276:15288   */\n      dup3\n      and\n      dup1\n        /* \"#utility.yul\":15297:15358   */\n      tag_927\n      jumpi\n        /* \"#utility.yul\":15351:15355   */\n      0x7f\n        /* \"#utility.yul\":15343:15349   */\n      dup3\n        /* \"#utility.yul\":15339:15356   */\n      and\n        /* \"#utility.yul\":15329:15356   */\n      swap2\n      pop\n        /* \"#utility.yul\":15297:15358   */\n    tag_927:\n        /* \"#utility.yul\":15404:15406   */\n      0x20\n        /* \"#utility.yul\":15396:15402   */\n      dup3\n        /* \"#utility.yul\":15393:15407   */\n      lt\n        /* \"#utility.yul\":15373:15391   */\n      dup2\n        /* \"#utility.yul\":15370:15408   */\n      sub\n        /* \"#utility.yul\":15367:15528   */\n      tag_928\n      jumpi\n        /* \"#utility.yul\":15450:15460   */\n      0x4e487b71\n        /* \"#utility.yul\":15445:15448   */\n      0xe0\n        /* \"#utility.yul\":15441:15461   */\n      shl\n        /* \"#utility.yul\":15438:15439   */\n      0x00\n        /* \"#utility.yul\":15431:15462   */\n      mstore\n        /* \"#utility.yul\":15485:15489   */\n      0x22\n        /* \"#utility.yul\":15482:15483   */\n      0x04\n        /* \"#utility.yul\":15475:15490   */\n      mstore\n        /* \"#utility.yul\":15513:15517   */\n      0x24\n        /* \"#utility.yul\":15510:15511   */\n      0x00\n        /* \"#utility.yul\":15503:15518   */\n      revert\n        /* \"#utility.yul\":15367:15528   */\n    tag_928:\n      pop\n        /* \"#utility.yul\":15154:15534   */\n      swap2\n      swap1\n      pop\n      jump\t// out\n        /* \"#utility.yul\":15539:15666   */\n    tag_340:\n        /* \"#utility.yul\":15600:15610   */\n      0x4e487b71\n        /* \"#utility.yul\":15595:15598   */\n      0xe0\n        /* \"#utility.yul\":15591:15611   */\n      shl\n        /* \"#utility.yul\":15588:15589   */\n      0x00\n        /* \"#utility.yul\":15581:15612   */\n      mstore\n        /* \"#utility.yul\":15631:15635   */\n      0x32\n        /* \"#utility.yul\":15628:15629   */\n      0x04\n        /* \"#utility.yul\":15621:15636   */\n      mstore\n        /* \"#utility.yul\":15655:15659   */\n      0x24\n        /* \"#utility.yul\":15652:15653   */\n      0x00\n        /* \"#utility.yul\":15645:15660   */\n      revert\n        /* \"#utility.yul\":15671:15798   */\n    tag_779:\n        /* \"#utility.yul\":15732:15742   */\n      0x4e487b71\n        /* \"#utility.yul\":15727:15730   */\n      0xe0\n        /* \"#utility.yul\":15723:15743   */\n      shl\n        /* \"#utility.yul\":15720:15721   */\n      0x00\n        /* \"#utility.yul\":15713:15744   */\n      mstore\n        /* \"#utility.yul\":15763:15767   */\n      0x11\n        /* \"#utility.yul\":15760:15761   */\n      0x04\n        /* \"#utility.yul\":15753:15768   */\n      mstore\n        /* \"#utility.yul\":15787:15791   */\n      0x24\n        /* \"#utility.yul\":15784:15785   */\n      0x00\n        /* \"#utility.yul\":15777:15792   */\n      revert\n        /* \"#utility.yul\":15803:15971   */\n    tag_345:\n        /* \"#utility.yul\":15876:15885   */\n      dup1\n      dup3\n      mul\n        /* \"#utility.yul\":15907:15916   */\n      dup2\n      iszero\n        /* \"#utility.yul\":15924:15939   */\n      dup3\n      dup3\n      div\n        /* \"#utility.yul\":15918:15940   */\n      dup5\n      eq\n        /* \"#utility.yul\":15904:15941   */\n      or\n        /* \"#utility.yul\":15894:15965   */\n      tag_300\n      jumpi\n        /* \"#utility.yul\":15945:15963   */\n      tag_300\n      tag_779\n      jump\t// in\n        /* \"#utility.yul\":15976:16103   */\n    tag_780:\n        /* \"#utility.yul\":16037:16047   */\n      0x4e487b71\n        /* \"#utility.yul\":16032:16035   */\n      0xe0\n        /* \"#utility.yul\":16028:16048   */\n      shl\n        /* \"#utility.yul\":16025:16026   */\n      0x00\n        /* \"#utility.yul\":16018:16049   */\n      mstore\n        /* \"#utility.yul\":16068:16072   */\n      0x12\n        /* \"#utility.yul\":16065:16066   */\n      0x04\n        /* \"#utility.yul\":16058:16073   */\n      mstore\n        /* \"#utility.yul\":16092:16096   */\n      0x24\n        /* \"#utility.yul\":16089:16090   */\n      0x00\n        /* \"#utility.yul\":16082:16097   */\n      revert\n        /* \"#utility.yul\":16108:16228   */\n    tag_347:\n        /* \"#utility.yul\":16148:16149   */\n      0x00\n        /* \"#utility.yul\":16174:16175   */\n      dup3\n        /* \"#utility.yul\":16164:16199   */\n      tag_937\n      jumpi\n        /* \"#utility.yul\":16179:16197   */\n      tag_937\n      tag_780\n      jump\t// in\n    tag_937:\n      pop\n        /* \"#utility.yul\":16213:16222   */\n      div\n      swap1\n        /* \"#utility.yul\":16108:16228   */\n      jump\t// out\n        /* \"#utility.yul\":16935:17060   */\n    tag_431:\n        /* \"#utility.yul\":17000:17009   */\n      dup1\n      dup3\n      add\n        /* \"#utility.yul\":17021:17031   */\n      dup1\n      dup3\n      gt\n        /* \"#utility.yul\":17018:17054   */\n      iszero\n      tag_300\n      jumpi\n        /* \"#utility.yul\":17034:17052   */\n      tag_300\n      tag_779\n      jump\t// in\n        /* \"#utility.yul\":17899:18417   */\n    tag_782:\n        /* \"#utility.yul\":18001:18003   */\n      0x1f\n        /* \"#utility.yul\":17996:17999   */\n      dup3\n        /* \"#utility.yul\":17993:18004   */\n      gt\n        /* \"#utility.yul\":17990:18411   */\n      iszero\n      tag_320\n      jumpi\n        /* \"#utility.yul\":18037:18042   */\n      dup1\n        /* \"#utility.yul\":18034:18035   */\n      0x00\n        /* \"#utility.yul\":18027:18043   */\n      mstore\n        /* \"#utility.yul\":18081:18085   */\n      0x20\n        /* \"#utility.yul\":18078:18079   */\n      0x00\n        /* \"#utility.yul\":18068:18086   */\n      keccak256\n        /* \"#utility.yul\":18151:18153   */\n      0x1f\n        /* \"#utility.yul\":18139:18149   */\n      dup5\n        /* \"#utility.yul\":18135:18154   */\n      add\n        /* \"#utility.yul\":18132:18133   */\n      0x05\n        /* \"#utility.yul\":18128:18155   */\n      shr\n        /* \"#utility.yul\":18122:18126   */\n      dup2\n        /* \"#utility.yul\":18118:18156   */\n      add\n        /* \"#utility.yul\":18187:18191   */\n      0x20\n        /* \"#utility.yul\":18175:18185   */\n      dup6\n        /* \"#utility.yul\":18172:18192   */\n      lt\n        /* \"#utility.yul\":18169:18216   */\n      iszero\n      tag_948\n      jumpi\n      pop\n        /* \"#utility.yul\":18210:18214   */\n      dup1\n        /* \"#utility.yul\":18169:18216   */\n    tag_948:\n        /* \"#utility.yul\":18265:18267   */\n      0x1f\n        /* \"#utility.yul\":18260:18263   */\n      dup5\n        /* \"#utility.yul\":18256:18268   */\n      add\n        /* \"#utility.yul\":18253:18254   */\n      0x05\n        /* \"#utility.yul\":18249:18269   */\n      shr\n        /* \"#utility.yul\":18243:18247   */\n      dup3\n        /* \"#utility.yul\":18239:18270   */\n      add\n        /* \"#utility.yul\":18229:18270   */\n      swap2\n      pop\n        /* \"#utility.yul\":18320:18401   */\n    tag_949:\n        /* \"#utility.yul\":18338:18340   */\n      dup2\n        /* \"#utility.yul\":18331:18336   */\n      dup2\n        /* \"#utility.yul\":18328:18341   */\n      lt\n        /* \"#utility.yul\":18320:18401   */\n      iszero\n      tag_440\n      jumpi\n        /* \"#utility.yul\":18397:18398   */\n      0x00\n        /* \"#utility.yul\":18383:18399   */\n      dup2\n      sstore\n        /* \"#utility.yul\":18364:18365   */\n      0x01\n        /* \"#utility.yul\":18353:18366   */\n      add\n        /* \"#utility.yul\":18320:18401   */\n      jump(tag_949)\n        /* \"#utility.yul\":18593:19938   */\n    tag_453:\n        /* \"#utility.yul\":18719:18722   */\n      dup2\n        /* \"#utility.yul\":18713:18723   */\n      mload\n        /* \"#utility.yul\":18746:18764   */\n      0xffffffffffffffff\n        /* \"#utility.yul\":18738:18744   */\n      dup2\n        /* \"#utility.yul\":18735:18765   */\n      gt\n        /* \"#utility.yul\":18732:18788   */\n      iszero\n      tag_955\n      jumpi\n        /* \"#utility.yul\":18768:18786   */\n      tag_955\n      tag_375\n      jump\t// in\n    tag_955:\n        /* \"#utility.yul\":18797:18894   */\n      tag_956\n        /* \"#utility.yul\":18887:18893   */\n      dup2\n        /* \"#utility.yul\":18847:18885   */\n      tag_957\n        /* \"#utility.yul\":18879:18883   */\n      dup5\n        /* \"#utility.yul\":18873:18884   */\n      sload\n        /* \"#utility.yul\":18847:18885   */\n      tag_292\n      jump\t// in\n    tag_957:\n        /* \"#utility.yul\":18841:18845   */\n      dup5\n        /* \"#utility.yul\":18797:18894   */\n      tag_782\n      jump\t// in\n    tag_956:\n        /* \"#utility.yul\":18949:18953   */\n      0x20\n      dup1\n        /* \"#utility.yul\":19006:19008   */\n      0x1f\n        /* \"#utility.yul\":18995:19009   */\n      dup4\n      gt\n        /* \"#utility.yul\":19023:19024   */\n      0x01\n        /* \"#utility.yul\":19018:19681   */\n      dup2\n      eq\n      tag_959\n      jumpi\n        /* \"#utility.yul\":19725:19726   */\n      0x00\n        /* \"#utility.yul\":19742:19748   */\n      dup5\n        /* \"#utility.yul\":19739:19828   */\n      iszero\n      tag_960\n      jumpi\n      pop\n        /* \"#utility.yul\":19794:19813   */\n      dup6\n      dup4\n      add\n        /* \"#utility.yul\":19788:19814   */\n      mload\n        /* \"#utility.yul\":19739:19828   */\n    tag_960:\n      not(0x00)\n        /* \"#utility.yul\":18550:18551   */\n      0x03\n        /* \"#utility.yul\":18546:18557   */\n      dup7\n      swap1\n      shl\n        /* \"#utility.yul\":18542:18566   */\n      shr\n        /* \"#utility.yul\":18538:18567   */\n      not\n        /* \"#utility.yul\":18528:18568   */\n      and\n        /* \"#utility.yul\":18574:18575   */\n      0x01\n        /* \"#utility.yul\":18570:18581   */\n      dup6\n      swap1\n      shl\n        /* \"#utility.yul\":18525:18582   */\n      or\n        /* \"#utility.yul\":19841:19922   */\n      dup6\n      sstore\n        /* \"#utility.yul\":18988:19932   */\n      jump(tag_548)\n        /* \"#utility.yul\":19018:19681   */\n    tag_959:\n        /* \"#utility.yul\":17846:17847   */\n      0x00\n        /* \"#utility.yul\":17839:17853   */\n      dup6\n      dup2\n      mstore\n        /* \"#utility.yul\":17883:17887   */\n      0x20\n        /* \"#utility.yul\":17870:17888   */\n      dup2\n      keccak256\n      not(0x1f)\n        /* \"#utility.yul\":19054:19074   */\n      dup7\n      and\n      swap2\n        /* \"#utility.yul\":19172:19408   */\n    tag_963:\n        /* \"#utility.yul\":19186:19193   */\n      dup3\n        /* \"#utility.yul\":19183:19184   */\n      dup2\n        /* \"#utility.yul\":19180:19194   */\n      lt\n        /* \"#utility.yul\":19172:19408   */\n      iszero\n      tag_965\n      jumpi\n        /* \"#utility.yul\":19275:19294   */\n      dup9\n      dup7\n      add\n        /* \"#utility.yul\":19269:19295   */\n      mload\n        /* \"#utility.yul\":19254:19296   */\n      dup3\n      sstore\n        /* \"#utility.yul\":19367:19394   */\n      swap5\n      dup5\n      add\n      swap5\n        /* \"#utility.yul\":19335:19336   */\n      0x01\n        /* \"#utility.yul\":19323:19337   */\n      swap1\n      swap2\n      add\n      swap1\n        /* \"#utility.yul\":19202:19221   */\n      dup5\n      add\n        /* \"#utility.yul\":19172:19408   */\n      jump(tag_963)\n    tag_965:\n        /* \"#utility.yul\":19176:19179   */\n      pop\n        /* \"#utility.yul\":19436:19442   */\n      dup6\n        /* \"#utility.yul\":19427:19434   */\n      dup3\n        /* \"#utility.yul\":19424:19443   */\n      lt\n        /* \"#utility.yul\":19421:19622   */\n      iszero\n      tag_966\n      jumpi\n        /* \"#utility.yul\":19497:19516   */\n      dup8\n      dup6\n      add\n        /* \"#utility.yul\":19491:19517   */\n      mload\n      not(0x00)\n        /* \"#utility.yul\":19580:19581   */\n      0x03\n        /* \"#utility.yul\":19576:19590   */\n      dup9\n      swap1\n      shl\n        /* \"#utility.yul\":19592:19595   */\n      0xf8\n        /* \"#utility.yul\":19572:19596   */\n      and\n        /* \"#utility.yul\":19568:19605   */\n      shr\n        /* \"#utility.yul\":19564:19606   */\n      not\n        /* \"#utility.yul\":19549:19607   */\n      and\n        /* \"#utility.yul\":19534:19608   */\n      dup2\n      sstore\n        /* \"#utility.yul\":19421:19622   */\n    tag_966:\n      pop\n      pop\n      pop\n      pop\n      pop\n        /* \"#utility.yul\":19668:19669   */\n      0x01\n        /* \"#utility.yul\":19652:19666   */\n      swap1\n      dup2\n      shl\n        /* \"#utility.yul\":19648:19670   */\n      add\n        /* \"#utility.yul\":19635:19671   */\n      swap1\n      sstore\n      pop\n        /* \"#utility.yul\":18593:19938   */\n      jump\t// out\n        /* \"#utility.yul\":19943:20464   */\n    tag_516:\n        /* \"#utility.yul\":20020:20024   */\n      0x00\n        /* \"#utility.yul\":20026:20032   */\n      dup1\n        /* \"#utility.yul\":20086:20097   */\n      dup4\n        /* \"#utility.yul\":20073:20098   */\n      calldataload\n        /* \"#utility.yul\":20180:20182   */\n      0x1e\n        /* \"#utility.yul\":20176:20183   */\n      not\n        /* \"#utility.yul\":20165:20173   */\n      dup5\n        /* \"#utility.yul\":20149:20163   */\n      calldatasize\n        /* \"#utility.yul\":20145:20174   */\n      sub\n        /* \"#utility.yul\":20141:20184   */\n      add\n        /* \"#utility.yul\":20121:20139   */\n      dup2\n        /* \"#utility.yul\":20117:20185   */\n      slt\n        /* \"#utility.yul\":20107:20203   */\n      tag_968\n      jumpi\n        /* \"#utility.yul\":20199:20200   */\n      0x00\n        /* \"#utility.yul\":20196:20197   */\n      dup1\n        /* \"#utility.yul\":20189:20201   */\n      revert\n        /* \"#utility.yul\":20107:20203   */\n    tag_968:\n        /* \"#utility.yul\":20226:20259   */\n      dup4\n      add\n        /* \"#utility.yul\":20278:20298   */\n      dup1\n      calldataload\n      swap2\n      pop\n        /* \"#utility.yul\":20321:20339   */\n      0xffffffffffffffff\n        /* \"#utility.yul\":20310:20340   */\n      dup3\n      gt\n        /* \"#utility.yul\":20307:20357   */\n      iszero\n      tag_969\n      jumpi\n        /* \"#utility.yul\":20353:20354   */\n      0x00\n        /* \"#utility.yul\":20350:20351   */\n      dup1\n        /* \"#utility.yul\":20343:20355   */\n      revert\n        /* \"#utility.yul\":20307:20357   */\n    tag_969:\n        /* \"#utility.yul\":20386:20390   */\n      0x20\n        /* \"#utility.yul\":20374:20391   */\n      add\n      swap2\n      pop\n        /* \"#utility.yul\":20417:20431   */\n      calldatasize\n        /* \"#utility.yul\":20413:20440   */\n      dup2\n      swap1\n      sub\n        /* \"#utility.yul\":20403:20441   */\n      dup3\n      sgt\n        /* \"#utility.yul\":20400:20458   */\n      iszero\n      tag_970\n      jumpi\n        /* \"#utility.yul\":20454:20455   */\n      0x00\n        /* \"#utility.yul\":20451:20452   */\n      dup1\n        /* \"#utility.yul\":20444:20456   */\n      revert\n        /* \"#utility.yul\":20400:20458   */\n    tag_970:\n        /* \"#utility.yul\":19943:20464   */\n      swap3\n      pop\n      swap3\n      swap1\n      pop\n      jump\t// out\n        /* \"#utility.yul\":20469:20829   */\n    tag_518:\n        /* \"#utility.yul\":20680:20686   */\n      dup3\n        /* \"#utility.yul\":20672:20678   */\n      dup5\n        /* \"#utility.yul\":20667:20670   */\n      dup3\n        /* \"#utility.yul\":20654:20687   */\n      calldatacopy\n        /* \"#utility.yul\":20750:20752   */\n      0x60\n        /* \"#utility.yul\":20746:20761   */\n      swap2\n      swap1\n      swap2\n      shl\n      not(0xffffffffffffffffffffffff)\n        /* \"#utility.yul\":20742:20795   */\n      and\n        /* \"#utility.yul\":20706:20722   */\n      swap2\n      add\n        /* \"#utility.yul\":20731:20796   */\n      swap1\n      dup2\n      mstore\n        /* \"#utility.yul\":20820:20822   */\n      0x14\n        /* \"#utility.yul\":20812:20823   */\n      add\n      swap2\n        /* \"#utility.yul\":20469:20829   */\n      swap1\n      pop\n      jump\t// out\n        /* \"#utility.yul\":21181:21393   */\n    tag_784:\n        /* \"#utility.yul\":21223:21226   */\n      0x00\n        /* \"#utility.yul\":21261:21266   */\n      dup2\n        /* \"#utility.yul\":21255:21267   */\n      mload\n        /* \"#utility.yul\":21305:21311   */\n      dup1\n        /* \"#utility.yul\":21298:21302   */\n      0x20\n        /* \"#utility.yul\":21291:21296   */\n      dup5\n        /* \"#utility.yul\":21287:21303   */\n      add\n        /* \"#utility.yul\":21282:21285   */\n      dup6\n        /* \"#utility.yul\":21276:21312   */\n      mcopy\n        /* \"#utility.yul\":21367:21368   */\n      0x00\n        /* \"#utility.yul\":21331:21347   */\n      swap4\n      add\n        /* \"#utility.yul\":21356:21369   */\n      swap3\n      dup4\n      mstore\n      pop\n        /* \"#utility.yul\":21331:21347   */\n      swap1\n      swap2\n        /* \"#utility.yul\":21181:21393   */\n      swap1\n      pop\n      jump\t// out\n        /* \"#utility.yul\":21398:21665   */\n    tag_569:\n        /* \"#utility.yul\":21577:21580   */\n      0x00\n        /* \"#utility.yul\":21602:21659   */\n      tag_367\n        /* \"#utility.yul\":21628:21658   */\n      tag_976\n        /* \"#utility.yul\":21654:21657   */\n      dup4\n        /* \"#utility.yul\":21646:21652   */\n      dup7\n        /* \"#utility.yul\":21628:21658   */\n      tag_784\n      jump\t// in\n    tag_976:\n        /* \"#utility.yul\":21620:21626   */\n      dup5\n        /* \"#utility.yul\":21602:21659   */\n      tag_784\n      jump\t// in\n        /* \"#utility.yul\":22279:22684   */\n    tag_682:\n        /* \"#utility.yul\":22476:22478   */\n      0x40\n        /* \"#utility.yul\":22465:22474   */\n      dup2\n        /* \"#utility.yul\":22458:22479   */\n      mstore\n        /* \"#utility.yul\":22439:22443   */\n      0x00\n        /* \"#utility.yul\":22502:22558   */\n      tag_980\n        /* \"#utility.yul\":22554:22556   */\n      0x40\n        /* \"#utility.yul\":22543:22552   */\n      dup4\n        /* \"#utility.yul\":22539:22557   */\n      add\n        /* \"#utility.yul\":22531:22537   */\n      dup6\n        /* \"#utility.yul\":22502:22558   */\n      tag_773\n      jump\t// in\n    tag_980:\n        /* \"#utility.yul\":22606:22615   */\n      dup3\n        /* \"#utility.yul\":22598:22604   */\n      dup2\n        /* \"#utility.yul\":22594:22616   */\n      sub\n        /* \"#utility.yul\":22589:22591   */\n      0x20\n        /* \"#utility.yul\":22578:22587   */\n      dup5\n        /* \"#utility.yul\":22574:22592   */\n      add\n        /* \"#utility.yul\":22567:22617   */\n      mstore\n        /* \"#utility.yul\":22634:22678   */\n      tag_981\n        /* \"#utility.yul\":22671:22677   */\n      dup2\n        /* \"#utility.yul\":22663:22669   */\n      dup6\n        /* \"#utility.yul\":22634:22678   */\n      tag_773\n      jump\t// in\n    tag_981:\n        /* \"#utility.yul\":22626:22678   */\n      swap6\n        /* \"#utility.yul\":22279:22684   */\n      swap5\n      pop\n      pop\n      pop\n      pop\n      pop\n      jump\t// out\n        /* \"#utility.yul\":22689:23212   */\n    tag_694:\n        /* \"#utility.yul\":22883:22887   */\n      0x00\n      sub(shl(0xa0, 0x01), 0x01)\n        /* \"#utility.yul\":22993:22995   */\n      dup1\n        /* \"#utility.yul\":22985:22991   */\n      dup8\n        /* \"#utility.yul\":22981:22996   */\n      and\n        /* \"#utility.yul\":22970:22979   */\n      dup4\n        /* \"#utility.yul\":22963:22997   */\n      mstore\n        /* \"#utility.yul\":23045:23047   */\n      dup1\n        /* \"#utility.yul\":23037:23043   */\n      dup7\n        /* \"#utility.yul\":23033:23048   */\n      and\n        /* \"#utility.yul\":23028:23030   */\n      0x20\n        /* \"#utility.yul\":23017:23026   */\n      dup5\n        /* \"#utility.yul\":23013:23031   */\n      add\n        /* \"#utility.yul\":23006:23049   */\n      mstore\n      pop\n        /* \"#utility.yul\":23085:23091   */\n      dup4\n        /* \"#utility.yul\":23080:23082   */\n      0x40\n        /* \"#utility.yul\":23069:23078   */\n      dup4\n        /* \"#utility.yul\":23065:23083   */\n      add\n        /* \"#utility.yul\":23058:23092   */\n      mstore\n        /* \"#utility.yul\":23128:23131   */\n      0x80\n        /* \"#utility.yul\":23123:23125   */\n      0x60\n        /* \"#utility.yul\":23112:23121   */\n      dup4\n        /* \"#utility.yul\":23108:23126   */\n      add\n        /* \"#utility.yul\":23101:23132   */\n      mstore\n        /* \"#utility.yul\":23149:23206   */\n      tag_754\n        /* \"#utility.yul\":23201:23204   */\n      0x80\n        /* \"#utility.yul\":23190:23199   */\n      dup4\n        /* \"#utility.yul\":23186:23205   */\n      add\n        /* \"#utility.yul\":23178:23184   */\n      dup5\n        /* \"#utility.yul\":23149:23206   */\n      tag_773\n      jump\t// in\n        /* \"#utility.yul\":23217:23466   */\n    tag_697:\n        /* \"#utility.yul\":23286:23292   */\n      0x00\n        /* \"#utility.yul\":23339:23341   */\n      0x20\n        /* \"#utility.yul\":23327:23336   */\n      dup3\n        /* \"#utility.yul\":23318:23325   */\n      dup5\n        /* \"#utility.yul\":23314:23337   */\n      sub\n        /* \"#utility.yul\":23310:23342   */\n      slt\n        /* \"#utility.yul\":23307:23359   */\n      iszero\n      tag_985\n      jumpi\n        /* \"#utility.yul\":23355:23356   */\n      0x00\n        /* \"#utility.yul\":23352:23353   */\n      dup1\n        /* \"#utility.yul\":23345:23357   */\n      revert\n        /* \"#utility.yul\":23307:23359   */\n    tag_985:\n        /* \"#utility.yul\":23387:23396   */\n      dup2\n        /* \"#utility.yul\":23381:23397   */\n      mload\n        /* \"#utility.yul\":23406:23436   */\n      tag_466\n        /* \"#utility.yul\":23430:23435   */\n      dup2\n        /* \"#utility.yul\":23406:23436   */\n      tag_774\n      jump\t// in\n        /* \"#utility.yul\":23471:23606   */\n    tag_731:\n        /* \"#utility.yul\":23510:23513   */\n      0x00\n        /* \"#utility.yul\":23531:23548   */\n      0x01\n      dup3\n      add\n        /* \"#utility.yul\":23528:23571   */\n      tag_989\n      jumpi\n        /* \"#utility.yul\":23551:23569   */\n      tag_989\n      tag_779\n      jump\t// in\n    tag_989:\n      pop\n        /* \"#utility.yul\":23598:23599   */\n      0x01\n        /* \"#utility.yul\":23587:23600   */\n      add\n      swap1\n        /* \"#utility.yul\":23471:23606   */\n      jump\t// out\n        /* \"#utility.yul\":23611:23739   */\n    tag_739:\n        /* \"#utility.yul\":23678:23687   */\n      dup2\n      dup2\n      sub\n        /* \"#utility.yul\":23699:23710   */\n      dup2\n      dup2\n      gt\n        /* \"#utility.yul\":23696:23733   */\n      iszero\n      tag_300\n      jumpi\n        /* \"#utility.yul\":23713:23731   */\n      tag_300\n      tag_779\n      jump\t// in\n        /* \"#utility.yul\":23744:23856   */\n    tag_741:\n        /* \"#utility.yul\":23776:23777   */\n      0x00\n        /* \"#utility.yul\":23802:23803   */\n      dup3\n        /* \"#utility.yul\":23792:23827   */\n      tag_995\n      jumpi\n        /* \"#utility.yul\":23807:23825   */\n      tag_995\n      tag_780\n      jump\t// in\n    tag_995:\n      pop\n        /* \"#utility.yul\":23841:23850   */\n      mod\n      swap1\n        /* \"#utility.yul\":23744:23856   */\n      jump\t// out\n        /* \"#utility.yul\":23861:24051   */\n    tag_750:\n        /* \"#utility.yul\":23990:23993   */\n      0x00\n        /* \"#utility.yul\":24015:24045   */\n      tag_466\n        /* \"#utility.yul\":24041:24044   */\n      dup3\n        /* \"#utility.yul\":24033:24039   */\n      dup5\n        /* \"#utility.yul\":24015:24045   */\n      tag_784\n      jump\t// in\n    stop\n    data_9fdcd12e4b726339b32a442b0a448365d5d85c96b2d2cff917b4f66c63110398 416464726573733a206c6f772d6c6576656c2064656c65676174652063616c6c206661696c6564\n\n    auxdata: 0xa2646970667358221220c3b245480d41e8337a2d9160f814fb00bed071ba9141860aa6aff535cd805f1d64736f6c63430008190033\n}\n",
    "bytecode": {
      "linkReferences": {},
      "object": "608060405234801561000f575f80fd5b506040516138f93803806138f983398101604081905261002e9161021b565b848484848483836002610041838261033f565b50600361004e828261033f565b50505f80555061005d8561007f565b610070826001600160801b0383166100d0565b505050505050505050506103fe565b600980546001600160a01b038381166001600160a01b0319831681179093556040519116919082907f8292fce18fa69edf4db7b94ea2e58241df0ae57f97e0a6c9b29067028bf92d76905f90a35050565b61271081111561010257604051630a4930ad60e31b815261271060048201526024810182905260440160405180910390fd5b600a80546001600160a01b0384166001600160b01b03199091168117600160a01b61ffff851602179091556040518281527f90d7ec04bcb8978719414f82e52e4cb651db41d0e6f8cea6118c2191e6183adb9060200160405180910390a25050565b80516001600160a01b038116811461017a575f80fd5b919050565b634e487b7160e01b5f52604160045260245ffd5b5f82601f8301126101a2575f80fd5b81516001600160401b03808211156101bc576101bc61017f565b604051601f8301601f19908116603f011681019082821181831017156101e4576101e461017f565b816040528381528660208588010111156101fc575f80fd5b8360208701602083015e5f602085830101528094505050505092915050565b5f805f805f60a0868803121561022f575f80fd5b61023886610164565b60208701519095506001600160401b0380821115610254575f80fd5b61026089838a01610193565b95506040880151915080821115610275575f80fd5b5061028288828901610193565b93505061029160608701610164565b60808701519092506001600160801b03811681146102ad575f80fd5b809150509295509295909350565b600181811c908216806102cf57607f821691505b6020821081036102ed57634e487b7160e01b5f52602260045260245ffd5b50919050565b601f82111561033a57805f5260205f20601f840160051c810160208510156103185750805b601f840160051c820191505b81811015610337575f8155600101610324565b50505b505050565b81516001600160401b038111156103585761035861017f565b61036c8161036684546102bb565b846102f3565b602080601f83116001811461039f575f84156103885750858301515b5f19600386901b1c1916600185901b1785556103f6565b5f85815260208120601f198616915b828110156103cd578886015182559484019460019091019084016103ae565b50858210156103ea57878501515f19600388901b60f8161c191681555b505060018460011b0185555b505050505050565b6134ee8061040b5f395ff3fe6080604052600436106102d6575f3560e01c80636352211e1161017b5780639bcf7a15116100d1578063bb62a58d11610087578063e8a3d48511610062578063e8a3d4851461084c578063e985e9c514610860578063eddd0d9c146108a7575f80fd5b8063bb62a58d146107ee578063c23dc68f14610801578063c87b56dd1461082d575f80fd5b8063ac9650d8116100b7578063ac9650d814610779578063b24f2d39146107a5578063b88d4fde146107cf575f80fd5b80639bcf7a151461073b578063a22cb4651461075a575f80fd5b80638462151c11610131578063938e3d7b1161010c578063938e3d7b146106e957806395d89b411461070857806399a2557a1461071c575f80fd5b80638462151c1461068d5780638da5cb5b146106b957806390113fd0146106d6575f80fd5b806370a082311161016157806370a0823114610621578063754a81d914610640578063830405321461065f575f80fd5b80636352211e146105ee57806363b45e2d1461060d575f80fd5b80632419f51b1161023057806342842e0e116101e65780634cc157df116101c15780634cc157df146105625780635bbb2177146105a3578063600dd5ea146105cf575f80fd5b806342842e0e1461050557806342966c6814610524578063430c208114610543575f80fd5b806332cb6b0c1161021657806332cb6b0c146104c95780633b1475a7146104de5780633ccfd60b146104f1575f80fd5b80632419f51b1461046c5780632a55205a1461048b575f80fd5b8063095ea7b311610290578063165513001161026b578063165513001461040b57806318160ddd1461043657806323b872dd1461044d575f80fd5b8063095ea7b3146103aa57806313966db5146103c957806313af4035146103ec575f80fd5b806301ffc9a7116102c057806301ffc9a71461033057806306fdde031461035f578063081812fc14610373575f80fd5b806275a317146102da57806301b0a13e146102fb575b5f80fd5b3480156102e5575f80fd5b506102f96102f4366004612a8d565b6108c6565b005b348015610306575f80fd5b5061031a610315366004612ad8565b61094e565b6040516103279190612b1d565b60405180910390f35b34801561033b575f80fd5b5061034f61034a366004612b44565b6109e5565b6040519015158152602001610327565b34801561036a575f80fd5b5061031a610a51565b34801561037e575f80fd5b5061039261038d366004612ad8565b610ae1565b6040516001600160a01b039091168152602001610327565b3480156103b5575f80fd5b506102f96103c4366004612b5f565b610b23565b3480156103d4575f80fd5b506103de60105481565b604051908152602001610327565b3480156103f7575f80fd5b506102f9610406366004612b87565b610ba8565b348015610416575f80fd5b506103de610425366004612ad8565b60116020525f908152604090205481565b348015610441575f80fd5b506001545f54036103de565b348015610458575f80fd5b506102f9610467366004612ba0565b610bd9565b348015610477575f80fd5b506103de610486366004612ad8565b610be4565b348015610496575f80fd5b506104aa6104a5366004612bd9565b610c33565b604080516001600160a01b039093168352602083019190915201610327565b3480156104d4575f80fd5b506103de61271081565b3480156104e9575f80fd5b505f546103de565b3480156104fc575f80fd5b506102f9610c6e565b348015610510575f80fd5b506102f961051f366004612ba0565b610d1e565b34801561052f575f80fd5b506102f961053e366004612ad8565b610d38565b34801561054e575f80fd5b5061034f61055d366004612b5f565b610d43565b34801561056d575f80fd5b5061058161057c366004612ad8565b610dc0565b604080516001600160a01b03909316835261ffff909116602083015201610327565b3480156105ae575f80fd5b506105c26105bd366004612c88565b610e2a565b6040516103279190612cba565b3480156105da575f80fd5b506102f96105e9366004612b5f565b610eed565b3480156105f9575f80fd5b50610392610608366004612ad8565b610f1c565b348015610618575f80fd5b50600c546103de565b34801561062c575f80fd5b506103de61063b366004612b87565b610f2d565b34801561064b575f80fd5b506102f961065a366004612d24565b610f7a565b34801561066a575f80fd5b5061034f610679366004612ad8565b600e6020525f908152604090205460ff1681565b348015610698575f80fd5b506106ac6106a7366004612b87565b610ff3565b6040516103279190612d9d565b3480156106c4575f80fd5b506009546001600160a01b0316610392565b6102f96106e4366004612e4f565b61112d565b3480156106f4575f80fd5b506102f9610703366004612ed6565b611303565b348015610713575f80fd5b5061031a611331565b348015610727575f80fd5b506106ac610736366004612f08565b611340565b348015610746575f80fd5b506102f9610755366004612f38565b6114ed565b348015610765575f80fd5b506102f9610774366004612f5a565b61151d565b348015610784575f80fd5b50610798610793366004612f93565b6115b1565b6040516103279190613002565b3480156107b0575f80fd5b50600a546001600160a01b03811690600160a01b900461ffff16610581565b3480156107da575f80fd5b506102f96107e9366004613064565b611715565b6102f96107fc3660046130bc565b611759565b34801561080c575f80fd5b5061082061081b366004612ad8565b611849565b604051610327919061311c565b348015610838575f80fd5b5061031a610847366004612ad8565b6118f5565b348015610857575f80fd5b5061031a6119de565b34801561086b575f80fd5b5061034f61087a366004613152565b6001600160a01b039182165f90815260076020908152604080832093909416825291909152205460ff1690565b3480156108b2575f80fd5b506102f96108c1366004612ad8565b6119eb565b6108ce611a1b565b61091f5760405162461bcd60e51b815260206004820152601760248201527f4e6f7420617574686f72697a656420746f206d696e742e00000000000000000060448201526064015b60405180910390fd5b61093061092a5f5490565b82611a47565b61094a82600160405180602001604052805f815250611ac5565b5050565b60126020525f90815260409020805461096690613183565b80601f016020809104026020016040519081016040528092919081815260200182805461099290613183565b80156109dd5780601f106109b4576101008083540402835291602001916109dd565b820191905f5260205f20905b8154815290600101906020018083116109c057829003601f168201915b505050505081565b5f6301ffc9a760e01b6001600160e01b031983161480610a1557506380ac58cd60e01b6001600160e01b03198316145b80610a305750635b5e139f60e01b6001600160e01b03198316145b80610a4b57506001600160e01b0319821663152a902d60e11b145b92915050565b606060028054610a6090613183565b80601f0160208091040260200160405190810160405280929190818152602001828054610a8c90613183565b8015610ad75780601f10610aae57610100808354040283529160200191610ad7565b820191905f5260205f20905b815481529060010190602001808311610aba57829003601f168201915b5050505050905090565b5f610aeb82611c84565b610b08576040516333d1c03960e21b815260040160405180910390fd5b505f908152600660205260409020546001600160a01b031690565b5f610b2d82610f1c565b9050806001600160a01b0316836001600160a01b031603610b615760405163250fdee360e21b815260040160405180910390fd5b336001600160a01b03821614610b9857610b7b813361087a565b610b98576040516367d9dca160e11b815260040160405180910390fd5b610ba3838383611cad565b505050565b610bb0611a1b565b610bcd576040516316ccb9cb60e11b815260040160405180910390fd5b610bd681611d15565b50565b610ba3838383611d73565b5f610bee600c5490565b8210610c1057604051630793127760e11b815260048101839052602401610916565b600c8281548110610c2357610c236131bb565b905f5260205f2001549050919050565b5f805f80610c4086610dc0565b90945084925061ffff169050612710610c5982876131e3565b610c63919061320e565b925050509250929050565b6009546001600160a01b03163314610c99576040516316ccb9cb60e11b815260040160405180910390fd5b4780610ce75760405162461bcd60e51b815260206004820152601460248201527f4e6f2066756e647320746f2077697468647261770000000000000000000000006044820152606401610916565b6009546040516001600160a01b039091169082156108fc029083905f818181858888f1935050505015801561094a573d5f803e3d5ffd5b610ba383838360405180602001604052805f815250611715565b610bd6816001611f59565b5f80610d4e83610f1c565b9050806001600160a01b0316846001600160a01b03161480610d9457506001600160a01b038082165f9081526007602090815260408083209388168352929052205460ff165b80610db85750836001600160a01b0316610dad84610ae1565b6001600160a01b0316145b949350505050565b5f818152600b60209081526040808320815180830190925280546001600160a01b031680835260019091015492820192909252829115610e065780516020820151610e20565b600a546001600160a01b03811690600160a01b900461ffff165b9250925050915091565b80516060905f8167ffffffffffffffff811115610e4957610e496129dc565b604051908082528060200260200182016040528015610e9257816020015b604080516060810182525f80825260208083018290529282015282525f19909201910181610e675790505b5090505f5b828114610ee557610ec0858281518110610eb357610eb36131bb565b6020026020010151611849565b828281518110610ed257610ed26131bb565b6020908102919091010152600101610e97565b509392505050565b610ef5611a1b565b610f1257604051636fae358160e11b815260040160405180910390fd5b61094a8282612148565b5f610f26826121f0565b5192915050565b5f6001600160a01b038216610f55576040516323d3ad8160e21b815260040160405180910390fd5b506001600160a01b03165f9081526005602052604090205467ffffffffffffffff1690565b610f82611a1b565b610fce5760405162461bcd60e51b815260206004820152601760248201527f4e6f7420617574686f72697a656420746f206d696e742e0000000000000000006044820152606401610916565b610fe0610fd95f5490565b8484612307565b5050610fed848483611ac5565b50505050565b60605f805f61100185610f2d565b90505f8167ffffffffffffffff81111561101d5761101d6129dc565b604051908082528060200260200182016040528015611046578160200160208202803683370190505b50604080516060810182525f808252602082018190529181018290529192505b838614611121575f81815260046020908152604091829020825160608101845290546001600160a01b0381168252600160a01b810467ffffffffffffffff1692820192909252600160e01b90910460ff16151591810182905292506111195781516001600160a01b0316156110da57815194505b876001600160a01b0316856001600160a01b031603611119578083878060010198508151811061110c5761110c6131bb565b6020026020010181815250505b600101611066565b50909695505050505050565b8151835114801561113f575080518351145b61118b5760405162461bcd60e51b815260206004820152601860248201527f4172726179206c656e67746873206d757374206d6174636800000000000000006044820152606401610916565b612710835161119c6001545f540390565b6111a69190613221565b11156111f45760405162461bcd60e51b815260206004820152601d60248201527f426174636820776f756c6420657863656564206d617820737570706c790000006044820152606401610916565b825160105461120391906131e3565b3410156112525760405162461bcd60e51b815260206004820152601560248201527f496e73756666696369656e74206d696e742066656500000000000000000000006044820152606401610916565b5f5b83518110156112fc575f546112698682612369565b61128c8186848151811061127f5761127f6131bb565b6020026020010151611a47565b83828151811061129e5761129e6131bb565b602002602001015160115f8381526020019081526020015f20819055508282815181106112cd576112cd6131bb565b602002602001015160125f8381526020019081526020015f2090816112f29190613278565b5050600101611254565b5050505050565b61130b611a1b565b61132857604051639f7f092560e01b815260040160405180910390fd5b610bd681612382565b606060038054610a6090613183565b606081831061136257604051631960ccad60e11b815260040160405180910390fd5b5f805480841115611371578093505b5f61137b87610f2d565b90508486101561139a5785850381811015611394578091505b5061139d565b505f5b5f8167ffffffffffffffff8111156113b7576113b76129dc565b6040519080825280602002602001820160405280156113e0578160200160208202803683370190505b509050815f036113f55793506114e692505050565b5f6113ff88611849565b90505f816040015161140f575080515b885b8881141580156114215750848714155b156114da575f81815260046020908152604091829020825160608101845290546001600160a01b0381168252600160a01b810467ffffffffffffffff1692820192909252600160e01b90910460ff16151591810182905293506114d25782516001600160a01b03161561149357825191505b8a6001600160a01b0316826001600160a01b0316036114d257808488806001019950815181106114c5576114c56131bb565b6020026020010181815250505b600101611411565b50505092835250909150505b9392505050565b6114f5611a1b565b61151257604051636fae358160e11b815260040160405180910390fd5b610ba383838361245b565b336001600160a01b038316036115465760405163b06307db60e01b815260040160405180910390fd5b335f8181526007602090815260408083206001600160a01b03871680855290835292819020805460ff191686151590811790915590519081529192917f17307eab39ab6107e8899845ad3d59bd9653f200f220920489ca2b5937696c31910160405180910390a35050565b60608167ffffffffffffffff8111156115cc576115cc6129dc565b6040519080825280602002602001820160405280156115ff57816020015b60608152602001906001900390816115ea5790505b509050335f805b8481101561170c578115611685576116633087878481811061162a5761162a6131bb565b905060200281019061163c9190613334565b8660405160200161164f9392919061337e565b60405160208183030381529060405261251a565b848281518110611675576116756131bb565b6020026020010181905250611704565b6116e63087878481811061169b5761169b6131bb565b90506020028101906116ad9190613334565b8080601f0160208091040260200160405190810160405280939291908181526020018383808284375f9201919091525061251a92505050565b8482815181106116f8576116f86131bb565b60200260200101819052505b600101611606565b50505092915050565b611720848484611d73565b6001600160a01b0383163b15610fed5761173c8484848461253f565b610fed576040516368d2bf6b60e11b815260040160405180910390fd5b6010543410156117ab5760405162461bcd60e51b815260206004820152601560248201527f496e73756666696369656e74206d696e742066656500000000000000000000006044820152606401610916565b6127106117ba6001545f540390565b106118075760405162461bcd60e51b815260206004820152601260248201527f4d617820737570706c79207265616368656400000000000000000000000000006044820152606401610916565b5f546118138582612369565b61181d8185611a47565b5f818152601160209081526040808320869055601290915290206118418382613278565b505050505050565b60408051606080820183525f80835260208084018290528385018290528451928301855281835282018190529281018390529091505f54831061188c5792915050565b505f82815260046020908152604091829020825160608101845290546001600160a01b0381168252600160a01b810467ffffffffffffffff1692820192909252600160e01b90910460ff1615801592820192909252906118ec5792915050565b6114e6836121f0565b5f818152600f602052604081208054606092919061191290613183565b80601f016020809104026020016040519081016040528092919081815260200182805461193e90613183565b80156119895780601f1061196057610100808354040283529160200191611989565b820191905f5260205f20905b81548152906001019060200180831161196c57829003601f168201915b505050505090505f8151111561199f5792915050565b5f6119a984612626565b9050806119b58561279b565b6040516020016119c69291906133bb565b60405160208183030381529060405292505050919050565b6008805461096690613183565b6009546001600160a01b03163314611a16576040516316ccb9cb60e11b815260040160405180910390fd5b601055565b5f611a2e6009546001600160a01b031690565b6001600160a01b0316336001600160a01b031614905090565b5f828152600f602052604090208054611a5f90613183565b159050611aae5760405162461bcd60e51b815260206004820152600f60248201527f55524920616c72656164792073657400000000000000000000000000000000006044820152606401610916565b5f828152600f60205260409020610ba38282613278565b5f546001600160a01b038416611aed57604051622e076360e81b815260040160405180910390fd5b825f03611b0d5760405163b562e8dd60e01b815260040160405180910390fd5b6001600160a01b0384165f81815260056020908152604080832080546fffffffffffffffffffffffffffffffff19811667ffffffffffffffff8083168b0181169182176801000000000000000067ffffffffffffffff1990941690921783900481168b01811690920217909155858452600490925290912080546001600160e01b0319168317600160a01b42909316929092029190911790558190818501903b15611c31575b60405182906001600160a01b038816905f907fddf252ad1be2c89b69c2b068fc378daa952ba7f163c4a11628f55a4df523b3ef908290a4611bfc5f87848060010195508761253f565b611c19576040516368d2bf6b60e11b815260040160405180910390fd5b808210611bb357825f5414611c2c575f80fd5b611c75565b5b6040516001830192906001600160a01b038816905f907fddf252ad1be2c89b69c2b068fc378daa952ba7f163c4a11628f55a4df523b3ef908290a4808210611c32575b505f908155610fed9085838684565b5f805482108015610a4b5750505f90815260046020526040902054600160e01b900460ff161590565b5f82815260066020526040808220805473ffffffffffffffffffffffffffffffffffffffff19166001600160a01b0387811691821790925591518593918516917f8c5be1e5ebec7d5bd14f71427d1e84f3dd0314c0f7b2291e5b200ac8c7c3b92591a4505050565b600980546001600160a01b0383811673ffffffffffffffffffffffffffffffffffffffff19831681179093556040519116919082907f8292fce18fa69edf4db7b94ea2e58241df0ae57f97e0a6c9b29067028bf92d76905f90a35050565b5f611d7d826121f0565b9050836001600160a01b0316815f01516001600160a01b031614611db35760405162a1148160e81b815260040160405180910390fd5b5f336001600160a01b0386161480611dd05750611dd0853361087a565b80611deb575033611de084610ae1565b6001600160a01b0316145b905080611e0b57604051632ce44b5f60e11b815260040160405180910390fd5b6001600160a01b038416611e3257604051633a954ecd60e21b815260040160405180910390fd5b611e3d5f8487611cad565b6001600160a01b038581165f908152600560209081526040808320805467ffffffffffffffff1980821667ffffffffffffffff9283165f1901831617909255898616808652838620805493841693831660019081018416949094179055898652600490945282852080546001600160e01b031916909417600160a01b42909216919091021783558701808452922080549193909116611f10575f548214611f10578054602086015167ffffffffffffffff16600160a01b026001600160e01b03199091166001600160a01b038a16171781555b50505082846001600160a01b0316866001600160a01b03167fddf252ad1be2c89b69c2b068fc378daa952ba7f163c4a11628f55a4df523b3ef60405160405180910390a46112fc565b5f611f63836121f0565b80519091508215611fc8575f336001600160a01b0383161480611f8b5750611f8b823361087a565b80611fa6575033611f9b86610ae1565b6001600160a01b0316145b905080611fc657604051632ce44b5f60e11b815260040160405180910390fd5b505b611fd35f8583611cad565b6001600160a01b038082165f81815260056020908152604080832080547001000000000000000000000000000000005f1967ffffffffffffffff80841691909101811667ffffffffffffffff19841681178390048216600190810183169093027fffffffffffffffff0000000000000000ffffffffffffffff0000000000000000909416179290921783558b8652600490945282852080547fffffff00ffffffffffffffffffffffffffffffffffffffffffffffffffffffff42909316600160a01b026001600160e01b03199091169097179690961716600160e01b1785559189018084529220805491949091166120ff575f5482146120ff578054602087015167ffffffffffffffff16600160a01b026001600160e01b03199091166001600160a01b038716171781555b50506040518692505f91506001600160a01b038416907fddf252ad1be2c89b69c2b068fc378daa952ba7f163c4a11628f55a4df523b3ef908390a4505060018054810190555050565b61271081111561217657604051630a4930ad60e31b8152612710600482015260248101829052604401610916565b600a80546001600160a01b0384167fffffffffffffffffffff000000000000000000000000000000000000000000009091168117600160a01b61ffff851602179091556040518281527f90d7ec04bcb8978719414f82e52e4cb651db41d0e6f8cea6118c2191e6183adb9060200160405180910390a25050565b604080516060810182525f8082526020820181905291810191909152815f548110156122ee575f81815260046020908152604091829020825160608101845290546001600160a01b0381168252600160a01b810467ffffffffffffffff1692820192909252600160e01b90910460ff161515918101829052906122ec5780516001600160a01b031615612284579392505050565b505f19015f81815260046020908152604091829020825160608101845290546001600160a01b038116808352600160a01b820467ffffffffffffffff1693830193909352600160e01b900460ff16151592810192909252156122e7579392505050565b612284565b505b604051636f96cda160e11b815260040160405180910390fd5b5f806123138486613221565b600c8054600181019091557fdf6966c971051c3d54ec59162606531493a51404a002842f56009d7e5cf4a8c7018190555f818152600d602052604090209092508291506123608482613278565b50935093915050565b61094a828260405180602001604052805f815250611ac5565b5f6008805461239090613183565b80601f01602080910402602001604051908101604052809291908181526020018280546123bc90613183565b80156124075780601f106123de57610100808354040283529160200191612407565b820191905f5260205f20905b8154815290600101906020018083116123ea57829003601f168201915b50505050509050816008908161241d9190613278565b507fc9c7c3fe08b88b4df9d4d47ef47d2c43d55c025a0ba88ca442580ed9e7348a16818360405161244f9291906133cf565b60405180910390a15050565b61271081111561248957604051630a4930ad60e31b8152612710600482015260248101829052604401610916565b6040805180820182526001600160a01b0384811680835260208084018681525f898152600b83528690209451855473ffffffffffffffffffffffffffffffffffffffff1916941693909317845591516001909301929092559151838152909185917f7365cf4122f072a3365c20d54eff9b38d73c096c28e1892ec8f5b0e403a0f12d910160405180910390a3505050565b60606114e68383604051806060016040528060278152602001613492602791396128b0565b604051630a85bd0160e11b81525f906001600160a01b0385169063150b7a02906125739033908990889088906004016133fc565b6020604051808303815f875af19250505080156125ad575060408051601f3d908101601f191682019092526125aa9181019061342d565b60015b612609573d8080156125da576040519150601f19603f3d011682016040523d82523d5f602084013e6125df565b606091505b5080515f03612601576040516368d2bf6b60e11b815260040160405180910390fd5b805181602001fd5b6001600160e01b031916630a85bd0160e11b149050949350505050565b60605f612632600c5490565b90505f600c80548060200260200160405190810160405280929190818152602001828054801561267f57602002820191905f5260205f20905b81548152602001906001019080831161266b575b505050505090505f5b8281101561277e578181815181106126a2576126a26131bb565b602002602001015185101561276c57600d5f8383815181106126c6576126c66131bb565b602002602001015181526020019081526020015f2080546126e690613183565b80601f016020809104026020016040519081016040528092919081815260200182805461271290613183565b801561275d5780601f106127345761010080835404028352916020019161275d565b820191905f5260205f20905b81548152906001019060200180831161274057829003601f168201915b50505050509350505050919050565b612777600182613221565b9050612688565b506040516309797f6960e21b815260048101859052602401610916565b6060815f036127c15750506040805180820190915260018152600360fc1b602082015290565b815f5b81156127ea57806127d481613448565b91506127e39050600a8361320e565b91506127c4565b5f8167ffffffffffffffff811115612804576128046129dc565b6040519080825280601f01601f19166020018201604052801561282e576020820181803683370190505b5090505b8415610db857612843600183613460565b9150612850600a86613473565b61285b906030613221565b60f81b818381518110612870576128706131bb565b60200101907effffffffffffffffffffffffffffffffffffffffffffffffffffffffffffff191690815f1a9053506128a9600a8661320e565b9450612832565b60605f80856001600160a01b0316856040516128cc9190613486565b5f60405180830381855af49150503d805f8114612904576040519150601f19603f3d011682016040523d82523d5f602084013e612909565b606091505b509150915061291a86838387612924565b9695505050505050565b606083156129925782515f0361298b576001600160a01b0385163b61298b5760405162461bcd60e51b815260206004820152601d60248201527f416464726573733a2063616c6c20746f206e6f6e2d636f6e74726163740000006044820152606401610916565b5081610db8565b610db883838151156129a75781518083602001fd5b8060405162461bcd60e51b81526004016109169190612b1d565b80356001600160a01b03811681146129d7575f80fd5b919050565b634e487b7160e01b5f52604160045260245ffd5b604051601f8201601f1916810167ffffffffffffffff81118282101715612a1957612a196129dc565b604052919050565b5f82601f830112612a30575f80fd5b813567ffffffffffffffff811115612a4a57612a4a6129dc565b612a5d601f8201601f19166020016129f0565b818152846020838601011115612a71575f80fd5b816020850160208301375f918101602001919091529392505050565b5f8060408385031215612a9e575f80fd5b612aa7836129c1565b9150602083013567ffffffffffffffff811115612ac2575f80fd5b612ace85828601612a21565b9150509250929050565b5f60208284031215612ae8575f80fd5b5035919050565b5f81518084528060208401602086015e5f602082860101526020601f19601f83011685010191505092915050565b602081525f6114e66020830184612aef565b6001600160e01b031981168114610bd6575f80fd5b5f60208284031215612b54575f80fd5b81356114e681612b2f565b5f8060408385031215612b70575f80fd5b612b79836129c1565b946020939093013593505050565b5f60208284031215612b97575f80fd5b6114e6826129c1565b5f805f60608486031215612bb2575f80fd5b612bbb846129c1565b9250612bc9602085016129c1565b9150604084013590509250925092565b5f8060408385031215612bea575f80fd5b50508035926020909101359150565b5f67ffffffffffffffff821115612c1257612c126129dc565b5060051b60200190565b5f82601f830112612c2b575f80fd5b81356020612c40612c3b83612bf9565b6129f0565b8083825260208201915060208460051b870101935086841115612c61575f80fd5b602086015b84811015612c7d5780358352918301918301612c66565b509695505050505050565b5f60208284031215612c98575f80fd5b813567ffffffffffffffff811115612cae575f80fd5b610db884828501612c1c565b602080825282518282018190525f9190848201906040850190845b8181101561112157612d1183855180516001600160a01b0316825260208082015167ffffffffffffffff16908301526040908101511515910152565b9284019260609290920191600101612cd5565b5f805f8060808587031215612d37575f80fd5b612d40856129c1565b935060208501359250604085013567ffffffffffffffff80821115612d63575f80fd5b612d6f88838901612a21565b93506060870135915080821115612d84575f80fd5b50612d9187828801612a21565b91505092959194509250565b602080825282518282018190525f9190848201906040850190845b8181101561112157835183529284019291840191600101612db8565b5f82601f830112612de3575f80fd5b81356020612df3612c3b83612bf9565b82815260059290921b84018101918181019086841115612e11575f80fd5b8286015b84811015612c7d57803567ffffffffffffffff811115612e33575f80fd5b612e418986838b0101612a21565b845250918301918301612e15565b5f805f8060808587031215612e62575f80fd5b612e6b856129c1565b9350602085013567ffffffffffffffff80821115612e87575f80fd5b612e9388838901612dd4565b94506040870135915080821115612ea8575f80fd5b612eb488838901612c1c565b93506060870135915080821115612ec9575f80fd5b50612d9187828801612dd4565b5f60208284031215612ee6575f80fd5b813567ffffffffffffffff811115612efc575f80fd5b610db884828501612a21565b5f805f60608486031215612f1a575f80fd5b612f23846129c1565b95602085013595506040909401359392505050565b5f805f60608486031215612f4a575f80fd5b83359250612bc9602085016129c1565b5f8060408385031215612f6b575f80fd5b612f74836129c1565b915060208301358015158114612f88575f80fd5b809150509250929050565b5f8060208385031215612fa4575f80fd5b823567ffffffffffffffff80821115612fbb575f80fd5b818501915085601f830112612fce575f80fd5b813581811115612fdc575f80fd5b8660208260051b8501011115612ff0575f80fd5b60209290920196919550909350505050565b5f60208083016020845280855180835260408601915060408160051b8701019250602087015f5b8281101561305757603f19888603018452613045858351612aef565b94509285019290850190600101613029565b5092979650505050505050565b5f805f8060808587031215613077575f80fd5b613080856129c1565b935061308e602086016129c1565b925060408501359150606085013567ffffffffffffffff8111156130b0575f80fd5b612d9187828801612a21565b5f805f80608085870312156130cf575f80fd5b6130d8856129c1565b9350602085013567ffffffffffffffff808211156130f4575f80fd5b61310088838901612a21565b9450604087013593506060870135915080821115612d84575f80fd5b81516001600160a01b0316815260208083015167ffffffffffffffff169082015260408083015115159082015260608101610a4b565b5f8060408385031215613163575f80fd5b61316c836129c1565b915061317a602084016129c1565b90509250929050565b600181811c9082168061319757607f821691505b6020821081036131b557634e487b7160e01b5f52602260045260245ffd5b50919050565b634e487b7160e01b5f52603260045260245ffd5b634e487b7160e01b5f52601160045260245ffd5b8082028115828204841417610a4b57610a4b6131cf565b634e487b7160e01b5f52601260045260245ffd5b5f8261321c5761321c6131fa565b500490565b80820180821115610a4b57610a4b6131cf565b601f821115610ba357805f5260205f20601f840160051c810160208510156132595750805b601f840160051c820191505b818110156112fc575f8155600101613265565b815167ffffffffffffffff811115613292576132926129dc565b6132a6816132a08454613183565b84613234565b602080601f8311600181146132d9575f84156132c25750858301515b5f19600386901b1c1916600185901b178555611841565b5f85815260208120601f198616915b82811015613307578886015182559484019460019091019084016132e8565b508582101561332457878501515f19600388901b60f8161c191681555b5050505050600190811b01905550565b5f808335601e19843603018112613349575f80fd5b83018035915067ffffffffffffffff821115613363575f80fd5b602001915036819003821315613377575f80fd5b9250929050565b8284823760609190911b6bffffffffffffffffffffffff19169101908152601401919050565b5f81518060208401855e5f93019283525090919050565b5f610db86133c983866133a4565b846133a4565b604081525f6133e16040830185612aef565b82810360208401526133f38185612aef565b95945050505050565b5f6001600160a01b0380871683528086166020840152508360408301526080606083015261291a6080830184612aef565b5f6020828403121561343d575f80fd5b81516114e681612b2f565b5f60018201613459576134596131cf565b5060010190565b81810381811115610a4b57610a4b6131cf565b5f82613481576134816131fa565b500690565b5f6114e682846133a456fe416464726573733a206c6f772d6c6576656c2064656c65676174652063616c6c206661696c6564a2646970667358221220c3b245480d41e8337a2d9160f814fb00bed071ba9141860aa6aff535cd805f1d64736f6c63430008190033",
      "opcodes": "PUSH1 0x80 PUSH1 0x40 MSTORE CALLVALUE DUP1 ISZERO PUSH2 0xF JUMPI PUSH0 DUP1 REVERT JUMPDEST POP PUSH1 0x40 MLOAD PUSH2 0x38F9 CODESIZE SUB DUP1 PUSH2 0x38F9 DUP4 CODECOPY DUP2 ADD PUSH1 0x40 DUP2 SWAP1 MSTORE PUSH2 0x2E SWAP2 PUSH2 0x21B JUMP JUMPDEST DUP5 DUP5 DUP5 DUP5 DUP5 DUP4 DUP4 PUSH1 0x2 PUSH2 0x41 DUP4 DUP3 PUSH2 0x33F JUMP JUMPDEST POP PUSH1 0x3 PUSH2 0x4E DUP3 DUP3 PUSH2 0x33F JUMP JUMPDEST POP POP PUSH0 DUP1 SSTORE POP PUSH2 0x5D DUP6 PUSH2 0x7F JUMP JUMPDEST PUSH2 0x70 DUP3 PUSH1 0x1 PUSH1 0x1 PUSH1 0x80 SHL SUB DUP4 AND PUSH2 0xD0 JUMP JUMPDEST POP POP POP POP POP POP POP POP POP POP PUSH2 0x3FE JUMP JUMPDEST PUSH1 0x9 DUP1 SLOAD PUSH1 0x1 PUSH1 0x1 PUSH1 0xA0 SHL SUB DUP4 DUP2 AND PUSH1 0x1 PUSH1 0x1 PUSH1 0xA0 SHL SUB NOT DUP4 AND DUP2 OR SWAP1 SWAP4 SSTORE PUSH1 0x40 MLOAD SWAP2 AND SWAP2 SWAP1 DUP3 SWAP1 PUSH32 0x8292FCE18FA69EDF4DB7B94EA2E58241DF0AE57F97E0A6C9B29067028BF92D76 SWAP1 PUSH0 SWAP1 LOG3 POP POP JUMP JUMPDEST PUSH2 0x2710 DUP2 GT ISZERO PUSH2 0x102 JUMPI PUSH1 0x40 MLOAD PUSH4 0xA4930AD PUSH1 0xE3 SHL DUP2 MSTORE PUSH2 0x2710 PUSH1 0x4 DUP3 ADD MSTORE PUSH1 0x24 DUP2 ADD DUP3 SWAP1 MSTORE PUSH1 0x44 ADD PUSH1 0x40 MLOAD DUP1 SWAP2 SUB SWAP1 REVERT JUMPDEST PUSH1 0xA DUP1 SLOAD PUSH1 0x1 PUSH1 0x1 PUSH1 0xA0 SHL SUB DUP5 AND PUSH1 0x1 PUSH1 0x1 PUSH1 0xB0 SHL SUB NOT SWAP1 SWAP2 AND DUP2 OR PUSH1 0x1 PUSH1 0xA0 SHL PUSH2 0xFFFF DUP6 AND MUL OR SWAP1 SWAP2 SSTORE PUSH1 0x40 MLOAD DUP3 DUP2 MSTORE PUSH32 0x90D7EC04BCB8978719414F82E52E4CB651DB41D0E6F8CEA6118C2191E6183ADB SWAP1 PUSH1 0x20 ADD PUSH1 0x40 MLOAD DUP1 SWAP2 SUB SWAP1 LOG2 POP POP JUMP JUMPDEST DUP1 MLOAD PUSH1 0x1 PUSH1 0x1 PUSH1 0xA0 SHL SUB DUP2 AND DUP2 EQ PUSH2 0x17A JUMPI PUSH0 DUP1 REVERT JUMPDEST SWAP2 SWAP1 POP JUMP JUMPDEST PUSH4 0x4E487B71 PUSH1 0xE0 SHL PUSH0 MSTORE PUSH1 0x41 PUSH1 0x4 MSTORE PUSH1 0x24 PUSH0 REVERT JUMPDEST PUSH0 DUP3 PUSH1 0x1F DUP4 ADD SLT PUSH2 0x1A2 JUMPI PUSH0 DUP1 REVERT JUMPDEST DUP2 MLOAD PUSH1 0x1 PUSH1 0x1 PUSH1 0x40 SHL SUB DUP1 DUP3 GT ISZERO PUSH2 0x1BC JUMPI PUSH2 0x1BC PUSH2 0x17F JUMP JUMPDEST PUSH1 0x40 MLOAD PUSH1 0x1F DUP4 ADD PUSH1 0x1F NOT SWAP1 DUP2 AND PUSH1 0x3F ADD AND DUP2 ADD SWAP1 DUP3 DUP3 GT DUP2 DUP4 LT OR ISZERO PUSH2 0x1E4 JUMPI PUSH2 0x1E4 PUSH2 0x17F JUMP JUMPDEST DUP2 PUSH1 0x40 MSTORE DUP4 DUP2 MSTORE DUP7 PUSH1 0x20 DUP6 DUP9 ADD ADD GT ISZERO PUSH2 0x1FC JUMPI PUSH0 DUP1 REVERT JUMPDEST DUP4 PUSH1 0x20 DUP8 ADD PUSH1 0x20 DUP4 ADD MCOPY PUSH0 PUSH1 0x20 DUP6 DUP4 ADD ADD MSTORE DUP1 SWAP5 POP POP POP POP POP SWAP3 SWAP2 POP POP JUMP JUMPDEST PUSH0 DUP1 PUSH0 DUP1 PUSH0 PUSH1 0xA0 DUP7 DUP9 SUB SLT ISZERO PUSH2 0x22F JUMPI PUSH0 DUP1 REVERT JUMPDEST PUSH2 0x238 DUP7 PUSH2 0x164 JUMP JUMPDEST PUSH1 0x20 DUP8 ADD MLOAD SWAP1 SWAP6 POP PUSH1 0x1 PUSH1 0x1 PUSH1 0x40 SHL SUB DUP1 DUP3 GT ISZERO PUSH2 0x254 JUMPI PUSH0 DUP1 REVERT JUMPDEST PUSH2 0x260 DUP10 DUP4 DUP11 ADD PUSH2 0x193 JUMP JUMPDEST SWAP6 POP PUSH1 0x40 DUP9 ADD MLOAD SWAP2 POP DUP1 DUP3 GT ISZERO PUSH2 0x275 JUMPI PUSH0 DUP1 REVERT JUMPDEST POP PUSH2 0x282 DUP9 DUP3 DUP10 ADD PUSH2 0x193 JUMP JUMPDEST SWAP4 POP POP PUSH2 0x291 PUSH1 0x60 DUP8 ADD PUSH2 0x164 JUMP JUMPDEST PUSH1 0x80 DUP8 ADD MLOAD SWAP1 SWAP3 POP PUSH1 0x1 PUSH1 0x1 PUSH1 0x80 SHL SUB DUP2 AND DUP2 EQ PUSH2 0x2AD JUMPI PUSH0 DUP1 REVERT JUMPDEST DUP1 SWAP2 POP POP SWAP3 SWAP6 POP SWAP3 SWAP6 SWAP1 SWAP4 POP JUMP JUMPDEST PUSH1 0x1 DUP2 DUP2 SHR SWAP1 DUP3 AND DUP1 PUSH2 0x2CF JUMPI PUSH1 0x7F DUP3 AND SWAP2 POP JUMPDEST PUSH1 0x20 DUP3 LT DUP2 SUB PUSH2 0x2ED JUMPI PUSH4 0x4E487B71 PUSH1 0xE0 SHL PUSH0 MSTORE PUSH1 0x22 PUSH1 0x4 MSTORE PUSH1 0x24 PUSH0 REVERT JUMPDEST POP SWAP2 SWAP1 POP JUMP JUMPDEST PUSH1 0x1F DUP3 GT ISZERO PUSH2 0x33A JUMPI DUP1 PUSH0 MSTORE PUSH1 0x20 PUSH0 KECCAK256 PUSH1 0x1F DUP5 ADD PUSH1 0x5 SHR DUP2 ADD PUSH1 0x20 DUP6 LT ISZERO PUSH2 0x318 JUMPI POP DUP1 JUMPDEST PUSH1 0x1F DUP5 ADD PUSH1 0x5 SHR DUP3 ADD SWAP2 POP JUMPDEST DUP2 DUP2 LT ISZERO PUSH2 0x337 JUMPI PUSH0 DUP2 SSTORE PUSH1 0x1 ADD PUSH2 0x324 JUMP JUMPDEST POP POP JUMPDEST POP POP POP JUMP JUMPDEST DUP2 MLOAD PUSH1 0x1 PUSH1 0x1 PUSH1 0x40 SHL SUB DUP2 GT ISZERO PUSH2 0x358 JUMPI PUSH2 0x358 PUSH2 0x17F JUMP JUMPDEST PUSH2 0x36C DUP2 PUSH2 0x366 DUP5 SLOAD PUSH2 0x2BB JUMP JUMPDEST DUP5 PUSH2 0x2F3 JUMP JUMPDEST PUSH1 0x20 DUP1 PUSH1 0x1F DUP4 GT PUSH1 0x1 DUP2 EQ PUSH2 0x39F JUMPI PUSH0 DUP5 ISZERO PUSH2 0x388 JUMPI POP DUP6 DUP4 ADD MLOAD JUMPDEST PUSH0 NOT PUSH1 0x3 DUP7 SWAP1 SHL SHR NOT AND PUSH1 0x1 DUP6 SWAP1 SHL OR DUP6 SSTORE PUSH2 0x3F6 JUMP JUMPDEST PUSH0 DUP6 DUP2 MSTORE PUSH1 0x20 DUP2 KECCAK256 PUSH1 0x1F NOT DUP7 AND SWAP2 JUMPDEST DUP3 DUP2 LT ISZERO PUSH2 0x3CD JUMPI DUP9 DUP7 ADD MLOAD DUP3 SSTORE SWAP5 DUP5 ADD SWAP5 PUSH1 0x1 SWAP1 SWAP2 ADD SWAP1 DUP5 ADD PUSH2 0x3AE JUMP JUMPDEST POP DUP6 DUP3 LT ISZERO PUSH2 0x3EA JUMPI DUP8 DUP6 ADD MLOAD PUSH0 NOT PUSH1 0x3 DUP9 SWAP1 SHL PUSH1 0xF8 AND SHR NOT AND DUP2 SSTORE JUMPDEST POP POP PUSH1 0x1 DUP5 PUSH1 0x1 SHL ADD DUP6 SSTORE JUMPDEST POP POP POP POP POP POP JUMP JUMPDEST PUSH2 0x34EE DUP1 PUSH2 0x40B PUSH0 CODECOPY PUSH0 RETURN INVALID PUSH1 0x80 PUSH1 0x40 MSTORE PUSH1 0x4 CALLDATASIZE LT PUSH2 0x2D6 JUMPI PUSH0 CALLDATALOAD PUSH1 0xE0 SHR DUP1 PUSH4 0x6352211E GT PUSH2 0x17B JUMPI DUP1 PUSH4 0x9BCF7A15 GT PUSH2 0xD1 JUMPI DUP1 PUSH4 0xBB62A58D GT PUSH2 0x87 JUMPI DUP1 PUSH4 0xE8A3D485 GT PUSH2 0x62 JUMPI DUP1 PUSH4 0xE8A3D485 EQ PUSH2 0x84C JUMPI DUP1 PUSH4 0xE985E9C5 EQ PUSH2 0x860 JUMPI DUP1 PUSH4 0xEDDD0D9C EQ PUSH2 0x8A7 JUMPI PUSH0 DUP1 REVERT JUMPDEST DUP1 PUSH4 0xBB62A58D EQ PUSH2 0x7EE JUMPI DUP1 PUSH4 0xC23DC68F EQ PUSH2 0x801 JUMPI DUP1 PUSH4 0xC87B56DD EQ PUSH2 0x82D JUMPI PUSH0 DUP1 REVERT JUMPDEST DUP1 PUSH4 0xAC9650D8 GT PUSH2 0xB7 JUMPI DUP1 PUSH4 0xAC9650D8 EQ PUSH2 0x779 JUMPI DUP1 PUSH4 0xB24F2D39 EQ PUSH2 0x7A5 JUMPI DUP1 PUSH4 0xB88D4FDE EQ PUSH2 0x7CF JUMPI PUSH0 DUP1 REVERT JUMPDEST DUP1 PUSH4 0x9BCF7A15 EQ PUSH2 0x73B JUMPI DUP1 PUSH4 0xA22CB465 EQ PUSH2 0x75A JUMPI PUSH0 DUP1 REVERT JUMPDEST DUP1 PUSH4 0x8462151C GT PUSH2 0x131 JUMPI DUP1 PUSH4 0x938E3D7B GT PUSH2 0x10C JUMPI DUP1 PUSH4 0x938E3D7B EQ PUSH2 0x6E9 JUMPI DUP1 PUSH4 0x95D89B41 EQ PUSH2 0x708 JUMPI DUP1 PUSH4 0x99A2557A EQ PUSH2 0x71C JUMPI PUSH0 DUP1 REVERT JUMPDEST DUP1 PUSH4 0x8462151C EQ PUSH2 0x68D JUMPI DUP1 PUSH4 0x8DA5CB5B EQ PUSH2 0x6B9 JUMPI DUP1 PUSH4 0x90113FD0 EQ PUSH2 0x6D6 JUMPI PUSH0 DUP1 REVERT JUMPDEST DUP1 PUSH4 0x70A08231 GT PUSH2 0x161 JUMPI DUP1 PUSH4 0x70A08231 EQ PUSH2 0x621 JUMPI DUP1 PUSH4 0x754A81D9 EQ PUSH2 0x640 JUMPI DUP1 PUSH4 0x83040532 EQ PUSH2 0x65F JUMPI PUSH0 DUP1 REVERT JUMPDEST DUP1 PUSH4 0x6352211E EQ PUSH2 0x5EE JUMPI DUP1 PUSH4 0x63B45E2D EQ PUSH2 0x60D JUMPI PUSH0 DUP1 REVERT JUMPDEST DUP1 PUSH4 0x2419F51B GT PUSH2 0x230 JUMPI DUP1 PUSH4 0x42842E0E GT PUSH2 0x1E6 JUMPI DUP1 PUSH4 0x4CC157DF GT PUSH2 0x1C1 JUMPI DUP1 PUSH4 0x4CC157DF EQ PUSH2 0x562 JUMPI DUP1 PUSH4 0x5BBB2177 EQ PUSH2 0x5A3 JUMPI DUP1 PUSH4 0x600DD5EA EQ PUSH2 0x5CF JUMPI PUSH0 DUP1 REVERT JUMPDEST DUP1 PUSH4 0x42842E0E EQ PUSH2 0x505 JUMPI DUP1 PUSH4 0x42966C68 EQ PUSH2 0x524 JUMPI DUP1 PUSH4 0x430C2081 EQ PUSH2 0x543 JUMPI PUSH0 DUP1 REVERT JUMPDEST DUP1 PUSH4 0x32CB6B0C GT PUSH2 0x216 JUMPI DUP1 PUSH4 0x32CB6B0C EQ PUSH2 0x4C9 JUMPI DUP1 PUSH4 0x3B1475A7 EQ PUSH2 0x4DE JUMPI DUP1 PUSH4 0x3CCFD60B EQ PUSH2 0x4F1 JUMPI PUSH0 DUP1 REVERT JUMPDEST DUP1 PUSH4 0x2419F51B EQ PUSH2 0x46C JUMPI DUP1 PUSH4 0x2A55205A EQ PUSH2 0x48B JUMPI PUSH0 DUP1 REVERT JUMPDEST DUP1 PUSH4 0x95EA7B3 GT PUSH2 0x290 JUMPI DUP1 PUSH4 0x16551300 GT PUSH2 0x26B JUMPI DUP1 PUSH4 0x16551300 EQ PUSH2 0x40B JUMPI DUP1 PUSH4 0x18160DDD EQ PUSH2 0x436 JUMPI DUP1 PUSH4 0x23B872DD EQ PUSH2 0x44D JUMPI PUSH0 DUP1 REVERT JUMPDEST DUP1 PUSH4 0x95EA7B3 EQ PUSH2 0x3AA JUMPI DUP1 PUSH4 0x13966DB5 EQ PUSH2 0x3C9 JUMPI DUP1 PUSH4 0x13AF4035 EQ PUSH2 0x3EC JUMPI PUSH0 DUP1 REVERT JUMPDEST DUP1 PUSH4 0x1FFC9A7 GT PUSH2 0x2C0 JUMPI DUP1 PUSH4 0x1FFC9A7 EQ PUSH2 0x330 JUMPI DUP1 PUSH4 0x6FDDE03 EQ PUSH2 0x35F JUMPI DUP1 PUSH4 0x81812FC EQ PUSH2 0x373 JUMPI PUSH0 DUP1 REVERT JUMPDEST DUP1 PUSH3 0x75A317 EQ PUSH2 0x2DA JUMPI DUP1 PUSH4 0x1B0A13E EQ PUSH2 0x2FB JUMPI JUMPDEST PUSH0 DUP1 REVERT JUMPDEST CALLVALUE DUP1 ISZERO PUSH2 0x2E5 JUMPI PUSH0 DUP1 REVERT JUMPDEST POP PUSH2 0x2F9 PUSH2 0x2F4 CALLDATASIZE PUSH1 0x4 PUSH2 0x2A8D JUMP JUMPDEST PUSH2 0x8C6 JUMP JUMPDEST STOP JUMPDEST CALLVALUE DUP1 ISZERO PUSH2 0x306 JUMPI PUSH0 DUP1 REVERT JUMPDEST POP PUSH2 0x31A PUSH2 0x315 CALLDATASIZE PUSH1 0x4 PUSH2 0x2AD8 JUMP JUMPDEST PUSH2 0x94E JUMP JUMPDEST PUSH1 0x40 MLOAD PUSH2 0x327 SWAP2 SWAP1 PUSH2 0x2B1D JUMP JUMPDEST PUSH1 0x40 MLOAD DUP1 SWAP2 SUB SWAP1 RETURN JUMPDEST CALLVALUE DUP1 ISZERO PUSH2 0x33B JUMPI PUSH0 DUP1 REVERT JUMPDEST POP PUSH2 0x34F PUSH2 0x34A CALLDATASIZE PUSH1 0x4 PUSH2 0x2B44 JUMP JUMPDEST PUSH2 0x9E5 JUMP JUMPDEST PUSH1 0x40 MLOAD SWAP1 ISZERO ISZERO DUP2 MSTORE PUSH1 0x20 ADD PUSH2 0x327 JUMP JUMPDEST CALLVALUE DUP1 ISZERO PUSH2 0x36A JUMPI PUSH0 DUP1 REVERT JUMPDEST POP PUSH2 0x31A PUSH2 0xA51 JUMP JUMPDEST CALLVALUE DUP1 ISZERO PUSH2 0x37E JUMPI PUSH0 DUP1 REVERT JUMPDEST POP PUSH2 0x392 PUSH2 0x38D CALLDATASIZE PUSH1 0x4 PUSH2 0x2AD8 JUMP JUMPDEST PUSH2 0xAE1 JUMP JUMPDEST PUSH1 0x40 MLOAD PUSH1 0x1 PUSH1 0x1 PUSH1 0xA0 SHL SUB SWAP1 SWAP2 AND DUP2 MSTORE PUSH1 0x20 ADD PUSH2 0x327 JUMP JUMPDEST CALLVALUE DUP1 ISZERO PUSH2 0x3B5 JUMPI PUSH0 DUP1 REVERT JUMPDEST POP PUSH2 0x2F9 PUSH2 0x3C4 CALLDATASIZE PUSH1 0x4 PUSH2 0x2B5F JUMP JUMPDEST PUSH2 0xB23 JUMP JUMPDEST CALLVALUE DUP1 ISZERO PUSH2 0x3D4 JUMPI PUSH0 DUP1 REVERT JUMPDEST POP PUSH2 0x3DE PUSH1 0x10 SLOAD DUP2 JUMP JUMPDEST PUSH1 0x40 MLOAD SWAP1 DUP2 MSTORE PUSH1 0x20 ADD PUSH2 0x327 JUMP JUMPDEST CALLVALUE DUP1 ISZERO PUSH2 0x3F7 JUMPI PUSH0 DUP1 REVERT JUMPDEST POP PUSH2 0x2F9 PUSH2 0x406 CALLDATASIZE PUSH1 0x4 PUSH2 0x2B87 JUMP JUMPDEST PUSH2 0xBA8 JUMP JUMPDEST CALLVALUE DUP1 ISZERO PUSH2 0x416 JUMPI PUSH0 DUP1 REVERT JUMPDEST POP PUSH2 0x3DE PUSH2 0x425 CALLDATASIZE PUSH1 0x4 PUSH2 0x2AD8 JUMP JUMPDEST PUSH1 0x11 PUSH1 0x20 MSTORE PUSH0 SWAP1 DUP2 MSTORE PUSH1 0x40 SWAP1 KECCAK256 SLOAD DUP2 JUMP JUMPDEST CALLVALUE DUP1 ISZERO PUSH2 0x441 JUMPI PUSH0 DUP1 REVERT JUMPDEST POP PUSH1 0x1 SLOAD PUSH0 SLOAD SUB PUSH2 0x3DE JUMP JUMPDEST CALLVALUE DUP1 ISZERO PUSH2 0x458 JUMPI PUSH0 DUP1 REVERT JUMPDEST POP PUSH2 0x2F9 PUSH2 0x467 CALLDATASIZE PUSH1 0x4 PUSH2 0x2BA0 JUMP JUMPDEST PUSH2 0xBD9 JUMP JUMPDEST CALLVALUE DUP1 ISZERO PUSH2 0x477 JUMPI PUSH0 DUP1 REVERT JUMPDEST POP PUSH2 0x3DE PUSH2 0x486 CALLDATASIZE PUSH1 0x4 PUSH2 0x2AD8 JUMP JUMPDEST PUSH2 0xBE4 JUMP JUMPDEST CALLVALUE DUP1 ISZERO PUSH2 0x496 JUMPI PUSH0 DUP1 REVERT JUMPDEST POP PUSH2 0x4AA PUSH2 0x4A5 CALLDATASIZE PUSH1 0x4 PUSH2 0x2BD9 JUMP JUMPDEST PUSH2 0xC33 JUMP JUMPDEST PUSH1 0x40 DUP1 MLOAD PUSH1 0x1 PUSH1 0x1 PUSH1 0xA0 SHL SUB SWAP1 SWAP4 AND DUP4 MSTORE PUSH1 0x20 DUP4 ADD SWAP2 SWAP1 SWAP2 MSTORE ADD PUSH2 0x327 JUMP JUMPDEST CALLVALUE DUP1 ISZERO PUSH2 0x4D4 JUMPI PUSH0 DUP1 REVERT JUMPDEST POP PUSH2 0x3DE PUSH2 0x2710 DUP2 JUMP JUMPDEST CALLVALUE DUP1 ISZERO PUSH2 0x4E9 JUMPI PUSH0 DUP1 REVERT JUMPDEST POP PUSH0 SLOAD PUSH2 0x3DE JUMP JUMPDEST CALLVALUE DUP1 ISZERO PUSH2 0x4FC JUMPI PUSH0 DUP1 REVERT JUMPDEST POP PUSH2 0x2F9 PUSH2 0xC6E JUMP JUMPDEST CALLVALUE DUP1 ISZERO PUSH2 0x510 JUMPI PUSH0 DUP1 REVERT JUMPDEST POP PUSH2 0x2F9 PUSH2 0x51F CALLDATASIZE PUSH1 0x4 PUSH2 0x2BA0 JUMP JUMPDEST PUSH2 0xD1E JUMP JUMPDEST CALLVALUE DUP1 ISZERO PUSH2 0x52F JUMPI PUSH0 DUP1 REVERT JUMPDEST POP PUSH2 0x2F9 PUSH2 0x53E CALLDATASIZE PUSH1 0x4 PUSH2 0x2AD8 JUMP JUMPDEST PUSH2 0xD38 JUMP JUMPDEST CALLVALUE DUP1 ISZERO PUSH2 0x54E JUMPI PUSH0 DUP1 REVERT JUMPDEST POP PUSH2 0x34F PUSH2 0x55D CALLDATASIZE PUSH1 0x4 PUSH2 0x2B5F JUMP JUMPDEST PUSH2 0xD43 JUMP JUMPDEST CALLVALUE DUP1 ISZERO PUSH2 0x56D JUMPI PUSH0 DUP1 REVERT JUMPDEST POP PUSH2 0x581 PUSH2 0x57C CALLDATASIZE PUSH1 0x4 PUSH2 0x2AD8 JUMP JUMPDEST PUSH2 0xDC0 JUMP JUMPDEST PUSH1 0x40 DUP1 MLOAD PUSH1 0x1 PUSH1 0x1 PUSH1 0xA0 SHL SUB SWAP1 SWAP4 AND DUP4 MSTORE PUSH2 0xFFFF SWAP1 SWAP2 AND PUSH1 0x20 DUP4 ADD MSTORE ADD PUSH2 0x327 JUMP JUMPDEST CALLVALUE DUP1 ISZERO PUSH2 0x5AE JUMPI PUSH0 DUP1 REVERT JUMPDEST POP PUSH2 0x5C2 PUSH2 0x5BD CALLDATASIZE PUSH1 0x4 PUSH2 0x2C88 JUMP JUMPDEST PUSH2 0xE2A JUMP JUMPDEST PUSH1 0x40 MLOAD PUSH2 0x327 SWAP2 SWAP1 PUSH2 0x2CBA JUMP JUMPDEST CALLVALUE DUP1 ISZERO PUSH2 0x5DA JUMPI PUSH0 DUP1 REVERT JUMPDEST POP PUSH2 0x2F9 PUSH2 0x5E9 CALLDATASIZE PUSH1 0x4 PUSH2 0x2B5F JUMP JUMPDEST PUSH2 0xEED JUMP JUMPDEST CALLVALUE DUP1 ISZERO PUSH2 0x5F9 JUMPI PUSH0 DUP1 REVERT JUMPDEST POP PUSH2 0x392 PUSH2 0x608 CALLDATASIZE PUSH1 0x4 PUSH2 0x2AD8 JUMP JUMPDEST PUSH2 0xF1C JUMP JUMPDEST CALLVALUE DUP1 ISZERO PUSH2 0x618 JUMPI PUSH0 DUP1 REVERT JUMPDEST POP PUSH1 0xC SLOAD PUSH2 0x3DE JUMP JUMPDEST CALLVALUE DUP1 ISZERO PUSH2 0x62C JUMPI PUSH0 DUP1 REVERT JUMPDEST POP PUSH2 0x3DE PUSH2 0x63B CALLDATASIZE PUSH1 0x4 PUSH2 0x2B87 JUMP JUMPDEST PUSH2 0xF2D JUMP JUMPDEST CALLVALUE DUP1 ISZERO PUSH2 0x64B JUMPI PUSH0 DUP1 REVERT JUMPDEST POP PUSH2 0x2F9 PUSH2 0x65A CALLDATASIZE PUSH1 0x4 PUSH2 0x2D24 JUMP JUMPDEST PUSH2 0xF7A JUMP JUMPDEST CALLVALUE DUP1 ISZERO PUSH2 0x66A JUMPI PUSH0 DUP1 REVERT JUMPDEST POP PUSH2 0x34F PUSH2 0x679 CALLDATASIZE PUSH1 0x4 PUSH2 0x2AD8 JUMP JUMPDEST PUSH1 0xE PUSH1 0x20 MSTORE PUSH0 SWAP1 DUP2 MSTORE PUSH1 0x40 SWAP1 KECCAK256 SLOAD PUSH1 0xFF AND DUP2 JUMP JUMPDEST CALLVALUE DUP1 ISZERO PUSH2 0x698 JUMPI PUSH0 DUP1 REVERT JUMPDEST POP PUSH2 0x6AC PUSH2 0x6A7 CALLDATASIZE PUSH1 0x4 PUSH2 0x2B87 JUMP JUMPDEST PUSH2 0xFF3 JUMP JUMPDEST PUSH1 0x40 MLOAD PUSH2 0x327 SWAP2 SWAP1 PUSH2 0x2D9D JUMP JUMPDEST CALLVALUE DUP1 ISZERO PUSH2 0x6C4 JUMPI PUSH0 DUP1 REVERT JUMPDEST POP PUSH1 0x9 SLOAD PUSH1 0x1 PUSH1 0x1 PUSH1 0xA0 SHL SUB AND PUSH2 0x392 JUMP JUMPDEST PUSH2 0x2F9 PUSH2 0x6E4 CALLDATASIZE PUSH1 0x4 PUSH2 0x2E4F JUMP JUMPDEST PUSH2 0x112D JUMP JUMPDEST CALLVALUE DUP1 ISZERO PUSH2 0x6F4 JUMPI PUSH0 DUP1 REVERT JUMPDEST POP PUSH2 0x2F9 PUSH2 0x703 CALLDATASIZE PUSH1 0x4 PUSH2 0x2ED6 JUMP JUMPDEST PUSH2 0x1303 JUMP JUMPDEST CALLVALUE DUP1 ISZERO PUSH2 0x713 JUMPI PUSH0 DUP1 REVERT JUMPDEST POP PUSH2 0x31A PUSH2 0x1331 JUMP JUMPDEST CALLVALUE DUP1 ISZERO PUSH2 0x727 JUMPI PUSH0 DUP1 REVERT JUMPDEST POP PUSH2 0x6AC PUSH2 0x736 CALLDATASIZE PUSH1 0x4 PUSH2 0x2F08 JUMP JUMPDEST PUSH2 0x1340 JUMP JUMPDEST CALLVALUE DUP1 ISZERO PUSH2 0x746 JUMPI PUSH0 DUP1 REVERT JUMPDEST POP PUSH2 0x2F9 PUSH2 0x755 CALLDATASIZE PUSH1 0x4 PUSH2 0x2F38 JUMP JUMPDEST PUSH2 0x14ED JUMP JUMPDEST CALLVALUE DUP1 ISZERO PUSH2 0x765 JUMPI PUSH0 DUP1 REVERT JUMPDEST POP PUSH2 0x2F9 PUSH2 0x774 CALLDATASIZE PUSH1 0x4 PUSH2 0x2F5A JUMP JUMPDEST PUSH2 0x151D JUMP JUMPDEST CALLVALUE DUP1 ISZERO PUSH2 0x784 JUMPI PUSH0 DUP1 REVERT JUMPDEST POP PUSH2 0x798 PUSH2 0x793 CALLDATASIZE PUSH1 0x4 PUSH2 0x2F93 JUMP JUMPDEST PUSH2 0x15B1 JUMP JUMPDEST PUSH1 0x40 MLOAD PUSH2 0x327 SWAP2 SWAP1 PUSH2 0x3002 JUMP JUMPDEST CALLVALUE DUP1 ISZERO PUSH2 0x7B0 JUMPI PUSH0 DUP1 REVERT JUMPDEST POP PUSH1 0xA SLOAD PUSH1 0x1 PUSH1 0x1 PUSH1 0xA0 SHL SUB DUP2 AND SWAP1 PUSH1 0x1 PUSH1 0xA0 SHL SWAP1 DIV PUSH2 0xFFFF AND PUSH2 0x581 JUMP JUMPDEST CALLVALUE DUP1 ISZERO PUSH2 0x7DA JUMPI PUSH0 DUP1 REVERT JUMPDEST POP PUSH2 0x2F9 PUSH2 0x7E9 CALLDATASIZE PUSH1 0x4 PUSH2 0x3064 JUMP JUMPDEST PUSH2 0x1715 JUMP JUMPDEST PUSH2 0x2F9 PUSH2 0x7FC CALLDATASIZE PUSH1 0x4 PUSH2 0x30BC JUMP JUMPDEST PUSH2 0x1759 JUMP JUMPDEST CALLVALUE DUP1 ISZERO PUSH2 0x80C JUMPI PUSH0 DUP1 REVERT JUMPDEST POP PUSH2 0x820 PUSH2 0x81B CALLDATASIZE PUSH1 0x4 PUSH2 0x2AD8 JUMP JUMPDEST PUSH2 0x1849 JUMP JUMPDEST PUSH1 0x40 MLOAD PUSH2 0x327 SWAP2 SWAP1 PUSH2 0x311C JUMP JUMPDEST CALLVALUE DUP1 ISZERO PUSH2 0x838 JUMPI PUSH0 DUP1 REVERT JUMPDEST POP PUSH2 0x31A PUSH2 0x847 CALLDATASIZE PUSH1 0x4 PUSH2 0x2AD8 JUMP JUMPDEST PUSH2 0x18F5 JUMP JUMPDEST CALLVALUE DUP1 ISZERO PUSH2 0x857 JUMPI PUSH0 DUP1 REVERT JUMPDEST POP PUSH2 0x31A PUSH2 0x19DE JUMP JUMPDEST CALLVALUE DUP1 ISZERO PUSH2 0x86B JUMPI PUSH0 DUP1 REVERT JUMPDEST POP PUSH2 0x34F PUSH2 0x87A CALLDATASIZE PUSH1 0x4 PUSH2 0x3152 JUMP JUMPDEST PUSH1 0x1 PUSH1 0x1 PUSH1 0xA0 SHL SUB SWAP2 DUP3 AND PUSH0 SWAP1 DUP2 MSTORE PUSH1 0x7 PUSH1 0x20 SWAP1 DUP2 MSTORE PUSH1 0x40 DUP1 DUP4 KECCAK256 SWAP4 SWAP1 SWAP5 AND DUP3 MSTORE SWAP2 SWAP1 SWAP2 MSTORE KECCAK256 SLOAD PUSH1 0xFF AND SWAP1 JUMP JUMPDEST CALLVALUE DUP1 ISZERO PUSH2 0x8B2 JUMPI PUSH0 DUP1 REVERT JUMPDEST POP PUSH2 0x2F9 PUSH2 0x8C1 CALLDATASIZE PUSH1 0x4 PUSH2 0x2AD8 JUMP JUMPDEST PUSH2 0x19EB JUMP JUMPDEST PUSH2 0x8CE PUSH2 0x1A1B JUMP JUMPDEST PUSH2 0x91F JUMPI PUSH1 0x40 MLOAD PUSH3 0x461BCD PUSH1 0xE5 SHL DUP2 MSTORE PUSH1 0x20 PUSH1 0x4 DUP3 ADD MSTORE PUSH1 0x17 PUSH1 0x24 DUP3 ADD MSTORE PUSH32 0x4E6F7420617574686F72697A656420746F206D696E742E000000000000000000 PUSH1 0x44 DUP3 ADD MSTORE PUSH1 0x64 ADD JUMPDEST PUSH1 0x40 MLOAD DUP1 SWAP2 SUB SWAP1 REVERT JUMPDEST PUSH2 0x930 PUSH2 0x92A PUSH0 SLOAD SWAP1 JUMP JUMPDEST DUP3 PUSH2 0x1A47 JUMP JUMPDEST PUSH2 0x94A DUP3 PUSH1 0x1 PUSH1 0x40 MLOAD DUP1 PUSH1 0x20 ADD PUSH1 0x40 MSTORE DUP1 PUSH0 DUP2 MSTORE POP PUSH2 0x1AC5 JUMP JUMPDEST POP POP JUMP JUMPDEST PUSH1 0x12 PUSH1 0x20 MSTORE PUSH0 SWAP1 DUP2 MSTORE PUSH1 0x40 SWAP1 KECCAK256 DUP1 SLOAD PUSH2 0x966 SWAP1 PUSH2 0x3183 JUMP JUMPDEST DUP1 PUSH1 0x1F ADD PUSH1 0x20 DUP1 SWAP2 DIV MUL PUSH1 0x20 ADD PUSH1 0x40 MLOAD SWAP1 DUP2 ADD PUSH1 0x40 MSTORE DUP1 SWAP3 SWAP2 SWAP1 DUP2 DUP2 MSTORE PUSH1 0x20 ADD DUP3 DUP1 SLOAD PUSH2 0x992 SWAP1 PUSH2 0x3183 JUMP JUMPDEST DUP1 ISZERO PUSH2 0x9DD JUMPI DUP1 PUSH1 0x1F LT PUSH2 0x9B4 JUMPI PUSH2 0x100 DUP1 DUP4 SLOAD DIV MUL DUP4 MSTORE SWAP2 PUSH1 0x20 ADD SWAP2 PUSH2 0x9DD JUMP JUMPDEST DUP3 ADD SWAP2 SWAP1 PUSH0 MSTORE PUSH1 0x20 PUSH0 KECCAK256 SWAP1 JUMPDEST DUP2 SLOAD DUP2 MSTORE SWAP1 PUSH1 0x1 ADD SWAP1 PUSH1 0x20 ADD DUP1 DUP4 GT PUSH2 0x9C0 JUMPI DUP3 SWAP1 SUB PUSH1 0x1F AND DUP3 ADD SWAP2 JUMPDEST POP POP POP POP POP DUP2 JUMP JUMPDEST PUSH0 PUSH4 0x1FFC9A7 PUSH1 0xE0 SHL PUSH1 0x1 PUSH1 0x1 PUSH1 0xE0 SHL SUB NOT DUP4 AND EQ DUP1 PUSH2 0xA15 JUMPI POP PUSH4 0x80AC58CD PUSH1 0xE0 SHL PUSH1 0x1 PUSH1 0x1 PUSH1 0xE0 SHL SUB NOT DUP4 AND EQ JUMPDEST DUP1 PUSH2 0xA30 JUMPI POP PUSH4 0x5B5E139F PUSH1 0xE0 SHL PUSH1 0x1 PUSH1 0x1 PUSH1 0xE0 SHL SUB NOT DUP4 AND EQ JUMPDEST DUP1 PUSH2 0xA4B JUMPI POP PUSH1 0x1 PUSH1 0x1 PUSH1 0xE0 SHL SUB NOT DUP3 AND PUSH4 0x152A902D PUSH1 0xE1 SHL EQ JUMPDEST SWAP3 SWAP2 POP POP JUMP JUMPDEST PUSH1 0x60 PUSH1 0x2 DUP1 SLOAD PUSH2 0xA60 SWAP1 PUSH2 0x3183 JUMP JUMPDEST DUP1 PUSH1 0x1F ADD PUSH1 0x20 DUP1 SWAP2 DIV MUL PUSH1 0x20 ADD PUSH1 0x40 MLOAD SWAP1 DUP2 ADD PUSH1 0x40 MSTORE DUP1 SWAP3 SWAP2 SWAP1 DUP2 DUP2 MSTORE PUSH1 0x20 ADD DUP3 DUP1 SLOAD PUSH2 0xA8C SWAP1 PUSH2 0x3183 JUMP JUMPDEST DUP1 ISZERO PUSH2 0xAD7 JUMPI DUP1 PUSH1 0x1F LT PUSH2 0xAAE JUMPI PUSH2 0x100 DUP1 DUP4 SLOAD DIV MUL DUP4 MSTORE SWAP2 PUSH1 0x20 ADD SWAP2 PUSH2 0xAD7 JUMP JUMPDEST DUP3 ADD SWAP2 SWAP1 PUSH0 MSTORE PUSH1 0x20 PUSH0 KECCAK256 SWAP1 JUMPDEST DUP2 SLOAD DUP2 MSTORE SWAP1 PUSH1 0x1 ADD SWAP1 PUSH1 0x20 ADD DUP1 DUP4 GT PUSH2 0xABA JUMPI DUP3 SWAP1 SUB PUSH1 0x1F AND DUP3 ADD SWAP2 JUMPDEST POP POP POP POP POP SWAP1 POP SWAP1 JUMP JUMPDEST PUSH0 PUSH2 0xAEB DUP3 PUSH2 0x1C84 JUMP JUMPDEST PUSH2 0xB08 JUMPI PUSH1 0x40 MLOAD PUSH4 0x33D1C039 PUSH1 0xE2 SHL DUP2 MSTORE PUSH1 0x4 ADD PUSH1 0x40 MLOAD DUP1 SWAP2 SUB SWAP1 REVERT JUMPDEST POP PUSH0 SWAP1 DUP2 MSTORE PUSH1 0x6 PUSH1 0x20 MSTORE PUSH1 0x40 SWAP1 KECCAK256 SLOAD PUSH1 0x1 PUSH1 0x1 PUSH1 0xA0 SHL SUB AND SWAP1 JUMP JUMPDEST PUSH0 PUSH2 0xB2D DUP3 PUSH2 0xF1C JUMP JUMPDEST SWAP1 POP DUP1 PUSH1 0x1 PUSH1 0x1 PUSH1 0xA0 SHL SUB AND DUP4 PUSH1 0x1 PUSH1 0x1 PUSH1 0xA0 SHL SUB AND SUB PUSH2 0xB61 JUMPI PUSH1 0x40 MLOAD PUSH4 0x250FDEE3 PUSH1 0xE2 SHL DUP2 MSTORE PUSH1 0x4 ADD PUSH1 0x40 MLOAD DUP1 SWAP2 SUB SWAP1 REVERT JUMPDEST CALLER PUSH1 0x1 PUSH1 0x1 PUSH1 0xA0 SHL SUB DUP3 AND EQ PUSH2 0xB98 JUMPI PUSH2 0xB7B DUP2 CALLER PUSH2 0x87A JUMP JUMPDEST PUSH2 0xB98 JUMPI PUSH1 0x40 MLOAD PUSH4 0x67D9DCA1 PUSH1 0xE1 SHL DUP2 MSTORE PUSH1 0x4 ADD PUSH1 0x40 MLOAD DUP1 SWAP2 SUB SWAP1 REVERT JUMPDEST PUSH2 0xBA3 DUP4 DUP4 DUP4 PUSH2 0x1CAD JUMP JUMPDEST POP POP POP JUMP JUMPDEST PUSH2 0xBB0 PUSH2 0x1A1B JUMP JUMPDEST PUSH2 0xBCD JUMPI PUSH1 0x40 MLOAD PUSH4 0x16CCB9CB PUSH1 0xE1 SHL DUP2 MSTORE PUSH1 0x4 ADD PUSH1 0x40 MLOAD DUP1 SWAP2 SUB SWAP1 REVERT JUMPDEST PUSH2 0xBD6 DUP2 PUSH2 0x1D15 JUMP JUMPDEST POP JUMP JUMPDEST PUSH2 0xBA3 DUP4 DUP4 DUP4 PUSH2 0x1D73 JUMP JUMPDEST PUSH0 PUSH2 0xBEE PUSH1 0xC SLOAD SWAP1 JUMP JUMPDEST DUP3 LT PUSH2 0xC10 JUMPI PUSH1 0x40 MLOAD PUSH4 0x7931277 PUSH1 0xE1 SHL DUP2 MSTORE PUSH1 0x4 DUP2 ADD DUP4 SWAP1 MSTORE PUSH1 0x24 ADD PUSH2 0x916 JUMP JUMPDEST PUSH1 0xC DUP3 DUP2 SLOAD DUP2 LT PUSH2 0xC23 JUMPI PUSH2 0xC23 PUSH2 0x31BB JUMP JUMPDEST SWAP1 PUSH0 MSTORE PUSH1 0x20 PUSH0 KECCAK256 ADD SLOAD SWAP1 POP SWAP2 SWAP1 POP JUMP JUMPDEST PUSH0 DUP1 PUSH0 DUP1 PUSH2 0xC40 DUP7 PUSH2 0xDC0 JUMP JUMPDEST SWAP1 SWAP5 POP DUP5 SWAP3 POP PUSH2 0xFFFF AND SWAP1 POP PUSH2 0x2710 PUSH2 0xC59 DUP3 DUP8 PUSH2 0x31E3 JUMP JUMPDEST PUSH2 0xC63 SWAP2 SWAP1 PUSH2 0x320E JUMP JUMPDEST SWAP3 POP POP POP SWAP3 POP SWAP3 SWAP1 POP JUMP JUMPDEST PUSH1 0x9 SLOAD PUSH1 0x1 PUSH1 0x1 PUSH1 0xA0 SHL SUB AND CALLER EQ PUSH2 0xC99 JUMPI PUSH1 0x40 MLOAD PUSH4 0x16CCB9CB PUSH1 0xE1 SHL DUP2 MSTORE PUSH1 0x4 ADD PUSH1 0x40 MLOAD DUP1 SWAP2 SUB SWAP1 REVERT JUMPDEST SELFBALANCE DUP1 PUSH2 0xCE7 JUMPI PUSH1 0x40 MLOAD PUSH3 0x461BCD PUSH1 0xE5 SHL DUP2 MSTORE PUSH1 0x20 PUSH1 0x4 DUP3 ADD MSTORE PUSH1 0x14 PUSH1 0x24 DUP3 ADD MSTORE PUSH32 0x4E6F2066756E647320746F207769746864726177000000000000000000000000 PUSH1 0x44 DUP3 ADD MSTORE PUSH1 0x64 ADD PUSH2 0x916 JUMP JUMPDEST PUSH1 0x9 SLOAD PUSH1 0x40 MLOAD PUSH1 0x1 PUSH1 0x1 PUSH1 0xA0 SHL SUB SWAP1 SWAP2 AND SWAP1 DUP3 ISZERO PUSH2 0x8FC MUL SWAP1 DUP4 SWAP1 PUSH0 DUP2 DUP2 DUP2 DUP6 DUP9 DUP9 CALL SWAP4 POP POP POP POP ISZERO DUP1 ISZERO PUSH2 0x94A JUMPI RETURNDATASIZE PUSH0 DUP1 RETURNDATACOPY RETURNDATASIZE PUSH0 REVERT JUMPDEST PUSH2 0xBA3 DUP4 DUP4 DUP4 PUSH1 0x40 MLOAD DUP1 PUSH1 0x20 ADD PUSH1 0x40 MSTORE DUP1 PUSH0 DUP2 MSTORE POP PUSH2 0x1715 JUMP JUMPDEST PUSH2 0xBD6 DUP2 PUSH1 0x1 PUSH2 0x1F59 JUMP JUMPDEST PUSH0 DUP1 PUSH2 0xD4E DUP4 PUSH2 0xF1C JUMP JUMPDEST SWAP1 POP DUP1 PUSH1 0x1 PUSH1 0x1 PUSH1 0xA0 SHL SUB AND DUP5 PUSH1 0x1 PUSH1 0x1 PUSH1 0xA0 SHL SUB AND EQ DUP1 PUSH2 0xD94 JUMPI POP PUSH1 0x1 PUSH1 0x1 PUSH1 0xA0 SHL SUB DUP1 DUP3 AND PUSH0 SWAP1 DUP2 MSTORE PUSH1 0x7 PUSH1 0x20 SWAP1 DUP2 MSTORE PUSH1 0x40 DUP1 DUP4 KECCAK256 SWAP4 DUP9 AND DUP4 MSTORE SWAP3 SWAP1 MSTORE KECCAK256 SLOAD PUSH1 0xFF AND JUMPDEST DUP1 PUSH2 0xDB8 JUMPI POP DUP4 PUSH1 0x1 PUSH1 0x1 PUSH1 0xA0 SHL SUB AND PUSH2 0xDAD DUP5 PUSH2 0xAE1 JUMP JUMPDEST PUSH1 0x1 PUSH1 0x1 PUSH1 0xA0 SHL SUB AND EQ JUMPDEST SWAP5 SWAP4 POP POP POP POP JUMP JUMPDEST PUSH0 DUP2 DUP2 MSTORE PUSH1 0xB PUSH1 0x20 SWAP1 DUP2 MSTORE PUSH1 0x40 DUP1 DUP4 KECCAK256 DUP2 MLOAD DUP1 DUP4 ADD SWAP1 SWAP3 MSTORE DUP1 SLOAD PUSH1 0x1 PUSH1 0x1 PUSH1 0xA0 SHL SUB AND DUP1 DUP4 MSTORE PUSH1 0x1 SWAP1 SWAP2 ADD SLOAD SWAP3 DUP3 ADD SWAP3 SWAP1 SWAP3 MSTORE DUP3 SWAP2 ISZERO PUSH2 0xE06 JUMPI DUP1 MLOAD PUSH1 0x20 DUP3 ADD MLOAD PUSH2 0xE20 JUMP JUMPDEST PUSH1 0xA SLOAD PUSH1 0x1 PUSH1 0x1 PUSH1 0xA0 SHL SUB DUP2 AND SWAP1 PUSH1 0x1 PUSH1 0xA0 SHL SWAP1 DIV PUSH2 0xFFFF AND JUMPDEST SWAP3 POP SWAP3 POP POP SWAP2 POP SWAP2 JUMP JUMPDEST DUP1 MLOAD PUSH1 0x60 SWAP1 PUSH0 DUP2 PUSH8 0xFFFFFFFFFFFFFFFF DUP2 GT ISZERO PUSH2 0xE49 JUMPI PUSH2 0xE49 PUSH2 0x29DC JUMP JUMPDEST PUSH1 0x40 MLOAD SWAP1 DUP1 DUP3 MSTORE DUP1 PUSH1 0x20 MUL PUSH1 0x20 ADD DUP3 ADD PUSH1 0x40 MSTORE DUP1 ISZERO PUSH2 0xE92 JUMPI DUP2 PUSH1 0x20 ADD JUMPDEST PUSH1 0x40 DUP1 MLOAD PUSH1 0x60 DUP2 ADD DUP3 MSTORE PUSH0 DUP1 DUP3 MSTORE PUSH1 0x20 DUP1 DUP4 ADD DUP3 SWAP1 MSTORE SWAP3 DUP3 ADD MSTORE DUP3 MSTORE PUSH0 NOT SWAP1 SWAP3 ADD SWAP2 ADD DUP2 PUSH2 0xE67 JUMPI SWAP1 POP JUMPDEST POP SWAP1 POP PUSH0 JUMPDEST DUP3 DUP2 EQ PUSH2 0xEE5 JUMPI PUSH2 0xEC0 DUP6 DUP3 DUP2 MLOAD DUP2 LT PUSH2 0xEB3 JUMPI PUSH2 0xEB3 PUSH2 0x31BB JUMP JUMPDEST PUSH1 0x20 MUL PUSH1 0x20 ADD ADD MLOAD PUSH2 0x1849 JUMP JUMPDEST DUP3 DUP3 DUP2 MLOAD DUP2 LT PUSH2 0xED2 JUMPI PUSH2 0xED2 PUSH2 0x31BB JUMP JUMPDEST PUSH1 0x20 SWAP1 DUP2 MUL SWAP2 SWAP1 SWAP2 ADD ADD MSTORE PUSH1 0x1 ADD PUSH2 0xE97 JUMP JUMPDEST POP SWAP4 SWAP3 POP POP POP JUMP JUMPDEST PUSH2 0xEF5 PUSH2 0x1A1B JUMP JUMPDEST PUSH2 0xF12 JUMPI PUSH1 0x40 MLOAD PUSH4 0x6FAE3581 PUSH1 0xE1 SHL DUP2 MSTORE PUSH1 0x4 ADD PUSH1 0x40 MLOAD DUP1 SWAP2 SUB SWAP1 REVERT JUMPDEST PUSH2 0x94A DUP3 DUP3 PUSH2 0x2148 JUMP JUMPDEST PUSH0 PUSH2 0xF26 DUP3 PUSH2 0x21F0 JUMP JUMPDEST MLOAD SWAP3 SWAP2 POP POP JUMP JUMPDEST PUSH0 PUSH1 0x1 PUSH1 0x1 PUSH1 0xA0 SHL SUB DUP3 AND PUSH2 0xF55 JUMPI PUSH1 0x40 MLOAD PUSH4 0x23D3AD81 PUSH1 0xE2 SHL DUP2 MSTORE PUSH1 0x4 ADD PUSH1 0x40 MLOAD DUP1 SWAP2 SUB SWAP1 REVERT JUMPDEST POP PUSH1 0x1 PUSH1 0x1 PUSH1 0xA0 SHL SUB AND PUSH0 SWAP1 DUP2 MSTORE PUSH1 0x5 PUSH1 0x20 MSTORE PUSH1 0x40 SWAP1 KECCAK256 SLOAD PUSH8 0xFFFFFFFFFFFFFFFF AND SWAP1 JUMP JUMPDEST PUSH2 0xF82 PUSH2 0x1A1B JUMP JUMPDEST PUSH2 0xFCE JUMPI PUSH1 0x40 MLOAD PUSH3 0x461BCD PUSH1 0xE5 SHL DUP2 MSTORE PUSH1 0x20 PUSH1 0x4 DUP3 ADD MSTORE PUSH1 0x17 PUSH1 0x24 DUP3 ADD MSTORE PUSH32 0x4E6F7420617574686F72697A656420746F206D696E742E000000000000000000 PUSH1 0x44 DUP3 ADD MSTORE PUSH1 0x64 ADD PUSH2 0x916 JUMP JUMPDEST PUSH2 0xFE0 PUSH2 0xFD9 PUSH0 SLOAD SWAP1 JUMP JUMPDEST DUP5 DUP5 PUSH2 0x2307 JUMP JUMPDEST POP POP PUSH2 0xFED DUP5 DUP5 DUP4 PUSH2 0x1AC5 JUMP JUMPDEST POP POP POP POP JUMP JUMPDEST PUSH1 0x60 PUSH0 DUP1 PUSH0 PUSH2 0x1001 DUP6 PUSH2 0xF2D JUMP JUMPDEST SWAP1 POP PUSH0 DUP2 PUSH8 0xFFFFFFFFFFFFFFFF DUP2 GT ISZERO PUSH2 0x101D JUMPI PUSH2 0x101D PUSH2 0x29DC JUMP JUMPDEST PUSH1 0x40 MLOAD SWAP1 DUP1 DUP3 MSTORE DUP1 PUSH1 0x20 MUL PUSH1 0x20 ADD DUP3 ADD PUSH1 0x40 MSTORE DUP1 ISZERO PUSH2 0x1046 JUMPI DUP2 PUSH1 0x20 ADD PUSH1 0x20 DUP3 MUL DUP1 CALLDATASIZE DUP4 CALLDATACOPY ADD SWAP1 POP JUMPDEST POP PUSH1 0x40 DUP1 MLOAD PUSH1 0x60 DUP2 ADD DUP3 MSTORE PUSH0 DUP1 DUP3 MSTORE PUSH1 0x20 DUP3 ADD DUP2 SWAP1 MSTORE SWAP2 DUP2 ADD DUP3 SWAP1 MSTORE SWAP2 SWAP3 POP JUMPDEST DUP4 DUP7 EQ PUSH2 0x1121 JUMPI PUSH0 DUP2 DUP2 MSTORE PUSH1 0x4 PUSH1 0x20 SWAP1 DUP2 MSTORE PUSH1 0x40 SWAP2 DUP3 SWAP1 KECCAK256 DUP3 MLOAD PUSH1 0x60 DUP2 ADD DUP5 MSTORE SWAP1 SLOAD PUSH1 0x1 PUSH1 0x1 PUSH1 0xA0 SHL SUB DUP2 AND DUP3 MSTORE PUSH1 0x1 PUSH1 0xA0 SHL DUP2 DIV PUSH8 0xFFFFFFFFFFFFFFFF AND SWAP3 DUP3 ADD SWAP3 SWAP1 SWAP3 MSTORE PUSH1 0x1 PUSH1 0xE0 SHL SWAP1 SWAP2 DIV PUSH1 0xFF AND ISZERO ISZERO SWAP2 DUP2 ADD DUP3 SWAP1 MSTORE SWAP3 POP PUSH2 0x1119 JUMPI DUP2 MLOAD PUSH1 0x1 PUSH1 0x1 PUSH1 0xA0 SHL SUB AND ISZERO PUSH2 0x10DA JUMPI DUP2 MLOAD SWAP5 POP JUMPDEST DUP8 PUSH1 0x1 PUSH1 0x1 PUSH1 0xA0 SHL SUB AND DUP6 PUSH1 0x1 PUSH1 0x1 PUSH1 0xA0 SHL SUB AND SUB PUSH2 0x1119 JUMPI DUP1 DUP4 DUP8 DUP1 PUSH1 0x1 ADD SWAP9 POP DUP2 MLOAD DUP2 LT PUSH2 0x110C JUMPI PUSH2 0x110C PUSH2 0x31BB JUMP JUMPDEST PUSH1 0x20 MUL PUSH1 0x20 ADD ADD DUP2 DUP2 MSTORE POP POP JUMPDEST PUSH1 0x1 ADD PUSH2 0x1066 JUMP JUMPDEST POP SWAP1 SWAP7 SWAP6 POP POP POP POP POP POP JUMP JUMPDEST DUP2 MLOAD DUP4 MLOAD EQ DUP1 ISZERO PUSH2 0x113F JUMPI POP DUP1 MLOAD DUP4 MLOAD EQ JUMPDEST PUSH2 0x118B JUMPI PUSH1 0x40 MLOAD PUSH3 0x461BCD PUSH1 0xE5 SHL DUP2 MSTORE PUSH1 0x20 PUSH1 0x4 DUP3 ADD MSTORE PUSH1 0x18 PUSH1 0x24 DUP3 ADD MSTORE PUSH32 0x4172726179206C656E67746873206D757374206D617463680000000000000000 PUSH1 0x44 DUP3 ADD MSTORE PUSH1 0x64 ADD PUSH2 0x916 JUMP JUMPDEST PUSH2 0x2710 DUP4 MLOAD PUSH2 0x119C PUSH1 0x1 SLOAD PUSH0 SLOAD SUB SWAP1 JUMP JUMPDEST PUSH2 0x11A6 SWAP2 SWAP1 PUSH2 0x3221 JUMP JUMPDEST GT ISZERO PUSH2 0x11F4 JUMPI PUSH1 0x40 MLOAD PUSH3 0x461BCD PUSH1 0xE5 SHL DUP2 MSTORE PUSH1 0x20 PUSH1 0x4 DUP3 ADD MSTORE PUSH1 0x1D PUSH1 0x24 DUP3 ADD MSTORE PUSH32 0x426174636820776F756C6420657863656564206D617820737570706C79000000 PUSH1 0x44 DUP3 ADD MSTORE PUSH1 0x64 ADD PUSH2 0x916 JUMP JUMPDEST DUP3 MLOAD PUSH1 0x10 SLOAD PUSH2 0x1203 SWAP2 SWAP1 PUSH2 0x31E3 JUMP JUMPDEST CALLVALUE LT ISZERO PUSH2 0x1252 JUMPI PUSH1 0x40 MLOAD PUSH3 0x461BCD PUSH1 0xE5 SHL DUP2 MSTORE PUSH1 0x20 PUSH1 0x4 DUP3 ADD MSTORE PUSH1 0x15 PUSH1 0x24 DUP3 ADD MSTORE PUSH32 0x496E73756666696369656E74206D696E74206665650000000000000000000000 PUSH1 0x44 DUP3 ADD MSTORE PUSH1 0x64 ADD PUSH2 0x916 JUMP JUMPDEST PUSH0 JUMPDEST DUP4 MLOAD DUP2 LT ISZERO PUSH2 0x12FC JUMPI PUSH0 SLOAD PUSH2 0x1269 DUP7 DUP3 PUSH2 0x2369 JUMP JUMPDEST PUSH2 0x128C DUP2 DUP7 DUP5 DUP2 MLOAD DUP2 LT PUSH2 0x127F JUMPI PUSH2 0x127F PUSH2 0x31BB JUMP JUMPDEST PUSH1 0x20 MUL PUSH1 0x20 ADD ADD MLOAD PUSH2 0x1A47 JUMP JUMPDEST DUP4 DUP3 DUP2 MLOAD DUP2 LT PUSH2 0x129E JUMPI PUSH2 0x129E PUSH2 0x31BB JUMP JUMPDEST PUSH1 0x20 MUL PUSH1 0x20 ADD ADD MLOAD PUSH1 0x11 PUSH0 DUP4 DUP2 MSTORE PUSH1 0x20 ADD SWAP1 DUP2 MSTORE PUSH1 0x20 ADD PUSH0 KECCAK256 DUP2 SWAP1 SSTORE POP DUP3 DUP3 DUP2 MLOAD DUP2 LT PUSH2 0x12CD JUMPI PUSH2 0x12CD PUSH2 0x31BB JUMP JUMPDEST PUSH1 0x20 MUL PUSH1 0x20 ADD ADD MLOAD PUSH1 0x12 PUSH0 DUP4 DUP2 MSTORE PUSH1 0x20 ADD SWAP1 DUP2 MSTORE PUSH1 0x20 ADD PUSH0 KECCAK256 SWAP1 DUP2 PUSH2 0x12F2 SWAP2 SWAP1 PUSH2 0x3278 JUMP JUMPDEST POP POP PUSH1 0x1 ADD PUSH2 0x1254 JUMP JUMPDEST POP POP POP POP POP JUMP JUMPDEST PUSH2 0x130B PUSH2 0x1A1B JUMP JUMPDEST PUSH2 0x1328 JUMPI PUSH1 0x40 MLOAD PUSH4 0x9F7F0925 PUSH1 0xE0 SHL DUP2 MSTORE PUSH1 0x4 ADD PUSH1 0x40 MLOAD DUP1 SWAP2 SUB SWAP1 REVERT JUMPDEST PUSH2 0xBD6 DUP2 PUSH2 0x2382 JUMP JUMPDEST PUSH1 0x60 PUSH1 0x3 DUP1 SLOAD PUSH2 0xA60 SWAP1 PUSH2 0x3183 JUMP JUMPDEST PUSH1 0x60 DUP2 DUP4 LT PUSH2 0x1362 JUMPI PUSH1 0x40 MLOAD PUSH4 0x1960CCAD PUSH1 0xE1 SHL DUP2 MSTORE PUSH1 0x4 ADD PUSH1 0x40 MLOAD DUP1 SWAP2 SUB SWAP1 REVERT JUMPDEST PUSH0 DUP1 SLOAD DUP1 DUP5 GT ISZERO PUSH2 0x1371 JUMPI DUP1 SWAP4 POP JUMPDEST PUSH0 PUSH2 0x137B DUP8 PUSH2 0xF2D JUMP JUMPDEST SWAP1 POP DUP5 DUP7 LT ISZERO PUSH2 0x139A JUMPI DUP6 DUP6 SUB DUP2 DUP2 LT ISZERO PUSH2 0x1394 JUMPI DUP1 SWAP2 POP JUMPDEST POP PUSH2 0x139D JUMP JUMPDEST POP PUSH0 JUMPDEST PUSH0 DUP2 PUSH8 0xFFFFFFFFFFFFFFFF DUP2 GT ISZERO PUSH2 0x13B7 JUMPI PUSH2 0x13B7 PUSH2 0x29DC JUMP JUMPDEST PUSH1 0x40 MLOAD SWAP1 DUP1 DUP3 MSTORE DUP1 PUSH1 0x20 MUL PUSH1 0x20 ADD DUP3 ADD PUSH1 0x40 MSTORE DUP1 ISZERO PUSH2 0x13E0 JUMPI DUP2 PUSH1 0x20 ADD PUSH1 0x20 DUP3 MUL DUP1 CALLDATASIZE DUP4 CALLDATACOPY ADD SWAP1 POP JUMPDEST POP SWAP1 POP DUP2 PUSH0 SUB PUSH2 0x13F5 JUMPI SWAP4 POP PUSH2 0x14E6 SWAP3 POP POP POP JUMP JUMPDEST PUSH0 PUSH2 0x13FF DUP9 PUSH2 0x1849 JUMP JUMPDEST SWAP1 POP PUSH0 DUP2 PUSH1 0x40 ADD MLOAD PUSH2 0x140F JUMPI POP DUP1 MLOAD JUMPDEST DUP9 JUMPDEST DUP9 DUP2 EQ ISZERO DUP1 ISZERO PUSH2 0x1421 JUMPI POP DUP5 DUP8 EQ ISZERO JUMPDEST ISZERO PUSH2 0x14DA JUMPI PUSH0 DUP2 DUP2 MSTORE PUSH1 0x4 PUSH1 0x20 SWAP1 DUP2 MSTORE PUSH1 0x40 SWAP2 DUP3 SWAP1 KECCAK256 DUP3 MLOAD PUSH1 0x60 DUP2 ADD DUP5 MSTORE SWAP1 SLOAD PUSH1 0x1 PUSH1 0x1 PUSH1 0xA0 SHL SUB DUP2 AND DUP3 MSTORE PUSH1 0x1 PUSH1 0xA0 SHL DUP2 DIV PUSH8 0xFFFFFFFFFFFFFFFF AND SWAP3 DUP3 ADD SWAP3 SWAP1 SWAP3 MSTORE PUSH1 0x1 PUSH1 0xE0 SHL SWAP1 SWAP2 DIV PUSH1 0xFF AND ISZERO ISZERO SWAP2 DUP2 ADD DUP3 SWAP1 MSTORE SWAP4 POP PUSH2 0x14D2 JUMPI DUP3 MLOAD PUSH1 0x1 PUSH1 0x1 PUSH1 0xA0 SHL SUB AND ISZERO PUSH2 0x1493 JUMPI DUP3 MLOAD SWAP2 POP JUMPDEST DUP11 PUSH1 0x1 PUSH1 0x1 PUSH1 0xA0 SHL SUB AND DUP3 PUSH1 0x1 PUSH1 0x1 PUSH1 0xA0 SHL SUB AND SUB PUSH2 0x14D2 JUMPI DUP1 DUP5 DUP9 DUP1 PUSH1 0x1 ADD SWAP10 POP DUP2 MLOAD DUP2 LT PUSH2 0x14C5 JUMPI PUSH2 0x14C5 PUSH2 0x31BB JUMP JUMPDEST PUSH1 0x20 MUL PUSH1 0x20 ADD ADD DUP2 DUP2 MSTORE POP POP JUMPDEST PUSH1 0x1 ADD PUSH2 0x1411 JUMP JUMPDEST POP POP POP SWAP3 DUP4 MSTORE POP SWAP1 SWAP2 POP POP JUMPDEST SWAP4 SWAP3 POP POP POP JUMP JUMPDEST PUSH2 0x14F5 PUSH2 0x1A1B JUMP JUMPDEST PUSH2 0x1512 JUMPI PUSH1 0x40 MLOAD PUSH4 0x6FAE3581 PUSH1 0xE1 SHL DUP2 MSTORE PUSH1 0x4 ADD PUSH1 0x40 MLOAD DUP1 SWAP2 SUB SWAP1 REVERT JUMPDEST PUSH2 0xBA3 DUP4 DUP4 DUP4 PUSH2 0x245B JUMP JUMPDEST CALLER PUSH1 0x1 PUSH1 0x1 PUSH1 0xA0 SHL SUB DUP4 AND SUB PUSH2 0x1546 JUMPI PUSH1 0x40 MLOAD PUSH4 0xB06307DB PUSH1 0xE0 SHL DUP2 MSTORE PUSH1 0x4 ADD PUSH1 0x40 MLOAD DUP1 SWAP2 SUB SWAP1 REVERT JUMPDEST CALLER PUSH0 DUP2 DUP2 MSTORE PUSH1 0x7 PUSH1 0x20 SWAP1 DUP2 MSTORE PUSH1 0x40 DUP1 DUP4 KECCAK256 PUSH1 0x1 PUSH1 0x1 PUSH1 0xA0 SHL SUB DUP8 AND DUP1 DUP6 MSTORE SWAP1 DUP4 MSTORE SWAP3 DUP2 SWAP1 KECCAK256 DUP1 SLOAD PUSH1 0xFF NOT AND DUP7 ISZERO ISZERO SWAP1 DUP2 OR SWAP1 SWAP2 SSTORE SWAP1 MLOAD SWAP1 DUP2 MSTORE SWAP2 SWAP3 SWAP2 PUSH32 0x17307EAB39AB6107E8899845AD3D59BD9653F200F220920489CA2B5937696C31 SWAP2 ADD PUSH1 0x40 MLOAD DUP1 SWAP2 SUB SWAP1 LOG3 POP POP JUMP JUMPDEST PUSH1 0x60 DUP2 PUSH8 0xFFFFFFFFFFFFFFFF DUP2 GT ISZERO PUSH2 0x15CC JUMPI PUSH2 0x15CC PUSH2 0x29DC JUMP JUMPDEST PUSH1 0x40 MLOAD SWAP1 DUP1 DUP3 MSTORE DUP1 PUSH1 0x20 MUL PUSH1 0x20 ADD DUP3 ADD PUSH1 0x40 MSTORE DUP1 ISZERO PUSH2 0x15FF JUMPI DUP2 PUSH1 0x20 ADD JUMPDEST PUSH1 0x60 DUP2 MSTORE PUSH1 0x20 ADD SWAP1 PUSH1 0x1 SWAP1 SUB SWAP1 DUP2 PUSH2 0x15EA JUMPI SWAP1 POP JUMPDEST POP SWAP1 POP CALLER PUSH0 DUP1 JUMPDEST DUP5 DUP2 LT ISZERO PUSH2 0x170C JUMPI DUP2 ISZERO PUSH2 0x1685 JUMPI PUSH2 0x1663 ADDRESS DUP8 DUP8 DUP5 DUP2 DUP2 LT PUSH2 0x162A JUMPI PUSH2 0x162A PUSH2 0x31BB JUMP JUMPDEST SWAP1 POP PUSH1 0x20 MUL DUP2 ADD SWAP1 PUSH2 0x163C SWAP2 SWAP1 PUSH2 0x3334 JUMP JUMPDEST DUP7 PUSH1 0x40 MLOAD PUSH1 0x20 ADD PUSH2 0x164F SWAP4 SWAP3 SWAP2 SWAP1 PUSH2 0x337E JUMP JUMPDEST PUSH1 0x40 MLOAD PUSH1 0x20 DUP2 DUP4 SUB SUB DUP2 MSTORE SWAP1 PUSH1 0x40 MSTORE PUSH2 0x251A JUMP JUMPDEST DUP5 DUP3 DUP2 MLOAD DUP2 LT PUSH2 0x1675 JUMPI PUSH2 0x1675 PUSH2 0x31BB JUMP JUMPDEST PUSH1 0x20 MUL PUSH1 0x20 ADD ADD DUP2 SWAP1 MSTORE POP PUSH2 0x1704 JUMP JUMPDEST PUSH2 0x16E6 ADDRESS DUP8 DUP8 DUP5 DUP2 DUP2 LT PUSH2 0x169B JUMPI PUSH2 0x169B PUSH2 0x31BB JUMP JUMPDEST SWAP1 POP PUSH1 0x20 MUL DUP2 ADD SWAP1 PUSH2 0x16AD SWAP2 SWAP1 PUSH2 0x3334 JUMP JUMPDEST DUP1 DUP1 PUSH1 0x1F ADD PUSH1 0x20 DUP1 SWAP2 DIV MUL PUSH1 0x20 ADD PUSH1 0x40 MLOAD SWAP1 DUP2 ADD PUSH1 0x40 MSTORE DUP1 SWAP4 SWAP3 SWAP2 SWAP1 DUP2 DUP2 MSTORE PUSH1 0x20 ADD DUP4 DUP4 DUP1 DUP3 DUP5 CALLDATACOPY PUSH0 SWAP3 ADD SWAP2 SWAP1 SWAP2 MSTORE POP PUSH2 0x251A SWAP3 POP POP POP JUMP JUMPDEST DUP5 DUP3 DUP2 MLOAD DUP2 LT PUSH2 0x16F8 JUMPI PUSH2 0x16F8 PUSH2 0x31BB JUMP JUMPDEST PUSH1 0x20 MUL PUSH1 0x20 ADD ADD DUP2 SWAP1 MSTORE POP JUMPDEST PUSH1 0x1 ADD PUSH2 0x1606 JUMP JUMPDEST POP POP POP SWAP3 SWAP2 POP POP JUMP JUMPDEST PUSH2 0x1720 DUP5 DUP5 DUP5 PUSH2 0x1D73 JUMP JUMPDEST PUSH1 0x1 PUSH1 0x1 PUSH1 0xA0 SHL SUB DUP4 AND EXTCODESIZE ISZERO PUSH2 0xFED JUMPI PUSH2 0x173C DUP5 DUP5 DUP5 DUP5 PUSH2 0x253F JUMP JUMPDEST PUSH2 0xFED JUMPI PUSH1 0x40 MLOAD PUSH4 0x68D2BF6B PUSH1 0xE1 SHL DUP2 MSTORE PUSH1 0x4 ADD PUSH1 0x40 MLOAD DUP1 SWAP2 SUB SWAP1 REVERT JUMPDEST PUSH1 0x10 SLOAD CALLVALUE LT ISZERO PUSH2 0x17AB JUMPI PUSH1 0x40 MLOAD PUSH3 0x461BCD PUSH1 0xE5 SHL DUP2 MSTORE PUSH1 0x20 PUSH1 0x4 DUP3 ADD MSTORE PUSH1 0x15 PUSH1 0x24 DUP3 ADD MSTORE PUSH32 0x496E73756666696369656E74206D696E74206665650000000000000000000000 PUSH1 0x44 DUP3 ADD MSTORE PUSH1 0x64 ADD PUSH2 0x916 JUMP JUMPDEST PUSH2 0x2710 PUSH2 0x17BA PUSH1 0x1 SLOAD PUSH0 SLOAD SUB SWAP1 JUMP JUMPDEST LT PUSH2 0x1807 JUMPI PUSH1 0x40 MLOAD PUSH3 0x461BCD PUSH1 0xE5 SHL DUP2 MSTORE PUSH1 0x20 PUSH1 0x4 DUP3 ADD MSTORE PUSH1 0x12 PUSH1 0x24 DUP3 ADD MSTORE PUSH32 0x4D617820737570706C7920726561636865640000000000000000000000000000 PUSH1 0x44 DUP3 ADD MSTORE PUSH1 0x64 ADD PUSH2 0x916 JUMP JUMPDEST PUSH0 SLOAD PUSH2 0x1813 DUP6 DUP3 PUSH2 0x2369 JUMP JUMPDEST PUSH2 0x181D DUP2 DUP6 PUSH2 0x1A47 JUMP JUMPDEST PUSH0 DUP2 DUP2 MSTORE PUSH1 0x11 PUSH1 0x20 SWAP1 DUP2 MSTORE PUSH1 0x40 DUP1 DUP4 KECCAK256 DUP7 SWAP1 SSTORE PUSH1 0x12 SWAP1 SWAP2 MSTORE SWAP1 KECCAK256 PUSH2 0x1841 DUP4 DUP3 PUSH2 0x3278 JUMP JUMPDEST POP POP POP POP POP POP JUMP JUMPDEST PUSH1 0x40 DUP1 MLOAD PUSH1 0x60 DUP1 DUP3 ADD DUP4 MSTORE PUSH0 DUP1 DUP4 MSTORE PUSH1 0x20 DUP1 DUP5 ADD DUP3 SWAP1 MSTORE DUP4 DUP6 ADD DUP3 SWAP1 MSTORE DUP5 MLOAD SWAP3 DUP4 ADD DUP6 MSTORE DUP2 DUP4 MSTORE DUP3 ADD DUP2 SWAP1 MSTORE SWAP3 DUP2 ADD DUP4 SWAP1 MSTORE SWAP1 SWAP2 POP PUSH0 SLOAD DUP4 LT PUSH2 0x188C JUMPI SWAP3 SWAP2 POP POP JUMP JUMPDEST POP PUSH0 DUP3 DUP2 MSTORE PUSH1 0x4 PUSH1 0x20 SWAP1 DUP2 MSTORE PUSH1 0x40 SWAP2 DUP3 SWAP1 KECCAK256 DUP3 MLOAD PUSH1 0x60 DUP2 ADD DUP5 MSTORE SWAP1 SLOAD PUSH1 0x1 PUSH1 0x1 PUSH1 0xA0 SHL SUB DUP2 AND DUP3 MSTORE PUSH1 0x1 PUSH1 0xA0 SHL DUP2 DIV PUSH8 0xFFFFFFFFFFFFFFFF AND SWAP3 DUP3 ADD SWAP3 SWAP1 SWAP3 MSTORE PUSH1 0x1 PUSH1 0xE0 SHL SWAP1 SWAP2 DIV PUSH1 0xFF AND ISZERO DUP1 ISZERO SWAP3 DUP3 ADD SWAP3 SWAP1 SWAP3 MSTORE SWAP1 PUSH2 0x18EC JUMPI SWAP3 SWAP2 POP POP JUMP JUMPDEST PUSH2 0x14E6 DUP4 PUSH2 0x21F0 JUMP JUMPDEST PUSH0 DUP2 DUP2 MSTORE PUSH1 0xF PUSH1 0x20 MSTORE PUSH1 0x40 DUP2 KECCAK256 DUP1 SLOAD PUSH1 0x60 SWAP3 SWAP2 SWAP1 PUSH2 0x1912 SWAP1 PUSH2 0x3183 JUMP JUMPDEST DUP1 PUSH1 0x1F ADD PUSH1 0x20 DUP1 SWAP2 DIV MUL PUSH1 0x20 ADD PUSH1 0x40 MLOAD SWAP1 DUP2 ADD PUSH1 0x40 MSTORE DUP1 SWAP3 SWAP2 SWAP1 DUP2 DUP2 MSTORE PUSH1 0x20 ADD DUP3 DUP1 SLOAD PUSH2 0x193E SWAP1 PUSH2 0x3183 JUMP JUMPDEST DUP1 ISZERO PUSH2 0x1989 JUMPI DUP1 PUSH1 0x1F LT PUSH2 0x1960 JUMPI PUSH2 0x100 DUP1 DUP4 SLOAD DIV MUL DUP4 MSTORE SWAP2 PUSH1 0x20 ADD SWAP2 PUSH2 0x1989 JUMP JUMPDEST DUP3 ADD SWAP2 SWAP1 PUSH0 MSTORE PUSH1 0x20 PUSH0 KECCAK256 SWAP1 JUMPDEST DUP2 SLOAD DUP2 MSTORE SWAP1 PUSH1 0x1 ADD SWAP1 PUSH1 0x20 ADD DUP1 DUP4 GT PUSH2 0x196C JUMPI DUP3 SWAP1 SUB PUSH1 0x1F AND DUP3 ADD SWAP2 JUMPDEST POP POP POP POP POP SWAP1 POP PUSH0 DUP2 MLOAD GT ISZERO PUSH2 0x199F JUMPI SWAP3 SWAP2 POP POP JUMP JUMPDEST PUSH0 PUSH2 0x19A9 DUP5 PUSH2 0x2626 JUMP JUMPDEST SWAP1 POP DUP1 PUSH2 0x19B5 DUP6 PUSH2 0x279B JUMP JUMPDEST PUSH1 0x40 MLOAD PUSH1 0x20 ADD PUSH2 0x19C6 SWAP3 SWAP2 SWAP1 PUSH2 0x33BB JUMP JUMPDEST PUSH1 0x40 MLOAD PUSH1 0x20 DUP2 DUP4 SUB SUB DUP2 MSTORE SWAP1 PUSH1 0x40 MSTORE SWAP3 POP POP POP SWAP2 SWAP1 POP JUMP JUMPDEST PUSH1 0x8 DUP1 SLOAD PUSH2 0x966 SWAP1 PUSH2 0x3183 JUMP JUMPDEST PUSH1 0x9 SLOAD PUSH1 0x1 PUSH1 0x1 PUSH1 0xA0 SHL SUB AND CALLER EQ PUSH2 0x1A16 JUMPI PUSH1 0x40 MLOAD PUSH4 0x16CCB9CB PUSH1 0xE1 SHL DUP2 MSTORE PUSH1 0x4 ADD PUSH1 0x40 MLOAD DUP1 SWAP2 SUB SWAP1 REVERT JUMPDEST PUSH1 0x10 SSTORE JUMP JUMPDEST PUSH0 PUSH2 0x1A2E PUSH1 0x9 SLOAD PUSH1 0x1 PUSH1 0x1 PUSH1 0xA0 SHL SUB AND SWAP1 JUMP JUMPDEST PUSH1 0x1 PUSH1 0x1 PUSH1 0xA0 SHL SUB AND CALLER PUSH1 0x1 PUSH1 0x1 PUSH1 0xA0 SHL SUB AND EQ SWAP1 POP SWAP1 JUMP JUMPDEST PUSH0 DUP3 DUP2 MSTORE PUSH1 0xF PUSH1 0x20 MSTORE PUSH1 0x40 SWAP1 KECCAK256 DUP1 SLOAD PUSH2 0x1A5F SWAP1 PUSH2 0x3183 JUMP JUMPDEST ISZERO SWAP1 POP PUSH2 0x1AAE JUMPI PUSH1 0x40 MLOAD PUSH3 0x461BCD PUSH1 0xE5 SHL DUP2 MSTORE PUSH1 0x20 PUSH1 0x4 DUP3 ADD MSTORE PUSH1 0xF PUSH1 0x24 DUP3 ADD MSTORE PUSH32 0x55524920616C7265616479207365740000000000000000000000000000000000 PUSH1 0x44 DUP3 ADD MSTORE PUSH1 0x64 ADD PUSH2 0x916 JUMP JUMPDEST PUSH0 DUP3 DUP2 MSTORE PUSH1 0xF PUSH1 0x20 MSTORE PUSH1 0x40 SWAP1 KECCAK256 PUSH2 0xBA3 DUP3 DUP3 PUSH2 0x3278 JUMP JUMPDEST PUSH0 SLOAD PUSH1 0x1 PUSH1 0x1 PUSH1 0xA0 SHL SUB DUP5 AND PUSH2 0x1AED JUMPI PUSH1 0x40 MLOAD PUSH3 0x2E0763 PUSH1 0xE8 SHL DUP2 MSTORE PUSH1 0x4 ADD PUSH1 0x40 MLOAD DUP1 SWAP2 SUB SWAP1 REVERT JUMPDEST DUP3 PUSH0 SUB PUSH2 0x1B0D JUMPI PUSH1 0x40 MLOAD PUSH4 0xB562E8DD PUSH1 0xE0 SHL DUP2 MSTORE PUSH1 0x4 ADD PUSH1 0x40 MLOAD DUP1 SWAP2 SUB SWAP1 REVERT JUMPDEST PUSH1 0x1 PUSH1 0x1 PUSH1 0xA0 SHL SUB DUP5 AND PUSH0 DUP2 DUP2 MSTORE PUSH1 0x5 PUSH1 0x20 SWAP1 DUP2 MSTORE PUSH1 0x40 DUP1 DUP4 KECCAK256 DUP1 SLOAD PUSH16 0xFFFFFFFFFFFFFFFFFFFFFFFFFFFFFFFF NOT DUP2 AND PUSH8 0xFFFFFFFFFFFFFFFF DUP1 DUP4 AND DUP12 ADD DUP2 AND SWAP2 DUP3 OR PUSH9 0x10000000000000000 PUSH8 0xFFFFFFFFFFFFFFFF NOT SWAP1 SWAP5 AND SWAP1 SWAP3 OR DUP4 SWAP1 DIV DUP2 AND DUP12 ADD DUP2 AND SWAP1 SWAP3 MUL OR SWAP1 SWAP2 SSTORE DUP6 DUP5 MSTORE PUSH1 0x4 SWAP1 SWAP3 MSTORE SWAP1 SWAP2 KECCAK256 DUP1 SLOAD PUSH1 0x1 PUSH1 0x1 PUSH1 0xE0 SHL SUB NOT AND DUP4 OR PUSH1 0x1 PUSH1 0xA0 SHL TIMESTAMP SWAP1 SWAP4 AND SWAP3 SWAP1 SWAP3 MUL SWAP2 SWAP1 SWAP2 OR SWAP1 SSTORE DUP2 SWAP1 DUP2 DUP6 ADD SWAP1 EXTCODESIZE ISZERO PUSH2 0x1C31 JUMPI JUMPDEST PUSH1 0x40 MLOAD DUP3 SWAP1 PUSH1 0x1 PUSH1 0x1 PUSH1 0xA0 SHL SUB DUP9 AND SWAP1 PUSH0 SWAP1 PUSH32 0xDDF252AD1BE2C89B69C2B068FC378DAA952BA7F163C4A11628F55A4DF523B3EF SWAP1 DUP3 SWAP1 LOG4 PUSH2 0x1BFC PUSH0 DUP8 DUP5 DUP1 PUSH1 0x1 ADD SWAP6 POP DUP8 PUSH2 0x253F JUMP JUMPDEST PUSH2 0x1C19 JUMPI PUSH1 0x40 MLOAD PUSH4 0x68D2BF6B PUSH1 0xE1 SHL DUP2 MSTORE PUSH1 0x4 ADD PUSH1 0x40 MLOAD DUP1 SWAP2 SUB SWAP1 REVERT JUMPDEST DUP1 DUP3 LT PUSH2 0x1BB3 JUMPI DUP3 PUSH0 SLOAD EQ PUSH2 0x1C2C JUMPI PUSH0 DUP1 REVERT JUMPDEST PUSH2 0x1C75 JUMP JUMPDEST JUMPDEST PUSH1 0x40 MLOAD PUSH1 0x1 DUP4 ADD SWAP3 SWAP1 PUSH1 0x1 PUSH1 0x1 PUSH1 0xA0 SHL SUB DUP9 AND SWAP1 PUSH0 SWAP1 PUSH32 0xDDF252AD1BE2C89B69C2B068FC378DAA952BA7F163C4A11628F55A4DF523B3EF SWAP1 DUP3 SWAP1 LOG4 DUP1 DUP3 LT PUSH2 0x1C32 JUMPI JUMPDEST POP PUSH0 SWAP1 DUP2 SSTORE PUSH2 0xFED SWAP1 DUP6 DUP4 DUP7 DUP5 JUMP JUMPDEST PUSH0 DUP1 SLOAD DUP3 LT DUP1 ISZERO PUSH2 0xA4B JUMPI POP POP PUSH0 SWAP1 DUP2 MSTORE PUSH1 0x4 PUSH1 0x20 MSTORE PUSH1 0x40 SWAP1 KECCAK256 SLOAD PUSH1 0x1 PUSH1 0xE0 SHL SWAP1 DIV PUSH1 0xFF AND ISZERO SWAP1 JUMP JUMPDEST PUSH0 DUP3 DUP2 MSTORE PUSH1 0x6 PUSH1 0x20 MSTORE PUSH1 0x40 DUP1 DUP3 KECCAK256 DUP1 SLOAD PUSH20 0xFFFFFFFFFFFFFFFFFFFFFFFFFFFFFFFFFFFFFFFF NOT AND PUSH1 0x1 PUSH1 0x1 PUSH1 0xA0 SHL SUB DUP8 DUP2 AND SWAP2 DUP3 OR SWAP1 SWAP3 SSTORE SWAP2 MLOAD DUP6 SWAP4 SWAP2 DUP6 AND SWAP2 PUSH32 0x8C5BE1E5EBEC7D5BD14F71427D1E84F3DD0314C0F7B2291E5B200AC8C7C3B925 SWAP2 LOG4 POP POP POP JUMP JUMPDEST PUSH1 0x9 DUP1 SLOAD PUSH1 0x1 PUSH1 0x1 PUSH1 0xA0 SHL SUB DUP4 DUP2 AND PUSH20 0xFFFFFFFFFFFFFFFFFFFFFFFFFFFFFFFFFFFFFFFF NOT DUP4 AND DUP2 OR SWAP1 SWAP4 SSTORE PUSH1 0x40 MLOAD SWAP2 AND SWAP2 SWAP1 DUP3 SWAP1 PUSH32 0x8292FCE18FA69EDF4DB7B94EA2E58241DF0AE57F97E0A6C9B29067028BF92D76 SWAP1 PUSH0 SWAP1 LOG3 POP POP JUMP JUMPDEST PUSH0 PUSH2 0x1D7D DUP3 PUSH2 0x21F0 JUMP JUMPDEST SWAP1 POP DUP4 PUSH1 0x1 PUSH1 0x1 PUSH1 0xA0 SHL SUB AND DUP2 PUSH0 ADD MLOAD PUSH1 0x1 PUSH1 0x1 PUSH1 0xA0 SHL SUB AND EQ PUSH2 0x1DB3 JUMPI PUSH1 0x40 MLOAD PUSH3 0xA11481 PUSH1 0xE8 SHL DUP2 MSTORE PUSH1 0x4 ADD PUSH1 0x40 MLOAD DUP1 SWAP2 SUB SWAP1 REVERT JUMPDEST PUSH0 CALLER PUSH1 0x1 PUSH1 0x1 PUSH1 0xA0 SHL SUB DUP7 AND EQ DUP1 PUSH2 0x1DD0 JUMPI POP PUSH2 0x1DD0 DUP6 CALLER PUSH2 0x87A JUMP JUMPDEST DUP1 PUSH2 0x1DEB JUMPI POP CALLER PUSH2 0x1DE0 DUP5 PUSH2 0xAE1 JUMP JUMPDEST PUSH1 0x1 PUSH1 0x1 PUSH1 0xA0 SHL SUB AND EQ JUMPDEST SWAP1 POP DUP1 PUSH2 0x1E0B JUMPI PUSH1 0x40 MLOAD PUSH4 0x2CE44B5F PUSH1 0xE1 SHL DUP2 MSTORE PUSH1 0x4 ADD PUSH1 0x40 MLOAD DUP1 SWAP2 SUB SWAP1 REVERT JUMPDEST PUSH1 0x1 PUSH1 0x1 PUSH1 0xA0 SHL SUB DUP5 AND PUSH2 0x1E32 JUMPI PUSH1 0x40 MLOAD PUSH4 0x3A954ECD PUSH1 0xE2 SHL DUP2 MSTORE PUSH1 0x4 ADD PUSH1 0x40 MLOAD DUP1 SWAP2 SUB SWAP1 REVERT JUMPDEST PUSH2 0x1E3D PUSH0 DUP5 DUP8 PUSH2 0x1CAD JUMP JUMPDEST PUSH1 0x1 PUSH1 0x1 PUSH1 0xA0 SHL SUB DUP6 DUP2 AND PUSH0 SWAP1 DUP2 MSTORE PUSH1 0x5 PUSH1 0x20 SWAP1 DUP2 MSTORE PUSH1 0x40 DUP1 DUP4 KECCAK256 DUP1 SLOAD PUSH8 0xFFFFFFFFFFFFFFFF NOT DUP1 DUP3 AND PUSH8 0xFFFFFFFFFFFFFFFF SWAP3 DUP4 AND PUSH0 NOT ADD DUP4 AND OR SWAP1 SWAP3 SSTORE DUP10 DUP7 AND DUP1 DUP7 MSTORE DUP4 DUP7 KECCAK256 DUP1 SLOAD SWAP4 DUP5 AND SWAP4 DUP4 AND PUSH1 0x1 SWAP1 DUP2 ADD DUP5 AND SWAP5 SWAP1 SWAP5 OR SWAP1 SSTORE DUP10 DUP7 MSTORE PUSH1 0x4 SWAP1 SWAP5 MSTORE DUP3 DUP6 KECCAK256 DUP1 SLOAD PUSH1 0x1 PUSH1 0x1 PUSH1 0xE0 SHL SUB NOT AND SWAP1 SWAP5 OR PUSH1 0x1 PUSH1 0xA0 SHL TIMESTAMP SWAP1 SWAP3 AND SWAP2 SWAP1 SWAP2 MUL OR DUP4 SSTORE DUP8 ADD DUP1 DUP5 MSTORE SWAP3 KECCAK256 DUP1 SLOAD SWAP2 SWAP4 SWAP1 SWAP2 AND PUSH2 0x1F10 JUMPI PUSH0 SLOAD DUP3 EQ PUSH2 0x1F10 JUMPI DUP1 SLOAD PUSH1 0x20 DUP7 ADD MLOAD PUSH8 0xFFFFFFFFFFFFFFFF AND PUSH1 0x1 PUSH1 0xA0 SHL MUL PUSH1 0x1 PUSH1 0x1 PUSH1 0xE0 SHL SUB NOT SWAP1 SWAP2 AND PUSH1 0x1 PUSH1 0x1 PUSH1 0xA0 SHL SUB DUP11 AND OR OR DUP2 SSTORE JUMPDEST POP POP POP DUP3 DUP5 PUSH1 0x1 PUSH1 0x1 PUSH1 0xA0 SHL SUB AND DUP7 PUSH1 0x1 PUSH1 0x1 PUSH1 0xA0 SHL SUB AND PUSH32 0xDDF252AD1BE2C89B69C2B068FC378DAA952BA7F163C4A11628F55A4DF523B3EF PUSH1 0x40 MLOAD PUSH1 0x40 MLOAD DUP1 SWAP2 SUB SWAP1 LOG4 PUSH2 0x12FC JUMP JUMPDEST PUSH0 PUSH2 0x1F63 DUP4 PUSH2 0x21F0 JUMP JUMPDEST DUP1 MLOAD SWAP1 SWAP2 POP DUP3 ISZERO PUSH2 0x1FC8 JUMPI PUSH0 CALLER PUSH1 0x1 PUSH1 0x1 PUSH1 0xA0 SHL SUB DUP4 AND EQ DUP1 PUSH2 0x1F8B JUMPI POP PUSH2 0x1F8B DUP3 CALLER PUSH2 0x87A JUMP JUMPDEST DUP1 PUSH2 0x1FA6 JUMPI POP CALLER PUSH2 0x1F9B DUP7 PUSH2 0xAE1 JUMP JUMPDEST PUSH1 0x1 PUSH1 0x1 PUSH1 0xA0 SHL SUB AND EQ JUMPDEST SWAP1 POP DUP1 PUSH2 0x1FC6 JUMPI PUSH1 0x40 MLOAD PUSH4 0x2CE44B5F PUSH1 0xE1 SHL DUP2 MSTORE PUSH1 0x4 ADD PUSH1 0x40 MLOAD DUP1 SWAP2 SUB SWAP1 REVERT JUMPDEST POP JUMPDEST PUSH2 0x1FD3 PUSH0 DUP6 DUP4 PUSH2 0x1CAD JUMP JUMPDEST PUSH1 0x1 PUSH1 0x1 PUSH1 0xA0 SHL SUB DUP1 DUP3 AND PUSH0 DUP2 DUP2 MSTORE PUSH1 0x5 PUSH1 0x20 SWAP1 DUP2 MSTORE PUSH1 0x40 DUP1 DUP4 KECCAK256 DUP1 SLOAD PUSH17 0x100000000000000000000000000000000 PUSH0 NOT PUSH8 0xFFFFFFFFFFFFFFFF DUP1 DUP5 AND SWAP2 SWAP1 SWAP2 ADD DUP2 AND PUSH8 0xFFFFFFFFFFFFFFFF NOT DUP5 AND DUP2 OR DUP4 SWAP1 DIV DUP3 AND PUSH1 0x1 SWAP1 DUP2 ADD DUP4 AND SWAP1 SWAP4 MUL PUSH32 0xFFFFFFFFFFFFFFFF0000000000000000FFFFFFFFFFFFFFFF0000000000000000 SWAP1 SWAP5 AND OR SWAP3 SWAP1 SWAP3 OR DUP4 SSTORE DUP12 DUP7 MSTORE PUSH1 0x4 SWAP1 SWAP5 MSTORE DUP3 DUP6 KECCAK256 DUP1 SLOAD PUSH32 0xFFFFFF00FFFFFFFFFFFFFFFFFFFFFFFFFFFFFFFFFFFFFFFFFFFFFFFFFFFFFFFF TIMESTAMP SWAP1 SWAP4 AND PUSH1 0x1 PUSH1 0xA0 SHL MUL PUSH1 0x1 PUSH1 0x1 PUSH1 0xE0 SHL SUB NOT SWAP1 SWAP2 AND SWAP1 SWAP8 OR SWAP7 SWAP1 SWAP7 OR AND PUSH1 0x1 PUSH1 0xE0 SHL OR DUP6 SSTORE SWAP2 DUP10 ADD DUP1 DUP5 MSTORE SWAP3 KECCAK256 DUP1 SLOAD SWAP2 SWAP5 SWAP1 SWAP2 AND PUSH2 0x20FF JUMPI PUSH0 SLOAD DUP3 EQ PUSH2 0x20FF JUMPI DUP1 SLOAD PUSH1 0x20 DUP8 ADD MLOAD PUSH8 0xFFFFFFFFFFFFFFFF AND PUSH1 0x1 PUSH1 0xA0 SHL MUL PUSH1 0x1 PUSH1 0x1 PUSH1 0xE0 SHL SUB NOT SWAP1 SWAP2 AND PUSH1 0x1 PUSH1 0x1 PUSH1 0xA0 SHL SUB DUP8 AND OR OR DUP2 SSTORE JUMPDEST POP POP PUSH1 0x40 MLOAD DUP7 SWAP3 POP PUSH0 SWAP2 POP PUSH1 0x1 PUSH1 0x1 PUSH1 0xA0 SHL SUB DUP5 AND SWAP1 PUSH32 0xDDF252AD1BE2C89B69C2B068FC378DAA952BA7F163C4A11628F55A4DF523B3EF SWAP1 DUP4 SWAP1 LOG4 POP POP PUSH1 0x1 DUP1 SLOAD DUP2 ADD SWAP1 SSTORE POP POP JUMP JUMPDEST PUSH2 0x2710 DUP2 GT ISZERO PUSH2 0x2176 JUMPI PUSH1 0x40 MLOAD PUSH4 0xA4930AD PUSH1 0xE3 SHL DUP2 MSTORE PUSH2 0x2710 PUSH1 0x4 DUP3 ADD MSTORE PUSH1 0x24 DUP2 ADD DUP3 SWAP1 MSTORE PUSH1 0x44 ADD PUSH2 0x916 JUMP JUMPDEST PUSH1 0xA DUP1 SLOAD PUSH1 0x1 PUSH1 0x1 PUSH1 0xA0 SHL SUB DUP5 AND PUSH32 0xFFFFFFFFFFFFFFFFFFFF00000000000000000000000000000000000000000000 SWAP1 SWAP2 AND DUP2 OR PUSH1 0x1 PUSH1 0xA0 SHL PUSH2 0xFFFF DUP6 AND MUL OR SWAP1 SWAP2 SSTORE PUSH1 0x40 MLOAD DUP3 DUP2 MSTORE PUSH32 0x90D7EC04BCB8978719414F82E52E4CB651DB41D0E6F8CEA6118C2191E6183ADB SWAP1 PUSH1 0x20 ADD PUSH1 0x40 MLOAD DUP1 SWAP2 SUB SWAP1 LOG2 POP POP JUMP JUMPDEST PUSH1 0x40 DUP1 MLOAD PUSH1 0x60 DUP2 ADD DUP3 MSTORE PUSH0 DUP1 DUP3 MSTORE PUSH1 0x20 DUP3 ADD DUP2 SWAP1 MSTORE SWAP2 DUP2 ADD SWAP2 SWAP1 SWAP2 MSTORE DUP2 PUSH0 SLOAD DUP2 LT ISZERO PUSH2 0x22EE JUMPI PUSH0 DUP2 DUP2 MSTORE PUSH1 0x4 PUSH1 0x20 SWAP1 DUP2 MSTORE PUSH1 0x40 SWAP2 DUP3 SWAP1 KECCAK256 DUP3 MLOAD PUSH1 0x60 DUP2 ADD DUP5 MSTORE SWAP1 SLOAD PUSH1 0x1 PUSH1 0x1 PUSH1 0xA0 SHL SUB DUP2 AND DUP3 MSTORE PUSH1 0x1 PUSH1 0xA0 SHL DUP2 DIV PUSH8 0xFFFFFFFFFFFFFFFF AND SWAP3 DUP3 ADD SWAP3 SWAP1 SWAP3 MSTORE PUSH1 0x1 PUSH1 0xE0 SHL SWAP1 SWAP2 DIV PUSH1 0xFF AND ISZERO ISZERO SWAP2 DUP2 ADD DUP3 SWAP1 MSTORE SWAP1 PUSH2 0x22EC JUMPI DUP1 MLOAD PUSH1 0x1 PUSH1 0x1 PUSH1 0xA0 SHL SUB AND ISZERO PUSH2 0x2284 JUMPI SWAP4 SWAP3 POP POP POP JUMP JUMPDEST POP PUSH0 NOT ADD PUSH0 DUP2 DUP2 MSTORE PUSH1 0x4 PUSH1 0x20 SWAP1 DUP2 MSTORE PUSH1 0x40 SWAP2 DUP3 SWAP1 KECCAK256 DUP3 MLOAD PUSH1 0x60 DUP2 ADD DUP5 MSTORE SWAP1 SLOAD PUSH1 0x1 PUSH1 0x1 PUSH1 0xA0 SHL SUB DUP2 AND DUP1 DUP4 MSTORE PUSH1 0x1 PUSH1 0xA0 SHL DUP3 DIV PUSH8 0xFFFFFFFFFFFFFFFF AND SWAP4 DUP4 ADD SWAP4 SWAP1 SWAP4 MSTORE PUSH1 0x1 PUSH1 0xE0 SHL SWAP1 DIV PUSH1 0xFF AND ISZERO ISZERO SWAP3 DUP2 ADD SWAP3 SWAP1 SWAP3 MSTORE ISZERO PUSH2 0x22E7 JUMPI SWAP4 SWAP3 POP POP POP JUMP JUMPDEST PUSH2 0x2284 JUMP JUMPDEST POP JUMPDEST PUSH1 0x40 MLOAD PUSH4 0x6F96CDA1 PUSH1 0xE1 SHL DUP2 MSTORE PUSH1 0x4 ADD PUSH1 0x40 MLOAD DUP1 SWAP2 SUB SWAP1 REVERT JUMPDEST PUSH0 DUP1 PUSH2 0x2313 DUP5 DUP7 PUSH2 0x3221 JUMP JUMPDEST PUSH1 0xC DUP1 SLOAD PUSH1 0x1 DUP2 ADD SWAP1 SWAP2 SSTORE PUSH32 0xDF6966C971051C3D54EC59162606531493A51404A002842F56009D7E5CF4A8C7 ADD DUP2 SWAP1 SSTORE PUSH0 DUP2 DUP2 MSTORE PUSH1 0xD PUSH1 0x20 MSTORE PUSH1 0x40 SWAP1 KECCAK256 SWAP1 SWAP3 POP DUP3 SWAP2 POP PUSH2 0x2360 DUP5 DUP3 PUSH2 0x3278 JUMP JUMPDEST POP SWAP4 POP SWAP4 SWAP2 POP POP JUMP JUMPDEST PUSH2 0x94A DUP3 DUP3 PUSH1 0x40 MLOAD DUP1 PUSH1 0x20 ADD PUSH1 0x40 MSTORE DUP1 PUSH0 DUP2 MSTORE POP PUSH2 0x1AC5 JUMP JUMPDEST PUSH0 PUSH1 0x8 DUP1 SLOAD PUSH2 0x2390 SWAP1 PUSH2 0x3183 JUMP JUMPDEST DUP1 PUSH1 0x1F ADD PUSH1 0x20 DUP1 SWAP2 DIV MUL PUSH1 0x20 ADD PUSH1 0x40 MLOAD SWAP1 DUP2 ADD PUSH1 0x40 MSTORE DUP1 SWAP3 SWAP2 SWAP1 DUP2 DUP2 MSTORE PUSH1 0x20 ADD DUP3 DUP1 SLOAD PUSH2 0x23BC SWAP1 PUSH2 0x3183 JUMP JUMPDEST DUP1 ISZERO PUSH2 0x2407 JUMPI DUP1 PUSH1 0x1F LT PUSH2 0x23DE JUMPI PUSH2 0x100 DUP1 DUP4 SLOAD DIV MUL DUP4 MSTORE SWAP2 PUSH1 0x20 ADD SWAP2 PUSH2 0x2407 JUMP JUMPDEST DUP3 ADD SWAP2 SWAP1 PUSH0 MSTORE PUSH1 0x20 PUSH0 KECCAK256 SWAP1 JUMPDEST DUP2 SLOAD DUP2 MSTORE SWAP1 PUSH1 0x1 ADD SWAP1 PUSH1 0x20 ADD DUP1 DUP4 GT PUSH2 0x23EA JUMPI DUP3 SWAP1 SUB PUSH1 0x1F AND DUP3 ADD SWAP2 JUMPDEST POP POP POP POP POP SWAP1 POP DUP2 PUSH1 0x8 SWAP1 DUP2 PUSH2 0x241D SWAP2 SWAP1 PUSH2 0x3278 JUMP JUMPDEST POP PUSH32 0xC9C7C3FE08B88B4DF9D4D47EF47D2C43D55C025A0BA88CA442580ED9E7348A16 DUP2 DUP4 PUSH1 0x40 MLOAD PUSH2 0x244F SWAP3 SWAP2 SWAP1 PUSH2 0x33CF JUMP JUMPDEST PUSH1 0x40 MLOAD DUP1 SWAP2 SUB SWAP1 LOG1 POP POP JUMP JUMPDEST PUSH2 0x2710 DUP2 GT ISZERO PUSH2 0x2489 JUMPI PUSH1 0x40 MLOAD PUSH4 0xA4930AD PUSH1 0xE3 SHL DUP2 MSTORE PUSH2 0x2710 PUSH1 0x4 DUP3 ADD MSTORE PUSH1 0x24 DUP2 ADD DUP3 SWAP1 MSTORE PUSH1 0x44 ADD PUSH2 0x916 JUMP JUMPDEST PUSH1 0x40 DUP1 MLOAD DUP1 DUP3 ADD DUP3 MSTORE PUSH1 0x1 PUSH1 0x1 PUSH1 0xA0 SHL SUB DUP5 DUP2 AND DUP1 DUP4 MSTORE PUSH1 0x20 DUP1 DUP5 ADD DUP7 DUP2 MSTORE PUSH0 DUP10 DUP2 MSTORE PUSH1 0xB DUP4 MSTORE DUP7 SWAP1 KECCAK256 SWAP5 MLOAD DUP6 SLOAD PUSH20 0xFFFFFFFFFFFFFFFFFFFFFFFFFFFFFFFFFFFFFFFF NOT AND SWAP5 AND SWAP4 SWAP1 SWAP4 OR DUP5 SSTORE SWAP2 MLOAD PUSH1 0x1 SWAP1 SWAP4 ADD SWAP3 SWAP1 SWAP3 SSTORE SWAP2 MLOAD DUP4 DUP2 MSTORE SWAP1 SWAP2 DUP6 SWAP2 PUSH32 0x7365CF4122F072A3365C20D54EFF9B38D73C096C28E1892EC8F5B0E403A0F12D SWAP2 ADD PUSH1 0x40 MLOAD DUP1 SWAP2 SUB SWAP1 LOG3 POP POP POP JUMP JUMPDEST PUSH1 0x60 PUSH2 0x14E6 DUP4 DUP4 PUSH1 0x40 MLOAD DUP1 PUSH1 0x60 ADD PUSH1 0x40 MSTORE DUP1 PUSH1 0x27 DUP2 MSTORE PUSH1 0x20 ADD PUSH2 0x3492 PUSH1 0x27 SWAP2 CODECOPY PUSH2 0x28B0 JUMP JUMPDEST PUSH1 0x40 MLOAD PUSH4 0xA85BD01 PUSH1 0xE1 SHL DUP2 MSTORE PUSH0 SWAP1 PUSH1 0x1 PUSH1 0x1 PUSH1 0xA0 SHL SUB DUP6 AND SWAP1 PUSH4 0x150B7A02 SWAP1 PUSH2 0x2573 SWAP1 CALLER SWAP1 DUP10 SWAP1 DUP9 SWAP1 DUP9 SWAP1 PUSH1 0x4 ADD PUSH2 0x33FC JUMP JUMPDEST PUSH1 0x20 PUSH1 0x40 MLOAD DUP1 DUP4 SUB DUP2 PUSH0 DUP8 GAS CALL SWAP3 POP POP POP DUP1 ISZERO PUSH2 0x25AD JUMPI POP PUSH1 0x40 DUP1 MLOAD PUSH1 0x1F RETURNDATASIZE SWAP1 DUP2 ADD PUSH1 0x1F NOT AND DUP3 ADD SWAP1 SWAP3 MSTORE PUSH2 0x25AA SWAP2 DUP2 ADD SWAP1 PUSH2 0x342D JUMP JUMPDEST PUSH1 0x1 JUMPDEST PUSH2 0x2609 JUMPI RETURNDATASIZE DUP1 DUP1 ISZERO PUSH2 0x25DA JUMPI PUSH1 0x40 MLOAD SWAP2 POP PUSH1 0x1F NOT PUSH1 0x3F RETURNDATASIZE ADD AND DUP3 ADD PUSH1 0x40 MSTORE RETURNDATASIZE DUP3 MSTORE RETURNDATASIZE PUSH0 PUSH1 0x20 DUP5 ADD RETURNDATACOPY PUSH2 0x25DF JUMP JUMPDEST PUSH1 0x60 SWAP2 POP JUMPDEST POP DUP1 MLOAD PUSH0 SUB PUSH2 0x2601 JUMPI PUSH1 0x40 MLOAD PUSH4 0x68D2BF6B PUSH1 0xE1 SHL DUP2 MSTORE PUSH1 0x4 ADD PUSH1 0x40 MLOAD DUP1 SWAP2 SUB SWAP1 REVERT JUMPDEST DUP1 MLOAD DUP2 PUSH1 0x20 ADD REVERT JUMPDEST PUSH1 0x1 PUSH1 0x1 PUSH1 0xE0 SHL SUB NOT AND PUSH4 0xA85BD01 PUSH1 0xE1 SHL EQ SWAP1 POP SWAP5 SWAP4 POP POP POP POP JUMP JUMPDEST PUSH1 0x60 PUSH0 PUSH2 0x2632 PUSH1 0xC SLOAD SWAP1 JUMP JUMPDEST SWAP1 POP PUSH0 PUSH1 0xC DUP1 SLOAD DUP1 PUSH1 0x20 MUL PUSH1 0x20 ADD PUSH1 0x40 MLOAD SWAP1 DUP2 ADD PUSH1 0x40 MSTORE DUP1 SWAP3 SWAP2 SWAP1 DUP2 DUP2 MSTORE PUSH1 0x20 ADD DUP3 DUP1 SLOAD DUP1 ISZERO PUSH2 0x267F JUMPI PUSH1 0x20 MUL DUP3 ADD SWAP2 SWAP1 PUSH0 MSTORE PUSH1 0x20 PUSH0 KECCAK256 SWAP1 JUMPDEST DUP2 SLOAD DUP2 MSTORE PUSH1 0x20 ADD SWAP1 PUSH1 0x1 ADD SWAP1 DUP1 DUP4 GT PUSH2 0x266B JUMPI JUMPDEST POP POP POP POP POP SWAP1 POP PUSH0 JUMPDEST DUP3 DUP2 LT ISZERO PUSH2 0x277E JUMPI DUP2 DUP2 DUP2 MLOAD DUP2 LT PUSH2 0x26A2 JUMPI PUSH2 0x26A2 PUSH2 0x31BB JUMP JUMPDEST PUSH1 0x20 MUL PUSH1 0x20 ADD ADD MLOAD DUP6 LT ISZERO PUSH2 0x276C JUMPI PUSH1 0xD PUSH0 DUP4 DUP4 DUP2 MLOAD DUP2 LT PUSH2 0x26C6 JUMPI PUSH2 0x26C6 PUSH2 0x31BB JUMP JUMPDEST PUSH1 0x20 MUL PUSH1 0x20 ADD ADD MLOAD DUP2 MSTORE PUSH1 0x20 ADD SWAP1 DUP2 MSTORE PUSH1 0x20 ADD PUSH0 KECCAK256 DUP1 SLOAD PUSH2 0x26E6 SWAP1 PUSH2 0x3183 JUMP JUMPDEST DUP1 PUSH1 0x1F ADD PUSH1 0x20 DUP1 SWAP2 DIV MUL PUSH1 0x20 ADD PUSH1 0x40 MLOAD SWAP1 DUP2 ADD PUSH1 0x40 MSTORE DUP1 SWAP3 SWAP2 SWAP1 DUP2 DUP2 MSTORE PUSH1 0x20 ADD DUP3 DUP1 SLOAD PUSH2 0x2712 SWAP1 PUSH2 0x3183 JUMP JUMPDEST DUP1 ISZERO PUSH2 0x275D JUMPI DUP1 PUSH1 0x1F LT PUSH2 0x2734 JUMPI PUSH2 0x100 DUP1 DUP4 SLOAD DIV MUL DUP4 MSTORE SWAP2 PUSH1 0x20 ADD SWAP2 PUSH2 0x275D JUMP JUMPDEST DUP3 ADD SWAP2 SWAP1 PUSH0 MSTORE PUSH1 0x20 PUSH0 KECCAK256 SWAP1 JUMPDEST DUP2 SLOAD DUP2 MSTORE SWAP1 PUSH1 0x1 ADD SWAP1 PUSH1 0x20 ADD DUP1 DUP4 GT PUSH2 0x2740 JUMPI DUP3 SWAP1 SUB PUSH1 0x1F AND DUP3 ADD SWAP2 JUMPDEST POP POP POP POP POP SWAP4 POP POP POP POP SWAP2 SWAP1 POP JUMP JUMPDEST PUSH2 0x2777 PUSH1 0x1 DUP3 PUSH2 0x3221 JUMP JUMPDEST SWAP1 POP PUSH2 0x2688 JUMP JUMPDEST POP PUSH1 0x40 MLOAD PUSH4 0x9797F69 PUSH1 0xE2 SHL DUP2 MSTORE PUSH1 0x4 DUP2 ADD DUP6 SWAP1 MSTORE PUSH1 0x24 ADD PUSH2 0x916 JUMP JUMPDEST PUSH1 0x60 DUP2 PUSH0 SUB PUSH2 0x27C1 JUMPI POP POP PUSH1 0x40 DUP1 MLOAD DUP1 DUP3 ADD SWAP1 SWAP2 MSTORE PUSH1 0x1 DUP2 MSTORE PUSH1 0x3 PUSH1 0xFC SHL PUSH1 0x20 DUP3 ADD MSTORE SWAP1 JUMP JUMPDEST DUP2 PUSH0 JUMPDEST DUP2 ISZERO PUSH2 0x27EA JUMPI DUP1 PUSH2 0x27D4 DUP2 PUSH2 0x3448 JUMP JUMPDEST SWAP2 POP PUSH2 0x27E3 SWAP1 POP PUSH1 0xA DUP4 PUSH2 0x320E JUMP JUMPDEST SWAP2 POP PUSH2 0x27C4 JUMP JUMPDEST PUSH0 DUP2 PUSH8 0xFFFFFFFFFFFFFFFF DUP2 GT ISZERO PUSH2 0x2804 JUMPI PUSH2 0x2804 PUSH2 0x29DC JUMP JUMPDEST PUSH1 0x40 MLOAD SWAP1 DUP1 DUP3 MSTORE DUP1 PUSH1 0x1F ADD PUSH1 0x1F NOT AND PUSH1 0x20 ADD DUP3 ADD PUSH1 0x40 MSTORE DUP1 ISZERO PUSH2 0x282E JUMPI PUSH1 0x20 DUP3 ADD DUP2 DUP1 CALLDATASIZE DUP4 CALLDATACOPY ADD SWAP1 POP JUMPDEST POP SWAP1 POP JUMPDEST DUP5 ISZERO PUSH2 0xDB8 JUMPI PUSH2 0x2843 PUSH1 0x1 DUP4 PUSH2 0x3460 JUMP JUMPDEST SWAP2 POP PUSH2 0x2850 PUSH1 0xA DUP7 PUSH2 0x3473 JUMP JUMPDEST PUSH2 0x285B SWAP1 PUSH1 0x30 PUSH2 0x3221 JUMP JUMPDEST PUSH1 0xF8 SHL DUP2 DUP4 DUP2 MLOAD DUP2 LT PUSH2 0x2870 JUMPI PUSH2 0x2870 PUSH2 0x31BB JUMP JUMPDEST PUSH1 0x20 ADD ADD SWAP1 PUSH31 0xFFFFFFFFFFFFFFFFFFFFFFFFFFFFFFFFFFFFFFFFFFFFFFFFFFFFFFFFFFFFFF NOT AND SWAP1 DUP2 PUSH0 BYTE SWAP1 MSTORE8 POP PUSH2 0x28A9 PUSH1 0xA DUP7 PUSH2 0x320E JUMP JUMPDEST SWAP5 POP PUSH2 0x2832 JUMP JUMPDEST PUSH1 0x60 PUSH0 DUP1 DUP6 PUSH1 0x1 PUSH1 0x1 PUSH1 0xA0 SHL SUB AND DUP6 PUSH1 0x40 MLOAD PUSH2 0x28CC SWAP2 SWAP1 PUSH2 0x3486 JUMP JUMPDEST PUSH0 PUSH1 0x40 MLOAD DUP1 DUP4 SUB DUP2 DUP6 GAS DELEGATECALL SWAP2 POP POP RETURNDATASIZE DUP1 PUSH0 DUP2 EQ PUSH2 0x2904 JUMPI PUSH1 0x40 MLOAD SWAP2 POP PUSH1 0x1F NOT PUSH1 0x3F RETURNDATASIZE ADD AND DUP3 ADD PUSH1 0x40 MSTORE RETURNDATASIZE DUP3 MSTORE RETURNDATASIZE PUSH0 PUSH1 0x20 DUP5 ADD RETURNDATACOPY PUSH2 0x2909 JUMP JUMPDEST PUSH1 0x60 SWAP2 POP JUMPDEST POP SWAP2 POP SWAP2 POP PUSH2 0x291A DUP7 DUP4 DUP4 DUP8 PUSH2 0x2924 JUMP JUMPDEST SWAP7 SWAP6 POP POP POP POP POP POP JUMP JUMPDEST PUSH1 0x60 DUP4 ISZERO PUSH2 0x2992 JUMPI DUP3 MLOAD PUSH0 SUB PUSH2 0x298B JUMPI PUSH1 0x1 PUSH1 0x1 PUSH1 0xA0 SHL SUB DUP6 AND EXTCODESIZE PUSH2 0x298B JUMPI PUSH1 0x40 MLOAD PUSH3 0x461BCD PUSH1 0xE5 SHL DUP2 MSTORE PUSH1 0x20 PUSH1 0x4 DUP3 ADD MSTORE PUSH1 0x1D PUSH1 0x24 DUP3 ADD MSTORE PUSH32 0x416464726573733A2063616C6C20746F206E6F6E2D636F6E7472616374000000 PUSH1 0x44 DUP3 ADD MSTORE PUSH1 0x64 ADD PUSH2 0x916 JUMP JUMPDEST POP DUP2 PUSH2 0xDB8 JUMP JUMPDEST PUSH2 0xDB8 DUP4 DUP4 DUP2 MLOAD ISZERO PUSH2 0x29A7 JUMPI DUP2 MLOAD DUP1 DUP4 PUSH1 0x20 ADD REVERT JUMPDEST DUP1 PUSH1 0x40 MLOAD PUSH3 0x461BCD PUSH1 0xE5 SHL DUP2 MSTORE PUSH1 0x4 ADD PUSH2 0x916 SWAP2 SWAP1 PUSH2 0x2B1D JUMP JUMPDEST DUP1 CALLDATALOAD PUSH1 0x1 PUSH1 0x1 PUSH1 0xA0 SHL SUB DUP2 AND DUP2 EQ PUSH2 0x29D7 JUMPI PUSH0 DUP1 REVERT JUMPDEST SWAP2 SWAP1 POP JUMP JUMPDEST PUSH4 0x4E487B71 PUSH1 0xE0 SHL PUSH0 MSTORE PUSH1 0x41 PUSH1 0x4 MSTORE PUSH1 0x24 PUSH0 REVERT JUMPDEST PUSH1 0x40 MLOAD PUSH1 0x1F DUP3 ADD PUSH1 0x1F NOT AND DUP2 ADD PUSH8 0xFFFFFFFFFFFFFFFF DUP2 GT DUP3 DUP3 LT OR ISZERO PUSH2 0x2A19 JUMPI PUSH2 0x2A19 PUSH2 0x29DC JUMP JUMPDEST PUSH1 0x40 MSTORE SWAP2 SWAP1 POP JUMP JUMPDEST PUSH0 DUP3 PUSH1 0x1F DUP4 ADD SLT PUSH2 0x2A30 JUMPI PUSH0 DUP1 REVERT JUMPDEST DUP2 CALLDATALOAD PUSH8 0xFFFFFFFFFFFFFFFF DUP2 GT ISZERO PUSH2 0x2A4A JUMPI PUSH2 0x2A4A PUSH2 0x29DC JUMP JUMPDEST PUSH2 0x2A5D PUSH1 0x1F DUP3 ADD PUSH1 0x1F NOT AND PUSH1 0x20 ADD PUSH2 0x29F0 JUMP JUMPDEST DUP2 DUP2 MSTORE DUP5 PUSH1 0x20 DUP4 DUP7 ADD ADD GT ISZERO PUSH2 0x2A71 JUMPI PUSH0 DUP1 REVERT JUMPDEST DUP2 PUSH1 0x20 DUP6 ADD PUSH1 0x20 DUP4 ADD CALLDATACOPY PUSH0 SWAP2 DUP2 ADD PUSH1 0x20 ADD SWAP2 SWAP1 SWAP2 MSTORE SWAP4 SWAP3 POP POP POP JUMP JUMPDEST PUSH0 DUP1 PUSH1 0x40 DUP4 DUP6 SUB SLT ISZERO PUSH2 0x2A9E JUMPI PUSH0 DUP1 REVERT JUMPDEST PUSH2 0x2AA7 DUP4 PUSH2 0x29C1 JUMP JUMPDEST SWAP2 POP PUSH1 0x20 DUP4 ADD CALLDATALOAD PUSH8 0xFFFFFFFFFFFFFFFF DUP2 GT ISZERO PUSH2 0x2AC2 JUMPI PUSH0 DUP1 REVERT JUMPDEST PUSH2 0x2ACE DUP6 DUP3 DUP7 ADD PUSH2 0x2A21 JUMP JUMPDEST SWAP2 POP POP SWAP3 POP SWAP3 SWAP1 POP JUMP JUMPDEST PUSH0 PUSH1 0x20 DUP3 DUP5 SUB SLT ISZERO PUSH2 0x2AE8 JUMPI PUSH0 DUP1 REVERT JUMPDEST POP CALLDATALOAD SWAP2 SWAP1 POP JUMP JUMPDEST PUSH0 DUP2 MLOAD DUP1 DUP5 MSTORE DUP1 PUSH1 0x20 DUP5 ADD PUSH1 0x20 DUP7 ADD MCOPY PUSH0 PUSH1 0x20 DUP3 DUP7 ADD ADD MSTORE PUSH1 0x20 PUSH1 0x1F NOT PUSH1 0x1F DUP4 ADD AND DUP6 ADD ADD SWAP2 POP POP SWAP3 SWAP2 POP POP JUMP JUMPDEST PUSH1 0x20 DUP2 MSTORE PUSH0 PUSH2 0x14E6 PUSH1 0x20 DUP4 ADD DUP5 PUSH2 0x2AEF JUMP JUMPDEST PUSH1 0x1 PUSH1 0x1 PUSH1 0xE0 SHL SUB NOT DUP2 AND DUP2 EQ PUSH2 0xBD6 JUMPI PUSH0 DUP1 REVERT JUMPDEST PUSH0 PUSH1 0x20 DUP3 DUP5 SUB SLT ISZERO PUSH2 0x2B54 JUMPI PUSH0 DUP1 REVERT JUMPDEST DUP2 CALLDATALOAD PUSH2 0x14E6 DUP2 PUSH2 0x2B2F JUMP JUMPDEST PUSH0 DUP1 PUSH1 0x40 DUP4 DUP6 SUB SLT ISZERO PUSH2 0x2B70 JUMPI PUSH0 DUP1 REVERT JUMPDEST PUSH2 0x2B79 DUP4 PUSH2 0x29C1 JUMP JUMPDEST SWAP5 PUSH1 0x20 SWAP4 SWAP1 SWAP4 ADD CALLDATALOAD SWAP4 POP POP POP JUMP JUMPDEST PUSH0 PUSH1 0x20 DUP3 DUP5 SUB SLT ISZERO PUSH2 0x2B97 JUMPI PUSH0 DUP1 REVERT JUMPDEST PUSH2 0x14E6 DUP3 PUSH2 0x29C1 JUMP JUMPDEST PUSH0 DUP1 PUSH0 PUSH1 0x60 DUP5 DUP7 SUB SLT ISZERO PUSH2 0x2BB2 JUMPI PUSH0 DUP1 REVERT JUMPDEST PUSH2 0x2BBB DUP5 PUSH2 0x29C1 JUMP JUMPDEST SWAP3 POP PUSH2 0x2BC9 PUSH1 0x20 DUP6 ADD PUSH2 0x29C1 JUMP JUMPDEST SWAP2 POP PUSH1 0x40 DUP5 ADD CALLDATALOAD SWAP1 POP SWAP3 POP SWAP3 POP SWAP3 JUMP JUMPDEST PUSH0 DUP1 PUSH1 0x40 DUP4 DUP6 SUB SLT ISZERO PUSH2 0x2BEA JUMPI PUSH0 DUP1 REVERT JUMPDEST POP POP DUP1 CALLDATALOAD SWAP3 PUSH1 0x20 SWAP1 SWAP2 ADD CALLDATALOAD SWAP2 POP JUMP JUMPDEST PUSH0 PUSH8 0xFFFFFFFFFFFFFFFF DUP3 GT ISZERO PUSH2 0x2C12 JUMPI PUSH2 0x2C12 PUSH2 0x29DC JUMP JUMPDEST POP PUSH1 0x5 SHL PUSH1 0x20 ADD SWAP1 JUMP JUMPDEST PUSH0 DUP3 PUSH1 0x1F DUP4 ADD SLT PUSH2 0x2C2B JUMPI PUSH0 DUP1 REVERT JUMPDEST DUP2 CALLDATALOAD PUSH1 0x20 PUSH2 0x2C40 PUSH2 0x2C3B DUP4 PUSH2 0x2BF9 JUMP JUMPDEST PUSH2 0x29F0 JUMP JUMPDEST DUP1 DUP4 DUP3 MSTORE PUSH1 0x20 DUP3 ADD SWAP2 POP PUSH1 0x20 DUP5 PUSH1 0x5 SHL DUP8 ADD ADD SWAP4 POP DUP7 DUP5 GT ISZERO PUSH2 0x2C61 JUMPI PUSH0 DUP1 REVERT JUMPDEST PUSH1 0x20 DUP7 ADD JUMPDEST DUP5 DUP2 LT ISZERO PUSH2 0x2C7D JUMPI DUP1 CALLDATALOAD DUP4 MSTORE SWAP2 DUP4 ADD SWAP2 DUP4 ADD PUSH2 0x2C66 JUMP JUMPDEST POP SWAP7 SWAP6 POP POP POP POP POP POP JUMP JUMPDEST PUSH0 PUSH1 0x20 DUP3 DUP5 SUB SLT ISZERO PUSH2 0x2C98 JUMPI PUSH0 DUP1 REVERT JUMPDEST DUP2 CALLDATALOAD PUSH8 0xFFFFFFFFFFFFFFFF DUP2 GT ISZERO PUSH2 0x2CAE JUMPI PUSH0 DUP1 REVERT JUMPDEST PUSH2 0xDB8 DUP5 DUP3 DUP6 ADD PUSH2 0x2C1C JUMP JUMPDEST PUSH1 0x20 DUP1 DUP3 MSTORE DUP3 MLOAD DUP3 DUP3 ADD DUP2 SWAP1 MSTORE PUSH0 SWAP2 SWAP1 DUP5 DUP3 ADD SWAP1 PUSH1 0x40 DUP6 ADD SWAP1 DUP5 JUMPDEST DUP2 DUP2 LT ISZERO PUSH2 0x1121 JUMPI PUSH2 0x2D11 DUP4 DUP6 MLOAD DUP1 MLOAD PUSH1 0x1 PUSH1 0x1 PUSH1 0xA0 SHL SUB AND DUP3 MSTORE PUSH1 0x20 DUP1 DUP3 ADD MLOAD PUSH8 0xFFFFFFFFFFFFFFFF AND SWAP1 DUP4 ADD MSTORE PUSH1 0x40 SWAP1 DUP2 ADD MLOAD ISZERO ISZERO SWAP2 ADD MSTORE JUMP JUMPDEST SWAP3 DUP5 ADD SWAP3 PUSH1 0x60 SWAP3 SWAP1 SWAP3 ADD SWAP2 PUSH1 0x1 ADD PUSH2 0x2CD5 JUMP JUMPDEST PUSH0 DUP1 PUSH0 DUP1 PUSH1 0x80 DUP6 DUP8 SUB SLT ISZERO PUSH2 0x2D37 JUMPI PUSH0 DUP1 REVERT JUMPDEST PUSH2 0x2D40 DUP6 PUSH2 0x29C1 JUMP JUMPDEST SWAP4 POP PUSH1 0x20 DUP6 ADD CALLDATALOAD SWAP3 POP PUSH1 0x40 DUP6 ADD CALLDATALOAD PUSH8 0xFFFFFFFFFFFFFFFF DUP1 DUP3 GT ISZERO PUSH2 0x2D63 JUMPI PUSH0 DUP1 REVERT JUMPDEST PUSH2 0x2D6F DUP9 DUP4 DUP10 ADD PUSH2 0x2A21 JUMP JUMPDEST SWAP4 POP PUSH1 0x60 DUP8 ADD CALLDATALOAD SWAP2 POP DUP1 DUP3 GT ISZERO PUSH2 0x2D84 JUMPI PUSH0 DUP1 REVERT JUMPDEST POP PUSH2 0x2D91 DUP8 DUP3 DUP9 ADD PUSH2 0x2A21 JUMP JUMPDEST SWAP2 POP POP SWAP3 SWAP6 SWAP2 SWAP5 POP SWAP3 POP JUMP JUMPDEST PUSH1 0x20 DUP1 DUP3 MSTORE DUP3 MLOAD DUP3 DUP3 ADD DUP2 SWAP1 MSTORE PUSH0 SWAP2 SWAP1 DUP5 DUP3 ADD SWAP1 PUSH1 0x40 DUP6 ADD SWAP1 DUP5 JUMPDEST DUP2 DUP2 LT ISZERO PUSH2 0x1121 JUMPI DUP4 MLOAD DUP4 MSTORE SWAP3 DUP5 ADD SWAP3 SWAP2 DUP5 ADD SWAP2 PUSH1 0x1 ADD PUSH2 0x2DB8 JUMP JUMPDEST PUSH0 DUP3 PUSH1 0x1F DUP4 ADD SLT PUSH2 0x2DE3 JUMPI PUSH0 DUP1 REVERT JUMPDEST DUP2 CALLDATALOAD PUSH1 0x20 PUSH2 0x2DF3 PUSH2 0x2C3B DUP4 PUSH2 0x2BF9 JUMP JUMPDEST DUP3 DUP2 MSTORE PUSH1 0x5 SWAP3 SWAP1 SWAP3 SHL DUP5 ADD DUP2 ADD SWAP2 DUP2 DUP2 ADD SWAP1 DUP7 DUP5 GT ISZERO PUSH2 0x2E11 JUMPI PUSH0 DUP1 REVERT JUMPDEST DUP3 DUP7 ADD JUMPDEST DUP5 DUP2 LT ISZERO PUSH2 0x2C7D JUMPI DUP1 CALLDATALOAD PUSH8 0xFFFFFFFFFFFFFFFF DUP2 GT ISZERO PUSH2 0x2E33 JUMPI PUSH0 DUP1 REVERT JUMPDEST PUSH2 0x2E41 DUP10 DUP7 DUP4 DUP12 ADD ADD PUSH2 0x2A21 JUMP JUMPDEST DUP5 MSTORE POP SWAP2 DUP4 ADD SWAP2 DUP4 ADD PUSH2 0x2E15 JUMP JUMPDEST PUSH0 DUP1 PUSH0 DUP1 PUSH1 0x80 DUP6 DUP8 SUB SLT ISZERO PUSH2 0x2E62 JUMPI PUSH0 DUP1 REVERT JUMPDEST PUSH2 0x2E6B DUP6 PUSH2 0x29C1 JUMP JUMPDEST SWAP4 POP PUSH1 0x20 DUP6 ADD CALLDATALOAD PUSH8 0xFFFFFFFFFFFFFFFF DUP1 DUP3 GT ISZERO PUSH2 0x2E87 JUMPI PUSH0 DUP1 REVERT JUMPDEST PUSH2 0x2E93 DUP9 DUP4 DUP10 ADD PUSH2 0x2DD4 JUMP JUMPDEST SWAP5 POP PUSH1 0x40 DUP8 ADD CALLDATALOAD SWAP2 POP DUP1 DUP3 GT ISZERO PUSH2 0x2EA8 JUMPI PUSH0 DUP1 REVERT JUMPDEST PUSH2 0x2EB4 DUP9 DUP4 DUP10 ADD PUSH2 0x2C1C JUMP JUMPDEST SWAP4 POP PUSH1 0x60 DUP8 ADD CALLDATALOAD SWAP2 POP DUP1 DUP3 GT ISZERO PUSH2 0x2EC9 JUMPI PUSH0 DUP1 REVERT JUMPDEST POP PUSH2 0x2D91 DUP8 DUP3 DUP9 ADD PUSH2 0x2DD4 JUMP JUMPDEST PUSH0 PUSH1 0x20 DUP3 DUP5 SUB SLT ISZERO PUSH2 0x2EE6 JUMPI PUSH0 DUP1 REVERT JUMPDEST DUP2 CALLDATALOAD PUSH8 0xFFFFFFFFFFFFFFFF DUP2 GT ISZERO PUSH2 0x2EFC JUMPI PUSH0 DUP1 REVERT JUMPDEST PUSH2 0xDB8 DUP5 DUP3 DUP6 ADD PUSH2 0x2A21 JUMP JUMPDEST PUSH0 DUP1 PUSH0 PUSH1 0x60 DUP5 DUP7 SUB SLT ISZERO PUSH2 0x2F1A JUMPI PUSH0 DUP1 REVERT JUMPDEST PUSH2 0x2F23 DUP5 PUSH2 0x29C1 JUMP JUMPDEST SWAP6 PUSH1 0x20 DUP6 ADD CALLDATALOAD SWAP6 POP PUSH1 0x40 SWAP1 SWAP5 ADD CALLDATALOAD SWAP4 SWAP3 POP POP POP JUMP JUMPDEST PUSH0 DUP1 PUSH0 PUSH1 0x60 DUP5 DUP7 SUB SLT ISZERO PUSH2 0x2F4A JUMPI PUSH0 DUP1 REVERT JUMPDEST DUP4 CALLDATALOAD SWAP3 POP PUSH2 0x2BC9 PUSH1 0x20 DUP6 ADD PUSH2 0x29C1 JUMP JUMPDEST PUSH0 DUP1 PUSH1 0x40 DUP4 DUP6 SUB SLT ISZERO PUSH2 0x2F6B JUMPI PUSH0 DUP1 REVERT JUMPDEST PUSH2 0x2F74 DUP4 PUSH2 0x29C1 JUMP JUMPDEST SWAP2 POP PUSH1 0x20 DUP4 ADD CALLDATALOAD DUP1 ISZERO ISZERO DUP2 EQ PUSH2 0x2F88 JUMPI PUSH0 DUP1 REVERT JUMPDEST DUP1 SWAP2 POP POP SWAP3 POP SWAP3 SWAP1 POP JUMP JUMPDEST PUSH0 DUP1 PUSH1 0x20 DUP4 DUP6 SUB SLT ISZERO PUSH2 0x2FA4 JUMPI PUSH0 DUP1 REVERT JUMPDEST DUP3 CALLDATALOAD PUSH8 0xFFFFFFFFFFFFFFFF DUP1 DUP3 GT ISZERO PUSH2 0x2FBB JUMPI PUSH0 DUP1 REVERT JUMPDEST DUP2 DUP6 ADD SWAP2 POP DUP6 PUSH1 0x1F DUP4 ADD SLT PUSH2 0x2FCE JUMPI PUSH0 DUP1 REVERT JUMPDEST DUP2 CALLDATALOAD DUP2 DUP2 GT ISZERO PUSH2 0x2FDC JUMPI PUSH0 DUP1 REVERT JUMPDEST DUP7 PUSH1 0x20 DUP3 PUSH1 0x5 SHL DUP6 ADD ADD GT ISZERO PUSH2 0x2FF0 JUMPI PUSH0 DUP1 REVERT JUMPDEST PUSH1 0x20 SWAP3 SWAP1 SWAP3 ADD SWAP7 SWAP2 SWAP6 POP SWAP1 SWAP4 POP POP POP POP JUMP JUMPDEST PUSH0 PUSH1 0x20 DUP1 DUP4 ADD PUSH1 0x20 DUP5 MSTORE DUP1 DUP6 MLOAD DUP1 DUP4 MSTORE PUSH1 0x40 DUP7 ADD SWAP2 POP PUSH1 0x40 DUP2 PUSH1 0x5 SHL DUP8 ADD ADD SWAP3 POP PUSH1 0x20 DUP8 ADD PUSH0 JUMPDEST DUP3 DUP2 LT ISZERO PUSH2 0x3057 JUMPI PUSH1 0x3F NOT DUP9 DUP7 SUB ADD DUP5 MSTORE PUSH2 0x3045 DUP6 DUP4 MLOAD PUSH2 0x2AEF JUMP JUMPDEST SWAP5 POP SWAP3 DUP6 ADD SWAP3 SWAP1 DUP6 ADD SWAP1 PUSH1 0x1 ADD PUSH2 0x3029 JUMP JUMPDEST POP SWAP3 SWAP8 SWAP7 POP POP POP POP POP POP POP JUMP JUMPDEST PUSH0 DUP1 PUSH0 DUP1 PUSH1 0x80 DUP6 DUP8 SUB SLT ISZERO PUSH2 0x3077 JUMPI PUSH0 DUP1 REVERT JUMPDEST PUSH2 0x3080 DUP6 PUSH2 0x29C1 JUMP JUMPDEST SWAP4 POP PUSH2 0x308E PUSH1 0x20 DUP7 ADD PUSH2 0x29C1 JUMP JUMPDEST SWAP3 POP PUSH1 0x40 DUP6 ADD CALLDATALOAD SWAP2 POP PUSH1 0x60 DUP6 ADD CALLDATALOAD PUSH8 0xFFFFFFFFFFFFFFFF DUP2 GT ISZERO PUSH2 0x30B0 JUMPI PUSH0 DUP1 REVERT JUMPDEST PUSH2 0x2D91 DUP8 DUP3 DUP9 ADD PUSH2 0x2A21 JUMP JUMPDEST PUSH0 DUP1 PUSH0 DUP1 PUSH1 0x80 DUP6 DUP8 SUB SLT ISZERO PUSH2 0x30CF JUMPI PUSH0 DUP1 REVERT JUMPDEST PUSH2 0x30D8 DUP6 PUSH2 0x29C1 JUMP JUMPDEST SWAP4 POP PUSH1 0x20 DUP6 ADD CALLDATALOAD PUSH8 0xFFFFFFFFFFFFFFFF DUP1 DUP3 GT ISZERO PUSH2 0x30F4 JUMPI PUSH0 DUP1 REVERT JUMPDEST PUSH2 0x3100 DUP9 DUP4 DUP10 ADD PUSH2 0x2A21 JUMP JUMPDEST SWAP5 POP PUSH1 0x40 DUP8 ADD CALLDATALOAD SWAP4 POP PUSH1 0x60 DUP8 ADD CALLDATALOAD SWAP2 POP DUP1 DUP3 GT ISZERO PUSH2 0x2D84 JUMPI PUSH0 DUP1 REVERT JUMPDEST DUP2 MLOAD PUSH1 0x1 PUSH1 0x1 PUSH1 0xA0 SHL SUB AND DUP2 MSTORE PUSH1 0x20 DUP1 DUP4 ADD MLOAD PUSH8 0xFFFFFFFFFFFFFFFF AND SWAP1 DUP3 ADD MSTORE PUSH1 0x40 DUP1 DUP4 ADD MLOAD ISZERO ISZERO SWAP1 DUP3 ADD MSTORE PUSH1 0x60 DUP2 ADD PUSH2 0xA4B JUMP JUMPDEST PUSH0 DUP1 PUSH1 0x40 DUP4 DUP6 SUB SLT ISZERO PUSH2 0x3163 JUMPI PUSH0 DUP1 REVERT JUMPDEST PUSH2 0x316C DUP4 PUSH2 0x29C1 JUMP JUMPDEST SWAP2 POP PUSH2 0x317A PUSH1 0x20 DUP5 ADD PUSH2 0x29C1 JUMP JUMPDEST SWAP1 POP SWAP3 POP SWAP3 SWAP1 POP JUMP JUMPDEST PUSH1 0x1 DUP2 DUP2 SHR SWAP1 DUP3 AND DUP1 PUSH2 0x3197 JUMPI PUSH1 0x7F DUP3 AND SWAP2 POP JUMPDEST PUSH1 0x20 DUP3 LT DUP2 SUB PUSH2 0x31B5 JUMPI PUSH4 0x4E487B71 PUSH1 0xE0 SHL PUSH0 MSTORE PUSH1 0x22 PUSH1 0x4 MSTORE PUSH1 0x24 PUSH0 REVERT JUMPDEST POP SWAP2 SWAP1 POP JUMP JUMPDEST PUSH4 0x4E487B71 PUSH1 0xE0 SHL PUSH0 MSTORE PUSH1 0x32 PUSH1 0x4 MSTORE PUSH1 0x24 PUSH0 REVERT JUMPDEST PUSH4 0x4E487B71 PUSH1 0xE0 SHL PUSH0 MSTORE PUSH1 0x11 PUSH1 0x4 MSTORE PUSH1 0x24 PUSH0 REVERT JUMPDEST DUP1 DUP3 MUL DUP2 ISZERO DUP3 DUP3 DIV DUP5 EQ OR PUSH2 0xA4B JUMPI PUSH2 0xA4B PUSH2 0x31CF JUMP JUMPDEST PUSH4 0x4E487B71 PUSH1 0xE0 SHL PUSH0 MSTORE PUSH1 0x12 PUSH1 0x4 MSTORE PUSH1 0x24 PUSH0 REVERT JUMPDEST PUSH0 DUP3 PUSH2 0x321C JUMPI PUSH2 0x321C PUSH2 0x31FA JUMP JUMPDEST POP DIV SWAP1 JUMP JUMPDEST DUP1 DUP3 ADD DUP1 DUP3 GT ISZERO PUSH2 0xA4B JUMPI PUSH2 0xA4B PUSH2 0x31CF JUMP JUMPDEST PUSH1 0x1F DUP3 GT ISZERO PUSH2 0xBA3 JUMPI DUP1 PUSH0 MSTORE PUSH1 0x20 PUSH0 KECCAK256 PUSH1 0x1F DUP5 ADD PUSH1 0x5 SHR DUP2 ADD PUSH1 0x20 DUP6 LT ISZERO PUSH2 0x3259 JUMPI POP DUP1 JUMPDEST PUSH1 0x1F DUP5 ADD PUSH1 0x5 SHR DUP3 ADD SWAP2 POP JUMPDEST DUP2 DUP2 LT ISZERO PUSH2 0x12FC JUMPI PUSH0 DUP2 SSTORE PUSH1 0x1 ADD PUSH2 0x3265 JUMP JUMPDEST DUP2 MLOAD PUSH8 0xFFFFFFFFFFFFFFFF DUP2 GT ISZERO PUSH2 0x3292 JUMPI PUSH2 0x3292 PUSH2 0x29DC JUMP JUMPDEST PUSH2 0x32A6 DUP2 PUSH2 0x32A0 DUP5 SLOAD PUSH2 0x3183 JUMP JUMPDEST DUP5 PUSH2 0x3234 JUMP JUMPDEST PUSH1 0x20 DUP1 PUSH1 0x1F DUP4 GT PUSH1 0x1 DUP2 EQ PUSH2 0x32D9 JUMPI PUSH0 DUP5 ISZERO PUSH2 0x32C2 JUMPI POP DUP6 DUP4 ADD MLOAD JUMPDEST PUSH0 NOT PUSH1 0x3 DUP7 SWAP1 SHL SHR NOT AND PUSH1 0x1 DUP6 SWAP1 SHL OR DUP6 SSTORE PUSH2 0x1841 JUMP JUMPDEST PUSH0 DUP6 DUP2 MSTORE PUSH1 0x20 DUP2 KECCAK256 PUSH1 0x1F NOT DUP7 AND SWAP2 JUMPDEST DUP3 DUP2 LT ISZERO PUSH2 0x3307 JUMPI DUP9 DUP7 ADD MLOAD DUP3 SSTORE SWAP5 DUP5 ADD SWAP5 PUSH1 0x1 SWAP1 SWAP2 ADD SWAP1 DUP5 ADD PUSH2 0x32E8 JUMP JUMPDEST POP DUP6 DUP3 LT ISZERO PUSH2 0x3324 JUMPI DUP8 DUP6 ADD MLOAD PUSH0 NOT PUSH1 0x3 DUP9 SWAP1 SHL PUSH1 0xF8 AND SHR NOT AND DUP2 SSTORE JUMPDEST POP POP POP POP POP PUSH1 0x1 SWAP1 DUP2 SHL ADD SWAP1 SSTORE POP JUMP JUMPDEST PUSH0 DUP1 DUP4 CALLDATALOAD PUSH1 0x1E NOT DUP5 CALLDATASIZE SUB ADD DUP2 SLT PUSH2 0x3349 JUMPI PUSH0 DUP1 REVERT JUMPDEST DUP4 ADD DUP1 CALLDATALOAD SWAP2 POP PUSH8 0xFFFFFFFFFFFFFFFF DUP3 GT ISZERO PUSH2 0x3363 JUMPI PUSH0 DUP1 REVERT JUMPDEST PUSH1 0x20 ADD SWAP2 POP CALLDATASIZE DUP2 SWAP1 SUB DUP3 SGT ISZERO PUSH2 0x3377 JUMPI PUSH0 DUP1 REVERT JUMPDEST SWAP3 POP SWAP3 SWAP1 POP JUMP JUMPDEST DUP3 DUP5 DUP3 CALLDATACOPY PUSH1 0x60 SWAP2 SWAP1 SWAP2 SHL PUSH12 0xFFFFFFFFFFFFFFFFFFFFFFFF NOT AND SWAP2 ADD SWAP1 DUP2 MSTORE PUSH1 0x14 ADD SWAP2 SWAP1 POP JUMP JUMPDEST PUSH0 DUP2 MLOAD DUP1 PUSH1 0x20 DUP5 ADD DUP6 MCOPY PUSH0 SWAP4 ADD SWAP3 DUP4 MSTORE POP SWAP1 SWAP2 SWAP1 POP JUMP JUMPDEST PUSH0 PUSH2 0xDB8 PUSH2 0x33C9 DUP4 DUP7 PUSH2 0x33A4 JUMP JUMPDEST DUP5 PUSH2 0x33A4 JUMP JUMPDEST PUSH1 0x40 DUP2 MSTORE PUSH0 PUSH2 0x33E1 PUSH1 0x40 DUP4 ADD DUP6 PUSH2 0x2AEF JUMP JUMPDEST DUP3 DUP2 SUB PUSH1 0x20 DUP5 ADD MSTORE PUSH2 0x33F3 DUP2 DUP6 PUSH2 0x2AEF JUMP JUMPDEST SWAP6 SWAP5 POP POP POP POP POP JUMP JUMPDEST PUSH0 PUSH1 0x1 PUSH1 0x1 PUSH1 0xA0 SHL SUB DUP1 DUP8 AND DUP4 MSTORE DUP1 DUP7 AND PUSH1 0x20 DUP5 ADD MSTORE POP DUP4 PUSH1 0x40 DUP4 ADD MSTORE PUSH1 0x80 PUSH1 0x60 DUP4 ADD MSTORE PUSH2 0x291A PUSH1 0x80 DUP4 ADD DUP5 PUSH2 0x2AEF JUMP JUMPDEST PUSH0 PUSH1 0x20 DUP3 DUP5 SUB SLT ISZERO PUSH2 0x343D JUMPI PUSH0 DUP1 REVERT JUMPDEST DUP2 MLOAD PUSH2 0x14E6 DUP2 PUSH2 0x2B2F JUMP JUMPDEST PUSH0 PUSH1 0x1 DUP3 ADD PUSH2 0x3459 JUMPI PUSH2 0x3459 PUSH2 0x31CF JUMP JUMPDEST POP PUSH1 0x1 ADD SWAP1 JUMP JUMPDEST DUP2 DUP2 SUB DUP2 DUP2 GT ISZERO PUSH2 0xA4B JUMPI PUSH2 0xA4B PUSH2 0x31CF JUMP JUMPDEST PUSH0 DUP3 PUSH2 0x3481 JUMPI PUSH2 0x3481 PUSH2 0x31FA JUMP JUMPDEST POP MOD SWAP1 JUMP JUMPDEST PUSH0 PUSH2 0x14E6 DUP3 DUP5 PUSH2 0x33A4 JUMP INVALID COINBASE PUSH5 0x6472657373 GASPRICE KECCAK256 PUSH13 0x6F772D6C6576656C2064656C65 PUSH8 0x6174652063616C6C KECCAK256 PUSH7 0x61696C6564A264 PUSH10 0x70667358221220C3B245 BASEFEE 0xD COINBASE 0xE8 CALLER PUSH27 0x2D9160F814FB00BED071BA9141860AA6AFF535CD805F1D64736F6C PUSH4 0x43000819 STOP CALLER "
    },
    "gasEstimates": {
      "creation": {
        "codeDepositCost": "2710000",
        "executionCost": "infinite",
        "totalCost": "infinite"
      },
      "external": {
        "MAX_SUPPLY()": "262",
        "approve(address,uint256)": "infinite",
        "balanceOf(address)": "2659",
        "batchFrozen(uint256)": "2559",
        "batchMintTo(address,string[],uint256[],string[])": "infinite",
        "batchMintTo(address,uint256,string,bytes)": "infinite",
        "burn(uint256)": "infinite",
        "contractURI()": "infinite",
        "explicitOwnershipOf(uint256)": "infinite",
        "explicitOwnershipsOf(uint256[])": "infinite",
        "getApproved(uint256)": "6975",
        "getBaseURICount()": "2382",
        "getBatchIdAtIndex(uint256)": "6779",
        "getDefaultRoyaltyInfo()": "2475",
        "getRoyaltyInfoForToken(uint256)": "6955",
        "isApprovedForAll(address,address)": "infinite",
        "isApprovedOrOwner(address,uint256)": "infinite",
        "mintFee()": "2385",
        "mintTo(address,string)": "infinite",
        "mintTo(address,string,uint256,string)": "infinite",
        "mojoScore(uint256)": "2503",
        "multicall(bytes[])": "infinite",
        "name()": "infinite",
        "narrative(uint256)": "infinite",
        "nextTokenIdToMint()": "2380",
        "owner()": "2420",
        "ownerOf(uint256)": "infinite",
        "royaltyInfo(uint256,uint256)": "7238",
        "safeTransferFrom(address,address,uint256)": "infinite",
        "safeTransferFrom(address,address,uint256,bytes)": "infinite",
        "setApprovalForAll(address,bool)": "26712",
        "setContractURI(string)": "infinite",
        "setDefaultRoyaltyInfo(address,uint256)": "28430",
        "setMintFee(uint256)": "24572",
        "setOwner(address)": "28460",
        "setRoyaltyInfoForToken(uint256,address,uint256)": "51043",
        "supportsInterface(bytes4)": "642",
        "symbol()": "infinite",
        "tokenURI(uint256)": "infinite",
        "tokensOfOwner(address)": "infinite",
        "tokensOfOwnerIn(address,uint256,uint256)": "infinite",
        "totalSupply()": "4486",
        "transferFrom(address,address,uint256)": "infinite",
        "withdraw()": "infinite"
      }
    },
    "methodIdentifiers": {
      "MAX_SUPPLY()": "32cb6b0c",
      "approve(address,uint256)": "095ea7b3",
      "balanceOf(address)": "70a08231",
      "batchFrozen(uint256)": "83040532",
      "batchMintTo(address,string[],uint256[],string[])": "90113fd0",
      "batchMintTo(address,uint256,string,bytes)": "754a81d9",
      "burn(uint256)": "42966c68",
      "contractURI()": "e8a3d485",
      "explicitOwnershipOf(uint256)": "c23dc68f",
      "explicitOwnershipsOf(uint256[])": "5bbb2177",
      "getApproved(uint256)": "081812fc",
      "getBaseURICount()": "63b45e2d",
      "getBatchIdAtIndex(uint256)": "2419f51b",
      "getDefaultRoyaltyInfo()": "b24f2d39",
      "getRoyaltyInfoForToken(uint256)": "4cc157df",
      "isApprovedForAll(address,address)": "e985e9c5",
      "isApprovedOrOwner(address,uint256)": "430c2081",
      "mintFee()": "13966db5",
      "mintTo(address,string)": "0075a317",
      "mintTo(address,string,uint256,string)": "bb62a58d",
      "mojoScore(uint256)": "16551300",
      "multicall(bytes[])": "ac9650d8",
      "name()": "06fdde03",
      "narrative(uint256)": "01b0a13e",
      "nextTokenIdToMint()": "3b1475a7",
      "owner()": "8da5cb5b",
      "ownerOf(uint256)": "6352211e",
      "royaltyInfo(uint256,uint256)": "2a55205a",
      "safeTransferFrom(address,address,uint256)": "42842e0e",
      "safeTransferFrom(address,address,uint256,bytes)": "b88d4fde",
      "setApprovalForAll(address,bool)": "a22cb465",
      "setContractURI(string)": "938e3d7b",
      "setDefaultRoyaltyInfo(address,uint256)": "600dd5ea",
      "setMintFee(uint256)": "eddd0d9c",
      "setOwner(address)": "13af4035",
      "setRoyaltyInfoForToken(uint256,address,uint256)": "9bcf7a15",
      "supportsInterface(bytes4)": "01ffc9a7",
      "symbol()": "95d89b41",
      "tokenURI(uint256)": "c87b56dd",
      "tokensOfOwner(address)": "8462151c",
      "tokensOfOwnerIn(address,uint256,uint256)": "99a2557a",
      "totalSupply()": "18160ddd",
      "transferFrom(address,address,uint256)": "23b872dd",
      "withdraw()": "3ccfd60b"
    }
  },
  "storageLayout": {
    "storage": [
      {
        "astId": 2095,
        "contract": "DontKilltheJamNFTMojoClaimRedeax.sol:DKTJ",
        "label": "_currentIndex",
        "offset": 0,
        "slot": "0",
        "type": "t_uint256"
      },
      {
        "astId": 2097,
        "contract": "DontKilltheJamNFTMojoClaimRedeax.sol:DKTJ",
        "label": "_burnCounter",
        "offset": 0,
        "slot": "1",
        "type": "t_uint256"
      },
      {
        "astId": 2099,
        "contract": "DontKilltheJamNFTMojoClaimRedeax.sol:DKTJ",
        "label": "_name",
        "offset": 0,
        "slot": "2",
        "type": "t_string_storage"
      },
      {
        "astId": 2101,
        "contract": "DontKilltheJamNFTMojoClaimRedeax.sol:DKTJ",
        "label": "_symbol",
        "offset": 0,
        "slot": "3",
        "type": "t_string_storage"
      },
      {
        "astId": 2106,
        "contract": "DontKilltheJamNFTMojoClaimRedeax.sol:DKTJ",
        "label": "_ownerships",
        "offset": 0,
        "slot": "4",
        "type": "t_mapping(t_uint256,t_struct(TokenOwnership)4030_storage)"
      },
      {
        "astId": 2111,
        "contract": "DontKilltheJamNFTMojoClaimRedeax.sol:DKTJ",
        "label": "_addressData",
        "offset": 0,
        "slot": "5",
        "type": "t_mapping(t_address,t_struct(AddressData)4039_storage)"
      },
      {
        "astId": 2115,
        "contract": "DontKilltheJamNFTMojoClaimRedeax.sol:DKTJ",
        "label": "_tokenApprovals",
        "offset": 0,
        "slot": "6",
        "type": "t_mapping(t_uint256,t_address)"
      },
      {
        "astId": 2121,
        "contract": "DontKilltheJamNFTMojoClaimRedeax.sol:DKTJ",
        "label": "_operatorApprovals",
        "offset": 0,
        "slot": "7",
        "type": "t_mapping(t_address,t_mapping(t_address,t_bool))"
      },
      {
        "astId": 1314,
        "contract": "DontKilltheJamNFTMojoClaimRedeax.sol:DKTJ",
        "label": "contractURI",
        "offset": 0,
        "slot": "8",
        "type": "t_string_storage"
      },
      {
        "astId": 1476,
        "contract": "DontKilltheJamNFTMojoClaimRedeax.sol:DKTJ",
        "label": "_owner",
        "offset": 0,
        "slot": "9",
        "type": "t_address"
      },
      {
        "astId": 1571,
        "contract": "DontKilltheJamNFTMojoClaimRedeax.sol:DKTJ",
        "label": "royaltyRecipient",
        "offset": 0,
        "slot": "10",
        "type": "t_address"
      },
      {
        "astId": 1574,
        "contract": "DontKilltheJamNFTMojoClaimRedeax.sol:DKTJ",
        "label": "royaltyBps",
        "offset": 20,
        "slot": "10",
        "type": "t_uint16"
      },
      {
        "astId": 1580,
        "contract": "DontKilltheJamNFTMojoClaimRedeax.sol:DKTJ",
        "label": "royaltyInfoForToken",
        "offset": 0,
        "slot": "11",
        "type": "t_mapping(t_uint256,t_struct(RoyaltyInfo)3898_storage)"
      },
      {
        "astId": 975,
        "contract": "DontKilltheJamNFTMojoClaimRedeax.sol:DKTJ",
        "label": "batchIds",
        "offset": 0,
        "slot": "12",
        "type": "t_array(t_uint256)dyn_storage"
      },
      {
        "astId": 980,
        "contract": "DontKilltheJamNFTMojoClaimRedeax.sol:DKTJ",
        "label": "baseURI",
        "offset": 0,
        "slot": "13",
        "type": "t_mapping(t_uint256,t_string_storage)"
      },
      {
        "astId": 985,
        "contract": "DontKilltheJamNFTMojoClaimRedeax.sol:DKTJ",
        "label": "batchFrozen",
        "offset": 0,
        "slot": "14",
        "type": "t_mapping(t_uint256,t_bool)"
      },
      {
        "astId": 263,
        "contract": "DontKilltheJamNFTMojoClaimRedeax.sol:DKTJ",
        "label": "fullURI",
        "offset": 0,
        "slot": "15",
        "type": "t_mapping(t_uint256,t_string_storage)"
      },
      {
        "astId": 9,
        "contract": "DontKilltheJamNFTMojoClaimRedeax.sol:DKTJ",
        "label": "mintFee",
        "offset": 0,
        "slot": "16",
        "type": "t_uint256"
      },
      {
        "astId": 13,
        "contract": "DontKilltheJamNFTMojoClaimRedeax.sol:DKTJ",
        "label": "mojoScore",
        "offset": 0,
        "slot": "17",
        "type": "t_mapping(t_uint256,t_uint256)"
      },
      {
        "astId": 17,
        "contract": "DontKilltheJamNFTMojoClaimRedeax.sol:DKTJ",
        "label": "narrative",
        "offset": 0,
        "slot": "18",
        "type": "t_mapping(t_uint256,t_string_storage)"
      }
    ],
    "types": {
      "t_address": {
        "encoding": "inplace",
        "label": "address",
        "numberOfBytes": "20"
      },
      "t_array(t_uint256)dyn_storage": {
        "base": "t_uint256",
        "encoding": "dynamic_array",
        "label": "uint256[]",
        "numberOfBytes": "32"
      },
      "t_bool": {
        "encoding": "inplace",
        "label": "bool",
        "numberOfBytes": "1"
      },
      "t_mapping(t_address,t_bool)": {
        "encoding": "mapping",
        "key": "t_address",
        "label": "mapping(address => bool)",
        "numberOfBytes": "32",
        "value": "t_bool"
      },
      "t_mapping(t_address,t_mapping(t_address,t_bool))": {
        "encoding": "mapping",
        "key": "t_address",
        "label": "mapping(address => mapping(address => bool))",
        "numberOfBytes": "32",
        "value": "t_mapping(t_address,t_bool)"
      },
      "t_mapping(t_address,t_struct(AddressData)4039_storage)": {
        "encoding": "mapping",
        "key": "t_address",
        "label": "mapping(address => struct IERC721A.AddressData)",
        "numberOfBytes": "32",
        "value": "t_struct(AddressData)4039_storage"
      },
      "t_mapping(t_uint256,t_address)": {
        "encoding": "mapping",
        "key": "t_uint256",
        "label": "mapping(uint256 => address)",
        "numberOfBytes": "32",
        "value": "t_address"
      },
      "t_mapping(t_uint256,t_bool)": {
        "encoding": "mapping",
        "key": "t_uint256",
        "label": "mapping(uint256 => bool)",
        "numberOfBytes": "32",
        "value": "t_bool"
      },
      "t_mapping(t_uint256,t_string_storage)": {
        "encoding": "mapping",
        "key": "t_uint256",
        "label": "mapping(uint256 => string)",
        "numberOfBytes": "32",
        "value": "t_string_storage"
      },
      "t_mapping(t_uint256,t_struct(RoyaltyInfo)3898_storage)": {
        "encoding": "mapping",
        "key": "t_uint256",
        "label": "mapping(uint256 => struct IRoyalty.RoyaltyInfo)",
        "numberOfBytes": "32",
        "value": "t_struct(RoyaltyInfo)3898_storage"
      },
      "t_mapping(t_uint256,t_struct(TokenOwnership)4030_storage)": {
        "encoding": "mapping",
        "key": "t_uint256",
        "label": "mapping(uint256 => struct IERC721A.TokenOwnership)",
        "numberOfBytes": "32",
        "value": "t_struct(TokenOwnership)4030_storage"
      },
      "t_mapping(t_uint256,t_uint256)": {
        "encoding": "mapping",
        "key": "t_uint256",
        "label": "mapping(uint256 => uint256)",
        "numberOfBytes": "32",
        "value": "t_uint256"
      },
      "t_string_storage": {
        "encoding": "bytes",
        "label": "string",
        "numberOfBytes": "32"
      },
      "t_struct(AddressData)4039_storage": {
        "encoding": "inplace",
        "label": "struct IERC721A.AddressData",
        "members": [
          {
            "astId": 4032,
            "contract": "DontKilltheJamNFTMojoClaimRedeax.sol:DKTJ",
            "label": "balance",
            "offset": 0,
            "slot": "0",
            "type": "t_uint64"
          },
          {
            "astId": 4034,
            "contract": "DontKilltheJamNFTMojoClaimRedeax.sol:DKTJ",
            "label": "numberMinted",
            "offset": 8,
            "slot": "0",
            "type": "t_uint64"
          },
          {
            "astId": 4036,
            "contract": "DontKilltheJamNFTMojoClaimRedeax.sol:DKTJ",
            "label": "numberBurned",
            "offset": 16,
            "slot": "0",
            "type": "t_uint64"
          },
          {
            "astId": 4038,
            "contract": "DontKilltheJamNFTMojoClaimRedeax.sol:DKTJ",
            "label": "aux",
            "offset": 24,
            "slot": "0",
            "type": "t_uint64"
          }
        ],
        "numberOfBytes": "32"
      },
      "t_struct(RoyaltyInfo)3898_storage": {
        "encoding": "inplace",
        "label": "struct IRoyalty.RoyaltyInfo",
        "members": [
          {
            "astId": 3895,
            "contract": "DontKilltheJamNFTMojoClaimRedeax.sol:DKTJ",
            "label": "recipient",
            "offset": 0,
            "slot": "0",
            "type": "t_address"
          },
          {
            "astId": 3897,
            "contract": "DontKilltheJamNFTMojoClaimRedeax.sol:DKTJ",
            "label": "bps",
            "offset": 0,
            "slot": "1",
            "type": "t_uint256"
          }
        ],
        "numberOfBytes": "64"
      },
      "t_struct(TokenOwnership)4030_storage": {
        "encoding": "inplace",
        "label": "struct IERC721A.TokenOwnership",
        "members": [
          {
            "astId": 4025,
            "contract": "DontKilltheJamNFTMojoClaimRedeax.sol:DKTJ",
            "label": "addr",
            "offset": 0,
            "slot": "0",
            "type": "t_address"
          },
          {
            "astId": 4027,
            "contract": "DontKilltheJamNFTMojoClaimRedeax.sol:DKTJ",
            "label": "startTimestamp",
            "offset": 20,
            "slot": "0",
            "type": "t_uint64"
          },
          {
            "astId": 4029,
            "contract": "DontKilltheJamNFTMojoClaimRedeax.sol:DKTJ",
            "label": "burned",
            "offset": 28,
            "slot": "0",
            "type": "t_bool"
          }
        ],
        "numberOfBytes": "32"
      },
      "t_uint16": {
        "encoding": "inplace",
        "label": "uint16",
        "numberOfBytes": "2"
      },
      "t_uint256": {
        "encoding": "inplace",
        "label": "uint256",
        "numberOfBytes": "32"
      },
      "t_uint64": {
        "encoding": "inplace",
        "label": "uint64",
        "numberOfBytes": "8"
      }
    }
  },
  "userdoc": {
    "errors": {
      "ApprovalCallerNotOwnerNorApproved()": [
        {
          "notice": "The caller must own the token or be an approved operator."
        }
      ],
      "ApprovalQueryForNonexistentToken()": [
        {
          "notice": "The token does not exist."
        }
      ],
      "ApprovalToCurrentOwner()": [
        {
          "notice": "The caller cannot approve to the current owner."
        }
      ],
      "ApproveToCaller()": [
        {
          "notice": "The caller cannot approve to their own address."
        }
      ],
      "BalanceQueryForZeroAddress()": [
        {
          "notice": "Cannot query the balance for the zero address."
        }
      ],
      "InvalidQueryRange()": [
        {
          "notice": "Invalid query range (`start` >= `stop`)."
        }
      ],
      "MintToZeroAddress()": [
        {
          "notice": "Cannot mint to the zero address."
        }
      ],
      "MintZeroQuantity()": [
        {
          "notice": "The quantity of tokens minted must be more than zero."
        }
      ],
      "OwnerQueryForNonexistentToken()": [
        {
          "notice": "The token does not exist."
        }
      ],
      "TransferCallerNotOwnerNorApproved()": [
        {
          "notice": "The caller must own the token or be an approved operator."
        }
      ],
      "TransferFromIncorrectOwner()": [
        {
          "notice": "The token must be owned by `from`."
        }
      ],
      "TransferToNonERC721ReceiverImplementer()": [
        {
          "notice": "Cannot safely transfer to a contract that does not implement the ERC721Receiver interface."
        }
      ],
      "TransferToZeroAddress()": [
        {
          "notice": "Cannot transfer to the zero address."
        }
      ],
      "URIQueryForNonexistentToken()": [
        {
          "notice": "The token does not exist."
        }
      ]
    },
    "events": {
      "BatchMetadataUpdate(uint256,uint256)": {
        "notice": "So that the third-party platforms such as NFT market could timely update the images and related attributes of the NFTs."
      }
    },
    "kind": "user",
    "methods": {
      "batchMintTo(address,uint256,string,bytes)": {
        "notice": "Lets an authorized address mint multiple NFTs at once to a recipient."
      },
      "burn(uint256)": {
        "notice": "Lets an owner or approved operator burn the NFT of the given tokenId."
      },
      "contractURI()": {
        "notice": "Returns the contract metadata URI."
      },
      "getBaseURICount()": {
        "notice": "Returns the count of batches of NFTs."
      },
      "getBatchIdAtIndex(uint256)": {
        "notice": "Returns the ID for the batch of tokens at the given index."
      },
      "getDefaultRoyaltyInfo()": {
        "notice": "Returns the defualt royalty recipient and BPS for this contract's NFTs."
      },
      "getRoyaltyInfoForToken(uint256)": {
        "notice": "View royalty info for a given token."
      },
      "isApprovedOrOwner(address,uint256)": {
        "notice": "Returns whether a given address is the owner, or approved to transfer an NFT."
      },
      "mintTo(address,string)": {
        "notice": "Lets an authorized address mint an NFT to a recipient."
      },
      "multicall(bytes[])": {
        "notice": "Receives and executes a batch of function calls on this contract."
      },
      "nextTokenIdToMint()": {
        "notice": "The tokenId assigned to the next new NFT to be minted."
      },
      "owner()": {
        "notice": "Returns the owner of the contract."
      },
      "royaltyInfo(uint256,uint256)": {
        "notice": "View royalty info for a given token and sale price."
      },
      "setContractURI(string)": {
        "notice": "Lets a contract admin set the URI for contract-level metadata."
      },
      "setDefaultRoyaltyInfo(address,uint256)": {
        "notice": "Updates default royalty recipient and bps."
      },
      "setOwner(address)": {
        "notice": "Lets an authorized wallet set a new owner for the contract."
      },
      "setRoyaltyInfoForToken(uint256,address,uint256)": {
        "notice": "Updates default royalty recipient and bps for a particular token."
      },
      "tokenURI(uint256)": {
        "notice": "Returns the metadata URI for an NFT."
      }
    },
    "version": 1
  }
}