{
  "abi": [
    {
      "inputs": [
        {
          "internalType": "address",
          "name": "_defaultAdmin",
          "type": "address"
        },
        {
          "internalType": "string",
          "name": "_name",
          "type": "string"
        },
        {
          "internalType": "string",
          "name": "_symbol",
          "type": "string"
        },
        {
          "internalType": "address",
          "name": "_royaltyRecipient",
          "type": "address"
        },
        {
          "internalType": "uint128",
          "name": "_royaltyBps",
          "type": "uint128"
        },
        {
          "internalType": "uint256",
          "name": "_initialMintFee",
          "type": "uint256"
        }
      ],
      "stateMutability": "nonpayable",
      "type": "constructor"
    },
    {
      "inputs": [],
      "name": "ApprovalCallerNotOwnerNorApproved",
      "type": "error"
    },
    {
      "inputs": [],
      "name": "ApprovalQueryForNonexistentToken",
      "type": "error"
    },
    {
      "inputs": [],
      "name": "ApprovalToCurrentOwner",
      "type": "error"
    },
    {
      "inputs": [],
      "name": "ApproveToCaller",
      "type": "error"
    },
    {
      "inputs": [],
      "name": "BalanceQueryForZeroAddress",
      "type": "error"
    },
    {
      "inputs": [
        {
          "internalType": "uint256",
          "name": "index",
          "type": "uint256"
        }
      ],
      "name": "BatchMintInvalidBatchId",
      "type": "error"
    },
    {
      "inputs": [
        {
          "internalType": "uint256",
          "name": "tokenId",
          "type": "uint256"
        }
      ],
      "name": "BatchMintInvalidTokenId",
      "type": "error"
    },
    {
      "inputs": [
        {
          "internalType": "uint256",
          "name": "batchId",
          "type": "uint256"
        }
      ],
      "name": "BatchMintMetadataFrozen",
      "type": "error"
    },
    {
      "inputs": [],
      "name": "ContractMetadataUnauthorized",
      "type": "error"
    },
    {
      "inputs": [],
      "name": "InvalidQueryRange",
      "type": "error"
    },
    {
      "inputs": [],
      "name": "MintToZeroAddress",
      "type": "error"
    },
    {
      "inputs": [],
      "name": "MintZeroQuantity",
      "type": "error"
    },
    {
      "inputs": [],
      "name": "OwnableUnauthorized",
      "type": "error"
    },
    {
      "inputs": [],
      "name": "OwnerQueryForNonexistentToken",
      "type": "error"
    },
    {
      "inputs": [
        {
          "internalType": "uint256",
          "name": "max",
          "type": "uint256"
        },
        {
          "internalType": "uint256",
          "name": "actual",
          "type": "uint256"
        }
      ],
      "name": "RoyaltyExceededMaxFeeBps",
      "type": "error"
    },
    {
      "inputs": [
        {
          "internalType": "address",
          "name": "recipient",
          "type": "address"
        }
      ],
      "name": "RoyaltyInvalidRecipient",
      "type": "error"
    },
    {
      "inputs": [],
      "name": "RoyaltyUnauthorized",
      "type": "error"
    },
    {
      "inputs": [],
      "name": "TransferCallerNotOwnerNorApproved",
      "type": "error"
    },
    {
      "inputs": [],
      "name": "TransferFromIncorrectOwner",
      "type": "error"
    },
    {
      "inputs": [],
      "name": "TransferToNonERC721ReceiverImplementer",
      "type": "error"
    },
    {
      "inputs": [],
      "name": "TransferToZeroAddress",
      "type": "error"
    },
    {
      "inputs": [],
      "name": "URIQueryForNonexistentToken",
      "type": "error"
    },
    {
      "anonymous": false,
      "inputs": [
        {
          "indexed": true,
          "internalType": "address",
          "name": "owner",
          "type": "address"
        },
        {
          "indexed": true,
          "internalType": "address",
          "name": "approved",
          "type": "address"
        },
        {
          "indexed": true,
          "internalType": "uint256",
          "name": "tokenId",
          "type": "uint256"
        }
      ],
      "name": "Approval",
      "type": "event"
    },
    {
      "anonymous": false,
      "inputs": [
        {
          "indexed": true,
          "internalType": "address",
          "name": "owner",
          "type": "address"
        },
        {
          "indexed": true,
          "internalType": "address",
          "name": "operator",
          "type": "address"
        },
        {
          "indexed": false,
          "internalType": "bool",
          "name": "approved",
          "type": "bool"
        }
      ],
      "name": "ApprovalForAll",
      "type": "event"
    },
    {
      "anonymous": false,
      "inputs": [
        {
          "indexed": false,
          "internalType": "uint256",
          "name": "_fromTokenId",
          "type": "uint256"
        },
        {
          "indexed": false,
          "internalType": "uint256",
          "name": "_toTokenId",
          "type": "uint256"
        }
      ],
      "name": "BatchMetadataUpdate",
      "type": "event"
    },
    {
      "anonymous": false,
      "inputs": [
        {
          "indexed": false,
          "internalType": "string",
          "name": "prevURI",
          "type": "string"
        },
        {
          "indexed": false,
          "internalType": "string",
          "name": "newURI",
          "type": "string"
        }
      ],
      "name": "ContractURIUpdated",
      "type": "event"
    },
    {
      "anonymous": false,
      "inputs": [
        {
          "indexed": true,
          "internalType": "address",
          "name": "newRoyaltyRecipient",
          "type": "address"
        },
        {
          "indexed": false,
          "internalType": "uint256",
          "name": "newRoyaltyBps",
          "type": "uint256"
        }
      ],
      "name": "DefaultRoyalty",
      "type": "event"
    },
    {
      "anonymous": false,
      "inputs": [],
      "name": "MetadataFrozen",
      "type": "event"
    },
    {
      "anonymous": false,
      "inputs": [
        {
          "indexed": true,
          "internalType": "address",
          "name": "to",
          "type": "address"
        },
        {
          "indexed": true,
          "internalType": "uint256",
          "name": "tokenId",
          "type": "uint256"
        },
        {
          "indexed": false,
          "internalType": "uint256",
          "name": "mojo",
          "type": "uint256"
        },
        {
          "indexed": false,
          "internalType": "string",
          "name": "narr",
          "type": "string"
        }
      ],
      "name": "NFTMinted",
      "type": "event"
    },
    {
      "anonymous": false,
      "inputs": [
        {
          "indexed": true,
          "internalType": "address",
          "name": "prevOwner",
          "type": "address"
        },
        {
          "indexed": true,
          "internalType": "address",
          "name": "newOwner",
          "type": "address"
        }
      ],
      "name": "OwnerUpdated",
      "type": "event"
    },
    {
      "anonymous": false,
      "inputs": [
        {
          "indexed": true,
          "internalType": "uint256",
          "name": "tokenId",
          "type": "uint256"
        },
        {
          "indexed": true,
          "internalType": "address",
          "name": "royaltyRecipient",
          "type": "address"
        },
        {
          "indexed": false,
          "internalType": "uint256",
          "name": "royaltyBps",
          "type": "uint256"
        }
      ],
      "name": "RoyaltyForToken",
      "type": "event"
    },
    {
      "anonymous": false,
      "inputs": [
        {
          "indexed": true,
          "internalType": "address",
          "name": "from",
          "type": "address"
        },
        {
          "indexed": true,
          "internalType": "address",
          "name": "to",
          "type": "address"
        },
        {
          "indexed": true,
          "internalType": "uint256",
          "name": "tokenId",
          "type": "uint256"
        }
      ],
      "name": "Transfer",
      "type": "event"
    },
    {
      "inputs": [],
      "name": "MAX_SUPPLY",
      "outputs": [
        {
          "internalType": "uint256",
          "name": "",
          "type": "uint256"
        }
      ],
      "stateMutability": "view",
      "type": "function"
    },
    {
      "inputs": [
        {
          "internalType": "address",
          "name": "to",
          "type": "address"
        },
        {
          "internalType": "uint256",
          "name": "tokenId",
          "type": "uint256"
        }
      ],
      "name": "approve",
      "outputs": [],
      "stateMutability": "nonpayable",
      "type": "function"
    },
    {
      "inputs": [
        {
          "internalType": "address",
          "name": "owner",
          "type": "address"
        }
      ],
      "name": "balanceOf",
      "outputs": [
        {
          "internalType": "uint256",
          "name": "",
          "type": "uint256"
        }
      ],
      "stateMutability": "view",
      "type": "function"
    },
    {
      "inputs": [
        {
          "internalType": "uint256",
          "name": "",
          "type": "uint256"
        }
      ],
      "name": "batchFrozen",
      "outputs": [
        {
          "internalType": "bool",
          "name": "",
          "type": "bool"
        }
      ],
      "stateMutability": "view",
      "type": "function"
    },
    {
      "inputs": [
        {
          "internalType": "address",
          "name": "_to",
          "type": "address"
        },
        {
          "internalType": "uint256",
          "name": "_quantity",
          "type": "uint256"
        },
        {
          "internalType": "string",
          "name": "_baseURI",
          "type": "string"
        },
        {
          "internalType": "bytes",
          "name": "_data",
          "type": "bytes"
        }
      ],
      "name": "batchMintTo",
      "outputs": [],
      "stateMutability": "nonpayable",
      "type": "function"
    },
    {
      "inputs": [
        {
          "internalType": "uint256",
          "name": "_tokenId",
          "type": "uint256"
        }
      ],
      "name": "burn",
      "outputs": [],
      "stateMutability": "nonpayable",
      "type": "function"
    },
    {
      "inputs": [],
      "name": "contractURI",
      "outputs": [
        {
          "internalType": "string",
          "name": "",
          "type": "string"
        }
      ],
      "stateMutability": "view",
      "type": "function"
    },
    {
      "inputs": [
        {
          "internalType": "uint256",
          "name": "tokenId",
          "type": "uint256"
        }
      ],
      "name": "explicitOwnershipOf",
      "outputs": [
        {
          "components": [
            {
              "internalType": "address",
              "name": "addr",
              "type": "address"
            },
            {
              "internalType": "uint64",
              "name": "startTimestamp",
              "type": "uint64"
            },
            {
              "internalType": "bool",
              "name": "burned",
              "type": "bool"
            }
          ],
          "internalType": "struct IERC721A.TokenOwnership",
          "name": "",
          "type": "tuple"
        }
      ],
      "stateMutability": "view",
      "type": "function"
    },
    {
      "inputs": [
        {
          "internalType": "uint256[]",
          "name": "tokenIds",
          "type": "uint256[]"
        }
      ],
      "name": "explicitOwnershipsOf",
      "outputs": [
        {
          "components": [
            {
              "internalType": "address",
              "name": "addr",
              "type": "address"
            },
            {
              "internalType": "uint64",
              "name": "startTimestamp",
              "type": "uint64"
            },
            {
              "internalType": "bool",
              "name": "burned",
              "type": "bool"
            }
          ],
          "internalType": "struct IERC721A.TokenOwnership[]",
          "name": "",
          "type": "tuple[]"
        }
      ],
      "stateMutability": "view",
      "type": "function"
    },
    {
      "inputs": [
        {
          "internalType": "uint256",
          "name": "tokenId",
          "type": "uint256"
        }
      ],
      "name": "getApproved",
      "outputs": [
        {
          "internalType": "address",
          "name": "",
          "type": "address"
        }
      ],
      "stateMutability": "view",
      "type": "function"
    },
    {
      "inputs": [],
      "name": "getBaseURICount",
      "outputs": [
        {
          "internalType": "uint256",
          "name": "",
          "type": "uint256"
        }
      ],
      "stateMutability": "view",
      "type": "function"
    },
    {
      "inputs": [
        {
          "internalType": "uint256",
          "name": "_index",
          "type": "uint256"
        }
      ],
      "name": "getBatchIdAtIndex",
      "outputs": [
        {
          "internalType": "uint256",
          "name": "",
          "type": "uint256"
        }
      ],
      "stateMutability": "view",
      "type": "function"
    },
    {
      "inputs": [],
      "name": "getDefaultRoyaltyInfo",
      "outputs": [
        {
          "internalType": "address",
          "name": "",
          "type": "address"
        },
        {
          "internalType": "uint16",
          "name": "",
          "type": "uint16"
        }
      ],
      "stateMutability": "view",
      "type": "function"
    },
    {
      "inputs": [
        {
          "internalType": "uint256",
          "name": "_tokenId",
          "type": "uint256"
        }
      ],
      "name": "getRoyaltyInfoForToken",
      "outputs": [
        {
          "internalType": "address",
          "name": "",
          "type": "address"
        },
        {
          "internalType": "uint16",
          "name": "",
          "type": "uint16"
        }
      ],
      "stateMutability": "view",
      "type": "function"
    },
    {
      "inputs": [
        {
          "internalType": "address",
          "name": "owner",
          "type": "address"
        },
        {
          "internalType": "address",
          "name": "operator",
          "type": "address"
        }
      ],
      "name": "isApprovedForAll",
      "outputs": [
        {
          "internalType": "bool",
          "name": "",
          "type": "bool"
        }
      ],
      "stateMutability": "view",
      "type": "function"
    },
    {
      "inputs": [
        {
          "internalType": "address",
          "name": "_operator",
          "type": "address"
        },
        {
          "internalType": "uint256",
          "name": "_tokenId",
          "type": "uint256"
        }
      ],
      "name": "isApprovedOrOwner",
      "outputs": [
        {
          "internalType": "bool",
          "name": "isApprovedOrOwnerOf",
          "type": "bool"
        }
      ],
      "stateMutability": "view",
      "type": "function"
    },
    {
      "inputs": [
        {
          "internalType": "address",
          "name": "to",
          "type": "address"
        },
        {
          "internalType": "string",
          "name": "tokenURI",
          "type": "string"
        },
        {
          "internalType": "uint256",
          "name": "mojo",
          "type": "uint256"
        },
        {
          "internalType": "string",
          "name": "narr",
          "type": "string"
        }
      ],
      "name": "mint",
      "outputs": [],
      "stateMutability": "payable",
      "type": "function"
    },
    {
      "inputs": [
        {
          "internalType": "address",
          "name": "to",
          "type": "address"
        },
        {
          "internalType": "string[]",
          "name": "tokenURIs",
          "type": "string[]"
        },
        {
          "internalType": "uint256[]",
          "name": "mojos",
          "type": "uint256[]"
        },
        {
          "internalType": "string[]",
          "name": "narrs",
          "type": "string[]"
        }
      ],
      "name": "mintBatch",
      "outputs": [],
      "stateMutability": "payable",
      "type": "function"
    },
    {
      "inputs": [],
      "name": "mintFee",
      "outputs": [
        {
          "internalType": "uint256",
          "name": "",
          "type": "uint256"
        }
      ],
      "stateMutability": "view",
      "type": "function"
    },
    {
      "inputs": [
        {
          "internalType": "address",
          "name": "_to",
          "type": "address"
        },
        {
          "internalType": "string",
          "name": "_tokenURI",
          "type": "string"
        }
      ],
      "name": "mintTo",
      "outputs": [],
      "stateMutability": "nonpayable",
      "type": "function"
    },
    {
      "inputs": [
        {
          "internalType": "uint256",
          "name": "",
          "type": "uint256"
        }
      ],
      "name": "mojoScore",
      "outputs": [
        {
          "internalType": "uint256",
          "name": "",
          "type": "uint256"
        }
      ],
      "stateMutability": "view",
      "type": "function"
    },
    {
      "inputs": [
        {
          "internalType": "bytes[]",
          "name": "data",
          "type": "bytes[]"
        }
      ],
      "name": "multicall",
      "outputs": [
        {
          "internalType": "bytes[]",
          "name": "results",
          "type": "bytes[]"
        }
      ],
      "stateMutability": "nonpayable",
      "type": "function"
    },
    {
      "inputs": [],
      "name": "name",
      "outputs": [
        {
          "internalType": "string",
          "name": "",
          "type": "string"
        }
      ],
      "stateMutability": "view",
      "type": "function"
    },
    {
      "inputs": [
        {
          "internalType": "uint256",
          "name": "",
          "type": "uint256"
        }
      ],
      "name": "narrative",
      "outputs": [
        {
          "internalType": "string",
          "name": "",
          "type": "string"
        }
      ],
      "stateMutability": "view",
      "type": "function"
    },
    {
      "inputs": [],
      "name": "nextTokenIdToMint",
      "outputs": [
        {
          "internalType": "uint256",
          "name": "",
          "type": "uint256"
        }
      ],
      "stateMutability": "view",
      "type": "function"
    },
    {
      "inputs": [],
      "name": "owner",
      "outputs": [
        {
          "internalType": "address",
          "name": "",
          "type": "address"
        }
      ],
      "stateMutability": "view",
      "type": "function"
    },
    {
      "inputs": [
        {
          "internalType": "uint256",
          "name": "tokenId",
          "type": "uint256"
        }
      ],
      "name": "ownerOf",
      "outputs": [
        {
          "internalType": "address",
          "name": "",
          "type": "address"
        }
      ],
      "stateMutability": "view",
      "type": "function"
    },
    {
      "inputs": [
        {
          "internalType": "uint256",
          "name": "tokenId",
          "type": "uint256"
        },
        {
          "internalType": "uint256",
          "name": "salePrice",
          "type": "uint256"
        }
      ],
      "name": "royaltyInfo",
      "outputs": [
        {
          "internalType": "address",
          "name": "receiver",
          "type": "address"
        },
        {
          "internalType": "uint256",
          "name": "royaltyAmount",
          "type": "uint256"
        }
      ],
      "stateMutability": "view",
      "type": "function"
    },
    {
      "inputs": [
        {
          "internalType": "address",
          "name": "from",
          "type": "address"
        },
        {
          "internalType": "address",
          "name": "to",
          "type": "address"
        },
        {
          "internalType": "uint256",
          "name": "tokenId",
          "type": "uint256"
        }
      ],
      "name": "safeTransferFrom",
      "outputs": [],
      "stateMutability": "nonpayable",
      "type": "function"
    },
    {
      "inputs": [
        {
          "internalType": "address",
          "name": "from",
          "type": "address"
        },
        {
          "internalType": "address",
          "name": "to",
          "type": "address"
        },
        {
          "internalType": "uint256",
          "name": "tokenId",
          "type": "uint256"
        },
        {
          "internalType": "bytes",
          "name": "_data",
          "type": "bytes"
        }
      ],
      "name": "safeTransferFrom",
      "outputs": [],
      "stateMutability": "nonpayable",
      "type": "function"
    },
    {
      "inputs": [
        {
          "internalType": "address",
          "name": "operator",
          "type": "address"
        },
        {
          "internalType": "bool",
          "name": "approved",
          "type": "bool"
        }
      ],
      "name": "setApprovalForAll",
      "outputs": [],
      "stateMutability": "nonpayable",
      "type": "function"
    },
    {
      "inputs": [
        {
          "internalType": "string",
          "name": "_uri",
          "type": "string"
        }
      ],
      "name": "setContractURI",
      "outputs": [],
      "stateMutability": "nonpayable",
      "type": "function"
    },
    {
      "inputs": [
        {
          "internalType": "address",
          "name": "_royaltyRecipient",
          "type": "address"
        },
        {
          "internalType": "uint256",
          "name": "_royaltyBps",
          "type": "uint256"
        }
      ],
      "name": "setDefaultRoyaltyInfo",
      "outputs": [],
      "stateMutability": "nonpayable",
      "type": "function"
    },
    {
      "inputs": [
        {
          "internalType": "uint256",
          "name": "fee",
          "type": "uint256"
        }
      ],
      "name": "setMintFee",
      "outputs": [],
      "stateMutability": "nonpayable",
      "type": "function"
    },
    {
      "inputs": [
        {
          "internalType": "address",
          "name": "_newOwner",
          "type": "address"
        }
      ],
      "name": "setOwner",
      "outputs": [],
      "stateMutability": "nonpayable",
      "type": "function"
    },
    {
      "inputs": [
        {
          "internalType": "uint256",
          "name": "_tokenId",
          "type": "uint256"
        },
        {
          "internalType": "address",
          "name": "_recipient",
          "type": "address"
        },
        {
          "internalType": "uint256",
          "name": "_bps",
          "type": "uint256"
        }
      ],
      "name": "setRoyaltyInfoForToken",
      "outputs": [],
      "stateMutability": "nonpayable",
      "type": "function"
    },
    {
      "inputs": [
        {
          "internalType": "bytes4",
          "name": "interfaceId",
          "type": "bytes4"
        }
      ],
      "name": "supportsInterface",
      "outputs": [
        {
          "internalType": "bool",
          "name": "",
          "type": "bool"
        }
      ],
      "stateMutability": "view",
      "type": "function"
    },
    {
      "inputs": [],
      "name": "symbol",
      "outputs": [
        {
          "internalType": "string",
          "name": "",
          "type": "string"
        }
      ],
      "stateMutability": "view",
      "type": "function"
    },
    {
      "inputs": [
        {
          "internalType": "uint256",
          "name": "_tokenId",
          "type": "uint256"
        }
      ],
      "name": "tokenURI",
      "outputs": [
        {
          "internalType": "string",
          "name": "",
          "type": "string"
        }
      ],
      "stateMutability": "view",
      "type": "function"
    },
    {
      "inputs": [
        {
          "internalType": "address",
          "name": "owner",
          "type": "address"
        }
      ],
      "name": "tokensOfOwner",
      "outputs": [
        {
          "internalType": "uint256[]",
          "name": "",
          "type": "uint256[]"
        }
      ],
      "stateMutability": "view",
      "type": "function"
    },
    {
      "inputs": [
        {
          "internalType": "address",
          "name": "owner",
          "type": "address"
        },
        {
          "internalType": "uint256",
          "name": "start",
          "type": "uint256"
        },
        {
          "internalType": "uint256",
          "name": "stop",
          "type": "uint256"
        }
      ],
      "name": "tokensOfOwnerIn",
      "outputs": [
        {
          "internalType": "uint256[]",
          "name": "",
          "type": "uint256[]"
        }
      ],
      "stateMutability": "view",
      "type": "function"
    },
    {
      "inputs": [],
      "name": "totalSupply",
      "outputs": [
        {
          "internalType": "uint256",
          "name": "",
          "type": "uint256"
        }
      ],
      "stateMutability": "view",
      "type": "function"
    },
    {
      "inputs": [
        {
          "internalType": "address",
          "name": "from",
          "type": "address"
        },
        {
          "internalType": "address",
          "name": "to",
          "type": "address"
        },
        {
          "internalType": "uint256",
          "name": "tokenId",
          "type": "uint256"
        }
      ],
      "name": "transferFrom",
      "outputs": [],
      "stateMutability": "nonpayable",
      "type": "function"
    },
    {
      "inputs": [],
      "name": "withdraw",
      "outputs": [],
      "stateMutability": "nonpayable",
      "type": "function"
    }
  ],
  "devdoc": {
    "errors": {
      "BatchMintInvalidBatchId(uint256)": [
        {
          "details": "Invalid index for batch"
        }
      ],
      "BatchMintInvalidTokenId(uint256)": [
        {
          "details": "Invalid token"
        }
      ],
      "BatchMintMetadataFrozen(uint256)": [
        {
          "details": "Metadata frozen"
        }
      ],
      "ContractMetadataUnauthorized()": [
        {
          "details": "The sender is not authorized to perform the action"
        }
      ],
      "OwnableUnauthorized()": [
        {
          "details": "The sender is not authorized to perform the action"
        }
      ],
      "RoyaltyExceededMaxFeeBps(uint256,uint256)": [
        {
          "details": "The fee bps exceeded the max value"
        }
      ],
      "RoyaltyInvalidRecipient(address)": [
        {
          "details": "The recipient is invalid"
        }
      ],
      "RoyaltyUnauthorized()": [
        {
          "details": "The sender is not authorized to perform the action"
        }
      ]
    },
    "events": {
      "Approval(address,address,uint256)": {
        "details": "Emitted when `owner` enables `approved` to manage the `tokenId` token."
      },
      "ApprovalForAll(address,address,bool)": {
        "details": "Emitted when `owner` enables or disables (`approved`) `operator` to manage all of its assets."
      },
      "ContractURIUpdated(string,string)": {
        "details": "Emitted when the contract URI is updated."
      },
      "DefaultRoyalty(address,uint256)": {
        "details": "Emitted when royalty info is updated."
      },
      "MetadataFrozen()": {
        "details": "This event emits when the metadata of all tokens are frozen. While not currently supported by marketplaces, this event allows future indexing if desired."
      },
      "OwnerUpdated(address,address)": {
        "details": "Emitted when a new Owner is set."
      },
      "RoyaltyForToken(uint256,address,uint256)": {
        "details": "Emitted when royalty recipient for tokenId is set"
      },
      "Transfer(address,address,uint256)": {
        "details": "Emitted when `tokenId` token is transferred from `from` to `to`."
      }
    },
    "kind": "dev",
    "methods": {
      "approve(address,uint256)": {
        "details": "See {IERC721-approve}."
      },
      "balanceOf(address)": {
        "details": "See {IERC721-balanceOf}."
      },
      "batchMintTo(address,uint256,string,bytes)": {
        "details": "The logic in the `_canMint` function determines whether the caller is authorized to mint NFTs.",
        "params": {
          "_baseURI": "The baseURI for the `n` number of NFTs minted. The metadata for each NFT is `baseURI/tokenId`",
          "_data": "Additional data to pass along during the minting of the NFT.",
          "_quantity": "The number of NFTs to mint.",
          "_to": "The recipient of the NFT to mint."
        }
      },
      "burn(uint256)": {
        "details": "ERC721A's `_burn(uint256,bool)` internally checks for token approvals.",
        "params": {
          "_tokenId": "The tokenId of the NFT to burn."
        }
      },
      "explicitOwnershipOf(uint256)": {
        "details": "Returns the `TokenOwnership` struct at `tokenId` without reverting. If the `tokenId` is out of bounds:   - `addr` = `address(0)`   - `startTimestamp` = `0`   - `burned` = `false` If the `tokenId` is burned:   - `addr` = `<Address of owner before token was burned>`   - `startTimestamp` = `<Timestamp when token was burned>`   - `burned = `true` Otherwise:   - `addr` = `<Address of owner>`   - `startTimestamp` = `<Timestamp of start of ownership>`   - `burned = `false`"
      },
      "explicitOwnershipsOf(uint256[])": {
        "details": "Returns an array of `TokenOwnership` structs at `tokenIds` in order. See {ERC721AQueryable-explicitOwnershipOf}"
      },
      "getApproved(uint256)": {
        "details": "See {IERC721-getApproved}."
      },
      "getBaseURICount()": {
        "details": "Each batch of tokens has an in ID and an associated `baseURI`.                  See {batchIds}."
      },
      "getBatchIdAtIndex(uint256)": {
        "details": "See {getBaseURICount}.",
        "params": {
          "_index": "Index of the desired batch in batchIds array."
        }
      },
      "getRoyaltyInfoForToken(uint256)": {
        "details": "Returns royalty recipient and bps for `_tokenId`.",
        "params": {
          "_tokenId": "The tokenID of the NFT for which to query royalty info."
        }
      },
      "isApprovedForAll(address,address)": {
        "details": "See {IERC721-isApprovedForAll}."
      },
      "isApprovedOrOwner(address,uint256)": {
        "params": {
          "_operator": "The address to check.",
          "_tokenId": "The tokenId of the NFT to check."
        },
        "returns": {
          "isApprovedOrOwnerOf": "Whether the given address is approved to transfer the given NFT."
        }
      },
      "mintTo(address,string)": {
        "details": "The logic in the `_canMint` function determines whether the caller is authorized to mint NFTs.",
        "params": {
          "_to": "The recipient of the NFT to mint.",
          "_tokenURI": "The full metadata URI for the NFT minted."
        }
      },
      "multicall(bytes[])": {
        "details": "Receives and executes a batch of function calls on this contract.",
        "params": {
          "data": "The bytes data that makes up the batch of function calls to execute."
        },
        "returns": {
          "results": "The bytes data that makes up the result of the batch of function calls executed."
        }
      },
      "name()": {
        "details": "See {IERC721Metadata-name}."
      },
      "ownerOf(uint256)": {
        "details": "See {IERC721-ownerOf}."
      },
      "royaltyInfo(uint256,uint256)": {
        "details": "Returns royalty amount and recipient for `tokenId` and `salePrice`.",
        "params": {
          "salePrice": "Sale price of the token.",
          "tokenId": "The tokenID of the NFT for which to query royalty info."
        },
        "returns": {
          "receiver": "       Address of royalty recipient account.",
          "royaltyAmount": "  Royalty amount calculated at current royaltyBps value."
        }
      },
      "safeTransferFrom(address,address,uint256)": {
        "details": "See {IERC721-safeTransferFrom}."
      },
      "safeTransferFrom(address,address,uint256,bytes)": {
        "details": "See {IERC721-safeTransferFrom}."
      },
      "setApprovalForAll(address,bool)": {
        "details": "See {IERC721-setApprovalForAll}."
      },
      "setContractURI(string)": {
        "details": "Caller should be authorized to setup contractURI, e.g. contract admin.                  See {_canSetContractURI}.                  Emits {ContractURIUpdated Event}.",
        "params": {
          "_uri": "keccak256 hash of the role. e.g. keccak256(\"TRANSFER_ROLE\")"
        }
      },
      "setDefaultRoyaltyInfo(address,uint256)": {
        "details": "Caller should be authorized to set royalty info.                  See {_canSetRoyaltyInfo}.                  Emits {DefaultRoyalty Event}; See {_setupDefaultRoyaltyInfo}.",
        "params": {
          "_royaltyBps": "Updated royalty bps.",
          "_royaltyRecipient": "Address to be set as default royalty recipient."
        }
      },
      "setOwner(address)": {
        "params": {
          "_newOwner": "The address to set as the new owner of the contract."
        }
      },
      "setRoyaltyInfoForToken(uint256,address,uint256)": {
        "details": "Sets royalty info for `_tokenId`. Caller should be authorized to set royalty info.                  See {_canSetRoyaltyInfo}.                  Emits {RoyaltyForToken Event}; See {_setupRoyaltyInfoForToken}.",
        "params": {
          "_bps": "Updated royalty bps for the token Id.",
          "_recipient": "Address to be set as royalty recipient for given token Id."
        }
      },
      "supportsInterface(bytes4)": {
        "details": "See ERC165: https://eips.ethereum.org/EIPS/eip-165"
      },
      "symbol()": {
        "details": "See {IERC721Metadata-symbol}."
      },
      "tokenURI(uint256)": {
        "details": "See `BatchMintMetadata` for handling of metadata in this contract.",
        "params": {
          "_tokenId": "The tokenId of an NFT."
        }
      },
      "tokensOfOwner(address)": {
        "details": "Returns an array of token IDs owned by `owner`. This function scans the ownership mapping and is O(totalSupply) in complexity. It is meant to be called off-chain. See {ERC721AQueryable-tokensOfOwnerIn} for splitting the scan into multiple smaller scans if the collection is large enough to cause an out-of-gas error (10K pfp collections should be fine)."
      },
      "tokensOfOwnerIn(address,uint256,uint256)": {
        "details": "Returns an array of token IDs owned by `owner`, in the range [`start`, `stop`) (i.e. `start <= tokenId < stop`). This function allows for tokens to be queried if the collection grows too big for a single call of {ERC721AQueryable-tokensOfOwner}. Requirements: - `start` < `stop`"
      },
      "totalSupply()": {
        "details": "Burned tokens are calculated here, use _totalMinted() if you want to count just minted tokens."
      },
      "transferFrom(address,address,uint256)": {
        "details": "See {IERC721-transferFrom}."
      }
    },
    "version": 1
  },
  "evm": {
    "assembly": "    /* \"DontKilltheJamNFTMojoClaimRedeax.sol\":112:2588  contract PleaseDontKillTheJam is ERC721Base {... */\n  mstore(0x40, 0x80)\n    /* \"DontKilltheJamNFTMojoClaimRedeax.sol\":435:769  constructor(... */\n  callvalue\n  dup1\n  iszero\n  tag_1\n  jumpi\n  0x00\n  dup1\n  revert\ntag_1:\n  pop\n  mload(0x40)\n  sub(codesize, bytecodeSize)\n  dup1\n  bytecodeSize\n  dup4\n  codecopy\n  dup2\n  add\n  0x40\n  dup2\n  swap1\n  mstore\n  tag_2\n  swap2\n  tag_3\n  jump\t// in\ntag_2:\n    /* \"DontKilltheJamNFTMojoClaimRedeax.sol\":660:673  _defaultAdmin */\n  dup6\n    /* \"DontKilltheJamNFTMojoClaimRedeax.sol\":675:680  _name */\n  dup6\n    /* \"DontKilltheJamNFTMojoClaimRedeax.sol\":682:689  _symbol */\n  dup6\n    /* \"DontKilltheJamNFTMojoClaimRedeax.sol\":691:708  _royaltyRecipient */\n  dup6\n    /* \"DontKilltheJamNFTMojoClaimRedeax.sol\":710:721  _royaltyBps */\n  dup6\n    /* \"DontKilltheJamNFTMojoClaimRedeax.sol\":675:680  _name */\n  dup4\n    /* \"DontKilltheJamNFTMojoClaimRedeax.sol\":682:689  _symbol */\n  dup4\n    /* \"@thirdweb-dev/contracts/eip/ERC721AVirtualApprove.sol\":1883:1888   */\n  0x02\n    /* \"@thirdweb-dev/contracts/eip/ERC721AVirtualApprove.sol\":1883:1896   */\n  tag_8\n    /* \"DontKilltheJamNFTMojoClaimRedeax.sol\":675:680  _name */\n  dup4\n    /* \"@thirdweb-dev/contracts/eip/ERC721AVirtualApprove.sol\":1883:1888   */\n  dup3\n    /* \"@thirdweb-dev/contracts/eip/ERC721AVirtualApprove.sol\":1883:1896   */\n  tag_9\n  jump\t// in\ntag_8:\n  pop\n    /* \"@thirdweb-dev/contracts/eip/ERC721AVirtualApprove.sol\":1906:1913   */\n  0x03\n    /* \"@thirdweb-dev/contracts/eip/ERC721AVirtualApprove.sol\":1906:1923   */\n  tag_10\n    /* \"@thirdweb-dev/contracts/eip/ERC721AVirtualApprove.sol\":1916:1923   */\n  dup3\n    /* \"@thirdweb-dev/contracts/eip/ERC721AVirtualApprove.sol\":1906:1913   */\n  dup3\n    /* \"@thirdweb-dev/contracts/eip/ERC721AVirtualApprove.sol\":1906:1923   */\n  tag_9\n  jump\t// in\ntag_10:\n  pop\n  pop\n    /* \"@thirdweb-dev/contracts/eip/ERC721AVirtualApprove.sol\":2119:2126   */\n  0x00\n    /* \"@thirdweb-dev/contracts/eip/ERC721AVirtualApprove.sol\":1933:1964   */\n  dup1\n  sstore\n  pop\n    /* \"@thirdweb-dev/contracts/base/ERC721Base.sol\":2264:2290   */\n  tag_14\n    /* \"@thirdweb-dev/contracts/base/ERC721Base.sol\":2276:2289   */\n  dup6\n    /* \"@thirdweb-dev/contracts/base/ERC721Base.sol\":2264:2275   */\n  tag_15\n    /* \"@thirdweb-dev/contracts/base/ERC721Base.sol\":2264:2290   */\n  jump\t// in\ntag_14:\n    /* \"@thirdweb-dev/contracts/base/ERC721Base.sol\":2300:2356   */\n  tag_16\n    /* \"@thirdweb-dev/contracts/base/ERC721Base.sol\":2325:2342   */\n  dup3\n  sub(shl(0x80, 0x01), 0x01)\n    /* \"@thirdweb-dev/contracts/base/ERC721Base.sol\":2300:2356   */\n  dup4\n  and\n    /* \"@thirdweb-dev/contracts/base/ERC721Base.sol\":2300:2324   */\n  tag_17\n    /* \"@thirdweb-dev/contracts/base/ERC721Base.sol\":2300:2356   */\n  jump\t// in\ntag_16:\n  pop\n  pop\n  pop\n    /* \"DontKilltheJamNFTMojoClaimRedeax.sol\":737:744  mintFee */\n  0x10\n    /* \"DontKilltheJamNFTMojoClaimRedeax.sol\":737:762  mintFee = _initialMintFee */\n  swap3\n  swap1\n  swap3\n  sstore\n  pop\n    /* \"DontKilltheJamNFTMojoClaimRedeax.sol\":112:2588  contract PleaseDontKillTheJam is ERC721Base {... */\n  tag_35\n  swap6\n  pop\n  pop\n  pop\n  pop\n  pop\n  pop\n  jump\n    /* \"@thirdweb-dev/contracts/extension/Ownable.sol\":1527:1699   */\ntag_15:\n    /* \"@thirdweb-dev/contracts/extension/Ownable.sol\":1607:1613   */\n  0x09\n  dup1\n  sload\n  sub(shl(0xa0, 0x01), 0x01)\n    /* \"@thirdweb-dev/contracts/extension/Ownable.sol\":1623:1641   */\n  dup4\n  dup2\n  and\n  not(sub(shl(0xa0, 0x01), 0x01))\n  dup4\n  and\n  dup2\n  or\n  swap1\n  swap4\n  sstore\n    /* \"@thirdweb-dev/contracts/extension/Ownable.sol\":1657:1692   */\n  mload(0x40)\n    /* \"@thirdweb-dev/contracts/extension/Ownable.sol\":1607:1613   */\n  swap2\n  and\n  swap2\n    /* \"@thirdweb-dev/contracts/extension/Ownable.sol\":1623:1641   */\n  swap1\n    /* \"@thirdweb-dev/contracts/extension/Ownable.sol\":1607:1613   */\n  dup3\n  swap1\n    /* \"@thirdweb-dev/contracts/extension/Ownable.sol\":1657:1692   */\n  0x8292fce18fa69edf4db7b94ea2e58241df0ae57f97e0a6c9b29067028bf92d76\n  swap1\n    /* \"@thirdweb-dev/contracts/extension/Ownable.sol\":1586:1604   */\n  0x00\n  swap1\n    /* \"@thirdweb-dev/contracts/extension/Ownable.sol\":1657:1692   */\n  log3\n    /* \"@thirdweb-dev/contracts/extension/Ownable.sol\":1576:1699   */\n  pop\n    /* \"@thirdweb-dev/contracts/extension/Ownable.sol\":1527:1699   */\n  pop\n  jump\t// out\n    /* \"@thirdweb-dev/contracts/extension/Royalty.sol\":3717:4078   */\ntag_17:\n    /* \"@thirdweb-dev/contracts/extension/Royalty.sol\":3836:3842   */\n  0x2710\n    /* \"@thirdweb-dev/contracts/extension/Royalty.sol\":3822:3833   */\n  dup2\n    /* \"@thirdweb-dev/contracts/extension/Royalty.sol\":3822:3842   */\n  gt\n    /* \"@thirdweb-dev/contracts/extension/Royalty.sol\":3818:3921   */\n  iszero\n  tag_23\n  jumpi\n    /* \"@thirdweb-dev/contracts/extension/Royalty.sol\":3865:3910   */\n  mload(0x40)\n  shl(0xe3, 0x0a4930ad)\n  dup2\n  mstore\n    /* \"@thirdweb-dev/contracts/extension/Royalty.sol\":3890:3896   */\n  0x2710\n    /* \"@thirdweb-dev/contracts/extension/Royalty.sol\":3865:3910   */\n  0x04\n  dup3\n  add\n    /* \"#utility.yul\":4758:4783   */\n  mstore\n    /* \"#utility.yul\":4799:4817   */\n  0x24\n  dup2\n  add\n    /* \"#utility.yul\":4792:4826   */\n  dup3\n  swap1\n  mstore\n    /* \"#utility.yul\":4731:4749   */\n  0x44\n  add\n    /* \"@thirdweb-dev/contracts/extension/Royalty.sol\":3865:3910   */\n  mload(0x40)\n  dup1\n  swap2\n  sub\n  swap1\n  revert\n    /* \"@thirdweb-dev/contracts/extension/Royalty.sol\":3818:3921   */\ntag_23:\n    /* \"@thirdweb-dev/contracts/extension/Royalty.sol\":3931:3947   */\n  0x0a\n    /* \"@thirdweb-dev/contracts/extension/Royalty.sol\":3931:3967   */\n  dup1\n  sload\n  sub(shl(0xa0, 0x01), 0x01)\n  dup5\n  and\n  not(sub(shl(0xb0, 0x01), 0x01))\n    /* \"@thirdweb-dev/contracts/extension/Royalty.sol\":3977:4009   */\n  swap1\n  swap2\n  and\n  dup2\n  or\n  shl(0xa0, 0x01)\n  0xffff\n  dup6\n  and\n  mul\n  or\n  swap1\n  swap2\n  sstore\n    /* \"@thirdweb-dev/contracts/extension/Royalty.sol\":4025:4071   */\n  mload(0x40)\n    /* \"#utility.yul\":4983:5008   */\n  dup3\n  dup2\n  mstore\n    /* \"@thirdweb-dev/contracts/extension/Royalty.sol\":4025:4071   */\n  0x90d7ec04bcb8978719414f82e52e4cb651db41d0e6f8cea6118c2191e6183adb\n  swap1\n    /* \"#utility.yul\":4971:4973   */\n  0x20\n    /* \"#utility.yul\":4956:4974   */\n  add\n    /* \"@thirdweb-dev/contracts/extension/Royalty.sol\":4025:4071   */\n  mload(0x40)\n  dup1\n  swap2\n  sub\n  swap1\n  log2\n    /* \"@thirdweb-dev/contracts/extension/Royalty.sol\":3717:4078   */\n  pop\n  pop\n  jump\t// out\n    /* \"#utility.yul\":14:191   */\ntag_28:\n    /* \"#utility.yul\":93:106   */\n  dup1\n  mload\n  sub(shl(0xa0, 0x01), 0x01)\n    /* \"#utility.yul\":135:166   */\n  dup2\n  and\n    /* \"#utility.yul\":125:167   */\n  dup2\n  eq\n    /* \"#utility.yul\":115:185   */\n  tag_37\n  jumpi\n    /* \"#utility.yul\":181:182   */\n  0x00\n    /* \"#utility.yul\":178:179   */\n  dup1\n    /* \"#utility.yul\":171:183   */\n  revert\n    /* \"#utility.yul\":115:185   */\ntag_37:\n    /* \"#utility.yul\":14:191   */\n  swap2\n  swap1\n  pop\n  jump\t// out\n    /* \"#utility.yul\":196:323   */\ntag_29:\n    /* \"#utility.yul\":257:267   */\n  0x4e487b71\n    /* \"#utility.yul\":252:255   */\n  0xe0\n    /* \"#utility.yul\":248:268   */\n  shl\n    /* \"#utility.yul\":245:246   */\n  0x00\n    /* \"#utility.yul\":238:269   */\n  mstore\n    /* \"#utility.yul\":288:292   */\n  0x41\n    /* \"#utility.yul\":285:286   */\n  0x04\n    /* \"#utility.yul\":278:293   */\n  mstore\n    /* \"#utility.yul\":312:316   */\n  0x24\n    /* \"#utility.yul\":309:310   */\n  0x00\n    /* \"#utility.yul\":302:317   */\n  revert\n    /* \"#utility.yul\":328:1044   */\ntag_30:\n    /* \"#utility.yul\":382:387   */\n  0x00\n    /* \"#utility.yul\":435:438   */\n  dup3\n    /* \"#utility.yul\":428:432   */\n  0x1f\n    /* \"#utility.yul\":420:426   */\n  dup4\n    /* \"#utility.yul\":416:433   */\n  add\n    /* \"#utility.yul\":412:439   */\n  slt\n    /* \"#utility.yul\":402:457   */\n  tag_40\n  jumpi\n    /* \"#utility.yul\":453:454   */\n  0x00\n    /* \"#utility.yul\":450:451   */\n  dup1\n    /* \"#utility.yul\":443:455   */\n  revert\n    /* \"#utility.yul\":402:457   */\ntag_40:\n    /* \"#utility.yul\":476:489   */\n  dup2\n  mload\n  sub(shl(0x40, 0x01), 0x01)\n    /* \"#utility.yul\":538:548   */\n  dup1\n  dup3\n  gt\n    /* \"#utility.yul\":535:571   */\n  iszero\n  tag_42\n  jumpi\n    /* \"#utility.yul\":551:569   */\n  tag_42\n  tag_29\n  jump\t// in\ntag_42:\n    /* \"#utility.yul\":626:628   */\n  0x40\n    /* \"#utility.yul\":620:629   */\n  mload\n    /* \"#utility.yul\":594:596   */\n  0x1f\n    /* \"#utility.yul\":680:693   */\n  dup4\n  add\n  not(0x1f)\n    /* \"#utility.yul\":676:698   */\n  swap1\n  dup2\n  and\n    /* \"#utility.yul\":700:702   */\n  0x3f\n    /* \"#utility.yul\":672:703   */\n  add\n    /* \"#utility.yul\":668:708   */\n  and\n    /* \"#utility.yul\":656:709   */\n  dup2\n  add\n  swap1\n    /* \"#utility.yul\":724:742   */\n  dup3\n  dup3\n  gt\n    /* \"#utility.yul\":744:766   */\n  dup2\n  dup4\n  lt\n    /* \"#utility.yul\":721:767   */\n  or\n    /* \"#utility.yul\":718:790   */\n  iszero\n  tag_44\n  jumpi\n    /* \"#utility.yul\":770:788   */\n  tag_44\n  tag_29\n  jump\t// in\ntag_44:\n    /* \"#utility.yul\":810:820   */\n  dup2\n    /* \"#utility.yul\":806:808   */\n  0x40\n    /* \"#utility.yul\":799:821   */\n  mstore\n    /* \"#utility.yul\":845:847   */\n  dup4\n    /* \"#utility.yul\":837:843   */\n  dup2\n    /* \"#utility.yul\":830:848   */\n  mstore\n    /* \"#utility.yul\":891:894   */\n  dup7\n    /* \"#utility.yul\":884:888   */\n  0x20\n    /* \"#utility.yul\":879:881   */\n  dup6\n    /* \"#utility.yul\":871:877   */\n  dup9\n    /* \"#utility.yul\":867:882   */\n  add\n    /* \"#utility.yul\":863:889   */\n  add\n    /* \"#utility.yul\":860:895   */\n  gt\n    /* \"#utility.yul\":857:912   */\n  iszero\n  tag_45\n  jumpi\n    /* \"#utility.yul\":908:909   */\n  0x00\n    /* \"#utility.yul\":905:906   */\n  dup1\n    /* \"#utility.yul\":898:910   */\n  revert\n    /* \"#utility.yul\":857:912   */\ntag_45:\n    /* \"#utility.yul\":965:967   */\n  dup4\n    /* \"#utility.yul\":958:962   */\n  0x20\n    /* \"#utility.yul\":950:956   */\n  dup8\n    /* \"#utility.yul\":946:963   */\n  add\n    /* \"#utility.yul\":939:943   */\n  0x20\n    /* \"#utility.yul\":931:937   */\n  dup4\n    /* \"#utility.yul\":927:944   */\n  add\n    /* \"#utility.yul\":921:968   */\n  mcopy\n    /* \"#utility.yul\":1012:1013   */\n  0x00\n    /* \"#utility.yul\":1005:1009   */\n  0x20\n    /* \"#utility.yul\":1000:1002   */\n  dup6\n    /* \"#utility.yul\":992:998   */\n  dup4\n    /* \"#utility.yul\":988:1003   */\n  add\n    /* \"#utility.yul\":984:1010   */\n  add\n    /* \"#utility.yul\":977:1014   */\n  mstore\n    /* \"#utility.yul\":1032:1038   */\n  dup1\n    /* \"#utility.yul\":1023:1038   */\n  swap5\n  pop\n  pop\n  pop\n  pop\n  pop\n    /* \"#utility.yul\":328:1044   */\n  swap3\n  swap2\n  pop\n  pop\n  jump\t// out\n    /* \"#utility.yul\":1049:2012   */\ntag_3:\n    /* \"#utility.yul\":1184:1190   */\n  0x00\n    /* \"#utility.yul\":1192:1198   */\n  dup1\n    /* \"#utility.yul\":1200:1206   */\n  0x00\n    /* \"#utility.yul\":1208:1214   */\n  dup1\n    /* \"#utility.yul\":1216:1222   */\n  0x00\n    /* \"#utility.yul\":1224:1230   */\n  dup1\n    /* \"#utility.yul\":1277:1280   */\n  0xc0\n    /* \"#utility.yul\":1265:1274   */\n  dup8\n    /* \"#utility.yul\":1256:1263   */\n  dup10\n    /* \"#utility.yul\":1252:1275   */\n  sub\n    /* \"#utility.yul\":1248:1281   */\n  slt\n    /* \"#utility.yul\":1245:1298   */\n  iszero\n  tag_47\n  jumpi\n    /* \"#utility.yul\":1294:1295   */\n  0x00\n    /* \"#utility.yul\":1291:1292   */\n  dup1\n    /* \"#utility.yul\":1284:1296   */\n  revert\n    /* \"#utility.yul\":1245:1298   */\ntag_47:\n    /* \"#utility.yul\":1317:1357   */\n  tag_48\n    /* \"#utility.yul\":1347:1356   */\n  dup8\n    /* \"#utility.yul\":1317:1357   */\n  tag_28\n  jump\t// in\ntag_48:\n    /* \"#utility.yul\":1401:1403   */\n  0x20\n    /* \"#utility.yul\":1386:1404   */\n  dup9\n  add\n    /* \"#utility.yul\":1380:1405   */\n  mload\n    /* \"#utility.yul\":1307:1357   */\n  swap1\n  swap7\n  pop\n  sub(shl(0x40, 0x01), 0x01)\n    /* \"#utility.yul\":1454:1468   */\n  dup1\n  dup3\n  gt\n    /* \"#utility.yul\":1451:1485   */\n  iszero\n  tag_49\n  jumpi\n    /* \"#utility.yul\":1481:1482   */\n  0x00\n    /* \"#utility.yul\":1478:1479   */\n  dup1\n    /* \"#utility.yul\":1471:1483   */\n  revert\n    /* \"#utility.yul\":1451:1485   */\ntag_49:\n    /* \"#utility.yul\":1504:1565   */\n  tag_50\n    /* \"#utility.yul\":1557:1564   */\n  dup11\n    /* \"#utility.yul\":1548:1554   */\n  dup4\n    /* \"#utility.yul\":1537:1546   */\n  dup12\n    /* \"#utility.yul\":1533:1555   */\n  add\n    /* \"#utility.yul\":1504:1565   */\n  tag_30\n  jump\t// in\ntag_50:\n    /* \"#utility.yul\":1494:1565   */\n  swap7\n  pop\n    /* \"#utility.yul\":1611:1613   */\n  0x40\n    /* \"#utility.yul\":1600:1609   */\n  dup10\n    /* \"#utility.yul\":1596:1614   */\n  add\n    /* \"#utility.yul\":1590:1615   */\n  mload\n    /* \"#utility.yul\":1574:1615   */\n  swap2\n  pop\n    /* \"#utility.yul\":1640:1642   */\n  dup1\n    /* \"#utility.yul\":1630:1638   */\n  dup3\n    /* \"#utility.yul\":1627:1643   */\n  gt\n    /* \"#utility.yul\":1624:1660   */\n  iszero\n  tag_51\n  jumpi\n    /* \"#utility.yul\":1656:1657   */\n  0x00\n    /* \"#utility.yul\":1653:1654   */\n  dup1\n    /* \"#utility.yul\":1646:1658   */\n  revert\n    /* \"#utility.yul\":1624:1660   */\ntag_51:\n  pop\n    /* \"#utility.yul\":1679:1742   */\n  tag_52\n    /* \"#utility.yul\":1734:1741   */\n  dup10\n    /* \"#utility.yul\":1723:1731   */\n  dup3\n    /* \"#utility.yul\":1712:1721   */\n  dup11\n    /* \"#utility.yul\":1708:1732   */\n  add\n    /* \"#utility.yul\":1679:1742   */\n  tag_30\n  jump\t// in\ntag_52:\n    /* \"#utility.yul\":1669:1742   */\n  swap5\n  pop\n  pop\n    /* \"#utility.yul\":1761:1810   */\n  tag_53\n    /* \"#utility.yul\":1806:1808   */\n  0x60\n    /* \"#utility.yul\":1795:1804   */\n  dup9\n    /* \"#utility.yul\":1791:1809   */\n  add\n    /* \"#utility.yul\":1761:1810   */\n  tag_28\n  jump\t// in\ntag_53:\n    /* \"#utility.yul\":1853:1856   */\n  0x80\n    /* \"#utility.yul\":1838:1857   */\n  dup9\n  add\n    /* \"#utility.yul\":1832:1858   */\n  mload\n    /* \"#utility.yul\":1751:1810   */\n  swap1\n  swap4\n  pop\n  sub(shl(0x80, 0x01), 0x01)\n    /* \"#utility.yul\":1887:1918   */\n  dup2\n  and\n    /* \"#utility.yul\":1877:1919   */\n  dup2\n  eq\n    /* \"#utility.yul\":1867:1937   */\n  tag_54\n  jumpi\n    /* \"#utility.yul\":1933:1934   */\n  0x00\n    /* \"#utility.yul\":1930:1931   */\n  dup1\n    /* \"#utility.yul\":1923:1935   */\n  revert\n    /* \"#utility.yul\":1867:1937   */\ntag_54:\n    /* \"#utility.yul\":1956:1961   */\n  dup1\n    /* \"#utility.yul\":1946:1961   */\n  swap3\n  pop\n  pop\n    /* \"#utility.yul\":2001:2004   */\n  0xa0\n    /* \"#utility.yul\":1990:1999   */\n  dup8\n    /* \"#utility.yul\":1986:2005   */\n  add\n    /* \"#utility.yul\":1980:2006   */\n  mload\n    /* \"#utility.yul\":1970:2006   */\n  swap1\n  pop\n    /* \"#utility.yul\":1049:2012   */\n  swap3\n  swap6\n  pop\n  swap3\n  swap6\n  pop\n  swap3\n  swap6\n  jump\t// out\n    /* \"#utility.yul\":2017:2397   */\ntag_31:\n    /* \"#utility.yul\":2096:2097   */\n  0x01\n    /* \"#utility.yul\":2092:2104   */\n  dup2\n  dup2\n  shr\n  swap1\n    /* \"#utility.yul\":2139:2151   */\n  dup3\n  and\n  dup1\n    /* \"#utility.yul\":2160:2221   */\n  tag_56\n  jumpi\n    /* \"#utility.yul\":2214:2218   */\n  0x7f\n    /* \"#utility.yul\":2206:2212   */\n  dup3\n    /* \"#utility.yul\":2202:2219   */\n  and\n    /* \"#utility.yul\":2192:2219   */\n  swap2\n  pop\n    /* \"#utility.yul\":2160:2221   */\ntag_56:\n    /* \"#utility.yul\":2267:2269   */\n  0x20\n    /* \"#utility.yul\":2259:2265   */\n  dup3\n    /* \"#utility.yul\":2256:2270   */\n  lt\n    /* \"#utility.yul\":2236:2254   */\n  dup2\n    /* \"#utility.yul\":2233:2271   */\n  sub\n    /* \"#utility.yul\":2230:2391   */\n  tag_57\n  jumpi\n    /* \"#utility.yul\":2313:2323   */\n  0x4e487b71\n    /* \"#utility.yul\":2308:2311   */\n  0xe0\n    /* \"#utility.yul\":2304:2324   */\n  shl\n    /* \"#utility.yul\":2301:2302   */\n  0x00\n    /* \"#utility.yul\":2294:2325   */\n  mstore\n    /* \"#utility.yul\":2348:2352   */\n  0x22\n    /* \"#utility.yul\":2345:2346   */\n  0x04\n    /* \"#utility.yul\":2338:2353   */\n  mstore\n    /* \"#utility.yul\":2376:2380   */\n  0x24\n    /* \"#utility.yul\":2373:2374   */\n  0x00\n    /* \"#utility.yul\":2366:2381   */\n  revert\n    /* \"#utility.yul\":2230:2391   */\ntag_57:\n  pop\n    /* \"#utility.yul\":2017:2397   */\n  swap2\n  swap1\n  pop\n  jump\t// out\n    /* \"#utility.yul\":2528:3046   */\ntag_33:\n    /* \"#utility.yul\":2630:2632   */\n  0x1f\n    /* \"#utility.yul\":2625:2628   */\n  dup3\n    /* \"#utility.yul\":2622:2633   */\n  gt\n    /* \"#utility.yul\":2619:3040   */\n  iszero\n  tag_60\n  jumpi\n    /* \"#utility.yul\":2666:2671   */\n  dup1\n    /* \"#utility.yul\":2663:2664   */\n  0x00\n    /* \"#utility.yul\":2656:2672   */\n  mstore\n    /* \"#utility.yul\":2710:2714   */\n  0x20\n    /* \"#utility.yul\":2707:2708   */\n  0x00\n    /* \"#utility.yul\":2697:2715   */\n  keccak256\n    /* \"#utility.yul\":2780:2782   */\n  0x1f\n    /* \"#utility.yul\":2768:2778   */\n  dup5\n    /* \"#utility.yul\":2764:2783   */\n  add\n    /* \"#utility.yul\":2761:2762   */\n  0x05\n    /* \"#utility.yul\":2757:2784   */\n  shr\n    /* \"#utility.yul\":2751:2755   */\n  dup2\n    /* \"#utility.yul\":2747:2785   */\n  add\n    /* \"#utility.yul\":2816:2820   */\n  0x20\n    /* \"#utility.yul\":2804:2814   */\n  dup6\n    /* \"#utility.yul\":2801:2821   */\n  lt\n    /* \"#utility.yul\":2798:2845   */\n  iszero\n  tag_61\n  jumpi\n  pop\n    /* \"#utility.yul\":2839:2843   */\n  dup1\n    /* \"#utility.yul\":2798:2845   */\ntag_61:\n    /* \"#utility.yul\":2894:2896   */\n  0x1f\n    /* \"#utility.yul\":2889:2892   */\n  dup5\n    /* \"#utility.yul\":2885:2897   */\n  add\n    /* \"#utility.yul\":2882:2883   */\n  0x05\n    /* \"#utility.yul\":2878:2898   */\n  shr\n    /* \"#utility.yul\":2872:2876   */\n  dup3\n    /* \"#utility.yul\":2868:2899   */\n  add\n    /* \"#utility.yul\":2858:2899   */\n  swap2\n  pop\n    /* \"#utility.yul\":2949:3030   */\ntag_62:\n    /* \"#utility.yul\":2967:2969   */\n  dup2\n    /* \"#utility.yul\":2960:2965   */\n  dup2\n    /* \"#utility.yul\":2957:2970   */\n  lt\n    /* \"#utility.yul\":2949:3030   */\n  iszero\n  tag_64\n  jumpi\n    /* \"#utility.yul\":3026:3027   */\n  0x00\n    /* \"#utility.yul\":3012:3028   */\n  dup2\n  sstore\n    /* \"#utility.yul\":2993:2994   */\n  0x01\n    /* \"#utility.yul\":2982:2995   */\n  add\n    /* \"#utility.yul\":2949:3030   */\n  jump(tag_62)\ntag_64:\n    /* \"#utility.yul\":2953:2956   */\n  pop\n  pop\n    /* \"#utility.yul\":2619:3040   */\ntag_60:\n    /* \"#utility.yul\":2528:3046   */\n  pop\n  pop\n  pop\n  jump\t// out\n    /* \"#utility.yul\":3222:4567   */\ntag_9:\n    /* \"#utility.yul\":3342:3352   */\n  dup2\n  mload\n  sub(shl(0x40, 0x01), 0x01)\n    /* \"#utility.yul\":3364:3394   */\n  dup2\n  gt\n    /* \"#utility.yul\":3361:3417   */\n  iszero\n  tag_68\n  jumpi\n    /* \"#utility.yul\":3397:3415   */\n  tag_68\n  tag_29\n  jump\t// in\ntag_68:\n    /* \"#utility.yul\":3426:3523   */\n  tag_69\n    /* \"#utility.yul\":3516:3522   */\n  dup2\n    /* \"#utility.yul\":3476:3514   */\n  tag_70\n    /* \"#utility.yul\":3508:3512   */\n  dup5\n    /* \"#utility.yul\":3502:3513   */\n  sload\n    /* \"#utility.yul\":3476:3514   */\n  tag_31\n  jump\t// in\ntag_70:\n    /* \"#utility.yul\":3470:3474   */\n  dup5\n    /* \"#utility.yul\":3426:3523   */\n  tag_33\n  jump\t// in\ntag_69:\n    /* \"#utility.yul\":3578:3582   */\n  0x20\n  dup1\n    /* \"#utility.yul\":3635:3637   */\n  0x1f\n    /* \"#utility.yul\":3624:3638   */\n  dup4\n  gt\n    /* \"#utility.yul\":3652:3653   */\n  0x01\n    /* \"#utility.yul\":3647:4310   */\n  dup2\n  eq\n  tag_72\n  jumpi\n    /* \"#utility.yul\":4354:4355   */\n  0x00\n    /* \"#utility.yul\":4371:4377   */\n  dup5\n    /* \"#utility.yul\":4368:4457   */\n  iszero\n  tag_73\n  jumpi\n  pop\n    /* \"#utility.yul\":4423:4442   */\n  dup6\n  dup4\n  add\n    /* \"#utility.yul\":4417:4443   */\n  mload\n    /* \"#utility.yul\":4368:4457   */\ntag_73:\n  not(0x00)\n    /* \"#utility.yul\":3179:3180   */\n  0x03\n    /* \"#utility.yul\":3175:3186   */\n  dup7\n  swap1\n  shl\n    /* \"#utility.yul\":3171:3195   */\n  shr\n    /* \"#utility.yul\":3167:3196   */\n  not\n    /* \"#utility.yul\":3157:3197   */\n  and\n    /* \"#utility.yul\":3203:3204   */\n  0x01\n    /* \"#utility.yul\":3199:3210   */\n  dup6\n  swap1\n  shl\n    /* \"#utility.yul\":3154:3211   */\n  or\n    /* \"#utility.yul\":4470:4551   */\n  dup6\n  sstore\n    /* \"#utility.yul\":3617:4561   */\n  jump(tag_71)\n    /* \"#utility.yul\":3647:4310   */\ntag_72:\n    /* \"#utility.yul\":2475:2476   */\n  0x00\n    /* \"#utility.yul\":2468:2482   */\n  dup6\n  dup2\n  mstore\n    /* \"#utility.yul\":2512:2516   */\n  0x20\n    /* \"#utility.yul\":2499:2517   */\n  dup2\n  keccak256\n  not(0x1f)\n    /* \"#utility.yul\":3683:3703   */\n  dup7\n  and\n  swap2\n    /* \"#utility.yul\":3801:4037   */\ntag_76:\n    /* \"#utility.yul\":3815:3822   */\n  dup3\n    /* \"#utility.yul\":3812:3813   */\n  dup2\n    /* \"#utility.yul\":3809:3823   */\n  lt\n    /* \"#utility.yul\":3801:4037   */\n  iszero\n  tag_78\n  jumpi\n    /* \"#utility.yul\":3904:3923   */\n  dup9\n  dup7\n  add\n    /* \"#utility.yul\":3898:3924   */\n  mload\n    /* \"#utility.yul\":3883:3925   */\n  dup3\n  sstore\n    /* \"#utility.yul\":3996:4023   */\n  swap5\n  dup5\n  add\n  swap5\n    /* \"#utility.yul\":3964:3965   */\n  0x01\n    /* \"#utility.yul\":3952:3966   */\n  swap1\n  swap2\n  add\n  swap1\n    /* \"#utility.yul\":3831:3850   */\n  dup5\n  add\n    /* \"#utility.yul\":3801:4037   */\n  jump(tag_76)\ntag_78:\n    /* \"#utility.yul\":3805:3808   */\n  pop\n    /* \"#utility.yul\":4065:4071   */\n  dup6\n    /* \"#utility.yul\":4056:4063   */\n  dup3\n    /* \"#utility.yul\":4053:4072   */\n  lt\n    /* \"#utility.yul\":4050:4251   */\n  iszero\n  tag_79\n  jumpi\n    /* \"#utility.yul\":4126:4145   */\n  dup8\n  dup6\n  add\n    /* \"#utility.yul\":4120:4146   */\n  mload\n  not(0x00)\n    /* \"#utility.yul\":4209:4210   */\n  0x03\n    /* \"#utility.yul\":4205:4219   */\n  dup9\n  swap1\n  shl\n    /* \"#utility.yul\":4221:4224   */\n  0xf8\n    /* \"#utility.yul\":4201:4225   */\n  and\n    /* \"#utility.yul\":4197:4234   */\n  shr\n    /* \"#utility.yul\":4193:4235   */\n  not\n    /* \"#utility.yul\":4178:4236   */\n  and\n    /* \"#utility.yul\":4163:4237   */\n  dup2\n  sstore\n    /* \"#utility.yul\":4050:4251   */\ntag_79:\n  pop\n  pop\n    /* \"#utility.yul\":4297:4298   */\n  0x01\n    /* \"#utility.yul\":4288:4294   */\n  dup5\n    /* \"#utility.yul\":4285:4286   */\n  0x01\n    /* \"#utility.yul\":4281:4295   */\n  shl\n    /* \"#utility.yul\":4277:4299   */\n  add\n    /* \"#utility.yul\":4271:4275   */\n  dup6\n    /* \"#utility.yul\":4264:4300   */\n  sstore\n    /* \"#utility.yul\":3617:4561   */\ntag_71:\n  pop\n  pop\n  pop\n  pop\n    /* \"#utility.yul\":3222:4567   */\n  pop\n  pop\n  jump\t// out\n    /* \"#utility.yul\":4837:5014   */\ntag_35:\n    /* \"DontKilltheJamNFTMojoClaimRedeax.sol\":112:2588  contract PleaseDontKillTheJam is ERC721Base {... */\n  dataSize(sub_0)\n  dup1\n  dataOffset(sub_0)\n  0x00\n  codecopy\n  0x00\n  return\nstop\n\nsub_0: assembly {\n        /* \"DontKilltheJamNFTMojoClaimRedeax.sol\":112:2588  contract PleaseDontKillTheJam is ERC721Base {... */\n      mstore(0x40, 0x80)\n      jumpi(tag_1, lt(calldatasize, 0x04))\n      shr(0xe0, calldataload(0x00))\n      dup1\n      0x5bbb2177\n      gt\n      tag_46\n      jumpi\n      dup1\n      0x99a2557a\n      gt\n      tag_47\n      jumpi\n      dup1\n      0xb88d4fde\n      gt\n      tag_48\n      jumpi\n      dup1\n      0xe8a3d485\n      gt\n      tag_49\n      jumpi\n      dup1\n      0xe8a3d485\n      eq\n      tag_43\n      jumpi\n      dup1\n      0xe985e9c5\n      eq\n      tag_44\n      jumpi\n      dup1\n      0xeddd0d9c\n      eq\n      tag_45\n      jumpi\n      0x00\n      dup1\n      revert\n    tag_49:\n      dup1\n      0xb88d4fde\n      eq\n      tag_40\n      jumpi\n      dup1\n      0xc23dc68f\n      eq\n      tag_41\n      jumpi\n      dup1\n      0xc87b56dd\n      eq\n      tag_42\n      jumpi\n      0x00\n      dup1\n      revert\n    tag_48:\n      dup1\n      0xa22cb465\n      gt\n      tag_50\n      jumpi\n      dup1\n      0xa22cb465\n      eq\n      tag_37\n      jumpi\n      dup1\n      0xac9650d8\n      eq\n      tag_38\n      jumpi\n      dup1\n      0xb24f2d39\n      eq\n      tag_39\n      jumpi\n      0x00\n      dup1\n      revert\n    tag_50:\n      dup1\n      0x99a2557a\n      eq\n      tag_35\n      jumpi\n      dup1\n      0x9bcf7a15\n      eq\n      tag_36\n      jumpi\n      0x00\n      dup1\n      revert\n    tag_47:\n      dup1\n      0x754a81d9\n      gt\n      tag_51\n      jumpi\n      dup1\n      0x8da5cb5b\n      gt\n      tag_52\n      jumpi\n      dup1\n      0x8da5cb5b\n      eq\n      tag_32\n      jumpi\n      dup1\n      0x938e3d7b\n      eq\n      tag_33\n      jumpi\n      dup1\n      0x95d89b41\n      eq\n      tag_34\n      jumpi\n      0x00\n      dup1\n      revert\n    tag_52:\n      dup1\n      0x754a81d9\n      eq\n      tag_29\n      jumpi\n      dup1\n      0x83040532\n      eq\n      tag_30\n      jumpi\n      dup1\n      0x8462151c\n      eq\n      tag_31\n      jumpi\n      0x00\n      dup1\n      revert\n    tag_51:\n      dup1\n      0x6352211e\n      gt\n      tag_53\n      jumpi\n      dup1\n      0x6352211e\n      eq\n      tag_26\n      jumpi\n      dup1\n      0x63b45e2d\n      eq\n      tag_27\n      jumpi\n      dup1\n      0x70a08231\n      eq\n      tag_28\n      jumpi\n      0x00\n      dup1\n      revert\n    tag_53:\n      dup1\n      0x5bbb2177\n      eq\n      tag_24\n      jumpi\n      dup1\n      0x600dd5ea\n      eq\n      tag_25\n      jumpi\n      0x00\n      dup1\n      revert\n    tag_46:\n      dup1\n      0x23b872dd\n      gt\n      tag_54\n      jumpi\n      dup1\n      0x3ccfd60b\n      gt\n      tag_55\n      jumpi\n      dup1\n      0x42966c68\n      gt\n      tag_56\n      jumpi\n      dup1\n      0x42966c68\n      eq\n      tag_21\n      jumpi\n      dup1\n      0x430c2081\n      eq\n      tag_22\n      jumpi\n      dup1\n      0x4cc157df\n      eq\n      tag_23\n      jumpi\n      0x00\n      dup1\n      revert\n    tag_56:\n      dup1\n      0x3ccfd60b\n      eq\n      tag_18\n      jumpi\n      dup1\n      0x3dd90430\n      eq\n      tag_19\n      jumpi\n      dup1\n      0x42842e0e\n      eq\n      tag_20\n      jumpi\n      0x00\n      dup1\n      revert\n    tag_55:\n      dup1\n      0x2a55205a\n      gt\n      tag_57\n      jumpi\n      dup1\n      0x2a55205a\n      eq\n      tag_15\n      jumpi\n      dup1\n      0x32cb6b0c\n      eq\n      tag_16\n      jumpi\n      dup1\n      0x3b1475a7\n      eq\n      tag_17\n      jumpi\n      0x00\n      dup1\n      revert\n    tag_57:\n      dup1\n      0x23b872dd\n      eq\n      tag_13\n      jumpi\n      dup1\n      0x2419f51b\n      eq\n      tag_14\n      jumpi\n      0x00\n      dup1\n      revert\n    tag_54:\n      dup1\n      0x095ea7b3\n      gt\n      tag_58\n      jumpi\n      dup1\n      0x13f06469\n      gt\n      tag_59\n      jumpi\n      dup1\n      0x13f06469\n      eq\n      tag_10\n      jumpi\n      dup1\n      0x16551300\n      eq\n      tag_11\n      jumpi\n      dup1\n      0x18160ddd\n      eq\n      tag_12\n      jumpi\n      0x00\n      dup1\n      revert\n    tag_59:\n      dup1\n      0x095ea7b3\n      eq\n      tag_7\n      jumpi\n      dup1\n      0x13966db5\n      eq\n      tag_8\n      jumpi\n      dup1\n      0x13af4035\n      eq\n      tag_9\n      jumpi\n      0x00\n      dup1\n      revert\n    tag_58:\n      dup1\n      0x01ffc9a7\n      gt\n      tag_60\n      jumpi\n      dup1\n      0x01ffc9a7\n      eq\n      tag_4\n      jumpi\n      dup1\n      0x06fdde03\n      eq\n      tag_5\n      jumpi\n      dup1\n      0x081812fc\n      eq\n      tag_6\n      jumpi\n      0x00\n      dup1\n      revert\n    tag_60:\n      dup1\n      0x75a317\n      eq\n      tag_2\n      jumpi\n      dup1\n      0x01b0a13e\n      eq\n      tag_3\n      jumpi\n    tag_1:\n      0x00\n      dup1\n      revert\n        /* \"@thirdweb-dev/contracts/base/ERC721Base.sol\":4454:4671   */\n    tag_2:\n      callvalue\n      dup1\n      iszero\n      tag_61\n      jumpi\n      0x00\n      dup1\n      revert\n    tag_61:\n      pop\n      tag_62\n      tag_63\n      calldatasize\n      0x04\n      tag_64\n      jump\t// in\n    tag_63:\n      tag_65\n      jump\t// in\n    tag_62:\n      stop\n        /* \"DontKilltheJamNFTMojoClaimRedeax.sol\":290:334  mapping(uint256 => string)  public narrative */\n    tag_3:\n      callvalue\n      dup1\n      iszero\n      tag_66\n      jumpi\n      0x00\n      dup1\n      revert\n    tag_66:\n      pop\n      tag_67\n      tag_68\n      calldatasize\n      0x04\n      tag_69\n      jump\t// in\n    tag_68:\n      tag_70\n      jump\t// in\n    tag_67:\n      mload(0x40)\n      tag_71\n      swap2\n      swap1\n      tag_72\n      jump\t// in\n    tag_71:\n      mload(0x40)\n      dup1\n      swap2\n      sub\n      swap1\n      return\n        /* \"@thirdweb-dev/contracts/base/ERC721Base.sol\":2655:3099   */\n    tag_4:\n      callvalue\n      dup1\n      iszero\n      tag_73\n      jumpi\n      0x00\n      dup1\n      revert\n    tag_73:\n      pop\n      tag_74\n      tag_75\n      calldatasize\n      0x04\n      tag_76\n      jump\t// in\n    tag_75:\n      tag_77\n      jump\t// in\n    tag_74:\n      mload(0x40)\n        /* \"#utility.yul\":2841:2855   */\n      swap1\n      iszero\n        /* \"#utility.yul\":2834:2856   */\n      iszero\n        /* \"#utility.yul\":2816:2857   */\n      dup2\n      mstore\n        /* \"#utility.yul\":2804:2806   */\n      0x20\n        /* \"#utility.yul\":2789:2807   */\n      add\n        /* \"@thirdweb-dev/contracts/base/ERC721Base.sol\":2655:3099   */\n      tag_71\n        /* \"#utility.yul\":2676:2863   */\n      jump\n        /* \"@thirdweb-dev/contracts/eip/ERC721AVirtualApprove.sol\":6129:6227   */\n    tag_5:\n      callvalue\n      dup1\n      iszero\n      tag_80\n      jumpi\n      0x00\n      dup1\n      revert\n    tag_80:\n      pop\n      tag_67\n      tag_82\n      jump\t// in\n        /* \"@thirdweb-dev/contracts/eip/ERC721AVirtualApprove.sol\":7615:7815   */\n    tag_6:\n      callvalue\n      dup1\n      iszero\n      tag_84\n      jumpi\n      0x00\n      dup1\n      revert\n    tag_84:\n      pop\n      tag_85\n      tag_86\n      calldatasize\n      0x04\n      tag_69\n      jump\t// in\n    tag_86:\n      tag_87\n      jump\t// in\n    tag_85:\n      mload(0x40)\n      sub(shl(0xa0, 0x01), 0x01)\n        /* \"#utility.yul\":3032:3087   */\n      swap1\n      swap2\n      and\n        /* \"#utility.yul\":3014:3088   */\n      dup2\n      mstore\n        /* \"#utility.yul\":3002:3004   */\n      0x20\n        /* \"#utility.yul\":2987:3005   */\n      add\n        /* \"@thirdweb-dev/contracts/eip/ERC721AVirtualApprove.sol\":7615:7815   */\n      tag_71\n        /* \"#utility.yul\":2868:3094   */\n      jump\n        /* \"@thirdweb-dev/contracts/eip/ERC721AVirtualApprove.sol\":7162:7554   */\n    tag_7:\n      callvalue\n      dup1\n      iszero\n      tag_90\n      jumpi\n      0x00\n      dup1\n      revert\n    tag_90:\n      pop\n      tag_62\n      tag_92\n      calldatasize\n      0x04\n      tag_93\n      jump\t// in\n    tag_92:\n      tag_94\n      jump\t// in\n        /* \"DontKilltheJamNFTMojoClaimRedeax.sol\":211:233  uint256 public mintFee */\n    tag_8:\n      callvalue\n      dup1\n      iszero\n      tag_95\n      jumpi\n      0x00\n      dup1\n      revert\n    tag_95:\n      pop\n      tag_96\n      sload(0x10)\n      dup2\n      jump\n    tag_96:\n      mload(0x40)\n        /* \"#utility.yul\":3504:3529   */\n      swap1\n      dup2\n      mstore\n        /* \"#utility.yul\":3492:3494   */\n      0x20\n        /* \"#utility.yul\":3477:3495   */\n      add\n        /* \"DontKilltheJamNFTMojoClaimRedeax.sol\":211:233  uint256 public mintFee */\n      tag_71\n        /* \"#utility.yul\":3358:3535   */\n      jump\n        /* \"@thirdweb-dev/contracts/extension/Ownable.sol\":1235:1412   */\n    tag_9:\n      callvalue\n      dup1\n      iszero\n      tag_100\n      jumpi\n      0x00\n      dup1\n      revert\n    tag_100:\n      pop\n      tag_62\n      tag_102\n      calldatasize\n      0x04\n      tag_103\n      jump\t// in\n    tag_102:\n      tag_104\n      jump\t// in\n        /* \"DontKilltheJamNFTMojoClaimRedeax.sol\":1412:2242  function mintBatch(... */\n    tag_10:\n      tag_62\n      tag_106\n      calldatasize\n      0x04\n      tag_107\n      jump\t// in\n    tag_106:\n      tag_108\n      jump\t// in\n        /* \"DontKilltheJamNFTMojoClaimRedeax.sol\":240:284  mapping(uint256 => uint256) public mojoScore */\n    tag_11:\n      callvalue\n      dup1\n      iszero\n      tag_109\n      jumpi\n      0x00\n      dup1\n      revert\n    tag_109:\n      pop\n      tag_96\n      tag_111\n      calldatasize\n      0x04\n      tag_69\n      jump\t// in\n    tag_111:\n      mstore(0x20, 0x11)\n      0x00\n      swap1\n      dup2\n      mstore\n      0x40\n      swap1\n      keccak256\n      sload\n      dup2\n      jump\n        /* \"@thirdweb-dev/contracts/eip/ERC721AVirtualApprove.sol\":2282:2588   */\n    tag_12:\n      callvalue\n      dup1\n      iszero\n      tag_114\n      jumpi\n      0x00\n      dup1\n      revert\n    tag_114:\n      pop\n        /* \"@thirdweb-dev/contracts/eip/ERC721AVirtualApprove.sol\":2541:2553   */\n      sload(0x01)\n        /* \"@thirdweb-dev/contracts/eip/ERC721AVirtualApprove.sol\":2335:2342   */\n      0x00\n        /* \"@thirdweb-dev/contracts/eip/ERC721AVirtualApprove.sol\":2525:2538   */\n      sload\n        /* \"@thirdweb-dev/contracts/eip/ERC721AVirtualApprove.sol\":2525:2553   */\n      sub\n        /* \"@thirdweb-dev/contracts/eip/ERC721AVirtualApprove.sol\":2282:2588   */\n      jump(tag_96)\n        /* \"@thirdweb-dev/contracts/eip/ERC721AVirtualApprove.sol\":8454:8588   */\n    tag_13:\n      callvalue\n      dup1\n      iszero\n      tag_118\n      jumpi\n      0x00\n      dup1\n      revert\n    tag_118:\n      pop\n      tag_62\n      tag_120\n      calldatasize\n      0x04\n      tag_121\n      jump\t// in\n    tag_120:\n      tag_122\n      jump\t// in\n        /* \"@thirdweb-dev/contracts/extension/BatchMintMetadata.sol\":2279:2497   */\n    tag_14:\n      callvalue\n      dup1\n      iszero\n      tag_123\n      jumpi\n      0x00\n      dup1\n      revert\n    tag_123:\n      pop\n      tag_96\n      tag_125\n      calldatasize\n      0x04\n      tag_69\n      jump\t// in\n    tag_125:\n      tag_126\n      jump\t// in\n        /* \"@thirdweb-dev/contracts/extension/Royalty.sol\":1726:2051   */\n    tag_15:\n      callvalue\n      dup1\n      iszero\n      tag_128\n      jumpi\n      0x00\n      dup1\n      revert\n    tag_128:\n      pop\n      tag_129\n      tag_130\n      calldatasize\n      0x04\n      tag_131\n      jump\t// in\n    tag_130:\n      tag_132\n      jump\t// in\n    tag_129:\n      0x40\n      dup1\n      mload\n      sub(shl(0xa0, 0x01), 0x01)\n        /* \"#utility.yul\":6105:6160   */\n      swap1\n      swap4\n      and\n        /* \"#utility.yul\":6087:6161   */\n      dup4\n      mstore\n        /* \"#utility.yul\":6192:6194   */\n      0x20\n        /* \"#utility.yul\":6177:6195   */\n      dup4\n      add\n        /* \"#utility.yul\":6170:6204   */\n      swap2\n      swap1\n      swap2\n      mstore\n        /* \"#utility.yul\":6060:6078   */\n      add\n        /* \"@thirdweb-dev/contracts/extension/Royalty.sol\":1726:2051   */\n      tag_71\n        /* \"#utility.yul\":5913:6210   */\n      jump\n        /* \"DontKilltheJamNFTMojoClaimRedeax.sol\":162:205  uint256 public constant MAX_SUPPLY = 10_000 */\n    tag_16:\n      callvalue\n      dup1\n      iszero\n      tag_135\n      jumpi\n      0x00\n      dup1\n      revert\n    tag_135:\n      pop\n      tag_96\n        /* \"DontKilltheJamNFTMojoClaimRedeax.sol\":199:205  10_000 */\n      0x2710\n        /* \"DontKilltheJamNFTMojoClaimRedeax.sol\":162:205  uint256 public constant MAX_SUPPLY = 10_000 */\n      dup2\n      jump\n        /* \"@thirdweb-dev/contracts/base/ERC721Base.sol\":6135:6239   */\n    tag_17:\n      callvalue\n      dup1\n      iszero\n      tag_139\n      jumpi\n      0x00\n      dup1\n      revert\n    tag_139:\n      pop\n        /* \"@thirdweb-dev/contracts/base/ERC721Base.sol\":6193:6200   */\n      0x00\n        /* \"@thirdweb-dev/contracts/base/ERC721Base.sol\":6219:6232   */\n      sload\n        /* \"@thirdweb-dev/contracts/base/ERC721Base.sol\":6135:6239   */\n      jump(tag_96)\n        /* \"DontKilltheJamNFTMojoClaimRedeax.sol\":2406:2586  function withdraw() external onlyOwner {... */\n    tag_18:\n      callvalue\n      dup1\n      iszero\n      tag_143\n      jumpi\n      0x00\n      dup1\n      revert\n    tag_143:\n      pop\n      tag_62\n      tag_145\n      jump\t// in\n        /* \"DontKilltheJamNFTMojoClaimRedeax.sol\":835:1324  function mint(... */\n    tag_19:\n      tag_62\n      tag_147\n      calldatasize\n      0x04\n      tag_148\n      jump\t// in\n    tag_147:\n      tag_149\n      jump\t// in\n        /* \"@thirdweb-dev/contracts/eip/ERC721AVirtualApprove.sol\":8654:8803   */\n    tag_20:\n      callvalue\n      dup1\n      iszero\n      tag_150\n      jumpi\n      0x00\n      dup1\n      revert\n    tag_150:\n      pop\n      tag_62\n      tag_152\n      calldatasize\n      0x04\n      tag_121\n      jump\t// in\n    tag_152:\n      tag_153\n      jump\t// in\n        /* \"@thirdweb-dev/contracts/base/ERC721Base.sol\":5793:5880   */\n    tag_21:\n      callvalue\n      dup1\n      iszero\n      tag_154\n      jumpi\n      0x00\n      dup1\n      revert\n    tag_154:\n      pop\n      tag_62\n      tag_156\n      calldatasize\n      0x04\n      tag_69\n      jump\t// in\n    tag_156:\n      tag_157\n      jump\t// in\n        /* \"@thirdweb-dev/contracts/base/ERC721Base.sol\":6571:6914   */\n    tag_22:\n      callvalue\n      dup1\n      iszero\n      tag_158\n      jumpi\n      0x00\n      dup1\n      revert\n    tag_158:\n      pop\n      tag_74\n      tag_160\n      calldatasize\n      0x04\n      tag_93\n      jump\t// in\n    tag_160:\n      tag_161\n      jump\t// in\n        /* \"@thirdweb-dev/contracts/extension/Royalty.sol\":2291:2672   */\n    tag_23:\n      callvalue\n      dup1\n      iszero\n      tag_163\n      jumpi\n      0x00\n      dup1\n      revert\n    tag_163:\n      pop\n      tag_164\n      tag_165\n      calldatasize\n      0x04\n      tag_69\n      jump\t// in\n    tag_165:\n      tag_166\n      jump\t// in\n    tag_164:\n      0x40\n      dup1\n      mload\n      sub(shl(0xa0, 0x01), 0x01)\n        /* \"#utility.yul\":7627:7682   */\n      swap1\n      swap4\n      and\n        /* \"#utility.yul\":7609:7683   */\n      dup4\n      mstore\n        /* \"#utility.yul\":7731:7737   */\n      0xffff\n        /* \"#utility.yul\":7719:7738   */\n      swap1\n      swap2\n      and\n        /* \"#utility.yul\":7714:7716   */\n      0x20\n        /* \"#utility.yul\":7699:7717   */\n      dup4\n      add\n        /* \"#utility.yul\":7692:7739   */\n      mstore\n        /* \"#utility.yul\":7582:7600   */\n      add\n        /* \"@thirdweb-dev/contracts/extension/Royalty.sol\":2291:2672   */\n      tag_71\n        /* \"#utility.yul\":7437:7745   */\n      jump\n        /* \"@thirdweb-dev/contracts/eip/queryable/ERC721AQueryable.sol\":1514:1973   */\n    tag_24:\n      callvalue\n      dup1\n      iszero\n      tag_169\n      jumpi\n      0x00\n      dup1\n      revert\n    tag_169:\n      pop\n      tag_170\n      tag_171\n      calldatasize\n      0x04\n      tag_172\n      jump\t// in\n    tag_171:\n      tag_173\n      jump\t// in\n    tag_170:\n      mload(0x40)\n      tag_71\n      swap2\n      swap1\n      tag_175\n      jump\t// in\n        /* \"@thirdweb-dev/contracts/extension/Royalty.sol\":3370:3630   */\n    tag_25:\n      callvalue\n      dup1\n      iszero\n      tag_176\n      jumpi\n      0x00\n      dup1\n      revert\n    tag_176:\n      pop\n      tag_62\n      tag_178\n      calldatasize\n      0x04\n      tag_93\n      jump\t// in\n    tag_178:\n      tag_179\n      jump\t// in\n        /* \"@thirdweb-dev/contracts/eip/ERC721AVirtualApprove.sol\":5944:6067   */\n    tag_26:\n      callvalue\n      dup1\n      iszero\n      tag_180\n      jumpi\n      0x00\n      dup1\n      revert\n    tag_180:\n      pop\n      tag_85\n      tag_182\n      calldatasize\n      0x04\n      tag_69\n      jump\t// in\n    tag_182:\n      tag_183\n      jump\t// in\n        /* \"@thirdweb-dev/contracts/extension/BatchMintMetadata.sol\":1961:2057   */\n    tag_27:\n      callvalue\n      dup1\n      iszero\n      tag_185\n      jumpi\n      0x00\n      dup1\n      revert\n    tag_185:\n      pop\n        /* \"@thirdweb-dev/contracts/extension/BatchMintMetadata.sol\":2035:2043   */\n      0x0c\n        /* \"@thirdweb-dev/contracts/extension/BatchMintMetadata.sol\":2035:2050   */\n      sload\n        /* \"@thirdweb-dev/contracts/extension/BatchMintMetadata.sol\":1961:2057   */\n      jump(tag_96)\n        /* \"@thirdweb-dev/contracts/eip/ERC721AVirtualApprove.sol\":3370:3573   */\n    tag_28:\n      callvalue\n      dup1\n      iszero\n      tag_189\n      jumpi\n      0x00\n      dup1\n      revert\n    tag_189:\n      pop\n      tag_96\n      tag_191\n      calldatasize\n      0x04\n      tag_103\n      jump\t// in\n    tag_191:\n      tag_192\n      jump\t// in\n        /* \"@thirdweb-dev/contracts/base/ERC721Base.sol\":5232:5519   */\n    tag_29:\n      callvalue\n      dup1\n      iszero\n      tag_194\n      jumpi\n      0x00\n      dup1\n      revert\n    tag_194:\n      pop\n      tag_62\n      tag_196\n      calldatasize\n      0x04\n      tag_197\n      jump\t// in\n    tag_196:\n      tag_198\n      jump\t// in\n        /* \"@thirdweb-dev/contracts/extension/BatchMintMetadata.sol\":1204:1247   */\n    tag_30:\n      callvalue\n      dup1\n      iszero\n      tag_199\n      jumpi\n      0x00\n      dup1\n      revert\n    tag_199:\n      pop\n      tag_74\n      tag_201\n      calldatasize\n      0x04\n      tag_69\n      jump\t// in\n    tag_201:\n      mstore(0x20, 0x0e)\n      0x00\n      swap1\n      dup2\n      mstore\n      0x40\n      swap1\n      keccak256\n      sload\n      0xff\n      and\n      dup2\n      jump\n        /* \"@thirdweb-dev/contracts/eip/queryable/ERC721AQueryable.sol\":5285:6155   */\n    tag_31:\n      callvalue\n      dup1\n      iszero\n      tag_204\n      jumpi\n      0x00\n      dup1\n      revert\n    tag_204:\n      pop\n      tag_205\n      tag_206\n      calldatasize\n      0x04\n      tag_103\n      jump\t// in\n    tag_206:\n      tag_207\n      jump\t// in\n    tag_205:\n      mload(0x40)\n      tag_71\n      swap2\n      swap1\n      tag_209\n      jump\t// in\n        /* \"@thirdweb-dev/contracts/extension/Ownable.sol\":973:1059   */\n    tag_32:\n      callvalue\n      dup1\n      iszero\n      tag_210\n      jumpi\n      0x00\n      dup1\n      revert\n    tag_210:\n      pop\n        /* \"@thirdweb-dev/contracts/extension/Ownable.sol\":1046:1052   */\n      and(sub(shl(0xa0, 0x01), 0x01), sload(0x09))\n        /* \"@thirdweb-dev/contracts/extension/Ownable.sol\":973:1059   */\n      jump(tag_85)\n        /* \"@thirdweb-dev/contracts/extension/ContractMetadata.sol\":1110:1311   */\n    tag_33:\n      callvalue\n      dup1\n      iszero\n      tag_214\n      jumpi\n      0x00\n      dup1\n      revert\n    tag_214:\n      pop\n      tag_62\n      tag_216\n      calldatasize\n      0x04\n      tag_217\n      jump\t// in\n    tag_216:\n      tag_218\n      jump\t// in\n        /* \"@thirdweb-dev/contracts/eip/ERC721AVirtualApprove.sol\":6291:6393   */\n    tag_34:\n      callvalue\n      dup1\n      iszero\n      tag_219\n      jumpi\n      0x00\n      dup1\n      revert\n    tag_219:\n      pop\n      tag_67\n      tag_221\n      jump\t// in\n        /* \"@thirdweb-dev/contracts/eip/queryable/ERC721AQueryable.sol\":2374:4822   */\n    tag_35:\n      callvalue\n      dup1\n      iszero\n      tag_223\n      jumpi\n      0x00\n      dup1\n      revert\n    tag_223:\n      pop\n      tag_205\n      tag_225\n      calldatasize\n      0x04\n      tag_226\n      jump\t// in\n    tag_225:\n      tag_227\n      jump\t// in\n        /* \"@thirdweb-dev/contracts/extension/Royalty.sol\":4595:4857   */\n    tag_36:\n      callvalue\n      dup1\n      iszero\n      tag_229\n      jumpi\n      0x00\n      dup1\n      revert\n    tag_229:\n      pop\n      tag_62\n      tag_231\n      calldatasize\n      0x04\n      tag_232\n      jump\t// in\n    tag_231:\n      tag_233\n      jump\t// in\n        /* \"@thirdweb-dev/contracts/eip/ERC721AVirtualApprove.sol\":7882:8164   */\n    tag_37:\n      callvalue\n      dup1\n      iszero\n      tag_234\n      jumpi\n      0x00\n      dup1\n      revert\n    tag_234:\n      pop\n      tag_62\n      tag_236\n      calldatasize\n      0x04\n      tag_237\n      jump\t// in\n    tag_236:\n      tag_238\n      jump\t// in\n        /* \"@thirdweb-dev/contracts/extension/Multicall.sol\":696:1263   */\n    tag_38:\n      callvalue\n      dup1\n      iszero\n      tag_239\n      jumpi\n      0x00\n      dup1\n      revert\n    tag_239:\n      pop\n      tag_240\n      tag_241\n      calldatasize\n      0x04\n      tag_242\n      jump\t// in\n    tag_241:\n      tag_243\n      jump\t// in\n    tag_240:\n      mload(0x40)\n      tag_71\n      swap2\n      swap1\n      tag_245\n      jump\t// in\n        /* \"@thirdweb-dev/contracts/extension/Royalty.sol\":2782:2926   */\n    tag_39:\n      callvalue\n      dup1\n      iszero\n      tag_246\n      jumpi\n      0x00\n      dup1\n      revert\n    tag_246:\n      pop\n        /* \"@thirdweb-dev/contracts/extension/Royalty.sol\":2882:2898   */\n      sload(0x0a)\n      sub(shl(0xa0, 0x01), 0x01)\n      dup2\n      and\n      swap1\n      shl(0xa0, 0x01)\n        /* \"@thirdweb-dev/contracts/extension/Royalty.sol\":2907:2917   */\n      swap1\n      div\n      0xffff\n      and\n        /* \"@thirdweb-dev/contracts/extension/Royalty.sol\":2782:2926   */\n      jump(tag_164)\n        /* \"@thirdweb-dev/contracts/eip/ERC721AVirtualApprove.sol\":8869:9212   */\n    tag_40:\n      callvalue\n      dup1\n      iszero\n      tag_250\n      jumpi\n      0x00\n      dup1\n      revert\n    tag_250:\n      pop\n      tag_62\n      tag_252\n      calldatasize\n      0x04\n      tag_253\n      jump\t// in\n    tag_252:\n      tag_254\n      jump\t// in\n        /* \"@thirdweb-dev/contracts/eip/queryable/ERC721AQueryable.sol\":953:1361   */\n    tag_41:\n      callvalue\n      dup1\n      iszero\n      tag_255\n      jumpi\n      0x00\n      dup1\n      revert\n    tag_255:\n      pop\n      tag_256\n      tag_257\n      calldatasize\n      0x04\n      tag_69\n      jump\t// in\n    tag_257:\n      tag_258\n      jump\t// in\n    tag_256:\n      mload(0x40)\n      tag_71\n      swap2\n      swap1\n      tag_260\n      jump\t// in\n        /* \"@thirdweb-dev/contracts/base/ERC721Base.sol\":3513:3918   */\n    tag_42:\n      callvalue\n      dup1\n      iszero\n      tag_261\n      jumpi\n      0x00\n      dup1\n      revert\n    tag_261:\n      pop\n      tag_67\n      tag_263\n      calldatasize\n      0x04\n      tag_69\n      jump\t// in\n    tag_263:\n      tag_264\n      jump\t// in\n        /* \"@thirdweb-dev/contracts/extension/ContractMetadata.sol\":672:706   */\n    tag_43:\n      callvalue\n      dup1\n      iszero\n      tag_266\n      jumpi\n      0x00\n      dup1\n      revert\n    tag_266:\n      pop\n      tag_67\n      tag_268\n      jump\t// in\n        /* \"@thirdweb-dev/contracts/eip/ERC721AVirtualApprove.sol\":8230:8392   */\n    tag_44:\n      callvalue\n      dup1\n      iszero\n      tag_270\n      jumpi\n      0x00\n      dup1\n      revert\n    tag_270:\n      pop\n      tag_74\n      tag_272\n      calldatasize\n      0x04\n      tag_273\n      jump\t// in\n    tag_272:\n      sub(shl(0xa0, 0x01), 0x01)\n        /* \"@thirdweb-dev/contracts/eip/ERC721AVirtualApprove.sol\":8350:8375   */\n      swap2\n      dup3\n      and\n        /* \"@thirdweb-dev/contracts/eip/ERC721AVirtualApprove.sol\":8327:8331   */\n      0x00\n        /* \"@thirdweb-dev/contracts/eip/ERC721AVirtualApprove.sol\":8350:8375   */\n      swap1\n      dup2\n      mstore\n        /* \"@thirdweb-dev/contracts/eip/ERC721AVirtualApprove.sol\":8350:8368   */\n      0x07\n        /* \"@thirdweb-dev/contracts/eip/ERC721AVirtualApprove.sol\":8350:8375   */\n      0x20\n      swap1\n      dup2\n      mstore\n      0x40\n      dup1\n      dup4\n      keccak256\n        /* \"@thirdweb-dev/contracts/eip/ERC721AVirtualApprove.sol\":8350:8385   */\n      swap4\n      swap1\n      swap5\n      and\n      dup3\n      mstore\n      swap2\n      swap1\n      swap2\n      mstore\n      keccak256\n      sload\n      0xff\n      and\n      swap1\n        /* \"@thirdweb-dev/contracts/eip/ERC721AVirtualApprove.sol\":8230:8392   */\n      jump\n        /* \"DontKilltheJamNFTMojoClaimRedeax.sol\":2285:2367  function setMintFee(uint256 fee) external onlyOwner {... */\n    tag_45:\n      callvalue\n      dup1\n      iszero\n      tag_276\n      jumpi\n      0x00\n      dup1\n      revert\n    tag_276:\n      pop\n      tag_62\n      tag_278\n      calldatasize\n      0x04\n      tag_69\n      jump\t// in\n    tag_278:\n      tag_279\n      jump\t// in\n        /* \"@thirdweb-dev/contracts/base/ERC721Base.sol\":4454:4671   */\n    tag_65:\n        /* \"@thirdweb-dev/contracts/base/ERC721Base.sol\":4541:4551   */\n      tag_281\n        /* \"@thirdweb-dev/contracts/base/ERC721Base.sol\":4541:4549   */\n      tag_282\n        /* \"@thirdweb-dev/contracts/base/ERC721Base.sol\":4541:4551   */\n      jump\t// in\n    tag_281:\n        /* \"@thirdweb-dev/contracts/base/ERC721Base.sol\":4533:4579   */\n      tag_283\n      jumpi\n      mload(0x40)\n      shl(0xe5, 0x461bcd)\n      dup2\n      mstore\n        /* \"#utility.yul\":14956:14958   */\n      0x20\n        /* \"@thirdweb-dev/contracts/base/ERC721Base.sol\":4533:4579   */\n      0x04\n      dup3\n      add\n        /* \"#utility.yul\":14938:14959   */\n      mstore\n        /* \"#utility.yul\":14995:14997   */\n      0x17\n        /* \"#utility.yul\":14975:14993   */\n      0x24\n      dup3\n      add\n        /* \"#utility.yul\":14968:14998   */\n      mstore\n        /* \"#utility.yul\":15034:15059   */\n      0x4e6f7420617574686f72697a656420746f206d696e742e000000000000000000\n        /* \"#utility.yul\":15014:15032   */\n      0x44\n      dup3\n      add\n        /* \"#utility.yul\":15007:15060   */\n      mstore\n        /* \"#utility.yul\":15077:15095   */\n      0x64\n      add\n        /* \"@thirdweb-dev/contracts/base/ERC721Base.sol\":4533:4579   */\n    tag_284:\n      mload(0x40)\n      dup1\n      swap2\n      sub\n      swap1\n      revert\n    tag_283:\n        /* \"@thirdweb-dev/contracts/base/ERC721Base.sol\":4589:4633   */\n      tag_286\n        /* \"@thirdweb-dev/contracts/base/ERC721Base.sol\":4602:4621   */\n      tag_287\n        /* \"@thirdweb-dev/contracts/base/ERC721Base.sol\":6193:6200   */\n      0x00\n        /* \"@thirdweb-dev/contracts/base/ERC721Base.sol\":6219:6232   */\n      sload\n      swap1\n        /* \"@thirdweb-dev/contracts/base/ERC721Base.sol\":6135:6239   */\n      jump\n        /* \"@thirdweb-dev/contracts/base/ERC721Base.sol\":4602:4621   */\n    tag_287:\n        /* \"@thirdweb-dev/contracts/base/ERC721Base.sol\":4623:4632   */\n      dup3\n        /* \"@thirdweb-dev/contracts/base/ERC721Base.sol\":4589:4601   */\n      tag_288\n        /* \"@thirdweb-dev/contracts/base/ERC721Base.sol\":4589:4633   */\n      jump\t// in\n    tag_286:\n        /* \"@thirdweb-dev/contracts/base/ERC721Base.sol\":4643:4664   */\n      tag_289\n        /* \"@thirdweb-dev/contracts/base/ERC721Base.sol\":4653:4656   */\n      dup3\n        /* \"@thirdweb-dev/contracts/base/ERC721Base.sol\":4658:4659   */\n      0x01\n        /* \"@thirdweb-dev/contracts/base/ERC721Base.sol\":4643:4664   */\n      mload(0x40)\n      dup1\n      0x20\n      add\n      0x40\n      mstore\n      dup1\n      0x00\n      dup2\n      mstore\n      pop\n        /* \"@thirdweb-dev/contracts/base/ERC721Base.sol\":4643:4652   */\n      tag_290\n        /* \"@thirdweb-dev/contracts/base/ERC721Base.sol\":4643:4664   */\n      jump\t// in\n    tag_289:\n        /* \"@thirdweb-dev/contracts/base/ERC721Base.sol\":4454:4671   */\n      pop\n      pop\n      jump\t// out\n        /* \"DontKilltheJamNFTMojoClaimRedeax.sol\":290:334  mapping(uint256 => string)  public narrative */\n    tag_70:\n      mstore(0x20, 0x12)\n      0x00\n      swap1\n      dup2\n      mstore\n      0x40\n      swap1\n      keccak256\n      dup1\n      sload\n      tag_291\n      swap1\n      tag_292\n      jump\t// in\n    tag_291:\n      dup1\n      0x1f\n      add\n      0x20\n      dup1\n      swap2\n      div\n      mul\n      0x20\n      add\n      mload(0x40)\n      swap1\n      dup2\n      add\n      0x40\n      mstore\n      dup1\n      swap3\n      swap2\n      swap1\n      dup2\n      dup2\n      mstore\n      0x20\n      add\n      dup3\n      dup1\n      sload\n      tag_293\n      swap1\n      tag_292\n      jump\t// in\n    tag_293:\n      dup1\n      iszero\n      tag_294\n      jumpi\n      dup1\n      0x1f\n      lt\n      tag_295\n      jumpi\n      0x0100\n      dup1\n      dup4\n      sload\n      div\n      mul\n      dup4\n      mstore\n      swap2\n      0x20\n      add\n      swap2\n      jump(tag_294)\n    tag_295:\n      dup3\n      add\n      swap2\n      swap1\n      0x00\n      mstore\n      keccak256(0x00, 0x20)\n      swap1\n    tag_296:\n      dup2\n      sload\n      dup2\n      mstore\n      swap1\n      0x01\n      add\n      swap1\n      0x20\n      add\n      dup1\n      dup4\n      gt\n      tag_296\n      jumpi\n      dup3\n      swap1\n      sub\n      0x1f\n      and\n      dup3\n      add\n      swap2\n    tag_294:\n      pop\n      pop\n      pop\n      pop\n      pop\n      dup2\n      jump\t// out\n        /* \"@thirdweb-dev/contracts/base/ERC721Base.sol\":2655:3099   */\n    tag_77:\n        /* \"@thirdweb-dev/contracts/base/ERC721Base.sol\":2758:2762   */\n      0x00\n      shl(0xe0, 0x01ffc9a7)\n      not(sub(shl(0xe0, 0x01), 0x01))\n        /* \"@thirdweb-dev/contracts/base/ERC721Base.sol\":2793:2818   */\n      dup4\n      and\n      eq\n      dup1\n        /* \"@thirdweb-dev/contracts/base/ERC721Base.sol\":2793:2893   */\n      tag_298\n      jumpi\n      pop\n      shl(0xe0, 0x80ac58cd)\n      not(sub(shl(0xe0, 0x01), 0x01))\n        /* \"@thirdweb-dev/contracts/base/ERC721Base.sol\":2868:2893   */\n      dup4\n      and\n      eq\n        /* \"@thirdweb-dev/contracts/base/ERC721Base.sol\":2793:2893   */\n    tag_298:\n        /* \"@thirdweb-dev/contracts/base/ERC721Base.sol\":2793:2968   */\n      dup1\n      tag_299\n      jumpi\n      pop\n      shl(0xe0, 0x5b5e139f)\n      not(sub(shl(0xe0, 0x01), 0x01))\n        /* \"@thirdweb-dev/contracts/base/ERC721Base.sol\":2943:2968   */\n      dup4\n      and\n      eq\n        /* \"@thirdweb-dev/contracts/base/ERC721Base.sol\":2793:2968   */\n    tag_299:\n        /* \"@thirdweb-dev/contracts/base/ERC721Base.sol\":2793:3067   */\n      dup1\n      tag_300\n      jumpi\n      pop\n      not(sub(shl(0xe0, 0x01), 0x01))\n        /* \"@thirdweb-dev/contracts/base/ERC721Base.sol\":3026:3067   */\n      dup3\n      and\n      shl(0xe1, 0x152a902d)\n      eq\n        /* \"@thirdweb-dev/contracts/base/ERC721Base.sol\":2793:3067   */\n    tag_300:\n        /* \"@thirdweb-dev/contracts/base/ERC721Base.sol\":2774:3067   */\n      swap3\n        /* \"@thirdweb-dev/contracts/base/ERC721Base.sol\":2655:3099   */\n      swap2\n      pop\n      pop\n      jump\t// out\n        /* \"@thirdweb-dev/contracts/eip/ERC721AVirtualApprove.sol\":6129:6227   */\n    tag_82:\n        /* \"@thirdweb-dev/contracts/eip/ERC721AVirtualApprove.sol\":6183:6196   */\n      0x60\n        /* \"@thirdweb-dev/contracts/eip/ERC721AVirtualApprove.sol\":6215:6220   */\n      0x02\n        /* \"@thirdweb-dev/contracts/eip/ERC721AVirtualApprove.sol\":6208:6220   */\n      dup1\n      sload\n      tag_302\n      swap1\n      tag_292\n      jump\t// in\n    tag_302:\n      dup1\n      0x1f\n      add\n      0x20\n      dup1\n      swap2\n      div\n      mul\n      0x20\n      add\n      mload(0x40)\n      swap1\n      dup2\n      add\n      0x40\n      mstore\n      dup1\n      swap3\n      swap2\n      swap1\n      dup2\n      dup2\n      mstore\n      0x20\n      add\n      dup3\n      dup1\n      sload\n      tag_303\n      swap1\n      tag_292\n      jump\t// in\n    tag_303:\n      dup1\n      iszero\n      tag_304\n      jumpi\n      dup1\n      0x1f\n      lt\n      tag_305\n      jumpi\n      0x0100\n      dup1\n      dup4\n      sload\n      div\n      mul\n      dup4\n      mstore\n      swap2\n      0x20\n      add\n      swap2\n      jump(tag_304)\n    tag_305:\n      dup3\n      add\n      swap2\n      swap1\n      0x00\n      mstore\n      keccak256(0x00, 0x20)\n      swap1\n    tag_306:\n      dup2\n      sload\n      dup2\n      mstore\n      swap1\n      0x01\n      add\n      swap1\n      0x20\n      add\n      dup1\n      dup4\n      gt\n      tag_306\n      jumpi\n      dup3\n      swap1\n      sub\n      0x1f\n      and\n      dup3\n      add\n      swap2\n    tag_304:\n      pop\n      pop\n      pop\n      pop\n      pop\n      swap1\n      pop\n        /* \"@thirdweb-dev/contracts/eip/ERC721AVirtualApprove.sol\":6129:6227   */\n      swap1\n      jump\t// out\n        /* \"@thirdweb-dev/contracts/eip/ERC721AVirtualApprove.sol\":7615:7815   */\n    tag_87:\n        /* \"@thirdweb-dev/contracts/eip/ERC721AVirtualApprove.sol\":7683:7690   */\n      0x00\n        /* \"@thirdweb-dev/contracts/eip/ERC721AVirtualApprove.sol\":7707:7723   */\n      tag_308\n        /* \"@thirdweb-dev/contracts/eip/ERC721AVirtualApprove.sol\":7715:7722   */\n      dup3\n        /* \"@thirdweb-dev/contracts/eip/ERC721AVirtualApprove.sol\":7707:7714   */\n      tag_309\n        /* \"@thirdweb-dev/contracts/eip/ERC721AVirtualApprove.sol\":7707:7723   */\n      jump\t// in\n    tag_308:\n        /* \"@thirdweb-dev/contracts/eip/ERC721AVirtualApprove.sol\":7702:7766   */\n      tag_310\n      jumpi\n        /* \"@thirdweb-dev/contracts/eip/ERC721AVirtualApprove.sol\":7732:7766   */\n      mload(0x40)\n      shl(0xe2, 0x33d1c039)\n      dup2\n      mstore\n      0x04\n      add\n      mload(0x40)\n      dup1\n      swap2\n      sub\n      swap1\n      revert\n        /* \"@thirdweb-dev/contracts/eip/ERC721AVirtualApprove.sol\":7702:7766   */\n    tag_310:\n      pop\n        /* \"@thirdweb-dev/contracts/eip/ERC721AVirtualApprove.sol\":7784:7808   */\n      0x00\n      swap1\n      dup2\n      mstore\n        /* \"@thirdweb-dev/contracts/eip/ERC721AVirtualApprove.sol\":7784:7799   */\n      0x06\n        /* \"@thirdweb-dev/contracts/eip/ERC721AVirtualApprove.sol\":7784:7808   */\n      0x20\n      mstore\n      0x40\n      swap1\n      keccak256\n      sload\n      sub(shl(0xa0, 0x01), 0x01)\n      and\n      swap1\n        /* \"@thirdweb-dev/contracts/eip/ERC721AVirtualApprove.sol\":7615:7815   */\n      jump\t// out\n        /* \"@thirdweb-dev/contracts/eip/ERC721AVirtualApprove.sol\":7162:7554   */\n    tag_94:\n        /* \"@thirdweb-dev/contracts/eip/ERC721AVirtualApprove.sol\":7242:7255   */\n      0x00\n        /* \"@thirdweb-dev/contracts/eip/ERC721AVirtualApprove.sol\":7258:7282   */\n      tag_312\n        /* \"@thirdweb-dev/contracts/eip/ERC721AVirtualApprove.sol\":7274:7281   */\n      dup3\n        /* \"@thirdweb-dev/contracts/eip/ERC721AVirtualApprove.sol\":7258:7273   */\n      tag_183\n        /* \"@thirdweb-dev/contracts/eip/ERC721AVirtualApprove.sol\":7258:7282   */\n      jump\t// in\n    tag_312:\n        /* \"@thirdweb-dev/contracts/eip/ERC721AVirtualApprove.sol\":7242:7282   */\n      swap1\n      pop\n        /* \"@thirdweb-dev/contracts/eip/ERC721AVirtualApprove.sol\":7302:7307   */\n      dup1\n      sub(shl(0xa0, 0x01), 0x01)\n        /* \"@thirdweb-dev/contracts/eip/ERC721AVirtualApprove.sol\":7296:7307   */\n      and\n        /* \"@thirdweb-dev/contracts/eip/ERC721AVirtualApprove.sol\":7296:7298   */\n      dup4\n      sub(shl(0xa0, 0x01), 0x01)\n        /* \"@thirdweb-dev/contracts/eip/ERC721AVirtualApprove.sol\":7296:7307   */\n      and\n      sub\n        /* \"@thirdweb-dev/contracts/eip/ERC721AVirtualApprove.sol\":7292:7340   */\n      tag_313\n      jumpi\n        /* \"@thirdweb-dev/contracts/eip/ERC721AVirtualApprove.sol\":7316:7340   */\n      mload(0x40)\n      shl(0xe2, 0x250fdee3)\n      dup2\n      mstore\n      0x04\n      add\n      mload(0x40)\n      dup1\n      swap2\n      sub\n      swap1\n      revert\n        /* \"@thirdweb-dev/contracts/eip/ERC721AVirtualApprove.sol\":7292:7340   */\n    tag_313:\n        /* \"@thirdweb-dev/contracts/base/ERC721Base.sol\":8521:8531   */\n      caller\n      sub(shl(0xa0, 0x01), 0x01)\n        /* \"@thirdweb-dev/contracts/eip/ERC721AVirtualApprove.sol\":7355:7376   */\n      dup3\n      and\n      eq\n        /* \"@thirdweb-dev/contracts/eip/ERC721AVirtualApprove.sol\":7351:7509   */\n      tag_319\n      jumpi\n        /* \"@thirdweb-dev/contracts/eip/ERC721AVirtualApprove.sol\":7395:7432   */\n      tag_317\n        /* \"@thirdweb-dev/contracts/eip/ERC721AVirtualApprove.sol\":7412:7417   */\n      dup2\n        /* \"@thirdweb-dev/contracts/base/ERC721Base.sol\":8521:8531   */\n      caller\n        /* \"@thirdweb-dev/contracts/eip/ERC721AVirtualApprove.sol\":8230:8392   */\n      tag_272\n      jump\t// in\n        /* \"@thirdweb-dev/contracts/eip/ERC721AVirtualApprove.sol\":7395:7432   */\n    tag_317:\n        /* \"@thirdweb-dev/contracts/eip/ERC721AVirtualApprove.sol\":7390:7509   */\n      tag_319\n      jumpi\n        /* \"@thirdweb-dev/contracts/eip/ERC721AVirtualApprove.sol\":7459:7494   */\n      mload(0x40)\n      shl(0xe1, 0x67d9dca1)\n      dup2\n      mstore\n      0x04\n      add\n      mload(0x40)\n      dup1\n      swap2\n      sub\n      swap1\n      revert\n        /* \"@thirdweb-dev/contracts/eip/ERC721AVirtualApprove.sol\":7390:7509   */\n    tag_319:\n        /* \"@thirdweb-dev/contracts/eip/ERC721AVirtualApprove.sol\":7519:7547   */\n      tag_320\n        /* \"@thirdweb-dev/contracts/eip/ERC721AVirtualApprove.sol\":7528:7530   */\n      dup4\n        /* \"@thirdweb-dev/contracts/eip/ERC721AVirtualApprove.sol\":7532:7539   */\n      dup4\n        /* \"@thirdweb-dev/contracts/eip/ERC721AVirtualApprove.sol\":7541:7546   */\n      dup4\n        /* \"@thirdweb-dev/contracts/eip/ERC721AVirtualApprove.sol\":7519:7527   */\n      tag_321\n        /* \"@thirdweb-dev/contracts/eip/ERC721AVirtualApprove.sol\":7519:7547   */\n      jump\t// in\n    tag_320:\n        /* \"@thirdweb-dev/contracts/eip/ERC721AVirtualApprove.sol\":7232:7554   */\n      pop\n        /* \"@thirdweb-dev/contracts/eip/ERC721AVirtualApprove.sol\":7162:7554   */\n      pop\n      pop\n      jump\t// out\n        /* \"@thirdweb-dev/contracts/extension/Ownable.sol\":1235:1412   */\n    tag_104:\n        /* \"@thirdweb-dev/contracts/extension/Ownable.sol\":1305:1319   */\n      tag_323\n        /* \"@thirdweb-dev/contracts/extension/Ownable.sol\":1305:1317   */\n      tag_282\n        /* \"@thirdweb-dev/contracts/extension/Ownable.sol\":1305:1319   */\n      jump\t// in\n    tag_323:\n        /* \"@thirdweb-dev/contracts/extension/Ownable.sol\":1300:1374   */\n      tag_325\n      jumpi\n        /* \"@thirdweb-dev/contracts/extension/Ownable.sol\":1342:1363   */\n      mload(0x40)\n      shl(0xe1, 0x16ccb9cb)\n      dup2\n      mstore\n      0x04\n      add\n      mload(0x40)\n      dup1\n      swap2\n      sub\n      swap1\n      revert\n        /* \"@thirdweb-dev/contracts/extension/Ownable.sol\":1300:1374   */\n    tag_325:\n        /* \"@thirdweb-dev/contracts/extension/Ownable.sol\":1383:1405   */\n      tag_326\n        /* \"@thirdweb-dev/contracts/extension/Ownable.sol\":1395:1404   */\n      dup2\n        /* \"@thirdweb-dev/contracts/extension/Ownable.sol\":1383:1394   */\n      tag_327\n        /* \"@thirdweb-dev/contracts/extension/Ownable.sol\":1383:1405   */\n      jump\t// in\n    tag_326:\n        /* \"@thirdweb-dev/contracts/extension/Ownable.sol\":1235:1412   */\n      pop\n      jump\t// out\n        /* \"DontKilltheJamNFTMojoClaimRedeax.sol\":1412:2242  function mintBatch(... */\n    tag_108:\n        /* \"DontKilltheJamNFTMojoClaimRedeax.sol\":1604:1613  tokenURIs */\n      dup5\n        /* \"DontKilltheJamNFTMojoClaimRedeax.sol\":1638:1647  count > 0 */\n      dup1\n        /* \"DontKilltheJamNFTMojoClaimRedeax.sol\":1630:1684  require(count > 0,                        \"No tokens\") */\n      tag_329\n      jumpi\n      mload(0x40)\n      shl(0xe5, 0x461bcd)\n      dup2\n      mstore\n        /* \"#utility.yul\":15693:15695   */\n      0x20\n        /* \"DontKilltheJamNFTMojoClaimRedeax.sol\":1630:1684  require(count > 0,                        \"No tokens\") */\n      0x04\n      dup3\n      add\n        /* \"#utility.yul\":15675:15696   */\n      mstore\n        /* \"#utility.yul\":15732:15733   */\n      0x09\n        /* \"#utility.yul\":15712:15730   */\n      0x24\n      dup3\n      add\n        /* \"#utility.yul\":15705:15734   */\n      mstore\n        /* \"#utility.yul\":15770:15781   */\n      0x4e6f20746f6b656e730000000000000000000000000000000000000000000000\n        /* \"#utility.yul\":15750:15768   */\n      0x44\n      dup3\n      add\n        /* \"#utility.yul\":15743:15782   */\n      mstore\n        /* \"#utility.yul\":15799:15817   */\n      0x64\n      add\n        /* \"DontKilltheJamNFTMojoClaimRedeax.sol\":1630:1684  require(count > 0,                        \"No tokens\") */\n      tag_284\n        /* \"#utility.yul\":15491:15823   */\n      jump\n        /* \"DontKilltheJamNFTMojoClaimRedeax.sol\":1630:1684  require(count > 0,                        \"No tokens\") */\n    tag_329:\n        /* \"DontKilltheJamNFTMojoClaimRedeax.sol\":1702:1723  count == mojos.length */\n      dup1\n      dup5\n      eq\n        /* \"DontKilltheJamNFTMojoClaimRedeax.sol\":1702:1762  count == mojos.length ... */\n      dup1\n      iszero\n      tag_332\n      jumpi\n      pop\n        /* \"DontKilltheJamNFTMojoClaimRedeax.sol\":1741:1762  count == narrs.length */\n      dup1\n      dup3\n      eq\n        /* \"DontKilltheJamNFTMojoClaimRedeax.sol\":1702:1762  count == mojos.length ... */\n    tag_332:\n        /* \"DontKilltheJamNFTMojoClaimRedeax.sol\":1694:1791  require(count == mojos.length ... */\n      tag_333\n      jumpi\n      mload(0x40)\n      shl(0xe5, 0x461bcd)\n      dup2\n      mstore\n        /* \"#utility.yul\":16030:16032   */\n      0x20\n        /* \"DontKilltheJamNFTMojoClaimRedeax.sol\":1694:1791  require(count == mojos.length ... */\n      0x04\n      dup3\n      add\n        /* \"#utility.yul\":16012:16033   */\n      mstore\n        /* \"#utility.yul\":16069:16071   */\n      0x0e\n        /* \"#utility.yul\":16049:16067   */\n      0x24\n      dup3\n      add\n        /* \"#utility.yul\":16042:16072   */\n      mstore\n        /* \"#utility.yul\":16108:16124   */\n      0x4172726179206d69736d61746368000000000000000000000000000000000000\n        /* \"#utility.yul\":16088:16106   */\n      0x44\n      dup3\n      add\n        /* \"#utility.yul\":16081:16125   */\n      mstore\n        /* \"#utility.yul\":16142:16160   */\n      0x64\n      add\n        /* \"DontKilltheJamNFTMojoClaimRedeax.sol\":1694:1791  require(count == mojos.length ... */\n      tag_284\n        /* \"#utility.yul\":15828:16166   */\n      jump\n        /* \"DontKilltheJamNFTMojoClaimRedeax.sol\":1694:1791  require(count == mojos.length ... */\n    tag_333:\n        /* \"DontKilltheJamNFTMojoClaimRedeax.sol\":199:205  10_000 */\n      0x2710\n        /* \"DontKilltheJamNFTMojoClaimRedeax.sol\":1825:1830  count */\n      dup2\n        /* \"DontKilltheJamNFTMojoClaimRedeax.sol\":1809:1822  totalSupply() */\n      tag_336\n        /* \"@thirdweb-dev/contracts/eip/ERC721AVirtualApprove.sol\":2541:2553   */\n      sload(0x01)\n        /* \"@thirdweb-dev/contracts/eip/ERC721AVirtualApprove.sol\":2335:2342   */\n      0x00\n        /* \"@thirdweb-dev/contracts/eip/ERC721AVirtualApprove.sol\":2525:2538   */\n      sload\n        /* \"@thirdweb-dev/contracts/eip/ERC721AVirtualApprove.sol\":2525:2553   */\n      sub\n      swap1\n        /* \"@thirdweb-dev/contracts/eip/ERC721AVirtualApprove.sol\":2282:2588   */\n      jump\n        /* \"DontKilltheJamNFTMojoClaimRedeax.sol\":1809:1822  totalSupply() */\n    tag_336:\n        /* \"DontKilltheJamNFTMojoClaimRedeax.sol\":1809:1830  totalSupply() + count */\n      tag_337\n      swap2\n      swap1\n      tag_338\n      jump\t// in\n    tag_337:\n        /* \"DontKilltheJamNFTMojoClaimRedeax.sol\":1809:1844  totalSupply() + count <= MAX_SUPPLY */\n      gt\n      iszero\n        /* \"DontKilltheJamNFTMojoClaimRedeax.sol\":1801:1857  require(totalSupply() + count <= MAX_SUPPLY, \"Too many\") */\n      tag_339\n      jumpi\n      mload(0x40)\n      shl(0xe5, 0x461bcd)\n      dup2\n      mstore\n        /* \"#utility.yul\":16635:16637   */\n      0x20\n        /* \"DontKilltheJamNFTMojoClaimRedeax.sol\":1801:1857  require(totalSupply() + count <= MAX_SUPPLY, \"Too many\") */\n      0x04\n      dup3\n      add\n        /* \"#utility.yul\":16617:16638   */\n      mstore\n        /* \"#utility.yul\":16674:16675   */\n      0x08\n        /* \"#utility.yul\":16654:16672   */\n      0x24\n      dup3\n      add\n        /* \"#utility.yul\":16647:16676   */\n      mstore\n        /* \"#utility.yul\":16712:16722   */\n      0x546f6f206d616e79000000000000000000000000000000000000000000000000\n        /* \"#utility.yul\":16692:16710   */\n      0x44\n      dup3\n      add\n        /* \"#utility.yul\":16685:16723   */\n      mstore\n        /* \"#utility.yul\":16740:16758   */\n      0x64\n      add\n        /* \"DontKilltheJamNFTMojoClaimRedeax.sol\":1801:1857  require(totalSupply() + count <= MAX_SUPPLY, \"Too many\") */\n      tag_284\n        /* \"#utility.yul\":16433:16764   */\n      jump\n        /* \"DontKilltheJamNFTMojoClaimRedeax.sol\":1801:1857  require(totalSupply() + count <= MAX_SUPPLY, \"Too many\") */\n    tag_339:\n        /* \"DontKilltheJamNFTMojoClaimRedeax.sol\":1898:1903  count */\n      dup1\n        /* \"DontKilltheJamNFTMojoClaimRedeax.sol\":1888:1895  mintFee */\n      sload(0x10)\n        /* \"DontKilltheJamNFTMojoClaimRedeax.sol\":1888:1903  mintFee * count */\n      tag_342\n      swap2\n      swap1\n      tag_343\n      jump\t// in\n    tag_342:\n        /* \"DontKilltheJamNFTMojoClaimRedeax.sol\":1875:1884  msg.value */\n      callvalue\n        /* \"DontKilltheJamNFTMojoClaimRedeax.sol\":1875:1903  msg.value == mintFee * count */\n      eq\n        /* \"DontKilltheJamNFTMojoClaimRedeax.sol\":1867:1925  require(msg.value == mintFee * count,     \"Bad total fee\") */\n      tag_344\n      jumpi\n      mload(0x40)\n      shl(0xe5, 0x461bcd)\n      dup2\n      mstore\n        /* \"#utility.yul\":17144:17146   */\n      0x20\n        /* \"DontKilltheJamNFTMojoClaimRedeax.sol\":1867:1925  require(msg.value == mintFee * count,     \"Bad total fee\") */\n      0x04\n      dup3\n      add\n        /* \"#utility.yul\":17126:17147   */\n      mstore\n        /* \"#utility.yul\":17183:17185   */\n      0x0d\n        /* \"#utility.yul\":17163:17181   */\n      0x24\n      dup3\n      add\n        /* \"#utility.yul\":17156:17186   */\n      mstore\n        /* \"#utility.yul\":17222:17237   */\n      0x42616420746f74616c2066656500000000000000000000000000000000000000\n        /* \"#utility.yul\":17202:17220   */\n      0x44\n      dup3\n      add\n        /* \"#utility.yul\":17195:17238   */\n      mstore\n        /* \"#utility.yul\":17255:17273   */\n      0x64\n      add\n        /* \"DontKilltheJamNFTMojoClaimRedeax.sol\":1867:1925  require(msg.value == mintFee * count,     \"Bad total fee\") */\n      tag_284\n        /* \"#utility.yul\":16942:17279   */\n      jump\n        /* \"DontKilltheJamNFTMojoClaimRedeax.sol\":1867:1925  require(msg.value == mintFee * count,     \"Bad total fee\") */\n    tag_344:\n        /* \"DontKilltheJamNFTMojoClaimRedeax.sol\":1941:1950  uint256 i */\n      0x00\n        /* \"DontKilltheJamNFTMojoClaimRedeax.sol\":1936:2236  for (uint256 i = 0; i < count; i++) {... */\n    tag_347:\n        /* \"DontKilltheJamNFTMojoClaimRedeax.sol\":1960:1965  count */\n      dup2\n        /* \"DontKilltheJamNFTMojoClaimRedeax.sol\":1956:1957  i */\n      dup2\n        /* \"DontKilltheJamNFTMojoClaimRedeax.sol\":1956:1965  i < count */\n      lt\n        /* \"DontKilltheJamNFTMojoClaimRedeax.sol\":1936:2236  for (uint256 i = 0; i < count; i++) {... */\n      iszero\n      tag_348\n      jumpi\n        /* \"DontKilltheJamNFTMojoClaimRedeax.sol\":1986:1996  uint256 id */\n      0x00\n        /* \"@thirdweb-dev/contracts/base/ERC721Base.sol\":6219:6232   */\n      sload\n        /* \"DontKilltheJamNFTMojoClaimRedeax.sol\":2032:2049  _safeMint(to, id) */\n      tag_351\n        /* \"DontKilltheJamNFTMojoClaimRedeax.sol\":2042:2044  to */\n      dup11\n        /* \"@thirdweb-dev/contracts/base/ERC721Base.sol\":6219:6232   */\n      dup3\n        /* \"DontKilltheJamNFTMojoClaimRedeax.sol\":2032:2041  _safeMint */\n      tag_352\n        /* \"DontKilltheJamNFTMojoClaimRedeax.sol\":2032:2049  _safeMint(to, id) */\n      jump\t// in\n    tag_351:\n        /* \"DontKilltheJamNFTMojoClaimRedeax.sol\":2063:2093  _setTokenURI(id, tokenURIs[i]) */\n      tag_353\n        /* \"DontKilltheJamNFTMojoClaimRedeax.sol\":2076:2078  id */\n      dup2\n        /* \"DontKilltheJamNFTMojoClaimRedeax.sol\":2080:2089  tokenURIs */\n      dup11\n      dup11\n        /* \"DontKilltheJamNFTMojoClaimRedeax.sol\":2090:2091  i */\n      dup6\n        /* \"DontKilltheJamNFTMojoClaimRedeax.sol\":2080:2092  tokenURIs[i] */\n      dup2\n      dup2\n      lt\n      tag_355\n      jumpi\n      tag_355\n      tag_356\n      jump\t// in\n    tag_355:\n      swap1\n      pop\n      0x20\n      mul\n      dup2\n      add\n      swap1\n      tag_357\n      swap2\n      swap1\n      tag_358\n      jump\t// in\n    tag_357:\n        /* \"DontKilltheJamNFTMojoClaimRedeax.sol\":2063:2093  _setTokenURI(id, tokenURIs[i]) */\n      dup1\n      dup1\n      0x1f\n      add\n      0x20\n      dup1\n      swap2\n      div\n      mul\n      0x20\n      add\n      mload(0x40)\n      swap1\n      dup2\n      add\n      0x40\n      mstore\n      dup1\n      swap4\n      swap3\n      swap2\n      swap1\n      dup2\n      dup2\n      mstore\n      0x20\n      add\n      dup4\n      dup4\n      dup1\n      dup3\n      dup5\n      calldatacopy\n      0x00\n      swap3\n      add\n      swap2\n      swap1\n      swap2\n      mstore\n      pop\n        /* \"DontKilltheJamNFTMojoClaimRedeax.sol\":2063:2075  _setTokenURI */\n      tag_288\n      swap3\n      pop\n      pop\n      pop\n        /* \"DontKilltheJamNFTMojoClaimRedeax.sol\":2063:2093  _setTokenURI(id, tokenURIs[i]) */\n      jump\t// in\n    tag_353:\n        /* \"DontKilltheJamNFTMojoClaimRedeax.sol\":2123:2128  mojos */\n      dup7\n      dup7\n        /* \"DontKilltheJamNFTMojoClaimRedeax.sol\":2129:2130  i */\n      dup4\n        /* \"DontKilltheJamNFTMojoClaimRedeax.sol\":2123:2131  mojos[i] */\n      dup2\n      dup2\n      lt\n      tag_360\n      jumpi\n      tag_360\n      tag_356\n      jump\t// in\n    tag_360:\n      swap1\n      pop\n      0x20\n      mul\n      add\n      calldataload\n        /* \"DontKilltheJamNFTMojoClaimRedeax.sol\":2107:2116  mojoScore */\n      0x11\n        /* \"DontKilltheJamNFTMojoClaimRedeax.sol\":2107:2120  mojoScore[id] */\n      0x00\n        /* \"DontKilltheJamNFTMojoClaimRedeax.sol\":2117:2119  id */\n      dup4\n        /* \"DontKilltheJamNFTMojoClaimRedeax.sol\":2107:2120  mojoScore[id] */\n      dup2\n      mstore\n      0x20\n      add\n      swap1\n      dup2\n      mstore\n      0x20\n      add\n      0x00\n      keccak256\n        /* \"DontKilltheJamNFTMojoClaimRedeax.sol\":2107:2131  mojoScore[id] = mojos[i] */\n      dup2\n      swap1\n      sstore\n      pop\n        /* \"DontKilltheJamNFTMojoClaimRedeax.sol\":2161:2166  narrs */\n      dup5\n      dup5\n        /* \"DontKilltheJamNFTMojoClaimRedeax.sol\":2167:2168  i */\n      dup4\n        /* \"DontKilltheJamNFTMojoClaimRedeax.sol\":2161:2169  narrs[i] */\n      dup2\n      dup2\n      lt\n      tag_362\n      jumpi\n      tag_362\n      tag_356\n      jump\t// in\n    tag_362:\n      swap1\n      pop\n      0x20\n      mul\n      dup2\n      add\n      swap1\n      tag_363\n      swap2\n      swap1\n      tag_358\n      jump\t// in\n    tag_363:\n        /* \"DontKilltheJamNFTMojoClaimRedeax.sol\":2145:2158  narrative[id] */\n      0x00\n      dup4\n      dup2\n      mstore\n        /* \"DontKilltheJamNFTMojoClaimRedeax.sol\":2145:2154  narrative */\n      0x12\n        /* \"DontKilltheJamNFTMojoClaimRedeax.sol\":2145:2158  narrative[id] */\n      0x20\n      mstore\n      0x40\n      swap1\n      keccak256\n      swap2\n        /* \"DontKilltheJamNFTMojoClaimRedeax.sol\":2145:2169  narrative[id] = narrs[i] */\n      tag_364\n      swap2\n      swap1\n        /* \"DontKilltheJamNFTMojoClaimRedeax.sol\":2145:2158  narrative[id] */\n      dup4\n        /* \"DontKilltheJamNFTMojoClaimRedeax.sol\":2145:2169  narrative[id] = narrs[i] */\n      tag_365\n      jump\t// in\n    tag_364:\n      pop\n        /* \"DontKilltheJamNFTMojoClaimRedeax.sol\":2202:2204  id */\n      dup1\n        /* \"DontKilltheJamNFTMojoClaimRedeax.sol\":2198:2200  to */\n      dup11\n      sub(shl(0xa0, 0x01), 0x01)\n        /* \"DontKilltheJamNFTMojoClaimRedeax.sol\":2188:2225  NFTMinted(to, id, mojos[i], narrs[i]) */\n      and\n      0x01f8bd07e6c27ff813d5c6d3c4bf0313a1d75043cf978214b504b794075e5266\n        /* \"DontKilltheJamNFTMojoClaimRedeax.sol\":2206:2211  mojos */\n      dup10\n      dup10\n        /* \"DontKilltheJamNFTMojoClaimRedeax.sol\":2212:2213  i */\n      dup7\n        /* \"DontKilltheJamNFTMojoClaimRedeax.sol\":2206:2214  mojos[i] */\n      dup2\n      dup2\n      lt\n      tag_367\n      jumpi\n      tag_367\n      tag_356\n      jump\t// in\n    tag_367:\n      swap1\n      pop\n      0x20\n      mul\n      add\n      calldataload\n        /* \"DontKilltheJamNFTMojoClaimRedeax.sol\":2216:2221  narrs */\n      dup9\n      dup9\n        /* \"DontKilltheJamNFTMojoClaimRedeax.sol\":2222:2223  i */\n      dup8\n        /* \"DontKilltheJamNFTMojoClaimRedeax.sol\":2216:2224  narrs[i] */\n      dup2\n      dup2\n      lt\n      tag_369\n      jumpi\n      tag_369\n      tag_356\n      jump\t// in\n    tag_369:\n      swap1\n      pop\n      0x20\n      mul\n      dup2\n      add\n      swap1\n      tag_370\n      swap2\n      swap1\n      tag_358\n      jump\t// in\n    tag_370:\n        /* \"DontKilltheJamNFTMojoClaimRedeax.sol\":2188:2225  NFTMinted(to, id, mojos[i], narrs[i]) */\n      mload(0x40)\n      tag_371\n      swap4\n      swap3\n      swap2\n      swap1\n      tag_372\n      jump\t// in\n    tag_371:\n      mload(0x40)\n      dup1\n      swap2\n      sub\n      swap1\n      log3\n      pop\n        /* \"DontKilltheJamNFTMojoClaimRedeax.sol\":1967:1970  i++ */\n      0x01\n      add\n        /* \"DontKilltheJamNFTMojoClaimRedeax.sol\":1936:2236  for (uint256 i = 0; i < count; i++) {... */\n      jump(tag_347)\n    tag_348:\n      pop\n        /* \"DontKilltheJamNFTMojoClaimRedeax.sol\":1578:2242  {... */\n      pop\n        /* \"DontKilltheJamNFTMojoClaimRedeax.sol\":1412:2242  function mintBatch(... */\n      pop\n      pop\n      pop\n      pop\n      pop\n      pop\n      pop\n      jump\t// out\n        /* \"@thirdweb-dev/contracts/eip/ERC721AVirtualApprove.sol\":8454:8588   */\n    tag_122:\n        /* \"@thirdweb-dev/contracts/eip/ERC721AVirtualApprove.sol\":8553:8581   */\n      tag_320\n        /* \"@thirdweb-dev/contracts/eip/ERC721AVirtualApprove.sol\":8563:8567   */\n      dup4\n        /* \"@thirdweb-dev/contracts/eip/ERC721AVirtualApprove.sol\":8569:8571   */\n      dup4\n        /* \"@thirdweb-dev/contracts/eip/ERC721AVirtualApprove.sol\":8573:8580   */\n      dup4\n        /* \"@thirdweb-dev/contracts/eip/ERC721AVirtualApprove.sol\":8553:8562   */\n      tag_378\n        /* \"@thirdweb-dev/contracts/eip/ERC721AVirtualApprove.sol\":8553:8581   */\n      jump\t// in\n        /* \"@thirdweb-dev/contracts/extension/BatchMintMetadata.sol\":2279:2497   */\n    tag_126:\n        /* \"@thirdweb-dev/contracts/extension/BatchMintMetadata.sol\":2343:2350   */\n      0x00\n        /* \"@thirdweb-dev/contracts/extension/BatchMintMetadata.sol\":2376:2393   */\n      tag_380\n        /* \"@thirdweb-dev/contracts/extension/BatchMintMetadata.sol\":2035:2043   */\n      0x0c\n        /* \"@thirdweb-dev/contracts/extension/BatchMintMetadata.sol\":2035:2050   */\n      sload\n      swap1\n        /* \"@thirdweb-dev/contracts/extension/BatchMintMetadata.sol\":1961:2057   */\n      jump\n        /* \"@thirdweb-dev/contracts/extension/BatchMintMetadata.sol\":2376:2393   */\n    tag_380:\n        /* \"@thirdweb-dev/contracts/extension/BatchMintMetadata.sol\":2366:2372   */\n      dup3\n        /* \"@thirdweb-dev/contracts/extension/BatchMintMetadata.sol\":2366:2393   */\n      lt\n        /* \"@thirdweb-dev/contracts/extension/BatchMintMetadata.sol\":2362:2458   */\n      tag_381\n      jumpi\n        /* \"@thirdweb-dev/contracts/extension/BatchMintMetadata.sol\":2416:2447   */\n      mload(0x40)\n      shl(0xe1, 0x07931277)\n      dup2\n      mstore\n      0x04\n      dup2\n      add\n        /* \"#utility.yul\":3504:3529   */\n      dup4\n      swap1\n      mstore\n        /* \"#utility.yul\":3477:3495   */\n      0x24\n      add\n        /* \"@thirdweb-dev/contracts/extension/BatchMintMetadata.sol\":2416:2447   */\n      tag_284\n        /* \"#utility.yul\":3358:3535   */\n      jump\n        /* \"@thirdweb-dev/contracts/extension/BatchMintMetadata.sol\":2362:2458   */\n    tag_381:\n        /* \"@thirdweb-dev/contracts/extension/BatchMintMetadata.sol\":2474:2482   */\n      0x0c\n        /* \"@thirdweb-dev/contracts/extension/BatchMintMetadata.sol\":2483:2489   */\n      dup3\n        /* \"@thirdweb-dev/contracts/extension/BatchMintMetadata.sol\":2474:2490   */\n      dup2\n      sload\n      dup2\n      lt\n      tag_384\n      jumpi\n      tag_384\n      tag_356\n      jump\t// in\n    tag_384:\n      swap1\n      0x00\n      mstore\n      keccak256(0x00, 0x20)\n      add\n      sload\n        /* \"@thirdweb-dev/contracts/extension/BatchMintMetadata.sol\":2467:2490   */\n      swap1\n      pop\n        /* \"@thirdweb-dev/contracts/extension/BatchMintMetadata.sol\":2279:2497   */\n      swap2\n      swap1\n      pop\n      jump\t// out\n        /* \"@thirdweb-dev/contracts/extension/Royalty.sol\":1726:2051   */\n    tag_132:\n        /* \"@thirdweb-dev/contracts/extension/Royalty.sol\":1845:1861   */\n      0x00\n        /* \"@thirdweb-dev/contracts/extension/Royalty.sol\":1863:1884   */\n      dup1\n        /* \"@thirdweb-dev/contracts/extension/Royalty.sol\":1897:1914   */\n      0x00\n        /* \"@thirdweb-dev/contracts/extension/Royalty.sol\":1916:1927   */\n      dup1\n        /* \"@thirdweb-dev/contracts/extension/Royalty.sol\":1931:1962   */\n      tag_387\n        /* \"@thirdweb-dev/contracts/extension/Royalty.sol\":1954:1961   */\n      dup7\n        /* \"@thirdweb-dev/contracts/extension/Royalty.sol\":1931:1953   */\n      tag_166\n        /* \"@thirdweb-dev/contracts/extension/Royalty.sol\":1931:1962   */\n      jump\t// in\n    tag_387:\n        /* \"@thirdweb-dev/contracts/extension/Royalty.sol\":1896:1962   */\n      swap1\n      swap5\n      pop\n      dup5\n      swap3\n      pop\n      0xffff\n      and\n      swap1\n      pop\n        /* \"@thirdweb-dev/contracts/extension/Royalty.sol\":2038:2044   */\n      0x2710\n        /* \"@thirdweb-dev/contracts/extension/Royalty.sol\":2019:2034   */\n      tag_388\n        /* \"@thirdweb-dev/contracts/extension/Royalty.sol\":1896:1962   */\n      dup3\n        /* \"@thirdweb-dev/contracts/extension/Royalty.sol\":2019:2028   */\n      dup8\n        /* \"@thirdweb-dev/contracts/extension/Royalty.sol\":2019:2034   */\n      tag_343\n      jump\t// in\n    tag_388:\n        /* \"@thirdweb-dev/contracts/extension/Royalty.sol\":2018:2044   */\n      tag_389\n      swap2\n      swap1\n      tag_390\n      jump\t// in\n    tag_389:\n        /* \"@thirdweb-dev/contracts/extension/Royalty.sol\":2002:2044   */\n      swap3\n      pop\n        /* \"@thirdweb-dev/contracts/extension/Royalty.sol\":1886:2051   */\n      pop\n      pop\n        /* \"@thirdweb-dev/contracts/extension/Royalty.sol\":1726:2051   */\n      swap3\n      pop\n      swap3\n      swap1\n      pop\n      jump\t// out\n        /* \"DontKilltheJamNFTMojoClaimRedeax.sol\":2406:2586  function withdraw() external onlyOwner {... */\n    tag_145:\n        /* \"@thirdweb-dev/contracts/extension/Ownable.sol\":822:828   */\n      and(sub(shl(0xa0, 0x01), 0x01), sload(0x09))\n        /* \"@thirdweb-dev/contracts/extension/Ownable.sol\":808:818   */\n      caller\n        /* \"@thirdweb-dev/contracts/extension/Ownable.sol\":808:828   */\n      eq\n        /* \"@thirdweb-dev/contracts/extension/Ownable.sol\":804:883   */\n      tag_393\n      jumpi\n        /* \"@thirdweb-dev/contracts/extension/Ownable.sol\":851:872   */\n      mload(0x40)\n      shl(0xe1, 0x16ccb9cb)\n      dup2\n      mstore\n      0x04\n      add\n      mload(0x40)\n      dup1\n      swap2\n      sub\n      swap1\n      revert\n        /* \"@thirdweb-dev/contracts/extension/Ownable.sol\":804:883   */\n    tag_393:\n        /* \"DontKilltheJamNFTMojoClaimRedeax.sol\":2469:2490  address(this).balance */\n      selfbalance\n        /* \"DontKilltheJamNFTMojoClaimRedeax.sol\":2508:2515  bal > 0 */\n      dup1\n        /* \"DontKilltheJamNFTMojoClaimRedeax.sol\":2500:2539  require(bal > 0, \"Nothing to withdraw\") */\n      tag_395\n      jumpi\n      mload(0x40)\n      shl(0xe5, 0x461bcd)\n      dup2\n      mstore\n        /* \"#utility.yul\":20891:20893   */\n      0x20\n        /* \"DontKilltheJamNFTMojoClaimRedeax.sol\":2500:2539  require(bal > 0, \"Nothing to withdraw\") */\n      0x04\n      dup3\n      add\n        /* \"#utility.yul\":20873:20894   */\n      mstore\n        /* \"#utility.yul\":20930:20932   */\n      0x13\n        /* \"#utility.yul\":20910:20928   */\n      0x24\n      dup3\n      add\n        /* \"#utility.yul\":20903:20933   */\n      mstore\n        /* \"#utility.yul\":20969:20990   */\n      0x4e6f7468696e6720746f20776974686472617700000000000000000000000000\n        /* \"#utility.yul\":20949:20967   */\n      0x44\n      dup3\n      add\n        /* \"#utility.yul\":20942:20991   */\n      mstore\n        /* \"#utility.yul\":21008:21026   */\n      0x64\n      add\n        /* \"DontKilltheJamNFTMojoClaimRedeax.sol\":2500:2539  require(bal > 0, \"Nothing to withdraw\") */\n      tag_284\n        /* \"#utility.yul\":20689:21032   */\n      jump\n        /* \"DontKilltheJamNFTMojoClaimRedeax.sol\":2500:2539  require(bal > 0, \"Nothing to withdraw\") */\n    tag_395:\n        /* \"@thirdweb-dev/contracts/extension/Ownable.sol\":1046:1052   */\n      sload(0x09)\n        /* \"DontKilltheJamNFTMojoClaimRedeax.sol\":2549:2579  payable(owner()).transfer(bal) */\n      mload(0x40)\n      sub(shl(0xa0, 0x01), 0x01)\n        /* \"@thirdweb-dev/contracts/extension/Ownable.sol\":1046:1052   */\n      swap1\n      swap2\n      and\n      swap1\n        /* \"DontKilltheJamNFTMojoClaimRedeax.sol\":2549:2579  payable(owner()).transfer(bal) */\n      dup3\n      iszero\n      0x08fc\n      mul\n      swap1\n        /* \"DontKilltheJamNFTMojoClaimRedeax.sol\":2575:2578  bal */\n      dup4\n      swap1\n        /* \"DontKilltheJamNFTMojoClaimRedeax.sol\":2549:2579  payable(owner()).transfer(bal) */\n      0x00\n      dup2\n      dup2\n      dup2\n        /* \"DontKilltheJamNFTMojoClaimRedeax.sol\":2575:2578  bal */\n      dup6\n        /* \"@thirdweb-dev/contracts/extension/Ownable.sol\":1046:1052   */\n      dup9\n        /* \"DontKilltheJamNFTMojoClaimRedeax.sol\":2549:2579  payable(owner()).transfer(bal) */\n      dup9\n      call\n      swap4\n      pop\n      pop\n      pop\n      pop\n      iszero\n      dup1\n      iszero\n      tag_289\n      jumpi\n      returndatasize\n      0x00\n      dup1\n      returndatacopy\n      revert(0x00, returndatasize)\n        /* \"DontKilltheJamNFTMojoClaimRedeax.sol\":835:1324  function mint(... */\n    tag_149:\n        /* \"DontKilltheJamNFTMojoClaimRedeax.sol\":1009:1016  mintFee */\n      sload(0x10)\n        /* \"DontKilltheJamNFTMojoClaimRedeax.sol\":996:1005  msg.value */\n      callvalue\n        /* \"DontKilltheJamNFTMojoClaimRedeax.sol\":996:1016  msg.value == mintFee */\n      eq\n        /* \"DontKilltheJamNFTMojoClaimRedeax.sol\":988:1044  require(msg.value == mintFee,            \"Bad mint fee\") */\n      tag_402\n      jumpi\n      mload(0x40)\n      shl(0xe5, 0x461bcd)\n      dup2\n      mstore\n        /* \"#utility.yul\":21239:21241   */\n      0x20\n        /* \"DontKilltheJamNFTMojoClaimRedeax.sol\":988:1044  require(msg.value == mintFee,            \"Bad mint fee\") */\n      0x04\n      dup3\n      add\n        /* \"#utility.yul\":21221:21242   */\n      mstore\n        /* \"#utility.yul\":21278:21280   */\n      0x0c\n        /* \"#utility.yul\":21258:21276   */\n      0x24\n      dup3\n      add\n        /* \"#utility.yul\":21251:21281   */\n      mstore\n        /* \"#utility.yul\":21317:21331   */\n      0x426164206d696e74206665650000000000000000000000000000000000000000\n        /* \"#utility.yul\":21297:21315   */\n      0x44\n      dup3\n      add\n        /* \"#utility.yul\":21290:21332   */\n      mstore\n        /* \"#utility.yul\":21349:21367   */\n      0x64\n      add\n        /* \"DontKilltheJamNFTMojoClaimRedeax.sol\":988:1044  require(msg.value == mintFee,            \"Bad mint fee\") */\n      tag_284\n        /* \"#utility.yul\":21037:21373   */\n      jump\n        /* \"DontKilltheJamNFTMojoClaimRedeax.sol\":988:1044  require(msg.value == mintFee,            \"Bad mint fee\") */\n    tag_402:\n        /* \"DontKilltheJamNFTMojoClaimRedeax.sol\":199:205  10_000 */\n      0x2710\n        /* \"DontKilltheJamNFTMojoClaimRedeax.sol\":1062:1075  totalSupply() */\n      tag_405\n        /* \"@thirdweb-dev/contracts/eip/ERC721AVirtualApprove.sol\":2541:2553   */\n      sload(0x01)\n        /* \"@thirdweb-dev/contracts/eip/ERC721AVirtualApprove.sol\":2335:2342   */\n      0x00\n        /* \"@thirdweb-dev/contracts/eip/ERC721AVirtualApprove.sol\":2525:2538   */\n      sload\n        /* \"@thirdweb-dev/contracts/eip/ERC721AVirtualApprove.sol\":2525:2553   */\n      sub\n      swap1\n        /* \"@thirdweb-dev/contracts/eip/ERC721AVirtualApprove.sol\":2282:2588   */\n      jump\n        /* \"DontKilltheJamNFTMojoClaimRedeax.sol\":1062:1075  totalSupply() */\n    tag_405:\n        /* \"DontKilltheJamNFTMojoClaimRedeax.sol\":1062:1088  totalSupply() < MAX_SUPPLY */\n      lt\n        /* \"DontKilltheJamNFTMojoClaimRedeax.sol\":1054:1106  require(totalSupply() < MAX_SUPPLY,      \"Sold out\") */\n      tag_406\n      jumpi\n      mload(0x40)\n      shl(0xe5, 0x461bcd)\n      dup2\n      mstore\n        /* \"#utility.yul\":21580:21582   */\n      0x20\n        /* \"DontKilltheJamNFTMojoClaimRedeax.sol\":1054:1106  require(totalSupply() < MAX_SUPPLY,      \"Sold out\") */\n      0x04\n      dup3\n      add\n        /* \"#utility.yul\":21562:21583   */\n      mstore\n        /* \"#utility.yul\":21619:21620   */\n      0x08\n        /* \"#utility.yul\":21599:21617   */\n      0x24\n      dup3\n      add\n        /* \"#utility.yul\":21592:21621   */\n      mstore\n        /* \"#utility.yul\":21657:21667   */\n      0x536f6c64206f7574000000000000000000000000000000000000000000000000\n        /* \"#utility.yul\":21637:21655   */\n      0x44\n      dup3\n      add\n        /* \"#utility.yul\":21630:21668   */\n      mstore\n        /* \"#utility.yul\":21685:21703   */\n      0x64\n      add\n        /* \"DontKilltheJamNFTMojoClaimRedeax.sol\":1054:1106  require(totalSupply() < MAX_SUPPLY,      \"Sold out\") */\n      tag_284\n        /* \"#utility.yul\":21378:21709   */\n      jump\n        /* \"DontKilltheJamNFTMojoClaimRedeax.sol\":1054:1106  require(totalSupply() < MAX_SUPPLY,      \"Sold out\") */\n    tag_406:\n        /* \"DontKilltheJamNFTMojoClaimRedeax.sol\":1117:1127  uint256 id */\n      0x00\n        /* \"@thirdweb-dev/contracts/base/ERC721Base.sol\":6219:6232   */\n      sload\n        /* \"DontKilltheJamNFTMojoClaimRedeax.sol\":1159:1176  _safeMint(to, id) */\n      tag_410\n        /* \"DontKilltheJamNFTMojoClaimRedeax.sol\":1169:1171  to */\n      dup8\n        /* \"@thirdweb-dev/contracts/base/ERC721Base.sol\":6219:6232   */\n      dup3\n        /* \"DontKilltheJamNFTMojoClaimRedeax.sol\":1159:1168  _safeMint */\n      tag_352\n        /* \"DontKilltheJamNFTMojoClaimRedeax.sol\":1159:1176  _safeMint(to, id) */\n      jump\t// in\n    tag_410:\n        /* \"DontKilltheJamNFTMojoClaimRedeax.sol\":1186:1212  _setTokenURI(id, tokenURI) */\n      tag_411\n        /* \"DontKilltheJamNFTMojoClaimRedeax.sol\":1199:1201  id */\n      dup2\n        /* \"DontKilltheJamNFTMojoClaimRedeax.sol\":1203:1211  tokenURI */\n      dup8\n      dup8\n        /* \"DontKilltheJamNFTMojoClaimRedeax.sol\":1186:1212  _setTokenURI(id, tokenURI) */\n      dup1\n      dup1\n      0x1f\n      add\n      0x20\n      dup1\n      swap2\n      div\n      mul\n      0x20\n      add\n      mload(0x40)\n      swap1\n      dup2\n      add\n      0x40\n      mstore\n      dup1\n      swap4\n      swap3\n      swap2\n      swap1\n      dup2\n      dup2\n      mstore\n      0x20\n      add\n      dup4\n      dup4\n      dup1\n      dup3\n      dup5\n      calldatacopy\n      0x00\n      swap3\n      add\n      swap2\n      swap1\n      swap2\n      mstore\n      pop\n        /* \"DontKilltheJamNFTMojoClaimRedeax.sol\":1186:1198  _setTokenURI */\n      tag_288\n      swap3\n      pop\n      pop\n      pop\n        /* \"DontKilltheJamNFTMojoClaimRedeax.sol\":1186:1212  _setTokenURI(id, tokenURI) */\n      jump\t// in\n    tag_411:\n        /* \"DontKilltheJamNFTMojoClaimRedeax.sol\":1222:1235  mojoScore[id] */\n      0x00\n      dup2\n      dup2\n      mstore\n        /* \"DontKilltheJamNFTMojoClaimRedeax.sol\":1222:1231  mojoScore */\n      0x11\n        /* \"DontKilltheJamNFTMojoClaimRedeax.sol\":1222:1235  mojoScore[id] */\n      0x20\n      swap1\n      dup2\n      mstore\n      0x40\n      dup1\n      dup4\n      keccak256\n        /* \"DontKilltheJamNFTMojoClaimRedeax.sol\":1222:1242  mojoScore[id] = mojo */\n      dup8\n      swap1\n      sstore\n        /* \"DontKilltheJamNFTMojoClaimRedeax.sol\":1252:1261  narrative */\n      0x12\n        /* \"DontKilltheJamNFTMojoClaimRedeax.sol\":1252:1265  narrative[id] */\n      swap1\n      swap2\n      mstore\n      swap1\n      keccak256\n        /* \"DontKilltheJamNFTMojoClaimRedeax.sol\":1252:1272  narrative[id] = narr */\n      tag_412\n        /* \"DontKilltheJamNFTMojoClaimRedeax.sol\":1268:1272  narr */\n      dup4\n      dup6\n        /* \"DontKilltheJamNFTMojoClaimRedeax.sol\":1252:1265  narrative[id] */\n      dup4\n        /* \"DontKilltheJamNFTMojoClaimRedeax.sol\":1252:1272  narrative[id] = narr */\n      tag_365\n      jump\t// in\n    tag_412:\n      pop\n        /* \"DontKilltheJamNFTMojoClaimRedeax.sol\":1302:1304  id */\n      dup1\n        /* \"DontKilltheJamNFTMojoClaimRedeax.sol\":1298:1300  to */\n      dup8\n      sub(shl(0xa0, 0x01), 0x01)\n        /* \"DontKilltheJamNFTMojoClaimRedeax.sol\":1288:1317  NFTMinted(to, id, mojo, narr) */\n      and\n      0x01f8bd07e6c27ff813d5c6d3c4bf0313a1d75043cf978214b504b794075e5266\n        /* \"DontKilltheJamNFTMojoClaimRedeax.sol\":1306:1310  mojo */\n      dup7\n        /* \"DontKilltheJamNFTMojoClaimRedeax.sol\":1312:1316  narr */\n      dup7\n      dup7\n        /* \"DontKilltheJamNFTMojoClaimRedeax.sol\":1288:1317  NFTMinted(to, id, mojo, narr) */\n      mload(0x40)\n      tag_413\n      swap4\n      swap3\n      swap2\n      swap1\n      tag_372\n      jump\t// in\n    tag_413:\n      mload(0x40)\n      dup1\n      swap2\n      sub\n      swap1\n      log3\n        /* \"DontKilltheJamNFTMojoClaimRedeax.sol\":978:1324  {... */\n      pop\n        /* \"DontKilltheJamNFTMojoClaimRedeax.sol\":835:1324  function mint(... */\n      pop\n      pop\n      pop\n      pop\n      pop\n      pop\n      jump\t// out\n        /* \"@thirdweb-dev/contracts/eip/ERC721AVirtualApprove.sol\":8654:8803   */\n    tag_153:\n        /* \"@thirdweb-dev/contracts/eip/ERC721AVirtualApprove.sol\":8757:8796   */\n      tag_320\n        /* \"@thirdweb-dev/contracts/eip/ERC721AVirtualApprove.sol\":8774:8778   */\n      dup4\n        /* \"@thirdweb-dev/contracts/eip/ERC721AVirtualApprove.sol\":8780:8782   */\n      dup4\n        /* \"@thirdweb-dev/contracts/eip/ERC721AVirtualApprove.sol\":8784:8791   */\n      dup4\n        /* \"@thirdweb-dev/contracts/eip/ERC721AVirtualApprove.sol\":8757:8796   */\n      mload(0x40)\n      dup1\n      0x20\n      add\n      0x40\n      mstore\n      dup1\n      0x00\n      dup2\n      mstore\n      pop\n        /* \"@thirdweb-dev/contracts/eip/ERC721AVirtualApprove.sol\":8757:8773   */\n      tag_254\n        /* \"@thirdweb-dev/contracts/eip/ERC721AVirtualApprove.sol\":8757:8796   */\n      jump\t// in\n        /* \"@thirdweb-dev/contracts/base/ERC721Base.sol\":5793:5880   */\n    tag_157:\n        /* \"@thirdweb-dev/contracts/base/ERC721Base.sol\":5852:5873   */\n      tag_326\n        /* \"@thirdweb-dev/contracts/base/ERC721Base.sol\":5858:5866   */\n      dup2\n        /* \"@thirdweb-dev/contracts/base/ERC721Base.sol\":5868:5872   */\n      0x01\n        /* \"@thirdweb-dev/contracts/base/ERC721Base.sol\":5852:5857   */\n      tag_418\n        /* \"@thirdweb-dev/contracts/base/ERC721Base.sol\":5852:5873   */\n      jump\t// in\n        /* \"@thirdweb-dev/contracts/base/ERC721Base.sol\":6571:6914   */\n    tag_161:\n        /* \"@thirdweb-dev/contracts/base/ERC721Base.sol\":6686:6710   */\n      0x00\n        /* \"@thirdweb-dev/contracts/base/ERC721Base.sol\":6722:6735   */\n      dup1\n        /* \"@thirdweb-dev/contracts/base/ERC721Base.sol\":6738:6755   */\n      tag_420\n        /* \"@thirdweb-dev/contracts/base/ERC721Base.sol\":6746:6754   */\n      dup4\n        /* \"@thirdweb-dev/contracts/base/ERC721Base.sol\":6738:6745   */\n      tag_183\n        /* \"@thirdweb-dev/contracts/base/ERC721Base.sol\":6738:6755   */\n      jump\t// in\n    tag_420:\n        /* \"@thirdweb-dev/contracts/base/ERC721Base.sol\":6722:6755   */\n      swap1\n      pop\n        /* \"@thirdweb-dev/contracts/base/ERC721Base.sol\":6801:6806   */\n      dup1\n      sub(shl(0xa0, 0x01), 0x01)\n        /* \"@thirdweb-dev/contracts/base/ERC721Base.sol\":6788:6806   */\n      and\n        /* \"@thirdweb-dev/contracts/base/ERC721Base.sol\":6788:6797   */\n      dup5\n      sub(shl(0xa0, 0x01), 0x01)\n        /* \"@thirdweb-dev/contracts/base/ERC721Base.sol\":6788:6806   */\n      and\n      eq\n        /* \"@thirdweb-dev/contracts/base/ERC721Base.sol\":6788:6856   */\n      dup1\n      tag_422\n      jumpi\n      pop\n      sub(shl(0xa0, 0x01), 0x01)\n        /* \"@thirdweb-dev/contracts/eip/ERC721AVirtualApprove.sol\":8350:8375   */\n      dup1\n      dup3\n      and\n        /* \"@thirdweb-dev/contracts/eip/ERC721AVirtualApprove.sol\":8327:8331   */\n      0x00\n        /* \"@thirdweb-dev/contracts/eip/ERC721AVirtualApprove.sol\":8350:8375   */\n      swap1\n      dup2\n      mstore\n        /* \"@thirdweb-dev/contracts/eip/ERC721AVirtualApprove.sol\":8350:8368   */\n      0x07\n        /* \"@thirdweb-dev/contracts/eip/ERC721AVirtualApprove.sol\":8350:8375   */\n      0x20\n      swap1\n      dup2\n      mstore\n      0x40\n      dup1\n      dup4\n      keccak256\n        /* \"@thirdweb-dev/contracts/eip/ERC721AVirtualApprove.sol\":8350:8385   */\n      swap4\n      dup9\n      and\n      dup4\n      mstore\n      swap3\n      swap1\n      mstore\n      keccak256\n      sload\n      0xff\n      and\n        /* \"@thirdweb-dev/contracts/base/ERC721Base.sol\":6822:6856   */\n    tag_422:\n        /* \"@thirdweb-dev/contracts/base/ERC721Base.sol\":6788:6906   */\n      dup1\n      tag_423\n      jumpi\n      pop\n        /* \"@thirdweb-dev/contracts/base/ERC721Base.sol\":6897:6906   */\n      dup4\n      sub(shl(0xa0, 0x01), 0x01)\n        /* \"@thirdweb-dev/contracts/base/ERC721Base.sol\":6872:6906   */\n      and\n        /* \"@thirdweb-dev/contracts/base/ERC721Base.sol\":6872:6893   */\n      tag_424\n        /* \"@thirdweb-dev/contracts/base/ERC721Base.sol\":6884:6892   */\n      dup5\n        /* \"@thirdweb-dev/contracts/base/ERC721Base.sol\":6872:6883   */\n      tag_87\n        /* \"@thirdweb-dev/contracts/base/ERC721Base.sol\":6872:6893   */\n      jump\t// in\n    tag_424:\n      sub(shl(0xa0, 0x01), 0x01)\n        /* \"@thirdweb-dev/contracts/base/ERC721Base.sol\":6872:6906   */\n      and\n      eq\n        /* \"@thirdweb-dev/contracts/base/ERC721Base.sol\":6788:6906   */\n    tag_423:\n        /* \"@thirdweb-dev/contracts/base/ERC721Base.sol\":6765:6907   */\n      swap5\n        /* \"@thirdweb-dev/contracts/base/ERC721Base.sol\":6571:6914   */\n      swap4\n      pop\n      pop\n      pop\n      pop\n      jump\t// out\n        /* \"@thirdweb-dev/contracts/extension/Royalty.sol\":2291:2672   */\n    tag_166:\n        /* \"@thirdweb-dev/contracts/extension/Royalty.sol\":2371:2378   */\n      0x00\n        /* \"@thirdweb-dev/contracts/extension/Royalty.sol\":2435:2464   */\n      dup2\n      dup2\n      mstore\n        /* \"@thirdweb-dev/contracts/extension/Royalty.sol\":2435:2454   */\n      0x0b\n        /* \"@thirdweb-dev/contracts/extension/Royalty.sol\":2435:2464   */\n      0x20\n      swap1\n      dup2\n      mstore\n      0x40\n      dup1\n      dup4\n      keccak256\n        /* \"@thirdweb-dev/contracts/extension/Royalty.sol\":2398:2464   */\n      dup2\n      mload\n      dup1\n      dup4\n      add\n      swap1\n      swap3\n      mstore\n      dup1\n      sload\n      sub(shl(0xa0, 0x01), 0x01)\n      and\n      dup1\n      dup4\n      mstore\n      0x01\n      swap1\n      swap2\n      add\n      sload\n      swap3\n      dup3\n      add\n      swap3\n      swap1\n      swap3\n      mstore\n        /* \"@thirdweb-dev/contracts/extension/Royalty.sol\":2371:2378   */\n      dup3\n      swap2\n        /* \"@thirdweb-dev/contracts/extension/Royalty.sol\":2494:2533   */\n      iszero\n        /* \"@thirdweb-dev/contracts/extension/Royalty.sol\":2494:2665   */\n      tag_426\n      jumpi\n        /* \"@thirdweb-dev/contracts/extension/Royalty.sol\":2610:2635   */\n      dup1\n      mload\n        /* \"@thirdweb-dev/contracts/extension/Royalty.sol\":2644:2663   */\n      0x20\n      dup3\n      add\n      mload\n        /* \"@thirdweb-dev/contracts/extension/Royalty.sol\":2494:2665   */\n      jump(tag_427)\n    tag_426:\n        /* \"@thirdweb-dev/contracts/extension/Royalty.sol\":2553:2569   */\n      sload(0x0a)\n      sub(shl(0xa0, 0x01), 0x01)\n      dup2\n      and\n      swap1\n      shl(0xa0, 0x01)\n        /* \"@thirdweb-dev/contracts/extension/Royalty.sol\":2578:2588   */\n      swap1\n      div\n      0xffff\n      and\n        /* \"@thirdweb-dev/contracts/extension/Royalty.sol\":2494:2665   */\n    tag_427:\n        /* \"@thirdweb-dev/contracts/extension/Royalty.sol\":2475:2665   */\n      swap3\n      pop\n      swap3\n      pop\n      pop\n        /* \"@thirdweb-dev/contracts/extension/Royalty.sol\":2291:2672   */\n      swap2\n      pop\n      swap2\n      jump\t// out\n        /* \"@thirdweb-dev/contracts/eip/queryable/ERC721AQueryable.sol\":1514:1973   */\n    tag_173:\n        /* \"@thirdweb-dev/contracts/eip/queryable/ERC721AQueryable.sol\":1687:1702   */\n      dup1\n      mload\n        /* \"@thirdweb-dev/contracts/eip/queryable/ERC721AQueryable.sol\":1603:1626   */\n      0x60\n      swap1\n        /* \"@thirdweb-dev/contracts/eip/queryable/ERC721AQueryable.sol\":1662:1684   */\n      0x00\n        /* \"@thirdweb-dev/contracts/eip/queryable/ERC721AQueryable.sol\":1687:1702   */\n      dup2\n        /* \"@thirdweb-dev/contracts/eip/queryable/ERC721AQueryable.sol\":1753:1789   */\n      0xffffffffffffffff\n      dup2\n      gt\n      iszero\n      tag_430\n      jumpi\n      tag_430\n      tag_431\n      jump\t// in\n    tag_430:\n      mload(0x40)\n      swap1\n      dup1\n      dup3\n      mstore\n      dup1\n      0x20\n      mul\n      0x20\n      add\n      dup3\n      add\n      0x40\n      mstore\n      dup1\n      iszero\n      tag_432\n      jumpi\n      dup2\n      0x20\n      add\n    tag_433:\n      0x40\n      dup1\n      mload\n      0x60\n      dup2\n      add\n      dup3\n      mstore\n      0x00\n      dup1\n      dup3\n      mstore\n      0x20\n      dup1\n      dup4\n      add\n      dup3\n      swap1\n      mstore\n      swap3\n      dup3\n      add\n      mstore\n      dup3\n      mstore\n      not(0x00)\n      swap1\n      swap3\n      add\n      swap2\n      add\n      dup2\n      tag_433\n      jumpi\n      swap1\n      pop\n    tag_432:\n      pop\n        /* \"@thirdweb-dev/contracts/eip/queryable/ERC721AQueryable.sol\":1716:1789   */\n      swap1\n      pop\n        /* \"@thirdweb-dev/contracts/eip/queryable/ERC721AQueryable.sol\":1808:1817   */\n      0x00\n        /* \"@thirdweb-dev/contracts/eip/queryable/ERC721AQueryable.sol\":1803:1926   */\n    tag_436:\n        /* \"@thirdweb-dev/contracts/eip/queryable/ERC721AQueryable.sol\":1824:1838   */\n      dup3\n        /* \"@thirdweb-dev/contracts/eip/queryable/ERC721AQueryable.sol\":1819:1820   */\n      dup2\n        /* \"@thirdweb-dev/contracts/eip/queryable/ERC721AQueryable.sol\":1819:1838   */\n      eq\n        /* \"@thirdweb-dev/contracts/eip/queryable/ERC721AQueryable.sol\":1803:1926   */\n      tag_437\n      jumpi\n        /* \"@thirdweb-dev/contracts/eip/queryable/ERC721AQueryable.sol\":1879:1911   */\n      tag_439\n        /* \"@thirdweb-dev/contracts/eip/queryable/ERC721AQueryable.sol\":1899:1907   */\n      dup6\n        /* \"@thirdweb-dev/contracts/eip/queryable/ERC721AQueryable.sol\":1908:1909   */\n      dup3\n        /* \"@thirdweb-dev/contracts/eip/queryable/ERC721AQueryable.sol\":1899:1910   */\n      dup2\n      mload\n      dup2\n      lt\n      tag_441\n      jumpi\n      tag_441\n      tag_356\n      jump\t// in\n    tag_441:\n      0x20\n      mul\n      0x20\n      add\n      add\n      mload\n        /* \"@thirdweb-dev/contracts/eip/queryable/ERC721AQueryable.sol\":1879:1898   */\n      tag_258\n        /* \"@thirdweb-dev/contracts/eip/queryable/ERC721AQueryable.sol\":1879:1911   */\n      jump\t// in\n    tag_439:\n        /* \"@thirdweb-dev/contracts/eip/queryable/ERC721AQueryable.sol\":1863:1873   */\n      dup3\n        /* \"@thirdweb-dev/contracts/eip/queryable/ERC721AQueryable.sol\":1874:1875   */\n      dup3\n        /* \"@thirdweb-dev/contracts/eip/queryable/ERC721AQueryable.sol\":1863:1876   */\n      dup2\n      mload\n      dup2\n      lt\n      tag_443\n      jumpi\n      tag_443\n      tag_356\n      jump\t// in\n    tag_443:\n      0x20\n      swap1\n      dup2\n      mul\n      swap2\n      swap1\n      swap2\n      add\n      add\n        /* \"@thirdweb-dev/contracts/eip/queryable/ERC721AQueryable.sol\":1863:1911   */\n      mstore\n        /* \"@thirdweb-dev/contracts/eip/queryable/ERC721AQueryable.sol\":1840:1843   */\n      0x01\n      add\n        /* \"@thirdweb-dev/contracts/eip/queryable/ERC721AQueryable.sol\":1803:1926   */\n      jump(tag_436)\n    tag_437:\n      pop\n        /* \"@thirdweb-dev/contracts/eip/queryable/ERC721AQueryable.sol\":1946:1956   */\n      swap4\n        /* \"@thirdweb-dev/contracts/eip/queryable/ERC721AQueryable.sol\":1514:1973   */\n      swap3\n      pop\n      pop\n      pop\n      jump\t// out\n        /* \"@thirdweb-dev/contracts/extension/Royalty.sol\":3370:3630   */\n    tag_179:\n        /* \"@thirdweb-dev/contracts/extension/Royalty.sol\":3482:3502   */\n      tag_445\n        /* \"@thirdweb-dev/contracts/extension/Royalty.sol\":3482:3500   */\n      tag_282\n        /* \"@thirdweb-dev/contracts/extension/Royalty.sol\":3482:3502   */\n      jump\t// in\n    tag_445:\n        /* \"@thirdweb-dev/contracts/extension/Royalty.sol\":3477:3557   */\n      tag_447\n      jumpi\n        /* \"@thirdweb-dev/contracts/extension/Royalty.sol\":3525:3546   */\n      mload(0x40)\n      shl(0xe1, 0x6fae3581)\n      dup2\n      mstore\n      0x04\n      add\n      mload(0x40)\n      dup1\n      swap2\n      sub\n      swap1\n      revert\n        /* \"@thirdweb-dev/contracts/extension/Royalty.sol\":3477:3557   */\n    tag_447:\n        /* \"@thirdweb-dev/contracts/extension/Royalty.sol\":3567:3623   */\n      tag_289\n        /* \"@thirdweb-dev/contracts/extension/Royalty.sol\":3592:3609   */\n      dup3\n        /* \"@thirdweb-dev/contracts/extension/Royalty.sol\":3611:3622   */\n      dup3\n        /* \"@thirdweb-dev/contracts/extension/Royalty.sol\":3567:3591   */\n      tag_449\n        /* \"@thirdweb-dev/contracts/extension/Royalty.sol\":3567:3623   */\n      jump\t// in\n        /* \"@thirdweb-dev/contracts/eip/ERC721AVirtualApprove.sol\":5944:6067   */\n    tag_183:\n        /* \"@thirdweb-dev/contracts/eip/ERC721AVirtualApprove.sol\":6008:6015   */\n      0x00\n        /* \"@thirdweb-dev/contracts/eip/ERC721AVirtualApprove.sol\":6034:6055   */\n      tag_451\n        /* \"@thirdweb-dev/contracts/eip/ERC721AVirtualApprove.sol\":6047:6054   */\n      dup3\n        /* \"@thirdweb-dev/contracts/eip/ERC721AVirtualApprove.sol\":6034:6046   */\n      tag_452\n        /* \"@thirdweb-dev/contracts/eip/ERC721AVirtualApprove.sol\":6034:6055   */\n      jump\t// in\n    tag_451:\n        /* \"@thirdweb-dev/contracts/eip/ERC721AVirtualApprove.sol\":6034:6060   */\n      mload\n      swap3\n        /* \"@thirdweb-dev/contracts/eip/ERC721AVirtualApprove.sol\":5944:6067   */\n      swap2\n      pop\n      pop\n      jump\t// out\n        /* \"@thirdweb-dev/contracts/eip/ERC721AVirtualApprove.sol\":3370:3573   */\n    tag_192:\n        /* \"@thirdweb-dev/contracts/eip/ERC721AVirtualApprove.sol\":3434:3441   */\n      0x00\n      sub(shl(0xa0, 0x01), 0x01)\n        /* \"@thirdweb-dev/contracts/eip/ERC721AVirtualApprove.sol\":3457:3476   */\n      dup3\n      and\n        /* \"@thirdweb-dev/contracts/eip/ERC721AVirtualApprove.sol\":3453:3513   */\n      tag_455\n      jumpi\n        /* \"@thirdweb-dev/contracts/eip/ERC721AVirtualApprove.sol\":3485:3513   */\n      mload(0x40)\n      shl(0xe2, 0x23d3ad81)\n      dup2\n      mstore\n      0x04\n      add\n      mload(0x40)\n      dup1\n      swap2\n      sub\n      swap1\n      revert\n        /* \"@thirdweb-dev/contracts/eip/ERC721AVirtualApprove.sol\":3453:3513   */\n    tag_455:\n      pop\n      sub(shl(0xa0, 0x01), 0x01)\n        /* \"@thirdweb-dev/contracts/eip/ERC721AVirtualApprove.sol\":3538:3557   */\n      and\n      0x00\n      swap1\n      dup2\n      mstore\n        /* \"@thirdweb-dev/contracts/eip/ERC721AVirtualApprove.sol\":3538:3550   */\n      0x05\n        /* \"@thirdweb-dev/contracts/eip/ERC721AVirtualApprove.sol\":3538:3557   */\n      0x20\n      mstore\n      0x40\n      swap1\n      keccak256\n        /* \"@thirdweb-dev/contracts/eip/ERC721AVirtualApprove.sol\":3538:3565   */\n      sload\n      0xffffffffffffffff\n      and\n      swap1\n        /* \"@thirdweb-dev/contracts/eip/ERC721AVirtualApprove.sol\":3370:3573   */\n      jump\t// out\n        /* \"@thirdweb-dev/contracts/base/ERC721Base.sol\":5232:5519   */\n    tag_198:\n        /* \"@thirdweb-dev/contracts/base/ERC721Base.sol\":5362:5372   */\n      tag_457\n        /* \"@thirdweb-dev/contracts/base/ERC721Base.sol\":5362:5370   */\n      tag_282\n        /* \"@thirdweb-dev/contracts/base/ERC721Base.sol\":5362:5372   */\n      jump\t// in\n    tag_457:\n        /* \"@thirdweb-dev/contracts/base/ERC721Base.sol\":5354:5400   */\n      tag_458\n      jumpi\n      mload(0x40)\n      shl(0xe5, 0x461bcd)\n      dup2\n      mstore\n        /* \"#utility.yul\":14956:14958   */\n      0x20\n        /* \"@thirdweb-dev/contracts/base/ERC721Base.sol\":5354:5400   */\n      0x04\n      dup3\n      add\n        /* \"#utility.yul\":14938:14959   */\n      mstore\n        /* \"#utility.yul\":14995:14997   */\n      0x17\n        /* \"#utility.yul\":14975:14993   */\n      0x24\n      dup3\n      add\n        /* \"#utility.yul\":14968:14998   */\n      mstore\n        /* \"#utility.yul\":15034:15059   */\n      0x4e6f7420617574686f72697a656420746f206d696e742e000000000000000000\n        /* \"#utility.yul\":15014:15032   */\n      0x44\n      dup3\n      add\n        /* \"#utility.yul\":15007:15060   */\n      mstore\n        /* \"#utility.yul\":15077:15095   */\n      0x64\n      add\n        /* \"@thirdweb-dev/contracts/base/ERC721Base.sol\":5354:5400   */\n      tag_284\n        /* \"#utility.yul\":14754:15101   */\n      jump\n        /* \"@thirdweb-dev/contracts/base/ERC721Base.sol\":5354:5400   */\n    tag_458:\n        /* \"@thirdweb-dev/contracts/base/ERC721Base.sol\":5410:5470   */\n      tag_460\n        /* \"@thirdweb-dev/contracts/base/ERC721Base.sol\":5429:5448   */\n      tag_461\n        /* \"@thirdweb-dev/contracts/base/ERC721Base.sol\":6193:6200   */\n      0x00\n        /* \"@thirdweb-dev/contracts/base/ERC721Base.sol\":6219:6232   */\n      sload\n      swap1\n        /* \"@thirdweb-dev/contracts/base/ERC721Base.sol\":6135:6239   */\n      jump\n        /* \"@thirdweb-dev/contracts/base/ERC721Base.sol\":5429:5448   */\n    tag_461:\n        /* \"@thirdweb-dev/contracts/base/ERC721Base.sol\":5450:5459   */\n      dup5\n        /* \"@thirdweb-dev/contracts/base/ERC721Base.sol\":5461:5469   */\n      dup5\n        /* \"@thirdweb-dev/contracts/base/ERC721Base.sol\":5410:5428   */\n      tag_462\n        /* \"@thirdweb-dev/contracts/base/ERC721Base.sol\":5410:5470   */\n      jump\t// in\n    tag_460:\n      pop\n      pop\n        /* \"@thirdweb-dev/contracts/base/ERC721Base.sol\":5480:5512   */\n      tag_463\n        /* \"@thirdweb-dev/contracts/base/ERC721Base.sol\":5490:5493   */\n      dup5\n        /* \"@thirdweb-dev/contracts/base/ERC721Base.sol\":5495:5504   */\n      dup5\n        /* \"@thirdweb-dev/contracts/base/ERC721Base.sol\":5506:5511   */\n      dup4\n        /* \"@thirdweb-dev/contracts/base/ERC721Base.sol\":5480:5489   */\n      tag_290\n        /* \"@thirdweb-dev/contracts/base/ERC721Base.sol\":5480:5512   */\n      jump\t// in\n    tag_463:\n        /* \"@thirdweb-dev/contracts/base/ERC721Base.sol\":5232:5519   */\n      pop\n      pop\n      pop\n      pop\n      jump\t// out\n        /* \"@thirdweb-dev/contracts/eip/queryable/ERC721AQueryable.sol\":5285:6155   */\n    tag_207:\n        /* \"@thirdweb-dev/contracts/eip/queryable/ERC721AQueryable.sol\":5355:5371   */\n      0x60\n        /* \"@thirdweb-dev/contracts/eip/queryable/ERC721AQueryable.sol\":5407:5426   */\n      0x00\n        /* \"@thirdweb-dev/contracts/eip/queryable/ERC721AQueryable.sol\":5440:5465   */\n      dup1\n        /* \"@thirdweb-dev/contracts/eip/queryable/ERC721AQueryable.sol\":5479:5501   */\n      0x00\n        /* \"@thirdweb-dev/contracts/eip/queryable/ERC721AQueryable.sol\":5504:5520   */\n      tag_465\n        /* \"@thirdweb-dev/contracts/eip/queryable/ERC721AQueryable.sol\":5514:5519   */\n      dup6\n        /* \"@thirdweb-dev/contracts/eip/queryable/ERC721AQueryable.sol\":5504:5513   */\n      tag_192\n        /* \"@thirdweb-dev/contracts/eip/queryable/ERC721AQueryable.sol\":5504:5520   */\n      jump\t// in\n    tag_465:\n        /* \"@thirdweb-dev/contracts/eip/queryable/ERC721AQueryable.sol\":5479:5520   */\n      swap1\n      pop\n        /* \"@thirdweb-dev/contracts/eip/queryable/ERC721AQueryable.sol\":5534:5559   */\n      0x00\n        /* \"@thirdweb-dev/contracts/eip/queryable/ERC721AQueryable.sol\":5576:5590   */\n      dup2\n        /* \"@thirdweb-dev/contracts/eip/queryable/ERC721AQueryable.sol\":5562:5591   */\n      0xffffffffffffffff\n      dup2\n      gt\n      iszero\n      tag_467\n      jumpi\n      tag_467\n      tag_431\n      jump\t// in\n    tag_467:\n      mload(0x40)\n      swap1\n      dup1\n      dup3\n      mstore\n      dup1\n      0x20\n      mul\n      0x20\n      add\n      dup3\n      add\n      0x40\n      mstore\n      dup1\n      iszero\n      tag_468\n      jumpi\n      dup2\n      0x20\n      add\n      0x20\n      dup3\n      mul\n      dup1\n      calldatasize\n      dup4\n      calldatacopy\n      add\n      swap1\n      pop\n    tag_468:\n      pop\n      0x40\n      dup1\n      mload\n      0x60\n      dup2\n      add\n      dup3\n      mstore\n      0x00\n      dup1\n      dup3\n      mstore\n      0x20\n      dup3\n      add\n      dup2\n      swap1\n      mstore\n      swap2\n      dup2\n      add\n      dup3\n      swap1\n      mstore\n        /* \"@thirdweb-dev/contracts/eip/queryable/ERC721AQueryable.sol\":5534:5591   */\n      swap2\n      swap3\n      pop\n        /* \"@thirdweb-dev/contracts/eip/queryable/ERC721AQueryable.sol\":5650:6110   */\n    tag_470:\n        /* \"@thirdweb-dev/contracts/eip/queryable/ERC721AQueryable.sol\":5699:5713   */\n      dup4\n        /* \"@thirdweb-dev/contracts/eip/queryable/ERC721AQueryable.sol\":5684:5695   */\n      dup7\n        /* \"@thirdweb-dev/contracts/eip/queryable/ERC721AQueryable.sol\":5684:5713   */\n      eq\n        /* \"@thirdweb-dev/contracts/eip/queryable/ERC721AQueryable.sol\":5650:6110   */\n      tag_471\n      jumpi\n        /* \"@thirdweb-dev/contracts/eip/queryable/ERC721AQueryable.sol\":5750:5764   */\n      0x00\n      dup2\n      dup2\n      mstore\n        /* \"@thirdweb-dev/contracts/eip/queryable/ERC721AQueryable.sol\":5750:5761   */\n      0x04\n        /* \"@thirdweb-dev/contracts/eip/queryable/ERC721AQueryable.sol\":5750:5764   */\n      0x20\n      swap1\n      dup2\n      mstore\n      0x40\n      swap2\n      dup3\n      swap1\n      keccak256\n        /* \"@thirdweb-dev/contracts/eip/queryable/ERC721AQueryable.sol\":5738:5764   */\n      dup3\n      mload\n      0x60\n      dup2\n      add\n      dup5\n      mstore\n      swap1\n      sload\n      sub(shl(0xa0, 0x01), 0x01)\n      dup2\n      and\n      dup3\n      mstore\n      shl(0xa0, 0x01)\n      dup2\n      div\n      0xffffffffffffffff\n      and\n      swap3\n      dup3\n      add\n      swap3\n      swap1\n      swap3\n      mstore\n      shl(0xe0, 0x01)\n      swap1\n      swap2\n      div\n      0xff\n      and\n      iszero\n      iszero\n      swap2\n      dup2\n      add\n      dup3\n      swap1\n      mstore\n      swap3\n      pop\n        /* \"@thirdweb-dev/contracts/eip/queryable/ERC721AQueryable.sol\":5826:5834   */\n      tag_476\n        /* \"@thirdweb-dev/contracts/eip/queryable/ERC721AQueryable.sol\":5782:5853   */\n      jumpi\n        /* \"@thirdweb-dev/contracts/eip/queryable/ERC721AQueryable.sol\":5874:5888   */\n      dup2\n      mload\n      sub(shl(0xa0, 0x01), 0x01)\n        /* \"@thirdweb-dev/contracts/eip/queryable/ERC721AQueryable.sol\":5874:5902   */\n      and\n      iszero\n        /* \"@thirdweb-dev/contracts/eip/queryable/ERC721AQueryable.sol\":5870:5979   */\n      tag_475\n      jumpi\n        /* \"@thirdweb-dev/contracts/eip/queryable/ERC721AQueryable.sol\":5946:5960   */\n      dup2\n      mload\n      swap5\n      pop\n        /* \"@thirdweb-dev/contracts/eip/queryable/ERC721AQueryable.sol\":5870:5979   */\n    tag_475:\n        /* \"@thirdweb-dev/contracts/eip/queryable/ERC721AQueryable.sol\":6021:6026   */\n      dup8\n      sub(shl(0xa0, 0x01), 0x01)\n        /* \"@thirdweb-dev/contracts/eip/queryable/ERC721AQueryable.sol\":6000:6026   */\n      and\n        /* \"@thirdweb-dev/contracts/eip/queryable/ERC721AQueryable.sol\":6000:6017   */\n      dup6\n      sub(shl(0xa0, 0x01), 0x01)\n        /* \"@thirdweb-dev/contracts/eip/queryable/ERC721AQueryable.sol\":6000:6026   */\n      and\n      sub\n        /* \"@thirdweb-dev/contracts/eip/queryable/ERC721AQueryable.sol\":5996:6096   */\n      tag_476\n      jumpi\n        /* \"@thirdweb-dev/contracts/eip/queryable/ERC721AQueryable.sol\":6076:6077   */\n      dup1\n        /* \"@thirdweb-dev/contracts/eip/queryable/ERC721AQueryable.sol\":6050:6058   */\n      dup4\n        /* \"@thirdweb-dev/contracts/eip/queryable/ERC721AQueryable.sol\":6059:6072   */\n      dup8\n      dup1\n      0x01\n      add\n      swap9\n      pop\n        /* \"@thirdweb-dev/contracts/eip/queryable/ERC721AQueryable.sol\":6050:6073   */\n      dup2\n      mload\n      dup2\n      lt\n      tag_478\n      jumpi\n      tag_478\n      tag_356\n      jump\t// in\n    tag_478:\n      0x20\n      mul\n      0x20\n      add\n      add\n        /* \"@thirdweb-dev/contracts/eip/queryable/ERC721AQueryable.sol\":6050:6077   */\n      dup2\n      dup2\n      mstore\n      pop\n      pop\n        /* \"@thirdweb-dev/contracts/eip/queryable/ERC721AQueryable.sol\":5996:6096   */\n    tag_476:\n        /* \"@thirdweb-dev/contracts/eip/queryable/ERC721AQueryable.sol\":5715:5718   */\n      0x01\n      add\n        /* \"@thirdweb-dev/contracts/eip/queryable/ERC721AQueryable.sol\":5650:6110   */\n      jump(tag_470)\n    tag_471:\n      pop\n        /* \"@thirdweb-dev/contracts/eip/queryable/ERC721AQueryable.sol\":6130:6138   */\n      swap1\n      swap7\n        /* \"@thirdweb-dev/contracts/eip/queryable/ERC721AQueryable.sol\":5285:6155   */\n      swap6\n      pop\n      pop\n      pop\n      pop\n      pop\n      pop\n      jump\t// out\n        /* \"@thirdweb-dev/contracts/extension/ContractMetadata.sol\":1110:1311   */\n    tag_218:\n        /* \"@thirdweb-dev/contracts/extension/ContractMetadata.sol\":1187:1207   */\n      tag_481\n        /* \"@thirdweb-dev/contracts/extension/ContractMetadata.sol\":1187:1205   */\n      tag_282\n        /* \"@thirdweb-dev/contracts/extension/ContractMetadata.sol\":1187:1207   */\n      jump\t// in\n    tag_481:\n        /* \"@thirdweb-dev/contracts/extension/ContractMetadata.sol\":1182:1271   */\n      tag_483\n      jumpi\n        /* \"@thirdweb-dev/contracts/extension/ContractMetadata.sol\":1230:1260   */\n      mload(0x40)\n      shl(0xe0, 0x9f7f0925)\n      dup2\n      mstore\n      0x04\n      add\n      mload(0x40)\n      dup1\n      swap2\n      sub\n      swap1\n      revert\n        /* \"@thirdweb-dev/contracts/extension/ContractMetadata.sol\":1182:1271   */\n    tag_483:\n        /* \"@thirdweb-dev/contracts/extension/ContractMetadata.sol\":1281:1304   */\n      tag_326\n        /* \"@thirdweb-dev/contracts/extension/ContractMetadata.sol\":1299:1303   */\n      dup2\n        /* \"@thirdweb-dev/contracts/extension/ContractMetadata.sol\":1281:1298   */\n      tag_485\n        /* \"@thirdweb-dev/contracts/extension/ContractMetadata.sol\":1281:1304   */\n      jump\t// in\n        /* \"@thirdweb-dev/contracts/eip/ERC721AVirtualApprove.sol\":6291:6393   */\n    tag_221:\n        /* \"@thirdweb-dev/contracts/eip/ERC721AVirtualApprove.sol\":6347:6360   */\n      0x60\n        /* \"@thirdweb-dev/contracts/eip/ERC721AVirtualApprove.sol\":6379:6386   */\n      0x03\n        /* \"@thirdweb-dev/contracts/eip/ERC721AVirtualApprove.sol\":6372:6386   */\n      dup1\n      sload\n      tag_302\n      swap1\n      tag_292\n      jump\t// in\n        /* \"@thirdweb-dev/contracts/eip/queryable/ERC721AQueryable.sol\":2374:4822   */\n    tag_227:\n        /* \"@thirdweb-dev/contracts/eip/queryable/ERC721AQueryable.sol\":2505:2521   */\n      0x60\n        /* \"@thirdweb-dev/contracts/eip/queryable/ERC721AQueryable.sol\":2570:2574   */\n      dup2\n        /* \"@thirdweb-dev/contracts/eip/queryable/ERC721AQueryable.sol\":2561:2566   */\n      dup4\n        /* \"@thirdweb-dev/contracts/eip/queryable/ERC721AQueryable.sol\":2561:2574   */\n      lt\n        /* \"@thirdweb-dev/contracts/eip/queryable/ERC721AQueryable.sol\":2557:2602   */\n      tag_493\n      jumpi\n        /* \"@thirdweb-dev/contracts/eip/queryable/ERC721AQueryable.sol\":2583:2602   */\n      mload(0x40)\n      shl(0xe1, 0x1960ccad)\n      dup2\n      mstore\n      0x04\n      add\n      mload(0x40)\n      dup1\n      swap2\n      sub\n      swap1\n      revert\n        /* \"@thirdweb-dev/contracts/eip/queryable/ERC721AQueryable.sol\":2557:2602   */\n    tag_493:\n        /* \"@thirdweb-dev/contracts/eip/queryable/ERC721AQueryable.sol\":2616:2635   */\n      0x00\n        /* \"@thirdweb-dev/contracts/eip/queryable/ERC721AQueryable.sol\":2669:2682   */\n      dup1\n      sload\n        /* \"@thirdweb-dev/contracts/eip/queryable/ERC721AQueryable.sol\":2917:2926   */\n      dup1\n        /* \"@thirdweb-dev/contracts/eip/queryable/ERC721AQueryable.sol\":2910:2914   */\n      dup5\n        /* \"@thirdweb-dev/contracts/eip/queryable/ERC721AQueryable.sol\":2910:2926   */\n      gt\n        /* \"@thirdweb-dev/contracts/eip/queryable/ERC721AQueryable.sol\":2906:2977   */\n      iszero\n      tag_497\n      jumpi\n        /* \"@thirdweb-dev/contracts/eip/queryable/ERC721AQueryable.sol\":2953:2962   */\n      dup1\n        /* \"@thirdweb-dev/contracts/eip/queryable/ERC721AQueryable.sol\":2946:2962   */\n      swap4\n      pop\n        /* \"@thirdweb-dev/contracts/eip/queryable/ERC721AQueryable.sol\":2906:2977   */\n    tag_497:\n        /* \"@thirdweb-dev/contracts/eip/queryable/ERC721AQueryable.sol\":2990:3015   */\n      0x00\n        /* \"@thirdweb-dev/contracts/eip/queryable/ERC721AQueryable.sol\":3018:3034   */\n      tag_498\n        /* \"@thirdweb-dev/contracts/eip/queryable/ERC721AQueryable.sol\":3028:3033   */\n      dup8\n        /* \"@thirdweb-dev/contracts/eip/queryable/ERC721AQueryable.sol\":3018:3027   */\n      tag_192\n        /* \"@thirdweb-dev/contracts/eip/queryable/ERC721AQueryable.sol\":3018:3034   */\n      jump\t// in\n    tag_498:\n        /* \"@thirdweb-dev/contracts/eip/queryable/ERC721AQueryable.sol\":2990:3034   */\n      swap1\n      pop\n        /* \"@thirdweb-dev/contracts/eip/queryable/ERC721AQueryable.sol\":3209:3213   */\n      dup5\n        /* \"@thirdweb-dev/contracts/eip/queryable/ERC721AQueryable.sol\":3201:3206   */\n      dup7\n        /* \"@thirdweb-dev/contracts/eip/queryable/ERC721AQueryable.sol\":3201:3213   */\n      lt\n        /* \"@thirdweb-dev/contracts/eip/queryable/ERC721AQueryable.sol\":3197:3468   */\n      iszero\n      tag_499\n      jumpi\n        /* \"@thirdweb-dev/contracts/eip/queryable/ERC721AQueryable.sol\":3255:3267   */\n      dup6\n      dup6\n      sub\n        /* \"@thirdweb-dev/contracts/eip/queryable/ERC721AQueryable.sol\":3289:3320   */\n      dup2\n      dup2\n      lt\n        /* \"@thirdweb-dev/contracts/eip/queryable/ERC721AQueryable.sol\":3285:3394   */\n      iszero\n      tag_500\n      jumpi\n        /* \"@thirdweb-dev/contracts/eip/queryable/ERC721AQueryable.sol\":3364:3375   */\n      dup1\n        /* \"@thirdweb-dev/contracts/eip/queryable/ERC721AQueryable.sol\":3344:3375   */\n      swap2\n      pop\n        /* \"@thirdweb-dev/contracts/eip/queryable/ERC721AQueryable.sol\":3285:3394   */\n    tag_500:\n        /* \"@thirdweb-dev/contracts/eip/queryable/ERC721AQueryable.sol\":3215:3408   */\n      pop\n        /* \"@thirdweb-dev/contracts/eip/queryable/ERC721AQueryable.sol\":3197:3468   */\n      jump(tag_501)\n    tag_499:\n      pop\n        /* \"@thirdweb-dev/contracts/eip/queryable/ERC721AQueryable.sol\":3452:3453   */\n      0x00\n        /* \"@thirdweb-dev/contracts/eip/queryable/ERC721AQueryable.sol\":3197:3468   */\n    tag_501:\n        /* \"@thirdweb-dev/contracts/eip/queryable/ERC721AQueryable.sol\":3481:3506   */\n      0x00\n        /* \"@thirdweb-dev/contracts/eip/queryable/ERC721AQueryable.sol\":3523:3540   */\n      dup2\n        /* \"@thirdweb-dev/contracts/eip/queryable/ERC721AQueryable.sol\":3509:3541   */\n      0xffffffffffffffff\n      dup2\n      gt\n      iszero\n      tag_503\n      jumpi\n      tag_503\n      tag_431\n      jump\t// in\n    tag_503:\n      mload(0x40)\n      swap1\n      dup1\n      dup3\n      mstore\n      dup1\n      0x20\n      mul\n      0x20\n      add\n      dup3\n      add\n      0x40\n      mstore\n      dup1\n      iszero\n      tag_504\n      jumpi\n      dup2\n      0x20\n      add\n      0x20\n      dup3\n      mul\n      dup1\n      calldatasize\n      dup4\n      calldatacopy\n      add\n      swap1\n      pop\n    tag_504:\n      pop\n        /* \"@thirdweb-dev/contracts/eip/queryable/ERC721AQueryable.sol\":3481:3541   */\n      swap1\n      pop\n        /* \"@thirdweb-dev/contracts/eip/queryable/ERC721AQueryable.sol\":3559:3576   */\n      dup2\n        /* \"@thirdweb-dev/contracts/eip/queryable/ERC721AQueryable.sol\":3580:3581   */\n      0x00\n        /* \"@thirdweb-dev/contracts/eip/queryable/ERC721AQueryable.sol\":3559:3581   */\n      sub\n        /* \"@thirdweb-dev/contracts/eip/queryable/ERC721AQueryable.sol\":3555:3631   */\n      tag_505\n      jumpi\n        /* \"@thirdweb-dev/contracts/eip/queryable/ERC721AQueryable.sol\":3608:3616   */\n      swap4\n      pop\n        /* \"@thirdweb-dev/contracts/eip/queryable/ERC721AQueryable.sol\":3601:3616   */\n      tag_492\n      swap3\n      pop\n      pop\n      pop\n      jump\n        /* \"@thirdweb-dev/contracts/eip/queryable/ERC721AQueryable.sol\":3555:3631   */\n    tag_505:\n        /* \"@thirdweb-dev/contracts/eip/queryable/ERC721AQueryable.sol\":3772:3803   */\n      0x00\n        /* \"@thirdweb-dev/contracts/eip/queryable/ERC721AQueryable.sol\":3806:3832   */\n      tag_506\n        /* \"@thirdweb-dev/contracts/eip/queryable/ERC721AQueryable.sol\":3826:3831   */\n      dup9\n        /* \"@thirdweb-dev/contracts/eip/queryable/ERC721AQueryable.sol\":3806:3825   */\n      tag_258\n        /* \"@thirdweb-dev/contracts/eip/queryable/ERC721AQueryable.sol\":3806:3832   */\n      jump\t// in\n    tag_506:\n        /* \"@thirdweb-dev/contracts/eip/queryable/ERC721AQueryable.sol\":3772:3832   */\n      swap1\n      pop\n        /* \"@thirdweb-dev/contracts/eip/queryable/ERC721AQueryable.sol\":3846:3871   */\n      0x00\n        /* \"@thirdweb-dev/contracts/eip/queryable/ERC721AQueryable.sol\":4088:4097   */\n      dup2\n        /* \"@thirdweb-dev/contracts/eip/queryable/ERC721AQueryable.sol\":4088:4104   */\n      0x40\n      add\n      mload\n        /* \"@thirdweb-dev/contracts/eip/queryable/ERC721AQueryable.sol\":4083:4173   */\n      tag_507\n      jumpi\n      pop\n        /* \"@thirdweb-dev/contracts/eip/queryable/ERC721AQueryable.sol\":4144:4158   */\n      dup1\n      mload\n        /* \"@thirdweb-dev/contracts/eip/queryable/ERC721AQueryable.sol\":4083:4173   */\n    tag_507:\n        /* \"@thirdweb-dev/contracts/eip/queryable/ERC721AQueryable.sol\":4203:4208   */\n      dup9\n        /* \"@thirdweb-dev/contracts/eip/queryable/ERC721AQueryable.sol\":4186:4652   */\n    tag_508:\n        /* \"@thirdweb-dev/contracts/eip/queryable/ERC721AQueryable.sol\":4215:4219   */\n      dup9\n        /* \"@thirdweb-dev/contracts/eip/queryable/ERC721AQueryable.sol\":4210:4211   */\n      dup2\n        /* \"@thirdweb-dev/contracts/eip/queryable/ERC721AQueryable.sol\":4210:4219   */\n      eq\n      iszero\n        /* \"@thirdweb-dev/contracts/eip/queryable/ERC721AQueryable.sol\":4210:4255   */\n      dup1\n      iszero\n      tag_511\n      jumpi\n      pop\n        /* \"@thirdweb-dev/contracts/eip/queryable/ERC721AQueryable.sol\":4238:4255   */\n      dup5\n        /* \"@thirdweb-dev/contracts/eip/queryable/ERC721AQueryable.sol\":4223:4234   */\n      dup8\n        /* \"@thirdweb-dev/contracts/eip/queryable/ERC721AQueryable.sol\":4223:4255   */\n      eq\n      iszero\n        /* \"@thirdweb-dev/contracts/eip/queryable/ERC721AQueryable.sol\":4210:4255   */\n    tag_511:\n        /* \"@thirdweb-dev/contracts/eip/queryable/ERC721AQueryable.sol\":4186:4652   */\n      iszero\n      tag_509\n      jumpi\n        /* \"@thirdweb-dev/contracts/eip/queryable/ERC721AQueryable.sol\":4292:4306   */\n      0x00\n      dup2\n      dup2\n      mstore\n        /* \"@thirdweb-dev/contracts/eip/queryable/ERC721AQueryable.sol\":4292:4303   */\n      0x04\n        /* \"@thirdweb-dev/contracts/eip/queryable/ERC721AQueryable.sol\":4292:4306   */\n      0x20\n      swap1\n      dup2\n      mstore\n      0x40\n      swap2\n      dup3\n      swap1\n      keccak256\n        /* \"@thirdweb-dev/contracts/eip/queryable/ERC721AQueryable.sol\":4280:4306   */\n      dup3\n      mload\n      0x60\n      dup2\n      add\n      dup5\n      mstore\n      swap1\n      sload\n      sub(shl(0xa0, 0x01), 0x01)\n      dup2\n      and\n      dup3\n      mstore\n      shl(0xa0, 0x01)\n      dup2\n      div\n      0xffffffffffffffff\n      and\n      swap3\n      dup3\n      add\n      swap3\n      swap1\n      swap3\n      mstore\n      shl(0xe0, 0x01)\n      swap1\n      swap2\n      div\n      0xff\n      and\n      iszero\n      iszero\n      swap2\n      dup2\n      add\n      dup3\n      swap1\n      mstore\n      swap4\n      pop\n        /* \"@thirdweb-dev/contracts/eip/queryable/ERC721AQueryable.sol\":4368:4376   */\n      tag_514\n        /* \"@thirdweb-dev/contracts/eip/queryable/ERC721AQueryable.sol\":4324:4395   */\n      jumpi\n        /* \"@thirdweb-dev/contracts/eip/queryable/ERC721AQueryable.sol\":4416:4430   */\n      dup3\n      mload\n      sub(shl(0xa0, 0x01), 0x01)\n        /* \"@thirdweb-dev/contracts/eip/queryable/ERC721AQueryable.sol\":4416:4444   */\n      and\n      iszero\n        /* \"@thirdweb-dev/contracts/eip/queryable/ERC721AQueryable.sol\":4412:4521   */\n      tag_513\n      jumpi\n        /* \"@thirdweb-dev/contracts/eip/queryable/ERC721AQueryable.sol\":4488:4502   */\n      dup3\n      mload\n      swap2\n      pop\n        /* \"@thirdweb-dev/contracts/eip/queryable/ERC721AQueryable.sol\":4412:4521   */\n    tag_513:\n        /* \"@thirdweb-dev/contracts/eip/queryable/ERC721AQueryable.sol\":4563:4568   */\n      dup11\n      sub(shl(0xa0, 0x01), 0x01)\n        /* \"@thirdweb-dev/contracts/eip/queryable/ERC721AQueryable.sol\":4542:4568   */\n      and\n        /* \"@thirdweb-dev/contracts/eip/queryable/ERC721AQueryable.sol\":4542:4559   */\n      dup3\n      sub(shl(0xa0, 0x01), 0x01)\n        /* \"@thirdweb-dev/contracts/eip/queryable/ERC721AQueryable.sol\":4542:4568   */\n      and\n      sub\n        /* \"@thirdweb-dev/contracts/eip/queryable/ERC721AQueryable.sol\":4538:4638   */\n      tag_514\n      jumpi\n        /* \"@thirdweb-dev/contracts/eip/queryable/ERC721AQueryable.sol\":4618:4619   */\n      dup1\n        /* \"@thirdweb-dev/contracts/eip/queryable/ERC721AQueryable.sol\":4592:4600   */\n      dup5\n        /* \"@thirdweb-dev/contracts/eip/queryable/ERC721AQueryable.sol\":4601:4614   */\n      dup9\n      dup1\n      0x01\n      add\n      swap10\n      pop\n        /* \"@thirdweb-dev/contracts/eip/queryable/ERC721AQueryable.sol\":4592:4615   */\n      dup2\n      mload\n      dup2\n      lt\n      tag_516\n      jumpi\n      tag_516\n      tag_356\n      jump\t// in\n    tag_516:\n      0x20\n      mul\n      0x20\n      add\n      add\n        /* \"@thirdweb-dev/contracts/eip/queryable/ERC721AQueryable.sol\":4592:4619   */\n      dup2\n      dup2\n      mstore\n      pop\n      pop\n        /* \"@thirdweb-dev/contracts/eip/queryable/ERC721AQueryable.sol\":4538:4638   */\n    tag_514:\n        /* \"@thirdweb-dev/contracts/eip/queryable/ERC721AQueryable.sol\":4257:4260   */\n      0x01\n      add\n        /* \"@thirdweb-dev/contracts/eip/queryable/ERC721AQueryable.sol\":4186:4652   */\n      jump(tag_508)\n    tag_509:\n      pop\n      pop\n      pop\n        /* \"@thirdweb-dev/contracts/eip/queryable/ERC721AQueryable.sol\":4734:4763   */\n      swap3\n      dup4\n      mstore\n      pop\n        /* \"@thirdweb-dev/contracts/eip/queryable/ERC721AQueryable.sol\":4741:4749   */\n      swap1\n      swap2\n      pop\n      pop\n        /* \"@thirdweb-dev/contracts/eip/queryable/ERC721AQueryable.sol\":2374:4822   */\n    tag_492:\n      swap4\n      swap3\n      pop\n      pop\n      pop\n      jump\t// out\n        /* \"@thirdweb-dev/contracts/extension/Royalty.sol\":4595:4857   */\n    tag_233:\n        /* \"@thirdweb-dev/contracts/extension/Royalty.sol\":4712:4732   */\n      tag_518\n        /* \"@thirdweb-dev/contracts/extension/Royalty.sol\":4712:4730   */\n      tag_282\n        /* \"@thirdweb-dev/contracts/extension/Royalty.sol\":4712:4732   */\n      jump\t// in\n    tag_518:\n        /* \"@thirdweb-dev/contracts/extension/Royalty.sol\":4707:4787   */\n      tag_519\n      jumpi\n        /* \"@thirdweb-dev/contracts/extension/Royalty.sol\":4755:4776   */\n      mload(0x40)\n      shl(0xe1, 0x6fae3581)\n      dup2\n      mstore\n      0x04\n      add\n      mload(0x40)\n      dup1\n      swap2\n      sub\n      swap1\n      revert\n        /* \"@thirdweb-dev/contracts/extension/Royalty.sol\":4707:4787   */\n    tag_519:\n        /* \"@thirdweb-dev/contracts/extension/Royalty.sol\":4797:4850   */\n      tag_320\n        /* \"@thirdweb-dev/contracts/extension/Royalty.sol\":4823:4831   */\n      dup4\n        /* \"@thirdweb-dev/contracts/extension/Royalty.sol\":4833:4843   */\n      dup4\n        /* \"@thirdweb-dev/contracts/extension/Royalty.sol\":4845:4849   */\n      dup4\n        /* \"@thirdweb-dev/contracts/extension/Royalty.sol\":4797:4822   */\n      tag_521\n        /* \"@thirdweb-dev/contracts/extension/Royalty.sol\":4797:4850   */\n      jump\t// in\n        /* \"@thirdweb-dev/contracts/eip/ERC721AVirtualApprove.sol\":7882:8164   */\n    tag_238:\n        /* \"@thirdweb-dev/contracts/base/ERC721Base.sol\":8521:8531   */\n      caller\n      sub(shl(0xa0, 0x01), 0x01)\n        /* \"@thirdweb-dev/contracts/eip/ERC721AVirtualApprove.sol\":7980:8004   */\n      dup4\n      and\n      sub\n        /* \"@thirdweb-dev/contracts/eip/ERC721AVirtualApprove.sol\":7976:8030   */\n      tag_524\n      jumpi\n        /* \"@thirdweb-dev/contracts/eip/ERC721AVirtualApprove.sol\":8013:8030   */\n      mload(0x40)\n      shl(0xe0, 0xb06307db)\n      dup2\n      mstore\n      0x04\n      add\n      mload(0x40)\n      dup1\n      swap2\n      sub\n      swap1\n      revert\n        /* \"@thirdweb-dev/contracts/eip/ERC721AVirtualApprove.sol\":7976:8030   */\n    tag_524:\n        /* \"@thirdweb-dev/contracts/base/ERC721Base.sol\":8521:8531   */\n      caller\n        /* \"@thirdweb-dev/contracts/eip/ERC721AVirtualApprove.sol\":8041:8073   */\n      0x00\n      dup2\n      dup2\n      mstore\n        /* \"@thirdweb-dev/contracts/eip/ERC721AVirtualApprove.sol\":8041:8059   */\n      0x07\n        /* \"@thirdweb-dev/contracts/eip/ERC721AVirtualApprove.sol\":8041:8073   */\n      0x20\n      swap1\n      dup2\n      mstore\n      0x40\n      dup1\n      dup4\n      keccak256\n      sub(shl(0xa0, 0x01), 0x01)\n        /* \"@thirdweb-dev/contracts/eip/ERC721AVirtualApprove.sol\":8041:8083   */\n      dup8\n      and\n      dup1\n      dup6\n      mstore\n      swap1\n      dup4\n      mstore\n      swap3\n      dup2\n      swap1\n      keccak256\n        /* \"@thirdweb-dev/contracts/eip/ERC721AVirtualApprove.sol\":8041:8094   */\n      dup1\n      sload\n      not(0xff)\n      and\n      dup7\n      iszero\n      iszero\n      swap1\n      dup2\n      or\n      swap1\n      swap2\n      sstore\n        /* \"@thirdweb-dev/contracts/eip/ERC721AVirtualApprove.sol\":8109:8157   */\n      swap1\n      mload\n        /* \"#utility.yul\":2816:2857   */\n      swap1\n      dup2\n      mstore\n        /* \"@thirdweb-dev/contracts/eip/ERC721AVirtualApprove.sol\":8041:8083   */\n      swap2\n      swap3\n        /* \"@thirdweb-dev/contracts/base/ERC721Base.sol\":8521:8531   */\n      swap2\n        /* \"@thirdweb-dev/contracts/eip/ERC721AVirtualApprove.sol\":8109:8157   */\n      0x17307eab39ab6107e8899845ad3d59bd9653f200f220920489ca2b5937696c31\n      swap2\n        /* \"#utility.yul\":2789:2807   */\n      add\n        /* \"@thirdweb-dev/contracts/eip/ERC721AVirtualApprove.sol\":8109:8157   */\n      mload(0x40)\n      dup1\n      swap2\n      sub\n      swap1\n      log3\n        /* \"@thirdweb-dev/contracts/eip/ERC721AVirtualApprove.sol\":7882:8164   */\n      pop\n      pop\n      jump\t// out\n        /* \"@thirdweb-dev/contracts/extension/Multicall.sol\":696:1263   */\n    tag_243:\n        /* \"@thirdweb-dev/contracts/extension/Multicall.sol\":756:778   */\n      0x60\n        /* \"@thirdweb-dev/contracts/extension/Multicall.sol\":812:816   */\n      dup2\n        /* \"@thirdweb-dev/contracts/extension/Multicall.sol\":800:824   */\n      0xffffffffffffffff\n      dup2\n      gt\n      iszero\n      tag_530\n      jumpi\n      tag_530\n      tag_431\n      jump\t// in\n    tag_530:\n      mload(0x40)\n      swap1\n      dup1\n      dup3\n      mstore\n      dup1\n      0x20\n      mul\n      0x20\n      add\n      dup3\n      add\n      0x40\n      mstore\n      dup1\n      iszero\n      tag_531\n      jumpi\n      dup2\n      0x20\n      add\n    tag_532:\n      0x60\n      dup2\n      mstore\n      0x20\n      add\n      swap1\n      0x01\n      swap1\n      sub\n      swap1\n      dup2\n      tag_532\n      jumpi\n      swap1\n      pop\n    tag_531:\n      pop\n        /* \"@thirdweb-dev/contracts/extension/Multicall.sol\":790:824   */\n      swap1\n      pop\n        /* \"@thirdweb-dev/contracts/base/ERC721Base.sol\":8521:8531   */\n      caller\n        /* \"@thirdweb-dev/contracts/extension/Multicall.sol\":834:848   */\n      0x00\n      dup1\n        /* \"@thirdweb-dev/contracts/extension/Multicall.sol\":922:1233   */\n    tag_534:\n        /* \"@thirdweb-dev/contracts/extension/Multicall.sol\":942:957   */\n      dup5\n      dup2\n      lt\n        /* \"@thirdweb-dev/contracts/extension/Multicall.sol\":922:1233   */\n      iszero\n      tag_535\n      jumpi\n        /* \"@thirdweb-dev/contracts/extension/Multicall.sol\":982:993   */\n      dup2\n        /* \"@thirdweb-dev/contracts/extension/Multicall.sol\":978:1223   */\n      iszero\n      tag_537\n      jumpi\n        /* \"@thirdweb-dev/contracts/extension/Multicall.sol\":1026:1104   */\n      tag_538\n        /* \"@thirdweb-dev/contracts/extension/Multicall.sol\":1063:1067   */\n      address\n        /* \"@thirdweb-dev/contracts/extension/Multicall.sol\":1087:1091   */\n      dup8\n      dup8\n        /* \"@thirdweb-dev/contracts/extension/Multicall.sol\":1092:1093   */\n      dup5\n        /* \"@thirdweb-dev/contracts/extension/Multicall.sol\":1087:1094   */\n      dup2\n      dup2\n      lt\n      tag_540\n      jumpi\n      tag_540\n      tag_356\n      jump\t// in\n    tag_540:\n      swap1\n      pop\n      0x20\n      mul\n      dup2\n      add\n      swap1\n      tag_541\n      swap2\n      swap1\n      tag_358\n      jump\t// in\n    tag_541:\n        /* \"@thirdweb-dev/contracts/extension/Multicall.sol\":1096:1102   */\n      dup7\n        /* \"@thirdweb-dev/contracts/extension/Multicall.sol\":1070:1103   */\n      add(0x20, mload(0x40))\n      tag_543\n      swap4\n      swap3\n      swap2\n      swap1\n      tag_544\n      jump\t// in\n    tag_543:\n      mload(0x40)\n      0x20\n      dup2\n      dup4\n      sub\n      sub\n      dup2\n      mstore\n      swap1\n      0x40\n      mstore\n        /* \"@thirdweb-dev/contracts/extension/Multicall.sol\":1026:1054   */\n      tag_545\n        /* \"@thirdweb-dev/contracts/extension/Multicall.sol\":1026:1104   */\n      jump\t// in\n    tag_538:\n        /* \"@thirdweb-dev/contracts/extension/Multicall.sol\":1013:1020   */\n      dup5\n        /* \"@thirdweb-dev/contracts/extension/Multicall.sol\":1021:1022   */\n      dup3\n        /* \"@thirdweb-dev/contracts/extension/Multicall.sol\":1013:1023   */\n      dup2\n      mload\n      dup2\n      lt\n      tag_547\n      jumpi\n      tag_547\n      tag_356\n      jump\t// in\n    tag_547:\n      0x20\n      mul\n      0x20\n      add\n      add\n        /* \"@thirdweb-dev/contracts/extension/Multicall.sol\":1013:1104   */\n      dup2\n      swap1\n      mstore\n      pop\n        /* \"@thirdweb-dev/contracts/extension/Multicall.sol\":978:1223   */\n      jump(tag_548)\n    tag_537:\n        /* \"@thirdweb-dev/contracts/extension/Multicall.sol\":1156:1208   */\n      tag_549\n        /* \"@thirdweb-dev/contracts/extension/Multicall.sol\":1193:1197   */\n      address\n        /* \"@thirdweb-dev/contracts/extension/Multicall.sol\":1200:1204   */\n      dup8\n      dup8\n        /* \"@thirdweb-dev/contracts/extension/Multicall.sol\":1205:1206   */\n      dup5\n        /* \"@thirdweb-dev/contracts/extension/Multicall.sol\":1200:1207   */\n      dup2\n      dup2\n      lt\n      tag_551\n      jumpi\n      tag_551\n      tag_356\n      jump\t// in\n    tag_551:\n      swap1\n      pop\n      0x20\n      mul\n      dup2\n      add\n      swap1\n      tag_552\n      swap2\n      swap1\n      tag_358\n      jump\t// in\n    tag_552:\n        /* \"@thirdweb-dev/contracts/extension/Multicall.sol\":1156:1208   */\n      dup1\n      dup1\n      0x1f\n      add\n      0x20\n      dup1\n      swap2\n      div\n      mul\n      0x20\n      add\n      mload(0x40)\n      swap1\n      dup2\n      add\n      0x40\n      mstore\n      dup1\n      swap4\n      swap3\n      swap2\n      swap1\n      dup2\n      dup2\n      mstore\n      0x20\n      add\n      dup4\n      dup4\n      dup1\n      dup3\n      dup5\n      calldatacopy\n      0x00\n      swap3\n      add\n      swap2\n      swap1\n      swap2\n      mstore\n      pop\n        /* \"@thirdweb-dev/contracts/extension/Multicall.sol\":1156:1184   */\n      tag_545\n      swap3\n      pop\n      pop\n      pop\n        /* \"@thirdweb-dev/contracts/extension/Multicall.sol\":1156:1208   */\n      jump\t// in\n    tag_549:\n        /* \"@thirdweb-dev/contracts/extension/Multicall.sol\":1143:1150   */\n      dup5\n        /* \"@thirdweb-dev/contracts/extension/Multicall.sol\":1151:1152   */\n      dup3\n        /* \"@thirdweb-dev/contracts/extension/Multicall.sol\":1143:1153   */\n      dup2\n      mload\n      dup2\n      lt\n      tag_554\n      jumpi\n      tag_554\n      tag_356\n      jump\t// in\n    tag_554:\n      0x20\n      mul\n      0x20\n      add\n      add\n        /* \"@thirdweb-dev/contracts/extension/Multicall.sol\":1143:1208   */\n      dup2\n      swap1\n      mstore\n      pop\n        /* \"@thirdweb-dev/contracts/extension/Multicall.sol\":978:1223   */\n    tag_548:\n        /* \"@thirdweb-dev/contracts/extension/Multicall.sol\":959:962   */\n      0x01\n      add\n        /* \"@thirdweb-dev/contracts/extension/Multicall.sol\":922:1233   */\n      jump(tag_534)\n    tag_535:\n      pop\n        /* \"@thirdweb-dev/contracts/extension/Multicall.sol\":1242:1256   */\n      pop\n      pop\n        /* \"@thirdweb-dev/contracts/extension/Multicall.sol\":696:1263   */\n      swap3\n      swap2\n      pop\n      pop\n      jump\t// out\n        /* \"@thirdweb-dev/contracts/eip/ERC721AVirtualApprove.sol\":8869:9212   */\n    tag_254:\n        /* \"@thirdweb-dev/contracts/eip/ERC721AVirtualApprove.sol\":8992:9020   */\n      tag_557\n        /* \"@thirdweb-dev/contracts/eip/ERC721AVirtualApprove.sol\":9002:9006   */\n      dup5\n        /* \"@thirdweb-dev/contracts/eip/ERC721AVirtualApprove.sol\":9008:9010   */\n      dup5\n        /* \"@thirdweb-dev/contracts/eip/ERC721AVirtualApprove.sol\":9012:9019   */\n      dup5\n        /* \"@thirdweb-dev/contracts/eip/ERC721AVirtualApprove.sol\":8992:9001   */\n      tag_378\n        /* \"@thirdweb-dev/contracts/eip/ERC721AVirtualApprove.sol\":8992:9020   */\n      jump\t// in\n    tag_557:\n      sub(shl(0xa0, 0x01), 0x01)\n        /* \"@thirdweb-dev/contracts/eip/ERC721AVirtualApprove.sol\":9034:9047   */\n      dup4\n      and\n        /* \"@thirdweb-dev/contracts/lib/Address.sol\":1695:1714   */\n      extcodesize\n        /* \"@thirdweb-dev/contracts/lib/Address.sol\":1695:1718   */\n      iszero\n        /* \"@thirdweb-dev/contracts/eip/ERC721AVirtualApprove.sol\":9030:9206   */\n      tag_463\n      jumpi\n        /* \"@thirdweb-dev/contracts/eip/ERC721AVirtualApprove.sol\":9068:9124   */\n      tag_561\n        /* \"@thirdweb-dev/contracts/eip/ERC721AVirtualApprove.sol\":9099:9103   */\n      dup5\n        /* \"@thirdweb-dev/contracts/eip/ERC721AVirtualApprove.sol\":9105:9107   */\n      dup5\n        /* \"@thirdweb-dev/contracts/eip/ERC721AVirtualApprove.sol\":9109:9116   */\n      dup5\n        /* \"@thirdweb-dev/contracts/eip/ERC721AVirtualApprove.sol\":9118:9123   */\n      dup5\n        /* \"@thirdweb-dev/contracts/eip/ERC721AVirtualApprove.sol\":9068:9098   */\n      tag_562\n        /* \"@thirdweb-dev/contracts/eip/ERC721AVirtualApprove.sol\":9068:9124   */\n      jump\t// in\n    tag_561:\n        /* \"@thirdweb-dev/contracts/eip/ERC721AVirtualApprove.sol\":9063:9206   */\n      tag_463\n      jumpi\n        /* \"@thirdweb-dev/contracts/eip/ERC721AVirtualApprove.sol\":9151:9191   */\n      mload(0x40)\n      shl(0xe1, 0x68d2bf6b)\n      dup2\n      mstore\n      0x04\n      add\n      mload(0x40)\n      dup1\n      swap2\n      sub\n      swap1\n      revert\n        /* \"@thirdweb-dev/contracts/eip/queryable/ERC721AQueryable.sol\":953:1361   */\n    tag_258:\n      0x40\n      dup1\n      mload\n      0x60\n      dup1\n      dup3\n      add\n      dup4\n      mstore\n      0x00\n      dup1\n      dup4\n      mstore\n      0x20\n      dup1\n      dup5\n      add\n      dup3\n      swap1\n      mstore\n      dup4\n      dup6\n      add\n      dup3\n      swap1\n      mstore\n      dup5\n      mload\n      swap3\n      dup4\n      add\n      dup6\n      mstore\n      dup2\n      dup4\n      mstore\n      dup3\n      add\n      dup2\n      swap1\n      mstore\n      swap3\n      dup2\n      add\n      dup4\n      swap1\n      mstore\n      swap1\n      swap2\n        /* \"@thirdweb-dev/contracts/eip/queryable/ERC721AQueryable.sol\":1107:1160   */\n      pop\n        /* \"@thirdweb-dev/contracts/eip/queryable/ERC721AQueryable.sol\":1147:1160   */\n      sload(0x00)\n        /* \"@thirdweb-dev/contracts/eip/queryable/ERC721AQueryable.sol\":1136:1143   */\n      dup4\n        /* \"@thirdweb-dev/contracts/eip/queryable/ERC721AQueryable.sol\":1136:1160   */\n      lt\n        /* \"@thirdweb-dev/contracts/eip/queryable/ERC721AQueryable.sol\":1103:1203   */\n      tag_569\n      jumpi\n        /* \"@thirdweb-dev/contracts/eip/queryable/ERC721AQueryable.sol\":1183:1192   */\n      swap3\n        /* \"@thirdweb-dev/contracts/eip/queryable/ERC721AQueryable.sol\":953:1361   */\n      swap2\n      pop\n      pop\n      jump\t// out\n        /* \"@thirdweb-dev/contracts/eip/queryable/ERC721AQueryable.sol\":1103:1203   */\n    tag_569:\n      pop\n        /* \"@thirdweb-dev/contracts/eip/queryable/ERC721AQueryable.sol\":1224:1244   */\n      0x00\n      dup3\n      dup2\n      mstore\n        /* \"@thirdweb-dev/contracts/eip/queryable/ERC721AQueryable.sol\":1224:1235   */\n      0x04\n        /* \"@thirdweb-dev/contracts/eip/queryable/ERC721AQueryable.sol\":1224:1244   */\n      0x20\n      swap1\n      dup2\n      mstore\n      0x40\n      swap2\n      dup3\n      swap1\n      keccak256\n        /* \"@thirdweb-dev/contracts/eip/queryable/ERC721AQueryable.sol\":1212:1244   */\n      dup3\n      mload\n      0x60\n      dup2\n      add\n      dup5\n      mstore\n      swap1\n      sload\n      sub(shl(0xa0, 0x01), 0x01)\n      dup2\n      and\n      dup3\n      mstore\n      shl(0xa0, 0x01)\n      dup2\n      div\n      0xffffffffffffffff\n      and\n      swap3\n      dup3\n      add\n      swap3\n      swap1\n      swap3\n      mstore\n      shl(0xe0, 0x01)\n      swap1\n      swap2\n      div\n      0xff\n      and\n      iszero\n      dup1\n      iszero\n      swap3\n      dup3\n      add\n      swap3\n      swap1\n      swap3\n      mstore\n      swap1\n        /* \"@thirdweb-dev/contracts/eip/queryable/ERC721AQueryable.sol\":1254:1317   */\n      tag_570\n      jumpi\n        /* \"@thirdweb-dev/contracts/eip/queryable/ERC721AQueryable.sol\":1297:1306   */\n      swap3\n        /* \"@thirdweb-dev/contracts/eip/queryable/ERC721AQueryable.sol\":953:1361   */\n      swap2\n      pop\n      pop\n      jump\t// out\n        /* \"@thirdweb-dev/contracts/eip/queryable/ERC721AQueryable.sol\":1254:1317   */\n    tag_570:\n        /* \"@thirdweb-dev/contracts/eip/queryable/ERC721AQueryable.sol\":1333:1354   */\n      tag_492\n        /* \"@thirdweb-dev/contracts/eip/queryable/ERC721AQueryable.sol\":1346:1353   */\n      dup4\n        /* \"@thirdweb-dev/contracts/eip/queryable/ERC721AQueryable.sol\":1333:1345   */\n      tag_452\n        /* \"@thirdweb-dev/contracts/eip/queryable/ERC721AQueryable.sol\":1333:1354   */\n      jump\t// in\n        /* \"@thirdweb-dev/contracts/base/ERC721Base.sol\":3513:3918   */\n    tag_264:\n        /* \"@thirdweb-dev/contracts/base/ERC721Base.sol\":3638:3667   */\n      0x00\n        /* \"@thirdweb-dev/contracts/base/ERC721Base.sol\":3670:3687   */\n      dup2\n      dup2\n      mstore\n        /* \"@thirdweb-dev/contracts/base/ERC721Base.sol\":3670:3677   */\n      0x0f\n        /* \"@thirdweb-dev/contracts/base/ERC721Base.sol\":3670:3687   */\n      0x20\n      mstore\n      0x40\n      dup2\n      keccak256\n        /* \"@thirdweb-dev/contracts/base/ERC721Base.sol\":3638:3687   */\n      dup1\n      sload\n        /* \"@thirdweb-dev/contracts/base/ERC721Base.sol\":3613:3626   */\n      0x60\n      swap3\n        /* \"@thirdweb-dev/contracts/base/ERC721Base.sol\":3638:3667   */\n      swap2\n        /* \"@thirdweb-dev/contracts/base/ERC721Base.sol\":3670:3687   */\n      swap1\n        /* \"@thirdweb-dev/contracts/base/ERC721Base.sol\":3638:3687   */\n      tag_573\n      swap1\n      tag_292\n      jump\t// in\n    tag_573:\n      dup1\n      0x1f\n      add\n      0x20\n      dup1\n      swap2\n      div\n      mul\n      0x20\n      add\n      mload(0x40)\n      swap1\n      dup2\n      add\n      0x40\n      mstore\n      dup1\n      swap3\n      swap2\n      swap1\n      dup2\n      dup2\n      mstore\n      0x20\n      add\n      dup3\n      dup1\n      sload\n      tag_574\n      swap1\n      tag_292\n      jump\t// in\n    tag_574:\n      dup1\n      iszero\n      tag_575\n      jumpi\n      dup1\n      0x1f\n      lt\n      tag_576\n      jumpi\n      0x0100\n      dup1\n      dup4\n      sload\n      div\n      mul\n      dup4\n      mstore\n      swap2\n      0x20\n      add\n      swap2\n      jump(tag_575)\n    tag_576:\n      dup3\n      add\n      swap2\n      swap1\n      0x00\n      mstore\n      keccak256(0x00, 0x20)\n      swap1\n    tag_577:\n      dup2\n      sload\n      dup2\n      mstore\n      swap1\n      0x01\n      add\n      swap1\n      0x20\n      add\n      dup1\n      dup4\n      gt\n      tag_577\n      jumpi\n      dup3\n      swap1\n      sub\n      0x1f\n      and\n      dup3\n      add\n      swap2\n    tag_575:\n      pop\n      pop\n      pop\n      pop\n      pop\n      swap1\n      pop\n        /* \"@thirdweb-dev/contracts/base/ERC721Base.sol\":3733:3734   */\n      0x00\n        /* \"@thirdweb-dev/contracts/base/ERC721Base.sol\":3707:3722   */\n      dup2\n        /* \"@thirdweb-dev/contracts/base/ERC721Base.sol\":3701:3730   */\n      mload\n        /* \"@thirdweb-dev/contracts/base/ERC721Base.sol\":3701:3734   */\n      gt\n        /* \"@thirdweb-dev/contracts/base/ERC721Base.sol\":3697:3783   */\n      iszero\n      tag_578\n      jumpi\n        /* \"@thirdweb-dev/contracts/base/ERC721Base.sol\":3757:3772   */\n      swap3\n        /* \"@thirdweb-dev/contracts/base/ERC721Base.sol\":3513:3918   */\n      swap2\n      pop\n      pop\n      jump\t// out\n        /* \"@thirdweb-dev/contracts/base/ERC721Base.sol\":3697:3783   */\n    tag_578:\n        /* \"@thirdweb-dev/contracts/base/ERC721Base.sol\":3793:3815   */\n      0x00\n        /* \"@thirdweb-dev/contracts/base/ERC721Base.sol\":3818:3839   */\n      tag_579\n        /* \"@thirdweb-dev/contracts/base/ERC721Base.sol\":3830:3838   */\n      dup5\n        /* \"@thirdweb-dev/contracts/base/ERC721Base.sol\":3818:3829   */\n      tag_580\n        /* \"@thirdweb-dev/contracts/base/ERC721Base.sol\":3818:3839   */\n      jump\t// in\n    tag_579:\n        /* \"@thirdweb-dev/contracts/base/ERC721Base.sol\":3793:3839   */\n      swap1\n      pop\n        /* \"@thirdweb-dev/contracts/base/ERC721Base.sol\":3880:3888   */\n      dup1\n        /* \"@thirdweb-dev/contracts/base/ERC721Base.sol\":3890:3909   */\n      tag_581\n        /* \"@thirdweb-dev/contracts/base/ERC721Base.sol\":3890:3898   */\n      dup6\n        /* \"@thirdweb-dev/contracts/base/ERC721Base.sol\":3890:3907   */\n      tag_582\n        /* \"@thirdweb-dev/contracts/base/ERC721Base.sol\":3890:3909   */\n      jump\t// in\n    tag_581:\n        /* \"@thirdweb-dev/contracts/base/ERC721Base.sol\":3863:3910   */\n      add(0x20, mload(0x40))\n      tag_583\n      swap3\n      swap2\n      swap1\n      tag_584\n      jump\t// in\n    tag_583:\n      mload(0x40)\n      0x20\n      dup2\n      dup4\n      sub\n      sub\n      dup2\n      mstore\n      swap1\n      0x40\n      mstore\n        /* \"@thirdweb-dev/contracts/base/ERC721Base.sol\":3849:3911   */\n      swap3\n      pop\n      pop\n      pop\n        /* \"@thirdweb-dev/contracts/base/ERC721Base.sol\":3513:3918   */\n      swap2\n      swap1\n      pop\n      jump\t// out\n        /* \"@thirdweb-dev/contracts/extension/ContractMetadata.sol\":672:706   */\n    tag_268:\n      0x08\n      dup1\n      sload\n      tag_291\n      swap1\n      tag_292\n      jump\t// in\n        /* \"DontKilltheJamNFTMojoClaimRedeax.sol\":2285:2367  function setMintFee(uint256 fee) external onlyOwner {... */\n    tag_279:\n        /* \"@thirdweb-dev/contracts/extension/Ownable.sol\":822:828   */\n      and(sub(shl(0xa0, 0x01), 0x01), sload(0x09))\n        /* \"@thirdweb-dev/contracts/extension/Ownable.sol\":808:818   */\n      caller\n        /* \"@thirdweb-dev/contracts/extension/Ownable.sol\":808:828   */\n      eq\n        /* \"@thirdweb-dev/contracts/extension/Ownable.sol\":804:883   */\n      tag_592\n      jumpi\n        /* \"@thirdweb-dev/contracts/extension/Ownable.sol\":851:872   */\n      mload(0x40)\n      shl(0xe1, 0x16ccb9cb)\n      dup2\n      mstore\n      0x04\n      add\n      mload(0x40)\n      dup1\n      swap2\n      sub\n      swap1\n      revert\n        /* \"@thirdweb-dev/contracts/extension/Ownable.sol\":804:883   */\n    tag_592:\n        /* \"DontKilltheJamNFTMojoClaimRedeax.sol\":2347:2354  mintFee */\n      0x10\n        /* \"DontKilltheJamNFTMojoClaimRedeax.sol\":2347:2360  mintFee = fee */\n      sstore\n        /* \"DontKilltheJamNFTMojoClaimRedeax.sol\":2285:2367  function setMintFee(uint256 fee) external onlyOwner {... */\n      jump\t// out\n        /* \"@thirdweb-dev/contracts/base/ERC721Base.sol\":7835:7937   */\n    tag_282:\n        /* \"@thirdweb-dev/contracts/base/ERC721Base.sol\":7886:7890   */\n      0x00\n        /* \"@thirdweb-dev/contracts/base/ERC721Base.sol\":7923:7930   */\n      tag_595\n        /* \"@thirdweb-dev/contracts/extension/Ownable.sol\":1046:1052   */\n      and(sub(shl(0xa0, 0x01), 0x01), sload(0x09))\n      swap1\n        /* \"@thirdweb-dev/contracts/extension/Ownable.sol\":973:1059   */\n      jump\n        /* \"@thirdweb-dev/contracts/base/ERC721Base.sol\":7923:7930   */\n    tag_595:\n      sub(shl(0xa0, 0x01), 0x01)\n        /* \"@thirdweb-dev/contracts/base/ERC721Base.sol\":7909:7930   */\n      and\n        /* \"@thirdweb-dev/contracts/base/ERC721Base.sol\":7909:7919   */\n      caller\n      sub(shl(0xa0, 0x01), 0x01)\n        /* \"@thirdweb-dev/contracts/base/ERC721Base.sol\":7909:7930   */\n      and\n      eq\n        /* \"@thirdweb-dev/contracts/base/ERC721Base.sol\":7902:7930   */\n      swap1\n      pop\n        /* \"@thirdweb-dev/contracts/base/ERC721Base.sol\":7835:7937   */\n      swap1\n      jump\t// out\n        /* \"@thirdweb-dev/contracts/base/ERC721Base.sol\":7327:7529   */\n    tag_288:\n        /* \"@thirdweb-dev/contracts/base/ERC721Base.sol\":7433:7450   */\n      0x00\n      dup3\n      dup2\n      mstore\n        /* \"@thirdweb-dev/contracts/base/ERC721Base.sol\":7433:7440   */\n      0x0f\n        /* \"@thirdweb-dev/contracts/base/ERC721Base.sol\":7433:7450   */\n      0x20\n      mstore\n      0x40\n      swap1\n      keccak256\n        /* \"@thirdweb-dev/contracts/base/ERC721Base.sol\":7427:7458   */\n      dup1\n      sload\n      tag_597\n      swap1\n      tag_292\n      jump\t// in\n    tag_597:\n        /* \"@thirdweb-dev/contracts/base/ERC721Base.sol\":7427:7463   */\n      iszero\n      swap1\n      pop\n        /* \"@thirdweb-dev/contracts/base/ERC721Base.sol\":7419:7483   */\n      tag_598\n      jumpi\n      mload(0x40)\n      shl(0xe5, 0x461bcd)\n      dup2\n      mstore\n        /* \"#utility.yul\":23296:23298   */\n      0x20\n        /* \"@thirdweb-dev/contracts/base/ERC721Base.sol\":7419:7483   */\n      0x04\n      dup3\n      add\n        /* \"#utility.yul\":23278:23299   */\n      mstore\n        /* \"#utility.yul\":23335:23337   */\n      0x0f\n        /* \"#utility.yul\":23315:23333   */\n      0x24\n      dup3\n      add\n        /* \"#utility.yul\":23308:23338   */\n      mstore\n        /* \"#utility.yul\":23374:23391   */\n      0x55524920616c7265616479207365740000000000000000000000000000000000\n        /* \"#utility.yul\":23354:23372   */\n      0x44\n      dup3\n      add\n        /* \"#utility.yul\":23347:23392   */\n      mstore\n        /* \"#utility.yul\":23409:23427   */\n      0x64\n      add\n        /* \"@thirdweb-dev/contracts/base/ERC721Base.sol\":7419:7483   */\n      tag_284\n        /* \"#utility.yul\":23094:23433   */\n      jump\n        /* \"@thirdweb-dev/contracts/base/ERC721Base.sol\":7419:7483   */\n    tag_598:\n        /* \"@thirdweb-dev/contracts/base/ERC721Base.sol\":7493:7510   */\n      0x00\n      dup3\n      dup2\n      mstore\n        /* \"@thirdweb-dev/contracts/base/ERC721Base.sol\":7493:7500   */\n      0x0f\n        /* \"@thirdweb-dev/contracts/base/ERC721Base.sol\":7493:7510   */\n      0x20\n      mstore\n      0x40\n      swap1\n      keccak256\n        /* \"@thirdweb-dev/contracts/base/ERC721Base.sol\":7493:7522   */\n      tag_320\n        /* \"@thirdweb-dev/contracts/base/ERC721Base.sol\":7513:7522   */\n      dup3\n        /* \"@thirdweb-dev/contracts/base/ERC721Base.sol\":7493:7510   */\n      dup3\n        /* \"@thirdweb-dev/contracts/base/ERC721Base.sol\":7493:7522   */\n      tag_602\n      jump\t// in\n        /* \"@thirdweb-dev/contracts/eip/ERC721AVirtualApprove.sol\":10171:11849   */\n    tag_290:\n        /* \"@thirdweb-dev/contracts/eip/ERC721AVirtualApprove.sol\":10259:10279   */\n      0x00\n        /* \"@thirdweb-dev/contracts/eip/ERC721AVirtualApprove.sol\":10282:10295   */\n      sload\n      sub(shl(0xa0, 0x01), 0x01)\n        /* \"@thirdweb-dev/contracts/eip/ERC721AVirtualApprove.sol\":10309:10325   */\n      dup5\n      and\n        /* \"@thirdweb-dev/contracts/eip/ERC721AVirtualApprove.sol\":10305:10353   */\n      tag_604\n      jumpi\n        /* \"@thirdweb-dev/contracts/eip/ERC721AVirtualApprove.sol\":10334:10353   */\n      mload(0x40)\n      shl(0xe8, 0x2e0763)\n      dup2\n      mstore\n      0x04\n      add\n      mload(0x40)\n      dup1\n      swap2\n      sub\n      swap1\n      revert\n        /* \"@thirdweb-dev/contracts/eip/ERC721AVirtualApprove.sol\":10305:10353   */\n    tag_604:\n        /* \"@thirdweb-dev/contracts/eip/ERC721AVirtualApprove.sol\":10367:10375   */\n      dup3\n        /* \"@thirdweb-dev/contracts/eip/ERC721AVirtualApprove.sol\":10379:10380   */\n      0x00\n        /* \"@thirdweb-dev/contracts/eip/ERC721AVirtualApprove.sol\":10367:10380   */\n      sub\n        /* \"@thirdweb-dev/contracts/eip/ERC721AVirtualApprove.sol\":10363:10407   */\n      tag_605\n      jumpi\n        /* \"@thirdweb-dev/contracts/eip/ERC721AVirtualApprove.sol\":10389:10407   */\n      mload(0x40)\n      shl(0xe0, 0xb562e8dd)\n      dup2\n      mstore\n      0x04\n      add\n      mload(0x40)\n      dup1\n      swap2\n      sub\n      swap1\n      revert\n        /* \"@thirdweb-dev/contracts/eip/ERC721AVirtualApprove.sol\":10363:10407   */\n    tag_605:\n      sub(shl(0xa0, 0x01), 0x01)\n        /* \"@thirdweb-dev/contracts/eip/ERC721AVirtualApprove.sol\":10750:10766   */\n      dup5\n      and\n      0x00\n      dup2\n      dup2\n      mstore\n        /* \"@thirdweb-dev/contracts/eip/ERC721AVirtualApprove.sol\":10750:10762   */\n      0x05\n        /* \"@thirdweb-dev/contracts/eip/ERC721AVirtualApprove.sol\":10750:10766   */\n      0x20\n      swap1\n      dup2\n      mstore\n      0x40\n      dup1\n      dup4\n      keccak256\n        /* \"@thirdweb-dev/contracts/eip/ERC721AVirtualApprove.sol\":10750:10794   */\n      dup1\n      sload\n      not(0xffffffffffffffffffffffffffffffff)\n        /* \"@thirdweb-dev/contracts/eip/ERC721AVirtualApprove.sol\":10808:10857   */\n      dup2\n      and\n        /* \"@thirdweb-dev/contracts/eip/ERC721AVirtualApprove.sol\":10750:10794   */\n      0xffffffffffffffff\n      dup1\n      dup4\n      and\n      dup12\n      add\n      dup2\n      and\n        /* \"@thirdweb-dev/contracts/eip/ERC721AVirtualApprove.sol\":10808:10857   */\n      swap2\n      dup3\n      or\n      0x010000000000000000\n      not(0xffffffffffffffff)\n        /* \"@thirdweb-dev/contracts/eip/ERC721AVirtualApprove.sol\":10750:10794   */\n      swap1\n      swap5\n      and\n      swap1\n      swap3\n      or\n        /* \"@thirdweb-dev/contracts/eip/ERC721AVirtualApprove.sol\":10808:10857   */\n      dup4\n      swap1\n      div\n      dup2\n      and\n      dup12\n      add\n      dup2\n      and\n      swap1\n      swap3\n      mul\n      or\n      swap1\n      swap2\n      sstore\n        /* \"@thirdweb-dev/contracts/eip/ERC721AVirtualApprove.sol\":10872:10897   */\n      dup6\n      dup5\n      mstore\n        /* \"@thirdweb-dev/contracts/eip/ERC721AVirtualApprove.sol\":10872:10883   */\n      0x04\n        /* \"@thirdweb-dev/contracts/eip/ERC721AVirtualApprove.sol\":10872:10897   */\n      swap1\n      swap3\n      mstore\n      swap1\n      swap2\n      keccak256\n        /* \"@thirdweb-dev/contracts/eip/ERC721AVirtualApprove.sol\":10872:10907   */\n      dup1\n      sload\n      not(sub(shl(0xe0, 0x01), 0x01))\n        /* \"@thirdweb-dev/contracts/eip/ERC721AVirtualApprove.sol\":10921:10987   */\n      and\n      dup4\n      or\n      shl(0xa0, 0x01)\n        /* \"@thirdweb-dev/contracts/eip/ERC721AVirtualApprove.sol\":10971:10986   */\n      timestamp\n        /* \"@thirdweb-dev/contracts/eip/ERC721AVirtualApprove.sol\":10921:10987   */\n      swap1\n      swap4\n      and\n      swap3\n      swap1\n      swap3\n      mul\n      swap2\n      swap1\n      swap2\n      or\n      swap1\n      sstore\n        /* \"@thirdweb-dev/contracts/eip/ERC721AVirtualApprove.sol\":10872:10897   */\n      dup2\n      swap1\n        /* \"@thirdweb-dev/contracts/eip/ERC721AVirtualApprove.sol\":11065:11088   */\n      dup2\n      dup6\n      add\n      swap1\n        /* \"@thirdweb-dev/contracts/lib/Address.sol\":1695:1714   */\n      extcodesize\n        /* \"@thirdweb-dev/contracts/lib/Address.sol\":1695:1718   */\n      iszero\n        /* \"@thirdweb-dev/contracts/eip/ERC721AVirtualApprove.sol\":11103:11721   */\n      tag_609\n      jumpi\n        /* \"@thirdweb-dev/contracts/eip/ERC721AVirtualApprove.sol\":11142:11450   */\n    tag_610:\n        /* \"@thirdweb-dev/contracts/eip/ERC721AVirtualApprove.sol\":11172:11210   */\n      mload(0x40)\n        /* \"@thirdweb-dev/contracts/eip/ERC721AVirtualApprove.sol\":11197:11209   */\n      dup3\n      swap1\n      sub(shl(0xa0, 0x01), 0x01)\n        /* \"@thirdweb-dev/contracts/eip/ERC721AVirtualApprove.sol\":11172:11210   */\n      dup9\n      and\n      swap1\n        /* \"@thirdweb-dev/contracts/eip/ERC721AVirtualApprove.sol\":11189:11190   */\n      0x00\n      swap1\n        /* \"@thirdweb-dev/contracts/eip/ERC721AVirtualApprove.sol\":11172:11210   */\n      0xddf252ad1be2c89b69c2b068fc378daa952ba7f163c4a11628f55a4df523b3ef\n      swap1\n        /* \"@thirdweb-dev/contracts/eip/ERC721AVirtualApprove.sol\":11189:11190   */\n      dup3\n      swap1\n        /* \"@thirdweb-dev/contracts/eip/ERC721AVirtualApprove.sol\":11172:11210   */\n      log4\n        /* \"@thirdweb-dev/contracts/eip/ERC721AVirtualApprove.sol\":11237:11306   */\n      tag_613\n        /* \"@thirdweb-dev/contracts/eip/ERC721AVirtualApprove.sol\":11276:11277   */\n      0x00\n        /* \"@thirdweb-dev/contracts/eip/ERC721AVirtualApprove.sol\":11280:11282   */\n      dup8\n        /* \"@thirdweb-dev/contracts/eip/ERC721AVirtualApprove.sol\":11284:11298   */\n      dup5\n      dup1\n      0x01\n      add\n      swap6\n      pop\n        /* \"@thirdweb-dev/contracts/eip/ERC721AVirtualApprove.sol\":11300:11305   */\n      dup8\n        /* \"@thirdweb-dev/contracts/eip/ERC721AVirtualApprove.sol\":11237:11267   */\n      tag_562\n        /* \"@thirdweb-dev/contracts/eip/ERC721AVirtualApprove.sol\":11237:11306   */\n      jump\t// in\n    tag_613:\n        /* \"@thirdweb-dev/contracts/eip/ERC721AVirtualApprove.sol\":11232:11404   */\n      tag_614\n      jumpi\n        /* \"@thirdweb-dev/contracts/eip/ERC721AVirtualApprove.sol\":11341:11381   */\n      mload(0x40)\n      shl(0xe1, 0x68d2bf6b)\n      dup2\n      mstore\n      0x04\n      add\n      mload(0x40)\n      dup1\n      swap2\n      sub\n      swap1\n      revert\n        /* \"@thirdweb-dev/contracts/eip/ERC721AVirtualApprove.sol\":11232:11404   */\n    tag_614:\n        /* \"@thirdweb-dev/contracts/eip/ERC721AVirtualApprove.sol\":11445:11448   */\n      dup1\n        /* \"@thirdweb-dev/contracts/eip/ERC721AVirtualApprove.sol\":11430:11442   */\n      dup3\n        /* \"@thirdweb-dev/contracts/eip/ERC721AVirtualApprove.sol\":11430:11448   */\n      lt\n        /* \"@thirdweb-dev/contracts/eip/ERC721AVirtualApprove.sol\":11142:11450   */\n      tag_610\n      jumpi\n        /* \"@thirdweb-dev/contracts/eip/ERC721AVirtualApprove.sol\":11529:11541   */\n      dup3\n        /* \"@thirdweb-dev/contracts/eip/ERC721AVirtualApprove.sol\":11512:11525   */\n      sload(0x00)\n        /* \"@thirdweb-dev/contracts/eip/ERC721AVirtualApprove.sol\":11512:11541   */\n      eq\n        /* \"@thirdweb-dev/contracts/eip/ERC721AVirtualApprove.sol\":11508:11551   */\n      tag_615\n      jumpi\n        /* \"@thirdweb-dev/contracts/eip/ERC721AVirtualApprove.sol\":11543:11551   */\n      0x00\n      dup1\n      revert\n        /* \"@thirdweb-dev/contracts/eip/ERC721AVirtualApprove.sol\":11508:11551   */\n    tag_615:\n        /* \"@thirdweb-dev/contracts/eip/ERC721AVirtualApprove.sol\":11103:11721   */\n      jump(tag_616)\n    tag_609:\n        /* \"@thirdweb-dev/contracts/eip/ERC721AVirtualApprove.sol\":11590:11707   */\n    tag_617:\n        /* \"@thirdweb-dev/contracts/eip/ERC721AVirtualApprove.sol\":11620:11660   */\n      mload(0x40)\n        /* \"@thirdweb-dev/contracts/eip/ERC721AVirtualApprove.sol\":11645:11659   */\n      0x01\n      dup4\n      add\n      swap3\n      swap1\n      sub(shl(0xa0, 0x01), 0x01)\n        /* \"@thirdweb-dev/contracts/eip/ERC721AVirtualApprove.sol\":11620:11660   */\n      dup9\n      and\n      swap1\n        /* \"@thirdweb-dev/contracts/eip/ERC721AVirtualApprove.sol\":11637:11638   */\n      0x00\n      swap1\n        /* \"@thirdweb-dev/contracts/eip/ERC721AVirtualApprove.sol\":11620:11660   */\n      0xddf252ad1be2c89b69c2b068fc378daa952ba7f163c4a11628f55a4df523b3ef\n      swap1\n        /* \"@thirdweb-dev/contracts/eip/ERC721AVirtualApprove.sol\":11637:11638   */\n      dup3\n      swap1\n        /* \"@thirdweb-dev/contracts/eip/ERC721AVirtualApprove.sol\":11620:11660   */\n      log4\n        /* \"@thirdweb-dev/contracts/eip/ERC721AVirtualApprove.sol\":11702:11705   */\n      dup1\n        /* \"@thirdweb-dev/contracts/eip/ERC721AVirtualApprove.sol\":11687:11699   */\n      dup3\n        /* \"@thirdweb-dev/contracts/eip/ERC721AVirtualApprove.sol\":11687:11705   */\n      lt\n        /* \"@thirdweb-dev/contracts/eip/ERC721AVirtualApprove.sol\":11590:11707   */\n      tag_617\n      jumpi\n        /* \"@thirdweb-dev/contracts/eip/ERC721AVirtualApprove.sol\":11103:11721   */\n    tag_616:\n      pop\n        /* \"@thirdweb-dev/contracts/eip/ERC721AVirtualApprove.sol\":11734:11747   */\n      0x00\n        /* \"@thirdweb-dev/contracts/eip/ERC721AVirtualApprove.sol\":11734:11762   */\n      swap1\n      dup2\n      sstore\n        /* \"@thirdweb-dev/contracts/eip/ERC721AVirtualApprove.sol\":11782:11842   */\n      tag_463\n      swap1\n        /* \"@thirdweb-dev/contracts/eip/ERC721AVirtualApprove.sol\":11815:11817   */\n      dup6\n        /* \"@thirdweb-dev/contracts/eip/ERC721AVirtualApprove.sol\":11819:11831   */\n      dup4\n        /* \"@thirdweb-dev/contracts/eip/ERC721AVirtualApprove.sol\":11833:11841   */\n      dup7\n        /* \"@thirdweb-dev/contracts/eip/ERC721AVirtualApprove.sol\":11782:11842   */\n      dup5\n      jump\t// in\n        /* \"@thirdweb-dev/contracts/eip/ERC721AVirtualApprove.sol\":9458:9630   */\n    tag_309:\n        /* \"@thirdweb-dev/contracts/eip/ERC721AVirtualApprove.sol\":9515:9519   */\n      0x00\n        /* \"@thirdweb-dev/contracts/eip/ERC721AVirtualApprove.sol\":9578:9591   */\n      dup1\n      sload\n        /* \"@thirdweb-dev/contracts/eip/ERC721AVirtualApprove.sol\":9568:9575   */\n      dup3\n        /* \"@thirdweb-dev/contracts/eip/ERC721AVirtualApprove.sol\":9568:9591   */\n      lt\n        /* \"@thirdweb-dev/contracts/eip/ERC721AVirtualApprove.sol\":9538:9623   */\n      dup1\n      iszero\n      tag_300\n      jumpi\n      pop\n      pop\n        /* \"@thirdweb-dev/contracts/eip/ERC721AVirtualApprove.sol\":9596:9616   */\n      0x00\n      swap1\n      dup2\n      mstore\n        /* \"@thirdweb-dev/contracts/eip/ERC721AVirtualApprove.sol\":9596:9607   */\n      0x04\n        /* \"@thirdweb-dev/contracts/eip/ERC721AVirtualApprove.sol\":9596:9616   */\n      0x20\n      mstore\n      0x40\n      swap1\n      keccak256\n        /* \"@thirdweb-dev/contracts/eip/ERC721AVirtualApprove.sol\":9596:9623   */\n      sload\n      shl(0xe0, 0x01)\n      swap1\n      div\n      0xff\n      and\n        /* \"@thirdweb-dev/contracts/eip/ERC721AVirtualApprove.sol\":9595:9623   */\n      iszero\n      swap1\n        /* \"@thirdweb-dev/contracts/eip/ERC721AVirtualApprove.sol\":9458:9630   */\n      jump\t// out\n        /* \"@thirdweb-dev/contracts/eip/ERC721AVirtualApprove.sol\":18379:18538   */\n    tag_321:\n        /* \"@thirdweb-dev/contracts/eip/ERC721AVirtualApprove.sol\":18459:18483   */\n      0x00\n      dup3\n      dup2\n      mstore\n        /* \"@thirdweb-dev/contracts/eip/ERC721AVirtualApprove.sol\":18459:18474   */\n      0x06\n        /* \"@thirdweb-dev/contracts/eip/ERC721AVirtualApprove.sol\":18459:18483   */\n      0x20\n      mstore\n      0x40\n      dup1\n      dup3\n      keccak256\n        /* \"@thirdweb-dev/contracts/eip/ERC721AVirtualApprove.sol\":18459:18488   */\n      dup1\n      sload\n      not(0xffffffffffffffffffffffffffffffffffffffff)\n      and\n      sub(shl(0xa0, 0x01), 0x01)\n      dup8\n      dup2\n      and\n      swap2\n      dup3\n      or\n      swap1\n      swap3\n      sstore\n        /* \"@thirdweb-dev/contracts/eip/ERC721AVirtualApprove.sol\":18503:18531   */\n      swap2\n      mload\n        /* \"@thirdweb-dev/contracts/eip/ERC721AVirtualApprove.sol\":18459:18483   */\n      dup6\n      swap4\n        /* \"@thirdweb-dev/contracts/eip/ERC721AVirtualApprove.sol\":18503:18531   */\n      swap2\n      dup6\n      and\n      swap2\n      0x8c5be1e5ebec7d5bd14f71427d1e84f3dd0314c0f7b2291e5b200ac8c7c3b925\n      swap2\n      log4\n        /* \"@thirdweb-dev/contracts/eip/ERC721AVirtualApprove.sol\":18379:18538   */\n      pop\n      pop\n      pop\n      jump\t// out\n        /* \"@thirdweb-dev/contracts/extension/Ownable.sol\":1527:1699   */\n    tag_327:\n        /* \"@thirdweb-dev/contracts/extension/Ownable.sol\":1607:1613   */\n      0x09\n      dup1\n      sload\n      sub(shl(0xa0, 0x01), 0x01)\n        /* \"@thirdweb-dev/contracts/extension/Ownable.sol\":1623:1641   */\n      dup4\n      dup2\n      and\n      not(0xffffffffffffffffffffffffffffffffffffffff)\n      dup4\n      and\n      dup2\n      or\n      swap1\n      swap4\n      sstore\n        /* \"@thirdweb-dev/contracts/extension/Ownable.sol\":1657:1692   */\n      mload(0x40)\n        /* \"@thirdweb-dev/contracts/extension/Ownable.sol\":1607:1613   */\n      swap2\n      and\n      swap2\n        /* \"@thirdweb-dev/contracts/extension/Ownable.sol\":1623:1641   */\n      swap1\n        /* \"@thirdweb-dev/contracts/extension/Ownable.sol\":1607:1613   */\n      dup3\n      swap1\n        /* \"@thirdweb-dev/contracts/extension/Ownable.sol\":1657:1692   */\n      0x8292fce18fa69edf4db7b94ea2e58241df0ae57f97e0a6c9b29067028bf92d76\n      swap1\n        /* \"@thirdweb-dev/contracts/extension/Ownable.sol\":1586:1604   */\n      0x00\n      swap1\n        /* \"@thirdweb-dev/contracts/extension/Ownable.sol\":1657:1692   */\n      log3\n        /* \"@thirdweb-dev/contracts/extension/Ownable.sol\":1576:1699   */\n      pop\n        /* \"@thirdweb-dev/contracts/extension/Ownable.sol\":1527:1699   */\n      pop\n      jump\t// out\n        /* \"@thirdweb-dev/contracts/eip/ERC721AVirtualApprove.sol\":9709:9811   */\n    tag_352:\n        /* \"@thirdweb-dev/contracts/eip/ERC721AVirtualApprove.sol\":9777:9804   */\n      tag_289\n        /* \"@thirdweb-dev/contracts/eip/ERC721AVirtualApprove.sol\":9787:9789   */\n      dup3\n        /* \"@thirdweb-dev/contracts/eip/ERC721AVirtualApprove.sol\":9791:9799   */\n      dup3\n        /* \"@thirdweb-dev/contracts/eip/ERC721AVirtualApprove.sol\":9777:9804   */\n      mload(0x40)\n      dup1\n      0x20\n      add\n      0x40\n      mstore\n      dup1\n      0x00\n      dup2\n      mstore\n      pop\n        /* \"@thirdweb-dev/contracts/eip/ERC721AVirtualApprove.sol\":9777:9786   */\n      tag_290\n        /* \"@thirdweb-dev/contracts/eip/ERC721AVirtualApprove.sol\":9777:9804   */\n      jump\t// in\n        /* \"@thirdweb-dev/contracts/eip/ERC721AVirtualApprove.sol\":13484:15536   */\n    tag_378:\n        /* \"@thirdweb-dev/contracts/eip/ERC721AVirtualApprove.sol\":13564:13599   */\n      0x00\n        /* \"@thirdweb-dev/contracts/eip/ERC721AVirtualApprove.sol\":13602:13623   */\n      tag_635\n        /* \"@thirdweb-dev/contracts/eip/ERC721AVirtualApprove.sol\":13615:13622   */\n      dup3\n        /* \"@thirdweb-dev/contracts/eip/ERC721AVirtualApprove.sol\":13602:13614   */\n      tag_452\n        /* \"@thirdweb-dev/contracts/eip/ERC721AVirtualApprove.sol\":13602:13623   */\n      jump\t// in\n    tag_635:\n        /* \"@thirdweb-dev/contracts/eip/ERC721AVirtualApprove.sol\":13564:13623   */\n      swap1\n      pop\n        /* \"@thirdweb-dev/contracts/eip/ERC721AVirtualApprove.sol\":13660:13664   */\n      dup4\n      sub(shl(0xa0, 0x01), 0x01)\n        /* \"@thirdweb-dev/contracts/eip/ERC721AVirtualApprove.sol\":13638:13664   */\n      and\n        /* \"@thirdweb-dev/contracts/eip/ERC721AVirtualApprove.sol\":13638:13651   */\n      dup2\n        /* \"@thirdweb-dev/contracts/eip/ERC721AVirtualApprove.sol\":13638:13656   */\n      0x00\n      add\n      mload\n      sub(shl(0xa0, 0x01), 0x01)\n        /* \"@thirdweb-dev/contracts/eip/ERC721AVirtualApprove.sol\":13638:13664   */\n      and\n      eq\n        /* \"@thirdweb-dev/contracts/eip/ERC721AVirtualApprove.sol\":13634:13701   */\n      tag_636\n      jumpi\n        /* \"@thirdweb-dev/contracts/eip/ERC721AVirtualApprove.sol\":13673:13701   */\n      mload(0x40)\n      shl(0xe8, 0xa11481)\n      dup2\n      mstore\n      0x04\n      add\n      mload(0x40)\n      dup1\n      swap2\n      sub\n      swap1\n      revert\n        /* \"@thirdweb-dev/contracts/eip/ERC721AVirtualApprove.sol\":13634:13701   */\n    tag_636:\n        /* \"@thirdweb-dev/contracts/eip/ERC721AVirtualApprove.sol\":13712:13734   */\n      0x00\n        /* \"@thirdweb-dev/contracts/base/ERC721Base.sol\":8521:8531   */\n      caller\n      sub(shl(0xa0, 0x01), 0x01)\n        /* \"@thirdweb-dev/contracts/eip/ERC721AVirtualApprove.sol\":13738:13758   */\n      dup7\n      and\n      eq\n      dup1\n        /* \"@thirdweb-dev/contracts/eip/ERC721AVirtualApprove.sol\":13738:13810   */\n      tag_639\n      jumpi\n      pop\n        /* \"@thirdweb-dev/contracts/eip/ERC721AVirtualApprove.sol\":13774:13810   */\n      tag_639\n        /* \"@thirdweb-dev/contracts/eip/ERC721AVirtualApprove.sol\":13791:13795   */\n      dup6\n        /* \"@thirdweb-dev/contracts/base/ERC721Base.sol\":8521:8531   */\n      caller\n        /* \"@thirdweb-dev/contracts/eip/ERC721AVirtualApprove.sol\":8230:8392   */\n      tag_272\n      jump\t// in\n        /* \"@thirdweb-dev/contracts/eip/ERC721AVirtualApprove.sol\":13774:13810   */\n    tag_639:\n        /* \"@thirdweb-dev/contracts/eip/ERC721AVirtualApprove.sol\":13738:13862   */\n      dup1\n      tag_641\n      jumpi\n      pop\n        /* \"@thirdweb-dev/contracts/base/ERC721Base.sol\":8521:8531   */\n      caller\n        /* \"@thirdweb-dev/contracts/eip/ERC721AVirtualApprove.sol\":13826:13846   */\n      tag_643\n        /* \"@thirdweb-dev/contracts/eip/ERC721AVirtualApprove.sol\":13838:13845   */\n      dup5\n        /* \"@thirdweb-dev/contracts/eip/ERC721AVirtualApprove.sol\":13826:13837   */\n      tag_87\n        /* \"@thirdweb-dev/contracts/eip/ERC721AVirtualApprove.sol\":13826:13846   */\n      jump\t// in\n    tag_643:\n      sub(shl(0xa0, 0x01), 0x01)\n        /* \"@thirdweb-dev/contracts/eip/ERC721AVirtualApprove.sol\":13826:13862   */\n      and\n      eq\n        /* \"@thirdweb-dev/contracts/eip/ERC721AVirtualApprove.sol\":13738:13862   */\n    tag_641:\n        /* \"@thirdweb-dev/contracts/eip/ERC721AVirtualApprove.sol\":13712:13863   */\n      swap1\n      pop\n        /* \"@thirdweb-dev/contracts/eip/ERC721AVirtualApprove.sol\":13879:13896   */\n      dup1\n        /* \"@thirdweb-dev/contracts/eip/ERC721AVirtualApprove.sol\":13874:13940   */\n      tag_644\n      jumpi\n        /* \"@thirdweb-dev/contracts/eip/ERC721AVirtualApprove.sol\":13905:13940   */\n      mload(0x40)\n      shl(0xe1, 0x2ce44b5f)\n      dup2\n      mstore\n      0x04\n      add\n      mload(0x40)\n      dup1\n      swap2\n      sub\n      swap1\n      revert\n        /* \"@thirdweb-dev/contracts/eip/ERC721AVirtualApprove.sol\":13874:13940   */\n    tag_644:\n      sub(shl(0xa0, 0x01), 0x01)\n        /* \"@thirdweb-dev/contracts/eip/ERC721AVirtualApprove.sol\":13954:13970   */\n      dup5\n      and\n        /* \"@thirdweb-dev/contracts/eip/ERC721AVirtualApprove.sol\":13950:14002   */\n      tag_645\n      jumpi\n        /* \"@thirdweb-dev/contracts/eip/ERC721AVirtualApprove.sol\":13979:14002   */\n      mload(0x40)\n      shl(0xe2, 0x3a954ecd)\n      dup2\n      mstore\n      0x04\n      add\n      mload(0x40)\n      dup1\n      swap2\n      sub\n      swap1\n      revert\n        /* \"@thirdweb-dev/contracts/eip/ERC721AVirtualApprove.sol\":13950:14002   */\n    tag_645:\n        /* \"@thirdweb-dev/contracts/eip/ERC721AVirtualApprove.sol\":14118:14153   */\n      tag_647\n        /* \"@thirdweb-dev/contracts/eip/ERC721AVirtualApprove.sol\":14135:14136   */\n      0x00\n        /* \"@thirdweb-dev/contracts/eip/ERC721AVirtualApprove.sol\":14139:14146   */\n      dup5\n        /* \"@thirdweb-dev/contracts/eip/ERC721AVirtualApprove.sol\":14148:14152   */\n      dup8\n        /* \"@thirdweb-dev/contracts/eip/ERC721AVirtualApprove.sol\":14118:14126   */\n      tag_321\n        /* \"@thirdweb-dev/contracts/eip/ERC721AVirtualApprove.sol\":14118:14153   */\n      jump\t// in\n    tag_647:\n      sub(shl(0xa0, 0x01), 0x01)\n        /* \"@thirdweb-dev/contracts/eip/ERC721AVirtualApprove.sol\":14443:14461   */\n      dup6\n      dup2\n      and\n      0x00\n      swap1\n      dup2\n      mstore\n        /* \"@thirdweb-dev/contracts/eip/ERC721AVirtualApprove.sol\":14443:14455   */\n      0x05\n        /* \"@thirdweb-dev/contracts/eip/ERC721AVirtualApprove.sol\":14443:14461   */\n      0x20\n      swap1\n      dup2\n      mstore\n      0x40\n      dup1\n      dup4\n      keccak256\n        /* \"@thirdweb-dev/contracts/eip/ERC721AVirtualApprove.sol\":14443:14474   */\n      dup1\n      sload\n      not(0xffffffffffffffff)\n      dup1\n      dup3\n      and\n      0xffffffffffffffff\n      swap3\n      dup4\n      and\n      not(0x00)\n      add\n      dup4\n      and\n      or\n      swap1\n      swap3\n      sstore\n        /* \"@thirdweb-dev/contracts/eip/ERC721AVirtualApprove.sol\":14488:14504   */\n      dup10\n      dup7\n      and\n      dup1\n      dup7\n      mstore\n      dup4\n      dup7\n      keccak256\n        /* \"@thirdweb-dev/contracts/eip/ERC721AVirtualApprove.sol\":14488:14517   */\n      dup1\n      sload\n      swap4\n      dup5\n      and\n      swap4\n      dup4\n      and\n      0x01\n      swap1\n      dup2\n      add\n      dup5\n      and\n      swap5\n      swap1\n      swap5\n      or\n      swap1\n      sstore\n        /* \"@thirdweb-dev/contracts/eip/ERC721AVirtualApprove.sol\":14566:14586   */\n      dup10\n      dup7\n      mstore\n        /* \"@thirdweb-dev/contracts/eip/ERC721AVirtualApprove.sol\":14566:14577   */\n      0x04\n        /* \"@thirdweb-dev/contracts/eip/ERC721AVirtualApprove.sol\":14566:14586   */\n      swap1\n      swap5\n      mstore\n      dup3\n      dup6\n      keccak256\n        /* \"@thirdweb-dev/contracts/eip/ERC721AVirtualApprove.sol\":14600:14618   */\n      dup1\n      sload\n      not(sub(shl(0xe0, 0x01), 0x01))\n        /* \"@thirdweb-dev/contracts/eip/ERC721AVirtualApprove.sol\":14632:14681   */\n      and\n      swap1\n      swap5\n      or\n      shl(0xa0, 0x01)\n        /* \"@thirdweb-dev/contracts/eip/ERC721AVirtualApprove.sol\":14665:14680   */\n      timestamp\n        /* \"@thirdweb-dev/contracts/eip/ERC721AVirtualApprove.sol\":14632:14681   */\n      swap1\n      swap3\n      and\n      swap2\n      swap1\n      swap2\n      mul\n      or\n      dup4\n      sstore\n        /* \"@thirdweb-dev/contracts/eip/ERC721AVirtualApprove.sol\":14951:14962   */\n      dup8\n      add\n        /* \"@thirdweb-dev/contracts/eip/ERC721AVirtualApprove.sol\":15010:15034   */\n      dup1\n      dup5\n      mstore\n      swap3\n      keccak256\n        /* \"@thirdweb-dev/contracts/eip/ERC721AVirtualApprove.sol\":15052:15065   */\n      dup1\n      sload\n        /* \"@thirdweb-dev/contracts/eip/ERC721AVirtualApprove.sol\":14566:14586   */\n      swap2\n      swap4\n        /* \"@thirdweb-dev/contracts/eip/ERC721AVirtualApprove.sol\":15010:15034   */\n      swap1\n      swap2\n        /* \"@thirdweb-dev/contracts/eip/ERC721AVirtualApprove.sol\":15052:15065   */\n      and\n        /* \"@thirdweb-dev/contracts/eip/ERC721AVirtualApprove.sol\":15048:15425   */\n      tag_649\n      jumpi\n        /* \"@thirdweb-dev/contracts/eip/ERC721AVirtualApprove.sol\":15259:15272   */\n      sload(0x00)\n        /* \"@thirdweb-dev/contracts/eip/ERC721AVirtualApprove.sol\":15244:15255   */\n      dup3\n        /* \"@thirdweb-dev/contracts/eip/ERC721AVirtualApprove.sol\":15244:15272   */\n      eq\n        /* \"@thirdweb-dev/contracts/eip/ERC721AVirtualApprove.sol\":15240:15411   */\n      tag_649\n      jumpi\n        /* \"@thirdweb-dev/contracts/eip/ERC721AVirtualApprove.sol\":15296:15316   */\n      dup1\n      sload\n        /* \"@thirdweb-dev/contracts/eip/ERC721AVirtualApprove.sol\":15364:15392   */\n      0x20\n      dup7\n      add\n      mload\n        /* \"@thirdweb-dev/contracts/eip/ERC721AVirtualApprove.sol\":15338:15392   */\n      0xffffffffffffffff\n      and\n      shl(0xa0, 0x01)\n      mul\n      not(sub(shl(0xe0, 0x01), 0x01))\n      swap1\n      swap2\n      and\n      sub(shl(0xa0, 0x01), 0x01)\n        /* \"@thirdweb-dev/contracts/eip/ERC721AVirtualApprove.sol\":15296:15316   */\n      dup11\n      and\n        /* \"@thirdweb-dev/contracts/eip/ERC721AVirtualApprove.sol\":15338:15392   */\n      or\n      or\n      dup2\n      sstore\n        /* \"@thirdweb-dev/contracts/eip/ERC721AVirtualApprove.sol\":15240:15411   */\n    tag_649:\n        /* \"@thirdweb-dev/contracts/eip/ERC721AVirtualApprove.sol\":14419:15435   */\n      pop\n      pop\n      pop\n        /* \"@thirdweb-dev/contracts/eip/ERC721AVirtualApprove.sol\":15469:15476   */\n      dup3\n        /* \"@thirdweb-dev/contracts/eip/ERC721AVirtualApprove.sol\":15465:15467   */\n      dup5\n      sub(shl(0xa0, 0x01), 0x01)\n        /* \"@thirdweb-dev/contracts/eip/ERC721AVirtualApprove.sol\":15450:15477   */\n      and\n        /* \"@thirdweb-dev/contracts/eip/ERC721AVirtualApprove.sol\":15459:15463   */\n      dup7\n      sub(shl(0xa0, 0x01), 0x01)\n        /* \"@thirdweb-dev/contracts/eip/ERC721AVirtualApprove.sol\":15450:15477   */\n      and\n      0xddf252ad1be2c89b69c2b068fc378daa952ba7f163c4a11628f55a4df523b3ef\n      mload(0x40)\n      mload(0x40)\n      dup1\n      swap2\n      sub\n      swap1\n      log4\n        /* \"@thirdweb-dev/contracts/eip/ERC721AVirtualApprove.sol\":15487:15529   */\n    tag_650:\n        /* \"@thirdweb-dev/contracts/eip/ERC721AVirtualApprove.sol\":13554:15536   */\n      pop\n      pop\n        /* \"@thirdweb-dev/contracts/eip/ERC721AVirtualApprove.sol\":13484:15536   */\n      pop\n      pop\n      pop\n      jump\t// out\n        /* \"@thirdweb-dev/contracts/eip/ERC721AVirtualApprove.sol\":15913:18268   */\n    tag_418:\n        /* \"@thirdweb-dev/contracts/eip/ERC721AVirtualApprove.sol\":15992:16027   */\n      0x00\n        /* \"@thirdweb-dev/contracts/eip/ERC721AVirtualApprove.sol\":16030:16051   */\n      tag_652\n        /* \"@thirdweb-dev/contracts/eip/ERC721AVirtualApprove.sol\":16043:16050   */\n      dup4\n        /* \"@thirdweb-dev/contracts/eip/ERC721AVirtualApprove.sol\":16030:16042   */\n      tag_452\n        /* \"@thirdweb-dev/contracts/eip/ERC721AVirtualApprove.sol\":16030:16051   */\n      jump\t// in\n    tag_652:\n        /* \"@thirdweb-dev/contracts/eip/ERC721AVirtualApprove.sol\":16077:16095   */\n      dup1\n      mload\n        /* \"@thirdweb-dev/contracts/eip/ERC721AVirtualApprove.sol\":15992:16051   */\n      swap1\n      swap2\n      pop\n        /* \"@thirdweb-dev/contracts/eip/ERC721AVirtualApprove.sol\":16106:16390   */\n      dup3\n      iszero\n      tag_653\n      jumpi\n        /* \"@thirdweb-dev/contracts/eip/ERC721AVirtualApprove.sol\":16139:16161   */\n      0x00\n        /* \"@thirdweb-dev/contracts/base/ERC721Base.sol\":8521:8531   */\n      caller\n      sub(shl(0xa0, 0x01), 0x01)\n        /* \"@thirdweb-dev/contracts/eip/ERC721AVirtualApprove.sol\":16165:16185   */\n      dup4\n      and\n      eq\n      dup1\n        /* \"@thirdweb-dev/contracts/eip/ERC721AVirtualApprove.sol\":16165:16241   */\n      tag_656\n      jumpi\n      pop\n        /* \"@thirdweb-dev/contracts/eip/ERC721AVirtualApprove.sol\":16205:16241   */\n      tag_656\n        /* \"@thirdweb-dev/contracts/eip/ERC721AVirtualApprove.sol\":16222:16226   */\n      dup3\n        /* \"@thirdweb-dev/contracts/base/ERC721Base.sol\":8521:8531   */\n      caller\n        /* \"@thirdweb-dev/contracts/eip/ERC721AVirtualApprove.sol\":8230:8392   */\n      tag_272\n      jump\t// in\n        /* \"@thirdweb-dev/contracts/eip/ERC721AVirtualApprove.sol\":16205:16241   */\n    tag_656:\n        /* \"@thirdweb-dev/contracts/eip/ERC721AVirtualApprove.sol\":16165:16297   */\n      dup1\n      tag_658\n      jumpi\n      pop\n        /* \"@thirdweb-dev/contracts/base/ERC721Base.sol\":8521:8531   */\n      caller\n        /* \"@thirdweb-dev/contracts/eip/ERC721AVirtualApprove.sol\":16261:16281   */\n      tag_660\n        /* \"@thirdweb-dev/contracts/eip/ERC721AVirtualApprove.sol\":16273:16280   */\n      dup7\n        /* \"@thirdweb-dev/contracts/eip/ERC721AVirtualApprove.sol\":16261:16272   */\n      tag_87\n        /* \"@thirdweb-dev/contracts/eip/ERC721AVirtualApprove.sol\":16261:16281   */\n      jump\t// in\n    tag_660:\n      sub(shl(0xa0, 0x01), 0x01)\n        /* \"@thirdweb-dev/contracts/eip/ERC721AVirtualApprove.sol\":16261:16297   */\n      and\n      eq\n        /* \"@thirdweb-dev/contracts/eip/ERC721AVirtualApprove.sol\":16165:16297   */\n    tag_658:\n        /* \"@thirdweb-dev/contracts/eip/ERC721AVirtualApprove.sol\":16139:16298   */\n      swap1\n      pop\n        /* \"@thirdweb-dev/contracts/eip/ERC721AVirtualApprove.sol\":16318:16335   */\n      dup1\n        /* \"@thirdweb-dev/contracts/eip/ERC721AVirtualApprove.sol\":16313:16379   */\n      tag_661\n      jumpi\n        /* \"@thirdweb-dev/contracts/eip/ERC721AVirtualApprove.sol\":16344:16379   */\n      mload(0x40)\n      shl(0xe1, 0x2ce44b5f)\n      dup2\n      mstore\n      0x04\n      add\n      mload(0x40)\n      dup1\n      swap2\n      sub\n      swap1\n      revert\n        /* \"@thirdweb-dev/contracts/eip/ERC721AVirtualApprove.sol\":16313:16379   */\n    tag_661:\n        /* \"@thirdweb-dev/contracts/eip/ERC721AVirtualApprove.sol\":16125:16390   */\n      pop\n        /* \"@thirdweb-dev/contracts/eip/ERC721AVirtualApprove.sol\":16106:16390   */\n    tag_653:\n        /* \"@thirdweb-dev/contracts/eip/ERC721AVirtualApprove.sol\":16513:16548   */\n      tag_663\n        /* \"@thirdweb-dev/contracts/eip/ERC721AVirtualApprove.sol\":16530:16531   */\n      0x00\n        /* \"@thirdweb-dev/contracts/eip/ERC721AVirtualApprove.sol\":16534:16541   */\n      dup6\n        /* \"@thirdweb-dev/contracts/eip/ERC721AVirtualApprove.sol\":16543:16547   */\n      dup4\n        /* \"@thirdweb-dev/contracts/eip/ERC721AVirtualApprove.sol\":16513:16521   */\n      tag_321\n        /* \"@thirdweb-dev/contracts/eip/ERC721AVirtualApprove.sol\":16513:16548   */\n      jump\t// in\n    tag_663:\n      sub(shl(0xa0, 0x01), 0x01)\n        /* \"@thirdweb-dev/contracts/eip/ERC721AVirtualApprove.sol\":16872:16890   */\n      dup1\n      dup3\n      and\n        /* \"@thirdweb-dev/contracts/eip/ERC721AVirtualApprove.sol\":16838:16869   */\n      0x00\n        /* \"@thirdweb-dev/contracts/eip/ERC721AVirtualApprove.sol\":16872:16890   */\n      dup2\n      dup2\n      mstore\n        /* \"@thirdweb-dev/contracts/eip/ERC721AVirtualApprove.sol\":16872:16884   */\n      0x05\n        /* \"@thirdweb-dev/contracts/eip/ERC721AVirtualApprove.sol\":16872:16890   */\n      0x20\n      swap1\n      dup2\n      mstore\n      0x40\n      dup1\n      dup4\n      keccak256\n        /* \"@thirdweb-dev/contracts/eip/ERC721AVirtualApprove.sol\":16904:16928   */\n      dup1\n      sload\n        /* \"@thirdweb-dev/contracts/eip/ERC721AVirtualApprove.sol\":16942:16971   */\n      0x0100000000000000000000000000000000\n      not(0x00)\n        /* \"@thirdweb-dev/contracts/eip/ERC721AVirtualApprove.sol\":16904:16928   */\n      0xffffffffffffffff\n      dup1\n      dup5\n      and\n      swap2\n      swap1\n      swap2\n      add\n      dup2\n      and\n      not(0xffffffffffffffff)\n      dup5\n      and\n      dup2\n      or\n        /* \"@thirdweb-dev/contracts/eip/ERC721AVirtualApprove.sol\":16942:16971   */\n      dup4\n      swap1\n      div\n      dup3\n      and\n        /* \"@thirdweb-dev/contracts/eip/ERC721AVirtualApprove.sol\":16927:16928   */\n      0x01\n        /* \"@thirdweb-dev/contracts/eip/ERC721AVirtualApprove.sol\":16942:16971   */\n      swap1\n      dup2\n      add\n      dup4\n      and\n      swap1\n      swap4\n      mul\n      0xffffffffffffffff0000000000000000ffffffffffffffff0000000000000000\n      swap1\n      swap5\n      and\n      or\n      swap3\n      swap1\n      swap3\n      or\n      dup4\n      sstore\n        /* \"@thirdweb-dev/contracts/eip/ERC721AVirtualApprove.sol\":17101:17121   */\n      dup12\n      dup7\n      mstore\n        /* \"@thirdweb-dev/contracts/eip/ERC721AVirtualApprove.sol\":17101:17112   */\n      0x04\n        /* \"@thirdweb-dev/contracts/eip/ERC721AVirtualApprove.sol\":17101:17121   */\n      swap1\n      swap5\n      mstore\n      dup3\n      dup6\n      keccak256\n        /* \"@thirdweb-dev/contracts/eip/ERC721AVirtualApprove.sol\":17135:17155   */\n      dup1\n      sload\n        /* \"@thirdweb-dev/contracts/eip/ERC721AVirtualApprove.sol\":17232:17254   */\n      0xffffff00ffffffffffffffffffffffffffffffffffffffffffffffffffffffff\n        /* \"@thirdweb-dev/contracts/eip/ERC721AVirtualApprove.sol\":17202:17217   */\n      timestamp\n        /* \"@thirdweb-dev/contracts/eip/ERC721AVirtualApprove.sol\":17169:17218   */\n      swap1\n      swap4\n      and\n      shl(0xa0, 0x01)\n      mul\n      not(sub(shl(0xe0, 0x01), 0x01))\n      swap1\n      swap2\n      and\n      swap1\n      swap8\n      or\n      swap7\n      swap1\n      swap7\n      or\n        /* \"@thirdweb-dev/contracts/eip/ERC721AVirtualApprove.sol\":17232:17254   */\n      and\n      shl(0xe0, 0x01)\n      or\n      dup6\n      sstore\n        /* \"@thirdweb-dev/contracts/eip/ERC721AVirtualApprove.sol\":17520:17531   */\n      swap2\n      dup10\n      add\n        /* \"@thirdweb-dev/contracts/eip/ERC721AVirtualApprove.sol\":17579:17603   */\n      dup1\n      dup5\n      mstore\n      swap3\n      keccak256\n        /* \"@thirdweb-dev/contracts/eip/ERC721AVirtualApprove.sol\":17621:17634   */\n      dup1\n      sload\n        /* \"@thirdweb-dev/contracts/eip/ERC721AVirtualApprove.sol\":16872:16890   */\n      swap2\n      swap5\n        /* \"@thirdweb-dev/contracts/eip/ERC721AVirtualApprove.sol\":17579:17603   */\n      swap1\n      swap2\n        /* \"@thirdweb-dev/contracts/eip/ERC721AVirtualApprove.sol\":17621:17634   */\n      and\n        /* \"@thirdweb-dev/contracts/eip/ERC721AVirtualApprove.sol\":17617:17994   */\n      tag_665\n      jumpi\n        /* \"@thirdweb-dev/contracts/eip/ERC721AVirtualApprove.sol\":17828:17841   */\n      sload(0x00)\n        /* \"@thirdweb-dev/contracts/eip/ERC721AVirtualApprove.sol\":17813:17824   */\n      dup3\n        /* \"@thirdweb-dev/contracts/eip/ERC721AVirtualApprove.sol\":17813:17841   */\n      eq\n        /* \"@thirdweb-dev/contracts/eip/ERC721AVirtualApprove.sol\":17809:17980   */\n      tag_665\n      jumpi\n        /* \"@thirdweb-dev/contracts/eip/ERC721AVirtualApprove.sol\":17865:17885   */\n      dup1\n      sload\n        /* \"@thirdweb-dev/contracts/eip/ERC721AVirtualApprove.sol\":17933:17961   */\n      0x20\n      dup8\n      add\n      mload\n        /* \"@thirdweb-dev/contracts/eip/ERC721AVirtualApprove.sol\":17907:17961   */\n      0xffffffffffffffff\n      and\n      shl(0xa0, 0x01)\n      mul\n      not(sub(shl(0xe0, 0x01), 0x01))\n      swap1\n      swap2\n      and\n      sub(shl(0xa0, 0x01), 0x01)\n        /* \"@thirdweb-dev/contracts/eip/ERC721AVirtualApprove.sol\":17865:17885   */\n      dup8\n      and\n        /* \"@thirdweb-dev/contracts/eip/ERC721AVirtualApprove.sol\":17907:17961   */\n      or\n      or\n      dup2\n      sstore\n        /* \"@thirdweb-dev/contracts/eip/ERC721AVirtualApprove.sol\":17809:17980   */\n    tag_665:\n      pop\n      pop\n        /* \"@thirdweb-dev/contracts/eip/ERC721AVirtualApprove.sol\":18019:18054   */\n      mload(0x40)\n        /* \"@thirdweb-dev/contracts/eip/ERC721AVirtualApprove.sol\":18046:18053   */\n      dup7\n      swap3\n      pop\n        /* \"@thirdweb-dev/contracts/eip/ERC721AVirtualApprove.sol\":18042:18043   */\n      0x00\n      swap2\n      pop\n      sub(shl(0xa0, 0x01), 0x01)\n        /* \"@thirdweb-dev/contracts/eip/ERC721AVirtualApprove.sol\":18019:18054   */\n      dup5\n      and\n      swap1\n      0xddf252ad1be2c89b69c2b068fc378daa952ba7f163c4a11628f55a4df523b3ef\n      swap1\n        /* \"@thirdweb-dev/contracts/eip/ERC721AVirtualApprove.sol\":18042:18043   */\n      dup4\n      swap1\n        /* \"@thirdweb-dev/contracts/eip/ERC721AVirtualApprove.sol\":18019:18054   */\n      log4\n      pop\n      pop\n        /* \"@thirdweb-dev/contracts/eip/ERC721AVirtualApprove.sol\":18237:18249   */\n      0x01\n        /* \"@thirdweb-dev/contracts/eip/ERC721AVirtualApprove.sol\":18237:18251   */\n      dup1\n      sload\n      dup2\n      add\n      swap1\n      sstore\n      pop\n      pop\n        /* \"@thirdweb-dev/contracts/eip/ERC721AVirtualApprove.sol\":15913:18268   */\n      jump\t// out\n        /* \"@thirdweb-dev/contracts/extension/Royalty.sol\":3717:4078   */\n    tag_449:\n        /* \"@thirdweb-dev/contracts/extension/Royalty.sol\":3836:3842   */\n      0x2710\n        /* \"@thirdweb-dev/contracts/extension/Royalty.sol\":3822:3833   */\n      dup2\n        /* \"@thirdweb-dev/contracts/extension/Royalty.sol\":3822:3842   */\n      gt\n        /* \"@thirdweb-dev/contracts/extension/Royalty.sol\":3818:3921   */\n      iszero\n      tag_670\n      jumpi\n        /* \"@thirdweb-dev/contracts/extension/Royalty.sol\":3865:3910   */\n      mload(0x40)\n      shl(0xe3, 0x0a4930ad)\n      dup2\n      mstore\n        /* \"@thirdweb-dev/contracts/extension/Royalty.sol\":3890:3896   */\n      0x2710\n        /* \"@thirdweb-dev/contracts/extension/Royalty.sol\":3865:3910   */\n      0x04\n      dup3\n      add\n        /* \"#utility.yul\":24974:24999   */\n      mstore\n        /* \"#utility.yul\":25015:25033   */\n      0x24\n      dup2\n      add\n        /* \"#utility.yul\":25008:25042   */\n      dup3\n      swap1\n      mstore\n        /* \"#utility.yul\":24947:24965   */\n      0x44\n      add\n        /* \"@thirdweb-dev/contracts/extension/Royalty.sol\":3865:3910   */\n      tag_284\n        /* \"#utility.yul\":24788:25048   */\n      jump\n        /* \"@thirdweb-dev/contracts/extension/Royalty.sol\":3818:3921   */\n    tag_670:\n        /* \"@thirdweb-dev/contracts/extension/Royalty.sol\":3931:3947   */\n      0x0a\n        /* \"@thirdweb-dev/contracts/extension/Royalty.sol\":3931:3967   */\n      dup1\n      sload\n      sub(shl(0xa0, 0x01), 0x01)\n      dup5\n      and\n        /* \"@thirdweb-dev/contracts/extension/Royalty.sol\":3977:4009   */\n      0xffffffffffffffffffff00000000000000000000000000000000000000000000\n      swap1\n      swap2\n      and\n      dup2\n      or\n      shl(0xa0, 0x01)\n      0xffff\n      dup6\n      and\n      mul\n      or\n      swap1\n      swap2\n      sstore\n        /* \"@thirdweb-dev/contracts/extension/Royalty.sol\":4025:4071   */\n      mload(0x40)\n        /* \"#utility.yul\":3504:3529   */\n      dup3\n      dup2\n      mstore\n        /* \"@thirdweb-dev/contracts/extension/Royalty.sol\":4025:4071   */\n      0x90d7ec04bcb8978719414f82e52e4cb651db41d0e6f8cea6118c2191e6183adb\n      swap1\n        /* \"#utility.yul\":3492:3494   */\n      0x20\n        /* \"#utility.yul\":3477:3495   */\n      add\n        /* \"@thirdweb-dev/contracts/extension/Royalty.sol\":4025:4071   */\n      mload(0x40)\n      dup1\n      swap2\n      sub\n      swap1\n      log2\n        /* \"@thirdweb-dev/contracts/extension/Royalty.sol\":3717:4078   */\n      pop\n      pop\n      jump\t// out\n        /* \"@thirdweb-dev/contracts/eip/ERC721AVirtualApprove.sol\":4713:5887   */\n    tag_452:\n      0x40\n      dup1\n      mload\n      0x60\n      dup2\n      add\n      dup3\n      mstore\n      0x00\n      dup1\n      dup3\n      mstore\n      0x20\n      dup3\n      add\n      dup2\n      swap1\n      mstore\n      swap2\n      dup2\n      add\n      swap2\n      swap1\n      swap2\n      mstore\n        /* \"@thirdweb-dev/contracts/eip/ERC721AVirtualApprove.sol\":4823:4830   */\n      dup2\n        /* \"@thirdweb-dev/contracts/eip/ERC721AVirtualApprove.sol\":4921:4934   */\n      sload(0x00)\n        /* \"@thirdweb-dev/contracts/eip/ERC721AVirtualApprove.sol\":4914:4918   */\n      dup2\n        /* \"@thirdweb-dev/contracts/eip/ERC721AVirtualApprove.sol\":4914:4934   */\n      lt\n        /* \"@thirdweb-dev/contracts/eip/ERC721AVirtualApprove.sol\":4910:5823   */\n      iszero\n      tag_678\n      jumpi\n        /* \"@thirdweb-dev/contracts/eip/ERC721AVirtualApprove.sol\":4958:4989   */\n      0x00\n        /* \"@thirdweb-dev/contracts/eip/ERC721AVirtualApprove.sol\":4992:5009   */\n      dup2\n      dup2\n      mstore\n        /* \"@thirdweb-dev/contracts/eip/ERC721AVirtualApprove.sol\":4992:5003   */\n      0x04\n        /* \"@thirdweb-dev/contracts/eip/ERC721AVirtualApprove.sol\":4992:5009   */\n      0x20\n      swap1\n      dup2\n      mstore\n      0x40\n      swap2\n      dup3\n      swap1\n      keccak256\n        /* \"@thirdweb-dev/contracts/eip/ERC721AVirtualApprove.sol\":4958:5009   */\n      dup3\n      mload\n      0x60\n      dup2\n      add\n      dup5\n      mstore\n      swap1\n      sload\n      sub(shl(0xa0, 0x01), 0x01)\n      dup2\n      and\n      dup3\n      mstore\n      shl(0xa0, 0x01)\n      dup2\n      div\n      0xffffffffffffffff\n      and\n      swap3\n      dup3\n      add\n      swap3\n      swap1\n      swap3\n      mstore\n      shl(0xe0, 0x01)\n      swap1\n      swap2\n      div\n      0xff\n      and\n      iszero\n      iszero\n      swap2\n      dup2\n      add\n      dup3\n      swap1\n      mstore\n      swap1\n        /* \"@thirdweb-dev/contracts/eip/ERC721AVirtualApprove.sol\":5031:5805   */\n      tag_682\n      jumpi\n        /* \"@thirdweb-dev/contracts/eip/ERC721AVirtualApprove.sol\":5084:5098   */\n      dup1\n      mload\n      sub(shl(0xa0, 0x01), 0x01)\n        /* \"@thirdweb-dev/contracts/eip/ERC721AVirtualApprove.sol\":5084:5112   */\n      and\n      iszero\n        /* \"@thirdweb-dev/contracts/eip/ERC721AVirtualApprove.sol\":5080:5187   */\n      tag_680\n      jumpi\n        /* \"@thirdweb-dev/contracts/eip/ERC721AVirtualApprove.sol\":5151:5160   */\n      swap4\n        /* \"@thirdweb-dev/contracts/eip/ERC721AVirtualApprove.sol\":4713:5887   */\n      swap3\n      pop\n      pop\n      pop\n      jump\t// out\n        /* \"@thirdweb-dev/contracts/eip/ERC721AVirtualApprove.sol\":5080:5187   */\n    tag_680:\n      pop\n      not(0x00)\n        /* \"@thirdweb-dev/contracts/eip/ERC721AVirtualApprove.sol\":5547:5553   */\n      add\n        /* \"@thirdweb-dev/contracts/eip/ERC721AVirtualApprove.sol\":5595:5612   */\n      0x00\n      dup2\n      dup2\n      mstore\n        /* \"@thirdweb-dev/contracts/eip/ERC721AVirtualApprove.sol\":5595:5606   */\n      0x04\n        /* \"@thirdweb-dev/contracts/eip/ERC721AVirtualApprove.sol\":5595:5612   */\n      0x20\n      swap1\n      dup2\n      mstore\n      0x40\n      swap2\n      dup3\n      swap1\n      keccak256\n        /* \"@thirdweb-dev/contracts/eip/ERC721AVirtualApprove.sol\":5583:5612   */\n      dup3\n      mload\n      0x60\n      dup2\n      add\n      dup5\n      mstore\n      swap1\n      sload\n      sub(shl(0xa0, 0x01), 0x01)\n      dup2\n      and\n      dup1\n      dup4\n      mstore\n      shl(0xa0, 0x01)\n      dup3\n      div\n      0xffffffffffffffff\n      and\n      swap4\n      dup4\n      add\n      swap4\n      swap1\n      swap4\n      mstore\n      shl(0xe0, 0x01)\n      swap1\n      div\n      0xff\n      and\n      iszero\n      iszero\n      swap3\n      dup2\n      add\n      swap3\n      swap1\n      swap3\n      mstore\n        /* \"@thirdweb-dev/contracts/eip/ERC721AVirtualApprove.sol\":5646:5674   */\n      iszero\n        /* \"@thirdweb-dev/contracts/eip/ERC721AVirtualApprove.sol\":5642:5757   */\n      tag_683\n      jumpi\n        /* \"@thirdweb-dev/contracts/eip/ERC721AVirtualApprove.sol\":5717:5726   */\n      swap4\n        /* \"@thirdweb-dev/contracts/eip/ERC721AVirtualApprove.sol\":4713:5887   */\n      swap3\n      pop\n      pop\n      pop\n      jump\t// out\n        /* \"@thirdweb-dev/contracts/eip/ERC721AVirtualApprove.sol\":5642:5757   */\n    tag_683:\n        /* \"@thirdweb-dev/contracts/eip/ERC721AVirtualApprove.sol\":5504:5783   */\n      jump(tag_680)\n    tag_682:\n        /* \"@thirdweb-dev/contracts/eip/ERC721AVirtualApprove.sol\":4936:5823   */\n      pop\n        /* \"@thirdweb-dev/contracts/eip/ERC721AVirtualApprove.sol\":4910:5823   */\n    tag_678:\n        /* \"@thirdweb-dev/contracts/eip/ERC721AVirtualApprove.sol\":5849:5880   */\n      mload(0x40)\n      shl(0xe1, 0x6f96cda1)\n      dup2\n      mstore\n      0x04\n      add\n      mload(0x40)\n      dup1\n      swap2\n      sub\n      swap1\n      revert\n        /* \"@thirdweb-dev/contracts/extension/BatchMintMetadata.sol\":4992:5354   */\n    tag_462:\n        /* \"@thirdweb-dev/contracts/extension/BatchMintMetadata.sol\":5142:5167   */\n      0x00\n      dup1\n        /* \"@thirdweb-dev/contracts/extension/BatchMintMetadata.sol\":5206:5230   */\n      tag_685\n        /* \"@thirdweb-dev/contracts/extension/BatchMintMetadata.sol\":5217:5230   */\n      dup5\n        /* \"@thirdweb-dev/contracts/extension/BatchMintMetadata.sol\":5206:5214   */\n      dup7\n        /* \"@thirdweb-dev/contracts/extension/BatchMintMetadata.sol\":5206:5230   */\n      tag_338\n      jump\t// in\n    tag_685:\n        /* \"@thirdweb-dev/contracts/extension/BatchMintMetadata.sol\":5278:5286   */\n      0x0c\n        /* \"@thirdweb-dev/contracts/extension/BatchMintMetadata.sol\":5278:5300   */\n      dup1\n      sload\n      0x01\n      dup2\n      add\n      swap1\n      swap2\n      sstore\n      0xdf6966c971051c3d54ec59162606531493a51404a002842f56009d7e5cf4a8c7\n      add\n      dup2\n      swap1\n      sstore\n      0x00\n        /* \"@thirdweb-dev/contracts/extension/BatchMintMetadata.sol\":5311:5327   */\n      dup2\n      dup2\n      mstore\n        /* \"@thirdweb-dev/contracts/extension/BatchMintMetadata.sol\":5311:5318   */\n      0x0d\n        /* \"@thirdweb-dev/contracts/extension/BatchMintMetadata.sol\":5278:5300   */\n      0x20\n        /* \"@thirdweb-dev/contracts/extension/BatchMintMetadata.sol\":5311:5327   */\n      mstore\n      0x40\n      swap1\n      keccak256\n        /* \"@thirdweb-dev/contracts/extension/BatchMintMetadata.sol\":5196:5230   */\n      swap1\n      swap3\n      pop\n      dup3\n      swap2\n      pop\n        /* \"@thirdweb-dev/contracts/extension/BatchMintMetadata.sol\":5311:5347   */\n      tag_687\n        /* \"@thirdweb-dev/contracts/extension/BatchMintMetadata.sol\":5330:5347   */\n      dup5\n        /* \"@thirdweb-dev/contracts/extension/BatchMintMetadata.sol\":5311:5327   */\n      dup3\n        /* \"@thirdweb-dev/contracts/extension/BatchMintMetadata.sol\":5311:5347   */\n      tag_602\n      jump\t// in\n    tag_687:\n      pop\n        /* \"@thirdweb-dev/contracts/extension/BatchMintMetadata.sol\":4992:5354   */\n      swap4\n      pop\n      swap4\n      swap2\n      pop\n      pop\n      jump\t// out\n        /* \"@thirdweb-dev/contracts/extension/ContractMetadata.sol\":1393:1578   */\n    tag_485:\n        /* \"@thirdweb-dev/contracts/extension/ContractMetadata.sol\":1459:1480   */\n      0x00\n        /* \"@thirdweb-dev/contracts/extension/ContractMetadata.sol\":1483:1494   */\n      0x08\n        /* \"@thirdweb-dev/contracts/extension/ContractMetadata.sol\":1459:1494   */\n      dup1\n      sload\n      tag_691\n      swap1\n      tag_292\n      jump\t// in\n    tag_691:\n      dup1\n      0x1f\n      add\n      0x20\n      dup1\n      swap2\n      div\n      mul\n      0x20\n      add\n      mload(0x40)\n      swap1\n      dup2\n      add\n      0x40\n      mstore\n      dup1\n      swap3\n      swap2\n      swap1\n      dup2\n      dup2\n      mstore\n      0x20\n      add\n      dup3\n      dup1\n      sload\n      tag_692\n      swap1\n      tag_292\n      jump\t// in\n    tag_692:\n      dup1\n      iszero\n      tag_693\n      jumpi\n      dup1\n      0x1f\n      lt\n      tag_694\n      jumpi\n      0x0100\n      dup1\n      dup4\n      sload\n      div\n      mul\n      dup4\n      mstore\n      swap2\n      0x20\n      add\n      swap2\n      jump(tag_693)\n    tag_694:\n      dup3\n      add\n      swap2\n      swap1\n      0x00\n      mstore\n      keccak256(0x00, 0x20)\n      swap1\n    tag_695:\n      dup2\n      sload\n      dup2\n      mstore\n      swap1\n      0x01\n      add\n      swap1\n      0x20\n      add\n      dup1\n      dup4\n      gt\n      tag_695\n      jumpi\n      dup3\n      swap1\n      sub\n      0x1f\n      and\n      dup3\n      add\n      swap2\n    tag_693:\n      pop\n      pop\n      pop\n      pop\n      pop\n      swap1\n      pop\n        /* \"@thirdweb-dev/contracts/extension/ContractMetadata.sol\":1518:1522   */\n      dup2\n        /* \"@thirdweb-dev/contracts/extension/ContractMetadata.sol\":1504:1515   */\n      0x08\n        /* \"@thirdweb-dev/contracts/extension/ContractMetadata.sol\":1504:1522   */\n      swap1\n      dup2\n      tag_696\n      swap2\n      swap1\n      tag_602\n      jump\t// in\n    tag_696:\n      pop\n        /* \"@thirdweb-dev/contracts/extension/ContractMetadata.sol\":1538:1571   */\n      0xc9c7c3fe08b88b4df9d4d47ef47d2c43d55c025a0ba88ca442580ed9e7348a16\n        /* \"@thirdweb-dev/contracts/extension/ContractMetadata.sol\":1557:1564   */\n      dup2\n        /* \"@thirdweb-dev/contracts/extension/ContractMetadata.sol\":1566:1570   */\n      dup4\n        /* \"@thirdweb-dev/contracts/extension/ContractMetadata.sol\":1538:1571   */\n      mload(0x40)\n      tag_697\n      swap3\n      swap2\n      swap1\n      tag_698\n      jump\t// in\n    tag_697:\n      mload(0x40)\n      dup1\n      swap2\n      sub\n      swap1\n      log1\n        /* \"@thirdweb-dev/contracts/extension/ContractMetadata.sol\":1449:1578   */\n      pop\n        /* \"@thirdweb-dev/contracts/extension/ContractMetadata.sol\":1393:1578   */\n      pop\n      jump\t// out\n        /* \"@thirdweb-dev/contracts/extension/Royalty.sol\":4959:5311   */\n    tag_521:\n        /* \"@thirdweb-dev/contracts/extension/Royalty.sol\":5076:5082   */\n      0x2710\n        /* \"@thirdweb-dev/contracts/extension/Royalty.sol\":5069:5073   */\n      dup2\n        /* \"@thirdweb-dev/contracts/extension/Royalty.sol\":5069:5082   */\n      gt\n        /* \"@thirdweb-dev/contracts/extension/Royalty.sol\":5065:5154   */\n      iszero\n      tag_700\n      jumpi\n        /* \"@thirdweb-dev/contracts/extension/Royalty.sol\":5105:5143   */\n      mload(0x40)\n      shl(0xe3, 0x0a4930ad)\n      dup2\n      mstore\n        /* \"@thirdweb-dev/contracts/extension/Royalty.sol\":5130:5136   */\n      0x2710\n        /* \"@thirdweb-dev/contracts/extension/Royalty.sol\":5105:5143   */\n      0x04\n      dup3\n      add\n        /* \"#utility.yul\":24974:24999   */\n      mstore\n        /* \"#utility.yul\":25015:25033   */\n      0x24\n      dup2\n      add\n        /* \"#utility.yul\":25008:25042   */\n      dup3\n      swap1\n      mstore\n        /* \"#utility.yul\":24947:24965   */\n      0x44\n      add\n        /* \"@thirdweb-dev/contracts/extension/Royalty.sol\":5105:5143   */\n      tag_284\n        /* \"#utility.yul\":24788:25048   */\n      jump\n        /* \"@thirdweb-dev/contracts/extension/Royalty.sol\":5065:5154   */\n    tag_700:\n        /* \"@thirdweb-dev/contracts/extension/Royalty.sol\":5196:5245   */\n      0x40\n      dup1\n      mload\n      dup1\n      dup3\n      add\n      dup3\n      mstore\n      sub(shl(0xa0, 0x01), 0x01)\n      dup5\n      dup2\n      and\n      dup1\n      dup4\n      mstore\n      0x20\n      dup1\n      dup5\n      add\n      dup7\n      dup2\n      mstore\n      0x00\n        /* \"@thirdweb-dev/contracts/extension/Royalty.sol\":5164:5193   */\n      dup10\n      dup2\n      mstore\n        /* \"@thirdweb-dev/contracts/extension/Royalty.sol\":5164:5183   */\n      0x0b\n        /* \"@thirdweb-dev/contracts/extension/Royalty.sol\":5164:5193   */\n      dup4\n      mstore\n      dup7\n      swap1\n      keccak256\n        /* \"@thirdweb-dev/contracts/extension/Royalty.sol\":5164:5245   */\n      swap5\n      mload\n      dup6\n      sload\n      not(0xffffffffffffffffffffffffffffffffffffffff)\n      and\n      swap5\n      and\n      swap4\n      swap1\n      swap4\n      or\n      dup5\n      sstore\n      swap2\n      mload\n      0x01\n      swap1\n      swap4\n      add\n      swap3\n      swap1\n      swap3\n      sstore\n        /* \"@thirdweb-dev/contracts/extension/Royalty.sol\":5261:5304   */\n      swap2\n      mload\n        /* \"#utility.yul\":3504:3529   */\n      dup4\n      dup2\n      mstore\n        /* \"@thirdweb-dev/contracts/extension/Royalty.sol\":5196:5245   */\n      swap1\n      swap2\n        /* \"@thirdweb-dev/contracts/extension/Royalty.sol\":5164:5193   */\n      dup6\n      swap2\n        /* \"@thirdweb-dev/contracts/extension/Royalty.sol\":5261:5304   */\n      0x7365cf4122f072a3365c20d54eff9b38d73c096c28e1892ec8f5b0e403a0f12d\n      swap2\n        /* \"#utility.yul\":3477:3495   */\n      add\n        /* \"@thirdweb-dev/contracts/extension/Royalty.sol\":5261:5304   */\n      mload(0x40)\n      dup1\n      swap2\n      sub\n      swap1\n      log3\n        /* \"@thirdweb-dev/contracts/extension/Royalty.sol\":4959:5311   */\n      pop\n      pop\n      pop\n      jump\t// out\n        /* \"@thirdweb-dev/contracts/lib/Address.sol\":6671:6869   */\n    tag_545:\n        /* \"@thirdweb-dev/contracts/lib/Address.sol\":6754:6766   */\n      0x60\n        /* \"@thirdweb-dev/contracts/lib/Address.sol\":6785:6862   */\n      tag_492\n        /* \"@thirdweb-dev/contracts/lib/Address.sol\":6806:6812   */\n      dup4\n        /* \"@thirdweb-dev/contracts/lib/Address.sol\":6814:6818   */\n      dup4\n        /* \"@thirdweb-dev/contracts/lib/Address.sol\":6785:6862   */\n      mload(0x40)\n      dup1\n      0x60\n      add\n      0x40\n      mstore\n      dup1\n      0x27\n      dup2\n      mstore\n      0x20\n      add\n      data_9fdcd12e4b726339b32a442b0a448365d5d85c96b2d2cff917b4f66c63110398\n      0x27\n      swap2\n      codecopy\n        /* \"@thirdweb-dev/contracts/lib/Address.sol\":6785:6805   */\n      tag_705\n        /* \"@thirdweb-dev/contracts/lib/Address.sol\":6785:6862   */\n      jump\t// in\n        /* \"@thirdweb-dev/contracts/eip/ERC721AVirtualApprove.sol\":19019:19669   */\n    tag_562:\n        /* \"@thirdweb-dev/contracts/eip/ERC721AVirtualApprove.sol\":19197:19269   */\n      mload(0x40)\n      shl(0xe1, 0x0a85bd01)\n      dup2\n      mstore\n        /* \"@thirdweb-dev/contracts/eip/ERC721AVirtualApprove.sol\":19177:19181   */\n      0x00\n      swap1\n      sub(shl(0xa0, 0x01), 0x01)\n        /* \"@thirdweb-dev/contracts/eip/ERC721AVirtualApprove.sol\":19197:19233   */\n      dup6\n      and\n      swap1\n      0x150b7a02\n      swap1\n        /* \"@thirdweb-dev/contracts/eip/ERC721AVirtualApprove.sol\":19197:19269   */\n      tag_709\n      swap1\n        /* \"@thirdweb-dev/contracts/base/ERC721Base.sol\":8521:8531   */\n      caller\n      swap1\n        /* \"@thirdweb-dev/contracts/eip/ERC721AVirtualApprove.sol\":19248:19252   */\n      dup10\n      swap1\n        /* \"@thirdweb-dev/contracts/eip/ERC721AVirtualApprove.sol\":19254:19261   */\n      dup9\n      swap1\n        /* \"@thirdweb-dev/contracts/eip/ERC721AVirtualApprove.sol\":19263:19268   */\n      dup9\n      swap1\n        /* \"@thirdweb-dev/contracts/eip/ERC721AVirtualApprove.sol\":19197:19269   */\n      0x04\n      add\n      tag_710\n      jump\t// in\n    tag_709:\n      0x20\n      mload(0x40)\n      dup1\n      dup4\n      sub\n      dup2\n      0x00\n      dup8\n      gas\n      call\n      swap3\n      pop\n      pop\n      pop\n      dup1\n      iszero\n      tag_711\n      jumpi\n      pop\n      0x40\n      dup1\n      mload\n      0x1f\n      returndatasize\n      swap1\n      dup2\n      add\n      not(0x1f)\n      and\n      dup3\n      add\n      swap1\n      swap3\n      mstore\n      tag_712\n      swap2\n      dup2\n      add\n      swap1\n      tag_713\n      jump\t// in\n    tag_712:\n      0x01\n    tag_711:\n        /* \"@thirdweb-dev/contracts/eip/ERC721AVirtualApprove.sol\":19193:19663   */\n      tag_714\n      jumpi\n      returndatasize\n      dup1\n      dup1\n      iszero\n      tag_719\n      jumpi\n      mload(0x40)\n      swap2\n      pop\n      and(add(returndatasize, 0x3f), not(0x1f))\n      dup3\n      add\n      0x40\n      mstore\n      returndatasize\n      dup3\n      mstore\n      returndatasize\n      0x00\n      0x20\n      dup5\n      add\n      returndatacopy\n      jump(tag_718)\n    tag_719:\n      0x60\n      swap2\n      pop\n    tag_718:\n      pop\n        /* \"@thirdweb-dev/contracts/eip/ERC721AVirtualApprove.sol\":19428:19434   */\n      dup1\n        /* \"@thirdweb-dev/contracts/eip/ERC721AVirtualApprove.sol\":19428:19441   */\n      mload\n        /* \"@thirdweb-dev/contracts/eip/ERC721AVirtualApprove.sol\":19445:19446   */\n      0x00\n        /* \"@thirdweb-dev/contracts/eip/ERC721AVirtualApprove.sol\":19428:19446   */\n      sub\n        /* \"@thirdweb-dev/contracts/eip/ERC721AVirtualApprove.sol\":19424:19653   */\n      tag_720\n      jumpi\n        /* \"@thirdweb-dev/contracts/eip/ERC721AVirtualApprove.sol\":19473:19513   */\n      mload(0x40)\n      shl(0xe1, 0x68d2bf6b)\n      dup2\n      mstore\n      0x04\n      add\n      mload(0x40)\n      dup1\n      swap2\n      sub\n      swap1\n      revert\n        /* \"@thirdweb-dev/contracts/eip/ERC721AVirtualApprove.sol\":19424:19653   */\n    tag_720:\n        /* \"@thirdweb-dev/contracts/eip/ERC721AVirtualApprove.sol\":19613:19619   */\n      dup1\n        /* \"@thirdweb-dev/contracts/eip/ERC721AVirtualApprove.sol\":19607:19620   */\n      mload\n        /* \"@thirdweb-dev/contracts/eip/ERC721AVirtualApprove.sol\":19598:19604   */\n      dup2\n        /* \"@thirdweb-dev/contracts/eip/ERC721AVirtualApprove.sol\":19594:19596   */\n      0x20\n        /* \"@thirdweb-dev/contracts/eip/ERC721AVirtualApprove.sol\":19590:19605   */\n      add\n        /* \"@thirdweb-dev/contracts/eip/ERC721AVirtualApprove.sol\":19583:19621   */\n      revert\n        /* \"@thirdweb-dev/contracts/eip/ERC721AVirtualApprove.sol\":19193:19663   */\n    tag_714:\n      not(sub(shl(0xe0, 0x01), 0x01))\n        /* \"@thirdweb-dev/contracts/eip/ERC721AVirtualApprove.sol\":19315:19370   */\n      and\n      shl(0xe1, 0x0a85bd01)\n      eq\n      swap1\n      pop\n        /* \"@thirdweb-dev/contracts/eip/ERC721AVirtualApprove.sol\":19019:19669   */\n      swap5\n      swap4\n      pop\n      pop\n      pop\n      pop\n      jump\t// out\n        /* \"@thirdweb-dev/contracts/extension/BatchMintMetadata.sol\":3185:3591   */\n    tag_580:\n        /* \"@thirdweb-dev/contracts/extension/BatchMintMetadata.sol\":3247:3260   */\n      0x60\n        /* \"@thirdweb-dev/contracts/extension/BatchMintMetadata.sol\":3272:3297   */\n      0x00\n        /* \"@thirdweb-dev/contracts/extension/BatchMintMetadata.sol\":3300:3317   */\n      tag_724\n        /* \"@thirdweb-dev/contracts/extension/BatchMintMetadata.sol\":2035:2043   */\n      0x0c\n        /* \"@thirdweb-dev/contracts/extension/BatchMintMetadata.sol\":2035:2050   */\n      sload\n      swap1\n        /* \"@thirdweb-dev/contracts/extension/BatchMintMetadata.sol\":1961:2057   */\n      jump\n        /* \"@thirdweb-dev/contracts/extension/BatchMintMetadata.sol\":3300:3317   */\n    tag_724:\n        /* \"@thirdweb-dev/contracts/extension/BatchMintMetadata.sol\":3272:3317   */\n      swap1\n      pop\n        /* \"@thirdweb-dev/contracts/extension/BatchMintMetadata.sol\":3327:3351   */\n      0x00\n        /* \"@thirdweb-dev/contracts/extension/BatchMintMetadata.sol\":3354:3362   */\n      0x0c\n        /* \"@thirdweb-dev/contracts/extension/BatchMintMetadata.sol\":3327:3362   */\n      dup1\n      sload\n      dup1\n      0x20\n      mul\n      0x20\n      add\n      mload(0x40)\n      swap1\n      dup2\n      add\n      0x40\n      mstore\n      dup1\n      swap3\n      swap2\n      swap1\n      dup2\n      dup2\n      mstore\n      0x20\n      add\n      dup3\n      dup1\n      sload\n      dup1\n      iszero\n      tag_725\n      jumpi\n      0x20\n      mul\n      dup3\n      add\n      swap2\n      swap1\n      0x00\n      mstore\n      keccak256(0x00, 0x20)\n      swap1\n    tag_726:\n      dup2\n      sload\n      dup2\n      mstore\n      0x20\n      add\n      swap1\n      0x01\n      add\n      swap1\n      dup1\n      dup4\n      gt\n      tag_726\n      jumpi\n    tag_725:\n      pop\n      pop\n      pop\n      pop\n      pop\n      swap1\n      pop\n        /* \"@thirdweb-dev/contracts/extension/BatchMintMetadata.sol\":3378:3387   */\n      0x00\n        /* \"@thirdweb-dev/contracts/extension/BatchMintMetadata.sol\":3373:3534   */\n    tag_727:\n        /* \"@thirdweb-dev/contracts/extension/BatchMintMetadata.sol\":3397:3414   */\n      dup3\n        /* \"@thirdweb-dev/contracts/extension/BatchMintMetadata.sol\":3393:3394   */\n      dup2\n        /* \"@thirdweb-dev/contracts/extension/BatchMintMetadata.sol\":3393:3414   */\n      lt\n        /* \"@thirdweb-dev/contracts/extension/BatchMintMetadata.sol\":3373:3534   */\n      iszero\n      tag_728\n      jumpi\n        /* \"@thirdweb-dev/contracts/extension/BatchMintMetadata.sol\":3453:3460   */\n      dup2\n        /* \"@thirdweb-dev/contracts/extension/BatchMintMetadata.sol\":3461:3462   */\n      dup2\n        /* \"@thirdweb-dev/contracts/extension/BatchMintMetadata.sol\":3453:3463   */\n      dup2\n      mload\n      dup2\n      lt\n      tag_731\n      jumpi\n      tag_731\n      tag_356\n      jump\t// in\n    tag_731:\n      0x20\n      mul\n      0x20\n      add\n      add\n      mload\n        /* \"@thirdweb-dev/contracts/extension/BatchMintMetadata.sol\":3442:3450   */\n      dup6\n        /* \"@thirdweb-dev/contracts/extension/BatchMintMetadata.sol\":3442:3463   */\n      lt\n        /* \"@thirdweb-dev/contracts/extension/BatchMintMetadata.sol\":3438:3524   */\n      iszero\n      tag_732\n      jumpi\n        /* \"@thirdweb-dev/contracts/extension/BatchMintMetadata.sol\":3490:3497   */\n      0x0d\n        /* \"@thirdweb-dev/contracts/extension/BatchMintMetadata.sol\":3490:3509   */\n      0x00\n        /* \"@thirdweb-dev/contracts/extension/BatchMintMetadata.sol\":3498:3505   */\n      dup4\n        /* \"@thirdweb-dev/contracts/extension/BatchMintMetadata.sol\":3506:3507   */\n      dup4\n        /* \"@thirdweb-dev/contracts/extension/BatchMintMetadata.sol\":3498:3508   */\n      dup2\n      mload\n      dup2\n      lt\n      tag_734\n      jumpi\n      tag_734\n      tag_356\n      jump\t// in\n    tag_734:\n      0x20\n      mul\n      0x20\n      add\n      add\n      mload\n        /* \"@thirdweb-dev/contracts/extension/BatchMintMetadata.sol\":3490:3509   */\n      dup2\n      mstore\n      0x20\n      add\n      swap1\n      dup2\n      mstore\n      0x20\n      add\n      0x00\n      keccak256\n        /* \"@thirdweb-dev/contracts/extension/BatchMintMetadata.sol\":3483:3509   */\n      dup1\n      sload\n      tag_735\n      swap1\n      tag_292\n      jump\t// in\n    tag_735:\n      dup1\n      0x1f\n      add\n      0x20\n      dup1\n      swap2\n      div\n      mul\n      0x20\n      add\n      mload(0x40)\n      swap1\n      dup2\n      add\n      0x40\n      mstore\n      dup1\n      swap3\n      swap2\n      swap1\n      dup2\n      dup2\n      mstore\n      0x20\n      add\n      dup3\n      dup1\n      sload\n      tag_736\n      swap1\n      tag_292\n      jump\t// in\n    tag_736:\n      dup1\n      iszero\n      tag_737\n      jumpi\n      dup1\n      0x1f\n      lt\n      tag_738\n      jumpi\n      0x0100\n      dup1\n      dup4\n      sload\n      div\n      mul\n      dup4\n      mstore\n      swap2\n      0x20\n      add\n      swap2\n      jump(tag_737)\n    tag_738:\n      dup3\n      add\n      swap2\n      swap1\n      0x00\n      mstore\n      keccak256(0x00, 0x20)\n      swap1\n    tag_739:\n      dup2\n      sload\n      dup2\n      mstore\n      swap1\n      0x01\n      add\n      swap1\n      0x20\n      add\n      dup1\n      dup4\n      gt\n      tag_739\n      jumpi\n      dup3\n      swap1\n      sub\n      0x1f\n      and\n      dup3\n      add\n      swap2\n    tag_737:\n      pop\n      pop\n      pop\n      pop\n      pop\n      swap4\n      pop\n      pop\n      pop\n      pop\n        /* \"@thirdweb-dev/contracts/extension/BatchMintMetadata.sol\":3185:3591   */\n      swap2\n      swap1\n      pop\n      jump\t// out\n        /* \"@thirdweb-dev/contracts/extension/BatchMintMetadata.sol\":3438:3524   */\n    tag_732:\n        /* \"@thirdweb-dev/contracts/extension/BatchMintMetadata.sol\":3416:3422   */\n      tag_740\n        /* \"@thirdweb-dev/contracts/extension/BatchMintMetadata.sol\":3421:3422   */\n      0x01\n        /* \"@thirdweb-dev/contracts/extension/BatchMintMetadata.sol\":3416:3422   */\n      dup3\n      tag_338\n      jump\t// in\n    tag_740:\n      swap1\n      pop\n        /* \"@thirdweb-dev/contracts/extension/BatchMintMetadata.sol\":3373:3534   */\n      jump(tag_727)\n    tag_728:\n      pop\n        /* \"@thirdweb-dev/contracts/extension/BatchMintMetadata.sol\":3551:3584   */\n      mload(0x40)\n      shl(0xe2, 0x09797f69)\n      dup2\n      mstore\n      0x04\n      dup2\n      add\n        /* \"#utility.yul\":3504:3529   */\n      dup6\n      swap1\n      mstore\n        /* \"#utility.yul\":3477:3495   */\n      0x24\n      add\n        /* \"@thirdweb-dev/contracts/extension/BatchMintMetadata.sol\":3551:3584   */\n      tag_284\n        /* \"#utility.yul\":3358:3535   */\n      jump\n        /* \"@thirdweb-dev/contracts/lib/Strings.sol\":303:1006   */\n    tag_582:\n        /* \"@thirdweb-dev/contracts/lib/Strings.sol\":359:372   */\n      0x60\n        /* \"@thirdweb-dev/contracts/lib/Strings.sol\":576:581   */\n      dup2\n        /* \"@thirdweb-dev/contracts/lib/Strings.sol\":585:586   */\n      0x00\n        /* \"@thirdweb-dev/contracts/lib/Strings.sol\":576:586   */\n      sub\n        /* \"@thirdweb-dev/contracts/lib/Strings.sol\":572:623   */\n      tag_743\n      jumpi\n      pop\n      pop\n        /* \"@thirdweb-dev/contracts/lib/Strings.sol\":602:612   */\n      0x40\n      dup1\n      mload\n      dup1\n      dup3\n      add\n      swap1\n      swap2\n      mstore\n      0x01\n      dup2\n      mstore\n      shl(0xfc, 0x03)\n      0x20\n      dup3\n      add\n      mstore\n      swap1\n        /* \"@thirdweb-dev/contracts/lib/Strings.sol\":303:1006   */\n      jump\t// out\n        /* \"@thirdweb-dev/contracts/lib/Strings.sol\":572:623   */\n    tag_743:\n        /* \"@thirdweb-dev/contracts/lib/Strings.sol\":647:652   */\n      dup2\n        /* \"@thirdweb-dev/contracts/lib/Strings.sol\":632:644   */\n      0x00\n        /* \"@thirdweb-dev/contracts/lib/Strings.sol\":686:761   */\n    tag_744:\n        /* \"@thirdweb-dev/contracts/lib/Strings.sol\":693:702   */\n      dup2\n      iszero\n        /* \"@thirdweb-dev/contracts/lib/Strings.sol\":686:761   */\n      tag_745\n      jumpi\n        /* \"@thirdweb-dev/contracts/lib/Strings.sol\":718:726   */\n      dup1\n      tag_746\n      dup2\n      tag_747\n      jump\t// in\n    tag_746:\n      swap2\n      pop\n        /* \"@thirdweb-dev/contracts/lib/Strings.sol\":740:750   */\n      tag_748\n      swap1\n      pop\n        /* \"@thirdweb-dev/contracts/lib/Strings.sol\":748:750   */\n      0x0a\n        /* \"@thirdweb-dev/contracts/lib/Strings.sol\":740:750   */\n      dup4\n      tag_390\n      jump\t// in\n    tag_748:\n      swap2\n      pop\n        /* \"@thirdweb-dev/contracts/lib/Strings.sol\":686:761   */\n      jump(tag_744)\n    tag_745:\n        /* \"@thirdweb-dev/contracts/lib/Strings.sol\":770:789   */\n      0x00\n        /* \"@thirdweb-dev/contracts/lib/Strings.sol\":802:808   */\n      dup2\n        /* \"@thirdweb-dev/contracts/lib/Strings.sol\":792:809   */\n      0xffffffffffffffff\n      dup2\n      gt\n      iszero\n      tag_750\n      jumpi\n      tag_750\n      tag_431\n      jump\t// in\n    tag_750:\n      mload(0x40)\n      swap1\n      dup1\n      dup3\n      mstore\n      dup1\n      0x1f\n      add\n      not(0x1f)\n      and\n      0x20\n      add\n      dup3\n      add\n      0x40\n      mstore\n      dup1\n      iszero\n      tag_751\n      jumpi\n      0x20\n      dup3\n      add\n      dup2\n      dup1\n      calldatasize\n      dup4\n      calldatacopy\n      add\n      swap1\n      pop\n    tag_751:\n      pop\n        /* \"@thirdweb-dev/contracts/lib/Strings.sol\":770:809   */\n      swap1\n      pop\n        /* \"@thirdweb-dev/contracts/lib/Strings.sol\":819:969   */\n    tag_752:\n        /* \"@thirdweb-dev/contracts/lib/Strings.sol\":826:836   */\n      dup5\n      iszero\n        /* \"@thirdweb-dev/contracts/lib/Strings.sol\":819:969   */\n      tag_423\n      jumpi\n        /* \"@thirdweb-dev/contracts/lib/Strings.sol\":852:863   */\n      tag_754\n        /* \"@thirdweb-dev/contracts/lib/Strings.sol\":862:863   */\n      0x01\n        /* \"@thirdweb-dev/contracts/lib/Strings.sol\":852:863   */\n      dup4\n      tag_755\n      jump\t// in\n    tag_754:\n      swap2\n      pop\n        /* \"@thirdweb-dev/contracts/lib/Strings.sol\":920:930   */\n      tag_756\n        /* \"@thirdweb-dev/contracts/lib/Strings.sol\":928:930   */\n      0x0a\n        /* \"@thirdweb-dev/contracts/lib/Strings.sol\":920:925   */\n      dup7\n        /* \"@thirdweb-dev/contracts/lib/Strings.sol\":920:930   */\n      tag_757\n      jump\t// in\n    tag_756:\n        /* \"@thirdweb-dev/contracts/lib/Strings.sol\":907:931   */\n      tag_758\n      swap1\n        /* \"@thirdweb-dev/contracts/lib/Strings.sol\":907:909   */\n      0x30\n        /* \"@thirdweb-dev/contracts/lib/Strings.sol\":907:931   */\n      tag_338\n      jump\t// in\n    tag_758:\n        /* \"@thirdweb-dev/contracts/lib/Strings.sol\":894:933   */\n      0xf8\n      shl\n        /* \"@thirdweb-dev/contracts/lib/Strings.sol\":877:883   */\n      dup2\n        /* \"@thirdweb-dev/contracts/lib/Strings.sol\":884:890   */\n      dup4\n        /* \"@thirdweb-dev/contracts/lib/Strings.sol\":877:891   */\n      dup2\n      mload\n      dup2\n      lt\n      tag_760\n      jumpi\n      tag_760\n      tag_356\n      jump\t// in\n    tag_760:\n      0x20\n      add\n      add\n        /* \"@thirdweb-dev/contracts/lib/Strings.sol\":877:933   */\n      swap1\n      not(0xffffffffffffffffffffffffffffffffffffffffffffffffffffffffffffff)\n      and\n      swap1\n      dup2\n      0x00\n      byte\n      swap1\n      mstore8\n      pop\n        /* \"@thirdweb-dev/contracts/lib/Strings.sol\":947:958   */\n      tag_761\n        /* \"@thirdweb-dev/contracts/lib/Strings.sol\":956:958   */\n      0x0a\n        /* \"@thirdweb-dev/contracts/lib/Strings.sol\":947:958   */\n      dup7\n      tag_390\n      jump\t// in\n    tag_761:\n      swap5\n      pop\n        /* \"@thirdweb-dev/contracts/lib/Strings.sol\":819:969   */\n      jump(tag_752)\n        /* \"@thirdweb-dev/contracts/lib/Address.sol\":7055:7380   */\n    tag_705:\n        /* \"@thirdweb-dev/contracts/lib/Address.sol\":7196:7208   */\n      0x60\n        /* \"@thirdweb-dev/contracts/lib/Address.sol\":7221:7233   */\n      0x00\n        /* \"@thirdweb-dev/contracts/lib/Address.sol\":7235:7258   */\n      dup1\n        /* \"@thirdweb-dev/contracts/lib/Address.sol\":7262:7268   */\n      dup6\n      sub(shl(0xa0, 0x01), 0x01)\n        /* \"@thirdweb-dev/contracts/lib/Address.sol\":7262:7281   */\n      and\n        /* \"@thirdweb-dev/contracts/lib/Address.sol\":7282:7286   */\n      dup6\n        /* \"@thirdweb-dev/contracts/lib/Address.sol\":7262:7287   */\n      mload(0x40)\n      tag_765\n      swap2\n      swap1\n      tag_766\n      jump\t// in\n    tag_765:\n      0x00\n      mload(0x40)\n      dup1\n      dup4\n      sub\n      dup2\n      dup6\n      gas\n      delegatecall\n      swap2\n      pop\n      pop\n      returndatasize\n      dup1\n      0x00\n      dup2\n      eq\n      tag_769\n      jumpi\n      mload(0x40)\n      swap2\n      pop\n      and(add(returndatasize, 0x3f), not(0x1f))\n      dup3\n      add\n      0x40\n      mstore\n      returndatasize\n      dup3\n      mstore\n      returndatasize\n      0x00\n      0x20\n      dup5\n      add\n      returndatacopy\n      jump(tag_768)\n    tag_769:\n      0x60\n      swap2\n      pop\n    tag_768:\n      pop\n        /* \"@thirdweb-dev/contracts/lib/Address.sol\":7220:7287   */\n      swap2\n      pop\n      swap2\n      pop\n        /* \"@thirdweb-dev/contracts/lib/Address.sol\":7304:7373   */\n      tag_770\n        /* \"@thirdweb-dev/contracts/lib/Address.sol\":7331:7337   */\n      dup7\n        /* \"@thirdweb-dev/contracts/lib/Address.sol\":7339:7346   */\n      dup4\n        /* \"@thirdweb-dev/contracts/lib/Address.sol\":7348:7358   */\n      dup4\n        /* \"@thirdweb-dev/contracts/lib/Address.sol\":7360:7372   */\n      dup8\n        /* \"@thirdweb-dev/contracts/lib/Address.sol\":7304:7330   */\n      tag_771\n        /* \"@thirdweb-dev/contracts/lib/Address.sol\":7304:7373   */\n      jump\t// in\n    tag_770:\n        /* \"@thirdweb-dev/contracts/lib/Address.sol\":7297:7373   */\n      swap7\n        /* \"@thirdweb-dev/contracts/lib/Address.sol\":7055:7380   */\n      swap6\n      pop\n      pop\n      pop\n      pop\n      pop\n      pop\n      jump\t// out\n        /* \"@thirdweb-dev/contracts/lib/Address.sol\":7668:8296   */\n    tag_771:\n        /* \"@thirdweb-dev/contracts/lib/Address.sol\":7848:7860   */\n      0x60\n        /* \"@thirdweb-dev/contracts/lib/Address.sol\":7876:7883   */\n      dup4\n        /* \"@thirdweb-dev/contracts/lib/Address.sol\":7872:8290   */\n      iszero\n      tag_773\n      jumpi\n        /* \"@thirdweb-dev/contracts/lib/Address.sol\":7903:7913   */\n      dup3\n        /* \"@thirdweb-dev/contracts/lib/Address.sol\":7903:7920   */\n      mload\n        /* \"@thirdweb-dev/contracts/lib/Address.sol\":7924:7925   */\n      0x00\n        /* \"@thirdweb-dev/contracts/lib/Address.sol\":7903:7925   */\n      sub\n        /* \"@thirdweb-dev/contracts/lib/Address.sol\":7899:8185   */\n      tag_776\n      jumpi\n      sub(shl(0xa0, 0x01), 0x01)\n        /* \"@thirdweb-dev/contracts/lib/Address.sol\":1695:1714   */\n      dup6\n      and\n      extcodesize\n        /* \"@thirdweb-dev/contracts/lib/Address.sol\":8110:8170   */\n      tag_776\n      jumpi\n      mload(0x40)\n      shl(0xe5, 0x461bcd)\n      dup2\n      mstore\n        /* \"#utility.yul\":27032:27034   */\n      0x20\n        /* \"@thirdweb-dev/contracts/lib/Address.sol\":8110:8170   */\n      0x04\n      dup3\n      add\n        /* \"#utility.yul\":27014:27035   */\n      mstore\n        /* \"#utility.yul\":27071:27073   */\n      0x1d\n        /* \"#utility.yul\":27051:27069   */\n      0x24\n      dup3\n      add\n        /* \"#utility.yul\":27044:27074   */\n      mstore\n        /* \"#utility.yul\":27110:27141   */\n      0x416464726573733a2063616c6c20746f206e6f6e2d636f6e7472616374000000\n        /* \"#utility.yul\":27090:27108   */\n      0x44\n      dup3\n      add\n        /* \"#utility.yul\":27083:27142   */\n      mstore\n        /* \"#utility.yul\":27159:27177   */\n      0x64\n      add\n        /* \"@thirdweb-dev/contracts/lib/Address.sol\":8110:8170   */\n      tag_284\n        /* \"#utility.yul\":26830:27183   */\n      jump\n        /* \"@thirdweb-dev/contracts/lib/Address.sol\":8110:8170   */\n    tag_776:\n      pop\n        /* \"@thirdweb-dev/contracts/lib/Address.sol\":8205:8215   */\n      dup2\n        /* \"@thirdweb-dev/contracts/lib/Address.sol\":8198:8215   */\n      jump(tag_423)\n        /* \"@thirdweb-dev/contracts/lib/Address.sol\":7872:8290   */\n    tag_773:\n        /* \"@thirdweb-dev/contracts/lib/Address.sol\":8246:8279   */\n      tag_423\n        /* \"@thirdweb-dev/contracts/lib/Address.sol\":8254:8264   */\n      dup4\n        /* \"@thirdweb-dev/contracts/lib/Address.sol\":8266:8278   */\n      dup4\n        /* \"@thirdweb-dev/contracts/lib/Address.sol\":8977:8994   */\n      dup2\n      mload\n        /* \"@thirdweb-dev/contracts/lib/Address.sol\":8977:8998   */\n      iszero\n        /* \"@thirdweb-dev/contracts/lib/Address.sol\":8973:9352   */\n      tag_783\n      jumpi\n        /* \"@thirdweb-dev/contracts/lib/Address.sol\":9205:9215   */\n      dup2\n        /* \"@thirdweb-dev/contracts/lib/Address.sol\":9199:9216   */\n      mload\n        /* \"@thirdweb-dev/contracts/lib/Address.sol\":9261:9276   */\n      dup1\n        /* \"@thirdweb-dev/contracts/lib/Address.sol\":9248:9258   */\n      dup4\n        /* \"@thirdweb-dev/contracts/lib/Address.sol\":9244:9246   */\n      0x20\n        /* \"@thirdweb-dev/contracts/lib/Address.sol\":9240:9259   */\n      add\n        /* \"@thirdweb-dev/contracts/lib/Address.sol\":9233:9277   */\n      revert\n        /* \"@thirdweb-dev/contracts/lib/Address.sol\":8973:9352   */\n    tag_783:\n        /* \"@thirdweb-dev/contracts/lib/Address.sol\":9328:9340   */\n      dup1\n        /* \"@thirdweb-dev/contracts/lib/Address.sol\":9321:9341   */\n      mload(0x40)\n      shl(0xe5, 0x461bcd)\n      dup2\n      mstore\n      0x04\n      add\n      tag_284\n      swap2\n      swap1\n      tag_72\n      jump\t// in\n        /* \"#utility.yul\":14:210   */\n    tag_786:\n        /* \"#utility.yul\":82:102   */\n      dup1\n      calldataload\n      sub(shl(0xa0, 0x01), 0x01)\n        /* \"#utility.yul\":131:185   */\n      dup2\n      and\n        /* \"#utility.yul\":121:186   */\n      dup2\n      eq\n        /* \"#utility.yul\":111:204   */\n      tag_802\n      jumpi\n        /* \"#utility.yul\":200:201   */\n      0x00\n        /* \"#utility.yul\":197:198   */\n      dup1\n        /* \"#utility.yul\":190:202   */\n      revert\n        /* \"#utility.yul\":111:204   */\n    tag_802:\n        /* \"#utility.yul\":14:210   */\n      swap2\n      swap1\n      pop\n      jump\t// out\n        /* \"#utility.yul\":215:342   */\n    tag_431:\n        /* \"#utility.yul\":276:286   */\n      0x4e487b71\n        /* \"#utility.yul\":271:274   */\n      0xe0\n        /* \"#utility.yul\":267:287   */\n      shl\n        /* \"#utility.yul\":264:265   */\n      0x00\n        /* \"#utility.yul\":257:288   */\n      mstore\n        /* \"#utility.yul\":307:311   */\n      0x41\n        /* \"#utility.yul\":304:305   */\n      0x04\n        /* \"#utility.yul\":297:312   */\n      mstore\n        /* \"#utility.yul\":331:335   */\n      0x24\n        /* \"#utility.yul\":328:329   */\n      0x00\n        /* \"#utility.yul\":321:336   */\n      revert\n        /* \"#utility.yul\":347:622   */\n    tag_787:\n        /* \"#utility.yul\":418:420   */\n      0x40\n        /* \"#utility.yul\":412:421   */\n      mload\n        /* \"#utility.yul\":483:485   */\n      0x1f\n        /* \"#utility.yul\":464:477   */\n      dup3\n      add\n      not(0x1f)\n        /* \"#utility.yul\":460:487   */\n      and\n        /* \"#utility.yul\":448:488   */\n      dup2\n      add\n        /* \"#utility.yul\":518:536   */\n      0xffffffffffffffff\n        /* \"#utility.yul\":503:537   */\n      dup2\n      gt\n        /* \"#utility.yul\":539:561   */\n      dup3\n      dup3\n      lt\n        /* \"#utility.yul\":500:562   */\n      or\n        /* \"#utility.yul\":497:585   */\n      iszero\n      tag_806\n      jumpi\n        /* \"#utility.yul\":565:583   */\n      tag_806\n      tag_431\n      jump\t// in\n    tag_806:\n        /* \"#utility.yul\":601:603   */\n      0x40\n        /* \"#utility.yul\":594:616   */\n      mstore\n        /* \"#utility.yul\":347:622   */\n      swap2\n      swap1\n      pop\n      jump\t// out\n        /* \"#utility.yul\":627:1158   */\n    tag_788:\n        /* \"#utility.yul\":670:675   */\n      0x00\n        /* \"#utility.yul\":723:726   */\n      dup3\n        /* \"#utility.yul\":716:720   */\n      0x1f\n        /* \"#utility.yul\":708:714   */\n      dup4\n        /* \"#utility.yul\":704:721   */\n      add\n        /* \"#utility.yul\":700:727   */\n      slt\n        /* \"#utility.yul\":690:745   */\n      tag_808\n      jumpi\n        /* \"#utility.yul\":741:742   */\n      0x00\n        /* \"#utility.yul\":738:739   */\n      dup1\n        /* \"#utility.yul\":731:743   */\n      revert\n        /* \"#utility.yul\":690:745   */\n    tag_808:\n        /* \"#utility.yul\":777:783   */\n      dup2\n        /* \"#utility.yul\":764:784   */\n      calldataload\n        /* \"#utility.yul\":803:821   */\n      0xffffffffffffffff\n        /* \"#utility.yul\":799:801   */\n      dup2\n        /* \"#utility.yul\":796:822   */\n      gt\n        /* \"#utility.yul\":793:845   */\n      iszero\n      tag_810\n      jumpi\n        /* \"#utility.yul\":825:843   */\n      tag_810\n      tag_431\n      jump\t// in\n    tag_810:\n        /* \"#utility.yul\":869:924   */\n      tag_811\n        /* \"#utility.yul\":912:914   */\n      0x1f\n        /* \"#utility.yul\":893:906   */\n      dup3\n      add\n      not(0x1f)\n        /* \"#utility.yul\":889:916   */\n      and\n        /* \"#utility.yul\":918:922   */\n      0x20\n        /* \"#utility.yul\":885:923   */\n      add\n        /* \"#utility.yul\":869:924   */\n      tag_787\n      jump\t// in\n    tag_811:\n        /* \"#utility.yul\":949:951   */\n      dup2\n        /* \"#utility.yul\":940:947   */\n      dup2\n        /* \"#utility.yul\":933:952   */\n      mstore\n        /* \"#utility.yul\":995:998   */\n      dup5\n        /* \"#utility.yul\":988:992   */\n      0x20\n        /* \"#utility.yul\":983:985   */\n      dup4\n        /* \"#utility.yul\":975:981   */\n      dup7\n        /* \"#utility.yul\":971:986   */\n      add\n        /* \"#utility.yul\":967:993   */\n      add\n        /* \"#utility.yul\":964:999   */\n      gt\n        /* \"#utility.yul\":961:1016   */\n      iszero\n      tag_812\n      jumpi\n        /* \"#utility.yul\":1012:1013   */\n      0x00\n        /* \"#utility.yul\":1009:1010   */\n      dup1\n        /* \"#utility.yul\":1002:1014   */\n      revert\n        /* \"#utility.yul\":961:1016   */\n    tag_812:\n        /* \"#utility.yul\":1077:1079   */\n      dup2\n        /* \"#utility.yul\":1070:1074   */\n      0x20\n        /* \"#utility.yul\":1062:1068   */\n      dup6\n        /* \"#utility.yul\":1058:1075   */\n      add\n        /* \"#utility.yul\":1051:1055   */\n      0x20\n        /* \"#utility.yul\":1042:1049   */\n      dup4\n        /* \"#utility.yul\":1038:1056   */\n      add\n        /* \"#utility.yul\":1025:1080   */\n      calldatacopy\n        /* \"#utility.yul\":1125:1126   */\n      0x00\n        /* \"#utility.yul\":1100:1116   */\n      swap2\n      dup2\n      add\n        /* \"#utility.yul\":1118:1122   */\n      0x20\n        /* \"#utility.yul\":1096:1123   */\n      add\n        /* \"#utility.yul\":1089:1127   */\n      swap2\n      swap1\n      swap2\n      mstore\n        /* \"#utility.yul\":1104:1111   */\n      swap4\n        /* \"#utility.yul\":627:1158   */\n      swap3\n      pop\n      pop\n      pop\n      jump\t// out\n        /* \"#utility.yul\":1163:1559   */\n    tag_64:\n        /* \"#utility.yul\":1241:1247   */\n      0x00\n        /* \"#utility.yul\":1249:1255   */\n      dup1\n        /* \"#utility.yul\":1302:1304   */\n      0x40\n        /* \"#utility.yul\":1290:1299   */\n      dup4\n        /* \"#utility.yul\":1281:1288   */\n      dup6\n        /* \"#utility.yul\":1277:1300   */\n      sub\n        /* \"#utility.yul\":1273:1305   */\n      slt\n        /* \"#utility.yul\":1270:1322   */\n      iszero\n      tag_814\n      jumpi\n        /* \"#utility.yul\":1318:1319   */\n      0x00\n        /* \"#utility.yul\":1315:1316   */\n      dup1\n        /* \"#utility.yul\":1308:1320   */\n      revert\n        /* \"#utility.yul\":1270:1322   */\n    tag_814:\n        /* \"#utility.yul\":1341:1370   */\n      tag_815\n        /* \"#utility.yul\":1360:1369   */\n      dup4\n        /* \"#utility.yul\":1341:1370   */\n      tag_786\n      jump\t// in\n    tag_815:\n        /* \"#utility.yul\":1331:1370   */\n      swap2\n      pop\n        /* \"#utility.yul\":1421:1423   */\n      0x20\n        /* \"#utility.yul\":1410:1419   */\n      dup4\n        /* \"#utility.yul\":1406:1424   */\n      add\n        /* \"#utility.yul\":1393:1425   */\n      calldataload\n        /* \"#utility.yul\":1448:1466   */\n      0xffffffffffffffff\n        /* \"#utility.yul\":1440:1446   */\n      dup2\n        /* \"#utility.yul\":1437:1467   */\n      gt\n        /* \"#utility.yul\":1434:1484   */\n      iszero\n      tag_816\n      jumpi\n        /* \"#utility.yul\":1480:1481   */\n      0x00\n        /* \"#utility.yul\":1477:1478   */\n      dup1\n        /* \"#utility.yul\":1470:1482   */\n      revert\n        /* \"#utility.yul\":1434:1484   */\n    tag_816:\n        /* \"#utility.yul\":1503:1553   */\n      tag_817\n        /* \"#utility.yul\":1545:1552   */\n      dup6\n        /* \"#utility.yul\":1536:1542   */\n      dup3\n        /* \"#utility.yul\":1525:1534   */\n      dup7\n        /* \"#utility.yul\":1521:1543   */\n      add\n        /* \"#utility.yul\":1503:1553   */\n      tag_788\n      jump\t// in\n    tag_817:\n        /* \"#utility.yul\":1493:1553   */\n      swap2\n      pop\n      pop\n        /* \"#utility.yul\":1163:1559   */\n      swap3\n      pop\n      swap3\n      swap1\n      pop\n      jump\t// out\n        /* \"#utility.yul\":1564:1744   */\n    tag_69:\n        /* \"#utility.yul\":1623:1629   */\n      0x00\n        /* \"#utility.yul\":1676:1678   */\n      0x20\n        /* \"#utility.yul\":1664:1673   */\n      dup3\n        /* \"#utility.yul\":1655:1662   */\n      dup5\n        /* \"#utility.yul\":1651:1674   */\n      sub\n        /* \"#utility.yul\":1647:1679   */\n      slt\n        /* \"#utility.yul\":1644:1696   */\n      iszero\n      tag_819\n      jumpi\n        /* \"#utility.yul\":1692:1693   */\n      0x00\n        /* \"#utility.yul\":1689:1690   */\n      dup1\n        /* \"#utility.yul\":1682:1694   */\n      revert\n        /* \"#utility.yul\":1644:1696   */\n    tag_819:\n      pop\n        /* \"#utility.yul\":1715:1738   */\n      calldataload\n      swap2\n        /* \"#utility.yul\":1564:1744   */\n      swap1\n      pop\n      jump\t// out\n        /* \"#utility.yul\":1749:2049   */\n    tag_789:\n        /* \"#utility.yul\":1802:1805   */\n      0x00\n        /* \"#utility.yul\":1840:1845   */\n      dup2\n        /* \"#utility.yul\":1834:1846   */\n      mload\n        /* \"#utility.yul\":1867:1873   */\n      dup1\n        /* \"#utility.yul\":1862:1865   */\n      dup5\n        /* \"#utility.yul\":1855:1874   */\n      mstore\n        /* \"#utility.yul\":1923:1929   */\n      dup1\n        /* \"#utility.yul\":1916:1920   */\n      0x20\n        /* \"#utility.yul\":1909:1914   */\n      dup5\n        /* \"#utility.yul\":1905:1921   */\n      add\n        /* \"#utility.yul\":1898:1902   */\n      0x20\n        /* \"#utility.yul\":1893:1896   */\n      dup7\n        /* \"#utility.yul\":1889:1903   */\n      add\n        /* \"#utility.yul\":1883:1930   */\n      mcopy\n        /* \"#utility.yul\":1975:1976   */\n      0x00\n        /* \"#utility.yul\":1968:1972   */\n      0x20\n        /* \"#utility.yul\":1959:1965   */\n      dup3\n        /* \"#utility.yul\":1954:1957   */\n      dup7\n        /* \"#utility.yul\":1950:1966   */\n      add\n        /* \"#utility.yul\":1946:1973   */\n      add\n        /* \"#utility.yul\":1939:1977   */\n      mstore\n        /* \"#utility.yul\":2038:2042   */\n      0x20\n        /* \"#utility.yul\":2031:2033   */\n      0x1f\n        /* \"#utility.yul\":2027:2034   */\n      not\n        /* \"#utility.yul\":2022:2024   */\n      0x1f\n        /* \"#utility.yul\":2014:2020   */\n      dup4\n        /* \"#utility.yul\":2010:2025   */\n      add\n        /* \"#utility.yul\":2006:2035   */\n      and\n        /* \"#utility.yul\":2001:2004   */\n      dup6\n        /* \"#utility.yul\":1997:2036   */\n      add\n        /* \"#utility.yul\":1993:2043   */\n      add\n        /* \"#utility.yul\":1986:2043   */\n      swap2\n      pop\n      pop\n        /* \"#utility.yul\":1749:2049   */\n      swap3\n      swap2\n      pop\n      pop\n      jump\t// out\n        /* \"#utility.yul\":2054:2285   */\n    tag_72:\n        /* \"#utility.yul\":2203:2205   */\n      0x20\n        /* \"#utility.yul\":2192:2201   */\n      dup2\n        /* \"#utility.yul\":2185:2206   */\n      mstore\n        /* \"#utility.yul\":2166:2170   */\n      0x00\n        /* \"#utility.yul\":2223:2279   */\n      tag_492\n        /* \"#utility.yul\":2275:2277   */\n      0x20\n        /* \"#utility.yul\":2264:2273   */\n      dup4\n        /* \"#utility.yul\":2260:2278   */\n      add\n        /* \"#utility.yul\":2252:2258   */\n      dup5\n        /* \"#utility.yul\":2223:2279   */\n      tag_789\n      jump\t// in\n        /* \"#utility.yul\":2290:2421   */\n    tag_790:\n      not(sub(shl(0xe0, 0x01), 0x01))\n        /* \"#utility.yul\":2364:2396   */\n      dup2\n      and\n        /* \"#utility.yul\":2354:2397   */\n      dup2\n      eq\n        /* \"#utility.yul\":2344:2415   */\n      tag_326\n      jumpi\n        /* \"#utility.yul\":2411:2412   */\n      0x00\n        /* \"#utility.yul\":2408:2409   */\n      dup1\n        /* \"#utility.yul\":2401:2413   */\n      revert\n        /* \"#utility.yul\":2426:2671   */\n    tag_76:\n        /* \"#utility.yul\":2484:2490   */\n      0x00\n        /* \"#utility.yul\":2537:2539   */\n      0x20\n        /* \"#utility.yul\":2525:2534   */\n      dup3\n        /* \"#utility.yul\":2516:2523   */\n      dup5\n        /* \"#utility.yul\":2512:2535   */\n      sub\n        /* \"#utility.yul\":2508:2540   */\n      slt\n        /* \"#utility.yul\":2505:2557   */\n      iszero\n      tag_826\n      jumpi\n        /* \"#utility.yul\":2553:2554   */\n      0x00\n        /* \"#utility.yul\":2550:2551   */\n      dup1\n        /* \"#utility.yul\":2543:2555   */\n      revert\n        /* \"#utility.yul\":2505:2557   */\n    tag_826:\n        /* \"#utility.yul\":2592:2601   */\n      dup2\n        /* \"#utility.yul\":2579:2602   */\n      calldataload\n        /* \"#utility.yul\":2611:2641   */\n      tag_492\n        /* \"#utility.yul\":2635:2640   */\n      dup2\n        /* \"#utility.yul\":2611:2641   */\n      tag_790\n      jump\t// in\n        /* \"#utility.yul\":3099:3353   */\n    tag_93:\n        /* \"#utility.yul\":3167:3173   */\n      0x00\n        /* \"#utility.yul\":3175:3181   */\n      dup1\n        /* \"#utility.yul\":3228:3230   */\n      0x40\n        /* \"#utility.yul\":3216:3225   */\n      dup4\n        /* \"#utility.yul\":3207:3214   */\n      dup6\n        /* \"#utility.yul\":3203:3226   */\n      sub\n        /* \"#utility.yul\":3199:3231   */\n      slt\n        /* \"#utility.yul\":3196:3248   */\n      iszero\n      tag_831\n      jumpi\n        /* \"#utility.yul\":3244:3245   */\n      0x00\n        /* \"#utility.yul\":3241:3242   */\n      dup1\n        /* \"#utility.yul\":3234:3246   */\n      revert\n        /* \"#utility.yul\":3196:3248   */\n    tag_831:\n        /* \"#utility.yul\":3267:3296   */\n      tag_832\n        /* \"#utility.yul\":3286:3295   */\n      dup4\n        /* \"#utility.yul\":3267:3296   */\n      tag_786\n      jump\t// in\n    tag_832:\n        /* \"#utility.yul\":3257:3296   */\n      swap5\n        /* \"#utility.yul\":3343:3345   */\n      0x20\n        /* \"#utility.yul\":3328:3346   */\n      swap4\n      swap1\n      swap4\n      add\n        /* \"#utility.yul\":3315:3347   */\n      calldataload\n      swap4\n      pop\n      pop\n      pop\n        /* \"#utility.yul\":3099:3353   */\n      jump\t// out\n        /* \"#utility.yul\":3540:3726   */\n    tag_103:\n        /* \"#utility.yul\":3599:3605   */\n      0x00\n        /* \"#utility.yul\":3652:3654   */\n      0x20\n        /* \"#utility.yul\":3640:3649   */\n      dup3\n        /* \"#utility.yul\":3631:3638   */\n      dup5\n        /* \"#utility.yul\":3627:3650   */\n      sub\n        /* \"#utility.yul\":3623:3655   */\n      slt\n        /* \"#utility.yul\":3620:3672   */\n      iszero\n      tag_835\n      jumpi\n        /* \"#utility.yul\":3668:3669   */\n      0x00\n        /* \"#utility.yul\":3665:3666   */\n      dup1\n        /* \"#utility.yul\":3658:3670   */\n      revert\n        /* \"#utility.yul\":3620:3672   */\n    tag_835:\n        /* \"#utility.yul\":3691:3720   */\n      tag_492\n        /* \"#utility.yul\":3710:3719   */\n      dup3\n        /* \"#utility.yul\":3691:3720   */\n      tag_786\n      jump\t// in\n        /* \"#utility.yul\":3731:4106   */\n    tag_791:\n        /* \"#utility.yul\":3802:3810   */\n      0x00\n        /* \"#utility.yul\":3812:3818   */\n      dup1\n        /* \"#utility.yul\":3866:3869   */\n      dup4\n        /* \"#utility.yul\":3859:3863   */\n      0x1f\n        /* \"#utility.yul\":3851:3857   */\n      dup5\n        /* \"#utility.yul\":3847:3864   */\n      add\n        /* \"#utility.yul\":3843:3870   */\n      slt\n        /* \"#utility.yul\":3833:3888   */\n      tag_838\n      jumpi\n        /* \"#utility.yul\":3884:3885   */\n      0x00\n        /* \"#utility.yul\":3881:3882   */\n      dup1\n        /* \"#utility.yul\":3874:3886   */\n      revert\n        /* \"#utility.yul\":3833:3888   */\n    tag_838:\n      pop\n        /* \"#utility.yul\":3907:3927   */\n      dup2\n      calldataload\n        /* \"#utility.yul\":3950:3968   */\n      0xffffffffffffffff\n        /* \"#utility.yul\":3939:3969   */\n      dup2\n      gt\n        /* \"#utility.yul\":3936:3986   */\n      iszero\n      tag_839\n      jumpi\n        /* \"#utility.yul\":3982:3983   */\n      0x00\n        /* \"#utility.yul\":3979:3980   */\n      dup1\n        /* \"#utility.yul\":3972:3984   */\n      revert\n        /* \"#utility.yul\":3936:3986   */\n    tag_839:\n        /* \"#utility.yul\":4019:4023   */\n      0x20\n        /* \"#utility.yul\":4011:4017   */\n      dup4\n        /* \"#utility.yul\":4007:4024   */\n      add\n        /* \"#utility.yul\":3995:4024   */\n      swap2\n      pop\n        /* \"#utility.yul\":4079:4082   */\n      dup4\n        /* \"#utility.yul\":4072:4076   */\n      0x20\n        /* \"#utility.yul\":4062:4068   */\n      dup3\n        /* \"#utility.yul\":4059:4060   */\n      0x05\n        /* \"#utility.yul\":4055:4069   */\n      shl\n        /* \"#utility.yul\":4047:4053   */\n      dup6\n        /* \"#utility.yul\":4043:4070   */\n      add\n        /* \"#utility.yul\":4039:4077   */\n      add\n        /* \"#utility.yul\":4036:4083   */\n      gt\n        /* \"#utility.yul\":4033:4100   */\n      iszero\n      tag_840\n      jumpi\n        /* \"#utility.yul\":4096:4097   */\n      0x00\n        /* \"#utility.yul\":4093:4094   */\n      dup1\n        /* \"#utility.yul\":4086:4098   */\n      revert\n        /* \"#utility.yul\":4033:4100   */\n    tag_840:\n        /* \"#utility.yul\":3731:4106   */\n      swap3\n      pop\n      swap3\n      swap1\n      pop\n      jump\t// out\n        /* \"#utility.yul\":4111:5322   */\n    tag_107:\n        /* \"#utility.yul\":4302:4308   */\n      0x00\n        /* \"#utility.yul\":4310:4316   */\n      dup1\n        /* \"#utility.yul\":4318:4324   */\n      0x00\n        /* \"#utility.yul\":4326:4332   */\n      dup1\n        /* \"#utility.yul\":4334:4340   */\n      0x00\n        /* \"#utility.yul\":4342:4348   */\n      dup1\n        /* \"#utility.yul\":4350:4356   */\n      0x00\n        /* \"#utility.yul\":4403:4406   */\n      0x80\n        /* \"#utility.yul\":4391:4400   */\n      dup9\n        /* \"#utility.yul\":4382:4389   */\n      dup11\n        /* \"#utility.yul\":4378:4401   */\n      sub\n        /* \"#utility.yul\":4374:4407   */\n      slt\n        /* \"#utility.yul\":4371:4424   */\n      iszero\n      tag_842\n      jumpi\n        /* \"#utility.yul\":4420:4421   */\n      0x00\n        /* \"#utility.yul\":4417:4418   */\n      dup1\n        /* \"#utility.yul\":4410:4422   */\n      revert\n        /* \"#utility.yul\":4371:4424   */\n    tag_842:\n        /* \"#utility.yul\":4443:4472   */\n      tag_843\n        /* \"#utility.yul\":4462:4471   */\n      dup9\n        /* \"#utility.yul\":4443:4472   */\n      tag_786\n      jump\t// in\n    tag_843:\n        /* \"#utility.yul\":4433:4472   */\n      swap7\n      pop\n        /* \"#utility.yul\":4523:4525   */\n      0x20\n        /* \"#utility.yul\":4512:4521   */\n      dup9\n        /* \"#utility.yul\":4508:4526   */\n      add\n        /* \"#utility.yul\":4495:4527   */\n      calldataload\n        /* \"#utility.yul\":4546:4564   */\n      0xffffffffffffffff\n        /* \"#utility.yul\":4587:4589   */\n      dup1\n        /* \"#utility.yul\":4579:4585   */\n      dup3\n        /* \"#utility.yul\":4576:4590   */\n      gt\n        /* \"#utility.yul\":4573:4607   */\n      iszero\n      tag_844\n      jumpi\n        /* \"#utility.yul\":4603:4604   */\n      0x00\n        /* \"#utility.yul\":4600:4601   */\n      dup1\n        /* \"#utility.yul\":4593:4605   */\n      revert\n        /* \"#utility.yul\":4573:4607   */\n    tag_844:\n        /* \"#utility.yul\":4642:4720   */\n      tag_845\n        /* \"#utility.yul\":4712:4719   */\n      dup12\n        /* \"#utility.yul\":4703:4709   */\n      dup4\n        /* \"#utility.yul\":4692:4701   */\n      dup13\n        /* \"#utility.yul\":4688:4710   */\n      add\n        /* \"#utility.yul\":4642:4720   */\n      tag_791\n      jump\t// in\n    tag_845:\n        /* \"#utility.yul\":4739:4747   */\n      swap1\n      swap9\n      pop\n        /* \"#utility.yul\":4616:4720   */\n      swap7\n      pop\n        /* \"#utility.yul\":4827:4829   */\n      0x40\n        /* \"#utility.yul\":4812:4830   */\n      dup11\n      add\n        /* \"#utility.yul\":4799:4831   */\n      calldataload\n      swap2\n      pop\n        /* \"#utility.yul\":4843:4859   */\n      dup1\n      dup3\n      gt\n        /* \"#utility.yul\":4840:4876   */\n      iszero\n      tag_846\n      jumpi\n        /* \"#utility.yul\":4872:4873   */\n      0x00\n        /* \"#utility.yul\":4869:4870   */\n      dup1\n        /* \"#utility.yul\":4862:4874   */\n      revert\n        /* \"#utility.yul\":4840:4876   */\n    tag_846:\n        /* \"#utility.yul\":4911:4991   */\n      tag_847\n        /* \"#utility.yul\":4983:4990   */\n      dup12\n        /* \"#utility.yul\":4972:4980   */\n      dup4\n        /* \"#utility.yul\":4961:4970   */\n      dup13\n        /* \"#utility.yul\":4957:4981   */\n      add\n        /* \"#utility.yul\":4911:4991   */\n      tag_791\n      jump\t// in\n    tag_847:\n        /* \"#utility.yul\":5010:5018   */\n      swap1\n      swap7\n      pop\n        /* \"#utility.yul\":4885:4991   */\n      swap5\n      pop\n        /* \"#utility.yul\":5098:5100   */\n      0x60\n        /* \"#utility.yul\":5083:5101   */\n      dup11\n      add\n        /* \"#utility.yul\":5070:5102   */\n      calldataload\n      swap2\n      pop\n        /* \"#utility.yul\":5114:5130   */\n      dup1\n      dup3\n      gt\n        /* \"#utility.yul\":5111:5147   */\n      iszero\n      tag_848\n      jumpi\n        /* \"#utility.yul\":5143:5144   */\n      0x00\n        /* \"#utility.yul\":5140:5141   */\n      dup1\n        /* \"#utility.yul\":5133:5145   */\n      revert\n        /* \"#utility.yul\":5111:5147   */\n    tag_848:\n      pop\n        /* \"#utility.yul\":5182:5262   */\n      tag_849\n        /* \"#utility.yul\":5254:5261   */\n      dup11\n        /* \"#utility.yul\":5243:5251   */\n      dup3\n        /* \"#utility.yul\":5232:5241   */\n      dup12\n        /* \"#utility.yul\":5228:5252   */\n      add\n        /* \"#utility.yul\":5182:5262   */\n      tag_791\n      jump\t// in\n    tag_849:\n        /* \"#utility.yul\":4111:5322   */\n      swap9\n      swap12\n      swap8\n      swap11\n      pop\n      swap6\n      swap9\n      pop\n      swap4\n      swap7\n      swap3\n      swap6\n        /* \"#utility.yul\":5156:5262   */\n      swap3\n      swap4\n      pop\n      pop\n      pop\n        /* \"#utility.yul\":4111:5322   */\n      jump\t// out\n        /* \"#utility.yul\":5327:5655   */\n    tag_121:\n        /* \"#utility.yul\":5404:5410   */\n      0x00\n        /* \"#utility.yul\":5412:5418   */\n      dup1\n        /* \"#utility.yul\":5420:5426   */\n      0x00\n        /* \"#utility.yul\":5473:5475   */\n      0x60\n        /* \"#utility.yul\":5461:5470   */\n      dup5\n        /* \"#utility.yul\":5452:5459   */\n      dup7\n        /* \"#utility.yul\":5448:5471   */\n      sub\n        /* \"#utility.yul\":5444:5476   */\n      slt\n        /* \"#utility.yul\":5441:5493   */\n      iszero\n      tag_851\n      jumpi\n        /* \"#utility.yul\":5489:5490   */\n      0x00\n        /* \"#utility.yul\":5486:5487   */\n      dup1\n        /* \"#utility.yul\":5479:5491   */\n      revert\n        /* \"#utility.yul\":5441:5493   */\n    tag_851:\n        /* \"#utility.yul\":5512:5541   */\n      tag_852\n        /* \"#utility.yul\":5531:5540   */\n      dup5\n        /* \"#utility.yul\":5512:5541   */\n      tag_786\n      jump\t// in\n    tag_852:\n        /* \"#utility.yul\":5502:5541   */\n      swap3\n      pop\n        /* \"#utility.yul\":5560:5598   */\n      tag_853\n        /* \"#utility.yul\":5594:5596   */\n      0x20\n        /* \"#utility.yul\":5583:5592   */\n      dup6\n        /* \"#utility.yul\":5579:5597   */\n      add\n        /* \"#utility.yul\":5560:5598   */\n      tag_786\n      jump\t// in\n    tag_853:\n        /* \"#utility.yul\":5550:5598   */\n      swap2\n      pop\n        /* \"#utility.yul\":5645:5647   */\n      0x40\n        /* \"#utility.yul\":5634:5643   */\n      dup5\n        /* \"#utility.yul\":5630:5648   */\n      add\n        /* \"#utility.yul\":5617:5649   */\n      calldataload\n        /* \"#utility.yul\":5607:5649   */\n      swap1\n      pop\n        /* \"#utility.yul\":5327:5655   */\n      swap3\n      pop\n      swap3\n      pop\n      swap3\n      jump\t// out\n        /* \"#utility.yul\":5660:5908   */\n    tag_131:\n        /* \"#utility.yul\":5728:5734   */\n      0x00\n        /* \"#utility.yul\":5736:5742   */\n      dup1\n        /* \"#utility.yul\":5789:5791   */\n      0x40\n        /* \"#utility.yul\":5777:5786   */\n      dup4\n        /* \"#utility.yul\":5768:5775   */\n      dup6\n        /* \"#utility.yul\":5764:5787   */\n      sub\n        /* \"#utility.yul\":5760:5792   */\n      slt\n        /* \"#utility.yul\":5757:5809   */\n      iszero\n      tag_855\n      jumpi\n        /* \"#utility.yul\":5805:5806   */\n      0x00\n        /* \"#utility.yul\":5802:5803   */\n      dup1\n        /* \"#utility.yul\":5795:5807   */\n      revert\n        /* \"#utility.yul\":5757:5809   */\n    tag_855:\n      pop\n      pop\n        /* \"#utility.yul\":5828:5851   */\n      dup1\n      calldataload\n      swap3\n        /* \"#utility.yul\":5898:5900   */\n      0x20\n        /* \"#utility.yul\":5883:5901   */\n      swap1\n      swap2\n      add\n        /* \"#utility.yul\":5870:5902   */\n      calldataload\n      swap2\n      pop\n        /* \"#utility.yul\":5660:5908   */\n      jump\t// out\n        /* \"#utility.yul\":6215:6563   */\n    tag_792:\n        /* \"#utility.yul\":6267:6275   */\n      0x00\n        /* \"#utility.yul\":6277:6283   */\n      dup1\n        /* \"#utility.yul\":6331:6334   */\n      dup4\n        /* \"#utility.yul\":6324:6328   */\n      0x1f\n        /* \"#utility.yul\":6316:6322   */\n      dup5\n        /* \"#utility.yul\":6312:6329   */\n      add\n        /* \"#utility.yul\":6308:6335   */\n      slt\n        /* \"#utility.yul\":6298:6353   */\n      tag_858\n      jumpi\n        /* \"#utility.yul\":6349:6350   */\n      0x00\n        /* \"#utility.yul\":6346:6347   */\n      dup1\n        /* \"#utility.yul\":6339:6351   */\n      revert\n        /* \"#utility.yul\":6298:6353   */\n    tag_858:\n      pop\n        /* \"#utility.yul\":6372:6392   */\n      dup2\n      calldataload\n        /* \"#utility.yul\":6415:6433   */\n      0xffffffffffffffff\n        /* \"#utility.yul\":6404:6434   */\n      dup2\n      gt\n        /* \"#utility.yul\":6401:6451   */\n      iszero\n      tag_859\n      jumpi\n        /* \"#utility.yul\":6447:6448   */\n      0x00\n        /* \"#utility.yul\":6444:6445   */\n      dup1\n        /* \"#utility.yul\":6437:6449   */\n      revert\n        /* \"#utility.yul\":6401:6451   */\n    tag_859:\n        /* \"#utility.yul\":6484:6488   */\n      0x20\n        /* \"#utility.yul\":6476:6482   */\n      dup4\n        /* \"#utility.yul\":6472:6489   */\n      add\n        /* \"#utility.yul\":6460:6489   */\n      swap2\n      pop\n        /* \"#utility.yul\":6536:6539   */\n      dup4\n        /* \"#utility.yul\":6529:6533   */\n      0x20\n        /* \"#utility.yul\":6520:6526   */\n      dup3\n        /* \"#utility.yul\":6512:6518   */\n      dup6\n        /* \"#utility.yul\":6508:6527   */\n      add\n        /* \"#utility.yul\":6504:6534   */\n      add\n        /* \"#utility.yul\":6501:6540   */\n      gt\n        /* \"#utility.yul\":6498:6557   */\n      iszero\n      tag_840\n      jumpi\n        /* \"#utility.yul\":6553:6554   */\n      0x00\n        /* \"#utility.yul\":6550:6551   */\n      dup1\n        /* \"#utility.yul\":6543:6555   */\n      revert\n        /* \"#utility.yul\":6568:7432   */\n    tag_148:\n        /* \"#utility.yul\":6678:6684   */\n      0x00\n        /* \"#utility.yul\":6686:6692   */\n      dup1\n        /* \"#utility.yul\":6694:6700   */\n      0x00\n        /* \"#utility.yul\":6702:6708   */\n      dup1\n        /* \"#utility.yul\":6710:6716   */\n      0x00\n        /* \"#utility.yul\":6718:6724   */\n      dup1\n        /* \"#utility.yul\":6771:6774   */\n      0x80\n        /* \"#utility.yul\":6759:6768   */\n      dup8\n        /* \"#utility.yul\":6750:6757   */\n      dup10\n        /* \"#utility.yul\":6746:6769   */\n      sub\n        /* \"#utility.yul\":6742:6775   */\n      slt\n        /* \"#utility.yul\":6739:6792   */\n      iszero\n      tag_862\n      jumpi\n        /* \"#utility.yul\":6788:6789   */\n      0x00\n        /* \"#utility.yul\":6785:6786   */\n      dup1\n        /* \"#utility.yul\":6778:6790   */\n      revert\n        /* \"#utility.yul\":6739:6792   */\n    tag_862:\n        /* \"#utility.yul\":6811:6840   */\n      tag_863\n        /* \"#utility.yul\":6830:6839   */\n      dup8\n        /* \"#utility.yul\":6811:6840   */\n      tag_786\n      jump\t// in\n    tag_863:\n        /* \"#utility.yul\":6801:6840   */\n      swap6\n      pop\n        /* \"#utility.yul\":6891:6893   */\n      0x20\n        /* \"#utility.yul\":6880:6889   */\n      dup8\n        /* \"#utility.yul\":6876:6894   */\n      add\n        /* \"#utility.yul\":6863:6895   */\n      calldataload\n        /* \"#utility.yul\":6914:6932   */\n      0xffffffffffffffff\n        /* \"#utility.yul\":6955:6957   */\n      dup1\n        /* \"#utility.yul\":6947:6953   */\n      dup3\n        /* \"#utility.yul\":6944:6958   */\n      gt\n        /* \"#utility.yul\":6941:6975   */\n      iszero\n      tag_864\n      jumpi\n        /* \"#utility.yul\":6971:6972   */\n      0x00\n        /* \"#utility.yul\":6968:6969   */\n      dup1\n        /* \"#utility.yul\":6961:6973   */\n      revert\n        /* \"#utility.yul\":6941:6975   */\n    tag_864:\n        /* \"#utility.yul\":7010:7069   */\n      tag_865\n        /* \"#utility.yul\":7061:7068   */\n      dup11\n        /* \"#utility.yul\":7052:7058   */\n      dup4\n        /* \"#utility.yul\":7041:7050   */\n      dup12\n        /* \"#utility.yul\":7037:7059   */\n      add\n        /* \"#utility.yul\":7010:7069   */\n      tag_792\n      jump\t// in\n    tag_865:\n        /* \"#utility.yul\":7088:7096   */\n      swap1\n      swap8\n      pop\n        /* \"#utility.yul\":6984:7069   */\n      swap6\n      pop\n        /* \"#utility.yul\":7170:7172   */\n      0x40\n        /* \"#utility.yul\":7155:7173   */\n      dup10\n      add\n        /* \"#utility.yul\":7142:7174   */\n      calldataload\n      swap5\n      pop\n        /* \"#utility.yul\":7227:7229   */\n      0x60\n        /* \"#utility.yul\":7212:7230   */\n      dup10\n      add\n        /* \"#utility.yul\":7199:7231   */\n      calldataload\n      swap2\n      pop\n        /* \"#utility.yul\":7243:7259   */\n      dup1\n      dup3\n      gt\n        /* \"#utility.yul\":7240:7276   */\n      iszero\n      tag_866\n      jumpi\n        /* \"#utility.yul\":7272:7273   */\n      0x00\n        /* \"#utility.yul\":7269:7270   */\n      dup1\n        /* \"#utility.yul\":7262:7274   */\n      revert\n        /* \"#utility.yul\":7240:7276   */\n    tag_866:\n      pop\n        /* \"#utility.yul\":7311:7372   */\n      tag_867\n        /* \"#utility.yul\":7364:7371   */\n      dup10\n        /* \"#utility.yul\":7353:7361   */\n      dup3\n        /* \"#utility.yul\":7342:7351   */\n      dup11\n        /* \"#utility.yul\":7338:7362   */\n      add\n        /* \"#utility.yul\":7311:7372   */\n      tag_792\n      jump\t// in\n    tag_867:\n        /* \"#utility.yul\":6568:7432   */\n      swap8\n      swap11\n      swap7\n      swap10\n      pop\n      swap5\n      swap8\n      pop\n      swap3\n      swap6\n        /* \"#utility.yul\":7391:7399   */\n      swap4\n      swap5\n        /* \"#utility.yul\":6568:7432   */\n      swap3\n      pop\n      pop\n      pop\n      jump\t// out\n        /* \"#utility.yul\":7750:8696   */\n    tag_172:\n        /* \"#utility.yul\":7834:7840   */\n      0x00\n        /* \"#utility.yul\":7865:7867   */\n      0x20\n        /* \"#utility.yul\":7908:7910   */\n      dup1\n        /* \"#utility.yul\":7896:7905   */\n      dup4\n        /* \"#utility.yul\":7887:7894   */\n      dup6\n        /* \"#utility.yul\":7883:7906   */\n      sub\n        /* \"#utility.yul\":7879:7911   */\n      slt\n        /* \"#utility.yul\":7876:7928   */\n      iszero\n      tag_870\n      jumpi\n        /* \"#utility.yul\":7924:7925   */\n      0x00\n        /* \"#utility.yul\":7921:7922   */\n      dup1\n        /* \"#utility.yul\":7914:7926   */\n      revert\n        /* \"#utility.yul\":7876:7928   */\n    tag_870:\n        /* \"#utility.yul\":7964:7973   */\n      dup3\n        /* \"#utility.yul\":7951:7974   */\n      calldataload\n        /* \"#utility.yul\":7993:8011   */\n      0xffffffffffffffff\n        /* \"#utility.yul\":8034:8036   */\n      dup1\n        /* \"#utility.yul\":8026:8032   */\n      dup3\n        /* \"#utility.yul\":8023:8037   */\n      gt\n        /* \"#utility.yul\":8020:8054   */\n      iszero\n      tag_871\n      jumpi\n        /* \"#utility.yul\":8050:8051   */\n      0x00\n        /* \"#utility.yul\":8047:8048   */\n      dup1\n        /* \"#utility.yul\":8040:8052   */\n      revert\n        /* \"#utility.yul\":8020:8054   */\n    tag_871:\n        /* \"#utility.yul\":8088:8094   */\n      dup2\n        /* \"#utility.yul\":8077:8086   */\n      dup6\n        /* \"#utility.yul\":8073:8095   */\n      add\n        /* \"#utility.yul\":8063:8095   */\n      swap2\n      pop\n        /* \"#utility.yul\":8133:8140   */\n      dup6\n        /* \"#utility.yul\":8126:8130   */\n      0x1f\n        /* \"#utility.yul\":8122:8124   */\n      dup4\n        /* \"#utility.yul\":8118:8131   */\n      add\n        /* \"#utility.yul\":8114:8141   */\n      slt\n        /* \"#utility.yul\":8104:8159   */\n      tag_872\n      jumpi\n        /* \"#utility.yul\":8155:8156   */\n      0x00\n        /* \"#utility.yul\":8152:8153   */\n      dup1\n        /* \"#utility.yul\":8145:8157   */\n      revert\n        /* \"#utility.yul\":8104:8159   */\n    tag_872:\n        /* \"#utility.yul\":8191:8193   */\n      dup2\n        /* \"#utility.yul\":8178:8194   */\n      calldataload\n        /* \"#utility.yul\":8213:8215   */\n      dup2\n        /* \"#utility.yul\":8209:8211   */\n      dup2\n        /* \"#utility.yul\":8206:8216   */\n      gt\n        /* \"#utility.yul\":8203:8239   */\n      iszero\n      tag_874\n      jumpi\n        /* \"#utility.yul\":8219:8237   */\n      tag_874\n      tag_431\n      jump\t// in\n    tag_874:\n        /* \"#utility.yul\":8265:8267   */\n      dup1\n        /* \"#utility.yul\":8262:8263   */\n      0x05\n        /* \"#utility.yul\":8258:8268   */\n      shl\n        /* \"#utility.yul\":8248:8268   */\n      swap2\n      pop\n        /* \"#utility.yul\":8288:8316   */\n      tag_875\n        /* \"#utility.yul\":8312:8314   */\n      dup5\n        /* \"#utility.yul\":8308:8310   */\n      dup4\n        /* \"#utility.yul\":8304:8315   */\n      add\n        /* \"#utility.yul\":8288:8316   */\n      tag_787\n      jump\t// in\n    tag_875:\n        /* \"#utility.yul\":8350:8365   */\n      dup2\n      dup2\n      mstore\n        /* \"#utility.yul\":8420:8431   */\n      swap2\n      dup4\n      add\n        /* \"#utility.yul\":8416:8436   */\n      dup5\n      add\n      swap2\n        /* \"#utility.yul\":8381:8393   */\n      dup5\n      dup2\n      add\n      swap1\n        /* \"#utility.yul\":8448:8467   */\n      dup9\n      dup5\n      gt\n        /* \"#utility.yul\":8445:8484   */\n      iszero\n      tag_876\n      jumpi\n        /* \"#utility.yul\":8480:8481   */\n      0x00\n        /* \"#utility.yul\":8477:8478   */\n      dup1\n        /* \"#utility.yul\":8470:8482   */\n      revert\n        /* \"#utility.yul\":8445:8484   */\n    tag_876:\n        /* \"#utility.yul\":8504:8515   */\n      swap4\n      dup6\n      add\n      swap4\n        /* \"#utility.yul\":8524:8666   */\n    tag_877:\n        /* \"#utility.yul\":8540:8546   */\n      dup4\n        /* \"#utility.yul\":8535:8538   */\n      dup6\n        /* \"#utility.yul\":8532:8547   */\n      lt\n        /* \"#utility.yul\":8524:8666   */\n      iszero\n      tag_879\n      jumpi\n        /* \"#utility.yul\":8606:8623   */\n      dup5\n      calldataload\n        /* \"#utility.yul\":8594:8624   */\n      dup3\n      mstore\n        /* \"#utility.yul\":8557:8569   */\n      swap4\n      dup6\n      add\n      swap4\n        /* \"#utility.yul\":8644:8656   */\n      swap1\n      dup6\n      add\n      swap1\n        /* \"#utility.yul\":8524:8666   */\n      jump(tag_877)\n    tag_879:\n        /* \"#utility.yul\":8685:8690   */\n      swap9\n        /* \"#utility.yul\":7750:8696   */\n      swap8\n      pop\n      pop\n      pop\n      pop\n      pop\n      pop\n      pop\n      pop\n      jump\t// out\n        /* \"#utility.yul\":9007:9731   */\n    tag_175:\n        /* \"#utility.yul\":9242:9244   */\n      0x20\n        /* \"#utility.yul\":9294:9315   */\n      dup1\n      dup3\n      mstore\n        /* \"#utility.yul\":9364:9377   */\n      dup3\n      mload\n        /* \"#utility.yul\":9267:9285   */\n      dup3\n      dup3\n      add\n        /* \"#utility.yul\":9386:9408   */\n      dup2\n      swap1\n      mstore\n        /* \"#utility.yul\":9213:9217   */\n      0x00\n      swap2\n        /* \"#utility.yul\":9242:9244   */\n      swap1\n        /* \"#utility.yul\":9465:9480   */\n      dup5\n      dup3\n      add\n      swap1\n        /* \"#utility.yul\":9439:9441   */\n      0x40\n        /* \"#utility.yul\":9424:9442   */\n      dup6\n      add\n      swap1\n        /* \"#utility.yul\":9213:9217   */\n      dup5\n        /* \"#utility.yul\":9508:9705   */\n    tag_882:\n        /* \"#utility.yul\":9522:9528   */\n      dup2\n        /* \"#utility.yul\":9519:9520   */\n      dup2\n        /* \"#utility.yul\":9516:9529   */\n      lt\n        /* \"#utility.yul\":9508:9705   */\n      iszero\n      tag_471\n      jumpi\n        /* \"#utility.yul\":9571:9623   */\n      tag_885\n        /* \"#utility.yul\":9619:9622   */\n      dup4\n        /* \"#utility.yul\":9610:9616   */\n      dup6\n        /* \"#utility.yul\":9604:9617   */\n      mload\n        /* \"#utility.yul\":8785:8797   */\n      dup1\n      mload\n      sub(shl(0xa0, 0x01), 0x01)\n        /* \"#utility.yul\":8781:8842   */\n      and\n        /* \"#utility.yul\":8769:8843   */\n      dup3\n      mstore\n        /* \"#utility.yul\":8896:8900   */\n      0x20\n        /* \"#utility.yul\":8885:8901   */\n      dup1\n      dup3\n      add\n        /* \"#utility.yul\":8879:8902   */\n      mload\n        /* \"#utility.yul\":8904:8922   */\n      0xffffffffffffffff\n        /* \"#utility.yul\":8875:8923   */\n      and\n        /* \"#utility.yul\":8859:8873   */\n      swap1\n      dup4\n      add\n        /* \"#utility.yul\":8852:8924   */\n      mstore\n        /* \"#utility.yul\":8987:8991   */\n      0x40\n        /* \"#utility.yul\":8976:8992   */\n      swap1\n      dup2\n      add\n        /* \"#utility.yul\":8970:8993   */\n      mload\n        /* \"#utility.yul\":8963:8994   */\n      iszero\n        /* \"#utility.yul\":8956:8995   */\n      iszero\n        /* \"#utility.yul\":8940:8954   */\n      swap2\n      add\n        /* \"#utility.yul\":8933:8996   */\n      mstore\n        /* \"#utility.yul\":8701:9002   */\n      jump\n        /* \"#utility.yul\":9571:9623   */\n    tag_885:\n        /* \"#utility.yul\":9680:9695   */\n      swap3\n      dup5\n      add\n      swap3\n        /* \"#utility.yul\":9652:9656   */\n      0x60\n        /* \"#utility.yul\":9643:9657   */\n      swap3\n      swap1\n      swap3\n      add\n      swap2\n        /* \"#utility.yul\":9544:9545   */\n      0x01\n        /* \"#utility.yul\":9537:9546   */\n      add\n        /* \"#utility.yul\":9508:9705   */\n      jump(tag_882)\n        /* \"#utility.yul\":9736:10421   */\n    tag_197:\n        /* \"#utility.yul\":9841:9847   */\n      0x00\n        /* \"#utility.yul\":9849:9855   */\n      dup1\n        /* \"#utility.yul\":9857:9863   */\n      0x00\n        /* \"#utility.yul\":9865:9871   */\n      dup1\n        /* \"#utility.yul\":9918:9921   */\n      0x80\n        /* \"#utility.yul\":9906:9915   */\n      dup6\n        /* \"#utility.yul\":9897:9904   */\n      dup8\n        /* \"#utility.yul\":9893:9916   */\n      sub\n        /* \"#utility.yul\":9889:9922   */\n      slt\n        /* \"#utility.yul\":9886:9939   */\n      iszero\n      tag_887\n      jumpi\n        /* \"#utility.yul\":9935:9936   */\n      0x00\n        /* \"#utility.yul\":9932:9933   */\n      dup1\n        /* \"#utility.yul\":9925:9937   */\n      revert\n        /* \"#utility.yul\":9886:9939   */\n    tag_887:\n        /* \"#utility.yul\":9958:9987   */\n      tag_888\n        /* \"#utility.yul\":9977:9986   */\n      dup6\n        /* \"#utility.yul\":9958:9987   */\n      tag_786\n      jump\t// in\n    tag_888:\n        /* \"#utility.yul\":9948:9987   */\n      swap4\n      pop\n        /* \"#utility.yul\":10034:10036   */\n      0x20\n        /* \"#utility.yul\":10023:10032   */\n      dup6\n        /* \"#utility.yul\":10019:10037   */\n      add\n        /* \"#utility.yul\":10006:10038   */\n      calldataload\n        /* \"#utility.yul\":9996:10038   */\n      swap3\n      pop\n        /* \"#utility.yul\":10089:10091   */\n      0x40\n        /* \"#utility.yul\":10078:10087   */\n      dup6\n        /* \"#utility.yul\":10074:10092   */\n      add\n        /* \"#utility.yul\":10061:10093   */\n      calldataload\n        /* \"#utility.yul\":10112:10130   */\n      0xffffffffffffffff\n        /* \"#utility.yul\":10153:10155   */\n      dup1\n        /* \"#utility.yul\":10145:10151   */\n      dup3\n        /* \"#utility.yul\":10142:10156   */\n      gt\n        /* \"#utility.yul\":10139:10173   */\n      iszero\n      tag_889\n      jumpi\n        /* \"#utility.yul\":10169:10170   */\n      0x00\n        /* \"#utility.yul\":10166:10167   */\n      dup1\n        /* \"#utility.yul\":10159:10171   */\n      revert\n        /* \"#utility.yul\":10139:10173   */\n    tag_889:\n        /* \"#utility.yul\":10192:10242   */\n      tag_890\n        /* \"#utility.yul\":10234:10241   */\n      dup9\n        /* \"#utility.yul\":10225:10231   */\n      dup4\n        /* \"#utility.yul\":10214:10223   */\n      dup10\n        /* \"#utility.yul\":10210:10232   */\n      add\n        /* \"#utility.yul\":10192:10242   */\n      tag_788\n      jump\t// in\n    tag_890:\n        /* \"#utility.yul\":10182:10242   */\n      swap4\n      pop\n        /* \"#utility.yul\":10295:10297   */\n      0x60\n        /* \"#utility.yul\":10284:10293   */\n      dup8\n        /* \"#utility.yul\":10280:10298   */\n      add\n        /* \"#utility.yul\":10267:10299   */\n      calldataload\n        /* \"#utility.yul\":10251:10299   */\n      swap2\n      pop\n        /* \"#utility.yul\":10324:10326   */\n      dup1\n        /* \"#utility.yul\":10314:10322   */\n      dup3\n        /* \"#utility.yul\":10311:10327   */\n      gt\n        /* \"#utility.yul\":10308:10344   */\n      iszero\n      tag_891\n      jumpi\n        /* \"#utility.yul\":10340:10341   */\n      0x00\n        /* \"#utility.yul\":10337:10338   */\n      dup1\n        /* \"#utility.yul\":10330:10342   */\n      revert\n        /* \"#utility.yul\":10308:10344   */\n    tag_891:\n      pop\n        /* \"#utility.yul\":10363:10415   */\n      tag_892\n        /* \"#utility.yul\":10407:10414   */\n      dup8\n        /* \"#utility.yul\":10396:10404   */\n      dup3\n        /* \"#utility.yul\":10385:10394   */\n      dup9\n        /* \"#utility.yul\":10381:10405   */\n      add\n        /* \"#utility.yul\":10363:10415   */\n      tag_788\n      jump\t// in\n    tag_892:\n        /* \"#utility.yul\":10353:10415   */\n      swap2\n      pop\n      pop\n        /* \"#utility.yul\":9736:10421   */\n      swap3\n      swap6\n      swap2\n      swap5\n      pop\n      swap3\n      pop\n      jump\t// out\n        /* \"#utility.yul\":10426:11058   */\n    tag_209:\n        /* \"#utility.yul\":10597:10599   */\n      0x20\n        /* \"#utility.yul\":10649:10670   */\n      dup1\n      dup3\n      mstore\n        /* \"#utility.yul\":10719:10732   */\n      dup3\n      mload\n        /* \"#utility.yul\":10622:10640   */\n      dup3\n      dup3\n      add\n        /* \"#utility.yul\":10741:10763   */\n      dup2\n      swap1\n      mstore\n        /* \"#utility.yul\":10568:10572   */\n      0x00\n      swap2\n        /* \"#utility.yul\":10597:10599   */\n      swap1\n        /* \"#utility.yul\":10820:10835   */\n      dup5\n      dup3\n      add\n      swap1\n        /* \"#utility.yul\":10794:10796   */\n      0x40\n        /* \"#utility.yul\":10779:10797   */\n      dup6\n      add\n      swap1\n        /* \"#utility.yul\":10568:10572   */\n      dup5\n        /* \"#utility.yul\":10863:11032   */\n    tag_894:\n        /* \"#utility.yul\":10877:10883   */\n      dup2\n        /* \"#utility.yul\":10874:10875   */\n      dup2\n        /* \"#utility.yul\":10871:10884   */\n      lt\n        /* \"#utility.yul\":10863:11032   */\n      iszero\n      tag_471\n      jumpi\n        /* \"#utility.yul\":10938:10951   */\n      dup4\n      mload\n        /* \"#utility.yul\":10926:10952   */\n      dup4\n      mstore\n        /* \"#utility.yul\":11007:11022   */\n      swap3\n      dup5\n      add\n      swap3\n        /* \"#utility.yul\":10972:10984   */\n      swap2\n      dup5\n      add\n      swap2\n        /* \"#utility.yul\":10899:10900   */\n      0x01\n        /* \"#utility.yul\":10892:10901   */\n      add\n        /* \"#utility.yul\":10863:11032   */\n      jump(tag_894)\n        /* \"#utility.yul\":11063:11385   */\n    tag_217:\n        /* \"#utility.yul\":11132:11138   */\n      0x00\n        /* \"#utility.yul\":11185:11187   */\n      0x20\n        /* \"#utility.yul\":11173:11182   */\n      dup3\n        /* \"#utility.yul\":11164:11171   */\n      dup5\n        /* \"#utility.yul\":11160:11183   */\n      sub\n        /* \"#utility.yul\":11156:11188   */\n      slt\n        /* \"#utility.yul\":11153:11205   */\n      iszero\n      tag_898\n      jumpi\n        /* \"#utility.yul\":11201:11202   */\n      0x00\n        /* \"#utility.yul\":11198:11199   */\n      dup1\n        /* \"#utility.yul\":11191:11203   */\n      revert\n        /* \"#utility.yul\":11153:11205   */\n    tag_898:\n        /* \"#utility.yul\":11241:11250   */\n      dup2\n        /* \"#utility.yul\":11228:11251   */\n      calldataload\n        /* \"#utility.yul\":11274:11292   */\n      0xffffffffffffffff\n        /* \"#utility.yul\":11266:11272   */\n      dup2\n        /* \"#utility.yul\":11263:11293   */\n      gt\n        /* \"#utility.yul\":11260:11310   */\n      iszero\n      tag_899\n      jumpi\n        /* \"#utility.yul\":11306:11307   */\n      0x00\n        /* \"#utility.yul\":11303:11304   */\n      dup1\n        /* \"#utility.yul\":11296:11308   */\n      revert\n        /* \"#utility.yul\":11260:11310   */\n    tag_899:\n        /* \"#utility.yul\":11329:11379   */\n      tag_423\n        /* \"#utility.yul\":11371:11378   */\n      dup5\n        /* \"#utility.yul\":11362:11368   */\n      dup3\n        /* \"#utility.yul\":11351:11360   */\n      dup6\n        /* \"#utility.yul\":11347:11369   */\n      add\n        /* \"#utility.yul\":11329:11379   */\n      tag_788\n      jump\t// in\n        /* \"#utility.yul\":11390:11712   */\n    tag_226:\n        /* \"#utility.yul\":11467:11473   */\n      0x00\n        /* \"#utility.yul\":11475:11481   */\n      dup1\n        /* \"#utility.yul\":11483:11489   */\n      0x00\n        /* \"#utility.yul\":11536:11538   */\n      0x60\n        /* \"#utility.yul\":11524:11533   */\n      dup5\n        /* \"#utility.yul\":11515:11522   */\n      dup7\n        /* \"#utility.yul\":11511:11534   */\n      sub\n        /* \"#utility.yul\":11507:11539   */\n      slt\n        /* \"#utility.yul\":11504:11556   */\n      iszero\n      tag_902\n      jumpi\n        /* \"#utility.yul\":11552:11553   */\n      0x00\n        /* \"#utility.yul\":11549:11550   */\n      dup1\n        /* \"#utility.yul\":11542:11554   */\n      revert\n        /* \"#utility.yul\":11504:11556   */\n    tag_902:\n        /* \"#utility.yul\":11575:11604   */\n      tag_903\n        /* \"#utility.yul\":11594:11603   */\n      dup5\n        /* \"#utility.yul\":11575:11604   */\n      tag_786\n      jump\t// in\n    tag_903:\n        /* \"#utility.yul\":11565:11604   */\n      swap6\n        /* \"#utility.yul\":11651:11653   */\n      0x20\n        /* \"#utility.yul\":11636:11654   */\n      dup6\n      add\n        /* \"#utility.yul\":11623:11655   */\n      calldataload\n      swap6\n      pop\n        /* \"#utility.yul\":11702:11704   */\n      0x40\n        /* \"#utility.yul\":11687:11705   */\n      swap1\n      swap5\n      add\n        /* \"#utility.yul\":11674:11706   */\n      calldataload\n      swap4\n        /* \"#utility.yul\":11390:11712   */\n      swap3\n      pop\n      pop\n      pop\n      jump\t// out\n        /* \"#utility.yul\":11717:12039   */\n    tag_232:\n        /* \"#utility.yul\":11794:11800   */\n      0x00\n        /* \"#utility.yul\":11802:11808   */\n      dup1\n        /* \"#utility.yul\":11810:11816   */\n      0x00\n        /* \"#utility.yul\":11863:11865   */\n      0x60\n        /* \"#utility.yul\":11851:11860   */\n      dup5\n        /* \"#utility.yul\":11842:11849   */\n      dup7\n        /* \"#utility.yul\":11838:11861   */\n      sub\n        /* \"#utility.yul\":11834:11866   */\n      slt\n        /* \"#utility.yul\":11831:11883   */\n      iszero\n      tag_905\n      jumpi\n        /* \"#utility.yul\":11879:11880   */\n      0x00\n        /* \"#utility.yul\":11876:11877   */\n      dup1\n        /* \"#utility.yul\":11869:11881   */\n      revert\n        /* \"#utility.yul\":11831:11883   */\n    tag_905:\n        /* \"#utility.yul\":11915:11924   */\n      dup4\n        /* \"#utility.yul\":11902:11925   */\n      calldataload\n        /* \"#utility.yul\":11892:11925   */\n      swap3\n      pop\n        /* \"#utility.yul\":11944:11982   */\n      tag_853\n        /* \"#utility.yul\":11978:11980   */\n      0x20\n        /* \"#utility.yul\":11967:11976   */\n      dup6\n        /* \"#utility.yul\":11963:11981   */\n      add\n        /* \"#utility.yul\":11944:11982   */\n      tag_786\n      jump\t// in\n        /* \"#utility.yul\":12044:12391   */\n    tag_237:\n        /* \"#utility.yul\":12109:12115   */\n      0x00\n        /* \"#utility.yul\":12117:12123   */\n      dup1\n        /* \"#utility.yul\":12170:12172   */\n      0x40\n        /* \"#utility.yul\":12158:12167   */\n      dup4\n        /* \"#utility.yul\":12149:12156   */\n      dup6\n        /* \"#utility.yul\":12145:12168   */\n      sub\n        /* \"#utility.yul\":12141:12173   */\n      slt\n        /* \"#utility.yul\":12138:12190   */\n      iszero\n      tag_908\n      jumpi\n        /* \"#utility.yul\":12186:12187   */\n      0x00\n        /* \"#utility.yul\":12183:12184   */\n      dup1\n        /* \"#utility.yul\":12176:12188   */\n      revert\n        /* \"#utility.yul\":12138:12190   */\n    tag_908:\n        /* \"#utility.yul\":12209:12238   */\n      tag_909\n        /* \"#utility.yul\":12228:12237   */\n      dup4\n        /* \"#utility.yul\":12209:12238   */\n      tag_786\n      jump\t// in\n    tag_909:\n        /* \"#utility.yul\":12199:12238   */\n      swap2\n      pop\n        /* \"#utility.yul\":12288:12290   */\n      0x20\n        /* \"#utility.yul\":12277:12286   */\n      dup4\n        /* \"#utility.yul\":12273:12291   */\n      add\n        /* \"#utility.yul\":12260:12292   */\n      calldataload\n        /* \"#utility.yul\":12335:12340   */\n      dup1\n        /* \"#utility.yul\":12328:12341   */\n      iszero\n        /* \"#utility.yul\":12321:12342   */\n      iszero\n        /* \"#utility.yul\":12314:12319   */\n      dup2\n        /* \"#utility.yul\":12311:12343   */\n      eq\n        /* \"#utility.yul\":12301:12361   */\n      tag_910\n      jumpi\n        /* \"#utility.yul\":12357:12358   */\n      0x00\n        /* \"#utility.yul\":12354:12355   */\n      dup1\n        /* \"#utility.yul\":12347:12359   */\n      revert\n        /* \"#utility.yul\":12301:12361   */\n    tag_910:\n        /* \"#utility.yul\":12380:12385   */\n      dup1\n        /* \"#utility.yul\":12370:12385   */\n      swap2\n      pop\n      pop\n        /* \"#utility.yul\":12044:12391   */\n      swap3\n      pop\n      swap3\n      swap1\n      pop\n      jump\t// out\n        /* \"#utility.yul\":12396:12852   */\n    tag_242:\n        /* \"#utility.yul\":12493:12499   */\n      0x00\n        /* \"#utility.yul\":12501:12507   */\n      dup1\n        /* \"#utility.yul\":12554:12556   */\n      0x20\n        /* \"#utility.yul\":12542:12551   */\n      dup4\n        /* \"#utility.yul\":12533:12540   */\n      dup6\n        /* \"#utility.yul\":12529:12552   */\n      sub\n        /* \"#utility.yul\":12525:12557   */\n      slt\n        /* \"#utility.yul\":12522:12574   */\n      iszero\n      tag_912\n      jumpi\n        /* \"#utility.yul\":12570:12571   */\n      0x00\n        /* \"#utility.yul\":12567:12568   */\n      dup1\n        /* \"#utility.yul\":12560:12572   */\n      revert\n        /* \"#utility.yul\":12522:12574   */\n    tag_912:\n        /* \"#utility.yul\":12610:12619   */\n      dup3\n        /* \"#utility.yul\":12597:12620   */\n      calldataload\n        /* \"#utility.yul\":12643:12661   */\n      0xffffffffffffffff\n        /* \"#utility.yul\":12635:12641   */\n      dup2\n        /* \"#utility.yul\":12632:12662   */\n      gt\n        /* \"#utility.yul\":12629:12679   */\n      iszero\n      tag_913\n      jumpi\n        /* \"#utility.yul\":12675:12676   */\n      0x00\n        /* \"#utility.yul\":12672:12673   */\n      dup1\n        /* \"#utility.yul\":12665:12677   */\n      revert\n        /* \"#utility.yul\":12629:12679   */\n    tag_913:\n        /* \"#utility.yul\":12714:12792   */\n      tag_914\n        /* \"#utility.yul\":12784:12791   */\n      dup6\n        /* \"#utility.yul\":12775:12781   */\n      dup3\n        /* \"#utility.yul\":12764:12773   */\n      dup7\n        /* \"#utility.yul\":12760:12782   */\n      add\n        /* \"#utility.yul\":12714:12792   */\n      tag_791\n      jump\t// in\n    tag_914:\n        /* \"#utility.yul\":12811:12819   */\n      swap1\n      swap7\n        /* \"#utility.yul\":12688:12792   */\n      swap1\n      swap6\n      pop\n        /* \"#utility.yul\":12396:12852   */\n      swap4\n      pop\n      pop\n      pop\n      pop\n      jump\t// out\n        /* \"#utility.yul\":12857:13669   */\n    tag_245:\n        /* \"#utility.yul\":13017:13021   */\n      0x00\n        /* \"#utility.yul\":13046:13048   */\n      0x20\n        /* \"#utility.yul\":13086:13088   */\n      dup1\n        /* \"#utility.yul\":13075:13084   */\n      dup4\n        /* \"#utility.yul\":13071:13089   */\n      add\n        /* \"#utility.yul\":13116:13118   */\n      0x20\n        /* \"#utility.yul\":13105:13114   */\n      dup5\n        /* \"#utility.yul\":13098:13119   */\n      mstore\n        /* \"#utility.yul\":13139:13145   */\n      dup1\n        /* \"#utility.yul\":13174:13180   */\n      dup6\n        /* \"#utility.yul\":13168:13181   */\n      mload\n        /* \"#utility.yul\":13205:13211   */\n      dup1\n        /* \"#utility.yul\":13197:13203   */\n      dup4\n        /* \"#utility.yul\":13190:13212   */\n      mstore\n        /* \"#utility.yul\":13243:13245   */\n      0x40\n        /* \"#utility.yul\":13232:13241   */\n      dup7\n        /* \"#utility.yul\":13228:13246   */\n      add\n        /* \"#utility.yul\":13221:13246   */\n      swap2\n      pop\n        /* \"#utility.yul\":13305:13307   */\n      0x40\n        /* \"#utility.yul\":13295:13301   */\n      dup2\n        /* \"#utility.yul\":13292:13293   */\n      0x05\n        /* \"#utility.yul\":13288:13302   */\n      shl\n        /* \"#utility.yul\":13277:13286   */\n      dup8\n        /* \"#utility.yul\":13273:13303   */\n      add\n        /* \"#utility.yul\":13269:13308   */\n      add\n        /* \"#utility.yul\":13255:13308   */\n      swap3\n      pop\n        /* \"#utility.yul\":13343:13345   */\n      0x20\n        /* \"#utility.yul\":13335:13341   */\n      dup8\n        /* \"#utility.yul\":13331:13346   */\n      add\n        /* \"#utility.yul\":13364:13365   */\n      0x00\n        /* \"#utility.yul\":13374:13640   */\n    tag_916:\n        /* \"#utility.yul\":13388:13394   */\n      dup3\n        /* \"#utility.yul\":13385:13386   */\n      dup2\n        /* \"#utility.yul\":13382:13395   */\n      lt\n        /* \"#utility.yul\":13374:13640   */\n      iszero\n      tag_918\n      jumpi\n        /* \"#utility.yul\":13481:13483   */\n      0x3f\n        /* \"#utility.yul\":13477:13484   */\n      not\n        /* \"#utility.yul\":13465:13474   */\n      dup9\n        /* \"#utility.yul\":13457:13463   */\n      dup7\n        /* \"#utility.yul\":13453:13475   */\n      sub\n        /* \"#utility.yul\":13449:13485   */\n      add\n        /* \"#utility.yul\":13444:13447   */\n      dup5\n        /* \"#utility.yul\":13437:13486   */\n      mstore\n        /* \"#utility.yul\":13509:13560   */\n      tag_919\n        /* \"#utility.yul\":13553:13559   */\n      dup6\n        /* \"#utility.yul\":13544:13550   */\n      dup4\n        /* \"#utility.yul\":13538:13551   */\n      mload\n        /* \"#utility.yul\":13509:13560   */\n      tag_789\n      jump\t// in\n    tag_919:\n        /* \"#utility.yul\":13499:13560   */\n      swap5\n      pop\n        /* \"#utility.yul\":13618:13630   */\n      swap3\n      dup6\n      add\n      swap3\n        /* \"#utility.yul\":13583:13598   */\n      swap1\n      dup6\n      add\n      swap1\n        /* \"#utility.yul\":13410:13411   */\n      0x01\n        /* \"#utility.yul\":13403:13412   */\n      add\n        /* \"#utility.yul\":13374:13640   */\n      jump(tag_916)\n    tag_918:\n      pop\n        /* \"#utility.yul\":13657:13663   */\n      swap3\n      swap8\n        /* \"#utility.yul\":12857:13669   */\n      swap7\n      pop\n      pop\n      pop\n      pop\n      pop\n      pop\n      pop\n      jump\t// out\n        /* \"#utility.yul\":13674:14212   */\n    tag_253:\n        /* \"#utility.yul\":13769:13775   */\n      0x00\n        /* \"#utility.yul\":13777:13783   */\n      dup1\n        /* \"#utility.yul\":13785:13791   */\n      0x00\n        /* \"#utility.yul\":13793:13799   */\n      dup1\n        /* \"#utility.yul\":13846:13849   */\n      0x80\n        /* \"#utility.yul\":13834:13843   */\n      dup6\n        /* \"#utility.yul\":13825:13832   */\n      dup8\n        /* \"#utility.yul\":13821:13844   */\n      sub\n        /* \"#utility.yul\":13817:13850   */\n      slt\n        /* \"#utility.yul\":13814:13867   */\n      iszero\n      tag_921\n      jumpi\n        /* \"#utility.yul\":13863:13864   */\n      0x00\n        /* \"#utility.yul\":13860:13861   */\n      dup1\n        /* \"#utility.yul\":13853:13865   */\n      revert\n        /* \"#utility.yul\":13814:13867   */\n    tag_921:\n        /* \"#utility.yul\":13886:13915   */\n      tag_922\n        /* \"#utility.yul\":13905:13914   */\n      dup6\n        /* \"#utility.yul\":13886:13915   */\n      tag_786\n      jump\t// in\n    tag_922:\n        /* \"#utility.yul\":13876:13915   */\n      swap4\n      pop\n        /* \"#utility.yul\":13934:13972   */\n      tag_923\n        /* \"#utility.yul\":13968:13970   */\n      0x20\n        /* \"#utility.yul\":13957:13966   */\n      dup7\n        /* \"#utility.yul\":13953:13971   */\n      add\n        /* \"#utility.yul\":13934:13972   */\n      tag_786\n      jump\t// in\n    tag_923:\n        /* \"#utility.yul\":13924:13972   */\n      swap3\n      pop\n        /* \"#utility.yul\":14019:14021   */\n      0x40\n        /* \"#utility.yul\":14008:14017   */\n      dup6\n        /* \"#utility.yul\":14004:14022   */\n      add\n        /* \"#utility.yul\":13991:14023   */\n      calldataload\n        /* \"#utility.yul\":13981:14023   */\n      swap2\n      pop\n        /* \"#utility.yul\":14074:14076   */\n      0x60\n        /* \"#utility.yul\":14063:14072   */\n      dup6\n        /* \"#utility.yul\":14059:14077   */\n      add\n        /* \"#utility.yul\":14046:14078   */\n      calldataload\n        /* \"#utility.yul\":14101:14119   */\n      0xffffffffffffffff\n        /* \"#utility.yul\":14093:14099   */\n      dup2\n        /* \"#utility.yul\":14090:14120   */\n      gt\n        /* \"#utility.yul\":14087:14137   */\n      iszero\n      tag_924\n      jumpi\n        /* \"#utility.yul\":14133:14134   */\n      0x00\n        /* \"#utility.yul\":14130:14131   */\n      dup1\n        /* \"#utility.yul\":14123:14135   */\n      revert\n        /* \"#utility.yul\":14087:14137   */\n    tag_924:\n        /* \"#utility.yul\":14156:14206   */\n      tag_892\n        /* \"#utility.yul\":14198:14205   */\n      dup8\n        /* \"#utility.yul\":14189:14195   */\n      dup3\n        /* \"#utility.yul\":14178:14187   */\n      dup9\n        /* \"#utility.yul\":14174:14196   */\n      add\n        /* \"#utility.yul\":14156:14206   */\n      tag_788\n      jump\t// in\n        /* \"#utility.yul\":14217:14484   */\n    tag_260:\n        /* \"#utility.yul\":8785:8797   */\n      dup2\n      mload\n      sub(shl(0xa0, 0x01), 0x01)\n        /* \"#utility.yul\":8781:8842   */\n      and\n        /* \"#utility.yul\":8769:8843   */\n      dup2\n      mstore\n        /* \"#utility.yul\":8896:8900   */\n      0x20\n        /* \"#utility.yul\":8885:8901   */\n      dup1\n      dup4\n      add\n        /* \"#utility.yul\":8879:8902   */\n      mload\n        /* \"#utility.yul\":8904:8922   */\n      0xffffffffffffffff\n        /* \"#utility.yul\":8875:8923   */\n      and\n        /* \"#utility.yul\":8859:8873   */\n      swap1\n      dup3\n      add\n        /* \"#utility.yul\":8852:8924   */\n      mstore\n        /* \"#utility.yul\":8987:8991   */\n      0x40\n        /* \"#utility.yul\":8976:8992   */\n      dup1\n      dup4\n      add\n        /* \"#utility.yul\":8970:8993   */\n      mload\n        /* \"#utility.yul\":8963:8994   */\n      iszero\n        /* \"#utility.yul\":8956:8995   */\n      iszero\n        /* \"#utility.yul\":8940:8954   */\n      swap1\n      dup3\n      add\n        /* \"#utility.yul\":8933:8996   */\n      mstore\n        /* \"#utility.yul\":14415:14417   */\n      0x60\n        /* \"#utility.yul\":14400:14418   */\n      dup2\n      add\n        /* \"#utility.yul\":14427:14478   */\n      tag_300\n        /* \"#utility.yul\":8701:9002   */\n      jump\n        /* \"#utility.yul\":14489:14749   */\n    tag_273:\n        /* \"#utility.yul\":14557:14563   */\n      0x00\n        /* \"#utility.yul\":14565:14571   */\n      dup1\n        /* \"#utility.yul\":14618:14620   */\n      0x40\n        /* \"#utility.yul\":14606:14615   */\n      dup4\n        /* \"#utility.yul\":14597:14604   */\n      dup6\n        /* \"#utility.yul\":14593:14616   */\n      sub\n        /* \"#utility.yul\":14589:14621   */\n      slt\n        /* \"#utility.yul\":14586:14638   */\n      iszero\n      tag_929\n      jumpi\n        /* \"#utility.yul\":14634:14635   */\n      0x00\n        /* \"#utility.yul\":14631:14632   */\n      dup1\n        /* \"#utility.yul\":14624:14636   */\n      revert\n        /* \"#utility.yul\":14586:14638   */\n    tag_929:\n        /* \"#utility.yul\":14657:14686   */\n      tag_930\n        /* \"#utility.yul\":14676:14685   */\n      dup4\n        /* \"#utility.yul\":14657:14686   */\n      tag_786\n      jump\t// in\n    tag_930:\n        /* \"#utility.yul\":14647:14686   */\n      swap2\n      pop\n        /* \"#utility.yul\":14705:14743   */\n      tag_931\n        /* \"#utility.yul\":14739:14741   */\n      0x20\n        /* \"#utility.yul\":14728:14737   */\n      dup5\n        /* \"#utility.yul\":14724:14742   */\n      add\n        /* \"#utility.yul\":14705:14743   */\n      tag_786\n      jump\t// in\n    tag_931:\n        /* \"#utility.yul\":14695:14743   */\n      swap1\n      pop\n        /* \"#utility.yul\":14489:14749   */\n      swap3\n      pop\n      swap3\n      swap1\n      pop\n      jump\t// out\n        /* \"#utility.yul\":15106:15486   */\n    tag_292:\n        /* \"#utility.yul\":15185:15186   */\n      0x01\n        /* \"#utility.yul\":15181:15193   */\n      dup2\n      dup2\n      shr\n      swap1\n        /* \"#utility.yul\":15228:15240   */\n      dup3\n      and\n      dup1\n        /* \"#utility.yul\":15249:15310   */\n      tag_934\n      jumpi\n        /* \"#utility.yul\":15303:15307   */\n      0x7f\n        /* \"#utility.yul\":15295:15301   */\n      dup3\n        /* \"#utility.yul\":15291:15308   */\n      and\n        /* \"#utility.yul\":15281:15308   */\n      swap2\n      pop\n        /* \"#utility.yul\":15249:15310   */\n    tag_934:\n        /* \"#utility.yul\":15356:15358   */\n      0x20\n        /* \"#utility.yul\":15348:15354   */\n      dup3\n        /* \"#utility.yul\":15345:15359   */\n      lt\n        /* \"#utility.yul\":15325:15343   */\n      dup2\n        /* \"#utility.yul\":15322:15360   */\n      sub\n        /* \"#utility.yul\":15319:15480   */\n      tag_935\n      jumpi\n        /* \"#utility.yul\":15402:15412   */\n      0x4e487b71\n        /* \"#utility.yul\":15397:15400   */\n      0xe0\n        /* \"#utility.yul\":15393:15413   */\n      shl\n        /* \"#utility.yul\":15390:15391   */\n      0x00\n        /* \"#utility.yul\":15383:15414   */\n      mstore\n        /* \"#utility.yul\":15437:15441   */\n      0x22\n        /* \"#utility.yul\":15434:15435   */\n      0x04\n        /* \"#utility.yul\":15427:15442   */\n      mstore\n        /* \"#utility.yul\":15465:15469   */\n      0x24\n        /* \"#utility.yul\":15462:15463   */\n      0x00\n        /* \"#utility.yul\":15455:15470   */\n      revert\n        /* \"#utility.yul\":15319:15480   */\n    tag_935:\n      pop\n        /* \"#utility.yul\":15106:15486   */\n      swap2\n      swap1\n      pop\n      jump\t// out\n        /* \"#utility.yul\":16171:16298   */\n    tag_794:\n        /* \"#utility.yul\":16232:16242   */\n      0x4e487b71\n        /* \"#utility.yul\":16227:16230   */\n      0xe0\n        /* \"#utility.yul\":16223:16243   */\n      shl\n        /* \"#utility.yul\":16220:16221   */\n      0x00\n        /* \"#utility.yul\":16213:16244   */\n      mstore\n        /* \"#utility.yul\":16263:16267   */\n      0x11\n        /* \"#utility.yul\":16260:16261   */\n      0x04\n        /* \"#utility.yul\":16253:16268   */\n      mstore\n        /* \"#utility.yul\":16287:16291   */\n      0x24\n        /* \"#utility.yul\":16284:16285   */\n      0x00\n        /* \"#utility.yul\":16277:16292   */\n      revert\n        /* \"#utility.yul\":16303:16428   */\n    tag_338:\n        /* \"#utility.yul\":16368:16377   */\n      dup1\n      dup3\n      add\n        /* \"#utility.yul\":16389:16399   */\n      dup1\n      dup3\n      gt\n        /* \"#utility.yul\":16386:16422   */\n      iszero\n      tag_300\n      jumpi\n        /* \"#utility.yul\":16402:16420   */\n      tag_300\n      tag_794\n      jump\t// in\n        /* \"#utility.yul\":16769:16937   */\n    tag_343:\n        /* \"#utility.yul\":16842:16851   */\n      dup1\n      dup3\n      mul\n        /* \"#utility.yul\":16873:16882   */\n      dup2\n      iszero\n        /* \"#utility.yul\":16890:16905   */\n      dup3\n      dup3\n      div\n        /* \"#utility.yul\":16884:16906   */\n      dup5\n      eq\n        /* \"#utility.yul\":16870:16907   */\n      or\n        /* \"#utility.yul\":16860:16931   */\n      tag_300\n      jumpi\n        /* \"#utility.yul\":16911:16929   */\n      tag_300\n      tag_794\n      jump\t// in\n        /* \"#utility.yul\":17284:17411   */\n    tag_356:\n        /* \"#utility.yul\":17345:17355   */\n      0x4e487b71\n        /* \"#utility.yul\":17340:17343   */\n      0xe0\n        /* \"#utility.yul\":17336:17356   */\n      shl\n        /* \"#utility.yul\":17333:17334   */\n      0x00\n        /* \"#utility.yul\":17326:17357   */\n      mstore\n        /* \"#utility.yul\":17376:17380   */\n      0x32\n        /* \"#utility.yul\":17373:17374   */\n      0x04\n        /* \"#utility.yul\":17366:17381   */\n      mstore\n        /* \"#utility.yul\":17400:17404   */\n      0x24\n        /* \"#utility.yul\":17397:17398   */\n      0x00\n        /* \"#utility.yul\":17390:17405   */\n      revert\n        /* \"#utility.yul\":17416:17938   */\n    tag_358:\n        /* \"#utility.yul\":17494:17498   */\n      0x00\n        /* \"#utility.yul\":17500:17506   */\n      dup1\n        /* \"#utility.yul\":17560:17571   */\n      dup4\n        /* \"#utility.yul\":17547:17572   */\n      calldataload\n        /* \"#utility.yul\":17654:17656   */\n      0x1e\n        /* \"#utility.yul\":17650:17657   */\n      not\n        /* \"#utility.yul\":17639:17647   */\n      dup5\n        /* \"#utility.yul\":17623:17637   */\n      calldatasize\n        /* \"#utility.yul\":17619:17648   */\n      sub\n        /* \"#utility.yul\":17615:17658   */\n      add\n        /* \"#utility.yul\":17595:17613   */\n      dup2\n        /* \"#utility.yul\":17591:17659   */\n      slt\n        /* \"#utility.yul\":17581:17677   */\n      tag_949\n      jumpi\n        /* \"#utility.yul\":17673:17674   */\n      0x00\n        /* \"#utility.yul\":17670:17671   */\n      dup1\n        /* \"#utility.yul\":17663:17675   */\n      revert\n        /* \"#utility.yul\":17581:17677   */\n    tag_949:\n        /* \"#utility.yul\":17700:17733   */\n      dup4\n      add\n        /* \"#utility.yul\":17752:17772   */\n      dup1\n      calldataload\n      swap2\n      pop\n        /* \"#utility.yul\":17795:17813   */\n      0xffffffffffffffff\n        /* \"#utility.yul\":17784:17814   */\n      dup3\n      gt\n        /* \"#utility.yul\":17781:17831   */\n      iszero\n      tag_950\n      jumpi\n        /* \"#utility.yul\":17827:17828   */\n      0x00\n        /* \"#utility.yul\":17824:17825   */\n      dup1\n        /* \"#utility.yul\":17817:17829   */\n      revert\n        /* \"#utility.yul\":17781:17831   */\n    tag_950:\n        /* \"#utility.yul\":17860:17864   */\n      0x20\n        /* \"#utility.yul\":17848:17865   */\n      add\n      swap2\n      pop\n        /* \"#utility.yul\":17891:17905   */\n      calldatasize\n        /* \"#utility.yul\":17887:17914   */\n      dup2\n      swap1\n      sub\n        /* \"#utility.yul\":17877:17915   */\n      dup3\n      sgt\n        /* \"#utility.yul\":17874:17932   */\n      iszero\n      tag_840\n      jumpi\n        /* \"#utility.yul\":17928:17929   */\n      0x00\n        /* \"#utility.yul\":17925:17926   */\n      dup1\n        /* \"#utility.yul\":17918:17930   */\n      revert\n        /* \"#utility.yul\":18069:18587   */\n    tag_796:\n        /* \"#utility.yul\":18171:18173   */\n      0x1f\n        /* \"#utility.yul\":18166:18169   */\n      dup3\n        /* \"#utility.yul\":18163:18174   */\n      gt\n        /* \"#utility.yul\":18160:18581   */\n      iszero\n      tag_320\n      jumpi\n        /* \"#utility.yul\":18207:18212   */\n      dup1\n        /* \"#utility.yul\":18204:18205   */\n      0x00\n        /* \"#utility.yul\":18197:18213   */\n      mstore\n        /* \"#utility.yul\":18251:18255   */\n      0x20\n        /* \"#utility.yul\":18248:18249   */\n      0x00\n        /* \"#utility.yul\":18238:18256   */\n      keccak256\n        /* \"#utility.yul\":18321:18323   */\n      0x1f\n        /* \"#utility.yul\":18309:18319   */\n      dup5\n        /* \"#utility.yul\":18305:18324   */\n      add\n        /* \"#utility.yul\":18302:18303   */\n      0x05\n        /* \"#utility.yul\":18298:18325   */\n      shr\n        /* \"#utility.yul\":18292:18296   */\n      dup2\n        /* \"#utility.yul\":18288:18326   */\n      add\n        /* \"#utility.yul\":18357:18361   */\n      0x20\n        /* \"#utility.yul\":18345:18355   */\n      dup6\n        /* \"#utility.yul\":18342:18362   */\n      lt\n        /* \"#utility.yul\":18339:18386   */\n      iszero\n      tag_955\n      jumpi\n      pop\n        /* \"#utility.yul\":18380:18384   */\n      dup1\n        /* \"#utility.yul\":18339:18386   */\n    tag_955:\n        /* \"#utility.yul\":18435:18437   */\n      0x1f\n        /* \"#utility.yul\":18430:18433   */\n      dup5\n        /* \"#utility.yul\":18426:18438   */\n      add\n        /* \"#utility.yul\":18423:18424   */\n      0x05\n        /* \"#utility.yul\":18419:18439   */\n      shr\n        /* \"#utility.yul\":18413:18417   */\n      dup3\n        /* \"#utility.yul\":18409:18440   */\n      add\n        /* \"#utility.yul\":18399:18440   */\n      swap2\n      pop\n        /* \"#utility.yul\":18490:18571   */\n    tag_956:\n        /* \"#utility.yul\":18508:18510   */\n      dup2\n        /* \"#utility.yul\":18501:18506   */\n      dup2\n        /* \"#utility.yul\":18498:18511   */\n      lt\n        /* \"#utility.yul\":18490:18571   */\n      iszero\n      tag_650\n      jumpi\n        /* \"#utility.yul\":18567:18568   */\n      0x00\n        /* \"#utility.yul\":18553:18569   */\n      dup2\n      sstore\n        /* \"#utility.yul\":18534:18535   */\n      0x01\n        /* \"#utility.yul\":18523:18536   */\n      add\n        /* \"#utility.yul\":18490:18571   */\n      jump(tag_956)\n        /* \"#utility.yul\":18763:19961   */\n    tag_365:\n        /* \"#utility.yul\":18887:18905   */\n      0xffffffffffffffff\n        /* \"#utility.yul\":18882:18885   */\n      dup4\n        /* \"#utility.yul\":18879:18906   */\n      gt\n        /* \"#utility.yul\":18876:18929   */\n      iszero\n      tag_962\n      jumpi\n        /* \"#utility.yul\":18909:18927   */\n      tag_962\n      tag_431\n      jump\t// in\n    tag_962:\n        /* \"#utility.yul\":18938:19032   */\n      tag_963\n        /* \"#utility.yul\":19028:19031   */\n      dup4\n        /* \"#utility.yul\":18988:19026   */\n      tag_964\n        /* \"#utility.yul\":19020:19024   */\n      dup4\n        /* \"#utility.yul\":19014:19025   */\n      sload\n        /* \"#utility.yul\":18988:19026   */\n      tag_292\n      jump\t// in\n    tag_964:\n        /* \"#utility.yul\":18982:18986   */\n      dup4\n        /* \"#utility.yul\":18938:19032   */\n      tag_796\n      jump\t// in\n    tag_963:\n        /* \"#utility.yul\":19058:19059   */\n      0x00\n        /* \"#utility.yul\":19083:19085   */\n      0x1f\n        /* \"#utility.yul\":19078:19081   */\n      dup5\n        /* \"#utility.yul\":19075:19086   */\n      gt\n        /* \"#utility.yul\":19100:19101   */\n      0x01\n        /* \"#utility.yul\":19095:19703   */\n      dup2\n      eq\n      tag_966\n      jumpi\n        /* \"#utility.yul\":19747:19748   */\n      0x00\n        /* \"#utility.yul\":19764:19767   */\n      dup6\n        /* \"#utility.yul\":19761:19854   */\n      iszero\n      tag_967\n      jumpi\n      pop\n        /* \"#utility.yul\":19820:19839   */\n      dup4\n      dup3\n      add\n        /* \"#utility.yul\":19807:19840   */\n      calldataload\n        /* \"#utility.yul\":19761:19854   */\n    tag_967:\n      not(0x00)\n        /* \"#utility.yul\":18720:18721   */\n      0x03\n        /* \"#utility.yul\":18716:18727   */\n      dup8\n      swap1\n      shl\n        /* \"#utility.yul\":18712:18736   */\n      shr\n        /* \"#utility.yul\":18708:18737   */\n      not\n        /* \"#utility.yul\":18698:18738   */\n      and\n        /* \"#utility.yul\":18744:18745   */\n      0x01\n        /* \"#utility.yul\":18740:18751   */\n      dup7\n      swap1\n      shl\n        /* \"#utility.yul\":18695:18752   */\n      or\n        /* \"#utility.yul\":19867:19945   */\n      dup4\n      sstore\n        /* \"#utility.yul\":19068:19955   */\n      jump(tag_650)\n        /* \"#utility.yul\":19095:19703   */\n    tag_966:\n        /* \"#utility.yul\":18016:18017   */\n      0x00\n        /* \"#utility.yul\":18009:18023   */\n      dup4\n      dup2\n      mstore\n        /* \"#utility.yul\":18053:18057   */\n      0x20\n        /* \"#utility.yul\":18040:18058   */\n      dup2\n      keccak256\n      not(0x1f)\n        /* \"#utility.yul\":19131:19148   */\n      dup8\n      and\n      swap2\n        /* \"#utility.yul\":19246:19475   */\n    tag_970:\n        /* \"#utility.yul\":19260:19267   */\n      dup3\n        /* \"#utility.yul\":19257:19258   */\n      dup2\n        /* \"#utility.yul\":19254:19268   */\n      lt\n        /* \"#utility.yul\":19246:19475   */\n      iszero\n      tag_972\n      jumpi\n        /* \"#utility.yul\":19349:19368   */\n      dup7\n      dup6\n      add\n        /* \"#utility.yul\":19336:19369   */\n      calldataload\n        /* \"#utility.yul\":19321:19370   */\n      dup3\n      sstore\n        /* \"#utility.yul\":19456:19460   */\n      0x20\n        /* \"#utility.yul\":19441:19461   */\n      swap5\n      dup6\n      add\n      swap5\n        /* \"#utility.yul\":19409:19410   */\n      0x01\n        /* \"#utility.yul\":19397:19411   */\n      swap1\n      swap3\n      add\n      swap2\n        /* \"#utility.yul\":19276:19288   */\n      add\n        /* \"#utility.yul\":19246:19475   */\n      jump(tag_970)\n    tag_972:\n        /* \"#utility.yul\":19250:19253   */\n      pop\n        /* \"#utility.yul\":19503:19506   */\n      dup7\n        /* \"#utility.yul\":19494:19501   */\n      dup3\n        /* \"#utility.yul\":19491:19507   */\n      lt\n        /* \"#utility.yul\":19488:19647   */\n      iszero\n      tag_973\n      jumpi\n        /* \"#utility.yul\":19627:19628   */\n      0x00\n        /* \"#utility.yul\":19623:19629   */\n      not\n        /* \"#utility.yul\":19617:19620   */\n      0xf8\n        /* \"#utility.yul\":19611:19614   */\n      dup9\n        /* \"#utility.yul\":19608:19609   */\n      0x03\n        /* \"#utility.yul\":19604:19615   */\n      shl\n        /* \"#utility.yul\":19600:19621   */\n      and\n        /* \"#utility.yul\":19596:19630   */\n      shr\n        /* \"#utility.yul\":19592:19631   */\n      not\n        /* \"#utility.yul\":19579:19588   */\n      dup5\n        /* \"#utility.yul\":19574:19577   */\n      dup8\n        /* \"#utility.yul\":19570:19589   */\n      add\n        /* \"#utility.yul\":19557:19590   */\n      calldataload\n        /* \"#utility.yul\":19553:19632   */\n      and\n        /* \"#utility.yul\":19545:19551   */\n      dup2\n        /* \"#utility.yul\":19538:19633   */\n      sstore\n        /* \"#utility.yul\":19488:19647   */\n    tag_973:\n      pop\n      pop\n        /* \"#utility.yul\":19690:19691   */\n      0x01\n        /* \"#utility.yul\":19684:19687   */\n      dup6\n        /* \"#utility.yul\":19681:19682   */\n      0x01\n        /* \"#utility.yul\":19677:19688   */\n      shl\n        /* \"#utility.yul\":19673:19692   */\n      add\n        /* \"#utility.yul\":19667:19671   */\n      dup4\n        /* \"#utility.yul\":19660:19693   */\n      sstore\n        /* \"#utility.yul\":19068:19955   */\n      pop\n      pop\n        /* \"#utility.yul\":18763:19961   */\n      pop\n      pop\n      pop\n      jump\t// out\n        /* \"#utility.yul\":19966:20427   */\n    tag_372:\n        /* \"#utility.yul\":20153:20159   */\n      dup4\n        /* \"#utility.yul\":20142:20151   */\n      dup2\n        /* \"#utility.yul\":20135:20160   */\n      mstore\n        /* \"#utility.yul\":20196:20198   */\n      0x40\n        /* \"#utility.yul\":20191:20193   */\n      0x20\n        /* \"#utility.yul\":20180:20189   */\n      dup3\n        /* \"#utility.yul\":20176:20194   */\n      add\n        /* \"#utility.yul\":20169:20199   */\n      mstore\n        /* \"#utility.yul\":20235:20241   */\n      dup2\n        /* \"#utility.yul\":20230:20232   */\n      0x40\n        /* \"#utility.yul\":20219:20228   */\n      dup3\n        /* \"#utility.yul\":20215:20233   */\n      add\n        /* \"#utility.yul\":20208:20242   */\n      mstore\n        /* \"#utility.yul\":20292:20298   */\n      dup2\n        /* \"#utility.yul\":20284:20290   */\n      dup4\n        /* \"#utility.yul\":20279:20281   */\n      0x60\n        /* \"#utility.yul\":20268:20277   */\n      dup4\n        /* \"#utility.yul\":20264:20282   */\n      add\n        /* \"#utility.yul\":20251:20299   */\n      calldatacopy\n        /* \"#utility.yul\":20348:20349   */\n      0x00\n        /* \"#utility.yul\":20319:20341   */\n      dup2\n      dup4\n      add\n        /* \"#utility.yul\":20343:20345   */\n      0x60\n        /* \"#utility.yul\":20315:20346   */\n      swap1\n      dup2\n      add\n        /* \"#utility.yul\":20308:20350   */\n      swap2\n      swap1\n      swap2\n      mstore\n        /* \"#utility.yul\":20411:20413   */\n      0x1f\n        /* \"#utility.yul\":20390:20405   */\n      swap1\n      swap3\n      add\n      not(0x1f)\n        /* \"#utility.yul\":20386:20415   */\n      and\n        /* \"#utility.yul\":20371:20416   */\n      add\n        /* \"#utility.yul\":20367:20421   */\n      add\n      swap3\n        /* \"#utility.yul\":19966:20427   */\n      swap2\n      pop\n      pop\n      jump\t// out\n        /* \"#utility.yul\":20432:20559   */\n    tag_798:\n        /* \"#utility.yul\":20493:20503   */\n      0x4e487b71\n        /* \"#utility.yul\":20488:20491   */\n      0xe0\n        /* \"#utility.yul\":20484:20504   */\n      shl\n        /* \"#utility.yul\":20481:20482   */\n      0x00\n        /* \"#utility.yul\":20474:20505   */\n      mstore\n        /* \"#utility.yul\":20524:20528   */\n      0x12\n        /* \"#utility.yul\":20521:20522   */\n      0x04\n        /* \"#utility.yul\":20514:20529   */\n      mstore\n        /* \"#utility.yul\":20548:20552   */\n      0x24\n        /* \"#utility.yul\":20545:20546   */\n      0x00\n        /* \"#utility.yul\":20538:20553   */\n      revert\n        /* \"#utility.yul\":20564:20684   */\n    tag_390:\n        /* \"#utility.yul\":20604:20605   */\n      0x00\n        /* \"#utility.yul\":20630:20631   */\n      dup3\n        /* \"#utility.yul\":20620:20655   */\n      tag_978\n      jumpi\n        /* \"#utility.yul\":20635:20653   */\n      tag_978\n      tag_798\n      jump\t// in\n    tag_978:\n      pop\n        /* \"#utility.yul\":20669:20678   */\n      div\n      swap1\n        /* \"#utility.yul\":20564:20684   */\n      jump\t// out\n        /* \"#utility.yul\":22240:22600   */\n    tag_544:\n        /* \"#utility.yul\":22451:22457   */\n      dup3\n        /* \"#utility.yul\":22443:22449   */\n      dup5\n        /* \"#utility.yul\":22438:22441   */\n      dup3\n        /* \"#utility.yul\":22425:22458   */\n      calldatacopy\n        /* \"#utility.yul\":22521:22523   */\n      0x60\n        /* \"#utility.yul\":22517:22532   */\n      swap2\n      swap1\n      swap2\n      shl\n      not(0xffffffffffffffffffffffff)\n        /* \"#utility.yul\":22513:22566   */\n      and\n        /* \"#utility.yul\":22477:22493   */\n      swap2\n      add\n        /* \"#utility.yul\":22502:22567   */\n      swap1\n      dup2\n      mstore\n        /* \"#utility.yul\":22591:22593   */\n      0x14\n        /* \"#utility.yul\":22583:22594   */\n      add\n      swap2\n        /* \"#utility.yul\":22240:22600   */\n      swap1\n      pop\n      jump\t// out\n        /* \"#utility.yul\":22605:22817   */\n    tag_799:\n        /* \"#utility.yul\":22647:22650   */\n      0x00\n        /* \"#utility.yul\":22685:22690   */\n      dup2\n        /* \"#utility.yul\":22679:22691   */\n      mload\n        /* \"#utility.yul\":22729:22735   */\n      dup1\n        /* \"#utility.yul\":22722:22726   */\n      0x20\n        /* \"#utility.yul\":22715:22720   */\n      dup5\n        /* \"#utility.yul\":22711:22727   */\n      add\n        /* \"#utility.yul\":22706:22709   */\n      dup6\n        /* \"#utility.yul\":22700:22736   */\n      mcopy\n        /* \"#utility.yul\":22791:22792   */\n      0x00\n        /* \"#utility.yul\":22755:22771   */\n      swap4\n      add\n        /* \"#utility.yul\":22780:22793   */\n      swap3\n      dup4\n      mstore\n      pop\n        /* \"#utility.yul\":22755:22771   */\n      swap1\n      swap2\n        /* \"#utility.yul\":22605:22817   */\n      swap1\n      pop\n      jump\t// out\n        /* \"#utility.yul\":22822:23089   */\n    tag_584:\n        /* \"#utility.yul\":23001:23004   */\n      0x00\n        /* \"#utility.yul\":23026:23083   */\n      tag_423\n        /* \"#utility.yul\":23052:23082   */\n      tag_990\n        /* \"#utility.yul\":23078:23081   */\n      dup4\n        /* \"#utility.yul\":23070:23076   */\n      dup7\n        /* \"#utility.yul\":23052:23082   */\n      tag_799\n      jump\t// in\n    tag_990:\n        /* \"#utility.yul\":23044:23050   */\n      dup5\n        /* \"#utility.yul\":23026:23083   */\n      tag_799\n      jump\t// in\n        /* \"#utility.yul\":23438:24783   */\n    tag_602:\n        /* \"#utility.yul\":23564:23567   */\n      dup2\n        /* \"#utility.yul\":23558:23568   */\n      mload\n        /* \"#utility.yul\":23591:23609   */\n      0xffffffffffffffff\n        /* \"#utility.yul\":23583:23589   */\n      dup2\n        /* \"#utility.yul\":23580:23610   */\n      gt\n        /* \"#utility.yul\":23577:23633   */\n      iszero\n      tag_994\n      jumpi\n        /* \"#utility.yul\":23613:23631   */\n      tag_994\n      tag_431\n      jump\t// in\n    tag_994:\n        /* \"#utility.yul\":23642:23739   */\n      tag_995\n        /* \"#utility.yul\":23732:23738   */\n      dup2\n        /* \"#utility.yul\":23692:23730   */\n      tag_996\n        /* \"#utility.yul\":23724:23728   */\n      dup5\n        /* \"#utility.yul\":23718:23729   */\n      sload\n        /* \"#utility.yul\":23692:23730   */\n      tag_292\n      jump\t// in\n    tag_996:\n        /* \"#utility.yul\":23686:23690   */\n      dup5\n        /* \"#utility.yul\":23642:23739   */\n      tag_796\n      jump\t// in\n    tag_995:\n        /* \"#utility.yul\":23794:23798   */\n      0x20\n      dup1\n        /* \"#utility.yul\":23851:23853   */\n      0x1f\n        /* \"#utility.yul\":23840:23854   */\n      dup4\n      gt\n        /* \"#utility.yul\":23868:23869   */\n      0x01\n        /* \"#utility.yul\":23863:24526   */\n      dup2\n      eq\n      tag_998\n      jumpi\n        /* \"#utility.yul\":24570:24571   */\n      0x00\n        /* \"#utility.yul\":24587:24593   */\n      dup5\n        /* \"#utility.yul\":24584:24673   */\n      iszero\n      tag_999\n      jumpi\n      pop\n        /* \"#utility.yul\":24639:24658   */\n      dup6\n      dup4\n      add\n        /* \"#utility.yul\":24633:24659   */\n      mload\n        /* \"#utility.yul\":24584:24673   */\n    tag_999:\n      not(0x00)\n        /* \"#utility.yul\":18720:18721   */\n      0x03\n        /* \"#utility.yul\":18716:18727   */\n      dup7\n      swap1\n      shl\n        /* \"#utility.yul\":18712:18736   */\n      shr\n        /* \"#utility.yul\":18708:18737   */\n      not\n        /* \"#utility.yul\":18698:18738   */\n      and\n        /* \"#utility.yul\":18744:18745   */\n      0x01\n        /* \"#utility.yul\":18740:18751   */\n      dup6\n      swap1\n      shl\n        /* \"#utility.yul\":18695:18752   */\n      or\n        /* \"#utility.yul\":24686:24767   */\n      dup6\n      sstore\n        /* \"#utility.yul\":23833:24777   */\n      jump(tag_997)\n        /* \"#utility.yul\":23863:24526   */\n    tag_998:\n        /* \"#utility.yul\":18016:18017   */\n      0x00\n        /* \"#utility.yul\":18009:18023   */\n      dup6\n      dup2\n      mstore\n        /* \"#utility.yul\":18053:18057   */\n      0x20\n        /* \"#utility.yul\":18040:18058   */\n      dup2\n      keccak256\n      not(0x1f)\n        /* \"#utility.yul\":23899:23919   */\n      dup7\n      and\n      swap2\n        /* \"#utility.yul\":24017:24253   */\n    tag_1002:\n        /* \"#utility.yul\":24031:24038   */\n      dup3\n        /* \"#utility.yul\":24028:24029   */\n      dup2\n        /* \"#utility.yul\":24025:24039   */\n      lt\n        /* \"#utility.yul\":24017:24253   */\n      iszero\n      tag_1004\n      jumpi\n        /* \"#utility.yul\":24120:24139   */\n      dup9\n      dup7\n      add\n        /* \"#utility.yul\":24114:24140   */\n      mload\n        /* \"#utility.yul\":24099:24141   */\n      dup3\n      sstore\n        /* \"#utility.yul\":24212:24239   */\n      swap5\n      dup5\n      add\n      swap5\n        /* \"#utility.yul\":24180:24181   */\n      0x01\n        /* \"#utility.yul\":24168:24182   */\n      swap1\n      swap2\n      add\n      swap1\n        /* \"#utility.yul\":24047:24066   */\n      dup5\n      add\n        /* \"#utility.yul\":24017:24253   */\n      jump(tag_1002)\n    tag_1004:\n        /* \"#utility.yul\":24021:24024   */\n      pop\n        /* \"#utility.yul\":24281:24287   */\n      dup6\n        /* \"#utility.yul\":24272:24279   */\n      dup3\n        /* \"#utility.yul\":24269:24288   */\n      lt\n        /* \"#utility.yul\":24266:24467   */\n      iszero\n      tag_1005\n      jumpi\n        /* \"#utility.yul\":24342:24361   */\n      dup8\n      dup6\n      add\n        /* \"#utility.yul\":24336:24362   */\n      mload\n      not(0x00)\n        /* \"#utility.yul\":24425:24426   */\n      0x03\n        /* \"#utility.yul\":24421:24435   */\n      dup9\n      swap1\n      shl\n        /* \"#utility.yul\":24437:24440   */\n      0xf8\n        /* \"#utility.yul\":24417:24441   */\n      and\n        /* \"#utility.yul\":24413:24450   */\n      shr\n        /* \"#utility.yul\":24409:24451   */\n      not\n        /* \"#utility.yul\":24394:24452   */\n      and\n        /* \"#utility.yul\":24379:24453   */\n      dup2\n      sstore\n        /* \"#utility.yul\":24266:24467   */\n    tag_1005:\n      pop\n      pop\n        /* \"#utility.yul\":24513:24514   */\n      0x01\n        /* \"#utility.yul\":24504:24510   */\n      dup5\n        /* \"#utility.yul\":24501:24502   */\n      0x01\n        /* \"#utility.yul\":24497:24511   */\n      shl\n        /* \"#utility.yul\":24493:24515   */\n      add\n        /* \"#utility.yul\":24487:24491   */\n      dup6\n        /* \"#utility.yul\":24480:24516   */\n      sstore\n        /* \"#utility.yul\":23833:24777   */\n    tag_997:\n      pop\n      pop\n      pop\n      pop\n        /* \"#utility.yul\":23438:24783   */\n      pop\n      pop\n      jump\t// out\n        /* \"#utility.yul\":25053:25458   */\n    tag_698:\n        /* \"#utility.yul\":25250:25252   */\n      0x40\n        /* \"#utility.yul\":25239:25248   */\n      dup2\n        /* \"#utility.yul\":25232:25253   */\n      mstore\n        /* \"#utility.yul\":25213:25217   */\n      0x00\n        /* \"#utility.yul\":25276:25332   */\n      tag_1008\n        /* \"#utility.yul\":25328:25330   */\n      0x40\n        /* \"#utility.yul\":25317:25326   */\n      dup4\n        /* \"#utility.yul\":25313:25331   */\n      add\n        /* \"#utility.yul\":25305:25311   */\n      dup6\n        /* \"#utility.yul\":25276:25332   */\n      tag_789\n      jump\t// in\n    tag_1008:\n        /* \"#utility.yul\":25380:25389   */\n      dup3\n        /* \"#utility.yul\":25372:25378   */\n      dup2\n        /* \"#utility.yul\":25368:25390   */\n      sub\n        /* \"#utility.yul\":25363:25365   */\n      0x20\n        /* \"#utility.yul\":25352:25361   */\n      dup5\n        /* \"#utility.yul\":25348:25366   */\n      add\n        /* \"#utility.yul\":25341:25391   */\n      mstore\n        /* \"#utility.yul\":25408:25452   */\n      tag_1009\n        /* \"#utility.yul\":25445:25451   */\n      dup2\n        /* \"#utility.yul\":25437:25443   */\n      dup6\n        /* \"#utility.yul\":25408:25452   */\n      tag_789\n      jump\t// in\n    tag_1009:\n        /* \"#utility.yul\":25400:25452   */\n      swap6\n        /* \"#utility.yul\":25053:25458   */\n      swap5\n      pop\n      pop\n      pop\n      pop\n      pop\n      jump\t// out\n        /* \"#utility.yul\":25463:25986   */\n    tag_710:\n        /* \"#utility.yul\":25657:25661   */\n      0x00\n      sub(shl(0xa0, 0x01), 0x01)\n        /* \"#utility.yul\":25767:25769   */\n      dup1\n        /* \"#utility.yul\":25759:25765   */\n      dup8\n        /* \"#utility.yul\":25755:25770   */\n      and\n        /* \"#utility.yul\":25744:25753   */\n      dup4\n        /* \"#utility.yul\":25737:25771   */\n      mstore\n        /* \"#utility.yul\":25819:25821   */\n      dup1\n        /* \"#utility.yul\":25811:25817   */\n      dup7\n        /* \"#utility.yul\":25807:25822   */\n      and\n        /* \"#utility.yul\":25802:25804   */\n      0x20\n        /* \"#utility.yul\":25791:25800   */\n      dup5\n        /* \"#utility.yul\":25787:25805   */\n      add\n        /* \"#utility.yul\":25780:25823   */\n      mstore\n      pop\n        /* \"#utility.yul\":25859:25865   */\n      dup4\n        /* \"#utility.yul\":25854:25856   */\n      0x40\n        /* \"#utility.yul\":25843:25852   */\n      dup4\n        /* \"#utility.yul\":25839:25857   */\n      add\n        /* \"#utility.yul\":25832:25866   */\n      mstore\n        /* \"#utility.yul\":25902:25905   */\n      0x80\n        /* \"#utility.yul\":25897:25899   */\n      0x60\n        /* \"#utility.yul\":25886:25895   */\n      dup4\n        /* \"#utility.yul\":25882:25900   */\n      add\n        /* \"#utility.yul\":25875:25906   */\n      mstore\n        /* \"#utility.yul\":25923:25980   */\n      tag_770\n        /* \"#utility.yul\":25975:25978   */\n      0x80\n        /* \"#utility.yul\":25964:25973   */\n      dup4\n        /* \"#utility.yul\":25960:25979   */\n      add\n        /* \"#utility.yul\":25952:25958   */\n      dup5\n        /* \"#utility.yul\":25923:25980   */\n      tag_789\n      jump\t// in\n        /* \"#utility.yul\":25991:26240   */\n    tag_713:\n        /* \"#utility.yul\":26060:26066   */\n      0x00\n        /* \"#utility.yul\":26113:26115   */\n      0x20\n        /* \"#utility.yul\":26101:26110   */\n      dup3\n        /* \"#utility.yul\":26092:26099   */\n      dup5\n        /* \"#utility.yul\":26088:26111   */\n      sub\n        /* \"#utility.yul\":26084:26116   */\n      slt\n        /* \"#utility.yul\":26081:26133   */\n      iszero\n      tag_1013\n      jumpi\n        /* \"#utility.yul\":26129:26130   */\n      0x00\n        /* \"#utility.yul\":26126:26127   */\n      dup1\n        /* \"#utility.yul\":26119:26131   */\n      revert\n        /* \"#utility.yul\":26081:26133   */\n    tag_1013:\n        /* \"#utility.yul\":26161:26170   */\n      dup2\n        /* \"#utility.yul\":26155:26171   */\n      mload\n        /* \"#utility.yul\":26180:26210   */\n      tag_492\n        /* \"#utility.yul\":26204:26209   */\n      dup2\n        /* \"#utility.yul\":26180:26210   */\n      tag_790\n      jump\t// in\n        /* \"#utility.yul\":26245:26380   */\n    tag_747:\n        /* \"#utility.yul\":26284:26287   */\n      0x00\n        /* \"#utility.yul\":26305:26322   */\n      0x01\n      dup3\n      add\n        /* \"#utility.yul\":26302:26345   */\n      tag_1017\n      jumpi\n        /* \"#utility.yul\":26325:26343   */\n      tag_1017\n      tag_794\n      jump\t// in\n    tag_1017:\n      pop\n        /* \"#utility.yul\":26372:26373   */\n      0x01\n        /* \"#utility.yul\":26361:26374   */\n      add\n      swap1\n        /* \"#utility.yul\":26245:26380   */\n      jump\t// out\n        /* \"#utility.yul\":26385:26513   */\n    tag_755:\n        /* \"#utility.yul\":26452:26461   */\n      dup2\n      dup2\n      sub\n        /* \"#utility.yul\":26473:26484   */\n      dup2\n      dup2\n      gt\n        /* \"#utility.yul\":26470:26507   */\n      iszero\n      tag_300\n      jumpi\n        /* \"#utility.yul\":26487:26505   */\n      tag_300\n      tag_794\n      jump\t// in\n        /* \"#utility.yul\":26518:26630   */\n    tag_757:\n        /* \"#utility.yul\":26550:26551   */\n      0x00\n        /* \"#utility.yul\":26576:26577   */\n      dup3\n        /* \"#utility.yul\":26566:26601   */\n      tag_1023\n      jumpi\n        /* \"#utility.yul\":26581:26599   */\n      tag_1023\n      tag_798\n      jump\t// in\n    tag_1023:\n      pop\n        /* \"#utility.yul\":26615:26624   */\n      mod\n      swap1\n        /* \"#utility.yul\":26518:26630   */\n      jump\t// out\n        /* \"#utility.yul\":26635:26825   */\n    tag_766:\n        /* \"#utility.yul\":26764:26767   */\n      0x00\n        /* \"#utility.yul\":26789:26819   */\n      tag_492\n        /* \"#utility.yul\":26815:26818   */\n      dup3\n        /* \"#utility.yul\":26807:26813   */\n      dup5\n        /* \"#utility.yul\":26789:26819   */\n      tag_799\n      jump\t// in\n    stop\n    data_9fdcd12e4b726339b32a442b0a448365d5d85c96b2d2cff917b4f66c63110398 416464726573733a206c6f772d6c6576656c2064656c65676174652063616c6c206661696c6564\n\n    auxdata: 0xa264697066735822122087aed610361a2f487e7f0e8b09b43c62a12c67cdc013be28f2123e1ccc6144e264736f6c63430008190033\n}\n",
    "bytecode": {
      "linkReferences": {},
      "object": "608060405234801561000f575f80fd5b50604051613b7c380380613b7c83398101604081905261002e91610222565b858585858583836002610041838261034e565b50600361004e828261034e565b50505f80555061005d85610086565b610070826001600160801b0383166100d7565b5050506010929092555061040d95505050505050565b600980546001600160a01b038381166001600160a01b0319831681179093556040519116919082907f8292fce18fa69edf4db7b94ea2e58241df0ae57f97e0a6c9b29067028bf92d76905f90a35050565b61271081111561010957604051630a4930ad60e31b815261271060048201526024810182905260440160405180910390fd5b600a80546001600160a01b0384166001600160b01b03199091168117600160a01b61ffff851602179091556040518281527f90d7ec04bcb8978719414f82e52e4cb651db41d0e6f8cea6118c2191e6183adb9060200160405180910390a25050565b80516001600160a01b0381168114610181575f80fd5b919050565b634e487b7160e01b5f52604160045260245ffd5b5f82601f8301126101a9575f80fd5b81516001600160401b03808211156101c3576101c3610186565b604051601f8301601f19908116603f011681019082821181831017156101eb576101eb610186565b81604052838152866020858801011115610203575f80fd5b8360208701602083015e5f602085830101528094505050505092915050565b5f805f805f8060c08789031215610237575f80fd5b6102408761016b565b60208801519096506001600160401b038082111561025c575f80fd5b6102688a838b0161019a565b9650604089015191508082111561027d575f80fd5b5061028a89828a0161019a565b9450506102996060880161016b565b60808801519093506001600160801b03811681146102b5575f80fd5b8092505060a087015190509295509295509295565b600181811c908216806102de57607f821691505b6020821081036102fc57634e487b7160e01b5f52602260045260245ffd5b50919050565b601f82111561034957805f5260205f20601f840160051c810160208510156103275750805b601f840160051c820191505b81811015610346575f8155600101610333565b50505b505050565b81516001600160401b0381111561036757610367610186565b61037b8161037584546102ca565b84610302565b602080601f8311600181146103ae575f84156103975750858301515b5f19600386901b1c1916600185901b178555610405565b5f85815260208120601f198616915b828110156103dc578886015182559484019460019091019084016103bd565b50858210156103f957878501515f19600388901b60f8161c191681555b505060018460011b0185555b505050505050565b6137628061041a5f395ff3fe6080604052600436106102d6575f3560e01c80635bbb21771161017b57806399a2557a116100d1578063b88d4fde11610087578063e8a3d48511610062578063e8a3d4851461084c578063e985e9c514610860578063eddd0d9c146108a7575f80fd5b8063b88d4fde146107e2578063c23dc68f14610801578063c87b56dd1461082d575f80fd5b8063a22cb465116100b7578063a22cb4651461076d578063ac9650d81461078c578063b24f2d39146107b8575f80fd5b806399a2557a1461072f5780639bcf7a151461074e575f80fd5b8063754a81d9116101315780638da5cb5b1161010c5780638da5cb5b146106df578063938e3d7b146106fc57806395d89b411461071b575f80fd5b8063754a81d91461066657806383040532146106855780638462151c146106b3575f80fd5b80636352211e116101615780636352211e1461061457806363b45e2d1461063357806370a0823114610647575f80fd5b80635bbb2177146105c9578063600dd5ea146105f5575f80fd5b806323b872dd116102305780633ccfd60b116101e657806342966c68116101c157806342966c681461054a578063430c2081146105695780634cc157df14610588575f80fd5b80633ccfd60b146105045780633dd904301461051857806342842e0e1461052b575f80fd5b80632a55205a116102165780632a55205a1461049e57806332cb6b0c146104dc5780633b1475a7146104f1575f80fd5b806323b872dd146104605780632419f51b1461047f575f80fd5b8063095ea7b31161029057806313f064691161026b57806313f064691461040b578063165513001461041e57806318160ddd14610449575f80fd5b8063095ea7b3146103aa57806313966db5146103c957806313af4035146103ec575f80fd5b806301ffc9a7116102c057806301ffc9a71461033057806306fdde031461035f578063081812fc14610373575f80fd5b806275a317146102da57806301b0a13e146102fb575b5f80fd5b3480156102e5575f80fd5b506102f96102f4366004612c1a565b6108c6565b005b348015610306575f80fd5b5061031a610315366004612c65565b61094e565b6040516103279190612caa565b60405180910390f35b34801561033b575f80fd5b5061034f61034a366004612cd1565b6109e5565b6040519015158152602001610327565b34801561036a575f80fd5b5061031a610a51565b34801561037e575f80fd5b5061039261038d366004612c65565b610ae1565b6040516001600160a01b039091168152602001610327565b3480156103b5575f80fd5b506102f96103c4366004612cec565b610b23565b3480156103d4575f80fd5b506103de60105481565b604051908152602001610327565b3480156103f7575f80fd5b506102f9610406366004612d14565b610ba8565b6102f9610419366004612d75565b610bd9565b348015610429575f80fd5b506103de610438366004612c65565b60116020525f908152604090205481565b348015610454575f80fd5b506001545f54036103de565b34801561046b575f80fd5b506102f961047a366004612e18565b610ebc565b34801561048a575f80fd5b506103de610499366004612c65565b610ec7565b3480156104a9575f80fd5b506104bd6104b8366004612e51565b610f16565b604080516001600160a01b039093168352602083019190915201610327565b3480156104e7575f80fd5b506103de61271081565b3480156104fc575f80fd5b505f546103de565b34801561050f575f80fd5b506102f9610f51565b6102f9610526366004612eaf565b611001565b348015610536575f80fd5b506102f9610545366004612e18565b61116e565b348015610555575f80fd5b506102f9610564366004612c65565b611188565b348015610574575f80fd5b5061034f610583366004612cec565b611193565b348015610593575f80fd5b506105a76105a2366004612c65565b611210565b604080516001600160a01b03909316835261ffff909116602083015201610327565b3480156105d4575f80fd5b506105e86105e3366004612f33565b61127a565b6040516103279190612fd4565b348015610600575f80fd5b506102f961060f366004612cec565b61133d565b34801561061f575f80fd5b5061039261062e366004612c65565b61136c565b34801561063e575f80fd5b50600c546103de565b348015610652575f80fd5b506103de610661366004612d14565b61137d565b348015610671575f80fd5b506102f961068036600461303e565b6113ca565b348015610690575f80fd5b5061034f61069f366004612c65565b600e6020525f908152604090205460ff1681565b3480156106be575f80fd5b506106d26106cd366004612d14565b611443565b60405161032791906130b7565b3480156106ea575f80fd5b506009546001600160a01b0316610392565b348015610707575f80fd5b506102f96107163660046130ee565b61157d565b348015610726575f80fd5b5061031a6115ab565b34801561073a575f80fd5b506106d2610749366004613120565b6115ba565b348015610759575f80fd5b506102f9610768366004613150565b611767565b348015610778575f80fd5b506102f9610787366004613172565b611797565b348015610797575f80fd5b506107ab6107a63660046131ab565b61182b565b60405161032791906131ea565b3480156107c3575f80fd5b50600a546001600160a01b03811690600160a01b900461ffff166105a7565b3480156107ed575f80fd5b506102f96107fc36600461324c565b61198f565b34801561080c575f80fd5b5061082061081b366004612c65565b6119d3565b60405161032791906132a4565b348015610838575f80fd5b5061031a610847366004612c65565b611a7f565b348015610857575f80fd5b5061031a611b68565b34801561086b575f80fd5b5061034f61087a3660046132da565b6001600160a01b039182165f90815260076020908152604080832093909416825291909152205460ff1690565b3480156108b2575f80fd5b506102f96108c1366004612c65565b611b75565b6108ce611ba5565b61091f5760405162461bcd60e51b815260206004820152601760248201527f4e6f7420617574686f72697a656420746f206d696e742e00000000000000000060448201526064015b60405180910390fd5b61093061092a5f5490565b82611bd1565b61094a82600160405180602001604052805f815250611c4f565b5050565b60126020525f9081526040902080546109669061330b565b80601f01602080910402602001604051908101604052809291908181526020018280546109929061330b565b80156109dd5780601f106109b4576101008083540402835291602001916109dd565b820191905f5260205f20905b8154815290600101906020018083116109c057829003601f168201915b505050505081565b5f6301ffc9a760e01b6001600160e01b031983161480610a1557506380ac58cd60e01b6001600160e01b03198316145b80610a305750635b5e139f60e01b6001600160e01b03198316145b80610a4b57506001600160e01b0319821663152a902d60e11b145b92915050565b606060028054610a609061330b565b80601f0160208091040260200160405190810160405280929190818152602001828054610a8c9061330b565b8015610ad75780601f10610aae57610100808354040283529160200191610ad7565b820191905f5260205f20905b815481529060010190602001808311610aba57829003601f168201915b5050505050905090565b5f610aeb82611e0e565b610b08576040516333d1c03960e21b815260040160405180910390fd5b505f908152600660205260409020546001600160a01b031690565b5f610b2d8261136c565b9050806001600160a01b0316836001600160a01b031603610b615760405163250fdee360e21b815260040160405180910390fd5b336001600160a01b03821614610b9857610b7b813361087a565b610b98576040516367d9dca160e11b815260040160405180910390fd5b610ba3838383611e37565b505050565b610bb0611ba5565b610bcd576040516316ccb9cb60e11b815260040160405180910390fd5b610bd681611e9f565b50565b8480610c275760405162461bcd60e51b815260206004820152600960248201527f4e6f20746f6b656e7300000000000000000000000000000000000000000000006044820152606401610916565b8084148015610c3557508082145b610c815760405162461bcd60e51b815260206004820152600e60248201527f4172726179206d69736d617463680000000000000000000000000000000000006044820152606401610916565b61271081610c916001545f540390565b610c9b9190613357565b1115610ce95760405162461bcd60e51b815260206004820152600860248201527f546f6f206d616e790000000000000000000000000000000000000000000000006044820152606401610916565b80601054610cf7919061336a565b3414610d455760405162461bcd60e51b815260206004820152600d60248201527f42616420746f74616c20666565000000000000000000000000000000000000006044820152606401610916565b5f5b81811015610eb1575f54610d5b8a82611efd565b610dbc818a8a85818110610d7157610d71613381565b9050602002810190610d839190613395565b8080601f0160208091040260200160405190810160405280939291908181526020018383808284375f92019190915250611bd192505050565b868683818110610dce57610dce613381565b9050602002013560115f8381526020019081526020015f2081905550848483818110610dfc57610dfc613381565b9050602002810190610e0e9190613395565b5f83815260126020526040902091610e2791908361341c565b50808a6001600160a01b03167f01f8bd07e6c27ff813d5c6d3c4bf0313a1d75043cf978214b504b794075e5266898986818110610e6657610e66613381565b90506020020135888887818110610e7f57610e7f613381565b9050602002810190610e919190613395565b604051610ea0939291906134d6565b60405180910390a350600101610d47565b505050505050505050565b610ba3838383611f16565b5f610ed1600c5490565b8210610ef357604051630793127760e11b815260048101839052602401610916565b600c8281548110610f0657610f06613381565b905f5260205f2001549050919050565b5f805f80610f2386611210565b90945084925061ffff169050612710610f3c828761336a565b610f46919061351f565b925050509250929050565b6009546001600160a01b03163314610f7c576040516316ccb9cb60e11b815260040160405180910390fd5b4780610fca5760405162461bcd60e51b815260206004820152601360248201527f4e6f7468696e6720746f207769746864726177000000000000000000000000006044820152606401610916565b6009546040516001600160a01b039091169082156108fc029083905f818181858888f1935050505015801561094a573d5f803e3d5ffd5b60105434146110525760405162461bcd60e51b815260206004820152600c60248201527f426164206d696e742066656500000000000000000000000000000000000000006044820152606401610916565b6127106110616001545f540390565b106110ae5760405162461bcd60e51b815260206004820152600860248201527f536f6c64206f75740000000000000000000000000000000000000000000000006044820152606401610916565b5f546110ba8782611efd565b6110f98187878080601f0160208091040260200160405190810160405280939291908181526020018383808284375f92019190915250611bd192505050565b5f8181526011602090815260408083208790556012909152902061111e83858361341c565b5080876001600160a01b03167f01f8bd07e6c27ff813d5c6d3c4bf0313a1d75043cf978214b504b794075e526686868660405161115d939291906134d6565b60405180910390a350505050505050565b610ba383838360405180602001604052805f81525061198f565b610bd68160016120ff565b5f8061119e8361136c565b9050806001600160a01b0316846001600160a01b031614806111e457506001600160a01b038082165f9081526007602090815260408083209388168352929052205460ff165b806112085750836001600160a01b03166111fd84610ae1565b6001600160a01b0316145b949350505050565b5f818152600b60209081526040808320815180830190925280546001600160a01b0316808352600190910154928201929092528291156112565780516020820151611270565b600a546001600160a01b03811690600160a01b900461ffff165b9250925050915091565b80516060905f8167ffffffffffffffff81111561129957611299612b69565b6040519080825280602002602001820160405280156112e257816020015b604080516060810182525f80825260208083018290529282015282525f199092019101816112b75790505b5090505f5b8281146113355761131085828151811061130357611303613381565b60200260200101516119d3565b82828151811061132257611322613381565b60209081029190910101526001016112e7565b509392505050565b611345611ba5565b61136257604051636fae358160e11b815260040160405180910390fd5b61094a82826122ee565b5f61137682612396565b5192915050565b5f6001600160a01b0382166113a5576040516323d3ad8160e21b815260040160405180910390fd5b506001600160a01b03165f9081526005602052604090205467ffffffffffffffff1690565b6113d2611ba5565b61141e5760405162461bcd60e51b815260206004820152601760248201527f4e6f7420617574686f72697a656420746f206d696e742e0000000000000000006044820152606401610916565b6114306114295f5490565b84846124ad565b505061143d848483611c4f565b50505050565b60605f805f6114518561137d565b90505f8167ffffffffffffffff81111561146d5761146d612b69565b604051908082528060200260200182016040528015611496578160200160208202803683370190505b50604080516060810182525f808252602082018190529181018290529192505b838614611571575f81815260046020908152604091829020825160608101845290546001600160a01b0381168252600160a01b810467ffffffffffffffff1692820192909252600160e01b90910460ff16151591810182905292506115695781516001600160a01b03161561152a57815194505b876001600160a01b0316856001600160a01b031603611569578083878060010198508151811061155c5761155c613381565b6020026020010181815250505b6001016114b6565b50909695505050505050565b611585611ba5565b6115a257604051639f7f092560e01b815260040160405180910390fd5b610bd68161250f565b606060038054610a609061330b565b60608183106115dc57604051631960ccad60e11b815260040160405180910390fd5b5f8054808411156115eb578093505b5f6115f58761137d565b905084861015611614578585038181101561160e578091505b50611617565b505f5b5f8167ffffffffffffffff81111561163157611631612b69565b60405190808252806020026020018201604052801561165a578160200160208202803683370190505b509050815f0361166f57935061176092505050565b5f611679886119d3565b90505f8160400151611689575080515b885b88811415801561169b5750848714155b15611754575f81815260046020908152604091829020825160608101845290546001600160a01b0381168252600160a01b810467ffffffffffffffff1692820192909252600160e01b90910460ff161515918101829052935061174c5782516001600160a01b03161561170d57825191505b8a6001600160a01b0316826001600160a01b03160361174c578084888060010199508151811061173f5761173f613381565b6020026020010181815250505b60010161168b565b50505092835250909150505b9392505050565b61176f611ba5565b61178c57604051636fae358160e11b815260040160405180910390fd5b610ba38383836125e8565b336001600160a01b038316036117c05760405163b06307db60e01b815260040160405180910390fd5b335f8181526007602090815260408083206001600160a01b03871680855290835292819020805460ff191686151590811790915590519081529192917f17307eab39ab6107e8899845ad3d59bd9653f200f220920489ca2b5937696c31910160405180910390a35050565b60608167ffffffffffffffff81111561184657611846612b69565b60405190808252806020026020018201604052801561187957816020015b60608152602001906001900390816118645790505b509050335f805b848110156119865781156118ff576118dd308787848181106118a4576118a4613381565b90506020028101906118b69190613395565b866040516020016118c993929190613532565b6040516020818303038152906040526126a7565b8482815181106118ef576118ef613381565b602002602001018190525061197e565b6119603087878481811061191557611915613381565b90506020028101906119279190613395565b8080601f0160208091040260200160405190810160405280939291908181526020018383808284375f920191909152506126a792505050565b84828151811061197257611972613381565b60200260200101819052505b600101611880565b50505092915050565b61199a848484611f16565b6001600160a01b0383163b1561143d576119b6848484846126cc565b61143d576040516368d2bf6b60e11b815260040160405180910390fd5b60408051606080820183525f80835260208084018290528385018290528451928301855281835282018190529281018390529091505f548310611a165792915050565b505f82815260046020908152604091829020825160608101845290546001600160a01b0381168252600160a01b810467ffffffffffffffff1692820192909252600160e01b90910460ff161580159282019290925290611a765792915050565b61176083612396565b5f818152600f6020526040812080546060929190611a9c9061330b565b80601f0160208091040260200160405190810160405280929190818152602001828054611ac89061330b565b8015611b135780601f10611aea57610100808354040283529160200191611b13565b820191905f5260205f20905b815481529060010190602001808311611af657829003601f168201915b505050505090505f81511115611b295792915050565b5f611b33846127b3565b905080611b3f85612928565b604051602001611b5092919061356f565b60405160208183030381529060405292505050919050565b600880546109669061330b565b6009546001600160a01b03163314611ba0576040516316ccb9cb60e11b815260040160405180910390fd5b601055565b5f611bb86009546001600160a01b031690565b6001600160a01b0316336001600160a01b031614905090565b5f828152600f602052604090208054611be99061330b565b159050611c385760405162461bcd60e51b815260206004820152600f60248201527f55524920616c72656164792073657400000000000000000000000000000000006044820152606401610916565b5f828152600f60205260409020610ba38282613583565b5f546001600160a01b038416611c7757604051622e076360e81b815260040160405180910390fd5b825f03611c975760405163b562e8dd60e01b815260040160405180910390fd5b6001600160a01b0384165f81815260056020908152604080832080546fffffffffffffffffffffffffffffffff19811667ffffffffffffffff8083168b0181169182176801000000000000000067ffffffffffffffff1990941690921783900481168b01811690920217909155858452600490925290912080546001600160e01b0319168317600160a01b42909316929092029190911790558190818501903b15611dbb575b60405182906001600160a01b038816905f907fddf252ad1be2c89b69c2b068fc378daa952ba7f163c4a11628f55a4df523b3ef908290a4611d865f8784806001019550876126cc565b611da3576040516368d2bf6b60e11b815260040160405180910390fd5b808210611d3d57825f5414611db6575f80fd5b611dff565b5b6040516001830192906001600160a01b038816905f907fddf252ad1be2c89b69c2b068fc378daa952ba7f163c4a11628f55a4df523b3ef908290a4808210611dbc575b505f90815561143d9085838684565b5f805482108015610a4b5750505f90815260046020526040902054600160e01b900460ff161590565b5f82815260066020526040808220805473ffffffffffffffffffffffffffffffffffffffff19166001600160a01b0387811691821790925591518593918516917f8c5be1e5ebec7d5bd14f71427d1e84f3dd0314c0f7b2291e5b200ac8c7c3b92591a4505050565b600980546001600160a01b0383811673ffffffffffffffffffffffffffffffffffffffff19831681179093556040519116919082907f8292fce18fa69edf4db7b94ea2e58241df0ae57f97e0a6c9b29067028bf92d76905f90a35050565b61094a828260405180602001604052805f815250611c4f565b5f611f2082612396565b9050836001600160a01b0316815f01516001600160a01b031614611f565760405162a1148160e81b815260040160405180910390fd5b5f336001600160a01b0386161480611f735750611f73853361087a565b80611f8e575033611f8384610ae1565b6001600160a01b0316145b905080611fae57604051632ce44b5f60e11b815260040160405180910390fd5b6001600160a01b038416611fd557604051633a954ecd60e21b815260040160405180910390fd5b611fe05f8487611e37565b6001600160a01b038581165f908152600560209081526040808320805467ffffffffffffffff1980821667ffffffffffffffff9283165f1901831617909255898616808652838620805493841693831660019081018416949094179055898652600490945282852080546001600160e01b031916909417600160a01b429092169190910217835587018084529220805491939091166120b3575f5482146120b3578054602086015167ffffffffffffffff16600160a01b026001600160e01b03199091166001600160a01b038a16171781555b50505082846001600160a01b0316866001600160a01b03167fddf252ad1be2c89b69c2b068fc378daa952ba7f163c4a11628f55a4df523b3ef60405160405180910390a45b5050505050565b5f61210983612396565b8051909150821561216e575f336001600160a01b03831614806121315750612131823361087a565b8061214c57503361214186610ae1565b6001600160a01b0316145b90508061216c57604051632ce44b5f60e11b815260040160405180910390fd5b505b6121795f8583611e37565b6001600160a01b038082165f81815260056020908152604080832080547001000000000000000000000000000000005f1967ffffffffffffffff80841691909101811667ffffffffffffffff19841681178390048216600190810183169093027fffffffffffffffff0000000000000000ffffffffffffffff0000000000000000909416179290921783558b8652600490945282852080547fffffff00ffffffffffffffffffffffffffffffffffffffffffffffffffffffff42909316600160a01b026001600160e01b03199091169097179690961716600160e01b1785559189018084529220805491949091166122a5575f5482146122a5578054602087015167ffffffffffffffff16600160a01b026001600160e01b03199091166001600160a01b038716171781555b50506040518692505f91506001600160a01b038416907fddf252ad1be2c89b69c2b068fc378daa952ba7f163c4a11628f55a4df523b3ef908390a4505060018054810190555050565b61271081111561231c57604051630a4930ad60e31b8152612710600482015260248101829052604401610916565b600a80546001600160a01b0384167fffffffffffffffffffff000000000000000000000000000000000000000000009091168117600160a01b61ffff851602179091556040518281527f90d7ec04bcb8978719414f82e52e4cb651db41d0e6f8cea6118c2191e6183adb9060200160405180910390a25050565b604080516060810182525f8082526020820181905291810191909152815f54811015612494575f81815260046020908152604091829020825160608101845290546001600160a01b0381168252600160a01b810467ffffffffffffffff1692820192909252600160e01b90910460ff161515918101829052906124925780516001600160a01b03161561242a579392505050565b505f19015f81815260046020908152604091829020825160608101845290546001600160a01b038116808352600160a01b820467ffffffffffffffff1693830193909352600160e01b900460ff161515928101929092521561248d579392505050565b61242a565b505b604051636f96cda160e11b815260040160405180910390fd5b5f806124b98486613357565b600c8054600181019091557fdf6966c971051c3d54ec59162606531493a51404a002842f56009d7e5cf4a8c7018190555f818152600d602052604090209092508291506125068482613583565b50935093915050565b5f6008805461251d9061330b565b80601f01602080910402602001604051908101604052809291908181526020018280546125499061330b565b80156125945780601f1061256b57610100808354040283529160200191612594565b820191905f5260205f20905b81548152906001019060200180831161257757829003601f168201915b5050505050905081600890816125aa9190613583565b507fc9c7c3fe08b88b4df9d4d47ef47d2c43d55c025a0ba88ca442580ed9e7348a1681836040516125dc929190613643565b60405180910390a15050565b61271081111561261657604051630a4930ad60e31b8152612710600482015260248101829052604401610916565b6040805180820182526001600160a01b0384811680835260208084018681525f898152600b83528690209451855473ffffffffffffffffffffffffffffffffffffffff1916941693909317845591516001909301929092559151838152909185917f7365cf4122f072a3365c20d54eff9b38d73c096c28e1892ec8f5b0e403a0f12d910160405180910390a3505050565b6060611760838360405180606001604052806027815260200161370660279139612a3d565b604051630a85bd0160e11b81525f906001600160a01b0385169063150b7a0290612700903390899088908890600401613670565b6020604051808303815f875af192505050801561273a575060408051601f3d908101601f19168201909252612737918101906136a1565b60015b612796573d808015612767576040519150601f19603f3d011682016040523d82523d5f602084013e61276c565b606091505b5080515f0361278e576040516368d2bf6b60e11b815260040160405180910390fd5b805181602001fd5b6001600160e01b031916630a85bd0160e11b149050949350505050565b60605f6127bf600c5490565b90505f600c80548060200260200160405190810160405280929190818152602001828054801561280c57602002820191905f5260205f20905b8154815260200190600101908083116127f8575b505050505090505f5b8281101561290b5781818151811061282f5761282f613381565b60200260200101518510156128f957600d5f83838151811061285357612853613381565b602002602001015181526020019081526020015f2080546128739061330b565b80601f016020809104026020016040519081016040528092919081815260200182805461289f9061330b565b80156128ea5780601f106128c1576101008083540402835291602001916128ea565b820191905f5260205f20905b8154815290600101906020018083116128cd57829003601f168201915b50505050509350505050919050565b612904600182613357565b9050612815565b506040516309797f6960e21b815260048101859052602401610916565b6060815f0361294e5750506040805180820190915260018152600360fc1b602082015290565b815f5b81156129775780612961816136bc565b91506129709050600a8361351f565b9150612951565b5f8167ffffffffffffffff81111561299157612991612b69565b6040519080825280601f01601f1916602001820160405280156129bb576020820181803683370190505b5090505b8415611208576129d06001836136d4565b91506129dd600a866136e7565b6129e8906030613357565b60f81b8183815181106129fd576129fd613381565b60200101907effffffffffffffffffffffffffffffffffffffffffffffffffffffffffffff191690815f1a905350612a36600a8661351f565b94506129bf565b60605f80856001600160a01b031685604051612a5991906136fa565b5f60405180830381855af49150503d805f8114612a91576040519150601f19603f3d011682016040523d82523d5f602084013e612a96565b606091505b5091509150612aa786838387612ab1565b9695505050505050565b60608315612b1f5782515f03612b18576001600160a01b0385163b612b185760405162461bcd60e51b815260206004820152601d60248201527f416464726573733a2063616c6c20746f206e6f6e2d636f6e74726163740000006044820152606401610916565b5081611208565b6112088383815115612b345781518083602001fd5b8060405162461bcd60e51b81526004016109169190612caa565b80356001600160a01b0381168114612b64575f80fd5b919050565b634e487b7160e01b5f52604160045260245ffd5b604051601f8201601f1916810167ffffffffffffffff81118282101715612ba657612ba6612b69565b604052919050565b5f82601f830112612bbd575f80fd5b813567ffffffffffffffff811115612bd757612bd7612b69565b612bea601f8201601f1916602001612b7d565b818152846020838601011115612bfe575f80fd5b816020850160208301375f918101602001919091529392505050565b5f8060408385031215612c2b575f80fd5b612c3483612b4e565b9150602083013567ffffffffffffffff811115612c4f575f80fd5b612c5b85828601612bae565b9150509250929050565b5f60208284031215612c75575f80fd5b5035919050565b5f81518084528060208401602086015e5f602082860101526020601f19601f83011685010191505092915050565b602081525f6117606020830184612c7c565b6001600160e01b031981168114610bd6575f80fd5b5f60208284031215612ce1575f80fd5b813561176081612cbc565b5f8060408385031215612cfd575f80fd5b612d0683612b4e565b946020939093013593505050565b5f60208284031215612d24575f80fd5b61176082612b4e565b5f8083601f840112612d3d575f80fd5b50813567ffffffffffffffff811115612d54575f80fd5b6020830191508360208260051b8501011115612d6e575f80fd5b9250929050565b5f805f805f805f6080888a031215612d8b575f80fd5b612d9488612b4e565b9650602088013567ffffffffffffffff80821115612db0575f80fd5b612dbc8b838c01612d2d565b909850965060408a0135915080821115612dd4575f80fd5b612de08b838c01612d2d565b909650945060608a0135915080821115612df8575f80fd5b50612e058a828b01612d2d565b989b979a50959850939692959293505050565b5f805f60608486031215612e2a575f80fd5b612e3384612b4e565b9250612e4160208501612b4e565b9150604084013590509250925092565b5f8060408385031215612e62575f80fd5b50508035926020909101359150565b5f8083601f840112612e81575f80fd5b50813567ffffffffffffffff811115612e98575f80fd5b602083019150836020828501011115612d6e575f80fd5b5f805f805f8060808789031215612ec4575f80fd5b612ecd87612b4e565b9550602087013567ffffffffffffffff80821115612ee9575f80fd5b612ef58a838b01612e71565b9097509550604089013594506060890135915080821115612f14575f80fd5b50612f2189828a01612e71565b979a9699509497509295939492505050565b5f6020808385031215612f44575f80fd5b823567ffffffffffffffff80821115612f5b575f80fd5b818501915085601f830112612f6e575f80fd5b813581811115612f8057612f80612b69565b8060051b9150612f91848301612b7d565b8181529183018401918481019088841115612faa575f80fd5b938501935b83851015612fc857843582529385019390850190612faf565b98975050505050505050565b602080825282518282018190525f9190848201906040850190845b818110156115715761302b83855180516001600160a01b0316825260208082015167ffffffffffffffff16908301526040908101511515910152565b9284019260609290920191600101612fef565b5f805f8060808587031215613051575f80fd5b61305a85612b4e565b935060208501359250604085013567ffffffffffffffff8082111561307d575f80fd5b61308988838901612bae565b9350606087013591508082111561309e575f80fd5b506130ab87828801612bae565b91505092959194509250565b602080825282518282018190525f9190848201906040850190845b81811015611571578351835292840192918401916001016130d2565b5f602082840312156130fe575f80fd5b813567ffffffffffffffff811115613114575f80fd5b61120884828501612bae565b5f805f60608486031215613132575f80fd5b61313b84612b4e565b95602085013595506040909401359392505050565b5f805f60608486031215613162575f80fd5b83359250612e4160208501612b4e565b5f8060408385031215613183575f80fd5b61318c83612b4e565b9150602083013580151581146131a0575f80fd5b809150509250929050565b5f80602083850312156131bc575f80fd5b823567ffffffffffffffff8111156131d2575f80fd5b6131de85828601612d2d565b90969095509350505050565b5f60208083016020845280855180835260408601915060408160051b8701019250602087015f5b8281101561323f57603f1988860301845261322d858351612c7c565b94509285019290850190600101613211565b5092979650505050505050565b5f805f806080858703121561325f575f80fd5b61326885612b4e565b935061327660208601612b4e565b925060408501359150606085013567ffffffffffffffff811115613298575f80fd5b6130ab87828801612bae565b81516001600160a01b0316815260208083015167ffffffffffffffff169082015260408083015115159082015260608101610a4b565b5f80604083850312156132eb575f80fd5b6132f483612b4e565b915061330260208401612b4e565b90509250929050565b600181811c9082168061331f57607f821691505b60208210810361333d57634e487b7160e01b5f52602260045260245ffd5b50919050565b634e487b7160e01b5f52601160045260245ffd5b80820180821115610a4b57610a4b613343565b8082028115828204841417610a4b57610a4b613343565b634e487b7160e01b5f52603260045260245ffd5b5f808335601e198436030181126133aa575f80fd5b83018035915067ffffffffffffffff8211156133c4575f80fd5b602001915036819003821315612d6e575f80fd5b601f821115610ba357805f5260205f20601f840160051c810160208510156133fd5750805b601f840160051c820191505b818110156120f8575f8155600101613409565b67ffffffffffffffff83111561343457613434612b69565b61344883613442835461330b565b836133d8565b5f601f841160018114613479575f85156134625750838201355b5f19600387901b1c1916600186901b1783556120f8565b5f83815260208120601f198716915b828110156134a85786850135825560209485019460019092019101613488565b50868210156134c4575f1960f88860031b161c19848701351681555b505060018560011b0183555050505050565b83815260406020820152816040820152818360608301375f818301606090810191909152601f909201601f1916010192915050565b634e487b7160e01b5f52601260045260245ffd5b5f8261352d5761352d61350b565b500490565b8284823760609190911b6bffffffffffffffffffffffff19169101908152601401919050565b5f81518060208401855e5f93019283525090919050565b5f61120861357d8386613558565b84613558565b815167ffffffffffffffff81111561359d5761359d612b69565b6135b1816135ab845461330b565b846133d8565b602080601f8311600181146135e4575f84156135cd5750858301515b5f19600386901b1c1916600185901b17855561363b565b5f85815260208120601f198616915b82811015613612578886015182559484019460019091019084016135f3565b508582101561362f57878501515f19600388901b60f8161c191681555b505060018460011b0185555b505050505050565b604081525f6136556040830185612c7c565b82810360208401526136678185612c7c565b95945050505050565b5f6001600160a01b03808716835280861660208401525083604083015260806060830152612aa76080830184612c7c565b5f602082840312156136b1575f80fd5b815161176081612cbc565b5f600182016136cd576136cd613343565b5060010190565b81810381811115610a4b57610a4b613343565b5f826136f5576136f561350b565b500690565b5f611760828461355856fe416464726573733a206c6f772d6c6576656c2064656c65676174652063616c6c206661696c6564a264697066735822122087aed610361a2f487e7f0e8b09b43c62a12c67cdc013be28f2123e1ccc6144e264736f6c63430008190033",
      "opcodes": "PUSH1 0x80 PUSH1 0x40 MSTORE CALLVALUE DUP1 ISZERO PUSH2 0xF JUMPI PUSH0 DUP1 REVERT JUMPDEST POP PUSH1 0x40 MLOAD PUSH2 0x3B7C CODESIZE SUB DUP1 PUSH2 0x3B7C DUP4 CODECOPY DUP2 ADD PUSH1 0x40 DUP2 SWAP1 MSTORE PUSH2 0x2E SWAP2 PUSH2 0x222 JUMP JUMPDEST DUP6 DUP6 DUP6 DUP6 DUP6 DUP4 DUP4 PUSH1 0x2 PUSH2 0x41 DUP4 DUP3 PUSH2 0x34E JUMP JUMPDEST POP PUSH1 0x3 PUSH2 0x4E DUP3 DUP3 PUSH2 0x34E JUMP JUMPDEST POP POP PUSH0 DUP1 SSTORE POP PUSH2 0x5D DUP6 PUSH2 0x86 JUMP JUMPDEST PUSH2 0x70 DUP3 PUSH1 0x1 PUSH1 0x1 PUSH1 0x80 SHL SUB DUP4 AND PUSH2 0xD7 JUMP JUMPDEST POP POP POP PUSH1 0x10 SWAP3 SWAP1 SWAP3 SSTORE POP PUSH2 0x40D SWAP6 POP POP POP POP POP POP JUMP JUMPDEST PUSH1 0x9 DUP1 SLOAD PUSH1 0x1 PUSH1 0x1 PUSH1 0xA0 SHL SUB DUP4 DUP2 AND PUSH1 0x1 PUSH1 0x1 PUSH1 0xA0 SHL SUB NOT DUP4 AND DUP2 OR SWAP1 SWAP4 SSTORE PUSH1 0x40 MLOAD SWAP2 AND SWAP2 SWAP1 DUP3 SWAP1 PUSH32 0x8292FCE18FA69EDF4DB7B94EA2E58241DF0AE57F97E0A6C9B29067028BF92D76 SWAP1 PUSH0 SWAP1 LOG3 POP POP JUMP JUMPDEST PUSH2 0x2710 DUP2 GT ISZERO PUSH2 0x109 JUMPI PUSH1 0x40 MLOAD PUSH4 0xA4930AD PUSH1 0xE3 SHL DUP2 MSTORE PUSH2 0x2710 PUSH1 0x4 DUP3 ADD MSTORE PUSH1 0x24 DUP2 ADD DUP3 SWAP1 MSTORE PUSH1 0x44 ADD PUSH1 0x40 MLOAD DUP1 SWAP2 SUB SWAP1 REVERT JUMPDEST PUSH1 0xA DUP1 SLOAD PUSH1 0x1 PUSH1 0x1 PUSH1 0xA0 SHL SUB DUP5 AND PUSH1 0x1 PUSH1 0x1 PUSH1 0xB0 SHL SUB NOT SWAP1 SWAP2 AND DUP2 OR PUSH1 0x1 PUSH1 0xA0 SHL PUSH2 0xFFFF DUP6 AND MUL OR SWAP1 SWAP2 SSTORE PUSH1 0x40 MLOAD DUP3 DUP2 MSTORE PUSH32 0x90D7EC04BCB8978719414F82E52E4CB651DB41D0E6F8CEA6118C2191E6183ADB SWAP1 PUSH1 0x20 ADD PUSH1 0x40 MLOAD DUP1 SWAP2 SUB SWAP1 LOG2 POP POP JUMP JUMPDEST DUP1 MLOAD PUSH1 0x1 PUSH1 0x1 PUSH1 0xA0 SHL SUB DUP2 AND DUP2 EQ PUSH2 0x181 JUMPI PUSH0 DUP1 REVERT JUMPDEST SWAP2 SWAP1 POP JUMP JUMPDEST PUSH4 0x4E487B71 PUSH1 0xE0 SHL PUSH0 MSTORE PUSH1 0x41 PUSH1 0x4 MSTORE PUSH1 0x24 PUSH0 REVERT JUMPDEST PUSH0 DUP3 PUSH1 0x1F DUP4 ADD SLT PUSH2 0x1A9 JUMPI PUSH0 DUP1 REVERT JUMPDEST DUP2 MLOAD PUSH1 0x1 PUSH1 0x1 PUSH1 0x40 SHL SUB DUP1 DUP3 GT ISZERO PUSH2 0x1C3 JUMPI PUSH2 0x1C3 PUSH2 0x186 JUMP JUMPDEST PUSH1 0x40 MLOAD PUSH1 0x1F DUP4 ADD PUSH1 0x1F NOT SWAP1 DUP2 AND PUSH1 0x3F ADD AND DUP2 ADD SWAP1 DUP3 DUP3 GT DUP2 DUP4 LT OR ISZERO PUSH2 0x1EB JUMPI PUSH2 0x1EB PUSH2 0x186 JUMP JUMPDEST DUP2 PUSH1 0x40 MSTORE DUP4 DUP2 MSTORE DUP7 PUSH1 0x20 DUP6 DUP9 ADD ADD GT ISZERO PUSH2 0x203 JUMPI PUSH0 DUP1 REVERT JUMPDEST DUP4 PUSH1 0x20 DUP8 ADD PUSH1 0x20 DUP4 ADD MCOPY PUSH0 PUSH1 0x20 DUP6 DUP4 ADD ADD MSTORE DUP1 SWAP5 POP POP POP POP POP SWAP3 SWAP2 POP POP JUMP JUMPDEST PUSH0 DUP1 PUSH0 DUP1 PUSH0 DUP1 PUSH1 0xC0 DUP8 DUP10 SUB SLT ISZERO PUSH2 0x237 JUMPI PUSH0 DUP1 REVERT JUMPDEST PUSH2 0x240 DUP8 PUSH2 0x16B JUMP JUMPDEST PUSH1 0x20 DUP9 ADD MLOAD SWAP1 SWAP7 POP PUSH1 0x1 PUSH1 0x1 PUSH1 0x40 SHL SUB DUP1 DUP3 GT ISZERO PUSH2 0x25C JUMPI PUSH0 DUP1 REVERT JUMPDEST PUSH2 0x268 DUP11 DUP4 DUP12 ADD PUSH2 0x19A JUMP JUMPDEST SWAP7 POP PUSH1 0x40 DUP10 ADD MLOAD SWAP2 POP DUP1 DUP3 GT ISZERO PUSH2 0x27D JUMPI PUSH0 DUP1 REVERT JUMPDEST POP PUSH2 0x28A DUP10 DUP3 DUP11 ADD PUSH2 0x19A JUMP JUMPDEST SWAP5 POP POP PUSH2 0x299 PUSH1 0x60 DUP9 ADD PUSH2 0x16B JUMP JUMPDEST PUSH1 0x80 DUP9 ADD MLOAD SWAP1 SWAP4 POP PUSH1 0x1 PUSH1 0x1 PUSH1 0x80 SHL SUB DUP2 AND DUP2 EQ PUSH2 0x2B5 JUMPI PUSH0 DUP1 REVERT JUMPDEST DUP1 SWAP3 POP POP PUSH1 0xA0 DUP8 ADD MLOAD SWAP1 POP SWAP3 SWAP6 POP SWAP3 SWAP6 POP SWAP3 SWAP6 JUMP JUMPDEST PUSH1 0x1 DUP2 DUP2 SHR SWAP1 DUP3 AND DUP1 PUSH2 0x2DE JUMPI PUSH1 0x7F DUP3 AND SWAP2 POP JUMPDEST PUSH1 0x20 DUP3 LT DUP2 SUB PUSH2 0x2FC JUMPI PUSH4 0x4E487B71 PUSH1 0xE0 SHL PUSH0 MSTORE PUSH1 0x22 PUSH1 0x4 MSTORE PUSH1 0x24 PUSH0 REVERT JUMPDEST POP SWAP2 SWAP1 POP JUMP JUMPDEST PUSH1 0x1F DUP3 GT ISZERO PUSH2 0x349 JUMPI DUP1 PUSH0 MSTORE PUSH1 0x20 PUSH0 KECCAK256 PUSH1 0x1F DUP5 ADD PUSH1 0x5 SHR DUP2 ADD PUSH1 0x20 DUP6 LT ISZERO PUSH2 0x327 JUMPI POP DUP1 JUMPDEST PUSH1 0x1F DUP5 ADD PUSH1 0x5 SHR DUP3 ADD SWAP2 POP JUMPDEST DUP2 DUP2 LT ISZERO PUSH2 0x346 JUMPI PUSH0 DUP2 SSTORE PUSH1 0x1 ADD PUSH2 0x333 JUMP JUMPDEST POP POP JUMPDEST POP POP POP JUMP JUMPDEST DUP2 MLOAD PUSH1 0x1 PUSH1 0x1 PUSH1 0x40 SHL SUB DUP2 GT ISZERO PUSH2 0x367 JUMPI PUSH2 0x367 PUSH2 0x186 JUMP JUMPDEST PUSH2 0x37B DUP2 PUSH2 0x375 DUP5 SLOAD PUSH2 0x2CA JUMP JUMPDEST DUP5 PUSH2 0x302 JUMP JUMPDEST PUSH1 0x20 DUP1 PUSH1 0x1F DUP4 GT PUSH1 0x1 DUP2 EQ PUSH2 0x3AE JUMPI PUSH0 DUP5 ISZERO PUSH2 0x397 JUMPI POP DUP6 DUP4 ADD MLOAD JUMPDEST PUSH0 NOT PUSH1 0x3 DUP7 SWAP1 SHL SHR NOT AND PUSH1 0x1 DUP6 SWAP1 SHL OR DUP6 SSTORE PUSH2 0x405 JUMP JUMPDEST PUSH0 DUP6 DUP2 MSTORE PUSH1 0x20 DUP2 KECCAK256 PUSH1 0x1F NOT DUP7 AND SWAP2 JUMPDEST DUP3 DUP2 LT ISZERO PUSH2 0x3DC JUMPI DUP9 DUP7 ADD MLOAD DUP3 SSTORE SWAP5 DUP5 ADD SWAP5 PUSH1 0x1 SWAP1 SWAP2 ADD SWAP1 DUP5 ADD PUSH2 0x3BD JUMP JUMPDEST POP DUP6 DUP3 LT ISZERO PUSH2 0x3F9 JUMPI DUP8 DUP6 ADD MLOAD PUSH0 NOT PUSH1 0x3 DUP9 SWAP1 SHL PUSH1 0xF8 AND SHR NOT AND DUP2 SSTORE JUMPDEST POP POP PUSH1 0x1 DUP5 PUSH1 0x1 SHL ADD DUP6 SSTORE JUMPDEST POP POP POP POP POP POP JUMP JUMPDEST PUSH2 0x3762 DUP1 PUSH2 0x41A PUSH0 CODECOPY PUSH0 RETURN INVALID PUSH1 0x80 PUSH1 0x40 MSTORE PUSH1 0x4 CALLDATASIZE LT PUSH2 0x2D6 JUMPI PUSH0 CALLDATALOAD PUSH1 0xE0 SHR DUP1 PUSH4 0x5BBB2177 GT PUSH2 0x17B JUMPI DUP1 PUSH4 0x99A2557A GT PUSH2 0xD1 JUMPI DUP1 PUSH4 0xB88D4FDE GT PUSH2 0x87 JUMPI DUP1 PUSH4 0xE8A3D485 GT PUSH2 0x62 JUMPI DUP1 PUSH4 0xE8A3D485 EQ PUSH2 0x84C JUMPI DUP1 PUSH4 0xE985E9C5 EQ PUSH2 0x860 JUMPI DUP1 PUSH4 0xEDDD0D9C EQ PUSH2 0x8A7 JUMPI PUSH0 DUP1 REVERT JUMPDEST DUP1 PUSH4 0xB88D4FDE EQ PUSH2 0x7E2 JUMPI DUP1 PUSH4 0xC23DC68F EQ PUSH2 0x801 JUMPI DUP1 PUSH4 0xC87B56DD EQ PUSH2 0x82D JUMPI PUSH0 DUP1 REVERT JUMPDEST DUP1 PUSH4 0xA22CB465 GT PUSH2 0xB7 JUMPI DUP1 PUSH4 0xA22CB465 EQ PUSH2 0x76D JUMPI DUP1 PUSH4 0xAC9650D8 EQ PUSH2 0x78C JUMPI DUP1 PUSH4 0xB24F2D39 EQ PUSH2 0x7B8 JUMPI PUSH0 DUP1 REVERT JUMPDEST DUP1 PUSH4 0x99A2557A EQ PUSH2 0x72F JUMPI DUP1 PUSH4 0x9BCF7A15 EQ PUSH2 0x74E JUMPI PUSH0 DUP1 REVERT JUMPDEST DUP1 PUSH4 0x754A81D9 GT PUSH2 0x131 JUMPI DUP1 PUSH4 0x8DA5CB5B GT PUSH2 0x10C JUMPI DUP1 PUSH4 0x8DA5CB5B EQ PUSH2 0x6DF JUMPI DUP1 PUSH4 0x938E3D7B EQ PUSH2 0x6FC JUMPI DUP1 PUSH4 0x95D89B41 EQ PUSH2 0x71B JUMPI PUSH0 DUP1 REVERT JUMPDEST DUP1 PUSH4 0x754A81D9 EQ PUSH2 0x666 JUMPI DUP1 PUSH4 0x83040532 EQ PUSH2 0x685 JUMPI DUP1 PUSH4 0x8462151C EQ PUSH2 0x6B3 JUMPI PUSH0 DUP1 REVERT JUMPDEST DUP1 PUSH4 0x6352211E GT PUSH2 0x161 JUMPI DUP1 PUSH4 0x6352211E EQ PUSH2 0x614 JUMPI DUP1 PUSH4 0x63B45E2D EQ PUSH2 0x633 JUMPI DUP1 PUSH4 0x70A08231 EQ PUSH2 0x647 JUMPI PUSH0 DUP1 REVERT JUMPDEST DUP1 PUSH4 0x5BBB2177 EQ PUSH2 0x5C9 JUMPI DUP1 PUSH4 0x600DD5EA EQ PUSH2 0x5F5 JUMPI PUSH0 DUP1 REVERT JUMPDEST DUP1 PUSH4 0x23B872DD GT PUSH2 0x230 JUMPI DUP1 PUSH4 0x3CCFD60B GT PUSH2 0x1E6 JUMPI DUP1 PUSH4 0x42966C68 GT PUSH2 0x1C1 JUMPI DUP1 PUSH4 0x42966C68 EQ PUSH2 0x54A JUMPI DUP1 PUSH4 0x430C2081 EQ PUSH2 0x569 JUMPI DUP1 PUSH4 0x4CC157DF EQ PUSH2 0x588 JUMPI PUSH0 DUP1 REVERT JUMPDEST DUP1 PUSH4 0x3CCFD60B EQ PUSH2 0x504 JUMPI DUP1 PUSH4 0x3DD90430 EQ PUSH2 0x518 JUMPI DUP1 PUSH4 0x42842E0E EQ PUSH2 0x52B JUMPI PUSH0 DUP1 REVERT JUMPDEST DUP1 PUSH4 0x2A55205A GT PUSH2 0x216 JUMPI DUP1 PUSH4 0x2A55205A EQ PUSH2 0x49E JUMPI DUP1 PUSH4 0x32CB6B0C EQ PUSH2 0x4DC JUMPI DUP1 PUSH4 0x3B1475A7 EQ PUSH2 0x4F1 JUMPI PUSH0 DUP1 REVERT JUMPDEST DUP1 PUSH4 0x23B872DD EQ PUSH2 0x460 JUMPI DUP1 PUSH4 0x2419F51B EQ PUSH2 0x47F JUMPI PUSH0 DUP1 REVERT JUMPDEST DUP1 PUSH4 0x95EA7B3 GT PUSH2 0x290 JUMPI DUP1 PUSH4 0x13F06469 GT PUSH2 0x26B JUMPI DUP1 PUSH4 0x13F06469 EQ PUSH2 0x40B JUMPI DUP1 PUSH4 0x16551300 EQ PUSH2 0x41E JUMPI DUP1 PUSH4 0x18160DDD EQ PUSH2 0x449 JUMPI PUSH0 DUP1 REVERT JUMPDEST DUP1 PUSH4 0x95EA7B3 EQ PUSH2 0x3AA JUMPI DUP1 PUSH4 0x13966DB5 EQ PUSH2 0x3C9 JUMPI DUP1 PUSH4 0x13AF4035 EQ PUSH2 0x3EC JUMPI PUSH0 DUP1 REVERT JUMPDEST DUP1 PUSH4 0x1FFC9A7 GT PUSH2 0x2C0 JUMPI DUP1 PUSH4 0x1FFC9A7 EQ PUSH2 0x330 JUMPI DUP1 PUSH4 0x6FDDE03 EQ PUSH2 0x35F JUMPI DUP1 PUSH4 0x81812FC EQ PUSH2 0x373 JUMPI PUSH0 DUP1 REVERT JUMPDEST DUP1 PUSH3 0x75A317 EQ PUSH2 0x2DA JUMPI DUP1 PUSH4 0x1B0A13E EQ PUSH2 0x2FB JUMPI JUMPDEST PUSH0 DUP1 REVERT JUMPDEST CALLVALUE DUP1 ISZERO PUSH2 0x2E5 JUMPI PUSH0 DUP1 REVERT JUMPDEST POP PUSH2 0x2F9 PUSH2 0x2F4 CALLDATASIZE PUSH1 0x4 PUSH2 0x2C1A JUMP JUMPDEST PUSH2 0x8C6 JUMP JUMPDEST STOP JUMPDEST CALLVALUE DUP1 ISZERO PUSH2 0x306 JUMPI PUSH0 DUP1 REVERT JUMPDEST POP PUSH2 0x31A PUSH2 0x315 CALLDATASIZE PUSH1 0x4 PUSH2 0x2C65 JUMP JUMPDEST PUSH2 0x94E JUMP JUMPDEST PUSH1 0x40 MLOAD PUSH2 0x327 SWAP2 SWAP1 PUSH2 0x2CAA JUMP JUMPDEST PUSH1 0x40 MLOAD DUP1 SWAP2 SUB SWAP1 RETURN JUMPDEST CALLVALUE DUP1 ISZERO PUSH2 0x33B JUMPI PUSH0 DUP1 REVERT JUMPDEST POP PUSH2 0x34F PUSH2 0x34A CALLDATASIZE PUSH1 0x4 PUSH2 0x2CD1 JUMP JUMPDEST PUSH2 0x9E5 JUMP JUMPDEST PUSH1 0x40 MLOAD SWAP1 ISZERO ISZERO DUP2 MSTORE PUSH1 0x20 ADD PUSH2 0x327 JUMP JUMPDEST CALLVALUE DUP1 ISZERO PUSH2 0x36A JUMPI PUSH0 DUP1 REVERT JUMPDEST POP PUSH2 0x31A PUSH2 0xA51 JUMP JUMPDEST CALLVALUE DUP1 ISZERO PUSH2 0x37E JUMPI PUSH0 DUP1 REVERT JUMPDEST POP PUSH2 0x392 PUSH2 0x38D CALLDATASIZE PUSH1 0x4 PUSH2 0x2C65 JUMP JUMPDEST PUSH2 0xAE1 JUMP JUMPDEST PUSH1 0x40 MLOAD PUSH1 0x1 PUSH1 0x1 PUSH1 0xA0 SHL SUB SWAP1 SWAP2 AND DUP2 MSTORE PUSH1 0x20 ADD PUSH2 0x327 JUMP JUMPDEST CALLVALUE DUP1 ISZERO PUSH2 0x3B5 JUMPI PUSH0 DUP1 REVERT JUMPDEST POP PUSH2 0x2F9 PUSH2 0x3C4 CALLDATASIZE PUSH1 0x4 PUSH2 0x2CEC JUMP JUMPDEST PUSH2 0xB23 JUMP JUMPDEST CALLVALUE DUP1 ISZERO PUSH2 0x3D4 JUMPI PUSH0 DUP1 REVERT JUMPDEST POP PUSH2 0x3DE PUSH1 0x10 SLOAD DUP2 JUMP JUMPDEST PUSH1 0x40 MLOAD SWAP1 DUP2 MSTORE PUSH1 0x20 ADD PUSH2 0x327 JUMP JUMPDEST CALLVALUE DUP1 ISZERO PUSH2 0x3F7 JUMPI PUSH0 DUP1 REVERT JUMPDEST POP PUSH2 0x2F9 PUSH2 0x406 CALLDATASIZE PUSH1 0x4 PUSH2 0x2D14 JUMP JUMPDEST PUSH2 0xBA8 JUMP JUMPDEST PUSH2 0x2F9 PUSH2 0x419 CALLDATASIZE PUSH1 0x4 PUSH2 0x2D75 JUMP JUMPDEST PUSH2 0xBD9 JUMP JUMPDEST CALLVALUE DUP1 ISZERO PUSH2 0x429 JUMPI PUSH0 DUP1 REVERT JUMPDEST POP PUSH2 0x3DE PUSH2 0x438 CALLDATASIZE PUSH1 0x4 PUSH2 0x2C65 JUMP JUMPDEST PUSH1 0x11 PUSH1 0x20 MSTORE PUSH0 SWAP1 DUP2 MSTORE PUSH1 0x40 SWAP1 KECCAK256 SLOAD DUP2 JUMP JUMPDEST CALLVALUE DUP1 ISZERO PUSH2 0x454 JUMPI PUSH0 DUP1 REVERT JUMPDEST POP PUSH1 0x1 SLOAD PUSH0 SLOAD SUB PUSH2 0x3DE JUMP JUMPDEST CALLVALUE DUP1 ISZERO PUSH2 0x46B JUMPI PUSH0 DUP1 REVERT JUMPDEST POP PUSH2 0x2F9 PUSH2 0x47A CALLDATASIZE PUSH1 0x4 PUSH2 0x2E18 JUMP JUMPDEST PUSH2 0xEBC JUMP JUMPDEST CALLVALUE DUP1 ISZERO PUSH2 0x48A JUMPI PUSH0 DUP1 REVERT JUMPDEST POP PUSH2 0x3DE PUSH2 0x499 CALLDATASIZE PUSH1 0x4 PUSH2 0x2C65 JUMP JUMPDEST PUSH2 0xEC7 JUMP JUMPDEST CALLVALUE DUP1 ISZERO PUSH2 0x4A9 JUMPI PUSH0 DUP1 REVERT JUMPDEST POP PUSH2 0x4BD PUSH2 0x4B8 CALLDATASIZE PUSH1 0x4 PUSH2 0x2E51 JUMP JUMPDEST PUSH2 0xF16 JUMP JUMPDEST PUSH1 0x40 DUP1 MLOAD PUSH1 0x1 PUSH1 0x1 PUSH1 0xA0 SHL SUB SWAP1 SWAP4 AND DUP4 MSTORE PUSH1 0x20 DUP4 ADD SWAP2 SWAP1 SWAP2 MSTORE ADD PUSH2 0x327 JUMP JUMPDEST CALLVALUE DUP1 ISZERO PUSH2 0x4E7 JUMPI PUSH0 DUP1 REVERT JUMPDEST POP PUSH2 0x3DE PUSH2 0x2710 DUP2 JUMP JUMPDEST CALLVALUE DUP1 ISZERO PUSH2 0x4FC JUMPI PUSH0 DUP1 REVERT JUMPDEST POP PUSH0 SLOAD PUSH2 0x3DE JUMP JUMPDEST CALLVALUE DUP1 ISZERO PUSH2 0x50F JUMPI PUSH0 DUP1 REVERT JUMPDEST POP PUSH2 0x2F9 PUSH2 0xF51 JUMP JUMPDEST PUSH2 0x2F9 PUSH2 0x526 CALLDATASIZE PUSH1 0x4 PUSH2 0x2EAF JUMP JUMPDEST PUSH2 0x1001 JUMP JUMPDEST CALLVALUE DUP1 ISZERO PUSH2 0x536 JUMPI PUSH0 DUP1 REVERT JUMPDEST POP PUSH2 0x2F9 PUSH2 0x545 CALLDATASIZE PUSH1 0x4 PUSH2 0x2E18 JUMP JUMPDEST PUSH2 0x116E JUMP JUMPDEST CALLVALUE DUP1 ISZERO PUSH2 0x555 JUMPI PUSH0 DUP1 REVERT JUMPDEST POP PUSH2 0x2F9 PUSH2 0x564 CALLDATASIZE PUSH1 0x4 PUSH2 0x2C65 JUMP JUMPDEST PUSH2 0x1188 JUMP JUMPDEST CALLVALUE DUP1 ISZERO PUSH2 0x574 JUMPI PUSH0 DUP1 REVERT JUMPDEST POP PUSH2 0x34F PUSH2 0x583 CALLDATASIZE PUSH1 0x4 PUSH2 0x2CEC JUMP JUMPDEST PUSH2 0x1193 JUMP JUMPDEST CALLVALUE DUP1 ISZERO PUSH2 0x593 JUMPI PUSH0 DUP1 REVERT JUMPDEST POP PUSH2 0x5A7 PUSH2 0x5A2 CALLDATASIZE PUSH1 0x4 PUSH2 0x2C65 JUMP JUMPDEST PUSH2 0x1210 JUMP JUMPDEST PUSH1 0x40 DUP1 MLOAD PUSH1 0x1 PUSH1 0x1 PUSH1 0xA0 SHL SUB SWAP1 SWAP4 AND DUP4 MSTORE PUSH2 0xFFFF SWAP1 SWAP2 AND PUSH1 0x20 DUP4 ADD MSTORE ADD PUSH2 0x327 JUMP JUMPDEST CALLVALUE DUP1 ISZERO PUSH2 0x5D4 JUMPI PUSH0 DUP1 REVERT JUMPDEST POP PUSH2 0x5E8 PUSH2 0x5E3 CALLDATASIZE PUSH1 0x4 PUSH2 0x2F33 JUMP JUMPDEST PUSH2 0x127A JUMP JUMPDEST PUSH1 0x40 MLOAD PUSH2 0x327 SWAP2 SWAP1 PUSH2 0x2FD4 JUMP JUMPDEST CALLVALUE DUP1 ISZERO PUSH2 0x600 JUMPI PUSH0 DUP1 REVERT JUMPDEST POP PUSH2 0x2F9 PUSH2 0x60F CALLDATASIZE PUSH1 0x4 PUSH2 0x2CEC JUMP JUMPDEST PUSH2 0x133D JUMP JUMPDEST CALLVALUE DUP1 ISZERO PUSH2 0x61F JUMPI PUSH0 DUP1 REVERT JUMPDEST POP PUSH2 0x392 PUSH2 0x62E CALLDATASIZE PUSH1 0x4 PUSH2 0x2C65 JUMP JUMPDEST PUSH2 0x136C JUMP JUMPDEST CALLVALUE DUP1 ISZERO PUSH2 0x63E JUMPI PUSH0 DUP1 REVERT JUMPDEST POP PUSH1 0xC SLOAD PUSH2 0x3DE JUMP JUMPDEST CALLVALUE DUP1 ISZERO PUSH2 0x652 JUMPI PUSH0 DUP1 REVERT JUMPDEST POP PUSH2 0x3DE PUSH2 0x661 CALLDATASIZE PUSH1 0x4 PUSH2 0x2D14 JUMP JUMPDEST PUSH2 0x137D JUMP JUMPDEST CALLVALUE DUP1 ISZERO PUSH2 0x671 JUMPI PUSH0 DUP1 REVERT JUMPDEST POP PUSH2 0x2F9 PUSH2 0x680 CALLDATASIZE PUSH1 0x4 PUSH2 0x303E JUMP JUMPDEST PUSH2 0x13CA JUMP JUMPDEST CALLVALUE DUP1 ISZERO PUSH2 0x690 JUMPI PUSH0 DUP1 REVERT JUMPDEST POP PUSH2 0x34F PUSH2 0x69F CALLDATASIZE PUSH1 0x4 PUSH2 0x2C65 JUMP JUMPDEST PUSH1 0xE PUSH1 0x20 MSTORE PUSH0 SWAP1 DUP2 MSTORE PUSH1 0x40 SWAP1 KECCAK256 SLOAD PUSH1 0xFF AND DUP2 JUMP JUMPDEST CALLVALUE DUP1 ISZERO PUSH2 0x6BE JUMPI PUSH0 DUP1 REVERT JUMPDEST POP PUSH2 0x6D2 PUSH2 0x6CD CALLDATASIZE PUSH1 0x4 PUSH2 0x2D14 JUMP JUMPDEST PUSH2 0x1443 JUMP JUMPDEST PUSH1 0x40 MLOAD PUSH2 0x327 SWAP2 SWAP1 PUSH2 0x30B7 JUMP JUMPDEST CALLVALUE DUP1 ISZERO PUSH2 0x6EA JUMPI PUSH0 DUP1 REVERT JUMPDEST POP PUSH1 0x9 SLOAD PUSH1 0x1 PUSH1 0x1 PUSH1 0xA0 SHL SUB AND PUSH2 0x392 JUMP JUMPDEST CALLVALUE DUP1 ISZERO PUSH2 0x707 JUMPI PUSH0 DUP1 REVERT JUMPDEST POP PUSH2 0x2F9 PUSH2 0x716 CALLDATASIZE PUSH1 0x4 PUSH2 0x30EE JUMP JUMPDEST PUSH2 0x157D JUMP JUMPDEST CALLVALUE DUP1 ISZERO PUSH2 0x726 JUMPI PUSH0 DUP1 REVERT JUMPDEST POP PUSH2 0x31A PUSH2 0x15AB JUMP JUMPDEST CALLVALUE DUP1 ISZERO PUSH2 0x73A JUMPI PUSH0 DUP1 REVERT JUMPDEST POP PUSH2 0x6D2 PUSH2 0x749 CALLDATASIZE PUSH1 0x4 PUSH2 0x3120 JUMP JUMPDEST PUSH2 0x15BA JUMP JUMPDEST CALLVALUE DUP1 ISZERO PUSH2 0x759 JUMPI PUSH0 DUP1 REVERT JUMPDEST POP PUSH2 0x2F9 PUSH2 0x768 CALLDATASIZE PUSH1 0x4 PUSH2 0x3150 JUMP JUMPDEST PUSH2 0x1767 JUMP JUMPDEST CALLVALUE DUP1 ISZERO PUSH2 0x778 JUMPI PUSH0 DUP1 REVERT JUMPDEST POP PUSH2 0x2F9 PUSH2 0x787 CALLDATASIZE PUSH1 0x4 PUSH2 0x3172 JUMP JUMPDEST PUSH2 0x1797 JUMP JUMPDEST CALLVALUE DUP1 ISZERO PUSH2 0x797 JUMPI PUSH0 DUP1 REVERT JUMPDEST POP PUSH2 0x7AB PUSH2 0x7A6 CALLDATASIZE PUSH1 0x4 PUSH2 0x31AB JUMP JUMPDEST PUSH2 0x182B JUMP JUMPDEST PUSH1 0x40 MLOAD PUSH2 0x327 SWAP2 SWAP1 PUSH2 0x31EA JUMP JUMPDEST CALLVALUE DUP1 ISZERO PUSH2 0x7C3 JUMPI PUSH0 DUP1 REVERT JUMPDEST POP PUSH1 0xA SLOAD PUSH1 0x1 PUSH1 0x1 PUSH1 0xA0 SHL SUB DUP2 AND SWAP1 PUSH1 0x1 PUSH1 0xA0 SHL SWAP1 DIV PUSH2 0xFFFF AND PUSH2 0x5A7 JUMP JUMPDEST CALLVALUE DUP1 ISZERO PUSH2 0x7ED JUMPI PUSH0 DUP1 REVERT JUMPDEST POP PUSH2 0x2F9 PUSH2 0x7FC CALLDATASIZE PUSH1 0x4 PUSH2 0x324C JUMP JUMPDEST PUSH2 0x198F JUMP JUMPDEST CALLVALUE DUP1 ISZERO PUSH2 0x80C JUMPI PUSH0 DUP1 REVERT JUMPDEST POP PUSH2 0x820 PUSH2 0x81B CALLDATASIZE PUSH1 0x4 PUSH2 0x2C65 JUMP JUMPDEST PUSH2 0x19D3 JUMP JUMPDEST PUSH1 0x40 MLOAD PUSH2 0x327 SWAP2 SWAP1 PUSH2 0x32A4 JUMP JUMPDEST CALLVALUE DUP1 ISZERO PUSH2 0x838 JUMPI PUSH0 DUP1 REVERT JUMPDEST POP PUSH2 0x31A PUSH2 0x847 CALLDATASIZE PUSH1 0x4 PUSH2 0x2C65 JUMP JUMPDEST PUSH2 0x1A7F JUMP JUMPDEST CALLVALUE DUP1 ISZERO PUSH2 0x857 JUMPI PUSH0 DUP1 REVERT JUMPDEST POP PUSH2 0x31A PUSH2 0x1B68 JUMP JUMPDEST CALLVALUE DUP1 ISZERO PUSH2 0x86B JUMPI PUSH0 DUP1 REVERT JUMPDEST POP PUSH2 0x34F PUSH2 0x87A CALLDATASIZE PUSH1 0x4 PUSH2 0x32DA JUMP JUMPDEST PUSH1 0x1 PUSH1 0x1 PUSH1 0xA0 SHL SUB SWAP2 DUP3 AND PUSH0 SWAP1 DUP2 MSTORE PUSH1 0x7 PUSH1 0x20 SWAP1 DUP2 MSTORE PUSH1 0x40 DUP1 DUP4 KECCAK256 SWAP4 SWAP1 SWAP5 AND DUP3 MSTORE SWAP2 SWAP1 SWAP2 MSTORE KECCAK256 SLOAD PUSH1 0xFF AND SWAP1 JUMP JUMPDEST CALLVALUE DUP1 ISZERO PUSH2 0x8B2 JUMPI PUSH0 DUP1 REVERT JUMPDEST POP PUSH2 0x2F9 PUSH2 0x8C1 CALLDATASIZE PUSH1 0x4 PUSH2 0x2C65 JUMP JUMPDEST PUSH2 0x1B75 JUMP JUMPDEST PUSH2 0x8CE PUSH2 0x1BA5 JUMP JUMPDEST PUSH2 0x91F JUMPI PUSH1 0x40 MLOAD PUSH3 0x461BCD PUSH1 0xE5 SHL DUP2 MSTORE PUSH1 0x20 PUSH1 0x4 DUP3 ADD MSTORE PUSH1 0x17 PUSH1 0x24 DUP3 ADD MSTORE PUSH32 0x4E6F7420617574686F72697A656420746F206D696E742E000000000000000000 PUSH1 0x44 DUP3 ADD MSTORE PUSH1 0x64 ADD JUMPDEST PUSH1 0x40 MLOAD DUP1 SWAP2 SUB SWAP1 REVERT JUMPDEST PUSH2 0x930 PUSH2 0x92A PUSH0 SLOAD SWAP1 JUMP JUMPDEST DUP3 PUSH2 0x1BD1 JUMP JUMPDEST PUSH2 0x94A DUP3 PUSH1 0x1 PUSH1 0x40 MLOAD DUP1 PUSH1 0x20 ADD PUSH1 0x40 MSTORE DUP1 PUSH0 DUP2 MSTORE POP PUSH2 0x1C4F JUMP JUMPDEST POP POP JUMP JUMPDEST PUSH1 0x12 PUSH1 0x20 MSTORE PUSH0 SWAP1 DUP2 MSTORE PUSH1 0x40 SWAP1 KECCAK256 DUP1 SLOAD PUSH2 0x966 SWAP1 PUSH2 0x330B JUMP JUMPDEST DUP1 PUSH1 0x1F ADD PUSH1 0x20 DUP1 SWAP2 DIV MUL PUSH1 0x20 ADD PUSH1 0x40 MLOAD SWAP1 DUP2 ADD PUSH1 0x40 MSTORE DUP1 SWAP3 SWAP2 SWAP1 DUP2 DUP2 MSTORE PUSH1 0x20 ADD DUP3 DUP1 SLOAD PUSH2 0x992 SWAP1 PUSH2 0x330B JUMP JUMPDEST DUP1 ISZERO PUSH2 0x9DD JUMPI DUP1 PUSH1 0x1F LT PUSH2 0x9B4 JUMPI PUSH2 0x100 DUP1 DUP4 SLOAD DIV MUL DUP4 MSTORE SWAP2 PUSH1 0x20 ADD SWAP2 PUSH2 0x9DD JUMP JUMPDEST DUP3 ADD SWAP2 SWAP1 PUSH0 MSTORE PUSH1 0x20 PUSH0 KECCAK256 SWAP1 JUMPDEST DUP2 SLOAD DUP2 MSTORE SWAP1 PUSH1 0x1 ADD SWAP1 PUSH1 0x20 ADD DUP1 DUP4 GT PUSH2 0x9C0 JUMPI DUP3 SWAP1 SUB PUSH1 0x1F AND DUP3 ADD SWAP2 JUMPDEST POP POP POP POP POP DUP2 JUMP JUMPDEST PUSH0 PUSH4 0x1FFC9A7 PUSH1 0xE0 SHL PUSH1 0x1 PUSH1 0x1 PUSH1 0xE0 SHL SUB NOT DUP4 AND EQ DUP1 PUSH2 0xA15 JUMPI POP PUSH4 0x80AC58CD PUSH1 0xE0 SHL PUSH1 0x1 PUSH1 0x1 PUSH1 0xE0 SHL SUB NOT DUP4 AND EQ JUMPDEST DUP1 PUSH2 0xA30 JUMPI POP PUSH4 0x5B5E139F PUSH1 0xE0 SHL PUSH1 0x1 PUSH1 0x1 PUSH1 0xE0 SHL SUB NOT DUP4 AND EQ JUMPDEST DUP1 PUSH2 0xA4B JUMPI POP PUSH1 0x1 PUSH1 0x1 PUSH1 0xE0 SHL SUB NOT DUP3 AND PUSH4 0x152A902D PUSH1 0xE1 SHL EQ JUMPDEST SWAP3 SWAP2 POP POP JUMP JUMPDEST PUSH1 0x60 PUSH1 0x2 DUP1 SLOAD PUSH2 0xA60 SWAP1 PUSH2 0x330B JUMP JUMPDEST DUP1 PUSH1 0x1F ADD PUSH1 0x20 DUP1 SWAP2 DIV MUL PUSH1 0x20 ADD PUSH1 0x40 MLOAD SWAP1 DUP2 ADD PUSH1 0x40 MSTORE DUP1 SWAP3 SWAP2 SWAP1 DUP2 DUP2 MSTORE PUSH1 0x20 ADD DUP3 DUP1 SLOAD PUSH2 0xA8C SWAP1 PUSH2 0x330B JUMP JUMPDEST DUP1 ISZERO PUSH2 0xAD7 JUMPI DUP1 PUSH1 0x1F LT PUSH2 0xAAE JUMPI PUSH2 0x100 DUP1 DUP4 SLOAD DIV MUL DUP4 MSTORE SWAP2 PUSH1 0x20 ADD SWAP2 PUSH2 0xAD7 JUMP JUMPDEST DUP3 ADD SWAP2 SWAP1 PUSH0 MSTORE PUSH1 0x20 PUSH0 KECCAK256 SWAP1 JUMPDEST DUP2 SLOAD DUP2 MSTORE SWAP1 PUSH1 0x1 ADD SWAP1 PUSH1 0x20 ADD DUP1 DUP4 GT PUSH2 0xABA JUMPI DUP3 SWAP1 SUB PUSH1 0x1F AND DUP3 ADD SWAP2 JUMPDEST POP POP POP POP POP SWAP1 POP SWAP1 JUMP JUMPDEST PUSH0 PUSH2 0xAEB DUP3 PUSH2 0x1E0E JUMP JUMPDEST PUSH2 0xB08 JUMPI PUSH1 0x40 MLOAD PUSH4 0x33D1C039 PUSH1 0xE2 SHL DUP2 MSTORE PUSH1 0x4 ADD PUSH1 0x40 MLOAD DUP1 SWAP2 SUB SWAP1 REVERT JUMPDEST POP PUSH0 SWAP1 DUP2 MSTORE PUSH1 0x6 PUSH1 0x20 MSTORE PUSH1 0x40 SWAP1 KECCAK256 SLOAD PUSH1 0x1 PUSH1 0x1 PUSH1 0xA0 SHL SUB AND SWAP1 JUMP JUMPDEST PUSH0 PUSH2 0xB2D DUP3 PUSH2 0x136C JUMP JUMPDEST SWAP1 POP DUP1 PUSH1 0x1 PUSH1 0x1 PUSH1 0xA0 SHL SUB AND DUP4 PUSH1 0x1 PUSH1 0x1 PUSH1 0xA0 SHL SUB AND SUB PUSH2 0xB61 JUMPI PUSH1 0x40 MLOAD PUSH4 0x250FDEE3 PUSH1 0xE2 SHL DUP2 MSTORE PUSH1 0x4 ADD PUSH1 0x40 MLOAD DUP1 SWAP2 SUB SWAP1 REVERT JUMPDEST CALLER PUSH1 0x1 PUSH1 0x1 PUSH1 0xA0 SHL SUB DUP3 AND EQ PUSH2 0xB98 JUMPI PUSH2 0xB7B DUP2 CALLER PUSH2 0x87A JUMP JUMPDEST PUSH2 0xB98 JUMPI PUSH1 0x40 MLOAD PUSH4 0x67D9DCA1 PUSH1 0xE1 SHL DUP2 MSTORE PUSH1 0x4 ADD PUSH1 0x40 MLOAD DUP1 SWAP2 SUB SWAP1 REVERT JUMPDEST PUSH2 0xBA3 DUP4 DUP4 DUP4 PUSH2 0x1E37 JUMP JUMPDEST POP POP POP JUMP JUMPDEST PUSH2 0xBB0 PUSH2 0x1BA5 JUMP JUMPDEST PUSH2 0xBCD JUMPI PUSH1 0x40 MLOAD PUSH4 0x16CCB9CB PUSH1 0xE1 SHL DUP2 MSTORE PUSH1 0x4 ADD PUSH1 0x40 MLOAD DUP1 SWAP2 SUB SWAP1 REVERT JUMPDEST PUSH2 0xBD6 DUP2 PUSH2 0x1E9F JUMP JUMPDEST POP JUMP JUMPDEST DUP5 DUP1 PUSH2 0xC27 JUMPI PUSH1 0x40 MLOAD PUSH3 0x461BCD PUSH1 0xE5 SHL DUP2 MSTORE PUSH1 0x20 PUSH1 0x4 DUP3 ADD MSTORE PUSH1 0x9 PUSH1 0x24 DUP3 ADD MSTORE PUSH32 0x4E6F20746F6B656E730000000000000000000000000000000000000000000000 PUSH1 0x44 DUP3 ADD MSTORE PUSH1 0x64 ADD PUSH2 0x916 JUMP JUMPDEST DUP1 DUP5 EQ DUP1 ISZERO PUSH2 0xC35 JUMPI POP DUP1 DUP3 EQ JUMPDEST PUSH2 0xC81 JUMPI PUSH1 0x40 MLOAD PUSH3 0x461BCD PUSH1 0xE5 SHL DUP2 MSTORE PUSH1 0x20 PUSH1 0x4 DUP3 ADD MSTORE PUSH1 0xE PUSH1 0x24 DUP3 ADD MSTORE PUSH32 0x4172726179206D69736D61746368000000000000000000000000000000000000 PUSH1 0x44 DUP3 ADD MSTORE PUSH1 0x64 ADD PUSH2 0x916 JUMP JUMPDEST PUSH2 0x2710 DUP2 PUSH2 0xC91 PUSH1 0x1 SLOAD PUSH0 SLOAD SUB SWAP1 JUMP JUMPDEST PUSH2 0xC9B SWAP2 SWAP1 PUSH2 0x3357 JUMP JUMPDEST GT ISZERO PUSH2 0xCE9 JUMPI PUSH1 0x40 MLOAD PUSH3 0x461BCD PUSH1 0xE5 SHL DUP2 MSTORE PUSH1 0x20 PUSH1 0x4 DUP3 ADD MSTORE PUSH1 0x8 PUSH1 0x24 DUP3 ADD MSTORE PUSH32 0x546F6F206D616E79000000000000000000000000000000000000000000000000 PUSH1 0x44 DUP3 ADD MSTORE PUSH1 0x64 ADD PUSH2 0x916 JUMP JUMPDEST DUP1 PUSH1 0x10 SLOAD PUSH2 0xCF7 SWAP2 SWAP1 PUSH2 0x336A JUMP JUMPDEST CALLVALUE EQ PUSH2 0xD45 JUMPI PUSH1 0x40 MLOAD PUSH3 0x461BCD PUSH1 0xE5 SHL DUP2 MSTORE PUSH1 0x20 PUSH1 0x4 DUP3 ADD MSTORE PUSH1 0xD PUSH1 0x24 DUP3 ADD MSTORE PUSH32 0x42616420746F74616C2066656500000000000000000000000000000000000000 PUSH1 0x44 DUP3 ADD MSTORE PUSH1 0x64 ADD PUSH2 0x916 JUMP JUMPDEST PUSH0 JUMPDEST DUP2 DUP2 LT ISZERO PUSH2 0xEB1 JUMPI PUSH0 SLOAD PUSH2 0xD5B DUP11 DUP3 PUSH2 0x1EFD JUMP JUMPDEST PUSH2 0xDBC DUP2 DUP11 DUP11 DUP6 DUP2 DUP2 LT PUSH2 0xD71 JUMPI PUSH2 0xD71 PUSH2 0x3381 JUMP JUMPDEST SWAP1 POP PUSH1 0x20 MUL DUP2 ADD SWAP1 PUSH2 0xD83 SWAP2 SWAP1 PUSH2 0x3395 JUMP JUMPDEST DUP1 DUP1 PUSH1 0x1F ADD PUSH1 0x20 DUP1 SWAP2 DIV MUL PUSH1 0x20 ADD PUSH1 0x40 MLOAD SWAP1 DUP2 ADD PUSH1 0x40 MSTORE DUP1 SWAP4 SWAP3 SWAP2 SWAP1 DUP2 DUP2 MSTORE PUSH1 0x20 ADD DUP4 DUP4 DUP1 DUP3 DUP5 CALLDATACOPY PUSH0 SWAP3 ADD SWAP2 SWAP1 SWAP2 MSTORE POP PUSH2 0x1BD1 SWAP3 POP POP POP JUMP JUMPDEST DUP7 DUP7 DUP4 DUP2 DUP2 LT PUSH2 0xDCE JUMPI PUSH2 0xDCE PUSH2 0x3381 JUMP JUMPDEST SWAP1 POP PUSH1 0x20 MUL ADD CALLDATALOAD PUSH1 0x11 PUSH0 DUP4 DUP2 MSTORE PUSH1 0x20 ADD SWAP1 DUP2 MSTORE PUSH1 0x20 ADD PUSH0 KECCAK256 DUP2 SWAP1 SSTORE POP DUP5 DUP5 DUP4 DUP2 DUP2 LT PUSH2 0xDFC JUMPI PUSH2 0xDFC PUSH2 0x3381 JUMP JUMPDEST SWAP1 POP PUSH1 0x20 MUL DUP2 ADD SWAP1 PUSH2 0xE0E SWAP2 SWAP1 PUSH2 0x3395 JUMP JUMPDEST PUSH0 DUP4 DUP2 MSTORE PUSH1 0x12 PUSH1 0x20 MSTORE PUSH1 0x40 SWAP1 KECCAK256 SWAP2 PUSH2 0xE27 SWAP2 SWAP1 DUP4 PUSH2 0x341C JUMP JUMPDEST POP DUP1 DUP11 PUSH1 0x1 PUSH1 0x1 PUSH1 0xA0 SHL SUB AND PUSH32 0x1F8BD07E6C27FF813D5C6D3C4BF0313A1D75043CF978214B504B794075E5266 DUP10 DUP10 DUP7 DUP2 DUP2 LT PUSH2 0xE66 JUMPI PUSH2 0xE66 PUSH2 0x3381 JUMP JUMPDEST SWAP1 POP PUSH1 0x20 MUL ADD CALLDATALOAD DUP9 DUP9 DUP8 DUP2 DUP2 LT PUSH2 0xE7F JUMPI PUSH2 0xE7F PUSH2 0x3381 JUMP JUMPDEST SWAP1 POP PUSH1 0x20 MUL DUP2 ADD SWAP1 PUSH2 0xE91 SWAP2 SWAP1 PUSH2 0x3395 JUMP JUMPDEST PUSH1 0x40 MLOAD PUSH2 0xEA0 SWAP4 SWAP3 SWAP2 SWAP1 PUSH2 0x34D6 JUMP JUMPDEST PUSH1 0x40 MLOAD DUP1 SWAP2 SUB SWAP1 LOG3 POP PUSH1 0x1 ADD PUSH2 0xD47 JUMP JUMPDEST POP POP POP POP POP POP POP POP POP JUMP JUMPDEST PUSH2 0xBA3 DUP4 DUP4 DUP4 PUSH2 0x1F16 JUMP JUMPDEST PUSH0 PUSH2 0xED1 PUSH1 0xC SLOAD SWAP1 JUMP JUMPDEST DUP3 LT PUSH2 0xEF3 JUMPI PUSH1 0x40 MLOAD PUSH4 0x7931277 PUSH1 0xE1 SHL DUP2 MSTORE PUSH1 0x4 DUP2 ADD DUP4 SWAP1 MSTORE PUSH1 0x24 ADD PUSH2 0x916 JUMP JUMPDEST PUSH1 0xC DUP3 DUP2 SLOAD DUP2 LT PUSH2 0xF06 JUMPI PUSH2 0xF06 PUSH2 0x3381 JUMP JUMPDEST SWAP1 PUSH0 MSTORE PUSH1 0x20 PUSH0 KECCAK256 ADD SLOAD SWAP1 POP SWAP2 SWAP1 POP JUMP JUMPDEST PUSH0 DUP1 PUSH0 DUP1 PUSH2 0xF23 DUP7 PUSH2 0x1210 JUMP JUMPDEST SWAP1 SWAP5 POP DUP5 SWAP3 POP PUSH2 0xFFFF AND SWAP1 POP PUSH2 0x2710 PUSH2 0xF3C DUP3 DUP8 PUSH2 0x336A JUMP JUMPDEST PUSH2 0xF46 SWAP2 SWAP1 PUSH2 0x351F JUMP JUMPDEST SWAP3 POP POP POP SWAP3 POP SWAP3 SWAP1 POP JUMP JUMPDEST PUSH1 0x9 SLOAD PUSH1 0x1 PUSH1 0x1 PUSH1 0xA0 SHL SUB AND CALLER EQ PUSH2 0xF7C JUMPI PUSH1 0x40 MLOAD PUSH4 0x16CCB9CB PUSH1 0xE1 SHL DUP2 MSTORE PUSH1 0x4 ADD PUSH1 0x40 MLOAD DUP1 SWAP2 SUB SWAP1 REVERT JUMPDEST SELFBALANCE DUP1 PUSH2 0xFCA JUMPI PUSH1 0x40 MLOAD PUSH3 0x461BCD PUSH1 0xE5 SHL DUP2 MSTORE PUSH1 0x20 PUSH1 0x4 DUP3 ADD MSTORE PUSH1 0x13 PUSH1 0x24 DUP3 ADD MSTORE PUSH32 0x4E6F7468696E6720746F20776974686472617700000000000000000000000000 PUSH1 0x44 DUP3 ADD MSTORE PUSH1 0x64 ADD PUSH2 0x916 JUMP JUMPDEST PUSH1 0x9 SLOAD PUSH1 0x40 MLOAD PUSH1 0x1 PUSH1 0x1 PUSH1 0xA0 SHL SUB SWAP1 SWAP2 AND SWAP1 DUP3 ISZERO PUSH2 0x8FC MUL SWAP1 DUP4 SWAP1 PUSH0 DUP2 DUP2 DUP2 DUP6 DUP9 DUP9 CALL SWAP4 POP POP POP POP ISZERO DUP1 ISZERO PUSH2 0x94A JUMPI RETURNDATASIZE PUSH0 DUP1 RETURNDATACOPY RETURNDATASIZE PUSH0 REVERT JUMPDEST PUSH1 0x10 SLOAD CALLVALUE EQ PUSH2 0x1052 JUMPI PUSH1 0x40 MLOAD PUSH3 0x461BCD PUSH1 0xE5 SHL DUP2 MSTORE PUSH1 0x20 PUSH1 0x4 DUP3 ADD MSTORE PUSH1 0xC PUSH1 0x24 DUP3 ADD MSTORE PUSH32 0x426164206D696E74206665650000000000000000000000000000000000000000 PUSH1 0x44 DUP3 ADD MSTORE PUSH1 0x64 ADD PUSH2 0x916 JUMP JUMPDEST PUSH2 0x2710 PUSH2 0x1061 PUSH1 0x1 SLOAD PUSH0 SLOAD SUB SWAP1 JUMP JUMPDEST LT PUSH2 0x10AE JUMPI PUSH1 0x40 MLOAD PUSH3 0x461BCD PUSH1 0xE5 SHL DUP2 MSTORE PUSH1 0x20 PUSH1 0x4 DUP3 ADD MSTORE PUSH1 0x8 PUSH1 0x24 DUP3 ADD MSTORE PUSH32 0x536F6C64206F7574000000000000000000000000000000000000000000000000 PUSH1 0x44 DUP3 ADD MSTORE PUSH1 0x64 ADD PUSH2 0x916 JUMP JUMPDEST PUSH0 SLOAD PUSH2 0x10BA DUP8 DUP3 PUSH2 0x1EFD JUMP JUMPDEST PUSH2 0x10F9 DUP2 DUP8 DUP8 DUP1 DUP1 PUSH1 0x1F ADD PUSH1 0x20 DUP1 SWAP2 DIV MUL PUSH1 0x20 ADD PUSH1 0x40 MLOAD SWAP1 DUP2 ADD PUSH1 0x40 MSTORE DUP1 SWAP4 SWAP3 SWAP2 SWAP1 DUP2 DUP2 MSTORE PUSH1 0x20 ADD DUP4 DUP4 DUP1 DUP3 DUP5 CALLDATACOPY PUSH0 SWAP3 ADD SWAP2 SWAP1 SWAP2 MSTORE POP PUSH2 0x1BD1 SWAP3 POP POP POP JUMP JUMPDEST PUSH0 DUP2 DUP2 MSTORE PUSH1 0x11 PUSH1 0x20 SWAP1 DUP2 MSTORE PUSH1 0x40 DUP1 DUP4 KECCAK256 DUP8 SWAP1 SSTORE PUSH1 0x12 SWAP1 SWAP2 MSTORE SWAP1 KECCAK256 PUSH2 0x111E DUP4 DUP6 DUP4 PUSH2 0x341C JUMP JUMPDEST POP DUP1 DUP8 PUSH1 0x1 PUSH1 0x1 PUSH1 0xA0 SHL SUB AND PUSH32 0x1F8BD07E6C27FF813D5C6D3C4BF0313A1D75043CF978214B504B794075E5266 DUP7 DUP7 DUP7 PUSH1 0x40 MLOAD PUSH2 0x115D SWAP4 SWAP3 SWAP2 SWAP1 PUSH2 0x34D6 JUMP JUMPDEST PUSH1 0x40 MLOAD DUP1 SWAP2 SUB SWAP1 LOG3 POP POP POP POP POP POP POP JUMP JUMPDEST PUSH2 0xBA3 DUP4 DUP4 DUP4 PUSH1 0x40 MLOAD DUP1 PUSH1 0x20 ADD PUSH1 0x40 MSTORE DUP1 PUSH0 DUP2 MSTORE POP PUSH2 0x198F JUMP JUMPDEST PUSH2 0xBD6 DUP2 PUSH1 0x1 PUSH2 0x20FF JUMP JUMPDEST PUSH0 DUP1 PUSH2 0x119E DUP4 PUSH2 0x136C JUMP JUMPDEST SWAP1 POP DUP1 PUSH1 0x1 PUSH1 0x1 PUSH1 0xA0 SHL SUB AND DUP5 PUSH1 0x1 PUSH1 0x1 PUSH1 0xA0 SHL SUB AND EQ DUP1 PUSH2 0x11E4 JUMPI POP PUSH1 0x1 PUSH1 0x1 PUSH1 0xA0 SHL SUB DUP1 DUP3 AND PUSH0 SWAP1 DUP2 MSTORE PUSH1 0x7 PUSH1 0x20 SWAP1 DUP2 MSTORE PUSH1 0x40 DUP1 DUP4 KECCAK256 SWAP4 DUP9 AND DUP4 MSTORE SWAP3 SWAP1 MSTORE KECCAK256 SLOAD PUSH1 0xFF AND JUMPDEST DUP1 PUSH2 0x1208 JUMPI POP DUP4 PUSH1 0x1 PUSH1 0x1 PUSH1 0xA0 SHL SUB AND PUSH2 0x11FD DUP5 PUSH2 0xAE1 JUMP JUMPDEST PUSH1 0x1 PUSH1 0x1 PUSH1 0xA0 SHL SUB AND EQ JUMPDEST SWAP5 SWAP4 POP POP POP POP JUMP JUMPDEST PUSH0 DUP2 DUP2 MSTORE PUSH1 0xB PUSH1 0x20 SWAP1 DUP2 MSTORE PUSH1 0x40 DUP1 DUP4 KECCAK256 DUP2 MLOAD DUP1 DUP4 ADD SWAP1 SWAP3 MSTORE DUP1 SLOAD PUSH1 0x1 PUSH1 0x1 PUSH1 0xA0 SHL SUB AND DUP1 DUP4 MSTORE PUSH1 0x1 SWAP1 SWAP2 ADD SLOAD SWAP3 DUP3 ADD SWAP3 SWAP1 SWAP3 MSTORE DUP3 SWAP2 ISZERO PUSH2 0x1256 JUMPI DUP1 MLOAD PUSH1 0x20 DUP3 ADD MLOAD PUSH2 0x1270 JUMP JUMPDEST PUSH1 0xA SLOAD PUSH1 0x1 PUSH1 0x1 PUSH1 0xA0 SHL SUB DUP2 AND SWAP1 PUSH1 0x1 PUSH1 0xA0 SHL SWAP1 DIV PUSH2 0xFFFF AND JUMPDEST SWAP3 POP SWAP3 POP POP SWAP2 POP SWAP2 JUMP JUMPDEST DUP1 MLOAD PUSH1 0x60 SWAP1 PUSH0 DUP2 PUSH8 0xFFFFFFFFFFFFFFFF DUP2 GT ISZERO PUSH2 0x1299 JUMPI PUSH2 0x1299 PUSH2 0x2B69 JUMP JUMPDEST PUSH1 0x40 MLOAD SWAP1 DUP1 DUP3 MSTORE DUP1 PUSH1 0x20 MUL PUSH1 0x20 ADD DUP3 ADD PUSH1 0x40 MSTORE DUP1 ISZERO PUSH2 0x12E2 JUMPI DUP2 PUSH1 0x20 ADD JUMPDEST PUSH1 0x40 DUP1 MLOAD PUSH1 0x60 DUP2 ADD DUP3 MSTORE PUSH0 DUP1 DUP3 MSTORE PUSH1 0x20 DUP1 DUP4 ADD DUP3 SWAP1 MSTORE SWAP3 DUP3 ADD MSTORE DUP3 MSTORE PUSH0 NOT SWAP1 SWAP3 ADD SWAP2 ADD DUP2 PUSH2 0x12B7 JUMPI SWAP1 POP JUMPDEST POP SWAP1 POP PUSH0 JUMPDEST DUP3 DUP2 EQ PUSH2 0x1335 JUMPI PUSH2 0x1310 DUP6 DUP3 DUP2 MLOAD DUP2 LT PUSH2 0x1303 JUMPI PUSH2 0x1303 PUSH2 0x3381 JUMP JUMPDEST PUSH1 0x20 MUL PUSH1 0x20 ADD ADD MLOAD PUSH2 0x19D3 JUMP JUMPDEST DUP3 DUP3 DUP2 MLOAD DUP2 LT PUSH2 0x1322 JUMPI PUSH2 0x1322 PUSH2 0x3381 JUMP JUMPDEST PUSH1 0x20 SWAP1 DUP2 MUL SWAP2 SWAP1 SWAP2 ADD ADD MSTORE PUSH1 0x1 ADD PUSH2 0x12E7 JUMP JUMPDEST POP SWAP4 SWAP3 POP POP POP JUMP JUMPDEST PUSH2 0x1345 PUSH2 0x1BA5 JUMP JUMPDEST PUSH2 0x1362 JUMPI PUSH1 0x40 MLOAD PUSH4 0x6FAE3581 PUSH1 0xE1 SHL DUP2 MSTORE PUSH1 0x4 ADD PUSH1 0x40 MLOAD DUP1 SWAP2 SUB SWAP1 REVERT JUMPDEST PUSH2 0x94A DUP3 DUP3 PUSH2 0x22EE JUMP JUMPDEST PUSH0 PUSH2 0x1376 DUP3 PUSH2 0x2396 JUMP JUMPDEST MLOAD SWAP3 SWAP2 POP POP JUMP JUMPDEST PUSH0 PUSH1 0x1 PUSH1 0x1 PUSH1 0xA0 SHL SUB DUP3 AND PUSH2 0x13A5 JUMPI PUSH1 0x40 MLOAD PUSH4 0x23D3AD81 PUSH1 0xE2 SHL DUP2 MSTORE PUSH1 0x4 ADD PUSH1 0x40 MLOAD DUP1 SWAP2 SUB SWAP1 REVERT JUMPDEST POP PUSH1 0x1 PUSH1 0x1 PUSH1 0xA0 SHL SUB AND PUSH0 SWAP1 DUP2 MSTORE PUSH1 0x5 PUSH1 0x20 MSTORE PUSH1 0x40 SWAP1 KECCAK256 SLOAD PUSH8 0xFFFFFFFFFFFFFFFF AND SWAP1 JUMP JUMPDEST PUSH2 0x13D2 PUSH2 0x1BA5 JUMP JUMPDEST PUSH2 0x141E JUMPI PUSH1 0x40 MLOAD PUSH3 0x461BCD PUSH1 0xE5 SHL DUP2 MSTORE PUSH1 0x20 PUSH1 0x4 DUP3 ADD MSTORE PUSH1 0x17 PUSH1 0x24 DUP3 ADD MSTORE PUSH32 0x4E6F7420617574686F72697A656420746F206D696E742E000000000000000000 PUSH1 0x44 DUP3 ADD MSTORE PUSH1 0x64 ADD PUSH2 0x916 JUMP JUMPDEST PUSH2 0x1430 PUSH2 0x1429 PUSH0 SLOAD SWAP1 JUMP JUMPDEST DUP5 DUP5 PUSH2 0x24AD JUMP JUMPDEST POP POP PUSH2 0x143D DUP5 DUP5 DUP4 PUSH2 0x1C4F JUMP JUMPDEST POP POP POP POP JUMP JUMPDEST PUSH1 0x60 PUSH0 DUP1 PUSH0 PUSH2 0x1451 DUP6 PUSH2 0x137D JUMP JUMPDEST SWAP1 POP PUSH0 DUP2 PUSH8 0xFFFFFFFFFFFFFFFF DUP2 GT ISZERO PUSH2 0x146D JUMPI PUSH2 0x146D PUSH2 0x2B69 JUMP JUMPDEST PUSH1 0x40 MLOAD SWAP1 DUP1 DUP3 MSTORE DUP1 PUSH1 0x20 MUL PUSH1 0x20 ADD DUP3 ADD PUSH1 0x40 MSTORE DUP1 ISZERO PUSH2 0x1496 JUMPI DUP2 PUSH1 0x20 ADD PUSH1 0x20 DUP3 MUL DUP1 CALLDATASIZE DUP4 CALLDATACOPY ADD SWAP1 POP JUMPDEST POP PUSH1 0x40 DUP1 MLOAD PUSH1 0x60 DUP2 ADD DUP3 MSTORE PUSH0 DUP1 DUP3 MSTORE PUSH1 0x20 DUP3 ADD DUP2 SWAP1 MSTORE SWAP2 DUP2 ADD DUP3 SWAP1 MSTORE SWAP2 SWAP3 POP JUMPDEST DUP4 DUP7 EQ PUSH2 0x1571 JUMPI PUSH0 DUP2 DUP2 MSTORE PUSH1 0x4 PUSH1 0x20 SWAP1 DUP2 MSTORE PUSH1 0x40 SWAP2 DUP3 SWAP1 KECCAK256 DUP3 MLOAD PUSH1 0x60 DUP2 ADD DUP5 MSTORE SWAP1 SLOAD PUSH1 0x1 PUSH1 0x1 PUSH1 0xA0 SHL SUB DUP2 AND DUP3 MSTORE PUSH1 0x1 PUSH1 0xA0 SHL DUP2 DIV PUSH8 0xFFFFFFFFFFFFFFFF AND SWAP3 DUP3 ADD SWAP3 SWAP1 SWAP3 MSTORE PUSH1 0x1 PUSH1 0xE0 SHL SWAP1 SWAP2 DIV PUSH1 0xFF AND ISZERO ISZERO SWAP2 DUP2 ADD DUP3 SWAP1 MSTORE SWAP3 POP PUSH2 0x1569 JUMPI DUP2 MLOAD PUSH1 0x1 PUSH1 0x1 PUSH1 0xA0 SHL SUB AND ISZERO PUSH2 0x152A JUMPI DUP2 MLOAD SWAP5 POP JUMPDEST DUP8 PUSH1 0x1 PUSH1 0x1 PUSH1 0xA0 SHL SUB AND DUP6 PUSH1 0x1 PUSH1 0x1 PUSH1 0xA0 SHL SUB AND SUB PUSH2 0x1569 JUMPI DUP1 DUP4 DUP8 DUP1 PUSH1 0x1 ADD SWAP9 POP DUP2 MLOAD DUP2 LT PUSH2 0x155C JUMPI PUSH2 0x155C PUSH2 0x3381 JUMP JUMPDEST PUSH1 0x20 MUL PUSH1 0x20 ADD ADD DUP2 DUP2 MSTORE POP POP JUMPDEST PUSH1 0x1 ADD PUSH2 0x14B6 JUMP JUMPDEST POP SWAP1 SWAP7 SWAP6 POP POP POP POP POP POP JUMP JUMPDEST PUSH2 0x1585 PUSH2 0x1BA5 JUMP JUMPDEST PUSH2 0x15A2 JUMPI PUSH1 0x40 MLOAD PUSH4 0x9F7F0925 PUSH1 0xE0 SHL DUP2 MSTORE PUSH1 0x4 ADD PUSH1 0x40 MLOAD DUP1 SWAP2 SUB SWAP1 REVERT JUMPDEST PUSH2 0xBD6 DUP2 PUSH2 0x250F JUMP JUMPDEST PUSH1 0x60 PUSH1 0x3 DUP1 SLOAD PUSH2 0xA60 SWAP1 PUSH2 0x330B JUMP JUMPDEST PUSH1 0x60 DUP2 DUP4 LT PUSH2 0x15DC JUMPI PUSH1 0x40 MLOAD PUSH4 0x1960CCAD PUSH1 0xE1 SHL DUP2 MSTORE PUSH1 0x4 ADD PUSH1 0x40 MLOAD DUP1 SWAP2 SUB SWAP1 REVERT JUMPDEST PUSH0 DUP1 SLOAD DUP1 DUP5 GT ISZERO PUSH2 0x15EB JUMPI DUP1 SWAP4 POP JUMPDEST PUSH0 PUSH2 0x15F5 DUP8 PUSH2 0x137D JUMP JUMPDEST SWAP1 POP DUP5 DUP7 LT ISZERO PUSH2 0x1614 JUMPI DUP6 DUP6 SUB DUP2 DUP2 LT ISZERO PUSH2 0x160E JUMPI DUP1 SWAP2 POP JUMPDEST POP PUSH2 0x1617 JUMP JUMPDEST POP PUSH0 JUMPDEST PUSH0 DUP2 PUSH8 0xFFFFFFFFFFFFFFFF DUP2 GT ISZERO PUSH2 0x1631 JUMPI PUSH2 0x1631 PUSH2 0x2B69 JUMP JUMPDEST PUSH1 0x40 MLOAD SWAP1 DUP1 DUP3 MSTORE DUP1 PUSH1 0x20 MUL PUSH1 0x20 ADD DUP3 ADD PUSH1 0x40 MSTORE DUP1 ISZERO PUSH2 0x165A JUMPI DUP2 PUSH1 0x20 ADD PUSH1 0x20 DUP3 MUL DUP1 CALLDATASIZE DUP4 CALLDATACOPY ADD SWAP1 POP JUMPDEST POP SWAP1 POP DUP2 PUSH0 SUB PUSH2 0x166F JUMPI SWAP4 POP PUSH2 0x1760 SWAP3 POP POP POP JUMP JUMPDEST PUSH0 PUSH2 0x1679 DUP9 PUSH2 0x19D3 JUMP JUMPDEST SWAP1 POP PUSH0 DUP2 PUSH1 0x40 ADD MLOAD PUSH2 0x1689 JUMPI POP DUP1 MLOAD JUMPDEST DUP9 JUMPDEST DUP9 DUP2 EQ ISZERO DUP1 ISZERO PUSH2 0x169B JUMPI POP DUP5 DUP8 EQ ISZERO JUMPDEST ISZERO PUSH2 0x1754 JUMPI PUSH0 DUP2 DUP2 MSTORE PUSH1 0x4 PUSH1 0x20 SWAP1 DUP2 MSTORE PUSH1 0x40 SWAP2 DUP3 SWAP1 KECCAK256 DUP3 MLOAD PUSH1 0x60 DUP2 ADD DUP5 MSTORE SWAP1 SLOAD PUSH1 0x1 PUSH1 0x1 PUSH1 0xA0 SHL SUB DUP2 AND DUP3 MSTORE PUSH1 0x1 PUSH1 0xA0 SHL DUP2 DIV PUSH8 0xFFFFFFFFFFFFFFFF AND SWAP3 DUP3 ADD SWAP3 SWAP1 SWAP3 MSTORE PUSH1 0x1 PUSH1 0xE0 SHL SWAP1 SWAP2 DIV PUSH1 0xFF AND ISZERO ISZERO SWAP2 DUP2 ADD DUP3 SWAP1 MSTORE SWAP4 POP PUSH2 0x174C JUMPI DUP3 MLOAD PUSH1 0x1 PUSH1 0x1 PUSH1 0xA0 SHL SUB AND ISZERO PUSH2 0x170D JUMPI DUP3 MLOAD SWAP2 POP JUMPDEST DUP11 PUSH1 0x1 PUSH1 0x1 PUSH1 0xA0 SHL SUB AND DUP3 PUSH1 0x1 PUSH1 0x1 PUSH1 0xA0 SHL SUB AND SUB PUSH2 0x174C JUMPI DUP1 DUP5 DUP9 DUP1 PUSH1 0x1 ADD SWAP10 POP DUP2 MLOAD DUP2 LT PUSH2 0x173F JUMPI PUSH2 0x173F PUSH2 0x3381 JUMP JUMPDEST PUSH1 0x20 MUL PUSH1 0x20 ADD ADD DUP2 DUP2 MSTORE POP POP JUMPDEST PUSH1 0x1 ADD PUSH2 0x168B JUMP JUMPDEST POP POP POP SWAP3 DUP4 MSTORE POP SWAP1 SWAP2 POP POP JUMPDEST SWAP4 SWAP3 POP POP POP JUMP JUMPDEST PUSH2 0x176F PUSH2 0x1BA5 JUMP JUMPDEST PUSH2 0x178C JUMPI PUSH1 0x40 MLOAD PUSH4 0x6FAE3581 PUSH1 0xE1 SHL DUP2 MSTORE PUSH1 0x4 ADD PUSH1 0x40 MLOAD DUP1 SWAP2 SUB SWAP1 REVERT JUMPDEST PUSH2 0xBA3 DUP4 DUP4 DUP4 PUSH2 0x25E8 JUMP JUMPDEST CALLER PUSH1 0x1 PUSH1 0x1 PUSH1 0xA0 SHL SUB DUP4 AND SUB PUSH2 0x17C0 JUMPI PUSH1 0x40 MLOAD PUSH4 0xB06307DB PUSH1 0xE0 SHL DUP2 MSTORE PUSH1 0x4 ADD PUSH1 0x40 MLOAD DUP1 SWAP2 SUB SWAP1 REVERT JUMPDEST CALLER PUSH0 DUP2 DUP2 MSTORE PUSH1 0x7 PUSH1 0x20 SWAP1 DUP2 MSTORE PUSH1 0x40 DUP1 DUP4 KECCAK256 PUSH1 0x1 PUSH1 0x1 PUSH1 0xA0 SHL SUB DUP8 AND DUP1 DUP6 MSTORE SWAP1 DUP4 MSTORE SWAP3 DUP2 SWAP1 KECCAK256 DUP1 SLOAD PUSH1 0xFF NOT AND DUP7 ISZERO ISZERO SWAP1 DUP2 OR SWAP1 SWAP2 SSTORE SWAP1 MLOAD SWAP1 DUP2 MSTORE SWAP2 SWAP3 SWAP2 PUSH32 0x17307EAB39AB6107E8899845AD3D59BD9653F200F220920489CA2B5937696C31 SWAP2 ADD PUSH1 0x40 MLOAD DUP1 SWAP2 SUB SWAP1 LOG3 POP POP JUMP JUMPDEST PUSH1 0x60 DUP2 PUSH8 0xFFFFFFFFFFFFFFFF DUP2 GT ISZERO PUSH2 0x1846 JUMPI PUSH2 0x1846 PUSH2 0x2B69 JUMP JUMPDEST PUSH1 0x40 MLOAD SWAP1 DUP1 DUP3 MSTORE DUP1 PUSH1 0x20 MUL PUSH1 0x20 ADD DUP3 ADD PUSH1 0x40 MSTORE DUP1 ISZERO PUSH2 0x1879 JUMPI DUP2 PUSH1 0x20 ADD JUMPDEST PUSH1 0x60 DUP2 MSTORE PUSH1 0x20 ADD SWAP1 PUSH1 0x1 SWAP1 SUB SWAP1 DUP2 PUSH2 0x1864 JUMPI SWAP1 POP JUMPDEST POP SWAP1 POP CALLER PUSH0 DUP1 JUMPDEST DUP5 DUP2 LT ISZERO PUSH2 0x1986 JUMPI DUP2 ISZERO PUSH2 0x18FF JUMPI PUSH2 0x18DD ADDRESS DUP8 DUP8 DUP5 DUP2 DUP2 LT PUSH2 0x18A4 JUMPI PUSH2 0x18A4 PUSH2 0x3381 JUMP JUMPDEST SWAP1 POP PUSH1 0x20 MUL DUP2 ADD SWAP1 PUSH2 0x18B6 SWAP2 SWAP1 PUSH2 0x3395 JUMP JUMPDEST DUP7 PUSH1 0x40 MLOAD PUSH1 0x20 ADD PUSH2 0x18C9 SWAP4 SWAP3 SWAP2 SWAP1 PUSH2 0x3532 JUMP JUMPDEST PUSH1 0x40 MLOAD PUSH1 0x20 DUP2 DUP4 SUB SUB DUP2 MSTORE SWAP1 PUSH1 0x40 MSTORE PUSH2 0x26A7 JUMP JUMPDEST DUP5 DUP3 DUP2 MLOAD DUP2 LT PUSH2 0x18EF JUMPI PUSH2 0x18EF PUSH2 0x3381 JUMP JUMPDEST PUSH1 0x20 MUL PUSH1 0x20 ADD ADD DUP2 SWAP1 MSTORE POP PUSH2 0x197E JUMP JUMPDEST PUSH2 0x1960 ADDRESS DUP8 DUP8 DUP5 DUP2 DUP2 LT PUSH2 0x1915 JUMPI PUSH2 0x1915 PUSH2 0x3381 JUMP JUMPDEST SWAP1 POP PUSH1 0x20 MUL DUP2 ADD SWAP1 PUSH2 0x1927 SWAP2 SWAP1 PUSH2 0x3395 JUMP JUMPDEST DUP1 DUP1 PUSH1 0x1F ADD PUSH1 0x20 DUP1 SWAP2 DIV MUL PUSH1 0x20 ADD PUSH1 0x40 MLOAD SWAP1 DUP2 ADD PUSH1 0x40 MSTORE DUP1 SWAP4 SWAP3 SWAP2 SWAP1 DUP2 DUP2 MSTORE PUSH1 0x20 ADD DUP4 DUP4 DUP1 DUP3 DUP5 CALLDATACOPY PUSH0 SWAP3 ADD SWAP2 SWAP1 SWAP2 MSTORE POP PUSH2 0x26A7 SWAP3 POP POP POP JUMP JUMPDEST DUP5 DUP3 DUP2 MLOAD DUP2 LT PUSH2 0x1972 JUMPI PUSH2 0x1972 PUSH2 0x3381 JUMP JUMPDEST PUSH1 0x20 MUL PUSH1 0x20 ADD ADD DUP2 SWAP1 MSTORE POP JUMPDEST PUSH1 0x1 ADD PUSH2 0x1880 JUMP JUMPDEST POP POP POP SWAP3 SWAP2 POP POP JUMP JUMPDEST PUSH2 0x199A DUP5 DUP5 DUP5 PUSH2 0x1F16 JUMP JUMPDEST PUSH1 0x1 PUSH1 0x1 PUSH1 0xA0 SHL SUB DUP4 AND EXTCODESIZE ISZERO PUSH2 0x143D JUMPI PUSH2 0x19B6 DUP5 DUP5 DUP5 DUP5 PUSH2 0x26CC JUMP JUMPDEST PUSH2 0x143D JUMPI PUSH1 0x40 MLOAD PUSH4 0x68D2BF6B PUSH1 0xE1 SHL DUP2 MSTORE PUSH1 0x4 ADD PUSH1 0x40 MLOAD DUP1 SWAP2 SUB SWAP1 REVERT JUMPDEST PUSH1 0x40 DUP1 MLOAD PUSH1 0x60 DUP1 DUP3 ADD DUP4 MSTORE PUSH0 DUP1 DUP4 MSTORE PUSH1 0x20 DUP1 DUP5 ADD DUP3 SWAP1 MSTORE DUP4 DUP6 ADD DUP3 SWAP1 MSTORE DUP5 MLOAD SWAP3 DUP4 ADD DUP6 MSTORE DUP2 DUP4 MSTORE DUP3 ADD DUP2 SWAP1 MSTORE SWAP3 DUP2 ADD DUP4 SWAP1 MSTORE SWAP1 SWAP2 POP PUSH0 SLOAD DUP4 LT PUSH2 0x1A16 JUMPI SWAP3 SWAP2 POP POP JUMP JUMPDEST POP PUSH0 DUP3 DUP2 MSTORE PUSH1 0x4 PUSH1 0x20 SWAP1 DUP2 MSTORE PUSH1 0x40 SWAP2 DUP3 SWAP1 KECCAK256 DUP3 MLOAD PUSH1 0x60 DUP2 ADD DUP5 MSTORE SWAP1 SLOAD PUSH1 0x1 PUSH1 0x1 PUSH1 0xA0 SHL SUB DUP2 AND DUP3 MSTORE PUSH1 0x1 PUSH1 0xA0 SHL DUP2 DIV PUSH8 0xFFFFFFFFFFFFFFFF AND SWAP3 DUP3 ADD SWAP3 SWAP1 SWAP3 MSTORE PUSH1 0x1 PUSH1 0xE0 SHL SWAP1 SWAP2 DIV PUSH1 0xFF AND ISZERO DUP1 ISZERO SWAP3 DUP3 ADD SWAP3 SWAP1 SWAP3 MSTORE SWAP1 PUSH2 0x1A76 JUMPI SWAP3 SWAP2 POP POP JUMP JUMPDEST PUSH2 0x1760 DUP4 PUSH2 0x2396 JUMP JUMPDEST PUSH0 DUP2 DUP2 MSTORE PUSH1 0xF PUSH1 0x20 MSTORE PUSH1 0x40 DUP2 KECCAK256 DUP1 SLOAD PUSH1 0x60 SWAP3 SWAP2 SWAP1 PUSH2 0x1A9C SWAP1 PUSH2 0x330B JUMP JUMPDEST DUP1 PUSH1 0x1F ADD PUSH1 0x20 DUP1 SWAP2 DIV MUL PUSH1 0x20 ADD PUSH1 0x40 MLOAD SWAP1 DUP2 ADD PUSH1 0x40 MSTORE DUP1 SWAP3 SWAP2 SWAP1 DUP2 DUP2 MSTORE PUSH1 0x20 ADD DUP3 DUP1 SLOAD PUSH2 0x1AC8 SWAP1 PUSH2 0x330B JUMP JUMPDEST DUP1 ISZERO PUSH2 0x1B13 JUMPI DUP1 PUSH1 0x1F LT PUSH2 0x1AEA JUMPI PUSH2 0x100 DUP1 DUP4 SLOAD DIV MUL DUP4 MSTORE SWAP2 PUSH1 0x20 ADD SWAP2 PUSH2 0x1B13 JUMP JUMPDEST DUP3 ADD SWAP2 SWAP1 PUSH0 MSTORE PUSH1 0x20 PUSH0 KECCAK256 SWAP1 JUMPDEST DUP2 SLOAD DUP2 MSTORE SWAP1 PUSH1 0x1 ADD SWAP1 PUSH1 0x20 ADD DUP1 DUP4 GT PUSH2 0x1AF6 JUMPI DUP3 SWAP1 SUB PUSH1 0x1F AND DUP3 ADD SWAP2 JUMPDEST POP POP POP POP POP SWAP1 POP PUSH0 DUP2 MLOAD GT ISZERO PUSH2 0x1B29 JUMPI SWAP3 SWAP2 POP POP JUMP JUMPDEST PUSH0 PUSH2 0x1B33 DUP5 PUSH2 0x27B3 JUMP JUMPDEST SWAP1 POP DUP1 PUSH2 0x1B3F DUP6 PUSH2 0x2928 JUMP JUMPDEST PUSH1 0x40 MLOAD PUSH1 0x20 ADD PUSH2 0x1B50 SWAP3 SWAP2 SWAP1 PUSH2 0x356F JUMP JUMPDEST PUSH1 0x40 MLOAD PUSH1 0x20 DUP2 DUP4 SUB SUB DUP2 MSTORE SWAP1 PUSH1 0x40 MSTORE SWAP3 POP POP POP SWAP2 SWAP1 POP JUMP JUMPDEST PUSH1 0x8 DUP1 SLOAD PUSH2 0x966 SWAP1 PUSH2 0x330B JUMP JUMPDEST PUSH1 0x9 SLOAD PUSH1 0x1 PUSH1 0x1 PUSH1 0xA0 SHL SUB AND CALLER EQ PUSH2 0x1BA0 JUMPI PUSH1 0x40 MLOAD PUSH4 0x16CCB9CB PUSH1 0xE1 SHL DUP2 MSTORE PUSH1 0x4 ADD PUSH1 0x40 MLOAD DUP1 SWAP2 SUB SWAP1 REVERT JUMPDEST PUSH1 0x10 SSTORE JUMP JUMPDEST PUSH0 PUSH2 0x1BB8 PUSH1 0x9 SLOAD PUSH1 0x1 PUSH1 0x1 PUSH1 0xA0 SHL SUB AND SWAP1 JUMP JUMPDEST PUSH1 0x1 PUSH1 0x1 PUSH1 0xA0 SHL SUB AND CALLER PUSH1 0x1 PUSH1 0x1 PUSH1 0xA0 SHL SUB AND EQ SWAP1 POP SWAP1 JUMP JUMPDEST PUSH0 DUP3 DUP2 MSTORE PUSH1 0xF PUSH1 0x20 MSTORE PUSH1 0x40 SWAP1 KECCAK256 DUP1 SLOAD PUSH2 0x1BE9 SWAP1 PUSH2 0x330B JUMP JUMPDEST ISZERO SWAP1 POP PUSH2 0x1C38 JUMPI PUSH1 0x40 MLOAD PUSH3 0x461BCD PUSH1 0xE5 SHL DUP2 MSTORE PUSH1 0x20 PUSH1 0x4 DUP3 ADD MSTORE PUSH1 0xF PUSH1 0x24 DUP3 ADD MSTORE PUSH32 0x55524920616C7265616479207365740000000000000000000000000000000000 PUSH1 0x44 DUP3 ADD MSTORE PUSH1 0x64 ADD PUSH2 0x916 JUMP JUMPDEST PUSH0 DUP3 DUP2 MSTORE PUSH1 0xF PUSH1 0x20 MSTORE PUSH1 0x40 SWAP1 KECCAK256 PUSH2 0xBA3 DUP3 DUP3 PUSH2 0x3583 JUMP JUMPDEST PUSH0 SLOAD PUSH1 0x1 PUSH1 0x1 PUSH1 0xA0 SHL SUB DUP5 AND PUSH2 0x1C77 JUMPI PUSH1 0x40 MLOAD PUSH3 0x2E0763 PUSH1 0xE8 SHL DUP2 MSTORE PUSH1 0x4 ADD PUSH1 0x40 MLOAD DUP1 SWAP2 SUB SWAP1 REVERT JUMPDEST DUP3 PUSH0 SUB PUSH2 0x1C97 JUMPI PUSH1 0x40 MLOAD PUSH4 0xB562E8DD PUSH1 0xE0 SHL DUP2 MSTORE PUSH1 0x4 ADD PUSH1 0x40 MLOAD DUP1 SWAP2 SUB SWAP1 REVERT JUMPDEST PUSH1 0x1 PUSH1 0x1 PUSH1 0xA0 SHL SUB DUP5 AND PUSH0 DUP2 DUP2 MSTORE PUSH1 0x5 PUSH1 0x20 SWAP1 DUP2 MSTORE PUSH1 0x40 DUP1 DUP4 KECCAK256 DUP1 SLOAD PUSH16 0xFFFFFFFFFFFFFFFFFFFFFFFFFFFFFFFF NOT DUP2 AND PUSH8 0xFFFFFFFFFFFFFFFF DUP1 DUP4 AND DUP12 ADD DUP2 AND SWAP2 DUP3 OR PUSH9 0x10000000000000000 PUSH8 0xFFFFFFFFFFFFFFFF NOT SWAP1 SWAP5 AND SWAP1 SWAP3 OR DUP4 SWAP1 DIV DUP2 AND DUP12 ADD DUP2 AND SWAP1 SWAP3 MUL OR SWAP1 SWAP2 SSTORE DUP6 DUP5 MSTORE PUSH1 0x4 SWAP1 SWAP3 MSTORE SWAP1 SWAP2 KECCAK256 DUP1 SLOAD PUSH1 0x1 PUSH1 0x1 PUSH1 0xE0 SHL SUB NOT AND DUP4 OR PUSH1 0x1 PUSH1 0xA0 SHL TIMESTAMP SWAP1 SWAP4 AND SWAP3 SWAP1 SWAP3 MUL SWAP2 SWAP1 SWAP2 OR SWAP1 SSTORE DUP2 SWAP1 DUP2 DUP6 ADD SWAP1 EXTCODESIZE ISZERO PUSH2 0x1DBB JUMPI JUMPDEST PUSH1 0x40 MLOAD DUP3 SWAP1 PUSH1 0x1 PUSH1 0x1 PUSH1 0xA0 SHL SUB DUP9 AND SWAP1 PUSH0 SWAP1 PUSH32 0xDDF252AD1BE2C89B69C2B068FC378DAA952BA7F163C4A11628F55A4DF523B3EF SWAP1 DUP3 SWAP1 LOG4 PUSH2 0x1D86 PUSH0 DUP8 DUP5 DUP1 PUSH1 0x1 ADD SWAP6 POP DUP8 PUSH2 0x26CC JUMP JUMPDEST PUSH2 0x1DA3 JUMPI PUSH1 0x40 MLOAD PUSH4 0x68D2BF6B PUSH1 0xE1 SHL DUP2 MSTORE PUSH1 0x4 ADD PUSH1 0x40 MLOAD DUP1 SWAP2 SUB SWAP1 REVERT JUMPDEST DUP1 DUP3 LT PUSH2 0x1D3D JUMPI DUP3 PUSH0 SLOAD EQ PUSH2 0x1DB6 JUMPI PUSH0 DUP1 REVERT JUMPDEST PUSH2 0x1DFF JUMP JUMPDEST JUMPDEST PUSH1 0x40 MLOAD PUSH1 0x1 DUP4 ADD SWAP3 SWAP1 PUSH1 0x1 PUSH1 0x1 PUSH1 0xA0 SHL SUB DUP9 AND SWAP1 PUSH0 SWAP1 PUSH32 0xDDF252AD1BE2C89B69C2B068FC378DAA952BA7F163C4A11628F55A4DF523B3EF SWAP1 DUP3 SWAP1 LOG4 DUP1 DUP3 LT PUSH2 0x1DBC JUMPI JUMPDEST POP PUSH0 SWAP1 DUP2 SSTORE PUSH2 0x143D SWAP1 DUP6 DUP4 DUP7 DUP5 JUMP JUMPDEST PUSH0 DUP1 SLOAD DUP3 LT DUP1 ISZERO PUSH2 0xA4B JUMPI POP POP PUSH0 SWAP1 DUP2 MSTORE PUSH1 0x4 PUSH1 0x20 MSTORE PUSH1 0x40 SWAP1 KECCAK256 SLOAD PUSH1 0x1 PUSH1 0xE0 SHL SWAP1 DIV PUSH1 0xFF AND ISZERO SWAP1 JUMP JUMPDEST PUSH0 DUP3 DUP2 MSTORE PUSH1 0x6 PUSH1 0x20 MSTORE PUSH1 0x40 DUP1 DUP3 KECCAK256 DUP1 SLOAD PUSH20 0xFFFFFFFFFFFFFFFFFFFFFFFFFFFFFFFFFFFFFFFF NOT AND PUSH1 0x1 PUSH1 0x1 PUSH1 0xA0 SHL SUB DUP8 DUP2 AND SWAP2 DUP3 OR SWAP1 SWAP3 SSTORE SWAP2 MLOAD DUP6 SWAP4 SWAP2 DUP6 AND SWAP2 PUSH32 0x8C5BE1E5EBEC7D5BD14F71427D1E84F3DD0314C0F7B2291E5B200AC8C7C3B925 SWAP2 LOG4 POP POP POP JUMP JUMPDEST PUSH1 0x9 DUP1 SLOAD PUSH1 0x1 PUSH1 0x1 PUSH1 0xA0 SHL SUB DUP4 DUP2 AND PUSH20 0xFFFFFFFFFFFFFFFFFFFFFFFFFFFFFFFFFFFFFFFF NOT DUP4 AND DUP2 OR SWAP1 SWAP4 SSTORE PUSH1 0x40 MLOAD SWAP2 AND SWAP2 SWAP1 DUP3 SWAP1 PUSH32 0x8292FCE18FA69EDF4DB7B94EA2E58241DF0AE57F97E0A6C9B29067028BF92D76 SWAP1 PUSH0 SWAP1 LOG3 POP POP JUMP JUMPDEST PUSH2 0x94A DUP3 DUP3 PUSH1 0x40 MLOAD DUP1 PUSH1 0x20 ADD PUSH1 0x40 MSTORE DUP1 PUSH0 DUP2 MSTORE POP PUSH2 0x1C4F JUMP JUMPDEST PUSH0 PUSH2 0x1F20 DUP3 PUSH2 0x2396 JUMP JUMPDEST SWAP1 POP DUP4 PUSH1 0x1 PUSH1 0x1 PUSH1 0xA0 SHL SUB AND DUP2 PUSH0 ADD MLOAD PUSH1 0x1 PUSH1 0x1 PUSH1 0xA0 SHL SUB AND EQ PUSH2 0x1F56 JUMPI PUSH1 0x40 MLOAD PUSH3 0xA11481 PUSH1 0xE8 SHL DUP2 MSTORE PUSH1 0x4 ADD PUSH1 0x40 MLOAD DUP1 SWAP2 SUB SWAP1 REVERT JUMPDEST PUSH0 CALLER PUSH1 0x1 PUSH1 0x1 PUSH1 0xA0 SHL SUB DUP7 AND EQ DUP1 PUSH2 0x1F73 JUMPI POP PUSH2 0x1F73 DUP6 CALLER PUSH2 0x87A JUMP JUMPDEST DUP1 PUSH2 0x1F8E JUMPI POP CALLER PUSH2 0x1F83 DUP5 PUSH2 0xAE1 JUMP JUMPDEST PUSH1 0x1 PUSH1 0x1 PUSH1 0xA0 SHL SUB AND EQ JUMPDEST SWAP1 POP DUP1 PUSH2 0x1FAE JUMPI PUSH1 0x40 MLOAD PUSH4 0x2CE44B5F PUSH1 0xE1 SHL DUP2 MSTORE PUSH1 0x4 ADD PUSH1 0x40 MLOAD DUP1 SWAP2 SUB SWAP1 REVERT JUMPDEST PUSH1 0x1 PUSH1 0x1 PUSH1 0xA0 SHL SUB DUP5 AND PUSH2 0x1FD5 JUMPI PUSH1 0x40 MLOAD PUSH4 0x3A954ECD PUSH1 0xE2 SHL DUP2 MSTORE PUSH1 0x4 ADD PUSH1 0x40 MLOAD DUP1 SWAP2 SUB SWAP1 REVERT JUMPDEST PUSH2 0x1FE0 PUSH0 DUP5 DUP8 PUSH2 0x1E37 JUMP JUMPDEST PUSH1 0x1 PUSH1 0x1 PUSH1 0xA0 SHL SUB DUP6 DUP2 AND PUSH0 SWAP1 DUP2 MSTORE PUSH1 0x5 PUSH1 0x20 SWAP1 DUP2 MSTORE PUSH1 0x40 DUP1 DUP4 KECCAK256 DUP1 SLOAD PUSH8 0xFFFFFFFFFFFFFFFF NOT DUP1 DUP3 AND PUSH8 0xFFFFFFFFFFFFFFFF SWAP3 DUP4 AND PUSH0 NOT ADD DUP4 AND OR SWAP1 SWAP3 SSTORE DUP10 DUP7 AND DUP1 DUP7 MSTORE DUP4 DUP7 KECCAK256 DUP1 SLOAD SWAP4 DUP5 AND SWAP4 DUP4 AND PUSH1 0x1 SWAP1 DUP2 ADD DUP5 AND SWAP5 SWAP1 SWAP5 OR SWAP1 SSTORE DUP10 DUP7 MSTORE PUSH1 0x4 SWAP1 SWAP5 MSTORE DUP3 DUP6 KECCAK256 DUP1 SLOAD PUSH1 0x1 PUSH1 0x1 PUSH1 0xE0 SHL SUB NOT AND SWAP1 SWAP5 OR PUSH1 0x1 PUSH1 0xA0 SHL TIMESTAMP SWAP1 SWAP3 AND SWAP2 SWAP1 SWAP2 MUL OR DUP4 SSTORE DUP8 ADD DUP1 DUP5 MSTORE SWAP3 KECCAK256 DUP1 SLOAD SWAP2 SWAP4 SWAP1 SWAP2 AND PUSH2 0x20B3 JUMPI PUSH0 SLOAD DUP3 EQ PUSH2 0x20B3 JUMPI DUP1 SLOAD PUSH1 0x20 DUP7 ADD MLOAD PUSH8 0xFFFFFFFFFFFFFFFF AND PUSH1 0x1 PUSH1 0xA0 SHL MUL PUSH1 0x1 PUSH1 0x1 PUSH1 0xE0 SHL SUB NOT SWAP1 SWAP2 AND PUSH1 0x1 PUSH1 0x1 PUSH1 0xA0 SHL SUB DUP11 AND OR OR DUP2 SSTORE JUMPDEST POP POP POP DUP3 DUP5 PUSH1 0x1 PUSH1 0x1 PUSH1 0xA0 SHL SUB AND DUP7 PUSH1 0x1 PUSH1 0x1 PUSH1 0xA0 SHL SUB AND PUSH32 0xDDF252AD1BE2C89B69C2B068FC378DAA952BA7F163C4A11628F55A4DF523B3EF PUSH1 0x40 MLOAD PUSH1 0x40 MLOAD DUP1 SWAP2 SUB SWAP1 LOG4 JUMPDEST POP POP POP POP POP JUMP JUMPDEST PUSH0 PUSH2 0x2109 DUP4 PUSH2 0x2396 JUMP JUMPDEST DUP1 MLOAD SWAP1 SWAP2 POP DUP3 ISZERO PUSH2 0x216E JUMPI PUSH0 CALLER PUSH1 0x1 PUSH1 0x1 PUSH1 0xA0 SHL SUB DUP4 AND EQ DUP1 PUSH2 0x2131 JUMPI POP PUSH2 0x2131 DUP3 CALLER PUSH2 0x87A JUMP JUMPDEST DUP1 PUSH2 0x214C JUMPI POP CALLER PUSH2 0x2141 DUP7 PUSH2 0xAE1 JUMP JUMPDEST PUSH1 0x1 PUSH1 0x1 PUSH1 0xA0 SHL SUB AND EQ JUMPDEST SWAP1 POP DUP1 PUSH2 0x216C JUMPI PUSH1 0x40 MLOAD PUSH4 0x2CE44B5F PUSH1 0xE1 SHL DUP2 MSTORE PUSH1 0x4 ADD PUSH1 0x40 MLOAD DUP1 SWAP2 SUB SWAP1 REVERT JUMPDEST POP JUMPDEST PUSH2 0x2179 PUSH0 DUP6 DUP4 PUSH2 0x1E37 JUMP JUMPDEST PUSH1 0x1 PUSH1 0x1 PUSH1 0xA0 SHL SUB DUP1 DUP3 AND PUSH0 DUP2 DUP2 MSTORE PUSH1 0x5 PUSH1 0x20 SWAP1 DUP2 MSTORE PUSH1 0x40 DUP1 DUP4 KECCAK256 DUP1 SLOAD PUSH17 0x100000000000000000000000000000000 PUSH0 NOT PUSH8 0xFFFFFFFFFFFFFFFF DUP1 DUP5 AND SWAP2 SWAP1 SWAP2 ADD DUP2 AND PUSH8 0xFFFFFFFFFFFFFFFF NOT DUP5 AND DUP2 OR DUP4 SWAP1 DIV DUP3 AND PUSH1 0x1 SWAP1 DUP2 ADD DUP4 AND SWAP1 SWAP4 MUL PUSH32 0xFFFFFFFFFFFFFFFF0000000000000000FFFFFFFFFFFFFFFF0000000000000000 SWAP1 SWAP5 AND OR SWAP3 SWAP1 SWAP3 OR DUP4 SSTORE DUP12 DUP7 MSTORE PUSH1 0x4 SWAP1 SWAP5 MSTORE DUP3 DUP6 KECCAK256 DUP1 SLOAD PUSH32 0xFFFFFF00FFFFFFFFFFFFFFFFFFFFFFFFFFFFFFFFFFFFFFFFFFFFFFFFFFFFFFFF TIMESTAMP SWAP1 SWAP4 AND PUSH1 0x1 PUSH1 0xA0 SHL MUL PUSH1 0x1 PUSH1 0x1 PUSH1 0xE0 SHL SUB NOT SWAP1 SWAP2 AND SWAP1 SWAP8 OR SWAP7 SWAP1 SWAP7 OR AND PUSH1 0x1 PUSH1 0xE0 SHL OR DUP6 SSTORE SWAP2 DUP10 ADD DUP1 DUP5 MSTORE SWAP3 KECCAK256 DUP1 SLOAD SWAP2 SWAP5 SWAP1 SWAP2 AND PUSH2 0x22A5 JUMPI PUSH0 SLOAD DUP3 EQ PUSH2 0x22A5 JUMPI DUP1 SLOAD PUSH1 0x20 DUP8 ADD MLOAD PUSH8 0xFFFFFFFFFFFFFFFF AND PUSH1 0x1 PUSH1 0xA0 SHL MUL PUSH1 0x1 PUSH1 0x1 PUSH1 0xE0 SHL SUB NOT SWAP1 SWAP2 AND PUSH1 0x1 PUSH1 0x1 PUSH1 0xA0 SHL SUB DUP8 AND OR OR DUP2 SSTORE JUMPDEST POP POP PUSH1 0x40 MLOAD DUP7 SWAP3 POP PUSH0 SWAP2 POP PUSH1 0x1 PUSH1 0x1 PUSH1 0xA0 SHL SUB DUP5 AND SWAP1 PUSH32 0xDDF252AD1BE2C89B69C2B068FC378DAA952BA7F163C4A11628F55A4DF523B3EF SWAP1 DUP4 SWAP1 LOG4 POP POP PUSH1 0x1 DUP1 SLOAD DUP2 ADD SWAP1 SSTORE POP POP JUMP JUMPDEST PUSH2 0x2710 DUP2 GT ISZERO PUSH2 0x231C JUMPI PUSH1 0x40 MLOAD PUSH4 0xA4930AD PUSH1 0xE3 SHL DUP2 MSTORE PUSH2 0x2710 PUSH1 0x4 DUP3 ADD MSTORE PUSH1 0x24 DUP2 ADD DUP3 SWAP1 MSTORE PUSH1 0x44 ADD PUSH2 0x916 JUMP JUMPDEST PUSH1 0xA DUP1 SLOAD PUSH1 0x1 PUSH1 0x1 PUSH1 0xA0 SHL SUB DUP5 AND PUSH32 0xFFFFFFFFFFFFFFFFFFFF00000000000000000000000000000000000000000000 SWAP1 SWAP2 AND DUP2 OR PUSH1 0x1 PUSH1 0xA0 SHL PUSH2 0xFFFF DUP6 AND MUL OR SWAP1 SWAP2 SSTORE PUSH1 0x40 MLOAD DUP3 DUP2 MSTORE PUSH32 0x90D7EC04BCB8978719414F82E52E4CB651DB41D0E6F8CEA6118C2191E6183ADB SWAP1 PUSH1 0x20 ADD PUSH1 0x40 MLOAD DUP1 SWAP2 SUB SWAP1 LOG2 POP POP JUMP JUMPDEST PUSH1 0x40 DUP1 MLOAD PUSH1 0x60 DUP2 ADD DUP3 MSTORE PUSH0 DUP1 DUP3 MSTORE PUSH1 0x20 DUP3 ADD DUP2 SWAP1 MSTORE SWAP2 DUP2 ADD SWAP2 SWAP1 SWAP2 MSTORE DUP2 PUSH0 SLOAD DUP2 LT ISZERO PUSH2 0x2494 JUMPI PUSH0 DUP2 DUP2 MSTORE PUSH1 0x4 PUSH1 0x20 SWAP1 DUP2 MSTORE PUSH1 0x40 SWAP2 DUP3 SWAP1 KECCAK256 DUP3 MLOAD PUSH1 0x60 DUP2 ADD DUP5 MSTORE SWAP1 SLOAD PUSH1 0x1 PUSH1 0x1 PUSH1 0xA0 SHL SUB DUP2 AND DUP3 MSTORE PUSH1 0x1 PUSH1 0xA0 SHL DUP2 DIV PUSH8 0xFFFFFFFFFFFFFFFF AND SWAP3 DUP3 ADD SWAP3 SWAP1 SWAP3 MSTORE PUSH1 0x1 PUSH1 0xE0 SHL SWAP1 SWAP2 DIV PUSH1 0xFF AND ISZERO ISZERO SWAP2 DUP2 ADD DUP3 SWAP1 MSTORE SWAP1 PUSH2 0x2492 JUMPI DUP1 MLOAD PUSH1 0x1 PUSH1 0x1 PUSH1 0xA0 SHL SUB AND ISZERO PUSH2 0x242A JUMPI SWAP4 SWAP3 POP POP POP JUMP JUMPDEST POP PUSH0 NOT ADD PUSH0 DUP2 DUP2 MSTORE PUSH1 0x4 PUSH1 0x20 SWAP1 DUP2 MSTORE PUSH1 0x40 SWAP2 DUP3 SWAP1 KECCAK256 DUP3 MLOAD PUSH1 0x60 DUP2 ADD DUP5 MSTORE SWAP1 SLOAD PUSH1 0x1 PUSH1 0x1 PUSH1 0xA0 SHL SUB DUP2 AND DUP1 DUP4 MSTORE PUSH1 0x1 PUSH1 0xA0 SHL DUP3 DIV PUSH8 0xFFFFFFFFFFFFFFFF AND SWAP4 DUP4 ADD SWAP4 SWAP1 SWAP4 MSTORE PUSH1 0x1 PUSH1 0xE0 SHL SWAP1 DIV PUSH1 0xFF AND ISZERO ISZERO SWAP3 DUP2 ADD SWAP3 SWAP1 SWAP3 MSTORE ISZERO PUSH2 0x248D JUMPI SWAP4 SWAP3 POP POP POP JUMP JUMPDEST PUSH2 0x242A JUMP JUMPDEST POP JUMPDEST PUSH1 0x40 MLOAD PUSH4 0x6F96CDA1 PUSH1 0xE1 SHL DUP2 MSTORE PUSH1 0x4 ADD PUSH1 0x40 MLOAD DUP1 SWAP2 SUB SWAP1 REVERT JUMPDEST PUSH0 DUP1 PUSH2 0x24B9 DUP5 DUP7 PUSH2 0x3357 JUMP JUMPDEST PUSH1 0xC DUP1 SLOAD PUSH1 0x1 DUP2 ADD SWAP1 SWAP2 SSTORE PUSH32 0xDF6966C971051C3D54EC59162606531493A51404A002842F56009D7E5CF4A8C7 ADD DUP2 SWAP1 SSTORE PUSH0 DUP2 DUP2 MSTORE PUSH1 0xD PUSH1 0x20 MSTORE PUSH1 0x40 SWAP1 KECCAK256 SWAP1 SWAP3 POP DUP3 SWAP2 POP PUSH2 0x2506 DUP5 DUP3 PUSH2 0x3583 JUMP JUMPDEST POP SWAP4 POP SWAP4 SWAP2 POP POP JUMP JUMPDEST PUSH0 PUSH1 0x8 DUP1 SLOAD PUSH2 0x251D SWAP1 PUSH2 0x330B JUMP JUMPDEST DUP1 PUSH1 0x1F ADD PUSH1 0x20 DUP1 SWAP2 DIV MUL PUSH1 0x20 ADD PUSH1 0x40 MLOAD SWAP1 DUP2 ADD PUSH1 0x40 MSTORE DUP1 SWAP3 SWAP2 SWAP1 DUP2 DUP2 MSTORE PUSH1 0x20 ADD DUP3 DUP1 SLOAD PUSH2 0x2549 SWAP1 PUSH2 0x330B JUMP JUMPDEST DUP1 ISZERO PUSH2 0x2594 JUMPI DUP1 PUSH1 0x1F LT PUSH2 0x256B JUMPI PUSH2 0x100 DUP1 DUP4 SLOAD DIV MUL DUP4 MSTORE SWAP2 PUSH1 0x20 ADD SWAP2 PUSH2 0x2594 JUMP JUMPDEST DUP3 ADD SWAP2 SWAP1 PUSH0 MSTORE PUSH1 0x20 PUSH0 KECCAK256 SWAP1 JUMPDEST DUP2 SLOAD DUP2 MSTORE SWAP1 PUSH1 0x1 ADD SWAP1 PUSH1 0x20 ADD DUP1 DUP4 GT PUSH2 0x2577 JUMPI DUP3 SWAP1 SUB PUSH1 0x1F AND DUP3 ADD SWAP2 JUMPDEST POP POP POP POP POP SWAP1 POP DUP2 PUSH1 0x8 SWAP1 DUP2 PUSH2 0x25AA SWAP2 SWAP1 PUSH2 0x3583 JUMP JUMPDEST POP PUSH32 0xC9C7C3FE08B88B4DF9D4D47EF47D2C43D55C025A0BA88CA442580ED9E7348A16 DUP2 DUP4 PUSH1 0x40 MLOAD PUSH2 0x25DC SWAP3 SWAP2 SWAP1 PUSH2 0x3643 JUMP JUMPDEST PUSH1 0x40 MLOAD DUP1 SWAP2 SUB SWAP1 LOG1 POP POP JUMP JUMPDEST PUSH2 0x2710 DUP2 GT ISZERO PUSH2 0x2616 JUMPI PUSH1 0x40 MLOAD PUSH4 0xA4930AD PUSH1 0xE3 SHL DUP2 MSTORE PUSH2 0x2710 PUSH1 0x4 DUP3 ADD MSTORE PUSH1 0x24 DUP2 ADD DUP3 SWAP1 MSTORE PUSH1 0x44 ADD PUSH2 0x916 JUMP JUMPDEST PUSH1 0x40 DUP1 MLOAD DUP1 DUP3 ADD DUP3 MSTORE PUSH1 0x1 PUSH1 0x1 PUSH1 0xA0 SHL SUB DUP5 DUP2 AND DUP1 DUP4 MSTORE PUSH1 0x20 DUP1 DUP5 ADD DUP7 DUP2 MSTORE PUSH0 DUP10 DUP2 MSTORE PUSH1 0xB DUP4 MSTORE DUP7 SWAP1 KECCAK256 SWAP5 MLOAD DUP6 SLOAD PUSH20 0xFFFFFFFFFFFFFFFFFFFFFFFFFFFFFFFFFFFFFFFF NOT AND SWAP5 AND SWAP4 SWAP1 SWAP4 OR DUP5 SSTORE SWAP2 MLOAD PUSH1 0x1 SWAP1 SWAP4 ADD SWAP3 SWAP1 SWAP3 SSTORE SWAP2 MLOAD DUP4 DUP2 MSTORE SWAP1 SWAP2 DUP6 SWAP2 PUSH32 0x7365CF4122F072A3365C20D54EFF9B38D73C096C28E1892EC8F5B0E403A0F12D SWAP2 ADD PUSH1 0x40 MLOAD DUP1 SWAP2 SUB SWAP1 LOG3 POP POP POP JUMP JUMPDEST PUSH1 0x60 PUSH2 0x1760 DUP4 DUP4 PUSH1 0x40 MLOAD DUP1 PUSH1 0x60 ADD PUSH1 0x40 MSTORE DUP1 PUSH1 0x27 DUP2 MSTORE PUSH1 0x20 ADD PUSH2 0x3706 PUSH1 0x27 SWAP2 CODECOPY PUSH2 0x2A3D JUMP JUMPDEST PUSH1 0x40 MLOAD PUSH4 0xA85BD01 PUSH1 0xE1 SHL DUP2 MSTORE PUSH0 SWAP1 PUSH1 0x1 PUSH1 0x1 PUSH1 0xA0 SHL SUB DUP6 AND SWAP1 PUSH4 0x150B7A02 SWAP1 PUSH2 0x2700 SWAP1 CALLER SWAP1 DUP10 SWAP1 DUP9 SWAP1 DUP9 SWAP1 PUSH1 0x4 ADD PUSH2 0x3670 JUMP JUMPDEST PUSH1 0x20 PUSH1 0x40 MLOAD DUP1 DUP4 SUB DUP2 PUSH0 DUP8 GAS CALL SWAP3 POP POP POP DUP1 ISZERO PUSH2 0x273A JUMPI POP PUSH1 0x40 DUP1 MLOAD PUSH1 0x1F RETURNDATASIZE SWAP1 DUP2 ADD PUSH1 0x1F NOT AND DUP3 ADD SWAP1 SWAP3 MSTORE PUSH2 0x2737 SWAP2 DUP2 ADD SWAP1 PUSH2 0x36A1 JUMP JUMPDEST PUSH1 0x1 JUMPDEST PUSH2 0x2796 JUMPI RETURNDATASIZE DUP1 DUP1 ISZERO PUSH2 0x2767 JUMPI PUSH1 0x40 MLOAD SWAP2 POP PUSH1 0x1F NOT PUSH1 0x3F RETURNDATASIZE ADD AND DUP3 ADD PUSH1 0x40 MSTORE RETURNDATASIZE DUP3 MSTORE RETURNDATASIZE PUSH0 PUSH1 0x20 DUP5 ADD RETURNDATACOPY PUSH2 0x276C JUMP JUMPDEST PUSH1 0x60 SWAP2 POP JUMPDEST POP DUP1 MLOAD PUSH0 SUB PUSH2 0x278E JUMPI PUSH1 0x40 MLOAD PUSH4 0x68D2BF6B PUSH1 0xE1 SHL DUP2 MSTORE PUSH1 0x4 ADD PUSH1 0x40 MLOAD DUP1 SWAP2 SUB SWAP1 REVERT JUMPDEST DUP1 MLOAD DUP2 PUSH1 0x20 ADD REVERT JUMPDEST PUSH1 0x1 PUSH1 0x1 PUSH1 0xE0 SHL SUB NOT AND PUSH4 0xA85BD01 PUSH1 0xE1 SHL EQ SWAP1 POP SWAP5 SWAP4 POP POP POP POP JUMP JUMPDEST PUSH1 0x60 PUSH0 PUSH2 0x27BF PUSH1 0xC SLOAD SWAP1 JUMP JUMPDEST SWAP1 POP PUSH0 PUSH1 0xC DUP1 SLOAD DUP1 PUSH1 0x20 MUL PUSH1 0x20 ADD PUSH1 0x40 MLOAD SWAP1 DUP2 ADD PUSH1 0x40 MSTORE DUP1 SWAP3 SWAP2 SWAP1 DUP2 DUP2 MSTORE PUSH1 0x20 ADD DUP3 DUP1 SLOAD DUP1 ISZERO PUSH2 0x280C JUMPI PUSH1 0x20 MUL DUP3 ADD SWAP2 SWAP1 PUSH0 MSTORE PUSH1 0x20 PUSH0 KECCAK256 SWAP1 JUMPDEST DUP2 SLOAD DUP2 MSTORE PUSH1 0x20 ADD SWAP1 PUSH1 0x1 ADD SWAP1 DUP1 DUP4 GT PUSH2 0x27F8 JUMPI JUMPDEST POP POP POP POP POP SWAP1 POP PUSH0 JUMPDEST DUP3 DUP2 LT ISZERO PUSH2 0x290B JUMPI DUP2 DUP2 DUP2 MLOAD DUP2 LT PUSH2 0x282F JUMPI PUSH2 0x282F PUSH2 0x3381 JUMP JUMPDEST PUSH1 0x20 MUL PUSH1 0x20 ADD ADD MLOAD DUP6 LT ISZERO PUSH2 0x28F9 JUMPI PUSH1 0xD PUSH0 DUP4 DUP4 DUP2 MLOAD DUP2 LT PUSH2 0x2853 JUMPI PUSH2 0x2853 PUSH2 0x3381 JUMP JUMPDEST PUSH1 0x20 MUL PUSH1 0x20 ADD ADD MLOAD DUP2 MSTORE PUSH1 0x20 ADD SWAP1 DUP2 MSTORE PUSH1 0x20 ADD PUSH0 KECCAK256 DUP1 SLOAD PUSH2 0x2873 SWAP1 PUSH2 0x330B JUMP JUMPDEST DUP1 PUSH1 0x1F ADD PUSH1 0x20 DUP1 SWAP2 DIV MUL PUSH1 0x20 ADD PUSH1 0x40 MLOAD SWAP1 DUP2 ADD PUSH1 0x40 MSTORE DUP1 SWAP3 SWAP2 SWAP1 DUP2 DUP2 MSTORE PUSH1 0x20 ADD DUP3 DUP1 SLOAD PUSH2 0x289F SWAP1 PUSH2 0x330B JUMP JUMPDEST DUP1 ISZERO PUSH2 0x28EA JUMPI DUP1 PUSH1 0x1F LT PUSH2 0x28C1 JUMPI PUSH2 0x100 DUP1 DUP4 SLOAD DIV MUL DUP4 MSTORE SWAP2 PUSH1 0x20 ADD SWAP2 PUSH2 0x28EA JUMP JUMPDEST DUP3 ADD SWAP2 SWAP1 PUSH0 MSTORE PUSH1 0x20 PUSH0 KECCAK256 SWAP1 JUMPDEST DUP2 SLOAD DUP2 MSTORE SWAP1 PUSH1 0x1 ADD SWAP1 PUSH1 0x20 ADD DUP1 DUP4 GT PUSH2 0x28CD JUMPI DUP3 SWAP1 SUB PUSH1 0x1F AND DUP3 ADD SWAP2 JUMPDEST POP POP POP POP POP SWAP4 POP POP POP POP SWAP2 SWAP1 POP JUMP JUMPDEST PUSH2 0x2904 PUSH1 0x1 DUP3 PUSH2 0x3357 JUMP JUMPDEST SWAP1 POP PUSH2 0x2815 JUMP JUMPDEST POP PUSH1 0x40 MLOAD PUSH4 0x9797F69 PUSH1 0xE2 SHL DUP2 MSTORE PUSH1 0x4 DUP2 ADD DUP6 SWAP1 MSTORE PUSH1 0x24 ADD PUSH2 0x916 JUMP JUMPDEST PUSH1 0x60 DUP2 PUSH0 SUB PUSH2 0x294E JUMPI POP POP PUSH1 0x40 DUP1 MLOAD DUP1 DUP3 ADD SWAP1 SWAP2 MSTORE PUSH1 0x1 DUP2 MSTORE PUSH1 0x3 PUSH1 0xFC SHL PUSH1 0x20 DUP3 ADD MSTORE SWAP1 JUMP JUMPDEST DUP2 PUSH0 JUMPDEST DUP2 ISZERO PUSH2 0x2977 JUMPI DUP1 PUSH2 0x2961 DUP2 PUSH2 0x36BC JUMP JUMPDEST SWAP2 POP PUSH2 0x2970 SWAP1 POP PUSH1 0xA DUP4 PUSH2 0x351F JUMP JUMPDEST SWAP2 POP PUSH2 0x2951 JUMP JUMPDEST PUSH0 DUP2 PUSH8 0xFFFFFFFFFFFFFFFF DUP2 GT ISZERO PUSH2 0x2991 JUMPI PUSH2 0x2991 PUSH2 0x2B69 JUMP JUMPDEST PUSH1 0x40 MLOAD SWAP1 DUP1 DUP3 MSTORE DUP1 PUSH1 0x1F ADD PUSH1 0x1F NOT AND PUSH1 0x20 ADD DUP3 ADD PUSH1 0x40 MSTORE DUP1 ISZERO PUSH2 0x29BB JUMPI PUSH1 0x20 DUP3 ADD DUP2 DUP1 CALLDATASIZE DUP4 CALLDATACOPY ADD SWAP1 POP JUMPDEST POP SWAP1 POP JUMPDEST DUP5 ISZERO PUSH2 0x1208 JUMPI PUSH2 0x29D0 PUSH1 0x1 DUP4 PUSH2 0x36D4 JUMP JUMPDEST SWAP2 POP PUSH2 0x29DD PUSH1 0xA DUP7 PUSH2 0x36E7 JUMP JUMPDEST PUSH2 0x29E8 SWAP1 PUSH1 0x30 PUSH2 0x3357 JUMP JUMPDEST PUSH1 0xF8 SHL DUP2 DUP4 DUP2 MLOAD DUP2 LT PUSH2 0x29FD JUMPI PUSH2 0x29FD PUSH2 0x3381 JUMP JUMPDEST PUSH1 0x20 ADD ADD SWAP1 PUSH31 0xFFFFFFFFFFFFFFFFFFFFFFFFFFFFFFFFFFFFFFFFFFFFFFFFFFFFFFFFFFFFFF NOT AND SWAP1 DUP2 PUSH0 BYTE SWAP1 MSTORE8 POP PUSH2 0x2A36 PUSH1 0xA DUP7 PUSH2 0x351F JUMP JUMPDEST SWAP5 POP PUSH2 0x29BF JUMP JUMPDEST PUSH1 0x60 PUSH0 DUP1 DUP6 PUSH1 0x1 PUSH1 0x1 PUSH1 0xA0 SHL SUB AND DUP6 PUSH1 0x40 MLOAD PUSH2 0x2A59 SWAP2 SWAP1 PUSH2 0x36FA JUMP JUMPDEST PUSH0 PUSH1 0x40 MLOAD DUP1 DUP4 SUB DUP2 DUP6 GAS DELEGATECALL SWAP2 POP POP RETURNDATASIZE DUP1 PUSH0 DUP2 EQ PUSH2 0x2A91 JUMPI PUSH1 0x40 MLOAD SWAP2 POP PUSH1 0x1F NOT PUSH1 0x3F RETURNDATASIZE ADD AND DUP3 ADD PUSH1 0x40 MSTORE RETURNDATASIZE DUP3 MSTORE RETURNDATASIZE PUSH0 PUSH1 0x20 DUP5 ADD RETURNDATACOPY PUSH2 0x2A96 JUMP JUMPDEST PUSH1 0x60 SWAP2 POP JUMPDEST POP SWAP2 POP SWAP2 POP PUSH2 0x2AA7 DUP7 DUP4 DUP4 DUP8 PUSH2 0x2AB1 JUMP JUMPDEST SWAP7 SWAP6 POP POP POP POP POP POP JUMP JUMPDEST PUSH1 0x60 DUP4 ISZERO PUSH2 0x2B1F JUMPI DUP3 MLOAD PUSH0 SUB PUSH2 0x2B18 JUMPI PUSH1 0x1 PUSH1 0x1 PUSH1 0xA0 SHL SUB DUP6 AND EXTCODESIZE PUSH2 0x2B18 JUMPI PUSH1 0x40 MLOAD PUSH3 0x461BCD PUSH1 0xE5 SHL DUP2 MSTORE PUSH1 0x20 PUSH1 0x4 DUP3 ADD MSTORE PUSH1 0x1D PUSH1 0x24 DUP3 ADD MSTORE PUSH32 0x416464726573733A2063616C6C20746F206E6F6E2D636F6E7472616374000000 PUSH1 0x44 DUP3 ADD MSTORE PUSH1 0x64 ADD PUSH2 0x916 JUMP JUMPDEST POP DUP2 PUSH2 0x1208 JUMP JUMPDEST PUSH2 0x1208 DUP4 DUP4 DUP2 MLOAD ISZERO PUSH2 0x2B34 JUMPI DUP2 MLOAD DUP1 DUP4 PUSH1 0x20 ADD REVERT JUMPDEST DUP1 PUSH1 0x40 MLOAD PUSH3 0x461BCD PUSH1 0xE5 SHL DUP2 MSTORE PUSH1 0x4 ADD PUSH2 0x916 SWAP2 SWAP1 PUSH2 0x2CAA JUMP JUMPDEST DUP1 CALLDATALOAD PUSH1 0x1 PUSH1 0x1 PUSH1 0xA0 SHL SUB DUP2 AND DUP2 EQ PUSH2 0x2B64 JUMPI PUSH0 DUP1 REVERT JUMPDEST SWAP2 SWAP1 POP JUMP JUMPDEST PUSH4 0x4E487B71 PUSH1 0xE0 SHL PUSH0 MSTORE PUSH1 0x41 PUSH1 0x4 MSTORE PUSH1 0x24 PUSH0 REVERT JUMPDEST PUSH1 0x40 MLOAD PUSH1 0x1F DUP3 ADD PUSH1 0x1F NOT AND DUP2 ADD PUSH8 0xFFFFFFFFFFFFFFFF DUP2 GT DUP3 DUP3 LT OR ISZERO PUSH2 0x2BA6 JUMPI PUSH2 0x2BA6 PUSH2 0x2B69 JUMP JUMPDEST PUSH1 0x40 MSTORE SWAP2 SWAP1 POP JUMP JUMPDEST PUSH0 DUP3 PUSH1 0x1F DUP4 ADD SLT PUSH2 0x2BBD JUMPI PUSH0 DUP1 REVERT JUMPDEST DUP2 CALLDATALOAD PUSH8 0xFFFFFFFFFFFFFFFF DUP2 GT ISZERO PUSH2 0x2BD7 JUMPI PUSH2 0x2BD7 PUSH2 0x2B69 JUMP JUMPDEST PUSH2 0x2BEA PUSH1 0x1F DUP3 ADD PUSH1 0x1F NOT AND PUSH1 0x20 ADD PUSH2 0x2B7D JUMP JUMPDEST DUP2 DUP2 MSTORE DUP5 PUSH1 0x20 DUP4 DUP7 ADD ADD GT ISZERO PUSH2 0x2BFE JUMPI PUSH0 DUP1 REVERT JUMPDEST DUP2 PUSH1 0x20 DUP6 ADD PUSH1 0x20 DUP4 ADD CALLDATACOPY PUSH0 SWAP2 DUP2 ADD PUSH1 0x20 ADD SWAP2 SWAP1 SWAP2 MSTORE SWAP4 SWAP3 POP POP POP JUMP JUMPDEST PUSH0 DUP1 PUSH1 0x40 DUP4 DUP6 SUB SLT ISZERO PUSH2 0x2C2B JUMPI PUSH0 DUP1 REVERT JUMPDEST PUSH2 0x2C34 DUP4 PUSH2 0x2B4E JUMP JUMPDEST SWAP2 POP PUSH1 0x20 DUP4 ADD CALLDATALOAD PUSH8 0xFFFFFFFFFFFFFFFF DUP2 GT ISZERO PUSH2 0x2C4F JUMPI PUSH0 DUP1 REVERT JUMPDEST PUSH2 0x2C5B DUP6 DUP3 DUP7 ADD PUSH2 0x2BAE JUMP JUMPDEST SWAP2 POP POP SWAP3 POP SWAP3 SWAP1 POP JUMP JUMPDEST PUSH0 PUSH1 0x20 DUP3 DUP5 SUB SLT ISZERO PUSH2 0x2C75 JUMPI PUSH0 DUP1 REVERT JUMPDEST POP CALLDATALOAD SWAP2 SWAP1 POP JUMP JUMPDEST PUSH0 DUP2 MLOAD DUP1 DUP5 MSTORE DUP1 PUSH1 0x20 DUP5 ADD PUSH1 0x20 DUP7 ADD MCOPY PUSH0 PUSH1 0x20 DUP3 DUP7 ADD ADD MSTORE PUSH1 0x20 PUSH1 0x1F NOT PUSH1 0x1F DUP4 ADD AND DUP6 ADD ADD SWAP2 POP POP SWAP3 SWAP2 POP POP JUMP JUMPDEST PUSH1 0x20 DUP2 MSTORE PUSH0 PUSH2 0x1760 PUSH1 0x20 DUP4 ADD DUP5 PUSH2 0x2C7C JUMP JUMPDEST PUSH1 0x1 PUSH1 0x1 PUSH1 0xE0 SHL SUB NOT DUP2 AND DUP2 EQ PUSH2 0xBD6 JUMPI PUSH0 DUP1 REVERT JUMPDEST PUSH0 PUSH1 0x20 DUP3 DUP5 SUB SLT ISZERO PUSH2 0x2CE1 JUMPI PUSH0 DUP1 REVERT JUMPDEST DUP2 CALLDATALOAD PUSH2 0x1760 DUP2 PUSH2 0x2CBC JUMP JUMPDEST PUSH0 DUP1 PUSH1 0x40 DUP4 DUP6 SUB SLT ISZERO PUSH2 0x2CFD JUMPI PUSH0 DUP1 REVERT JUMPDEST PUSH2 0x2D06 DUP4 PUSH2 0x2B4E JUMP JUMPDEST SWAP5 PUSH1 0x20 SWAP4 SWAP1 SWAP4 ADD CALLDATALOAD SWAP4 POP POP POP JUMP JUMPDEST PUSH0 PUSH1 0x20 DUP3 DUP5 SUB SLT ISZERO PUSH2 0x2D24 JUMPI PUSH0 DUP1 REVERT JUMPDEST PUSH2 0x1760 DUP3 PUSH2 0x2B4E JUMP JUMPDEST PUSH0 DUP1 DUP4 PUSH1 0x1F DUP5 ADD SLT PUSH2 0x2D3D JUMPI PUSH0 DUP1 REVERT JUMPDEST POP DUP2 CALLDATALOAD PUSH8 0xFFFFFFFFFFFFFFFF DUP2 GT ISZERO PUSH2 0x2D54 JUMPI PUSH0 DUP1 REVERT JUMPDEST PUSH1 0x20 DUP4 ADD SWAP2 POP DUP4 PUSH1 0x20 DUP3 PUSH1 0x5 SHL DUP6 ADD ADD GT ISZERO PUSH2 0x2D6E JUMPI PUSH0 DUP1 REVERT JUMPDEST SWAP3 POP SWAP3 SWAP1 POP JUMP JUMPDEST PUSH0 DUP1 PUSH0 DUP1 PUSH0 DUP1 PUSH0 PUSH1 0x80 DUP9 DUP11 SUB SLT ISZERO PUSH2 0x2D8B JUMPI PUSH0 DUP1 REVERT JUMPDEST PUSH2 0x2D94 DUP9 PUSH2 0x2B4E JUMP JUMPDEST SWAP7 POP PUSH1 0x20 DUP9 ADD CALLDATALOAD PUSH8 0xFFFFFFFFFFFFFFFF DUP1 DUP3 GT ISZERO PUSH2 0x2DB0 JUMPI PUSH0 DUP1 REVERT JUMPDEST PUSH2 0x2DBC DUP12 DUP4 DUP13 ADD PUSH2 0x2D2D JUMP JUMPDEST SWAP1 SWAP9 POP SWAP7 POP PUSH1 0x40 DUP11 ADD CALLDATALOAD SWAP2 POP DUP1 DUP3 GT ISZERO PUSH2 0x2DD4 JUMPI PUSH0 DUP1 REVERT JUMPDEST PUSH2 0x2DE0 DUP12 DUP4 DUP13 ADD PUSH2 0x2D2D JUMP JUMPDEST SWAP1 SWAP7 POP SWAP5 POP PUSH1 0x60 DUP11 ADD CALLDATALOAD SWAP2 POP DUP1 DUP3 GT ISZERO PUSH2 0x2DF8 JUMPI PUSH0 DUP1 REVERT JUMPDEST POP PUSH2 0x2E05 DUP11 DUP3 DUP12 ADD PUSH2 0x2D2D JUMP JUMPDEST SWAP9 SWAP12 SWAP8 SWAP11 POP SWAP6 SWAP9 POP SWAP4 SWAP7 SWAP3 SWAP6 SWAP3 SWAP4 POP POP POP JUMP JUMPDEST PUSH0 DUP1 PUSH0 PUSH1 0x60 DUP5 DUP7 SUB SLT ISZERO PUSH2 0x2E2A JUMPI PUSH0 DUP1 REVERT JUMPDEST PUSH2 0x2E33 DUP5 PUSH2 0x2B4E JUMP JUMPDEST SWAP3 POP PUSH2 0x2E41 PUSH1 0x20 DUP6 ADD PUSH2 0x2B4E JUMP JUMPDEST SWAP2 POP PUSH1 0x40 DUP5 ADD CALLDATALOAD SWAP1 POP SWAP3 POP SWAP3 POP SWAP3 JUMP JUMPDEST PUSH0 DUP1 PUSH1 0x40 DUP4 DUP6 SUB SLT ISZERO PUSH2 0x2E62 JUMPI PUSH0 DUP1 REVERT JUMPDEST POP POP DUP1 CALLDATALOAD SWAP3 PUSH1 0x20 SWAP1 SWAP2 ADD CALLDATALOAD SWAP2 POP JUMP JUMPDEST PUSH0 DUP1 DUP4 PUSH1 0x1F DUP5 ADD SLT PUSH2 0x2E81 JUMPI PUSH0 DUP1 REVERT JUMPDEST POP DUP2 CALLDATALOAD PUSH8 0xFFFFFFFFFFFFFFFF DUP2 GT ISZERO PUSH2 0x2E98 JUMPI PUSH0 DUP1 REVERT JUMPDEST PUSH1 0x20 DUP4 ADD SWAP2 POP DUP4 PUSH1 0x20 DUP3 DUP6 ADD ADD GT ISZERO PUSH2 0x2D6E JUMPI PUSH0 DUP1 REVERT JUMPDEST PUSH0 DUP1 PUSH0 DUP1 PUSH0 DUP1 PUSH1 0x80 DUP8 DUP10 SUB SLT ISZERO PUSH2 0x2EC4 JUMPI PUSH0 DUP1 REVERT JUMPDEST PUSH2 0x2ECD DUP8 PUSH2 0x2B4E JUMP JUMPDEST SWAP6 POP PUSH1 0x20 DUP8 ADD CALLDATALOAD PUSH8 0xFFFFFFFFFFFFFFFF DUP1 DUP3 GT ISZERO PUSH2 0x2EE9 JUMPI PUSH0 DUP1 REVERT JUMPDEST PUSH2 0x2EF5 DUP11 DUP4 DUP12 ADD PUSH2 0x2E71 JUMP JUMPDEST SWAP1 SWAP8 POP SWAP6 POP PUSH1 0x40 DUP10 ADD CALLDATALOAD SWAP5 POP PUSH1 0x60 DUP10 ADD CALLDATALOAD SWAP2 POP DUP1 DUP3 GT ISZERO PUSH2 0x2F14 JUMPI PUSH0 DUP1 REVERT JUMPDEST POP PUSH2 0x2F21 DUP10 DUP3 DUP11 ADD PUSH2 0x2E71 JUMP JUMPDEST SWAP8 SWAP11 SWAP7 SWAP10 POP SWAP5 SWAP8 POP SWAP3 SWAP6 SWAP4 SWAP5 SWAP3 POP POP POP JUMP JUMPDEST PUSH0 PUSH1 0x20 DUP1 DUP4 DUP6 SUB SLT ISZERO PUSH2 0x2F44 JUMPI PUSH0 DUP1 REVERT JUMPDEST DUP3 CALLDATALOAD PUSH8 0xFFFFFFFFFFFFFFFF DUP1 DUP3 GT ISZERO PUSH2 0x2F5B JUMPI PUSH0 DUP1 REVERT JUMPDEST DUP2 DUP6 ADD SWAP2 POP DUP6 PUSH1 0x1F DUP4 ADD SLT PUSH2 0x2F6E JUMPI PUSH0 DUP1 REVERT JUMPDEST DUP2 CALLDATALOAD DUP2 DUP2 GT ISZERO PUSH2 0x2F80 JUMPI PUSH2 0x2F80 PUSH2 0x2B69 JUMP JUMPDEST DUP1 PUSH1 0x5 SHL SWAP2 POP PUSH2 0x2F91 DUP5 DUP4 ADD PUSH2 0x2B7D JUMP JUMPDEST DUP2 DUP2 MSTORE SWAP2 DUP4 ADD DUP5 ADD SWAP2 DUP5 DUP2 ADD SWAP1 DUP9 DUP5 GT ISZERO PUSH2 0x2FAA JUMPI PUSH0 DUP1 REVERT JUMPDEST SWAP4 DUP6 ADD SWAP4 JUMPDEST DUP4 DUP6 LT ISZERO PUSH2 0x2FC8 JUMPI DUP5 CALLDATALOAD DUP3 MSTORE SWAP4 DUP6 ADD SWAP4 SWAP1 DUP6 ADD SWAP1 PUSH2 0x2FAF JUMP JUMPDEST SWAP9 SWAP8 POP POP POP POP POP POP POP POP JUMP JUMPDEST PUSH1 0x20 DUP1 DUP3 MSTORE DUP3 MLOAD DUP3 DUP3 ADD DUP2 SWAP1 MSTORE PUSH0 SWAP2 SWAP1 DUP5 DUP3 ADD SWAP1 PUSH1 0x40 DUP6 ADD SWAP1 DUP5 JUMPDEST DUP2 DUP2 LT ISZERO PUSH2 0x1571 JUMPI PUSH2 0x302B DUP4 DUP6 MLOAD DUP1 MLOAD PUSH1 0x1 PUSH1 0x1 PUSH1 0xA0 SHL SUB AND DUP3 MSTORE PUSH1 0x20 DUP1 DUP3 ADD MLOAD PUSH8 0xFFFFFFFFFFFFFFFF AND SWAP1 DUP4 ADD MSTORE PUSH1 0x40 SWAP1 DUP2 ADD MLOAD ISZERO ISZERO SWAP2 ADD MSTORE JUMP JUMPDEST SWAP3 DUP5 ADD SWAP3 PUSH1 0x60 SWAP3 SWAP1 SWAP3 ADD SWAP2 PUSH1 0x1 ADD PUSH2 0x2FEF JUMP JUMPDEST PUSH0 DUP1 PUSH0 DUP1 PUSH1 0x80 DUP6 DUP8 SUB SLT ISZERO PUSH2 0x3051 JUMPI PUSH0 DUP1 REVERT JUMPDEST PUSH2 0x305A DUP6 PUSH2 0x2B4E JUMP JUMPDEST SWAP4 POP PUSH1 0x20 DUP6 ADD CALLDATALOAD SWAP3 POP PUSH1 0x40 DUP6 ADD CALLDATALOAD PUSH8 0xFFFFFFFFFFFFFFFF DUP1 DUP3 GT ISZERO PUSH2 0x307D JUMPI PUSH0 DUP1 REVERT JUMPDEST PUSH2 0x3089 DUP9 DUP4 DUP10 ADD PUSH2 0x2BAE JUMP JUMPDEST SWAP4 POP PUSH1 0x60 DUP8 ADD CALLDATALOAD SWAP2 POP DUP1 DUP3 GT ISZERO PUSH2 0x309E JUMPI PUSH0 DUP1 REVERT JUMPDEST POP PUSH2 0x30AB DUP8 DUP3 DUP9 ADD PUSH2 0x2BAE JUMP JUMPDEST SWAP2 POP POP SWAP3 SWAP6 SWAP2 SWAP5 POP SWAP3 POP JUMP JUMPDEST PUSH1 0x20 DUP1 DUP3 MSTORE DUP3 MLOAD DUP3 DUP3 ADD DUP2 SWAP1 MSTORE PUSH0 SWAP2 SWAP1 DUP5 DUP3 ADD SWAP1 PUSH1 0x40 DUP6 ADD SWAP1 DUP5 JUMPDEST DUP2 DUP2 LT ISZERO PUSH2 0x1571 JUMPI DUP4 MLOAD DUP4 MSTORE SWAP3 DUP5 ADD SWAP3 SWAP2 DUP5 ADD SWAP2 PUSH1 0x1 ADD PUSH2 0x30D2 JUMP JUMPDEST PUSH0 PUSH1 0x20 DUP3 DUP5 SUB SLT ISZERO PUSH2 0x30FE JUMPI PUSH0 DUP1 REVERT JUMPDEST DUP2 CALLDATALOAD PUSH8 0xFFFFFFFFFFFFFFFF DUP2 GT ISZERO PUSH2 0x3114 JUMPI PUSH0 DUP1 REVERT JUMPDEST PUSH2 0x1208 DUP5 DUP3 DUP6 ADD PUSH2 0x2BAE JUMP JUMPDEST PUSH0 DUP1 PUSH0 PUSH1 0x60 DUP5 DUP7 SUB SLT ISZERO PUSH2 0x3132 JUMPI PUSH0 DUP1 REVERT JUMPDEST PUSH2 0x313B DUP5 PUSH2 0x2B4E JUMP JUMPDEST SWAP6 PUSH1 0x20 DUP6 ADD CALLDATALOAD SWAP6 POP PUSH1 0x40 SWAP1 SWAP5 ADD CALLDATALOAD SWAP4 SWAP3 POP POP POP JUMP JUMPDEST PUSH0 DUP1 PUSH0 PUSH1 0x60 DUP5 DUP7 SUB SLT ISZERO PUSH2 0x3162 JUMPI PUSH0 DUP1 REVERT JUMPDEST DUP4 CALLDATALOAD SWAP3 POP PUSH2 0x2E41 PUSH1 0x20 DUP6 ADD PUSH2 0x2B4E JUMP JUMPDEST PUSH0 DUP1 PUSH1 0x40 DUP4 DUP6 SUB SLT ISZERO PUSH2 0x3183 JUMPI PUSH0 DUP1 REVERT JUMPDEST PUSH2 0x318C DUP4 PUSH2 0x2B4E JUMP JUMPDEST SWAP2 POP PUSH1 0x20 DUP4 ADD CALLDATALOAD DUP1 ISZERO ISZERO DUP2 EQ PUSH2 0x31A0 JUMPI PUSH0 DUP1 REVERT JUMPDEST DUP1 SWAP2 POP POP SWAP3 POP SWAP3 SWAP1 POP JUMP JUMPDEST PUSH0 DUP1 PUSH1 0x20 DUP4 DUP6 SUB SLT ISZERO PUSH2 0x31BC JUMPI PUSH0 DUP1 REVERT JUMPDEST DUP3 CALLDATALOAD PUSH8 0xFFFFFFFFFFFFFFFF DUP2 GT ISZERO PUSH2 0x31D2 JUMPI PUSH0 DUP1 REVERT JUMPDEST PUSH2 0x31DE DUP6 DUP3 DUP7 ADD PUSH2 0x2D2D JUMP JUMPDEST SWAP1 SWAP7 SWAP1 SWAP6 POP SWAP4 POP POP POP POP JUMP JUMPDEST PUSH0 PUSH1 0x20 DUP1 DUP4 ADD PUSH1 0x20 DUP5 MSTORE DUP1 DUP6 MLOAD DUP1 DUP4 MSTORE PUSH1 0x40 DUP7 ADD SWAP2 POP PUSH1 0x40 DUP2 PUSH1 0x5 SHL DUP8 ADD ADD SWAP3 POP PUSH1 0x20 DUP8 ADD PUSH0 JUMPDEST DUP3 DUP2 LT ISZERO PUSH2 0x323F JUMPI PUSH1 0x3F NOT DUP9 DUP7 SUB ADD DUP5 MSTORE PUSH2 0x322D DUP6 DUP4 MLOAD PUSH2 0x2C7C JUMP JUMPDEST SWAP5 POP SWAP3 DUP6 ADD SWAP3 SWAP1 DUP6 ADD SWAP1 PUSH1 0x1 ADD PUSH2 0x3211 JUMP JUMPDEST POP SWAP3 SWAP8 SWAP7 POP POP POP POP POP POP POP JUMP JUMPDEST PUSH0 DUP1 PUSH0 DUP1 PUSH1 0x80 DUP6 DUP8 SUB SLT ISZERO PUSH2 0x325F JUMPI PUSH0 DUP1 REVERT JUMPDEST PUSH2 0x3268 DUP6 PUSH2 0x2B4E JUMP JUMPDEST SWAP4 POP PUSH2 0x3276 PUSH1 0x20 DUP7 ADD PUSH2 0x2B4E JUMP JUMPDEST SWAP3 POP PUSH1 0x40 DUP6 ADD CALLDATALOAD SWAP2 POP PUSH1 0x60 DUP6 ADD CALLDATALOAD PUSH8 0xFFFFFFFFFFFFFFFF DUP2 GT ISZERO PUSH2 0x3298 JUMPI PUSH0 DUP1 REVERT JUMPDEST PUSH2 0x30AB DUP8 DUP3 DUP9 ADD PUSH2 0x2BAE JUMP JUMPDEST DUP2 MLOAD PUSH1 0x1 PUSH1 0x1 PUSH1 0xA0 SHL SUB AND DUP2 MSTORE PUSH1 0x20 DUP1 DUP4 ADD MLOAD PUSH8 0xFFFFFFFFFFFFFFFF AND SWAP1 DUP3 ADD MSTORE PUSH1 0x40 DUP1 DUP4 ADD MLOAD ISZERO ISZERO SWAP1 DUP3 ADD MSTORE PUSH1 0x60 DUP2 ADD PUSH2 0xA4B JUMP JUMPDEST PUSH0 DUP1 PUSH1 0x40 DUP4 DUP6 SUB SLT ISZERO PUSH2 0x32EB JUMPI PUSH0 DUP1 REVERT JUMPDEST PUSH2 0x32F4 DUP4 PUSH2 0x2B4E JUMP JUMPDEST SWAP2 POP PUSH2 0x3302 PUSH1 0x20 DUP5 ADD PUSH2 0x2B4E JUMP JUMPDEST SWAP1 POP SWAP3 POP SWAP3 SWAP1 POP JUMP JUMPDEST PUSH1 0x1 DUP2 DUP2 SHR SWAP1 DUP3 AND DUP1 PUSH2 0x331F JUMPI PUSH1 0x7F DUP3 AND SWAP2 POP JUMPDEST PUSH1 0x20 DUP3 LT DUP2 SUB PUSH2 0x333D JUMPI PUSH4 0x4E487B71 PUSH1 0xE0 SHL PUSH0 MSTORE PUSH1 0x22 PUSH1 0x4 MSTORE PUSH1 0x24 PUSH0 REVERT JUMPDEST POP SWAP2 SWAP1 POP JUMP JUMPDEST PUSH4 0x4E487B71 PUSH1 0xE0 SHL PUSH0 MSTORE PUSH1 0x11 PUSH1 0x4 MSTORE PUSH1 0x24 PUSH0 REVERT JUMPDEST DUP1 DUP3 ADD DUP1 DUP3 GT ISZERO PUSH2 0xA4B JUMPI PUSH2 0xA4B PUSH2 0x3343 JUMP JUMPDEST DUP1 DUP3 MUL DUP2 ISZERO DUP3 DUP3 DIV DUP5 EQ OR PUSH2 0xA4B JUMPI PUSH2 0xA4B PUSH2 0x3343 JUMP JUMPDEST PUSH4 0x4E487B71 PUSH1 0xE0 SHL PUSH0 MSTORE PUSH1 0x32 PUSH1 0x4 MSTORE PUSH1 0x24 PUSH0 REVERT JUMPDEST PUSH0 DUP1 DUP4 CALLDATALOAD PUSH1 0x1E NOT DUP5 CALLDATASIZE SUB ADD DUP2 SLT PUSH2 0x33AA JUMPI PUSH0 DUP1 REVERT JUMPDEST DUP4 ADD DUP1 CALLDATALOAD SWAP2 POP PUSH8 0xFFFFFFFFFFFFFFFF DUP3 GT ISZERO PUSH2 0x33C4 JUMPI PUSH0 DUP1 REVERT JUMPDEST PUSH1 0x20 ADD SWAP2 POP CALLDATASIZE DUP2 SWAP1 SUB DUP3 SGT ISZERO PUSH2 0x2D6E JUMPI PUSH0 DUP1 REVERT JUMPDEST PUSH1 0x1F DUP3 GT ISZERO PUSH2 0xBA3 JUMPI DUP1 PUSH0 MSTORE PUSH1 0x20 PUSH0 KECCAK256 PUSH1 0x1F DUP5 ADD PUSH1 0x5 SHR DUP2 ADD PUSH1 0x20 DUP6 LT ISZERO PUSH2 0x33FD JUMPI POP DUP1 JUMPDEST PUSH1 0x1F DUP5 ADD PUSH1 0x5 SHR DUP3 ADD SWAP2 POP JUMPDEST DUP2 DUP2 LT ISZERO PUSH2 0x20F8 JUMPI PUSH0 DUP2 SSTORE PUSH1 0x1 ADD PUSH2 0x3409 JUMP JUMPDEST PUSH8 0xFFFFFFFFFFFFFFFF DUP4 GT ISZERO PUSH2 0x3434 JUMPI PUSH2 0x3434 PUSH2 0x2B69 JUMP JUMPDEST PUSH2 0x3448 DUP4 PUSH2 0x3442 DUP4 SLOAD PUSH2 0x330B JUMP JUMPDEST DUP4 PUSH2 0x33D8 JUMP JUMPDEST PUSH0 PUSH1 0x1F DUP5 GT PUSH1 0x1 DUP2 EQ PUSH2 0x3479 JUMPI PUSH0 DUP6 ISZERO PUSH2 0x3462 JUMPI POP DUP4 DUP3 ADD CALLDATALOAD JUMPDEST PUSH0 NOT PUSH1 0x3 DUP8 SWAP1 SHL SHR NOT AND PUSH1 0x1 DUP7 SWAP1 SHL OR DUP4 SSTORE PUSH2 0x20F8 JUMP JUMPDEST PUSH0 DUP4 DUP2 MSTORE PUSH1 0x20 DUP2 KECCAK256 PUSH1 0x1F NOT DUP8 AND SWAP2 JUMPDEST DUP3 DUP2 LT ISZERO PUSH2 0x34A8 JUMPI DUP7 DUP6 ADD CALLDATALOAD DUP3 SSTORE PUSH1 0x20 SWAP5 DUP6 ADD SWAP5 PUSH1 0x1 SWAP1 SWAP3 ADD SWAP2 ADD PUSH2 0x3488 JUMP JUMPDEST POP DUP7 DUP3 LT ISZERO PUSH2 0x34C4 JUMPI PUSH0 NOT PUSH1 0xF8 DUP9 PUSH1 0x3 SHL AND SHR NOT DUP5 DUP8 ADD CALLDATALOAD AND DUP2 SSTORE JUMPDEST POP POP PUSH1 0x1 DUP6 PUSH1 0x1 SHL ADD DUP4 SSTORE POP POP POP POP POP JUMP JUMPDEST DUP4 DUP2 MSTORE PUSH1 0x40 PUSH1 0x20 DUP3 ADD MSTORE DUP2 PUSH1 0x40 DUP3 ADD MSTORE DUP2 DUP4 PUSH1 0x60 DUP4 ADD CALLDATACOPY PUSH0 DUP2 DUP4 ADD PUSH1 0x60 SWAP1 DUP2 ADD SWAP2 SWAP1 SWAP2 MSTORE PUSH1 0x1F SWAP1 SWAP3 ADD PUSH1 0x1F NOT AND ADD ADD SWAP3 SWAP2 POP POP JUMP JUMPDEST PUSH4 0x4E487B71 PUSH1 0xE0 SHL PUSH0 MSTORE PUSH1 0x12 PUSH1 0x4 MSTORE PUSH1 0x24 PUSH0 REVERT JUMPDEST PUSH0 DUP3 PUSH2 0x352D JUMPI PUSH2 0x352D PUSH2 0x350B JUMP JUMPDEST POP DIV SWAP1 JUMP JUMPDEST DUP3 DUP5 DUP3 CALLDATACOPY PUSH1 0x60 SWAP2 SWAP1 SWAP2 SHL PUSH12 0xFFFFFFFFFFFFFFFFFFFFFFFF NOT AND SWAP2 ADD SWAP1 DUP2 MSTORE PUSH1 0x14 ADD SWAP2 SWAP1 POP JUMP JUMPDEST PUSH0 DUP2 MLOAD DUP1 PUSH1 0x20 DUP5 ADD DUP6 MCOPY PUSH0 SWAP4 ADD SWAP3 DUP4 MSTORE POP SWAP1 SWAP2 SWAP1 POP JUMP JUMPDEST PUSH0 PUSH2 0x1208 PUSH2 0x357D DUP4 DUP7 PUSH2 0x3558 JUMP JUMPDEST DUP5 PUSH2 0x3558 JUMP JUMPDEST DUP2 MLOAD PUSH8 0xFFFFFFFFFFFFFFFF DUP2 GT ISZERO PUSH2 0x359D JUMPI PUSH2 0x359D PUSH2 0x2B69 JUMP JUMPDEST PUSH2 0x35B1 DUP2 PUSH2 0x35AB DUP5 SLOAD PUSH2 0x330B JUMP JUMPDEST DUP5 PUSH2 0x33D8 JUMP JUMPDEST PUSH1 0x20 DUP1 PUSH1 0x1F DUP4 GT PUSH1 0x1 DUP2 EQ PUSH2 0x35E4 JUMPI PUSH0 DUP5 ISZERO PUSH2 0x35CD JUMPI POP DUP6 DUP4 ADD MLOAD JUMPDEST PUSH0 NOT PUSH1 0x3 DUP7 SWAP1 SHL SHR NOT AND PUSH1 0x1 DUP6 SWAP1 SHL OR DUP6 SSTORE PUSH2 0x363B JUMP JUMPDEST PUSH0 DUP6 DUP2 MSTORE PUSH1 0x20 DUP2 KECCAK256 PUSH1 0x1F NOT DUP7 AND SWAP2 JUMPDEST DUP3 DUP2 LT ISZERO PUSH2 0x3612 JUMPI DUP9 DUP7 ADD MLOAD DUP3 SSTORE SWAP5 DUP5 ADD SWAP5 PUSH1 0x1 SWAP1 SWAP2 ADD SWAP1 DUP5 ADD PUSH2 0x35F3 JUMP JUMPDEST POP DUP6 DUP3 LT ISZERO PUSH2 0x362F JUMPI DUP8 DUP6 ADD MLOAD PUSH0 NOT PUSH1 0x3 DUP9 SWAP1 SHL PUSH1 0xF8 AND SHR NOT AND DUP2 SSTORE JUMPDEST POP POP PUSH1 0x1 DUP5 PUSH1 0x1 SHL ADD DUP6 SSTORE JUMPDEST POP POP POP POP POP POP JUMP JUMPDEST PUSH1 0x40 DUP2 MSTORE PUSH0 PUSH2 0x3655 PUSH1 0x40 DUP4 ADD DUP6 PUSH2 0x2C7C JUMP JUMPDEST DUP3 DUP2 SUB PUSH1 0x20 DUP5 ADD MSTORE PUSH2 0x3667 DUP2 DUP6 PUSH2 0x2C7C JUMP JUMPDEST SWAP6 SWAP5 POP POP POP POP POP JUMP JUMPDEST PUSH0 PUSH1 0x1 PUSH1 0x1 PUSH1 0xA0 SHL SUB DUP1 DUP8 AND DUP4 MSTORE DUP1 DUP7 AND PUSH1 0x20 DUP5 ADD MSTORE POP DUP4 PUSH1 0x40 DUP4 ADD MSTORE PUSH1 0x80 PUSH1 0x60 DUP4 ADD MSTORE PUSH2 0x2AA7 PUSH1 0x80 DUP4 ADD DUP5 PUSH2 0x2C7C JUMP JUMPDEST PUSH0 PUSH1 0x20 DUP3 DUP5 SUB SLT ISZERO PUSH2 0x36B1 JUMPI PUSH0 DUP1 REVERT JUMPDEST DUP2 MLOAD PUSH2 0x1760 DUP2 PUSH2 0x2CBC JUMP JUMPDEST PUSH0 PUSH1 0x1 DUP3 ADD PUSH2 0x36CD JUMPI PUSH2 0x36CD PUSH2 0x3343 JUMP JUMPDEST POP PUSH1 0x1 ADD SWAP1 JUMP JUMPDEST DUP2 DUP2 SUB DUP2 DUP2 GT ISZERO PUSH2 0xA4B JUMPI PUSH2 0xA4B PUSH2 0x3343 JUMP JUMPDEST PUSH0 DUP3 PUSH2 0x36F5 JUMPI PUSH2 0x36F5 PUSH2 0x350B JUMP JUMPDEST POP MOD SWAP1 JUMP JUMPDEST PUSH0 PUSH2 0x1760 DUP3 DUP5 PUSH2 0x3558 JUMP INVALID COINBASE PUSH5 0x6472657373 GASPRICE KECCAK256 PUSH13 0x6F772D6C6576656C2064656C65 PUSH8 0x6174652063616C6C KECCAK256 PUSH7 0x61696C6564A264 PUSH10 0x7066735822122087AED6 LT CALLDATASIZE BYTE 0x2F BASEFEE PUSH31 0x7F0E8B09B43C62A12C67CDC013BE28F2123E1CCC6144E264736F6C63430008 NOT STOP CALLER "
    },
    "gasEstimates": {
      "creation": {
        "codeDepositCost": "2835600",
        "executionCost": "infinite",
        "totalCost": "infinite"
      },
      "external": {
        "MAX_SUPPLY()": "284",
        "approve(address,uint256)": "infinite",
        "balanceOf(address)": "2703",
        "batchFrozen(uint256)": "2537",
        "batchMintTo(address,uint256,string,bytes)": "infinite",
        "burn(uint256)": "infinite",
        "contractURI()": "infinite",
        "explicitOwnershipOf(uint256)": "infinite",
        "explicitOwnershipsOf(uint256[])": "infinite",
        "getApproved(uint256)": "6975",
        "getBaseURICount()": "2381",
        "getBatchIdAtIndex(uint256)": "6801",
        "getDefaultRoyaltyInfo()": "2497",
        "getRoyaltyInfoForToken(uint256)": "6999",
        "isApprovedForAll(address,address)": "infinite",
        "isApprovedOrOwner(address,uint256)": "infinite",
        "mint(address,string,uint256,string)": "infinite",
        "mintBatch(address,string[],uint256[],string[])": "infinite",
        "mintFee()": "2385",
        "mintTo(address,string)": "infinite",
        "mojoScore(uint256)": "2525",
        "multicall(bytes[])": "infinite",
        "name()": "infinite",
        "narrative(uint256)": "infinite",
        "nextTokenIdToMint()": "2402",
        "owner()": "2397",
        "ownerOf(uint256)": "infinite",
        "royaltyInfo(uint256,uint256)": "7215",
        "safeTransferFrom(address,address,uint256)": "infinite",
        "safeTransferFrom(address,address,uint256,bytes)": "infinite",
        "setApprovalForAll(address,bool)": "26689",
        "setContractURI(string)": "infinite",
        "setDefaultRoyaltyInfo(address,uint256)": "28410",
        "setMintFee(uint256)": "24572",
        "setOwner(address)": "28460",
        "setRoyaltyInfoForToken(uint256,address,uint256)": "51065",
        "supportsInterface(bytes4)": "642",
        "symbol()": "infinite",
        "tokenURI(uint256)": "infinite",
        "tokensOfOwner(address)": "infinite",
        "tokensOfOwnerIn(address,uint256,uint256)": "infinite",
        "totalSupply()": "4508",
        "transferFrom(address,address,uint256)": "infinite",
        "withdraw()": "infinite"
      }
    },
    "methodIdentifiers": {
      "MAX_SUPPLY()": "32cb6b0c",
      "approve(address,uint256)": "095ea7b3",
      "balanceOf(address)": "70a08231",
      "batchFrozen(uint256)": "83040532",
      "batchMintTo(address,uint256,string,bytes)": "754a81d9",
      "burn(uint256)": "42966c68",
      "contractURI()": "e8a3d485",
      "explicitOwnershipOf(uint256)": "c23dc68f",
      "explicitOwnershipsOf(uint256[])": "5bbb2177",
      "getApproved(uint256)": "081812fc",
      "getBaseURICount()": "63b45e2d",
      "getBatchIdAtIndex(uint256)": "2419f51b",
      "getDefaultRoyaltyInfo()": "b24f2d39",
      "getRoyaltyInfoForToken(uint256)": "4cc157df",
      "isApprovedForAll(address,address)": "e985e9c5",
      "isApprovedOrOwner(address,uint256)": "430c2081",
      "mint(address,string,uint256,string)": "3dd90430",
      "mintBatch(address,string[],uint256[],string[])": "13f06469",
      "mintFee()": "13966db5",
      "mintTo(address,string)": "0075a317",
      "mojoScore(uint256)": "16551300",
      "multicall(bytes[])": "ac9650d8",
      "name()": "06fdde03",
      "narrative(uint256)": "01b0a13e",
      "nextTokenIdToMint()": "3b1475a7",
      "owner()": "8da5cb5b",
      "ownerOf(uint256)": "6352211e",
      "royaltyInfo(uint256,uint256)": "2a55205a",
      "safeTransferFrom(address,address,uint256)": "42842e0e",
      "safeTransferFrom(address,address,uint256,bytes)": "b88d4fde",
      "setApprovalForAll(address,bool)": "a22cb465",
      "setContractURI(string)": "938e3d7b",
      "setDefaultRoyaltyInfo(address,uint256)": "600dd5ea",
      "setMintFee(uint256)": "eddd0d9c",
      "setOwner(address)": "13af4035",
      "setRoyaltyInfoForToken(uint256,address,uint256)": "9bcf7a15",
      "supportsInterface(bytes4)": "01ffc9a7",
      "symbol()": "95d89b41",
      "tokenURI(uint256)": "c87b56dd",
      "tokensOfOwner(address)": "8462151c",
      "tokensOfOwnerIn(address,uint256,uint256)": "99a2557a",
      "totalSupply()": "18160ddd",
      "transferFrom(address,address,uint256)": "23b872dd",
      "withdraw()": "3ccfd60b"
    }
  },
  "storageLayout": {
    "storage": [
      {
        "astId": 2140,
        "contract": "DontKilltheJamNFTMojoClaimRedeax.sol:PleaseDontKillTheJam",
        "label": "_currentIndex",
        "offset": 0,
        "slot": "0",
        "type": "t_uint256"
      },
      {
        "astId": 2142,
        "contract": "DontKilltheJamNFTMojoClaimRedeax.sol:PleaseDontKillTheJam",
        "label": "_burnCounter",
        "offset": 0,
        "slot": "1",
        "type": "t_uint256"
      },
      {
        "astId": 2144,
        "contract": "DontKilltheJamNFTMojoClaimRedeax.sol:PleaseDontKillTheJam",
        "label": "_name",
        "offset": 0,
        "slot": "2",
        "type": "t_string_storage"
      },
      {
        "astId": 2146,
        "contract": "DontKilltheJamNFTMojoClaimRedeax.sol:PleaseDontKillTheJam",
        "label": "_symbol",
        "offset": 0,
        "slot": "3",
        "type": "t_string_storage"
      },
      {
        "astId": 2151,
        "contract": "DontKilltheJamNFTMojoClaimRedeax.sol:PleaseDontKillTheJam",
        "label": "_ownerships",
        "offset": 0,
        "slot": "4",
        "type": "t_mapping(t_uint256,t_struct(TokenOwnership)4075_storage)"
      },
      {
        "astId": 2156,
        "contract": "DontKilltheJamNFTMojoClaimRedeax.sol:PleaseDontKillTheJam",
        "label": "_addressData",
        "offset": 0,
        "slot": "5",
        "type": "t_mapping(t_address,t_struct(AddressData)4084_storage)"
      },
      {
        "astId": 2160,
        "contract": "DontKilltheJamNFTMojoClaimRedeax.sol:PleaseDontKillTheJam",
        "label": "_tokenApprovals",
        "offset": 0,
        "slot": "6",
        "type": "t_mapping(t_uint256,t_address)"
      },
      {
        "astId": 2166,
        "contract": "DontKilltheJamNFTMojoClaimRedeax.sol:PleaseDontKillTheJam",
        "label": "_operatorApprovals",
        "offset": 0,
        "slot": "7",
        "type": "t_mapping(t_address,t_mapping(t_address,t_bool))"
      },
      {
        "astId": 1359,
        "contract": "DontKilltheJamNFTMojoClaimRedeax.sol:PleaseDontKillTheJam",
        "label": "contractURI",
        "offset": 0,
        "slot": "8",
        "type": "t_string_storage"
      },
      {
        "astId": 1521,
        "contract": "DontKilltheJamNFTMojoClaimRedeax.sol:PleaseDontKillTheJam",
        "label": "_owner",
        "offset": 0,
        "slot": "9",
        "type": "t_address"
      },
      {
        "astId": 1616,
        "contract": "DontKilltheJamNFTMojoClaimRedeax.sol:PleaseDontKillTheJam",
        "label": "royaltyRecipient",
        "offset": 0,
        "slot": "10",
        "type": "t_address"
      },
      {
        "astId": 1619,
        "contract": "DontKilltheJamNFTMojoClaimRedeax.sol:PleaseDontKillTheJam",
        "label": "royaltyBps",
        "offset": 20,
        "slot": "10",
        "type": "t_uint16"
      },
      {
        "astId": 1625,
        "contract": "DontKilltheJamNFTMojoClaimRedeax.sol:PleaseDontKillTheJam",
        "label": "royaltyInfoForToken",
        "offset": 0,
        "slot": "11",
        "type": "t_mapping(t_uint256,t_struct(RoyaltyInfo)3943_storage)"
      },
      {
        "astId": 1020,
        "contract": "DontKilltheJamNFTMojoClaimRedeax.sol:PleaseDontKillTheJam",
        "label": "batchIds",
        "offset": 0,
        "slot": "12",
        "type": "t_array(t_uint256)dyn_storage"
      },
      {
        "astId": 1025,
        "contract": "DontKilltheJamNFTMojoClaimRedeax.sol:PleaseDontKillTheJam",
        "label": "baseURI",
        "offset": 0,
        "slot": "13",
        "type": "t_mapping(t_uint256,t_string_storage)"
      },
      {
        "astId": 1030,
        "contract": "DontKilltheJamNFTMojoClaimRedeax.sol:PleaseDontKillTheJam",
        "label": "batchFrozen",
        "offset": 0,
        "slot": "14",
        "type": "t_mapping(t_uint256,t_bool)"
      },
      {
        "astId": 308,
        "contract": "DontKilltheJamNFTMojoClaimRedeax.sol:PleaseDontKillTheJam",
        "label": "fullURI",
        "offset": 0,
        "slot": "15",
        "type": "t_mapping(t_uint256,t_string_storage)"
      },
      {
        "astId": 9,
        "contract": "DontKilltheJamNFTMojoClaimRedeax.sol:PleaseDontKillTheJam",
        "label": "mintFee",
        "offset": 0,
        "slot": "16",
        "type": "t_uint256"
      },
      {
        "astId": 13,
        "contract": "DontKilltheJamNFTMojoClaimRedeax.sol:PleaseDontKillTheJam",
        "label": "mojoScore",
        "offset": 0,
        "slot": "17",
        "type": "t_mapping(t_uint256,t_uint256)"
      },
      {
        "astId": 17,
        "contract": "DontKilltheJamNFTMojoClaimRedeax.sol:PleaseDontKillTheJam",
        "label": "narrative",
        "offset": 0,
        "slot": "18",
        "type": "t_mapping(t_uint256,t_string_storage)"
      }
    ],
    "types": {
      "t_address": {
        "encoding": "inplace",
        "label": "address",
        "numberOfBytes": "20"
      },
      "t_array(t_uint256)dyn_storage": {
        "base": "t_uint256",
        "encoding": "dynamic_array",
        "label": "uint256[]",
        "numberOfBytes": "32"
      },
      "t_bool": {
        "encoding": "inplace",
        "label": "bool",
        "numberOfBytes": "1"
      },
      "t_mapping(t_address,t_bool)": {
        "encoding": "mapping",
        "key": "t_address",
        "label": "mapping(address => bool)",
        "numberOfBytes": "32",
        "value": "t_bool"
      },
      "t_mapping(t_address,t_mapping(t_address,t_bool))": {
        "encoding": "mapping",
        "key": "t_address",
        "label": "mapping(address => mapping(address => bool))",
        "numberOfBytes": "32",
        "value": "t_mapping(t_address,t_bool)"
      },
      "t_mapping(t_address,t_struct(AddressData)4084_storage)": {
        "encoding": "mapping",
        "key": "t_address",
        "label": "mapping(address => struct IERC721A.AddressData)",
        "numberOfBytes": "32",
        "value": "t_struct(AddressData)4084_storage"
      },
      "t_mapping(t_uint256,t_address)": {
        "encoding": "mapping",
        "key": "t_uint256",
        "label": "mapping(uint256 => address)",
        "numberOfBytes": "32",
        "value": "t_address"
      },
      "t_mapping(t_uint256,t_bool)": {
        "encoding": "mapping",
        "key": "t_uint256",
        "label": "mapping(uint256 => bool)",
        "numberOfBytes": "32",
        "value": "t_bool"
      },
      "t_mapping(t_uint256,t_string_storage)": {
        "encoding": "mapping",
        "key": "t_uint256",
        "label": "mapping(uint256 => string)",
        "numberOfBytes": "32",
        "value": "t_string_storage"
      },
      "t_mapping(t_uint256,t_struct(RoyaltyInfo)3943_storage)": {
        "encoding": "mapping",
        "key": "t_uint256",
        "label": "mapping(uint256 => struct IRoyalty.RoyaltyInfo)",
        "numberOfBytes": "32",
        "value": "t_struct(RoyaltyInfo)3943_storage"
      },
      "t_mapping(t_uint256,t_struct(TokenOwnership)4075_storage)": {
        "encoding": "mapping",
        "key": "t_uint256",
        "label": "mapping(uint256 => struct IERC721A.TokenOwnership)",
        "numberOfBytes": "32",
        "value": "t_struct(TokenOwnership)4075_storage"
      },
      "t_mapping(t_uint256,t_uint256)": {
        "encoding": "mapping",
        "key": "t_uint256",
        "label": "mapping(uint256 => uint256)",
        "numberOfBytes": "32",
        "value": "t_uint256"
      },
      "t_string_storage": {
        "encoding": "bytes",
        "label": "string",
        "numberOfBytes": "32"
      },
      "t_struct(AddressData)4084_storage": {
        "encoding": "inplace",
        "label": "struct IERC721A.AddressData",
        "members": [
          {
            "astId": 4077,
            "contract": "DontKilltheJamNFTMojoClaimRedeax.sol:PleaseDontKillTheJam",
            "label": "balance",
            "offset": 0,
            "slot": "0",
            "type": "t_uint64"
          },
          {
            "astId": 4079,
            "contract": "DontKilltheJamNFTMojoClaimRedeax.sol:PleaseDontKillTheJam",
            "label": "numberMinted",
            "offset": 8,
            "slot": "0",
            "type": "t_uint64"
          },
          {
            "astId": 4081,
            "contract": "DontKilltheJamNFTMojoClaimRedeax.sol:PleaseDontKillTheJam",
            "label": "numberBurned",
            "offset": 16,
            "slot": "0",
            "type": "t_uint64"
          },
          {
            "astId": 4083,
            "contract": "DontKilltheJamNFTMojoClaimRedeax.sol:PleaseDontKillTheJam",
            "label": "aux",
            "offset": 24,
            "slot": "0",
            "type": "t_uint64"
          }
        ],
        "numberOfBytes": "32"
      },
      "t_struct(RoyaltyInfo)3943_storage": {
        "encoding": "inplace",
        "label": "struct IRoyalty.RoyaltyInfo",
        "members": [
          {
            "astId": 3940,
            "contract": "DontKilltheJamNFTMojoClaimRedeax.sol:PleaseDontKillTheJam",
            "label": "recipient",
            "offset": 0,
            "slot": "0",
            "type": "t_address"
          },
          {
            "astId": 3942,
            "contract": "DontKilltheJamNFTMojoClaimRedeax.sol:PleaseDontKillTheJam",
            "label": "bps",
            "offset": 0,
            "slot": "1",
            "type": "t_uint256"
          }
        ],
        "numberOfBytes": "64"
      },
      "t_struct(TokenOwnership)4075_storage": {
        "encoding": "inplace",
        "label": "struct IERC721A.TokenOwnership",
        "members": [
          {
            "astId": 4070,
            "contract": "DontKilltheJamNFTMojoClaimRedeax.sol:PleaseDontKillTheJam",
            "label": "addr",
            "offset": 0,
            "slot": "0",
            "type": "t_address"
          },
          {
            "astId": 4072,
            "contract": "DontKilltheJamNFTMojoClaimRedeax.sol:PleaseDontKillTheJam",
            "label": "startTimestamp",
            "offset": 20,
            "slot": "0",
            "type": "t_uint64"
          },
          {
            "astId": 4074,
            "contract": "DontKilltheJamNFTMojoClaimRedeax.sol:PleaseDontKillTheJam",
            "label": "burned",
            "offset": 28,
            "slot": "0",
            "type": "t_bool"
          }
        ],
        "numberOfBytes": "32"
      },
      "t_uint16": {
        "encoding": "inplace",
        "label": "uint16",
        "numberOfBytes": "2"
      },
      "t_uint256": {
        "encoding": "inplace",
        "label": "uint256",
        "numberOfBytes": "32"
      },
      "t_uint64": {
        "encoding": "inplace",
        "label": "uint64",
        "numberOfBytes": "8"
      }
    }
  },
  "userdoc": {
    "errors": {
      "ApprovalCallerNotOwnerNorApproved()": [
        {
          "notice": "The caller must own the token or be an approved operator."
        }
      ],
      "ApprovalQueryForNonexistentToken()": [
        {
          "notice": "The token does not exist."
        }
      ],
      "ApprovalToCurrentOwner()": [
        {
          "notice": "The caller cannot approve to the current owner."
        }
      ],
      "ApproveToCaller()": [
        {
          "notice": "The caller cannot approve to their own address."
        }
      ],
      "BalanceQueryForZeroAddress()": [
        {
          "notice": "Cannot query the balance for the zero address."
        }
      ],
      "InvalidQueryRange()": [
        {
          "notice": "Invalid query range (`start` >= `stop`)."
        }
      ],
      "MintToZeroAddress()": [
        {
          "notice": "Cannot mint to the zero address."
        }
      ],
      "MintZeroQuantity()": [
        {
          "notice": "The quantity of tokens minted must be more than zero."
        }
      ],
      "OwnerQueryForNonexistentToken()": [
        {
          "notice": "The token does not exist."
        }
      ],
      "TransferCallerNotOwnerNorApproved()": [
        {
          "notice": "The caller must own the token or be an approved operator."
        }
      ],
      "TransferFromIncorrectOwner()": [
        {
          "notice": "The token must be owned by `from`."
        }
      ],
      "TransferToNonERC721ReceiverImplementer()": [
        {
          "notice": "Cannot safely transfer to a contract that does not implement the ERC721Receiver interface."
        }
      ],
      "TransferToZeroAddress()": [
        {
          "notice": "Cannot transfer to the zero address."
        }
      ],
      "URIQueryForNonexistentToken()": [
        {
          "notice": "The token does not exist."
        }
      ]
    },
    "events": {
      "BatchMetadataUpdate(uint256,uint256)": {
        "notice": "So that the third-party platforms such as NFT market could timely update the images and related attributes of the NFTs."
      }
    },
    "kind": "user",
    "methods": {
      "batchMintTo(address,uint256,string,bytes)": {
        "notice": "Lets an authorized address mint multiple NFTs at once to a recipient."
      },
      "burn(uint256)": {
        "notice": "Lets an owner or approved operator burn the NFT of the given tokenId."
      },
      "contractURI()": {
        "notice": "Returns the contract metadata URI."
      },
      "getBaseURICount()": {
        "notice": "Returns the count of batches of NFTs."
      },
      "getBatchIdAtIndex(uint256)": {
        "notice": "Returns the ID for the batch of tokens at the given index."
      },
      "getDefaultRoyaltyInfo()": {
        "notice": "Returns the defualt royalty recipient and BPS for this contract's NFTs."
      },
      "getRoyaltyInfoForToken(uint256)": {
        "notice": "View royalty info for a given token."
      },
      "isApprovedOrOwner(address,uint256)": {
        "notice": "Returns whether a given address is the owner, or approved to transfer an NFT."
      },
      "mint(address,string,uint256,string)": {
        "notice": "Mint one NFT with mojo & narrative attached"
      },
      "mintBatch(address,string[],uint256[],string[])": {
        "notice": "Mint multiple in one go. Fees must exactly equal count * mintFee."
      },
      "mintTo(address,string)": {
        "notice": "Lets an authorized address mint an NFT to a recipient."
      },
      "multicall(bytes[])": {
        "notice": "Receives and executes a batch of function calls on this contract."
      },
      "nextTokenIdToMint()": {
        "notice": "The tokenId assigned to the next new NFT to be minted."
      },
      "owner()": {
        "notice": "Returns the owner of the contract."
      },
      "royaltyInfo(uint256,uint256)": {
        "notice": "View royalty info for a given token and sale price."
      },
      "setContractURI(string)": {
        "notice": "Lets a contract admin set the URI for contract-level metadata."
      },
      "setDefaultRoyaltyInfo(address,uint256)": {
        "notice": "Updates default royalty recipient and bps."
      },
      "setMintFee(uint256)": {
        "notice": "Owner can update fee"
      },
      "setOwner(address)": {
        "notice": "Lets an authorized wallet set a new owner for the contract."
      },
      "setRoyaltyInfoForToken(uint256,address,uint256)": {
        "notice": "Updates default royalty recipient and bps for a particular token."
      },
      "tokenURI(uint256)": {
        "notice": "Returns the metadata URI for an NFT."
      },
      "withdraw()": {
        "notice": "Withdraw all ETH"
      }
    },
    "version": 1
  }
}